{
  "_format": "hh-sol-artifact-1",
  "contractName": "LinkNFTs",
  "sourceName": "contracts/LinkNFTs.sol",
  "abi": [
    {
      "anonymous": false,
      "inputs": [
        {
          "indexed": false,
          "internalType": "uint8",
          "name": "version",
          "type": "uint8"
        }
      ],
      "name": "Initialized",
      "type": "event"
    },
    {
      "anonymous": false,
      "inputs": [
        {
          "indexed": true,
          "internalType": "address",
          "name": "previousOwner",
          "type": "address"
        },
        {
          "indexed": true,
          "internalType": "address",
          "name": "newOwner",
          "type": "address"
        }
      ],
      "name": "OwnershipTransferred",
      "type": "event"
    },
    {
      "inputs": [],
      "name": "App_NFT_Address",
      "outputs": [
        {
          "internalType": "contract IERC721",
          "name": "",
          "type": "address"
        }
      ],
      "stateMutability": "view",
      "type": "function"
    },
    {
      "inputs": [
        {
          "internalType": "address",
          "name": "customNFTAddress",
          "type": "address"
        },
        {
          "internalType": "uint256",
          "name": "customNFTid",
          "type": "uint256"
        }
      ],
      "name": "getAllLinks",
      "outputs": [
        {
          "internalType": "uint256[]",
          "name": "",
          "type": "uint256[]"
        }
      ],
      "stateMutability": "view",
      "type": "function"
    },
    {
      "inputs": [],
      "name": "getChainId",
      "outputs": [
        {
          "internalType": "uint256",
          "name": "",
          "type": "uint256"
        }
      ],
      "stateMutability": "view",
      "type": "function"
    },
    {
      "inputs": [
        {
          "internalType": "contract IERC721",
          "name": "_App_NFT_Address",
          "type": "address"
        }
      ],
      "name": "initialize",
      "outputs": [],
      "stateMutability": "nonpayable",
      "type": "function"
    },
    {
      "inputs": [
        {
          "internalType": "uint256",
          "name": "",
          "type": "uint256"
        }
      ],
      "name": "isLinked",
      "outputs": [
        {
          "internalType": "bool",
          "name": "",
          "type": "bool"
        }
      ],
      "stateMutability": "view",
      "type": "function"
    },
    {
      "inputs": [
        {
          "internalType": "address",
          "name": "",
          "type": "address"
        },
        {
          "internalType": "uint256",
          "name": "",
          "type": "uint256"
        },
        {
          "internalType": "uint256",
          "name": "",
          "type": "uint256"
        }
      ],
      "name": "isLinkedTo",
      "outputs": [
        {
          "internalType": "bool",
          "name": "",
          "type": "bool"
        }
      ],
      "stateMutability": "view",
      "type": "function"
    },
    {
      "inputs": [
        {
          "internalType": "uint256",
          "name": "AppNFTid",
          "type": "uint256"
        },
        {
          "internalType": "address",
          "name": "CustomNFTAddress",
          "type": "address"
        },
        {
          "internalType": "uint256",
          "name": "CustomNFTid",
          "type": "uint256"
        }
      ],
      "name": "linkTo",
      "outputs": [],
      "stateMutability": "nonpayable",
      "type": "function"
    },
    {
      "inputs": [
        {
          "internalType": "address",
          "name": "",
          "type": "address"
        },
        {
          "internalType": "uint256",
          "name": "",
          "type": "uint256"
        },
        {
          "internalType": "uint256",
          "name": "",
          "type": "uint256"
        }
      ],
      "name": "links",
      "outputs": [
        {
          "internalType": "uint256",
          "name": "",
          "type": "uint256"
        }
      ],
      "stateMutability": "view",
      "type": "function"
    },
    {
      "inputs": [
        {
          "internalType": "address",
          "name": "_operator",
          "type": "address"
        },
        {
          "internalType": "address",
          "name": "_from",
          "type": "address"
        },
        {
          "internalType": "uint256",
          "name": "_id",
          "type": "uint256"
        },
        {
          "internalType": "bytes",
          "name": "_data",
          "type": "bytes"
        }
      ],
      "name": "onERC721Received",
      "outputs": [
        {
          "internalType": "bytes4",
          "name": "",
          "type": "bytes4"
        }
      ],
      "stateMutability": "nonpayable",
      "type": "function"
    },
    {
      "inputs": [],
      "name": "owner",
      "outputs": [
        {
          "internalType": "address",
          "name": "",
          "type": "address"
        }
      ],
      "stateMutability": "view",
      "type": "function"
    },
    {
      "inputs": [
        {
          "internalType": "contract IERC1155Upgradeable",
          "name": "token",
          "type": "address"
        },
        {
          "internalType": "uint256",
          "name": "tokenId",
          "type": "uint256"
        },
        {
          "internalType": "uint256",
          "name": "amount",
          "type": "uint256"
        }
      ],
      "name": "recoverERC1155",
      "outputs": [],
      "stateMutability": "nonpayable",
      "type": "function"
    },
    {
      "inputs": [
        {
          "internalType": "contract IERC721Upgradeable",
          "name": "token",
          "type": "address"
        },
        {
          "internalType": "uint256",
          "name": "tokenId",
          "type": "uint256"
        }
      ],
      "name": "recoverERC721",
      "outputs": [],
      "stateMutability": "nonpayable",
      "type": "function"
    },
    {
      "inputs": [
        {
          "internalType": "uint256",
          "name": "amount",
          "type": "uint256"
        }
      ],
      "name": "recoverETH",
      "outputs": [],
      "stateMutability": "nonpayable",
      "type": "function"
    },
    {
      "inputs": [
        {
          "internalType": "contract IERC20Upgradeable",
          "name": "token",
          "type": "address"
        }
      ],
      "name": "recoverTokens",
      "outputs": [],
      "stateMutability": "nonpayable",
      "type": "function"
    },
    {
      "inputs": [],
      "name": "renounceOwnership",
      "outputs": [],
      "stateMutability": "nonpayable",
      "type": "function"
    },
    {
      "inputs": [
        {
          "internalType": "address",
          "name": "newOwner",
          "type": "address"
        }
      ],
      "name": "transferOwnership",
      "outputs": [],
      "stateMutability": "nonpayable",
      "type": "function"
    }
  ],
  "bytecode": "0x608060405234801561001057600080fd5b506111b4806100206000396000f3fe608060405234801561001057600080fd5b50600436106101005760003560e01c8063715018a611610097578063cbaa1d9b11610066578063cbaa1d9b1461025e578063d333555314610271578063d5e237a114610284578063f2fde38b146102a457610100565b8063715018a61461021f578063819d4cc6146102275780638da5cb5b1461023a578063c4d66de81461024b57610100565b80633408e470116100d35780633408e470146101b557806334b4577c146101c55780633cbf3813146101d85780635ab2f5c31461020c57610100565b806314c7ae4514610105578063150b7a021461013557806316114acd1461016d57806320a23e3414610182575b600080fd5b606554610118906001600160a01b031681565b6040516001600160a01b0390911681526020015b60405180910390f35b610154610143366004610ea3565b630a85bd0160e11b95945050505050565b6040516001600160e01b0319909116815260200161012c565b61018061017b366004610e6b565b6102b7565b005b6101a5610190366004610fbc565b60676020526000908152604090205460ff1681565b604051901515815260200161012c565b465b60405190815260200161012c565b6101b76101d3366004610f68565b61037b565b6101a56101e6366004610f68565b606860209081526000938452604080852082529284528284209052825290205460ff1681565b61018061021a366004610fec565b6103b9565b6101806106ff565b610180610235366004610f3d565b610735565b6033546001600160a01b0316610118565b610180610259366004610e6b565b6107c9565b61018061026c366004610f68565b61085a565b61018061027f366004610fbc565b61090f565b610297610292366004610f3d565b610966565b60405161012c919061103f565b6101806102b2366004610e6b565b6109db565b6033546001600160a01b031633146102ea5760405162461bcd60e51b81526004016102e190611104565b60405180910390fd5b6040516370a0823160e01b81523060048201526103789033906001600160a01b038416906370a082319060240160206040518083038186803b15801561032f57600080fd5b505afa158015610343573d6000803e3d6000fd5b505050506040513d601f19601f820116820180604052508101906103679190610fd4565b6001600160a01b0384169190610a73565b50565b606660205282600052604060002060205281600052604060002081815481106103a357600080fd5b9060005260206000200160009250925050505481565b60008381526067602052604090205460ff16156104185760405162461bcd60e51b815260206004820152601760248201527f4170704e4654696420616c7265616479206c696e6b656400000000000000000060448201526064016102e1565b6040516331a9108f60e11b81526004810182905233906001600160a01b03841690636352211e9060240160206040518083038186803b15801561045a57600080fd5b505afa15801561046e573d6000803e3d6000fd5b505050506040513d601f19601f820116820180604052508101906104929190610e87565b6001600160a01b031614801561052a57506065546040516331a9108f60e11b81526004810185905233916001600160a01b031690636352211e9060240160206040518083038186803b1580156104e757600080fd5b505afa1580156104fb573d6000803e3d6000fd5b505050506040513d601f19601f8201168201806040525081019061051f9190610e87565b6001600160a01b0316145b6105805760405162461bcd60e51b815260206004820152602160248201527f437573746f6d4e46546964206f72204170704e46546964206e6f74206f776e656044820152601960fa1b60648201526084016102e1565b600046617a691461060a57604051633a9831f160e21b81526001600160a01b038416600482018190529063ea60c7c49060240160206040518083038186803b1580156105cb57600080fd5b505afa1580156105df573d6000803e3d6000fd5b505050506040513d601f19601f820116820180604052508101906106039190610e87565b905061060d565b50815b6001600160a01b0381811660008181526066602090815260408083208784528252808320805460018082018355918552838520018a905589845260678352818420805460ff1990811683179091559484526068835281842088855283528184208a8552909252918290208054909316179091556065549051635c46a7ef60e11b815233600482015230602482015260448101879052608060648201526002608482015261060f60f31b60a482015291169063b88d4fde9060c401600060405180830381600087803b1580156106e157600080fd5b505af11580156106f5573d6000803e3d6000fd5b5050505050505050565b6033546001600160a01b031633146107295760405162461bcd60e51b81526004016102e190611104565b6107336000610aca565b565b6033546001600160a01b0316331461075f5760405162461bcd60e51b81526004016102e190611104565b604051632142170760e11b8152306004820152336024820152604481018290526001600160a01b038316906342842e0e90606401600060405180830381600087803b1580156107ad57600080fd5b505af11580156107c1573d6000803e3d6000fd5b505050505050565b60006107d56001610b1c565b905080156107ed576000805461ff0019166101001790555b6107f5610ba2565b606580546001600160a01b0319166001600160a01b0384161790558015610856576000805461ff0019169055604051600181527f7f26b83ff96e1f2b6a682f133852f6798a09c465da95921460cefb38474024989060200160405180910390a15b5050565b6033546001600160a01b031633146108845760405162461bcd60e51b81526004016102e190611104565b604051637921219560e11b8152306004820152336024820152604481018390526064810182905260a06084820152600260a482015261060f60f31b60c48201526001600160a01b0384169063f242432a9060e401600060405180830381600087803b1580156108f257600080fd5b505af1158015610906573d6000803e3d6000fd5b50505050505050565b6033546001600160a01b031633146109395760405162461bcd60e51b81526004016102e190611104565b604051339082156108fc029083906000818181858888f19350505050158015610856573d6000803e3d6000fd5b6001600160a01b03821660009081526066602090815260408083208484528252918290208054835181840281018401909452808452606093928301828280156109ce57602002820191906000526020600020905b8154815260200190600101908083116109ba575b5050505050905092915050565b6033546001600160a01b03163314610a055760405162461bcd60e51b81526004016102e190611104565b6001600160a01b038116610a6a5760405162461bcd60e51b815260206004820152602660248201527f4f776e61626c653a206e6577206f776e657220697320746865207a65726f206160448201526564647265737360d01b60648201526084016102e1565b61037881610aca565b604080516001600160a01b038416602482015260448082018490528251808303909101815260649091019091526020810180516001600160e01b031663a9059cbb60e01b179052610ac5908490610c16565b505050565b603380546001600160a01b038381166001600160a01b0319831681179093556040519116919082907f8be0079c531659141344cd1fd0a4f28419497f9722a3daafe3b4186f6b6457e090600090a35050565b60008054610100900460ff1615610b63578160ff166001148015610b3f5750303b155b610b5b5760405162461bcd60e51b81526004016102e1906110b6565b506000610b9d565b60005460ff808416911610610b8a5760405162461bcd60e51b81526004016102e1906110b6565b506000805460ff191660ff831617905560015b919050565b600054610100900460ff16610c0d5760405162461bcd60e51b815260206004820152602b60248201527f496e697469616c697a61626c653a20636f6e7472616374206973206e6f74206960448201526a6e697469616c697a696e6760a81b60648201526084016102e1565b61073333610aca565b6000610c6b826040518060400160405280602081526020017f5361666545524332303a206c6f772d6c6576656c2063616c6c206661696c6564815250856001600160a01b0316610ce89092919063ffffffff16565b805190915015610ac55780806020019051810190610c899190610f9c565b610ac55760405162461bcd60e51b815260206004820152602a60248201527f5361666545524332303a204552433230206f7065726174696f6e20646964206e6044820152691bdd081cdd58d8d9595960b21b60648201526084016102e1565b6060610cf78484600085610d01565b90505b9392505050565b606082471015610d625760405162461bcd60e51b815260206004820152602660248201527f416464726573733a20696e73756666696369656e742062616c616e636520666f6044820152651c8818d85b1b60d21b60648201526084016102e1565b6001600160a01b0385163b610db95760405162461bcd60e51b815260206004820152601d60248201527f416464726573733a2063616c6c20746f206e6f6e2d636f6e747261637400000060448201526064016102e1565b600080866001600160a01b03168587604051610dd59190611023565b60006040518083038185875af1925050503d8060008114610e12576040519150601f19603f3d011682016040523d82523d6000602084013e610e17565b606091505b5091509150610e27828286610e32565b979650505050505050565b60608315610e41575081610cfa565b825115610e515782518084602001fd5b8160405162461bcd60e51b81526004016102e19190611083565b600060208284031215610e7c578081fd5b8135610cfa81611169565b600060208284031215610e98578081fd5b8151610cfa81611169565b600080600080600060808688031215610eba578081fd5b8535610ec581611169565b94506020860135610ed581611169565b935060408601359250606086013567ffffffffffffffff80821115610ef8578283fd5b818801915088601f830112610f0b578283fd5b813581811115610f19578384fd5b896020828501011115610f2a578384fd5b9699959850939650602001949392505050565b60008060408385031215610f4f578182fd5b8235610f5a81611169565b946020939093013593505050565b600080600060608486031215610f7c578283fd5b8335610f8781611169565b95602085013595506040909401359392505050565b600060208284031215610fad578081fd5b81518015158114610cfa578182fd5b600060208284031215610fcd578081fd5b5035919050565b600060208284031215610fe5578081fd5b5051919050565b600080600060608486031215611000578283fd5b83359250602084013561101281611169565b929592945050506040919091013590565b60008251611035818460208701611139565b9190910192915050565b6020808252825182820181905260009190848201906040850190845b818110156110775783518352928401929184019160010161105b565b50909695505050505050565b60006020825282518060208401526110a2816040850160208701611139565b601f01601f19169190910160400192915050565b6020808252602e908201527f496e697469616c697a61626c653a20636f6e747261637420697320616c72656160408201526d191e481a5b9a5d1a585b1a5e995960921b606082015260800190565b6020808252818101527f4f776e61626c653a2063616c6c6572206973206e6f7420746865206f776e6572604082015260600190565b60005b8381101561115457818101518382015260200161113c565b83811115611163576000848401525b50505050565b6001600160a01b038116811461037857600080fdfea26469706673582212205016dc7ba2ede048a5621b4bfeaa9a2979eac8b63ce2f871099062a62be3347964736f6c63430008020033",
  "linkReferences": {},
  "deployedLinkReferences": {}
}