{
  "_format": "hh-sol-artifact-1",
  "contractName": "Subscription2",
  "sourceName": "contracts/deprecated/Subscription2.sol",
  "abi": [
    {
      "anonymous": false,
      "inputs": [
        {
          "indexed": false,
          "internalType": "uint256",
          "name": "NFTId",
          "type": "uint256"
        },
        {
          "indexed": false,
          "internalType": "uint256",
          "name": "subnetId",
          "type": "uint256"
        },
        {
          "indexed": false,
          "internalType": "string",
          "name": "newServiceProvider",
          "type": "string"
        }
      ],
      "name": "AppliedServiceProviderChange",
      "type": "event"
    },
    {
      "anonymous": false,
      "inputs": [
        {
          "indexed": false,
          "internalType": "uint256",
          "name": "NFTId",
          "type": "uint256"
        },
        {
          "indexed": false,
          "internalType": "uint256",
          "name": "balanceType",
          "type": "uint256"
        },
        {
          "indexed": false,
          "internalType": "uint256",
          "name": "bal",
          "type": "uint256"
        }
      ],
      "name": "BalanceAdded",
      "type": "event"
    },
    {
      "anonymous": false,
      "inputs": [
        {
          "indexed": false,
          "internalType": "uint256",
          "name": "NFTId",
          "type": "uint256"
        },
        {
          "indexed": false,
          "internalType": "uint256",
          "name": "currentSubnetId",
          "type": "uint256"
        },
        {
          "indexed": false,
          "internalType": "uint256",
          "name": "newSubnetId",
          "type": "uint256"
        }
      ],
      "name": "ChangedSubnetSubscription",
      "type": "event"
    },
    {
      "anonymous": false,
      "inputs": [
        {
          "indexed": false,
          "internalType": "uint256",
          "name": "prev_limit",
          "type": "uint256"
        },
        {
          "indexed": false,
          "internalType": "uint256",
          "name": "new_limit",
          "type": "uint256"
        }
      ],
      "name": "Changed_LIMIT_MIN_TIME_FUNDS",
      "type": "event"
    },
    {
      "anonymous": false,
      "inputs": [
        {
          "indexed": false,
          "internalType": "uint256",
          "name": "prev_limit",
          "type": "uint256"
        },
        {
          "indexed": false,
          "internalType": "uint256",
          "name": "new_limit",
          "type": "uint256"
        }
      ],
      "name": "Changed_LIMIT_NFT_SUBNETS",
      "type": "event"
    },
    {
      "anonymous": false,
      "inputs": [
        {
          "indexed": false,
          "internalType": "uint256",
          "name": "prev_limit",
          "type": "uint256"
        },
        {
          "indexed": false,
          "internalType": "uint256",
          "name": "new_limit",
          "type": "uint256"
        }
      ],
      "name": "Changed_REQD_COOLDOWN_S_PROVIDER",
      "type": "event"
    },
    {
      "anonymous": false,
      "inputs": [
        {
          "indexed": false,
          "internalType": "uint256",
          "name": "prev_limit",
          "type": "uint256"
        },
        {
          "indexed": false,
          "internalType": "uint256",
          "name": "new_limit",
          "type": "uint256"
        }
      ],
      "name": "Changed_REQD_NOTICE_TIME_S_PROVIDER",
      "type": "event"
    },
    {
      "anonymous": false,
      "inputs": [
        {
          "indexed": false,
          "internalType": "uint8",
          "name": "version",
          "type": "uint8"
        }
      ],
      "name": "Initialized",
      "type": "event"
    },
    {
      "anonymous": false,
      "inputs": [
        {
          "indexed": false,
          "internalType": "address",
          "name": "account",
          "type": "address"
        }
      ],
      "name": "Paused",
      "type": "event"
    },
    {
      "anonymous": false,
      "inputs": [
        {
          "indexed": false,
          "internalType": "address",
          "name": "benficiary",
          "type": "address"
        },
        {
          "indexed": false,
          "internalType": "uint256",
          "name": "bal",
          "type": "uint256"
        }
      ],
      "name": "ReceivedRevenue",
      "type": "event"
    },
    {
      "anonymous": false,
      "inputs": [
        {
          "indexed": false,
          "internalType": "uint256",
          "name": "NFTId",
          "type": "uint256"
        },
        {
          "indexed": false,
          "internalType": "uint256",
          "name": "subnetId",
          "type": "uint256"
        },
        {
          "indexed": false,
          "internalType": "address",
          "name": "refAddress",
          "type": "address"
        }
      ],
      "name": "ReferralAdded",
      "type": "event"
    },
    {
      "anonymous": false,
      "inputs": [
        {
          "indexed": false,
          "internalType": "uint256",
          "name": "NFTId",
          "type": "uint256"
        }
      ],
      "name": "RefreshedBalance",
      "type": "event"
    },
    {
      "anonymous": false,
      "inputs": [
        {
          "indexed": false,
          "internalType": "uint256",
          "name": "NFTId",
          "type": "uint256"
        },
        {
          "indexed": false,
          "internalType": "uint256",
          "name": "subnetId",
          "type": "uint256"
        },
        {
          "indexed": false,
          "internalType": "string",
          "name": "newServiceProvider",
          "type": "string"
        }
      ],
      "name": "RequestedServiceProviderChange",
      "type": "event"
    },
    {
      "anonymous": false,
      "inputs": [
        {
          "indexed": true,
          "internalType": "bytes32",
          "name": "role",
          "type": "bytes32"
        },
        {
          "indexed": true,
          "internalType": "bytes32",
          "name": "previousAdminRole",
          "type": "bytes32"
        },
        {
          "indexed": true,
          "internalType": "bytes32",
          "name": "newAdminRole",
          "type": "bytes32"
        }
      ],
      "name": "RoleAdminChanged",
      "type": "event"
    },
    {
      "anonymous": false,
      "inputs": [
        {
          "indexed": true,
          "internalType": "bytes32",
          "name": "role",
          "type": "bytes32"
        },
        {
          "indexed": true,
          "internalType": "address",
          "name": "account",
          "type": "address"
        },
        {
          "indexed": true,
          "internalType": "address",
          "name": "sender",
          "type": "address"
        }
      ],
      "name": "RoleGranted",
      "type": "event"
    },
    {
      "anonymous": false,
      "inputs": [
        {
          "indexed": true,
          "internalType": "bytes32",
          "name": "role",
          "type": "bytes32"
        },
        {
          "indexed": true,
          "internalType": "address",
          "name": "account",
          "type": "address"
        },
        {
          "indexed": true,
          "internalType": "address",
          "name": "sender",
          "type": "address"
        }
      ],
      "name": "RoleRevoked",
      "type": "event"
    },
    {
      "anonymous": false,
      "inputs": [
        {
          "indexed": false,
          "internalType": "uint256",
          "name": "NFTId",
          "type": "uint256"
        },
        {
          "indexed": false,
          "internalType": "uint256",
          "name": "subnetId",
          "type": "uint256"
        },
        {
          "indexed": false,
          "internalType": "string",
          "name": "serviceProviderAddress",
          "type": "string"
        },
        {
          "indexed": false,
          "internalType": "address",
          "name": "referralAddress",
          "type": "address"
        },
        {
          "indexed": false,
          "internalType": "uint256",
          "name": "licenseFee",
          "type": "uint256"
        },
        {
          "indexed": false,
          "internalType": "uint256[]",
          "name": "computeRequired",
          "type": "uint256[]"
        }
      ],
      "name": "Subscribed",
      "type": "event"
    },
    {
      "anonymous": false,
      "inputs": [
        {
          "indexed": false,
          "internalType": "address",
          "name": "account",
          "type": "address"
        }
      ],
      "name": "Unpaused",
      "type": "event"
    },
    {
      "inputs": [],
      "name": "ApplicationNFT",
      "outputs": [
        {
          "internalType": "contract IERC721",
          "name": "",
          "type": "address"
        }
      ],
      "stateMutability": "view",
      "type": "function"
    },
    {
      "inputs": [],
      "name": "CHANGE_COMPUTE_ROLE",
      "outputs": [
        {
          "internalType": "bytes32",
          "name": "",
          "type": "bytes32"
        }
      ],
      "stateMutability": "view",
      "type": "function"
    },
    {
      "inputs": [],
      "name": "DEFAULT_ADMIN_ROLE",
      "outputs": [
        {
          "internalType": "bytes32",
          "name": "",
          "type": "bytes32"
        }
      ],
      "stateMutability": "view",
      "type": "function"
    },
    {
      "inputs": [],
      "name": "GLOBAL_DAO_ADDRESS",
      "outputs": [
        {
          "internalType": "address",
          "name": "",
          "type": "address"
        }
      ],
      "stateMutability": "view",
      "type": "function"
    },
    {
      "inputs": [],
      "name": "LIMIT_NFT_SUBNETS",
      "outputs": [
        {
          "internalType": "uint256",
          "name": "",
          "type": "uint256"
        }
      ],
      "stateMutability": "view",
      "type": "function"
    },
    {
      "inputs": [],
      "name": "MIN_TIME_FUNDS",
      "outputs": [
        {
          "internalType": "uint256",
          "name": "",
          "type": "uint256"
        }
      ],
      "stateMutability": "view",
      "type": "function"
    },
    {
      "inputs": [],
      "name": "REQD_COOLDOWN_S_PROVIDER",
      "outputs": [
        {
          "internalType": "uint256",
          "name": "",
          "type": "uint256"
        }
      ],
      "stateMutability": "view",
      "type": "function"
    },
    {
      "inputs": [],
      "name": "REQD_NOTICE_TIME_S_PROVIDER",
      "outputs": [
        {
          "internalType": "uint256",
          "name": "",
          "type": "uint256"
        }
      ],
      "stateMutability": "view",
      "type": "function"
    },
    {
      "inputs": [],
      "name": "RegistrationContract",
      "outputs": [
        {
          "internalType": "contract IRegistration",
          "name": "",
          "type": "address"
        }
      ],
      "stateMutability": "view",
      "type": "function"
    },
    {
      "inputs": [],
      "name": "WITHDRAW_CREDITS_ROLE",
      "outputs": [
        {
          "internalType": "bytes32",
          "name": "",
          "type": "bytes32"
        }
      ],
      "stateMutability": "view",
      "type": "function"
    },
    {
      "inputs": [],
      "name": "XCTToken",
      "outputs": [
        {
          "internalType": "contract IERC20Upgradeable",
          "name": "",
          "type": "address"
        }
      ],
      "stateMutability": "view",
      "type": "function"
    },
    {
      "inputs": [
        {
          "internalType": "uint256",
          "name": "_nftId",
          "type": "uint256"
        },
        {
          "internalType": "uint256",
          "name": "_balanceToAdd",
          "type": "uint256"
        }
      ],
      "name": "addBalance",
      "outputs": [
        {
          "internalType": "bool",
          "name": "",
          "type": "bool"
        }
      ],
      "stateMutability": "nonpayable",
      "type": "function"
    },
    {
      "inputs": [
        {
          "internalType": "uint256",
          "name": "_nftId",
          "type": "uint256"
        },
        {
          "internalType": "uint256",
          "name": "_subnetId",
          "type": "uint256"
        },
        {
          "internalType": "address",
          "name": "_refAddress",
          "type": "address"
        }
      ],
      "name": "addReferralAddress",
      "outputs": [],
      "stateMutability": "nonpayable",
      "type": "function"
    },
    {
      "inputs": [
        {
          "internalType": "uint256",
          "name": "_nftId",
          "type": "uint256"
        },
        {
          "internalType": "uint256",
          "name": "_subnetId",
          "type": "uint256"
        }
      ],
      "name": "applyServiceProviderChange",
      "outputs": [],
      "stateMutability": "nonpayable",
      "type": "function"
    },
    {
      "inputs": [
        {
          "internalType": "uint256",
          "name": "NFTid",
          "type": "uint256"
        }
      ],
      "name": "balanceLeft",
      "outputs": [
        {
          "internalType": "uint256",
          "name": "",
          "type": "uint256"
        }
      ],
      "stateMutability": "view",
      "type": "function"
    },
    {
      "inputs": [
        {
          "internalType": "address",
          "name": "",
          "type": "address"
        }
      ],
      "name": "balanceOfRev",
      "outputs": [
        {
          "internalType": "uint256",
          "name": "",
          "type": "uint256"
        }
      ],
      "stateMutability": "view",
      "type": "function"
    },
    {
      "inputs": [
        {
          "internalType": "uint256",
          "name": "_NFTid",
          "type": "uint256"
        },
        {
          "internalType": "uint256",
          "name": "_subnetId",
          "type": "uint256"
        },
        {
          "internalType": "uint256[]",
          "name": "_computeRequired",
          "type": "uint256[]"
        }
      ],
      "name": "changeComputesOfSubnet",
      "outputs": [],
      "stateMutability": "nonpayable",
      "type": "function"
    },
    {
      "inputs": [
        {
          "internalType": "uint256",
          "name": "_nftId",
          "type": "uint256"
        },
        {
          "internalType": "uint256",
          "name": "_currentSubnetId",
          "type": "uint256"
        },
        {
          "internalType": "uint256",
          "name": "_newSubnetId",
          "type": "uint256"
        }
      ],
      "name": "changeSubnetSubscription",
      "outputs": [],
      "stateMutability": "nonpayable",
      "type": "function"
    },
    {
      "inputs": [
        {
          "internalType": "address",
          "name": "_newGlobalDAO",
          "type": "address"
        }
      ],
      "name": "change__GLOBAL_DAO_ADDRESS",
      "outputs": [],
      "stateMutability": "nonpayable",
      "type": "function"
    },
    {
      "inputs": [
        {
          "internalType": "uint256",
          "name": "_new_LIMIT_NFT_SUBNETS",
          "type": "uint256"
        }
      ],
      "name": "change__LIMIT_NFT_SUBNETS",
      "outputs": [],
      "stateMutability": "nonpayable",
      "type": "function"
    },
    {
      "inputs": [
        {
          "internalType": "uint256",
          "name": "_new_MIN_TIME_FUNDS",
          "type": "uint256"
        }
      ],
      "name": "change__MIN_TIME_FUNDS",
      "outputs": [],
      "stateMutability": "nonpayable",
      "type": "function"
    },
    {
      "inputs": [
        {
          "internalType": "uint256",
          "name": "_REQD_COOLDOWN_S_PROVIDER",
          "type": "uint256"
        }
      ],
      "name": "change__REQD_COOLDOWN_S_PROVIDER",
      "outputs": [],
      "stateMutability": "nonpayable",
      "type": "function"
    },
    {
      "inputs": [
        {
          "internalType": "uint256",
          "name": "_REQD_NOTICE_TIME_S_PROVIDER",
          "type": "uint256"
        }
      ],
      "name": "change__REQD_NOTICE_TIME_S_PROVIDER",
      "outputs": [],
      "stateMutability": "nonpayable",
      "type": "function"
    },
    {
      "inputs": [
        {
          "internalType": "uint256",
          "name": "NFTid",
          "type": "uint256"
        }
      ],
      "name": "dripRatePerSec",
      "outputs": [
        {
          "internalType": "uint256",
          "name": "totalDripRate",
          "type": "uint256"
        }
      ],
      "stateMutability": "view",
      "type": "function"
    },
    {
      "inputs": [
        {
          "internalType": "uint256",
          "name": "NFTid",
          "type": "uint256"
        },
        {
          "internalType": "uint256",
          "name": "subnetId",
          "type": "uint256"
        }
      ],
      "name": "dripRatePerSecOfSubnet",
      "outputs": [
        {
          "internalType": "uint256",
          "name": "",
          "type": "uint256"
        }
      ],
      "stateMutability": "view",
      "type": "function"
    },
    {
      "inputs": [
        {
          "internalType": "bytes32",
          "name": "role",
          "type": "bytes32"
        }
      ],
      "name": "getRoleAdmin",
      "outputs": [
        {
          "internalType": "bytes32",
          "name": "",
          "type": "bytes32"
        }
      ],
      "stateMutability": "view",
      "type": "function"
    },
    {
      "inputs": [
        {
          "internalType": "bytes32",
          "name": "role",
          "type": "bytes32"
        },
        {
          "internalType": "address",
          "name": "account",
          "type": "address"
        }
      ],
      "name": "grantRole",
      "outputs": [],
      "stateMutability": "nonpayable",
      "type": "function"
    },
    {
      "inputs": [
        {
          "internalType": "bytes32",
          "name": "role",
          "type": "bytes32"
        },
        {
          "internalType": "address",
          "name": "account",
          "type": "address"
        }
      ],
      "name": "hasRole",
      "outputs": [
        {
          "internalType": "bool",
          "name": "",
          "type": "bool"
        }
      ],
      "stateMutability": "view",
      "type": "function"
    },
    {
      "inputs": [
        {
          "internalType": "address",
          "name": "_GlobalDAO",
          "type": "address"
        },
        {
          "internalType": "uint256",
          "name": "_LIMIT_NFT_SUBNETS",
          "type": "uint256"
        },
        {
          "internalType": "uint256",
          "name": "_MIN_TIME_FUNDS",
          "type": "uint256"
        },
        {
          "internalType": "contract IRegistration",
          "name": "_RegistrationContract",
          "type": "address"
        },
        {
          "internalType": "contract IERC721",
          "name": "_ApplicationNFT",
          "type": "address"
        },
        {
          "internalType": "contract IERC20Upgradeable",
          "name": "_XCTToken",
          "type": "address"
        },
        {
          "internalType": "uint256",
          "name": "_REQD_NOTICE_TIME_S_PROVIDER",
          "type": "uint256"
        },
        {
          "internalType": "uint256",
          "name": "_REQD_COOLDOWN_S_PROVIDER",
          "type": "uint256"
        }
      ],
      "name": "initialize",
      "outputs": [],
      "stateMutability": "nonpayable",
      "type": "function"
    },
    {
      "inputs": [
        {
          "internalType": "uint256",
          "name": "_nftId",
          "type": "uint256"
        }
      ],
      "name": "isBalancePresent",
      "outputs": [
        {
          "internalType": "bool",
          "name": "",
          "type": "bool"
        }
      ],
      "stateMutability": "view",
      "type": "function"
    },
    {
      "inputs": [
        {
          "internalType": "uint256",
          "name": "",
          "type": "uint256"
        }
      ],
      "name": "nftAttributes",
      "outputs": [
        {
          "internalType": "uint256",
          "name": "lastBalanceUpdateTime",
          "type": "uint256"
        },
        {
          "internalType": "address",
          "name": "NFTMinter",
          "type": "address"
        },
        {
          "internalType": "uint256",
          "name": "endOfXCTBalance",
          "type": "uint256"
        }
      ],
      "stateMutability": "view",
      "type": "function"
    },
    {
      "inputs": [
        {
          "internalType": "address",
          "name": "_operator",
          "type": "address"
        },
        {
          "internalType": "address",
          "name": "_from",
          "type": "address"
        },
        {
          "internalType": "uint256",
          "name": "_id",
          "type": "uint256"
        },
        {
          "internalType": "bytes",
          "name": "_data",
          "type": "bytes"
        }
      ],
      "name": "onERC721Received",
      "outputs": [
        {
          "internalType": "bytes4",
          "name": "",
          "type": "bytes4"
        }
      ],
      "stateMutability": "nonpayable",
      "type": "function"
    },
    {
      "inputs": [],
      "name": "paused",
      "outputs": [
        {
          "internalType": "bool",
          "name": "",
          "type": "bool"
        }
      ],
      "stateMutability": "view",
      "type": "function"
    },
    {
      "inputs": [
        {
          "internalType": "uint256",
          "name": "_nftId",
          "type": "uint256"
        },
        {
          "internalType": "uint256",
          "name": "_subnetId",
          "type": "uint256"
        }
      ],
      "name": "r_licenseFee",
      "outputs": [
        {
          "internalType": "uint256",
          "name": "",
          "type": "uint256"
        }
      ],
      "stateMutability": "view",
      "type": "function"
    },
    {
      "inputs": [],
      "name": "receiveRevenue",
      "outputs": [],
      "stateMutability": "nonpayable",
      "type": "function"
    },
    {
      "inputs": [
        {
          "internalType": "address",
          "name": "_userAddress",
          "type": "address"
        }
      ],
      "name": "receiveRevenueForAddress",
      "outputs": [],
      "stateMutability": "nonpayable",
      "type": "function"
    },
    {
      "inputs": [
        {
          "internalType": "address[]",
          "name": "_userAddresses",
          "type": "address[]"
        }
      ],
      "name": "receiveRevenueForAddressBulk",
      "outputs": [],
      "stateMutability": "nonpayable",
      "type": "function"
    },
    {
      "inputs": [
        {
          "internalType": "uint256",
          "name": "_nftId",
          "type": "uint256"
        }
      ],
      "name": "refreshBalance",
      "outputs": [],
      "stateMutability": "nonpayable",
      "type": "function"
    },
    {
      "inputs": [
        {
          "internalType": "bytes32",
          "name": "role",
          "type": "bytes32"
        },
        {
          "internalType": "address",
          "name": "account",
          "type": "address"
        }
      ],
      "name": "renounceRole",
      "outputs": [],
      "stateMutability": "nonpayable",
      "type": "function"
    },
    {
      "inputs": [
        {
          "internalType": "uint256",
          "name": "_nftId",
          "type": "uint256"
        },
        {
          "internalType": "uint256",
          "name": "_subnetId",
          "type": "uint256"
        },
        {
          "internalType": "string",
          "name": "_newServiceProvider",
          "type": "string"
        }
      ],
      "name": "requestServiceProviderChange",
      "outputs": [],
      "stateMutability": "nonpayable",
      "type": "function"
    },
    {
      "inputs": [
        {
          "internalType": "bytes32",
          "name": "role",
          "type": "bytes32"
        },
        {
          "internalType": "address",
          "name": "account",
          "type": "address"
        }
      ],
      "name": "revokeRole",
      "outputs": [],
      "stateMutability": "nonpayable",
      "type": "function"
    },
    {
      "inputs": [],
      "name": "s_GlobalDAOAddress",
      "outputs": [
        {
          "internalType": "address",
          "name": "",
          "type": "address"
        }
      ],
      "stateMutability": "view",
      "type": "function"
    },
    {
      "inputs": [],
      "name": "s_GlobalDAORate",
      "outputs": [
        {
          "internalType": "uint256",
          "name": "",
          "type": "uint256"
        }
      ],
      "stateMutability": "view",
      "type": "function"
    },
    {
      "inputs": [
        {
          "internalType": "uint256",
          "name": "_subnetId",
          "type": "uint256"
        }
      ],
      "name": "subnetDAOWalletFor1",
      "outputs": [
        {
          "internalType": "address",
          "name": "",
          "type": "address"
        }
      ],
      "stateMutability": "view",
      "type": "function"
    },
    {
      "inputs": [
        {
          "internalType": "uint256",
          "name": "_balanceToAdd",
          "type": "uint256"
        },
        {
          "internalType": "uint256[]",
          "name": "subnetId",
          "type": "uint256[]"
        },
        {
          "internalType": "string[]",
          "name": "_serviceProviderAddress",
          "type": "string[]"
        },
        {
          "internalType": "address[]",
          "name": "_referralAddress",
          "type": "address[]"
        },
        {
          "internalType": "uint256[]",
          "name": "_licenseFee",
          "type": "uint256[]"
        },
        {
          "internalType": "uint256[][]",
          "name": "computeRequired",
          "type": "uint256[][]"
        }
      ],
      "name": "subscribeBatchNew",
      "outputs": [
        {
          "internalType": "uint256",
          "name": "NFTid",
          "type": "uint256"
        }
      ],
      "stateMutability": "nonpayable",
      "type": "function"
    },
    {
      "inputs": [
        {
          "internalType": "uint256",
          "name": "_nftId",
          "type": "uint256"
        },
        {
          "internalType": "uint256[]",
          "name": "subnetId",
          "type": "uint256[]"
        },
        {
          "internalType": "string[]",
          "name": "_serviceProviderAddress",
          "type": "string[]"
        },
        {
          "internalType": "address[]",
          "name": "_referralAddress",
          "type": "address[]"
        },
        {
          "internalType": "uint256[]",
          "name": "_licenseFee",
          "type": "uint256[]"
        },
        {
          "internalType": "uint256[][]",
          "name": "computeRequired",
          "type": "uint256[][]"
        }
      ],
      "name": "subscribeBatchToExistingNFT",
      "outputs": [],
      "stateMutability": "nonpayable",
      "type": "function"
    },
    {
      "inputs": [
        {
          "internalType": "uint256",
          "name": "_balanceToAdd",
          "type": "uint256"
        },
        {
          "internalType": "uint256",
          "name": "subnetId",
          "type": "uint256"
        },
        {
          "internalType": "string",
          "name": "_serviceProviderAddress",
          "type": "string"
        },
        {
          "internalType": "address",
          "name": "_referralAddress",
          "type": "address"
        },
        {
          "internalType": "uint256",
          "name": "_licenseFee",
          "type": "uint256"
        },
        {
          "internalType": "uint256[]",
          "name": "_computeRequired",
          "type": "uint256[]"
        }
      ],
      "name": "subscribeNew",
      "outputs": [
        {
          "internalType": "uint256",
          "name": "",
          "type": "uint256"
        }
      ],
      "stateMutability": "nonpayable",
      "type": "function"
    },
    {
      "inputs": [
        {
          "internalType": "uint256",
          "name": "_nftId",
          "type": "uint256"
        },
        {
          "internalType": "uint256",
          "name": "_subnetId",
          "type": "uint256"
        },
        {
          "internalType": "string",
          "name": "_serviceProviderAddress",
          "type": "string"
        },
        {
          "internalType": "address",
          "name": "_referralAddress",
          "type": "address"
        },
        {
          "internalType": "uint256",
          "name": "_licenseFee",
          "type": "uint256"
        },
        {
          "internalType": "uint256[]",
          "name": "_computeRequired",
          "type": "uint256[]"
        }
      ],
      "name": "subscribeToExistingNFT",
      "outputs": [],
      "stateMutability": "nonpayable",
      "type": "function"
    },
    {
      "inputs": [
        {
          "internalType": "bytes4",
          "name": "interfaceId",
          "type": "bytes4"
        }
      ],
      "name": "supportsInterface",
      "outputs": [
        {
          "internalType": "bool",
          "name": "",
          "type": "bool"
        }
      ],
      "stateMutability": "view",
      "type": "function"
    },
    {
      "inputs": [
        {
          "internalType": "uint256",
          "name": "_subnetId",
          "type": "uint256"
        }
      ],
      "name": "t_SupportFeeRate",
      "outputs": [
        {
          "internalType": "uint256",
          "name": "fee",
          "type": "uint256"
        }
      ],
      "stateMutability": "view",
      "type": "function"
    },
    {
      "inputs": [
        {
          "internalType": "uint256",
          "name": "_tokenId",
          "type": "uint256"
        }
      ],
      "name": "t_supportFeeAddress",
      "outputs": [
        {
          "internalType": "address",
          "name": "",
          "type": "address"
        }
      ],
      "stateMutability": "view",
      "type": "function"
    },
    {
      "inputs": [
        {
          "internalType": "uint256",
          "name": "NFTid",
          "type": "uint256"
        }
      ],
      "name": "totalPrevBalance",
      "outputs": [
        {
          "internalType": "uint256",
          "name": "",
          "type": "uint256"
        }
      ],
      "stateMutability": "view",
      "type": "function"
    },
    {
      "inputs": [
        {
          "internalType": "uint256",
          "name": "",
          "type": "uint256"
        },
        {
          "internalType": "uint256",
          "name": "",
          "type": "uint256"
        }
      ],
      "name": "userSubscription",
      "outputs": [
        {
          "internalType": "string",
          "name": "serviceProviderAddress",
          "type": "string"
        },
        {
          "internalType": "address",
          "name": "referralAddress",
          "type": "address"
        },
        {
          "internalType": "uint256",
          "name": "r_licenseFee",
          "type": "uint256"
        },
        {
          "internalType": "bool",
          "name": "subscribed",
          "type": "bool"
        }
      ],
      "stateMutability": "view",
      "type": "function"
    },
    {
      "inputs": [
        {
          "internalType": "uint256",
          "name": "_NFTid",
          "type": "uint256"
        }
      ],
      "name": "withdrawAllOwnerBalance",
      "outputs": [],
      "stateMutability": "nonpayable",
      "type": "function"
    },
    {
      "inputs": [
        {
          "internalType": "uint256",
          "name": "_NFTid",
          "type": "uint256"
        },
        {
          "internalType": "uint256",
          "name": "_bal",
          "type": "uint256"
        }
      ],
      "name": "withdrawBalance",
      "outputs": [],
      "stateMutability": "nonpayable",
      "type": "function"
    }
  ],
  "bytecode": "0x608060405234801561001057600080fd5b50615d8980620000216000396000f3fe608060405234801561001057600080fd5b506004361061035d5760003560e01c806391d14854116101d3578063b621f5b711610104578063d9f64005116100a2578063ec4149761161007c578063ec414976146107e9578063f73ecb30146107fc578063f8f4724f1461080f578063fdffffff146108225761035d565b8063d9f64005146107ad578063dd8ba3f0146107c0578063df44b170146107c95761035d565b8063d480dc14116100de578063d480dc1414610723578063d4b5d60314610736578063d547741f14610791578063d5cb22c9146107a45761035d565b8063b621f5b7146106ea578063c73f22e6146106fd578063cbfafbda146107105761035d565b8063a8440fe211610171578063b1f107e21161014b578063b1f107e2146106b2578063b4b33ecd146106bb578063b5d8e986146106ce578063b5f608e8146106e15761035d565b8063a8440fe21461065e578063abb4b9cd1461068c578063aef72fb21461069f5761035d565b80639ca8b426116101ad5780639ca8b42614610609578063a217fddf14610630578063a40398a614610638578063a6d5d7021461064b5761035d565b806391d14854146105db57806396bbda3e146105ee5780639bda6a9e146105f65761035d565b8063248a9ca3116102ad57806345c37cd41161024b578063632bd76a11610225578063632bd76a1461057f5780637584c82f146105925780637bf654f2146105b557806383f59ac6146105c85761035d565b806345c37cd41461054e5780634beb71e6146105615780635c975abb146105745761035d565b80633320619211610287578063332061921461050d57806336568abe1461052057806343915cd01461053357806344e82250146105465761035d565b8063248a9ca3146104c45780632f2ff15d146104e75780632fc84de8146104fa5761035d565b8063150b7a021161031a5780631d2e0223116102f45780631d2e022314610483578063203181c91461048b578063215c5cb01461049e57806322115ef0146104b15761035d565b8063150b7a021461040d578063192cd212146104455780631bef5ddf146104705761035d565b806301ffc9a71461036257806306e29ed91461038a57806309cfddb21461039f5780630d47e245146103c0578063110bb8cd146103d35780631386387a146103e6575b600080fd5b6103756103703660046154bf565b610835565b60405190151581526020015b60405180910390f35b61039d61039836600461542b565b61086e565b005b6103b26103ad3660046154ff565b6108c0565b604051908152602001610381565b6103b26103ce366004615771565b610ad0565b61039d6103e1366004615686565b610e46565b6103b27f86c262939a9533c4628ccc11f9decb407b7c04ffc9311f0c60d1f23d7d790db781565b61042c61041b36600461530f565b630a85bd0160e11b95945050505050565b6040516001600160e01b03199091168152602001610381565b610458610453366004615478565b610f99565b6040516001600160a01b039091168152602001610381565b61045861047e366004615478565b611017565b610458611049565b61039d6104993660046156a7565b6110cb565b61039d6104ac3660046152d7565b611251565b61039d6104bf3660046153a9565b61133b565b6103b26104d2366004615478565b60009081526065602052604090206001015490565b61039d6104f5366004615490565b61147d565b60cb54610458906001600160a01b031681565b6103b261051b366004615686565b6114a7565b61039d61052e366004615490565b611635565b61039d610541366004615478565b6116af565b61039d6116fc565b60ca54610458906001600160a01b031681565b61039d61056f366004615478565b611707565b60975460ff16610375565b61039d61058d366004615686565b611d5b565b6105a56105a0366004615686565b612439565b60405161038194939291906158d4565b61039d6105c33660046156df565b612503565b60cc54610458906001600160a01b031681565b6103756105e9366004615490565b612ae6565b6103b2612b11565b61039d61060436600461572d565b612b8e565b6103b27f3accb7525e36f7c8113757659b4e6f25deb99f23daf336bf7c35736aae7bcd9d81565b6103b2600081565b610375610646366004615686565b612ddf565b6103b2610659366004615478565b61346b565b6103b261066c366004615686565b600091825260ce6020908152604080842092845291905290206002015490565b60c954610458906001600160a01b031681565b6103756106ad366004615478565b613527565b6103b260d15481565b6103b26106c9366004615478565b613550565b6103b26106dc366004615478565b6135b6565b6103b260d35481565b61039d6106f83660046152d7565b613613565b61039d61070b3660046157f5565b613641565b61039d61071e366004615478565b613abf565b61039d610731366004615478565b613b0c565b61076e610744366004615478565b60cd6020526000908152604090208054600582015460069092015490916001600160a01b03169083565b604080519384526001600160a01b03909216602084015290820152606001610381565b61039d61079f366004615490565b614084565b6103b260d05481565b61039d6107bb366004615478565b6140a9565b6103b260d25481565b6103b26107d73660046152d7565b60cf6020526000908152604090205481565b61039d6107f73660046154ff565b6140f6565b6103b261080a366004615478565b6141e1565b61039d61081d366004615478565b614270565b61039d610830366004615771565b6142bd565b60006001600160e01b03198216637965db0b60e01b148061086657506301ffc9a760e01b6001600160e01b03198316145b90505b919050565b60005b81518110156108bc576108aa82828151811061089d57634e487b7160e01b600052603260045260246000fd5b6020026020010151611251565b806108b481615cf7565b915050610871565b5050565b600061099887876000815181106108e757634e487b7160e01b600052603260045260246000fd5b60200260200101518760008151811061091057634e487b7160e01b600052603260045260246000fd5b60200260200101518760008151811061093957634e487b7160e01b600052603260045260246000fd5b60200260200101518760008151811061096257634e487b7160e01b600052603260045260246000fd5b60200260200101518760008151811061098b57634e487b7160e01b600052603260045260246000fd5b6020026020010151610ad0565b905060015b8651811015610a8957610a77828883815181106109ca57634e487b7160e01b600052603260045260246000fd5b60200260200101518884815181106109f257634e487b7160e01b600052603260045260246000fd5b6020026020010151888581518110610a1a57634e487b7160e01b600052603260045260246000fd5b6020026020010151888681518110610a4257634e487b7160e01b600052603260045260246000fd5b6020026020010151888781518110610a6a57634e487b7160e01b600052603260045260246000fd5b60200260200101516142bd565b80610a8181615cf7565b91505061099d565b5086610aa060d154610a9a8461346b565b9061482b565b10610ac65760405162461bcd60e51b8152600401610abd906159bd565b60405180910390fd5b9695505050505050565b6000610ade60975460ff1690565b15610afb5760405162461bcd60e51b8152600401610abd9061590e565b6000610b8e600160ca60009054906101000a90046001600160a01b03166001600160a01b031663561892366040518163ffffffff1660e01b815260040160206040518083038186803b158015610b5057600080fd5b505afa158015610b64573d6000803e3d6000fd5b505050506040513d601f19601f82011682018060405250810190610b8891906154e7565b9061483e565b60ca549091506001600160a01b0316636a627842336040516001600160e01b031960e084901b1681526001600160a01b039091166004820152602401602060405180830381600087803b158015610be457600080fd5b505af1158015610bf8573d6000803e3d6000fd5b505050506040513d601f19601f82011682018060405250810190610c1c91906154e7565b5060606000604051806060016040528060008152602001600081526020018b81525090506040518060a00160405280428152602001828152602001838152602001610c643390565b6001600160a01b031681526000602091820181905285815260cd8252604090208251815590820151610c9c9060018301906003614ecf565b5060408201518051610cb8916004840191602090910190614f0d565b5060608201516005820180546001600160a01b0319166001600160a01b03909216919091179055608090910151600690910155610cf9838a8a8a8a8a61484a565b89610d0a60d154610a9a868d6114a7565b10610d275760405162461bcd60e51b8152600401610abd906159bd565b60cb546001600160a01b03166323b872dd336040516001600160e01b031960e084901b1681526001600160a01b039091166004820152306024820152604481018d9052606401602060405180830381600087803b158015610d8757600080fd5b505af1158015610d9b573d6000803e3d6000fd5b505050506040513d601f19601f82011682018060405250810190610dbf919061545e565b5060408051848152600260208201529081018b90527fc3cb85e2217091051779d8f75f52cc9874723c3b9fad06042a5fa2df88df96429060600160405180910390a1610e26610e1f610e108561346b565b610e1986613550565b90614a98565b429061483e565b600084815260cd6020526040902060060155509098975050505050505050565b60d354600083815260d4602090815260408083208584529091529020544291610e6f919061483e565b10610ebc5760405162461bcd60e51b815260206004820152601c60248201527f43616e6e6f74206170706c79206265666f726520636f6f6c646f776e000000006044820152606401610abd565b600082815260d460209081526040808320848452825280832042600282015585845260ce835281842085855290925290912060019091018054610efe90615cbc565b610f09929190614f47565b50604080516020808201808452600080845286815260d483528481208682529092529290209051610f409260019092019190614fc2565b50600082815260ce602090815260408083208484529091529081902090517f18ea9894f61e99766c715362e69b478c1e4b6d999d935a1a9e513b5a55e2fd3b91610f8d9185918591615afb565b60405180910390a15050565b60c9546040516379fed2eb60e01b8152600481018390526000916001600160a01b0316906379fed2eb906024015b60206040518083038186803b158015610fdf57600080fd5b505afa158015610ff3573d6000803e3d6000fd5b505050506040513d601f19601f8201168201806040525081019061086691906152f3565b60ca546040516331a9108f60e11b8152600481018390526000916001600160a01b031690636352211e90602401610fc7565b60c954604080516341facd6360e11b815290516000926001600160a01b0316916383f59ac6916004808301926020929190829003018186803b15801561108e57600080fd5b505afa1580156110a2573d6000803e3d6000fd5b505050506040513d601f19601f820116820180604052508101906110c691906152f3565b905090565b600083815260ce602090815260408083208584529091529020600101546001600160a01b03161561112c5760405162461bcd60e51b815260206004820152600b60248201526a105b1c9958591e481cd95d60aa1b6044820152606401610abd565b3360ca546040516331a9108f60e11b8152600481018690526001600160a01b039283169290911690636352211e9060240160206040518083038186803b15801561117557600080fd5b505afa158015611189573d6000803e3d6000fd5b505050506040513d601f19601f820116820180604052508101906111ad91906152f3565b6001600160a01b0316146111d35760405162461bcd60e51b8152600401610abd90615938565b600083815260ce6020908152604080832085845282529182902060010180546001600160a01b0319166001600160a01b0385169081179091558251868152918201859052918101919091527f5878ac48f3058583ef4c6d4eb2cc2fdbe3fad465b25bb2216a7d0396e0a88b75906060015b60405180910390a1505050565b6001600160a01b03818116600081815260cf6020526040908190205460cb54915163a9059cbb60e01b815260048101939093526024830181905292169063a9059cbb90604401602060405180830381600087803b1580156112b157600080fd5b505af11580156112c5573d6000803e3d6000fd5b505050506040513d601f19601f820116820180604052508101906112e9919061545e565b506001600160a01b038216600081815260cf6020908152604080832092909255815192835282018390527ff8df0bb865f83f0bfa58caa2a1ec0cccc495ea623170108323baecc06cd6537a9101610f8d565b60006113476001614aa4565b9050801561135f576000805461ff0019166101001790555b611367614b29565b61136f614b50565b61137a60008a614b83565b6113a47f3accb7525e36f7c8113757659b4e6f25deb99f23daf336bf7c35736aae7bcd9d8a614b83565b6113ce7f86c262939a9533c4628ccc11f9decb407b7c04ffc9311f0c60d1f23d7d790db78a614b83565b60cc80546001600160a01b03808c166001600160a01b03199283161790925560d08a905560d189905560c9805489841690831617905560ca805488841690831617905560cb80549287169290911691909117905560d283905560d38290558015611472576000805461ff0019169055604051600181527f7f26b83ff96e1f2b6a682f133852f6798a09c465da95921460cefb38474024989060200160405180910390a15b505050505050505050565b60008281526065602052604090206001015461149881614c09565b6114a28383614b83565b505050565b6000806114e6620186a0610b886114bd866141e1565b600088815260ce602090815260408083208a8452909152902060020154610b8890610b88612b11565b60c9546040516373d97f3960e01b8152600481018690529192506000916001600160a01b03909116906373d97f399060240160006040518083038186803b15801561153057600080fd5b505afa158015611544573d6000803e3d6000fd5b505050506040513d6000823e601f3d908101601f1916820160405261156c91908101906155d3565b505050509450505050506000805b825181101561162357600087815260ce602090815260408083208984529091529020600301805461160f9161160891849081106115c757634e487b7160e01b600052603260045260246000fd5b90600052602060002001548584815181106115f257634e487b7160e01b600052603260045260246000fd5b602002602001015161482b90919063ffffffff16565b839061483e565b91508061161b81615cf7565b91505061157a565b50610ac6620186a0610e19858461482b565b6001600160a01b03811633146116a55760405162461bcd60e51b815260206004820152602f60248201527f416363657373436f6e74726f6c3a2063616e206f6e6c792072656e6f756e636560448201526e103937b632b9903337b91039b2b63360891b6064820152608401610abd565b6108bc8282614c16565b60006116ba81614c09565b60d35460408051918252602082018490527fc5e14df5fc337a990601fe0ce9170d1666340710bae7daf71491634ab38a58dc910160405180910390a15060d355565b611705336104ac565b565b600081815260cd602090815260408083206004018054825181850281018501909352808352859493849392919083018282801561176357602002820191906000526020600020905b81548152602001906001019080831161174f575b5050505050905060005b815181101561190c5760c95482516000916001600160a01b0316906373d97f39908590859081106117ae57634e487b7160e01b600052603260045260246000fd5b60200260200101516040518263ffffffff1660e01b81526004016117d491815260200190565b60006040518083038186803b1580156117ec57600080fd5b505afa158015611800573d6000803e3d6000fd5b505050506040513d6000823e601f3d908101601f1916820160405261182891908101906155d3565b5050505094505050505060005b81518110156118f7576118e36118dc60ce6000898152602001908152602001600020600087878151811061187957634e487b7160e01b600052603260045260246000fd5b6020026020010151815260200190815260200160002060030183815481106118b157634e487b7160e01b600052603260045260246000fd5b90600052602060002001548484815181106115f257634e487b7160e01b600052603260045260246000fd5b869061483e565b9450806118ef81615cf7565b915050611835565b5050808061190490615cf7565b91505061176d565b50600083815260cd60205260408120546119329061192b904290614c7d565b849061482b565b9050620186a0811115611d20576000808083611957620186a0610e1983610a9a612b11565b92506119898360cf6000611969611049565b6001600160a01b031681526020810191909152604001600020549061483e565b60cf6000611995611049565b6001600160a01b03166001600160a01b031681526020019081526020016000208190555060005b8651811015611af357611a1f6118dc620186a0610e1989610a9a8e8d88815181106119f757634e487b7160e01b600052603260045260246000fd5b6020026020010151600091825260ce6020908152604080842092845291905290206002015490565b9450611a66611a5f620186a0610e1989610a9a8c8781518110611a5257634e487b7160e01b600052603260045260246000fd5b60200260200101516141e1565b849061483e565b9250611aa08260cf60006119698b8681518110611a9357634e487b7160e01b600052603260045260246000fd5b6020026020010151610f99565b60cf6000611ac78a8581518110611a9357634e487b7160e01b600052603260045260246000fd5b6001600160a01b0316815260208101919091526040016000205580611aeb81615cf7565b9150506119bc565b50600088815260cd60209081526040808320600501546001600160a01b0316835260cf909152902054611b26908561483e565b600089815260cd60209081526040808320600501546001600160a01b0316835260cf91829052822092909255611b619184916119698c611017565b60cf6000611b6e8b611017565b6001600160a01b031681526020810191909152604001600090812091909155611b9d82610b888581898961483e565b60008a815260cd602052604081206001015491925090821015611bf25760008a815260cd60205260408120611bdb918491600101905b015490614c7d565b60008b815260cd6020526040902060010155611d08565b60008a815260cd60205260408120611c14916001909101905b01548390614c7d565b60008b815260cd60205260408120600181019190915560020154909150811015611c765760008a815260cd60205260409020611c57908290600190810190611bd3565b60008b815260cd602052604090206001908101905b0155506000611d08565b60008a815260cd60205260409020611c98906001908101905b01548290614c7d565b60008b815260cd60205260408120600281019190915560030154909150811015611cf25760008a815260cd60205260409020611cda9082906001016002611bd3565b60008b815260cd602052604090206001016002611c6c565b50600089815260cd602052604081206003018190555b505050600087815260cd602052604090204290555050505b6040518581527f106128e5bc2fab46dc6facdb884bcdb95b9005c33eff74a8009b90a3944c1009906020015b60405180910390a15050505050565b60975460ff1615611d7e5760405162461bcd60e51b8152600401610abd9061590e565b600082815260cd6020908152604080832060040180548251818502810185019093528083528694938493929190830182828015611dda57602002820191906000526020600020905b815481526020019060010190808311611dc6575b5050505050905060005b8151811015611f195760c95482516000916001600160a01b0316906373d97f3990859085908110611e2557634e487b7160e01b600052603260045260246000fd5b60200260200101516040518263ffffffff1660e01b8152600401611e4b91815260200190565b60006040518083038186803b158015611e6357600080fd5b505afa158015611e77573d6000803e3d6000fd5b505050506040513d6000823e601f3d908101601f19168201604052611e9f91908101906155d3565b5050505094505050505060005b8151811015611f0457611ef06118dc60ce6000898152602001908152602001600020600087878151811061187957634e487b7160e01b600052603260045260246000fd5b945080611efc81615cf7565b915050611eac565b50508080611f1190615cf7565b915050611de4565b50600083815260cd6020526040812054611f389061192b904290614c7d565b9050620186a08111156122af576000808083611f5d620186a0610e1983610a9a612b11565b9250611f6f8360cf6000611969611049565b60cf6000611f7b611049565b6001600160a01b03166001600160a01b031681526020019081526020016000208190555060005b865181101561209057611fdd6118dc620186a0610e1989610a9a8e8d88815181106119f757634e487b7160e01b600052603260045260246000fd5b9450612010611a5f620186a0610e1989610a9a8c8781518110611a5257634e487b7160e01b600052603260045260246000fd5b925061203d8260cf60006119698b8681518110611a9357634e487b7160e01b600052603260045260246000fd5b60cf60006120648a8581518110611a9357634e487b7160e01b600052603260045260246000fd5b6001600160a01b031681526020810191909152604001600020558061208881615cf7565b915050611fa2565b50600088815260cd60209081526040808320600501546001600160a01b0316835260cf9091529020546120c3908561483e565b600089815260cd60209081526040808320600501546001600160a01b0316835260cf918290528220929092556120fe9184916119698c611017565b60cf600061210b8b611017565b6001600160a01b03168152602081019190915260400160009081209190915561213a82610b888581898961483e565b60008a815260cd60205260408120600101549192509082101561218b5760008a815260cd6020526040812061217491849160010190611bd3565b60008b815260cd6020526040902060010155612297565b60008a815260cd602052604081206121a891600190910190611c0b565b60008b815260cd6020526040812060018101919091556002015490915081101561220a5760008a815260cd602052604090206121eb908290600190810190611bd3565b60008b815260cd602052604090206001908101905b0155506000612297565b60008a815260cd6020526040902061222790600190810190611c8f565b60008b815260cd602052604081206002810191909155600301549091508110156122815760008a815260cd602052604090206122699082906001016002611bd3565b60008b815260cd602052604090206001016002612200565b50600089815260cd602052604081206003018190555b505050600087815260cd602052604090204290555050505b3360ca546040516331a9108f60e11b8152600481018990526001600160a01b039283169290911690636352211e9060240160206040518083038186803b1580156122f857600080fd5b505afa15801561230c573d6000803e3d6000fd5b505050506040513d601f19601f8201168201806040525081019061233091906152f3565b6001600160a01b0316146123565760405162461bcd60e51b8152600401610abd90615938565b60cb546001600160a01b031663a9059cbb336040516001600160e01b031960e084901b1681526001600160a01b03909116600482015260248101889052604401602060405180830381600087803b1580156123b057600080fd5b505af11580156123c4573d6000803e3d6000fd5b505050506040513d601f19601f820116820180604052508101906123e8919061545e565b50600086815260cd602052604081206003015561240486611707565b61241c610e1f6124138861346b565b610e1989613550565b600096875260cd6020526040909620600601959095555050505050565b60ce60209081526000928352604080842090915290825290208054819061245f90615cbc565b80601f016020809104026020016040519081016040528092919081815260200182805461248b90615cbc565b80156124d85780601f106124ad576101008083540402835291602001916124d8565b820191906000526020600020905b8154815290600101906020018083116124bb57829003601f168201915b505050506001830154600284015460049094015492936001600160a01b039091169290915060ff1684565b7f3accb7525e36f7c8113757659b4e6f25deb99f23daf336bf7c35736aae7bcd9d61252d81614c09565b60975460ff16156125505760405162461bcd60e51b8152600401610abd9061590e565b600084815260cd60209081526040808320600401805482518185028101850190935280835288949384939291908301828280156125ac57602002820191906000526020600020905b815481526020019060010190808311612598575b5050505050905060005b81518110156126eb5760c95482516000916001600160a01b0316906373d97f39908590859081106125f757634e487b7160e01b600052603260045260246000fd5b60200260200101516040518263ffffffff1660e01b815260040161261d91815260200190565b60006040518083038186803b15801561263557600080fd5b505afa158015612649573d6000803e3d6000fd5b505050506040513d6000823e601f3d908101601f1916820160405261267191908101906155d3565b5050505094505050505060005b81518110156126d6576126c26118dc60ce6000898152602001908152602001600020600087878151811061187957634e487b7160e01b600052603260045260246000fd5b9450806126ce81615cf7565b91505061267e565b505080806126e390615cf7565b9150506125b6565b50600083815260cd602052604081205461270a9061192b904290614c7d565b9050620186a0811115612a8157600080808361272f620186a0610e1983610a9a612b11565b92506127418360cf6000611969611049565b60cf600061274d611049565b6001600160a01b03166001600160a01b031681526020019081526020016000208190555060005b8651811015612862576127af6118dc620186a0610e1989610a9a8e8d88815181106119f757634e487b7160e01b600052603260045260246000fd5b94506127e2611a5f620186a0610e1989610a9a8c8781518110611a5257634e487b7160e01b600052603260045260246000fd5b925061280f8260cf60006119698b8681518110611a9357634e487b7160e01b600052603260045260246000fd5b60cf60006128368a8581518110611a9357634e487b7160e01b600052603260045260246000fd5b6001600160a01b031681526020810191909152604001600020558061285a81615cf7565b915050612774565b50600088815260cd60209081526040808320600501546001600160a01b0316835260cf909152902054612895908561483e565b600089815260cd60209081526040808320600501546001600160a01b0316835260cf918290528220929092556128d09184916119698c611017565b60cf60006128dd8b611017565b6001600160a01b03168152602081019190915260400160009081209190915561290c82610b888581898961483e565b60008a815260cd60205260408120600101549192509082101561295d5760008a815260cd6020526040812061294691849160010190611bd3565b60008b815260cd6020526040902060010155612a69565b60008a815260cd6020526040812061297a91600190910190611c0b565b60008b815260cd602052604081206001810191909155600201549091508110156129dc5760008a815260cd602052604090206129bd908290600190810190611bd3565b60008b815260cd602052604090206001908101905b0155506000612a69565b60008a815260cd602052604090206129f990600190810190611c8f565b60008b815260cd60205260408120600281019190915560030154909150811015612a535760008a815260cd60205260409020612a3b9082906001016002611bd3565b60008b815260cd6020526040902060010160026129d2565b50600089815260cd602052604081206003018190555b505050600087815260cd602052604090204290555050505b600088815260ce602090815260408083208a845282529091208751612aae92600390920191890190614f0d565b50612ac7610e1f612abe8a61346b565b610e198b613550565b600098895260cd60205260409098206006019790975550505050505050565b60009182526065602090815260408084206001600160a01b0393909316845291905290205460ff1690565b60c954604080516319ec727760e31b815290516000926001600160a01b03169163cf6393b8916004808301926020929190829003018186803b158015612b5657600080fd5b505afa158015612b6a573d6000803e3d6000fd5b505050506040513d601f19601f820116820180604052508101906110c691906154e7565b3360ca546040516331a9108f60e11b8152600481018690526001600160a01b039283169290911690636352211e9060240160206040518083038186803b158015612bd757600080fd5b505afa158015612beb573d6000803e3d6000fd5b505050506040513d601f19601f82011682018060405250810190612c0f91906152f3565b6001600160a01b031614612c5f5760405162461bcd60e51b8152602060048201526017602482015276139bdd081d1a19481bdddb995c881bd988139195081a59604a1b6044820152606401610abd565b600083815260ce6020908152604080832085845290915290206004015460ff16612cdd5760405162461bcd60e51b815260206004820152602960248201527f5f7375626e65744964206973206e6f74207375627363726962656420627920756044820152681cd95c89dcc813919560ba1b6064820152608401610abd565b60d254600084815260d4602090815260408083208684529091529020600201544291612d09919061483e565b10612d7c5760405162461bcd60e51b815260206004820152603860248201527f43616e6e6f742072657175657374206265666f726520524551445f4e4f54494360448201527f455f54494d455f535f50524f56494445522070617373656400000000000000006064820152608401610abd565b600083815260d46020908152604080832085845282529091204281558251612dac92600190920191840190614fc2565b507e0858c198563c0aa886be91504eeb8007e0be28541c36be5d1ace93f3eebbfd83838360405161124493929190615a5a565b60008260008060cd6000848152602001908152602001600020600401805480602002602001604051908101604052809291908181526020018280548015612e4557602002820191906000526020600020905b815481526020019060010190808311612e31575b5050505050905060005b8151811015612f845760c95482516000916001600160a01b0316906373d97f3990859085908110612e9057634e487b7160e01b600052603260045260246000fd5b60200260200101516040518263ffffffff1660e01b8152600401612eb691815260200190565b60006040518083038186803b158015612ece57600080fd5b505afa158015612ee2573d6000803e3d6000fd5b505050506040513d6000823e601f3d908101601f19168201604052612f0a91908101906155d3565b5050505094505050505060005b8151811015612f6f57612f5b6118dc60ce6000898152602001908152602001600020600087878151811061187957634e487b7160e01b600052603260045260246000fd5b945080612f6781615cf7565b915050612f17565b50508080612f7c90615cf7565b915050612e4f565b50600083815260cd6020526040812054612fa39061192b904290614c7d565b9050620186a081111561331a576000808083612fc8620186a0610e1983610a9a612b11565b9250612fda8360cf6000611969611049565b60cf6000612fe6611049565b6001600160a01b03166001600160a01b031681526020019081526020016000208190555060005b86518110156130fb576130486118dc620186a0610e1989610a9a8e8d88815181106119f757634e487b7160e01b600052603260045260246000fd5b945061307b611a5f620186a0610e1989610a9a8c8781518110611a5257634e487b7160e01b600052603260045260246000fd5b92506130a88260cf60006119698b8681518110611a9357634e487b7160e01b600052603260045260246000fd5b60cf60006130cf8a8581518110611a9357634e487b7160e01b600052603260045260246000fd5b6001600160a01b03168152602081019190915260400160002055806130f381615cf7565b91505061300d565b50600088815260cd60209081526040808320600501546001600160a01b0316835260cf90915290205461312e908561483e565b600089815260cd60209081526040808320600501546001600160a01b0316835260cf918290528220929092556131699184916119698c611017565b60cf60006131768b611017565b6001600160a01b0316815260208101919091526040016000908120919091556131a582610b888581898961483e565b60008a815260cd6020526040812060010154919250908210156131f65760008a815260cd602052604081206131df91849160010190611bd3565b60008b815260cd6020526040902060010155613302565b60008a815260cd6020526040812061321391600190910190611c0b565b60008b815260cd602052604081206001810191909155600201549091508110156132755760008a815260cd60205260409020613256908290600190810190611bd3565b60008b815260cd602052604090206001908101905b0155506000613302565b60008a815260cd6020526040902061329290600190810190611c8f565b60008b815260cd602052604081206002810191909155600301549091508110156132ec5760008a815260cd602052604090206132d49082906001016002611bd3565b60008b815260cd60205260409020600101600261326b565b50600089815260cd602052604081206003018190555b505050600087815260cd602052604090204290555050505b60cb5487906001600160a01b03166323b872dd336040516001600160e01b031960e084901b1681526001600160a01b039091166004820152306024820152604481018a9052606401602060405180830381600087803b15801561337c57600080fd5b505af1158015613390573d6000803e3d6000fd5b505050506040513d601f19601f820116820180604052508101906133b4919061545e565b50600081815260cd60205260408120600301546133d1908961483e565b600083815260cd60205260409020600381018290554290559050613403610e1f6133fa8461346b565b610e198c613550565b600083815260cd60209081526040918290206006019290925580518b815260029281019290925281018990527fc3cb85e2217091051779d8f75f52cc9874723c3b9fad06042a5fa2df88df96429060600160405180910390a150600198975050505050505050565b600081815260cd60209081526040808320600401805482518185028101850190935280835284938301828280156134c157602002820191906000526020600020905b8154815260200190600101908083116134ad575b505050505090506000915060005b81518110156135205761350c611a5f858484815181106134ff57634e487b7160e01b600052603260045260246000fd5b60200260200101516114a7565b92508061351881615cf7565b9150506134cf565b5050919050565b600081815260cd602052604081206006015442101561354857506001610869565b506000919050565b600080805b60038110156135af57600084815260cd6020526040902061359b90600101826003811061359257634e487b7160e01b600052603260045260246000fd5b0154839061483e565b9150806135a781615cf7565b915050613555565b5092915050565b6000806135df6135c58461346b565b600085815260cd6020526040902054610a9a904290614c7d565b905060006135ec84613550565b90508181101561360157600092505050610869565b61360b8183614c7d565b949350505050565b600061361e81614c09565b5060cc80546001600160a01b0319166001600160a01b0392909216919091179055565b60975460ff16156136645760405162461bcd60e51b8152600401610abd9061590e565b60c9546040516373d97f3960e01b8152600481018490526000916001600160a01b0316906373d97f399060240160006040518083038186803b1580156136a957600080fd5b505afa1580156136bd573d6000803e3d6000fd5b505050506040513d6000823e601f3d908101601f191682016040526136e591908101906155d3565b50505050509350505050806137595760405162461bcd60e51b815260206004820152603460248201527f43616e6e6f74206368616e676520737562736372697074696f6e206966207375604482015273189b995d081a5cc81b9bdd0819195b1a5cdd195960621b6064820152608401610abd565b3360ca546040516331a9108f60e11b8152600481018790526001600160a01b039283169290911690636352211e9060240160206040518083038186803b1580156137a257600080fd5b505afa1580156137b6573d6000803e3d6000fd5b505050506040513d601f19601f820116820180604052508101906137da91906152f3565b6001600160a01b03161461382a5760405162461bcd60e51b8152602060048201526017602482015276139bdd081d1a19481bdddb995c881bd988139195081a59604a1b6044820152606401610abd565b600084815260ce6020908152604080832086845290915290206004015460ff166138a95760405162461bcd60e51b815260206004820152602a60248201527f5f63757272656e745375626e65744964206973206e6f7420737562736372696260448201526932b210313c903ab9b2b960b11b6064820152608401610abd565b600084815260ce6020908152604080832085845290915280822060048101805460ff191660011790558583529082209184905281549091906138ea90615cbc565b6138f5929190614f47565b50600084815260ce602090815260408083208684529091528082206001808201548685529290932092830180546001600160a01b0319166001600160a01b0390931692909217909155600280820154908301556003908101805461395d939290920191615035565b50600084815260ce6020908152604080832086845282528083206004908101805460ff1916905587845260cd835281842001805482518185028101850190935280835291929091908301828280156139d457602002820191906000526020600020905b8154815260200190600101908083116139c0575b5050505050905060005b8151811015613a5a5784828281518110613a0857634e487b7160e01b600052603260045260246000fd5b60200260200101511415613a485783828281518110613a3757634e487b7160e01b600052603260045260246000fd5b602002602001018181525050613a5a565b80613a5281615cf7565b9150506139de565b50600085815260cd602090815260409091208251613a8092600490920191840190614f0d565b5060408051868152602081018690529081018490527f53404332d7fbbd680064ad6f3fa2e5a1c6737c9c3206cf95918a31755c7918b790606001611d4c565b6000613aca81614c09565b60d05460408051918252602082018490527f54fe1a6d60ea8cebf2cb1d7889eb5b27dd95abe955e06eed2cae5540a54b4bf2910160405180910390a15060d055565b60975460ff1615613b2f5760405162461bcd60e51b8152600401610abd9061590e565b600081815260cd6020908152604080832060040180548251818502810185019093528083528594938493929190830182828015613b8b57602002820191906000526020600020905b815481526020019060010190808311613b77575b5050505050905060005b8151811015613cca5760c95482516000916001600160a01b0316906373d97f3990859085908110613bd657634e487b7160e01b600052603260045260246000fd5b60200260200101516040518263ffffffff1660e01b8152600401613bfc91815260200190565b60006040518083038186803b158015613c1457600080fd5b505afa158015613c28573d6000803e3d6000fd5b505050506040513d6000823e601f3d908101601f19168201604052613c5091908101906155d3565b5050505094505050505060005b8151811015613cb557613ca16118dc60ce6000898152602001908152602001600020600087878151811061187957634e487b7160e01b600052603260045260246000fd5b945080613cad81615cf7565b915050613c5d565b50508080613cc290615cf7565b915050613b95565b50600083815260cd6020526040812054613ce99061192b904290614c7d565b9050620186a0811115614060576000808083613d0e620186a0610e1983610a9a612b11565b9250613d208360cf6000611969611049565b60cf6000613d2c611049565b6001600160a01b03166001600160a01b031681526020019081526020016000208190555060005b8651811015613e4157613d8e6118dc620186a0610e1989610a9a8e8d88815181106119f757634e487b7160e01b600052603260045260246000fd5b9450613dc1611a5f620186a0610e1989610a9a8c8781518110611a5257634e487b7160e01b600052603260045260246000fd5b9250613dee8260cf60006119698b8681518110611a9357634e487b7160e01b600052603260045260246000fd5b60cf6000613e158a8581518110611a9357634e487b7160e01b600052603260045260246000fd5b6001600160a01b0316815260208101919091526040016000205580613e3981615cf7565b915050613d53565b50600088815260cd60209081526040808320600501546001600160a01b0316835260cf909152902054613e74908561483e565b600089815260cd60209081526040808320600501546001600160a01b0316835260cf91829052822092909255613eaf9184916119698c611017565b60cf6000613ebc8b611017565b6001600160a01b031681526020810191909152604001600090812091909155613eeb82610b888581898961483e565b60008a815260cd602052604081206001015491925090821015613f3c5760008a815260cd60205260408120613f2591849160010190611bd3565b60008b815260cd6020526040902060010155614048565b60008a815260cd60205260408120613f5991600190910190611c0b565b60008b815260cd60205260408120600181019190915560020154909150811015613fbb5760008a815260cd60205260409020613f9c908290600190810190611bd3565b60008b815260cd602052604090206001908101905b0155506000614048565b60008a815260cd60205260409020613fd890600190810190611c8f565b60008b815260cd602052604081206002810191909155600301549091508110156140325760008a815260cd6020526040902061401a9082906001016002611bd3565b60008b815260cd602052604090206001016002613fb1565b50600089815260cd602052604081206003018190555b505050600087815260cd602052604090204290555050505b600085815260cd602052604090206003015461407c8682611d5b565b505050505050565b60008281526065602052604090206001015461409f81614c09565b6114a28383614c16565b60006140b481614c09565b60d25460408051918252602082018490527f880c74d681b789e90ecfbf24398fc73843a046f74a0f6ffe22a0fcc0d214a771910160405180910390a15060d255565b60005b85518110156141d8576141c68787838151811061412657634e487b7160e01b600052603260045260246000fd5b602002602001015187848151811061414e57634e487b7160e01b600052603260045260246000fd5b602002602001015187858151811061417657634e487b7160e01b600052603260045260246000fd5b602002602001015187868151811061419e57634e487b7160e01b600052603260045260246000fd5b6020026020010151878781518110610a6a57634e487b7160e01b600052603260045260246000fd5b806141d081615cf7565b9150506140f9565b50505050505050565b60c9546040516373d97f3960e01b8152600481018390526000916001600160a01b0316906373d97f399060240160006040518083038186803b15801561422657600080fd5b505afa15801561423a573d6000803e3d6000fd5b505050506040513d6000823e601f3d908101601f1916820160405261426291908101906155d3565b509998505050505050505050565b600061427b81614c09565b60d15460408051918252602082018490527f7c687d0697c66d5104a1421b7d823a0818020aeacac7371785314a404d9a2ee2910160405180910390a15060d155565b60975460ff16156142e05760405162461bcd60e51b8152600401610abd9061590e565b600086815260cd6020908152604080832060040180548251818502810185019093528083528a9493849392919083018282801561433c57602002820191906000526020600020905b815481526020019060010190808311614328575b5050505050905060005b815181101561447b5760c95482516000916001600160a01b0316906373d97f399085908590811061438757634e487b7160e01b600052603260045260246000fd5b60200260200101516040518263ffffffff1660e01b81526004016143ad91815260200190565b60006040518083038186803b1580156143c557600080fd5b505afa1580156143d9573d6000803e3d6000fd5b505050506040513d6000823e601f3d908101601f1916820160405261440191908101906155d3565b5050505094505050505060005b8151811015614466576144526118dc60ce6000898152602001908152602001600020600087878151811061187957634e487b7160e01b600052603260045260246000fd5b94508061445e81615cf7565b91505061440e565b5050808061447390615cf7565b915050614346565b50600083815260cd602052604081205461449a9061192b904290614c7d565b9050620186a08111156148115760008080836144bf620186a0610e1983610a9a612b11565b92506144d18360cf6000611969611049565b60cf60006144dd611049565b6001600160a01b03166001600160a01b031681526020019081526020016000208190555060005b86518110156145f25761453f6118dc620186a0610e1989610a9a8e8d88815181106119f757634e487b7160e01b600052603260045260246000fd5b9450614572611a5f620186a0610e1989610a9a8c8781518110611a5257634e487b7160e01b600052603260045260246000fd5b925061459f8260cf60006119698b8681518110611a9357634e487b7160e01b600052603260045260246000fd5b60cf60006145c68a8581518110611a9357634e487b7160e01b600052603260045260246000fd5b6001600160a01b03168152602081019190915260400160002055806145ea81615cf7565b915050614504565b50600088815260cd60209081526040808320600501546001600160a01b0316835260cf909152902054614625908561483e565b600089815260cd60209081526040808320600501546001600160a01b0316835260cf918290528220929092556146609184916119698c611017565b60cf600061466d8b611017565b6001600160a01b03168152602081019190915260400160009081209190915561469c82610b888581898961483e565b60008a815260cd6020526040812060010154919250908210156146ed5760008a815260cd602052604081206146d691849160010190611bd3565b60008b815260cd60205260409020600101556147f9565b60008a815260cd6020526040812061470a91600190910190611c0b565b60008b815260cd6020526040812060018101919091556002015490915081101561476c5760008a815260cd6020526040902061474d908290600190810190611bd3565b60008b815260cd602052604090206001908101905b01555060006147f9565b60008a815260cd6020526040902061478990600190810190611c8f565b60008b815260cd602052604081206002810191909155600301549091508110156147e35760008a815260cd602052604090206147cb9082906001016002611bd3565b60008b815260cd602052604090206001016002614762565b50600089815260cd602052604081206003018190555b505050600087815260cd602052604090204290555050505b61481f8a8a8a8a8a8a61484a565b50505050505050505050565b60006148378284615c3f565b9392505050565b60006148378284615c07565b60d054600087815260cd6020526040902060040154106148e75760405162461bcd60e51b815260206004820152604c60248201527f43616e6e6f7420737562736372696265206173206c696d69742065786365656460448201527f7320746f206d6178205375626e657420737562736372697074696f6e20616c6c60648201526b1bddd959081c195c8813919560a21b608482015260a401610abd565b3360ca546040516331a9108f60e11b8152600481018990526001600160a01b039283169290911690636352211e9060240160206040518083038186803b15801561493057600080fd5b505afa158015614944573d6000803e3d6000fd5b505050506040513d601f19601f8201168201806040525081019061496891906152f3565b6001600160a01b03161461498e5760405162461bcd60e51b8152600401610abd90615938565b600086815260cd6020908152604080832060040180546001810182559084528284200188905588835260ce8252808320888452825290912085516149d492870190614fc2565b50600086815260ce6020908152604080832088845282529091206001810180546001600160a01b0319166001600160a01b038716179055600281018490558251614a2692600390920191840190614f0d565b50600086815260ce6020908152604080832088845290915290819020600401805460ff19166001179055517fd8a8eccd539765905df336ff4c3dea59261278d3c359ccf40f1dddd1fa2a5a8290614a8890889088908890889088908890615a82565b60405180910390a1505050505050565b60006148378284615c1f565b60008054610100900460ff1615614aeb578160ff166001148015614ac75750303b155b614ae35760405162461bcd60e51b8152600401610abd9061596f565b506000610869565b60005460ff808416911610614b125760405162461bcd60e51b8152600401610abd9061596f565b506000805460ff191660ff83161790556001610869565b600054610100900460ff166117055760405162461bcd60e51b8152600401610abd90615a0f565b600054610100900460ff16614b775760405162461bcd60e51b8152600401610abd90615a0f565b6097805460ff19169055565b614b8d8282612ae6565b6108bc5760008281526065602090815260408083206001600160a01b03851684529091529020805460ff19166001179055614bc53390565b6001600160a01b0316816001600160a01b0316837f2f8788117e7eff1d82e926ec794901d17c78024a50270940304540a733656f0d60405160405180910390a45050565b614c138133614c89565b50565b614c208282612ae6565b156108bc5760008281526065602090815260408083206001600160a01b0385168085529252808320805460ff1916905551339285917ff6391f5c32d9c69d2a47ea670b442974b53935d1edc7fd64eb21e047a839171b9190a45050565b60006148378284615c5e565b614c938282612ae6565b6108bc57614cab816001600160a01b03166014614ced565b614cb6836020614ced565b604051602001614cc792919061584c565b60408051601f198184030181529082905262461bcd60e51b8252610abd916004016158c1565b60606000614cfc836002615c3f565b614d07906002615c07565b67ffffffffffffffff811115614d2d57634e487b7160e01b600052604160045260246000fd5b6040519080825280601f01601f191660200182016040528015614d57576020820181803683370190505b509050600360fc1b81600081518110614d8057634e487b7160e01b600052603260045260246000fd5b60200101906001600160f81b031916908160001a905350600f60fb1b81600181518110614dbd57634e487b7160e01b600052603260045260246000fd5b60200101906001600160f81b031916908160001a9053506000614de1846002615c3f565b614dec906001615c07565b90505b6001811115614e80576f181899199a1a9b1b9c1cb0b131b232b360811b85600f1660108110614e2e57634e487b7160e01b600052603260045260246000fd5b1a60f81b828281518110614e5257634e487b7160e01b600052603260045260246000fd5b60200101906001600160f81b031916908160001a90535060049490941c93614e7981615ca5565b9050614def565b5083156148375760405162461bcd60e51b815260206004820181905260248201527f537472696e67733a20686578206c656e67746820696e73756666696369656e746044820152606401610abd565b8260038101928215614efd579160200282015b82811115614efd578251825591602001919060010190614ee2565b50614f09929150615074565b5090565b828054828255906000526020600020908101928215614efd5791602002820182811115614efd578251825591602001919060010190614ee2565b828054614f5390615cbc565b90600052602060002090601f016020900481019282614f755760008555614efd565b82601f10614f865780548555614efd565b82800160010185558215614efd57600052602060002091601f016020900482015b82811115614efd578254825591600101919060010190614fa7565b828054614fce90615cbc565b90600052602060002090601f016020900481019282614ff05760008555614efd565b82601f1061500957805160ff1916838001178555614efd565b82800160010185558215614efd5791820182811115614efd578251825591602001919060010190614ee2565b828054828255906000526020600020908101928215614efd57600052602060002091820182811115614efd578254825591600101919060010190614fa7565b5b80821115614f095760008155600101615075565b600082601f830112615099578081fd5b813560206150ae6150a983615be3565b615bb2565b82815281810190858301838502870184018810156150ca578586fd5b855b858110156150f15781356150df81615d3e565b845292840192908401906001016150cc565b5090979650505050505050565b600082601f83011261510e578081fd5b8135602061511e6150a983615be3565b82815281810190858301855b858110156150f157615141898684358b01016151a8565b8452928401929084019060010161512a565b600082601f830112615163578081fd5b813560206151736150a983615be3565b82815281810190858301855b858110156150f157615196898684358b010161526c565b8452928401929084019060010161517f565b600082601f8301126151b8578081fd5b813560206151c86150a983615be3565b82815281810190858301838502870184018810156151e4578586fd5b855b858110156150f1578135845292840192908401906001016151e6565b600082601f830112615212578081fd5b815160206152226150a983615be3565b828152818101908583018385028701840188101561523e578586fd5b855b858110156150f157815184529284019290840190600101615240565b8051801515811461086957600080fd5b600082601f83011261527c578081fd5b813567ffffffffffffffff81111561529657615296615d28565b6152a9601f8201601f1916602001615bb2565b8181528460208386010111156152bd578283fd5b816020850160208301379081016020019190915292915050565b6000602082840312156152e8578081fd5b813561483781615d3e565b600060208284031215615304578081fd5b815161483781615d3e565b600080600080600060808688031215615326578081fd5b853561533181615d3e565b9450602086013561534181615d3e565b935060408601359250606086013567ffffffffffffffff80821115615364578283fd5b818801915088601f830112615377578283fd5b813581811115615385578384fd5b896020828501011115615396578384fd5b9699959850939650602001949392505050565b600080600080600080600080610100898b0312156153c5578586fd5b88356153d081615d3e565b9750602089013596506040890135955060608901356153ee81615d3e565b945060808901356153fe81615d3e565b935060a089013561540e81615d3e565b979a969950949793969295929450505060c08201359160e0013590565b60006020828403121561543c578081fd5b813567ffffffffffffffff811115615452578182fd5b61360b84828501615089565b60006020828403121561546f578081fd5b6148378261525c565b600060208284031215615489578081fd5b5035919050565b600080604083850312156154a2578182fd5b8235915060208301356154b481615d3e565b809150509250929050565b6000602082840312156154d0578081fd5b81356001600160e01b031981168114614837578182fd5b6000602082840312156154f8578081fd5b5051919050565b60008060008060008060c08789031215615517578384fd5b86359550602087013567ffffffffffffffff80821115615535578586fd5b6155418a838b016151a8565b96506040890135915080821115615556578586fd5b6155628a838b01615153565b95506060890135915080821115615577578384fd5b6155838a838b01615089565b94506080890135915080821115615598578384fd5b6155a48a838b016151a8565b935060a08901359150808211156155b9578283fd5b506155c689828a016150fe565b9150509295509295509295565b60008060008060008060008060006101208a8c0312156155f1578283fd5b8951985061560160208b0161525c565b975060408a0151965061561660608b0161525c565b955060808a015167ffffffffffffffff80821115615632578485fd5b61563e8d838e01615202565b965060a08c0151915080821115615653578485fd5b506156608c828d01615202565b94505060c08a0151925060e08a015191506101008a015190509295985092959850929598565b60008060408385031215615698578182fd5b50508035926020909101359150565b6000806000606084860312156156bb578081fd5b833592506020840135915060408401356156d481615d3e565b809150509250925092565b6000806000606084860312156156f3578081fd5b8335925060208401359150604084013567ffffffffffffffff811115615717578182fd5b615723868287016151a8565b9150509250925092565b600080600060608486031215615741578081fd5b8335925060208401359150604084013567ffffffffffffffff811115615765578182fd5b6157238682870161526c565b60008060008060008060c08789031215615789578384fd5b8635955060208701359450604087013567ffffffffffffffff808211156157ae578586fd5b6157ba8a838b0161526c565b9550606089013591506157cc82615d3e565b9093506080880135925060a088013590808211156157e8578283fd5b506155c689828a016151a8565b600080600060608486031215615809578081fd5b505081359360208301359350604090920135919050565b60008151808452615838816020860160208601615c75565b601f01601f19169290920160200192915050565b60007f416363657373436f6e74726f6c3a206163636f756e742000000000000000000082528351615884816017850160208801615c75565b7001034b99036b4b9b9b4b733903937b6329607d1b60179184019182015283516158b5816028840160208801615c75565b01602801949350505050565b6000602082526148376020830184615820565b6000608082526158e76080830187615820565b6001600160a01b039590951660208301525060408101929092521515606090910152919050565b60208082526010908201526f14185d5cd8589b194e881c185d5cd95960821b604082015260600190565b6020808252601e908201527f53656e646572206e6f7420746865206f776e6572206f66204e46542069640000604082015260600190565b6020808252602e908201527f496e697469616c697a61626c653a20636f6e747261637420697320616c72656160408201526d191e481a5b9a5d1a585b1a5e995960921b606082015260800190565b60208082526032908201527f42616c616e63652061646465642073686f756c6420626520656e6f7567682077604082015271697468204d494e5f54494d455f46554e445360701b606082015260800190565b6020808252602b908201527f496e697469616c697a61626c653a20636f6e7472616374206973206e6f74206960408201526a6e697469616c697a696e6760a81b606082015260800190565b600084825283602083015260606040830152615a796060830184615820565b95945050505050565b60008782526020878184015260c06040840152615aa260c0840188615820565b6001600160a01b03871660608501526080840186905283810360a0850152845180825282860191830190845b81811015615aea57835183529284019291840191600101615ace565b50909b9a5050505050505050505050565b6000848252602084818401526060604084015281845483600282049050600180831680615b2957607f831692505b858310811415615b4757634e487b7160e01b87526022600452602487fd5b6060880183905260808801818015615b665760018114615b7757615ba1565b60ff19861682528782019650615ba1565b60008b815260209020895b86811015615b9b57815484820152908501908901615b82565b83019750505b50949b9a5050505050505050505050565b604051601f8201601f1916810167ffffffffffffffff81118282101715615bdb57615bdb615d28565b604052919050565b600067ffffffffffffffff821115615bfd57615bfd615d28565b5060209081020190565b60008219821115615c1a57615c1a615d12565b500190565b600082615c3a57634e487b7160e01b81526012600452602481fd5b500490565b6000816000190483118215151615615c5957615c59615d12565b500290565b600082821015615c7057615c70615d12565b500390565b60005b83811015615c90578181015183820152602001615c78565b83811115615c9f576000848401525b50505050565b600081615cb457615cb4615d12565b506000190190565b600281046001821680615cd057607f821691505b60208210811415615cf157634e487b7160e01b600052602260045260246000fd5b50919050565b6000600019821415615d0b57615d0b615d12565b5060010190565b634e487b7160e01b600052601160045260246000fd5b634e487b7160e01b600052604160045260246000fd5b6001600160a01b0381168114614c1357600080fdfea264697066735822122083fc31f4546ee2bc1fd1f0e19d9e1f27ed4dbd8a19d295e6ee0c0d66f555a57b64736f6c63430008020033",
  "linkReferences": {},
  "deployedLinkReferences": {}
}