{
  "_format": "hh-sol-artifact-1",
  "contractName": "Registration",
  "sourceName": "contracts/Registration.sol",
  "abi": [
    {
      "anonymous": false,
      "inputs": [
        {
          "indexed": false,
          "internalType": "uint256",
          "name": "subnetId",
          "type": "uint256"
        },
        {
          "indexed": false,
          "internalType": "address[]",
          "name": "whitelistAddresses",
          "type": "address[]"
        }
      ],
      "name": "AddedToWhitelistCluster",
      "type": "event"
    },
    {
      "anonymous": false,
      "inputs": [
        {
          "indexed": false,
          "internalType": "uint256",
          "name": "subnetId",
          "type": "uint256"
        },
        {
          "indexed": false,
          "internalType": "uint256[]",
          "name": "unitPrices",
          "type": "uint256[]"
        }
      ],
      "name": "AppliedChangedClusterPrice",
      "type": "event"
    },
    {
      "anonymous": false,
      "inputs": [
        {
          "indexed": false,
          "internalType": "uint256",
          "name": "coolDownTimeSecs",
          "type": "uint256"
        }
      ],
      "name": "ChangedCoolDownForPriceChange",
      "type": "event"
    },
    {
      "anonymous": false,
      "inputs": [
        {
          "indexed": false,
          "internalType": "uint256",
          "name": "subnetId",
          "type": "uint256"
        },
        {
          "indexed": false,
          "internalType": "uint256",
          "name": "clusterId",
          "type": "uint256"
        },
        {
          "indexed": false,
          "internalType": "string",
          "name": "newDNSIP",
          "type": "string"
        }
      ],
      "name": "ChangedDNSIP",
      "type": "event"
    },
    {
      "anonymous": false,
      "inputs": [
        {
          "indexed": false,
          "internalType": "uint256",
          "name": "subnetId",
          "type": "uint256"
        },
        {
          "indexed": false,
          "internalType": "uint256",
          "name": "clusterId",
          "type": "uint256"
        },
        {
          "indexed": false,
          "internalType": "address",
          "name": "sender",
          "type": "address"
        },
        {
          "indexed": false,
          "internalType": "bool",
          "name": "allow",
          "type": "bool"
        }
      ],
      "name": "ChangedListingCluster",
      "type": "event"
    },
    {
      "anonymous": false,
      "inputs": [
        {
          "indexed": false,
          "internalType": "address",
          "name": "DarkMatterNFT",
          "type": "address"
        }
      ],
      "name": "ChangedNFTAddress",
      "type": "event"
    },
    {
      "anonymous": false,
      "inputs": [
        {
          "indexed": false,
          "internalType": "uint256",
          "name": "subnetId",
          "type": "uint256"
        },
        {
          "indexed": false,
          "internalType": "uint256",
          "name": "clusterId",
          "type": "uint256"
        },
        {
          "indexed": false,
          "internalType": "string",
          "name": "DNS_IP",
          "type": "string"
        },
        {
          "indexed": false,
          "internalType": "address",
          "name": "clusterDAO",
          "type": "address"
        },
        {
          "indexed": false,
          "internalType": "address",
          "name": "sender",
          "type": "address"
        }
      ],
      "name": "ClusterSignedUp",
      "type": "event"
    },
    {
      "anonymous": false,
      "inputs": [
        {
          "indexed": false,
          "internalType": "uint256",
          "name": "daoRate",
          "type": "uint256"
        },
        {
          "indexed": false,
          "internalType": "uint256",
          "name": "_daoRate",
          "type": "uint256"
        }
      ],
      "name": "DAORateChanged",
      "type": "event"
    },
    {
      "anonymous": false,
      "inputs": [
        {
          "indexed": false,
          "internalType": "uint8",
          "name": "version",
          "type": "uint8"
        }
      ],
      "name": "Initialized",
      "type": "event"
    },
    {
      "anonymous": false,
      "inputs": [
        {
          "indexed": false,
          "internalType": "address",
          "name": "userAddress",
          "type": "address"
        },
        {
          "indexed": false,
          "internalType": "uint256",
          "name": "subnetId",
          "type": "uint256"
        },
        {
          "indexed": false,
          "internalType": "uint256",
          "name": "clusterId",
          "type": "uint256"
        },
        {
          "indexed": false,
          "internalType": "uint256",
          "name": "nftID",
          "type": "uint256"
        }
      ],
      "name": "NFTLockedForCluster",
      "type": "event"
    },
    {
      "anonymous": false,
      "inputs": [
        {
          "indexed": false,
          "internalType": "address",
          "name": "userAddress",
          "type": "address"
        },
        {
          "indexed": false,
          "internalType": "uint256",
          "name": "subnetId",
          "type": "uint256"
        },
        {
          "indexed": false,
          "internalType": "uint256",
          "name": "nftID",
          "type": "uint256"
        }
      ],
      "name": "NFTLockedForSubnet",
      "type": "event"
    },
    {
      "anonymous": false,
      "inputs": [
        {
          "indexed": false,
          "internalType": "address",
          "name": "account",
          "type": "address"
        }
      ],
      "name": "Paused",
      "type": "event"
    },
    {
      "anonymous": false,
      "inputs": [
        {
          "indexed": false,
          "internalType": "uint256",
          "name": "subnetId",
          "type": "uint256"
        },
        {
          "indexed": false,
          "internalType": "address",
          "name": "blacklistAddress",
          "type": "address"
        }
      ],
      "name": "RemovedWhitelistCluster",
      "type": "event"
    },
    {
      "anonymous": false,
      "inputs": [
        {
          "indexed": false,
          "internalType": "uint256",
          "name": "subnetId",
          "type": "uint256"
        },
        {
          "indexed": false,
          "internalType": "uint256[]",
          "name": "unitPrices",
          "type": "uint256[]"
        }
      ],
      "name": "RequestedClusterPriceChange",
      "type": "event"
    },
    {
      "anonymous": false,
      "inputs": [
        {
          "indexed": false,
          "internalType": "uint256",
          "name": "subnetId",
          "type": "uint256"
        }
      ],
      "name": "ResetWhitelistCluster",
      "type": "event"
    },
    {
      "anonymous": false,
      "inputs": [
        {
          "indexed": true,
          "internalType": "bytes32",
          "name": "role",
          "type": "bytes32"
        },
        {
          "indexed": true,
          "internalType": "bytes32",
          "name": "previousAdminRole",
          "type": "bytes32"
        },
        {
          "indexed": true,
          "internalType": "bytes32",
          "name": "newAdminRole",
          "type": "bytes32"
        }
      ],
      "name": "RoleAdminChanged",
      "type": "event"
    },
    {
      "anonymous": false,
      "inputs": [
        {
          "indexed": true,
          "internalType": "bytes32",
          "name": "role",
          "type": "bytes32"
        },
        {
          "indexed": true,
          "internalType": "address",
          "name": "account",
          "type": "address"
        },
        {
          "indexed": true,
          "internalType": "address",
          "name": "sender",
          "type": "address"
        }
      ],
      "name": "RoleGranted",
      "type": "event"
    },
    {
      "anonymous": false,
      "inputs": [
        {
          "indexed": true,
          "internalType": "bytes32",
          "name": "role",
          "type": "bytes32"
        },
        {
          "indexed": true,
          "internalType": "address",
          "name": "account",
          "type": "address"
        },
        {
          "indexed": true,
          "internalType": "address",
          "name": "sender",
          "type": "address"
        }
      ],
      "name": "RoleRevoked",
      "type": "event"
    },
    {
      "anonymous": false,
      "inputs": [
        {
          "indexed": false,
          "internalType": "uint256",
          "name": "subnetId",
          "type": "uint256"
        },
        {
          "components": [
            {
              "internalType": "uint256",
              "name": "subnetType",
              "type": "uint256"
            },
            {
              "internalType": "bool",
              "name": "sovereignStatus",
              "type": "bool"
            },
            {
              "internalType": "uint256",
              "name": "cloudProviderType",
              "type": "uint256"
            },
            {
              "internalType": "bool",
              "name": "subnetStatusListed",
              "type": "bool"
            },
            {
              "internalType": "uint256[]",
              "name": "unitPrices",
              "type": "uint256[]"
            },
            {
              "internalType": "uint256[]",
              "name": "otherAttributes",
              "type": "uint256[]"
            },
            {
              "internalType": "uint256",
              "name": "maxClusters",
              "type": "uint256"
            },
            {
              "internalType": "uint256",
              "name": "supportFeeRate",
              "type": "uint256"
            }
          ],
          "indexed": false,
          "internalType": "struct Registration.SubnetAttributes",
          "name": "subnetAttributes",
          "type": "tuple"
        },
        {
          "indexed": false,
          "internalType": "address",
          "name": "sender",
          "type": "address"
        }
      ],
      "name": "SubnetAttributesChanged",
      "type": "event"
    },
    {
      "anonymous": false,
      "inputs": [
        {
          "indexed": false,
          "internalType": "uint256",
          "name": "subnetId",
          "type": "uint256"
        },
        {
          "indexed": false,
          "internalType": "address",
          "name": "subnetLocalDAO",
          "type": "address"
        },
        {
          "indexed": false,
          "internalType": "uint256",
          "name": "subnetType",
          "type": "uint256"
        },
        {
          "indexed": false,
          "internalType": "bool",
          "name": "sovereignStatus",
          "type": "bool"
        },
        {
          "indexed": false,
          "internalType": "uint256",
          "name": "cloudProviderType",
          "type": "uint256"
        },
        {
          "indexed": false,
          "internalType": "bool",
          "name": "subnetStatusListed",
          "type": "bool"
        },
        {
          "indexed": false,
          "internalType": "uint256[]",
          "name": "unitPrices",
          "type": "uint256[]"
        },
        {
          "indexed": false,
          "internalType": "uint256[]",
          "name": "otherAttributes",
          "type": "uint256[]"
        },
        {
          "indexed": false,
          "internalType": "uint256",
          "name": "maxClusters",
          "type": "uint256"
        },
        {
          "indexed": false,
          "internalType": "address[]",
          "name": "whiteListedClusters",
          "type": "address[]"
        },
        {
          "indexed": false,
          "internalType": "uint256",
          "name": "supportFeeRate",
          "type": "uint256"
        },
        {
          "indexed": false,
          "internalType": "address",
          "name": "sender",
          "type": "address"
        }
      ],
      "name": "SubnetCreated",
      "type": "event"
    },
    {
      "anonymous": false,
      "inputs": [
        {
          "indexed": false,
          "internalType": "uint256",
          "name": "subnetId",
          "type": "uint256"
        },
        {
          "indexed": false,
          "internalType": "uint256",
          "name": "clusterId",
          "type": "uint256"
        },
        {
          "indexed": false,
          "internalType": "address",
          "name": "sender",
          "type": "address"
        },
        {
          "indexed": false,
          "internalType": "address",
          "name": "newOwner",
          "type": "address"
        }
      ],
      "name": "TransferredClusterDAOOwnership",
      "type": "event"
    },
    {
      "anonymous": false,
      "inputs": [
        {
          "indexed": false,
          "internalType": "address",
          "name": "account",
          "type": "address"
        }
      ],
      "name": "Unpaused",
      "type": "event"
    },
    {
      "anonymous": false,
      "inputs": [
        {
          "indexed": false,
          "internalType": "uint256[]",
          "name": "nftIds",
          "type": "uint256[]"
        }
      ],
      "name": "WithdrawnNFTs",
      "type": "event"
    },
    {
      "inputs": [],
      "name": "CLUSTER_LIST_ROLE",
      "outputs": [
        {
          "internalType": "bytes32",
          "name": "",
          "type": "bytes32"
        }
      ],
      "stateMutability": "view",
      "type": "function"
    },
    {
      "inputs": [],
      "name": "COOLDOWN_ROLE",
      "outputs": [
        {
          "internalType": "bytes32",
          "name": "",
          "type": "bytes32"
        }
      ],
      "stateMutability": "view",
      "type": "function"
    },
    {
      "inputs": [],
      "name": "DEFAULT_ADMIN_ROLE",
      "outputs": [
        {
          "internalType": "bytes32",
          "name": "",
          "type": "bytes32"
        }
      ],
      "stateMutability": "view",
      "type": "function"
    },
    {
      "inputs": [],
      "name": "GLOBAL_DAO_ADDRESS",
      "outputs": [
        {
          "internalType": "address",
          "name": "",
          "type": "address"
        }
      ],
      "stateMutability": "view",
      "type": "function"
    },
    {
      "inputs": [],
      "name": "PAUSER_ROLE",
      "outputs": [
        {
          "internalType": "bytes32",
          "name": "",
          "type": "bytes32"
        }
      ],
      "stateMutability": "view",
      "type": "function"
    },
    {
      "inputs": [],
      "name": "PRICE_ROLE",
      "outputs": [
        {
          "internalType": "bytes32",
          "name": "",
          "type": "bytes32"
        }
      ],
      "stateMutability": "view",
      "type": "function"
    },
    {
      "inputs": [],
      "name": "SUBNET_ATTR_ROLE",
      "outputs": [
        {
          "internalType": "bytes32",
          "name": "",
          "type": "bytes32"
        }
      ],
      "stateMutability": "view",
      "type": "function"
    },
    {
      "inputs": [],
      "name": "WHITELIST_ROLE",
      "outputs": [
        {
          "internalType": "bytes32",
          "name": "",
          "type": "bytes32"
        }
      ],
      "stateMutability": "view",
      "type": "function"
    },
    {
      "inputs": [
        {
          "internalType": "uint256",
          "name": "subnetId",
          "type": "uint256"
        },
        {
          "internalType": "address[]",
          "name": "_whitelistAddresses",
          "type": "address[]"
        }
      ],
      "name": "addClusterToWhitelisted",
      "outputs": [],
      "stateMutability": "nonpayable",
      "type": "function"
    },
    {
      "inputs": [
        {
          "internalType": "uint256",
          "name": "subnetId",
          "type": "uint256"
        }
      ],
      "name": "applyChangedClusterPrice",
      "outputs": [],
      "stateMutability": "nonpayable",
      "type": "function"
    },
    {
      "inputs": [
        {
          "internalType": "uint256",
          "name": "_coolDownTimeSecs",
          "type": "uint256"
        }
      ],
      "name": "changeCoolDownTime",
      "outputs": [],
      "stateMutability": "nonpayable",
      "type": "function"
    },
    {
      "inputs": [
        {
          "internalType": "uint256",
          "name": "_daoRate",
          "type": "uint256"
        }
      ],
      "name": "changeDAORate",
      "outputs": [],
      "stateMutability": "nonpayable",
      "type": "function"
    },
    {
      "inputs": [
        {
          "internalType": "uint256",
          "name": "subnetId",
          "type": "uint256"
        },
        {
          "internalType": "uint256",
          "name": "clusterId",
          "type": "uint256"
        },
        {
          "internalType": "string",
          "name": "newDNSIP",
          "type": "string"
        }
      ],
      "name": "changeDNSIP",
      "outputs": [],
      "stateMutability": "nonpayable",
      "type": "function"
    },
    {
      "inputs": [
        {
          "internalType": "uint256",
          "name": "subnetId",
          "type": "uint256"
        },
        {
          "internalType": "uint256",
          "name": "clusterId",
          "type": "uint256"
        },
        {
          "internalType": "bool",
          "name": "_allow",
          "type": "bool"
        }
      ],
      "name": "changeListingCluster",
      "outputs": [],
      "stateMutability": "nonpayable",
      "type": "function"
    },
    {
      "inputs": [
        {
          "internalType": "contract IERC721Upgradeable",
          "name": "_DarkMatterNFT",
          "type": "address"
        }
      ],
      "name": "changeNFT",
      "outputs": [],
      "stateMutability": "nonpayable",
      "type": "function"
    },
    {
      "inputs": [
        {
          "internalType": "uint256",
          "name": "subnetId",
          "type": "uint256"
        },
        {
          "internalType": "uint256",
          "name": "_attributeNo",
          "type": "uint256"
        },
        {
          "internalType": "uint256",
          "name": "_subnetType",
          "type": "uint256"
        },
        {
          "internalType": "bool",
          "name": "_sovereignStatus",
          "type": "bool"
        },
        {
          "internalType": "uint256",
          "name": "_cloudProviderType",
          "type": "uint256"
        },
        {
          "internalType": "bool",
          "name": "_subnetStatusListed",
          "type": "bool"
        },
        {
          "internalType": "uint256[]",
          "name": "_otherAttributes",
          "type": "uint256[]"
        },
        {
          "internalType": "uint256",
          "name": "_maxClusters",
          "type": "uint256"
        },
        {
          "internalType": "uint256",
          "name": "_supportFeeRate",
          "type": "uint256"
        }
      ],
      "name": "changeSubnetAttributes",
      "outputs": [],
      "stateMutability": "nonpayable",
      "type": "function"
    },
    {
      "inputs": [
        {
          "internalType": "uint256",
          "name": "subnetId",
          "type": "uint256"
        },
        {
          "internalType": "string",
          "name": "_DNSIP",
          "type": "string"
        },
        {
          "internalType": "address",
          "name": "_clusterDAO",
          "type": "address"
        },
        {
          "internalType": "uint256",
          "name": "nftId",
          "type": "uint256"
        }
      ],
      "name": "clusterSignUp",
      "outputs": [],
      "stateMutability": "nonpayable",
      "type": "function"
    },
    {
      "inputs": [],
      "name": "coolDownTimeForPriceChange",
      "outputs": [
        {
          "internalType": "uint256",
          "name": "",
          "type": "uint256"
        }
      ],
      "stateMutability": "view",
      "type": "function"
    },
    {
      "inputs": [
        {
          "internalType": "uint256",
          "name": "nftId",
          "type": "uint256"
        },
        {
          "internalType": "address",
          "name": "_subnetLocalDAO",
          "type": "address"
        },
        {
          "internalType": "uint256",
          "name": "_subnetType",
          "type": "uint256"
        },
        {
          "internalType": "bool",
          "name": "_sovereignStatus",
          "type": "bool"
        },
        {
          "internalType": "uint256",
          "name": "_cloudProviderType",
          "type": "uint256"
        },
        {
          "internalType": "bool",
          "name": "_subnetStatusListed",
          "type": "bool"
        },
        {
          "internalType": "uint256[]",
          "name": "_unitPrices",
          "type": "uint256[]"
        },
        {
          "internalType": "uint256[]",
          "name": "_otherAttributes",
          "type": "uint256[]"
        },
        {
          "internalType": "uint256",
          "name": "_maxClusters",
          "type": "uint256"
        },
        {
          "internalType": "address[]",
          "name": "_whiteListedClusters",
          "type": "address[]"
        },
        {
          "internalType": "uint256",
          "name": "_supportFeeRate",
          "type": "uint256"
        }
      ],
      "name": "createSubnet",
      "outputs": [],
      "stateMutability": "nonpayable",
      "type": "function"
    },
    {
      "inputs": [],
      "name": "daoRate",
      "outputs": [
        {
          "internalType": "uint256",
          "name": "",
          "type": "uint256"
        }
      ],
      "stateMutability": "view",
      "type": "function"
    },
    {
      "inputs": [
        {
          "internalType": "uint256",
          "name": "_subnetId",
          "type": "uint256"
        },
        {
          "internalType": "uint256",
          "name": "_clusterId",
          "type": "uint256"
        }
      ],
      "name": "getClusterAttributes",
      "outputs": [
        {
          "internalType": "address",
          "name": "",
          "type": "address"
        },
        {
          "internalType": "string",
          "name": "",
          "type": "string"
        },
        {
          "internalType": "bool",
          "name": "",
          "type": "bool"
        }
      ],
      "stateMutability": "view",
      "type": "function"
    },
    {
      "inputs": [
        {
          "internalType": "bytes32",
          "name": "role",
          "type": "bytes32"
        }
      ],
      "name": "getRoleAdmin",
      "outputs": [
        {
          "internalType": "bytes32",
          "name": "",
          "type": "bytes32"
        }
      ],
      "stateMutability": "view",
      "type": "function"
    },
    {
      "inputs": [
        {
          "internalType": "uint256",
          "name": "subnetId",
          "type": "uint256"
        }
      ],
      "name": "getSubnetAttributes",
      "outputs": [
        {
          "internalType": "uint256",
          "name": "",
          "type": "uint256"
        },
        {
          "internalType": "bool",
          "name": "",
          "type": "bool"
        },
        {
          "internalType": "uint256",
          "name": "",
          "type": "uint256"
        },
        {
          "internalType": "bool",
          "name": "",
          "type": "bool"
        },
        {
          "internalType": "uint256[]",
          "name": "",
          "type": "uint256[]"
        },
        {
          "internalType": "uint256[]",
          "name": "",
          "type": "uint256[]"
        },
        {
          "internalType": "uint256",
          "name": "",
          "type": "uint256"
        },
        {
          "internalType": "uint256",
          "name": "",
          "type": "uint256"
        }
      ],
      "stateMutability": "view",
      "type": "function"
    },
    {
      "inputs": [
        {
          "internalType": "bytes32",
          "name": "role",
          "type": "bytes32"
        },
        {
          "internalType": "address",
          "name": "account",
          "type": "address"
        }
      ],
      "name": "grantRole",
      "outputs": [],
      "stateMutability": "nonpayable",
      "type": "function"
    },
    {
      "inputs": [
        {
          "internalType": "bytes32",
          "name": "role",
          "type": "bytes32"
        },
        {
          "internalType": "address",
          "name": "account",
          "type": "address"
        }
      ],
      "name": "hasRole",
      "outputs": [
        {
          "internalType": "bool",
          "name": "",
          "type": "bool"
        }
      ],
      "stateMutability": "view",
      "type": "function"
    },
    {
      "inputs": [
        {
          "internalType": "contract IERC721Upgradeable",
          "name": "_DarkMatterNFT",
          "type": "address"
        },
        {
          "internalType": "address",
          "name": "_GlobalDAO",
          "type": "address"
        },
        {
          "internalType": "uint256",
          "name": "_coolDownTimeForPriceChange",
          "type": "uint256"
        },
        {
          "internalType": "uint256",
          "name": "_daoRate",
          "type": "uint256"
        }
      ],
      "name": "initialize",
      "outputs": [],
      "stateMutability": "nonpayable",
      "type": "function"
    },
    {
      "inputs": [
        {
          "internalType": "address",
          "name": "_operator",
          "type": "address"
        },
        {
          "internalType": "address",
          "name": "_from",
          "type": "address"
        },
        {
          "internalType": "uint256",
          "name": "_id",
          "type": "uint256"
        },
        {
          "internalType": "bytes",
          "name": "_data",
          "type": "bytes"
        }
      ],
      "name": "onERC721Received",
      "outputs": [
        {
          "internalType": "bytes4",
          "name": "",
          "type": "bytes4"
        }
      ],
      "stateMutability": "nonpayable",
      "type": "function"
    },
    {
      "inputs": [],
      "name": "pause",
      "outputs": [],
      "stateMutability": "nonpayable",
      "type": "function"
    },
    {
      "inputs": [],
      "name": "paused",
      "outputs": [
        {
          "internalType": "bool",
          "name": "",
          "type": "bool"
        }
      ],
      "stateMutability": "view",
      "type": "function"
    },
    {
      "inputs": [
        {
          "internalType": "contract IERC1155Upgradeable",
          "name": "token",
          "type": "address"
        },
        {
          "internalType": "uint256",
          "name": "tokenId",
          "type": "uint256"
        },
        {
          "internalType": "uint256",
          "name": "amount",
          "type": "uint256"
        }
      ],
      "name": "recoverERC1155",
      "outputs": [],
      "stateMutability": "nonpayable",
      "type": "function"
    },
    {
      "inputs": [
        {
          "internalType": "contract IERC721Upgradeable",
          "name": "token",
          "type": "address"
        },
        {
          "internalType": "uint256",
          "name": "tokenId",
          "type": "uint256"
        }
      ],
      "name": "recoverERC721",
      "outputs": [],
      "stateMutability": "nonpayable",
      "type": "function"
    },
    {
      "inputs": [
        {
          "internalType": "uint256",
          "name": "amount",
          "type": "uint256"
        }
      ],
      "name": "recoverETH",
      "outputs": [],
      "stateMutability": "nonpayable",
      "type": "function"
    },
    {
      "inputs": [
        {
          "internalType": "contract IERC20Upgradeable",
          "name": "token",
          "type": "address"
        }
      ],
      "name": "recoverTokens",
      "outputs": [],
      "stateMutability": "nonpayable",
      "type": "function"
    },
    {
      "inputs": [
        {
          "internalType": "uint256",
          "name": "subnetId",
          "type": "uint256"
        },
        {
          "internalType": "address",
          "name": "_blacklistAddress",
          "type": "address"
        },
        {
          "internalType": "uint256",
          "name": "_index",
          "type": "uint256"
        }
      ],
      "name": "removeClusterFromWhitelisted",
      "outputs": [],
      "stateMutability": "nonpayable",
      "type": "function"
    },
    {
      "inputs": [
        {
          "internalType": "bytes32",
          "name": "role",
          "type": "bytes32"
        },
        {
          "internalType": "address",
          "name": "account",
          "type": "address"
        }
      ],
      "name": "renounceRole",
      "outputs": [],
      "stateMutability": "nonpayable",
      "type": "function"
    },
    {
      "inputs": [
        {
          "internalType": "uint256",
          "name": "subnetId",
          "type": "uint256"
        },
        {
          "internalType": "uint256[]",
          "name": "_unitPrices",
          "type": "uint256[]"
        }
      ],
      "name": "requestClusterPriceChange",
      "outputs": [],
      "stateMutability": "nonpayable",
      "type": "function"
    },
    {
      "inputs": [
        {
          "internalType": "uint256",
          "name": "subnetId",
          "type": "uint256"
        }
      ],
      "name": "resetWhitelistClusters",
      "outputs": [],
      "stateMutability": "nonpayable",
      "type": "function"
    },
    {
      "inputs": [
        {
          "internalType": "bytes32",
          "name": "role",
          "type": "bytes32"
        },
        {
          "internalType": "address",
          "name": "account",
          "type": "address"
        }
      ],
      "name": "revokeRole",
      "outputs": [],
      "stateMutability": "nonpayable",
      "type": "function"
    },
    {
      "inputs": [
        {
          "internalType": "uint256",
          "name": "",
          "type": "uint256"
        }
      ],
      "name": "subnetAttributes",
      "outputs": [
        {
          "internalType": "uint256",
          "name": "subnetType",
          "type": "uint256"
        },
        {
          "internalType": "bool",
          "name": "sovereignStatus",
          "type": "bool"
        },
        {
          "internalType": "uint256",
          "name": "cloudProviderType",
          "type": "uint256"
        },
        {
          "internalType": "bool",
          "name": "subnetStatusListed",
          "type": "bool"
        },
        {
          "internalType": "uint256",
          "name": "maxClusters",
          "type": "uint256"
        },
        {
          "internalType": "uint256",
          "name": "supportFeeRate",
          "type": "uint256"
        }
      ],
      "stateMutability": "view",
      "type": "function"
    },
    {
      "inputs": [
        {
          "internalType": "uint256",
          "name": "",
          "type": "uint256"
        },
        {
          "internalType": "uint256",
          "name": "",
          "type": "uint256"
        }
      ],
      "name": "subnetClusters",
      "outputs": [
        {
          "internalType": "address",
          "name": "ClusterDAO",
          "type": "address"
        },
        {
          "internalType": "string",
          "name": "DNSIP",
          "type": "string"
        },
        {
          "internalType": "bool",
          "name": "listed",
          "type": "bool"
        }
      ],
      "stateMutability": "view",
      "type": "function"
    },
    {
      "inputs": [
        {
          "internalType": "uint256",
          "name": "",
          "type": "uint256"
        }
      ],
      "name": "subnetLocalDAO",
      "outputs": [
        {
          "internalType": "address",
          "name": "",
          "type": "address"
        }
      ],
      "stateMutability": "view",
      "type": "function"
    },
    {
      "inputs": [
        {
          "internalType": "bytes4",
          "name": "interfaceId",
          "type": "bytes4"
        }
      ],
      "name": "supportsInterface",
      "outputs": [
        {
          "internalType": "bool",
          "name": "",
          "type": "bool"
        }
      ],
      "stateMutability": "view",
      "type": "function"
    },
    {
      "inputs": [
        {
          "internalType": "uint256",
          "name": "subnetId",
          "type": "uint256"
        }
      ],
      "name": "totalClusterSpotsAvailable",
      "outputs": [
        {
          "internalType": "uint256",
          "name": "",
          "type": "uint256"
        }
      ],
      "stateMutability": "view",
      "type": "function"
    },
    {
      "inputs": [
        {
          "internalType": "uint256",
          "name": "",
          "type": "uint256"
        }
      ],
      "name": "totalClustersSigned",
      "outputs": [
        {
          "internalType": "uint256",
          "name": "",
          "type": "uint256"
        }
      ],
      "stateMutability": "view",
      "type": "function"
    },
    {
      "inputs": [],
      "name": "totalSubnets",
      "outputs": [
        {
          "internalType": "uint256",
          "name": "",
          "type": "uint256"
        }
      ],
      "stateMutability": "view",
      "type": "function"
    },
    {
      "inputs": [
        {
          "internalType": "uint256",
          "name": "subnetId",
          "type": "uint256"
        },
        {
          "internalType": "uint256",
          "name": "clusterId",
          "type": "uint256"
        },
        {
          "internalType": "address",
          "name": "_newOwner",
          "type": "address"
        }
      ],
      "name": "transferClusterDAOOwnership",
      "outputs": [],
      "stateMutability": "nonpayable",
      "type": "function"
    },
    {
      "inputs": [],
      "name": "unpause",
      "outputs": [],
      "stateMutability": "nonpayable",
      "type": "function"
    },
    {
      "inputs": [
        {
          "internalType": "uint256",
          "name": "",
          "type": "uint256"
        },
        {
          "internalType": "uint256",
          "name": "",
          "type": "uint256"
        }
      ],
      "name": "whiteListedClusters",
      "outputs": [
        {
          "internalType": "address",
          "name": "",
          "type": "address"
        }
      ],
      "stateMutability": "view",
      "type": "function"
    },
    {
      "inputs": [
        {
          "internalType": "uint256[]",
          "name": "_nftIds",
          "type": "uint256[]"
        }
      ],
      "name": "withdrawNFT",
      "outputs": [],
      "stateMutability": "nonpayable",
      "type": "function"
    }
  ],
  "bytecode": "0x608060405234801561001057600080fd5b50613ab5806100206000396000f3fe608060405234801561001057600080fd5b50600436106102bb5760003560e01c8063819d4cc611610182578063a5130a4b116100e9578063cf6393b8116100a2578063e63ab1e91161007c578063e63ab1e91461072b578063eb990c5914610740578063f829a7ec14610753578063fb91758a14610766576102bb565b8063cf6393b8146106fc578063d333555314610705578063d547741f14610718576102bb565b8063a5130a4b1461068a578063a907dded1461069d578063aca7207a146106b0578063c0cdc645146106c3578063cbaa1d9b146106d6578063ceb7fa4b146106e9576102bb565b806394f7ec711161013b57806394f7ec711461062d5780639830a5c5146106405780639cbf076214610653578063a217fddf14610666578063a23b00df1461066e578063a2b6715814610681576102bb565b8063819d4cc6146105a557806383f59ac6146105b85780638456cb59146105cb57806384cb7f4f146105d35780638ccf724b146105f357806391d148541461061a576102bb565b80634b0b3dc711610226578063719eaefc116101df578063719eaefc146104e557806372bbb5fe146104ee57806373d97f391461050157806379fed2eb146105285780637a997ab7146105695780637cf4c3b71461057e576102bb565b80634b0b3dc7146104075780635c2b146f1461041a5780635c975abb1461042d5780636067945f1461043857806360b5f7561461045a5780636b88fab4146104d2576102bb565b806320054db21161027857806320054db214610390578063248a9ca3146103a35780632f2ff15d146103c657806336568abe146103d95780633f4ba83a146103ec57806343f0d0e7146103f4576102bb565b806301ffc9a7146102c0578063080bf636146102e857806308498586146102fd578063142d92c514610310578063150b7a021461034557806316114acd1461037d575b600080fd5b6102d36102ce366004612eec565b61078d565b60405190151581526020015b60405180910390f35b6102fb6102f6366004613192565b6107c6565b005b6102fb61030b366004613212565b610ab0565b6103377fc45069b141f83fdb9a15de03a5d47e65750f13669a7d610468dde2a64542857281565b6040519081526020016102df565b610364610353366004612dbc565b630a85bd0160e11b95945050505050565b6040516001600160e01b031990911681526020016102df565b6102fb61038b366004612f48565b610bd1565b6102fb61039e366004612fec565b610c6e565b6103376103b1366004612ea5565b60009081526065602052604090206001015490565b6102fb6103d4366004612ebd565b610ede565b6102fb6103e7366004612ebd565b610f08565b6102fb610f82565b6102fb6104023660046132c5565b610fa5565b6102fb610415366004612e56565b611130565b6102fb610428366004612ea5565b611221565b60975460ff166102d3565b61044b6104463660046131f1565b611335565b6040516102df939291906134e5565b6104a3610468366004612ea5565b60cd60205260009081526040902080546001820154600283015460038401546006850154600790950154939460ff9384169492939091169186565b6040805196875294151560208701529385019290925215156060840152608083015260a082015260c0016102df565b6102fb6104e036600461324a565b6113f8565b61033760d35481565b6103376104fc366004612ea5565b611535565b61051461050f366004612ea5565b6115c8565b6040516102df989796959493929190613751565b610551610536366004612ea5565b60ce602052600090815260409020546001600160a01b031681565b6040516001600160a01b0390911681526020016102df565b610337600080516020613a4083398151915281565b6103377f515cb9a6faf5ac018717b314df173fdbfa087f4f7981dfa1b108db1f00015d1981565b6102fb6105b3366004612fa9565b611769565b60ca54610551906001600160a01b031681565b6102fb6117db565b6103376105e1366004612ea5565b60d16020526000908152604090205481565b6103377f65c28dd45c4ff9294e0a087620aaf7cd9ce5fbe1aacb5d391aec529164025bd081565b6102d3610628366004612ebd565b6117fb565b61055161063b3660046131f1565b611826565b6102fb61064e366004613112565b61185e565b6102fb610661366004613277565b6119c4565b610337600081565b61044b61067c3660046131f1565b611ab9565b61033760d05481565b6102fb610698366004613157565b611b8e565b6102fb6106ab366004612f48565b611c12565b6102fb6106be366004612ea5565b611c6b565b6102fb6106d1366004612ea5565b611cca565b6102fb6106e4366004612f14565b611d17565b6102fb6106f7366004612ea5565b611dae565b61033760cb5481565b6102fb610713366004612ea5565b611e94565b6102fb610726366004612ebd565b611ecc565b610337600080516020613a6083398151915281565b6102fb61074e366004612f64565b611ef1565b6102fb610761366004613023565b612090565b6103377fd4656a873938c6a54143cf99a88af3386da566bdef9cba62b37bbb4b88969b2d81565b60006001600160e01b03198216637965db0b60e01b14806107be57506301ffc9a760e01b6001600160e01b03198316145b90505b919050565b60975460ff16156107f25760405162461bcd60e51b81526004016107e99061359e565b60405180910390fd5b600084815260cd602052604090206001015460ff16156108af57604080516020808201909252600081528451918501919091207fc5d2460186f7233c927e7db2dcc703c0e500b653ca82273b7bfad8045d85a47014156108ad5760405162461bcd60e51b815260206004820152603060248201527f444e532f49502063616e6e6f7420626520656d70747920666f72206e6f6e207360448201526f6f7665726569676e207375626e65747360801b60648201526084016107e9565b505b60006108ba85611535565b1161091f5760405162461bcd60e51b815260206004820152602f60248201527f4e6f2073706f747320617661696c61626c652c206d6178536c6f74732072656160448201526e18da195908199bdc881cdd589b995d608a1b60648201526084016107e9565b60c9546001600160a01b03166323b872dd3330846040518463ffffffff1660e01b8152600401610951939291906134c1565b600060405180830381600087803b15801561096b57600080fd5b505af115801561097f573d6000803e3d6000fd5b505050600085815260d1602090815260408083205460d283528184208185528352922080546001600160a01b0319166001600160a01b03871617815586519293506109d292600190910191870190612b04565b50600085815260d2602090815260408083208484528252808320600201805460ff1916600190811790915588845260d190925290912054610a1291612337565b600086815260d160205260409020557f9fb9ac4c6d9a62f6befa9ce65c92f896aeb8c8abea750a82bc01b12cdc85c0cd8582868633604051610a5895949392919061386f565b60405180910390a16040805133815260208101879052908101829052606081018390527f1015cbdf9c2e7decb331210c6daaa13e038656ae7309ee8a7a05178180011155906080015b60405180910390a15050505050565b60975460ff1615610ad35760405162461bcd60e51b81526004016107e99061359e565b600083815260d2602090815260408083208584529091529020546001600160a01b03163314610b3c5760405162461bcd60e51b81526020600482015260156024820152742737ba103a34329031b63ab9ba32b91037bbb732b960591b60448201526064016107e9565b600083815260d260209081526040808320858452909152902080546001600160a01b0319166001600160a01b0383161790557f781b079fc079d37024e79662c9a159bec216bc0fa98c48a5d0f9e44a02d85a1b8383610b983390565b6040805193845260208401929092526001600160a01b0390811691830191909152831660608201526080015b60405180910390a1505050565b6000610bdc8161234a565b6040516370a0823160e01b8152306004820152610c6a9033906001600160a01b038516906370a082319060240160206040518083038186803b158015610c2157600080fd5b505afa158015610c35573d6000803e3d6000fd5b505050506040513d601f19601f82011682018060405250810190610c599190612fd4565b6001600160a01b0385169190612354565b5050565b600083815260cf6020526040902080546001600160a01b038416919083908110610ca857634e487b7160e01b600052603260045260246000fd5b6000918252602090912001546001600160a01b031614610d1a5760405162461bcd60e51b815260206004820152602760248201527f4164647265737320646f6e6f74206d61746368207769746820696e64657820706044820152661c9bdd9a59195960ca1b60648201526084016107e9565b610d32600080516020613a4083398151915233610628565b80610d535750600083815260ce60205260409020546001600160a01b031633145b610d6f5760405162461bcd60e51b81526004016107e990613541565b805b600084815260cf6020526040902054610d8c9060019061393c565b811015610e4c57600084815260cf60205260409020610dac826001613905565b81548110610dca57634e487b7160e01b600052603260045260246000fd5b600091825260208083209091015486835260cf909152604090912080546001600160a01b039092169183908110610e1157634e487b7160e01b600052603260045260246000fd5b600091825260209091200180546001600160a01b0319166001600160a01b039290921691909117905580610e44816139d5565b915050610d71565b50600083815260cf60205260409020805480610e7857634e487b7160e01b600052603160045260246000fd5b600082815260209020810160001990810180546001600160a01b03191690550190556040517f061b5b655cfeaf344bc505d25124654c45ca9b9d781c11dc81a6222a4169850b90610bc490859085909182526001600160a01b0316602082015260400190565b600082815260656020526040902060010154610ef98161234a565b610f0383836123a6565b505050565b6001600160a01b0381163314610f785760405162461bcd60e51b815260206004820152602f60248201527f416363657373436f6e74726f6c3a2063616e206f6e6c792072656e6f756e636560448201526e103937b632b9903337b91039b2b63360891b60648201526084016107e9565b610c6a828261242c565b600080516020613a60833981519152610f9a8161234a565b610fa2612493565b50565b7f515cb9a6faf5ac018717b314df173fdbfa087f4f7981dfa1b108db1f00015d19610fcf8161234a565b8860011415610fee5760008a815260cd602052604090208890556110da565b88600214156110195760008a815260cd60205260409020600101805460ff19168815151790556110da565b886003141561103b5760008a815260cd602052604090206002018690556110da565b88600414156110665760008a815260cd60205260409020600301805460ff19168615151790556110da565b886005141561109a5760008a815260cd60209081526040909120855161109492600590920191870190612b88565b506110da565b88600614156110bc5760008a815260cd602052604090206006018390556110da565b88600714156110da5760008a815260cd602052604090206007018290555b60008a815260cd602052604090207f57c66814818f832694e6dc113e0ad31cf600102ce659086f76d5fc16f7152438908b903360405161111c939291906137ad565b60405180910390a150505050505050505050565b600061113b8161234a565b60005b82518110156111e55760c9546001600160a01b03166323b872dd303386858151811061117a57634e487b7160e01b600052603260045260246000fd5b60200260200101516040518463ffffffff1660e01b81526004016111a0939291906134c1565b600060405180830381600087803b1580156111ba57600080fd5b505af11580156111ce573d6000803e3d6000fd5b5050505080806111dd906139d5565b91505061113e565b507f44f90752d4e829c0ece87e335cabadbe59eae106989e8c33f98cffd4f301c27382604051611215919061351b565b60405180910390a15050565b600080516020613a408339815191526112398161234a565b600082815260cd602052604090205460011461128f5760405162461bcd60e51b8152602060048201526015602482015274105b1c9958591e481c1d589b1a58c81cdd589b995d605a1b60448201526064016107e9565b6112a7600080516020613a4083398151915233610628565b806112c85750600082815260ce60205260409020546001600160a01b031633145b6112e45760405162461bcd60e51b81526004016107e990613541565b600082815260cf6020526040902060608051909161130491608090612bc2565b506040518381527f9e70d79633df959d6b05d1099cfa06b805b55ad2ec5b7482f72b5d3413f5fdb090602001610bc4565b60d2602090815260009283526040808420909152908252902080546001820180546001600160a01b03909216929161136c9061399a565b80601f01602080910402602001604051908101604052809291908181526020018280546113989061399a565b80156113e55780601f106113ba576101008083540402835291602001916113e5565b820191906000526020600020905b8154815290600101906020018083116113c857829003601f168201915b5050506002909301549192505060ff1683565b6114227f65c28dd45c4ff9294e0a087620aaf7cd9ce5fbe1aacb5d391aec529164025bd033610628565b8061144e5750600083815260d2602090815260408083208584529091529020546001600160a01b031633145b6114b75760405162461bcd60e51b815260206004820152603460248201527f53656e646572206973206e6f7420436c7573746572206f776e6572206f722068604482015273617320434c55535445525f4c4953545f524f4c4560601b60648201526084016107e9565b600083815260d2602090815260408083208584529091529020600201805460ff19168215151790557fa1b9ff692cca28003589ba2e08d6d470d2daca1de6e8207ef34bc2d64a05188183836115093390565b6040805193845260208401929092526001600160a01b0316908201528215156060820152608001610bc4565b600081815260d1602052604081205481805b8281101561159357600085815260d26020908152604080832084845290915290206002015460ff166115815761157e826001612337565b91505b8061158b816139d5565b915050611547565b5060006115a08383612526565b600086815260cd60205260409020600601549091506115bf9082612526565b95945050505050565b600080600080606080600080600089905060cd60008281526020019081526020016000206000015460cd600083815260200190815260200160002060010160009054906101000a900460ff1660cd60008481526020019081526020016000206002015460cd600085815260200190815260200160002060030160009054906101000a900460ff1660cd600086815260200190815260200160002060040160cd600087815260200190815260200160002060050160cd60008881526020019081526020016000206006015460cd600089815260200190815260200160002060070154838054806020026020016040519081016040528092919081815260200182805480156116f457602002820191906000526020600020905b8154815260200190600101908083116116e0575b505050505093508280548060200260200160405190810160405280929190818152602001828054801561174657602002820191906000526020600020905b815481526020019060010190808311611732575b505050505092509850985098509850985098509850985050919395975091939597565b60006117748161234a565b604051632142170760e11b81526001600160a01b038416906342842e0e906117a4903090339087906004016134c1565b600060405180830381600087803b1580156117be57600080fd5b505af11580156117d2573d6000803e3d6000fd5b50505050505050565b600080516020613a608339815191526117f38161234a565b610fa2612532565b60009182526065602090815260408084206001600160a01b0393909316845291905290205460ff1690565b60cf602052816000526040600020818154811061184257600080fd5b6000918252602090912001546001600160a01b03169150829050565b600082815260cd60205260409020546001146118b45760405162461bcd60e51b8152602060048201526015602482015274105b1c9958591e481c1d589b1a58c81cdd589b995d605a1b60448201526064016107e9565b6118cc600080516020613a4083398151915233610628565b806118ed5750600082815260ce60205260409020546001600160a01b031633145b6119095760405162461bcd60e51b81526004016107e990613541565b60005b815181101561199257600083815260cf60205260409020825183908390811061194557634e487b7160e01b600052603260045260246000fd5b60209081029190910181015182546001810184556000938452919092200180546001600160a01b0319166001600160a01b039092169190911790558061198a816139d5565b91505061190c565b507f796f24f814d152716ce0b8e64483e688c61dca897d5816d74efdc8e0665be4328282604051611215929190613706565b60975460ff16156119e75760405162461bcd60e51b81526004016107e99061359e565b600083815260d2602090815260408083208584529091529020546001600160a01b03163314611a585760405162461bcd60e51b815260206004820152601b60248201527f53656e646572206973206e6f7420436c7573746572206f776e6572000000000060448201526064016107e9565b600083815260d26020908152604080832085845282529091208251611a8592600190920191840190612b04565b507fe24e4bfe4f4c3361921b5d9ef1eac8f9a55d09ae3d9699c51d1a668ede2c8319838383604051610bc493929190613850565b600082815260d2602090815260408083208484529091528120805460028201546001909201805460609385936001600160a01b0316929160ff909116908290611b019061399a565b80601f0160208091040260200160405190810160405280929190818152602001828054611b2d9061399a565b8015611b7a5780601f10611b4f57610100808354040283529160200191611b7a565b820191906000526020600020905b815481529060010190602001808311611b5d57829003601f168201915b505050505091509250925092509250925092565b7fd4656a873938c6a54143cf99a88af3386da566bdef9cba62b37bbb4b88969b2d611bb88161234a565b600083815260cc602090815260409091204281558351611be092600190920191850190612b88565b507fe313790d329011b4379172e25d9354b5de88eb0f7bc3053f5ab0b366d3cda3b88383604051610bc492919061371f565b6000611c1d8161234a565b60c980546001600160a01b0319166001600160a01b0384169081179091556040519081527f0509ed52799171e23f5c37dfa66db8e0dadb499373ec7eb90b79a6a6ffe7230490602001611215565b7fc45069b141f83fdb9a15de03a5d47e65750f13669a7d610468dde2a645428572611c958161234a565b60d38290556040518281527fd62325d508fc47cbcfee1d1874e8629885af65954ba2d26dccfe1381131a45ca90602001611215565b6000611cd58161234a565b60cb5460408051918252602082018490527f6a4a5332747a0ff452432b251176f864b3aa17df85cb50c22af972b67f2d60d4910160405180910390a15060cb55565b6000611d228161234a565b604051637921219560e11b8152306004820152336024820152604481018490526064810183905260a06084820152600260a482015261060f60f31b60c48201526001600160a01b0385169063f242432a9060e401600060405180830381600087803b158015611d9057600080fd5b505af1158015611da4573d6000803e3d6000fd5b5050505050505050565b60d354600082815260cc6020526040902054611dc991612337565b4211611e175760405162461bcd60e51b815260206004820152601a60248201527f436f6f6c646f776e2074696d65206e6f74206f7665722079657400000000000060448201526064016107e9565b600081815260cc6020908152604080832060cd90925290912060019091018054611e45926004019190612c17565b50600081815260cc60205260409081902090517f0f127d0a7e6bc1ce0fc731fa40740bf251d03b41e462bc93a8cac4c175b8b0f391611e8991849160010190613738565b60405180910390a150565b6000611e9f8161234a565b604051339083156108fc029084906000818181858888f19350505050158015610f03573d6000803e3d6000fd5b600082815260656020526040902060010154611ee78161234a565b610f03838361242c565b6000611efd600161258a565b90508015611f15576000805461ff0019166101001790555b611f1d61260f565b611f25612638565b611f306000856123a6565b611f5a7f65c28dd45c4ff9294e0a087620aaf7cd9ce5fbe1aacb5d391aec529164025bd0856123a6565b611f847f515cb9a6faf5ac018717b314df173fdbfa087f4f7981dfa1b108db1f00015d19856123a6565b611fae7fc45069b141f83fdb9a15de03a5d47e65750f13669a7d610468dde2a645428572856123a6565b611fd87fd4656a873938c6a54143cf99a88af3386da566bdef9cba62b37bbb4b88969b2d856123a6565b611ff0600080516020613a40833981519152856123a6565b612008600080516020613a60833981519152856123a6565b60ca80546001600160a01b038087166001600160a01b03199283161790925560c9805492881692909116919091179055600060d05560d383905560cb8290558015612089576000805461ff0019169055604051600181527f7f26b83ff96e1f2b6a682f133852f6798a09c465da95921460cefb384740249890602001610aa1565b5050505050565b60975460ff16156120b35760405162461bcd60e51b81526004016107e99061359e565b60c9546001600160a01b03166323b872dd33308e6040518463ffffffff1660e01b81526004016120e5939291906134c1565b600060405180830381600087803b1580156120ff57600080fd5b505af1158015612113573d6000803e3d6000fd5b505050508960ce600060d054815260200190815260200160002060006101000a8154816001600160a01b0302191690836001600160a01b0316021790555061219d6040518061010001604052806000815260200160001515815260200160008152602001600015158152602001606081526020016060815260200160008152602001600081525090565b898152881515602080830191825260408084018b81528a151560608601908152608086018b815260a087018b905260c087018a905260e0870188905260d054600090815260cd86529390932086518155945160018601805491151560ff19928316179055915160028601555160038501805491151591909216179055518051849392612230926004850192910190612b88565b5060a0820151805161224c916005840191602090910190612b88565b5060c0820151600682015560e09091015160079091015560d0546040517f77af7902a265b103397c3ab45783b3c73fc3760441db2c66c080e355662c2986916122aa918e908e908e908e908e908e908e908e908e908e903390613661565b60405180910390a160d0546040805133815260208101929092528181018e9052517f1e8ca4c189ee24e9a00297282e66ae881c6e3788821b188c51d335cbafd9416a9181900360600190a160d054600090815260cf60209081526040909120845161231792860190612bc2565b5060d054612326906001612337565b60d055505050505050505050505050565b60006123438284613905565b9392505050565b610fa2813361266b565b604080516001600160a01b038416602482015260448082018490528251808303909101815260649091019091526020810180516001600160e01b031663a9059cbb60e01b179052610f039084906126cf565b6123b082826117fb565b610c6a5760008281526065602090815260408083206001600160a01b03851684529091529020805460ff191660011790556123e83390565b6001600160a01b0316816001600160a01b0316837f2f8788117e7eff1d82e926ec794901d17c78024a50270940304540a733656f0d60405160405180910390a45050565b61243682826117fb565b15610c6a5760008281526065602090815260408083206001600160a01b0385168085529252808320805460ff1916905551339285917ff6391f5c32d9c69d2a47ea670b442974b53935d1edc7fd64eb21e047a839171b9190a45050565b60975460ff166124dc5760405162461bcd60e51b815260206004820152601460248201527314185d5cd8589b194e881b9bdd081c185d5cd95960621b60448201526064016107e9565b6097805460ff191690557f5db9ee0a495bf2e6ff9c91a7834c1ba4fdd244a5e8aa4e537bd38aeae4b073aa335b6040516001600160a01b03909116815260200160405180910390a1565b6000612343828461393c565b60975460ff16156125555760405162461bcd60e51b81526004016107e99061359e565b6097805460ff191660011790557f62e78cea01bee320cd4e420270b5ea74000d11b0c9f74754ebdbfc544b05a2586125093390565b60008054610100900460ff16156125d1578160ff1660011480156125ad5750303b155b6125c95760405162461bcd60e51b81526004016107e9906135c8565b5060006107c1565b60005460ff8084169116106125f85760405162461bcd60e51b81526004016107e9906135c8565b506000805460ff191660ff831617905560016107c1565b600054610100900460ff166126365760405162461bcd60e51b81526004016107e990613616565b565b600054610100900460ff1661265f5760405162461bcd60e51b81526004016107e990613616565b6097805460ff19169055565b61267582826117fb565b610c6a5761268d816001600160a01b031660146127a1565b6126988360206127a1565b6040516020016126a992919061344c565b60408051601f198184030181529082905262461bcd60e51b82526107e99160040161352e565b6000612724826040518060400160405280602081526020017f5361666545524332303a206c6f772d6c6576656c2063616c6c206661696c6564815250856001600160a01b03166129839092919063ffffffff16565b805190915015610f0357808060200190518101906127429190612e89565b610f035760405162461bcd60e51b815260206004820152602a60248201527f5361666545524332303a204552433230206f7065726174696f6e20646964206e6044820152691bdd081cdd58d8d9595960b21b60648201526084016107e9565b606060006127b083600261391d565b6127bb906002613905565b67ffffffffffffffff8111156127e157634e487b7160e01b600052604160045260246000fd5b6040519080825280601f01601f19166020018201604052801561280b576020820181803683370190505b509050600360fc1b8160008151811061283457634e487b7160e01b600052603260045260246000fd5b60200101906001600160f81b031916908160001a905350600f60fb1b8160018151811061287157634e487b7160e01b600052603260045260246000fd5b60200101906001600160f81b031916908160001a905350600061289584600261391d565b6128a0906001613905565b90505b6001811115612934576f181899199a1a9b1b9c1cb0b131b232b360811b85600f16601081106128e257634e487b7160e01b600052603260045260246000fd5b1a60f81b82828151811061290657634e487b7160e01b600052603260045260246000fd5b60200101906001600160f81b031916908160001a90535060049490941c9361292d81613983565b90506128a3565b5083156123435760405162461bcd60e51b815260206004820181905260248201527f537472696e67733a20686578206c656e67746820696e73756666696369656e7460448201526064016107e9565b6060612992848460008561299a565b949350505050565b6060824710156129fb5760405162461bcd60e51b815260206004820152602660248201527f416464726573733a20696e73756666696369656e742062616c616e636520666f6044820152651c8818d85b1b60d21b60648201526084016107e9565b6001600160a01b0385163b612a525760405162461bcd60e51b815260206004820152601d60248201527f416464726573733a2063616c6c20746f206e6f6e2d636f6e747261637400000060448201526064016107e9565b600080866001600160a01b03168587604051612a6e9190613430565b60006040518083038185875af1925050503d8060008114612aab576040519150601f19603f3d011682016040523d82523d6000602084013e612ab0565b606091505b5091509150612ac0828286612acb565b979650505050505050565b60608315612ada575081612343565b825115612aea5782518084602001fd5b8160405162461bcd60e51b81526004016107e9919061352e565b828054612b109061399a565b90600052602060002090601f016020900481019282612b325760008555612b78565b82601f10612b4b57805160ff1916838001178555612b78565b82800160010185558215612b78579182015b82811115612b78578251825591602001919060010190612b5d565b50612b84929150612c57565b5090565b828054828255906000526020600020908101928215612b785791602002820182811115612b78578251825591602001919060010190612b5d565b828054828255906000526020600020908101928215612b78579160200282015b82811115612b7857825182546001600160a01b0319166001600160a01b03909116178255602090920191600190910190612be2565b828054828255906000526020600020908101928215612b785760005260206000209182015b82811115612b78578254825591600101919060010190612c3c565b5b80821115612b845760008155600101612c58565b80356107c181613a1c565b600082601f830112612c87578081fd5b81356020612c9c612c97836138e1565b6138b0565b8281528181019085830183850287018401881015612cb8578586fd5b855b85811015612cdf578135612ccd81613a1c565b84529284019290840190600101612cba565b5090979650505050505050565b600082601f830112612cfc578081fd5b81356020612d0c612c97836138e1565b8281528181019085830183850287018401881015612d28578586fd5b855b85811015612cdf57813584529284019290840190600101612d2a565b80356107c181613a31565b600082601f830112612d61578081fd5b813567ffffffffffffffff811115612d7b57612d7b613a06565b612d8e601f8201601f19166020016138b0565b818152846020838601011115612da2578283fd5b816020850160208301379081016020019190915292915050565b600080600080600060808688031215612dd3578081fd5b8535612dde81613a1c565b94506020860135612dee81613a1c565b935060408601359250606086013567ffffffffffffffff80821115612e11578283fd5b818801915088601f830112612e24578283fd5b813581811115612e32578384fd5b896020828501011115612e43578384fd5b9699959850939650602001949392505050565b600060208284031215612e67578081fd5b813567ffffffffffffffff811115612e7d578182fd5b61299284828501612cec565b600060208284031215612e9a578081fd5b815161234381613a31565b600060208284031215612eb6578081fd5b5035919050565b60008060408385031215612ecf578182fd5b823591506020830135612ee181613a1c565b809150509250929050565b600060208284031215612efd578081fd5b81356001600160e01b031981168114612343578182fd5b600080600060608486031215612f28578283fd5b8335612f3381613a1c565b95602085013595506040909401359392505050565b600060208284031215612f59578081fd5b813561234381613a1c565b60008060008060808587031215612f79578182fd5b8435612f8481613a1c565b93506020850135612f9481613a1c565b93969395505050506040820135916060013590565b60008060408385031215612fbb578182fd5b8235612fc681613a1c565b946020939093013593505050565b600060208284031215612fe5578081fd5b5051919050565b600080600060608486031215613000578081fd5b83359250602084013561301281613a1c565b929592945050506040919091013590565b60008060008060008060008060008060006101608c8e031215613044578889fd5b8b359a5061305460208d01612c6c565b995060408c0135985061306960608d01612d46565b975060808c0135965061307e60a08d01612d46565b955067ffffffffffffffff8060c08e01351115613099578586fd5b6130a98e60c08f01358f01612cec565b95508060e08e013511156130bb578485fd5b6130cb8e60e08f01358f01612cec565b94506101008d01359350806101208e013511156130e6578283fd5b506130f88d6101208e01358e01612c77565b91506101408c013590509295989b509295989b9093969950565b60008060408385031215613124578182fd5b82359150602083013567ffffffffffffffff811115613141578182fd5b61314d85828601612c77565b9150509250929050565b60008060408385031215613169578182fd5b82359150602083013567ffffffffffffffff811115613186578182fd5b61314d85828601612cec565b600080600080608085870312156131a7578182fd5b84359350602085013567ffffffffffffffff8111156131c4578283fd5b6131d087828801612d51565b93505060408501356131e181613a1c565b9396929550929360600135925050565b60008060408385031215613203578182fd5b50508035926020909101359150565b600080600060608486031215613226578081fd5b8335925060208401359150604084013561323f81613a1c565b809150509250925092565b60008060006060848603121561325e578081fd5b8335925060208401359150604084013561323f81613a31565b60008060006060848603121561328b578081fd5b8335925060208401359150604084013567ffffffffffffffff8111156132af578182fd5b6132bb86828701612d51565b9150509250925092565b60008060008060008060008060006101208a8c0312156132e3578283fd5b8935985060208a0135975060408a0135965060608a013561330381613a31565b955060808a0135945060a08a013561331a81613a31565b935060c08a013567ffffffffffffffff811115613335578384fd5b6133418c828d01612cec565b93505060e08a013591506101008a013590509295985092959850929598565b6000815180845260208085019450808401835b838110156133985781516001600160a01b031687529582019590820190600101613373565b509495945050505050565b6000815180845260208085019450808401835b83811015613398578151875295820195908201906001016133b6565b6000815480845260208085019450838352808320835b83811015613398578154875295820195600191820191016133e8565b6000815180845261341c816020860160208601613953565b601f01601f19169290920160200192915050565b60008251613442818460208701613953565b9190910192915050565b60007f416363657373436f6e74726f6c3a206163636f756e742000000000000000000082528351613484816017850160208801613953565b7001034b99036b4b9b9b4b733903937b6329607d1b60179184019182015283516134b5816028840160208801613953565b01602801949350505050565b6001600160a01b039384168152919092166020820152604081019190915260600190565b6001600160a01b038416815260606020820181905260009061350990830185613404565b90508215156040830152949350505050565b60006020825261234360208301846133a3565b6000602082526123436020830184613404565b6020808252603f908201527f4f6e6c792057484954454c4953545f524f4c45206f72204c6f63616c2044414f60408201527f2063616e20656469742077686974656c69737465642061646472657373657300606082015260800190565b60208082526010908201526f14185d5cd8589b194e881c185d5cd95960821b604082015260600190565b6020808252602e908201527f496e697469616c697a61626c653a20636f6e747261637420697320616c72656160408201526d191e481a5b9a5d1a585b1a5e995960921b606082015260800190565b6020808252602b908201527f496e697469616c697a61626c653a20636f6e7472616374206973206e6f74206960408201526a6e697469616c697a696e6760a81b606082015260800190565b60006101808e835260018060a01b038e1660208401528c60408401528b151560608401528a608084015289151560a08401528060c08401526136a58184018a6133a3565b905082810360e08401526136b981896133a3565b9050866101008401528281036101208401526136d58187613360565b915050836101408301526136f56101608301846001600160a01b03169052565b9d9c50505050505050505050505050565b6000838252604060208301526129926040830184613360565b60008382526040602083015261299260408301846133a3565b60008382526040602083015261299260408301846133d2565b60006101008a835289151560208401528860408401528715156060840152806080840152613781818401886133a3565b905082810360a084015261379581876133a3565b60c0840195909552505060e001529695505050505050565b600084825260606020830152835460608301526137ce600185015460ff1690565b15156080830152600284015460a0830152600384015460ff16151560c083015261010060e083018190526138096101608401600487016133d2565b838103605f19018285015261382181600588016133d2565b600687015461012086015260078701546101408601526001600160a01b03861660408601529250612992915050565b6000848252836020830152606060408301526115bf6060830184613404565b600086825285602083015260a0604083015261388e60a0830186613404565b6001600160a01b03948516606084015292909316608090910152949350505050565b604051601f8201601f1916810167ffffffffffffffff811182821017156138d9576138d9613a06565b604052919050565b600067ffffffffffffffff8211156138fb576138fb613a06565b5060209081020190565b60008219821115613918576139186139f0565b500190565b6000816000190483118215151615613937576139376139f0565b500290565b60008282101561394e5761394e6139f0565b500390565b60005b8381101561396e578181015183820152602001613956565b8381111561397d576000848401525b50505050565b600081613992576139926139f0565b506000190190565b6002810460018216806139ae57607f821691505b602082108114156139cf57634e487b7160e01b600052602260045260246000fd5b50919050565b60006000198214156139e9576139e96139f0565b5060010190565b634e487b7160e01b600052601160045260246000fd5b634e487b7160e01b600052604160045260246000fd5b6001600160a01b0381168114610fa257600080fd5b8015158114610fa257600080fdfedc72ed553f2544c34465af23b847953efeb813428162d767f9ba5f4013be676065d7a28e3265b37a6474929f336521b332c1681b933f6cb9f3376673440d862aa2646970667358221220e7ea61ec71976033f295b84aac7cc2e9c3f36e44a4ddd98313a1be0ac50c642464736f6c63430008020033",
  "linkReferences": {},
  "deployedLinkReferences": {}
}