{
  "_format": "hh-sol-artifact-1",
  "contractName": "Registration",
  "sourceName": "contracts/Registration.sol",
  "abi": [
    {
      "anonymous": false,
      "inputs": [
        {
          "indexed": false,
          "internalType": "uint256",
          "name": "subnetId",
          "type": "uint256"
        },
        {
          "indexed": false,
          "internalType": "address[]",
          "name": "whitelistAddresses",
          "type": "address[]"
        }
      ],
      "name": "AddedToWhitelistCluster",
      "type": "event"
    },
    {
      "anonymous": false,
      "inputs": [
        {
          "indexed": false,
          "internalType": "uint256",
          "name": "subnetId",
          "type": "uint256"
        },
        {
          "indexed": false,
          "internalType": "uint256[]",
          "name": "unitPrices",
          "type": "uint256[]"
        }
      ],
      "name": "AppliedChangedClusterPrice",
      "type": "event"
    },
    {
      "anonymous": false,
      "inputs": [
        {
          "indexed": false,
          "internalType": "uint256",
          "name": "coolDownTimeSecs",
          "type": "uint256"
        }
      ],
      "name": "ChangedCoolDownForPriceChange",
      "type": "event"
    },
    {
      "anonymous": false,
      "inputs": [
        {
          "indexed": false,
          "internalType": "uint256",
          "name": "subnetId",
          "type": "uint256"
        },
        {
          "indexed": false,
          "internalType": "uint256",
          "name": "clusterId",
          "type": "uint256"
        },
        {
          "indexed": false,
          "internalType": "string",
          "name": "newDNSIP",
          "type": "string"
        }
      ],
      "name": "ChangedDNSIP",
      "type": "event"
    },
    {
      "anonymous": false,
      "inputs": [
        {
          "indexed": false,
          "internalType": "uint256",
          "name": "subnetId",
          "type": "uint256"
        },
        {
          "indexed": false,
          "internalType": "uint256",
          "name": "clusterId",
          "type": "uint256"
        },
        {
          "indexed": false,
          "internalType": "address",
          "name": "sender",
          "type": "address"
        },
        {
          "indexed": false,
          "internalType": "uint8",
          "name": "allowStatus",
          "type": "uint8"
        }
      ],
      "name": "ChangedListingCluster",
      "type": "event"
    },
    {
      "anonymous": false,
      "inputs": [
        {
          "indexed": false,
          "internalType": "address",
          "name": "DarkMatterNFT",
          "type": "address"
        }
      ],
      "name": "ChangedNFTAddress",
      "type": "event"
    },
    {
      "anonymous": false,
      "inputs": [
        {
          "indexed": false,
          "internalType": "uint256",
          "name": "subnetId",
          "type": "uint256"
        },
        {
          "indexed": false,
          "internalType": "uint256",
          "name": "clusterId",
          "type": "uint256"
        },
        {
          "indexed": false,
          "internalType": "string",
          "name": "DNS_IP",
          "type": "string"
        },
        {
          "indexed": false,
          "internalType": "address",
          "name": "clusterDAO",
          "type": "address"
        },
        {
          "indexed": false,
          "internalType": "address",
          "name": "sender",
          "type": "address"
        }
      ],
      "name": "ClusterSignedUp",
      "type": "event"
    },
    {
      "anonymous": false,
      "inputs": [
        {
          "indexed": false,
          "internalType": "uint256",
          "name": "daoRate",
          "type": "uint256"
        },
        {
          "indexed": false,
          "internalType": "uint256",
          "name": "_daoRate",
          "type": "uint256"
        }
      ],
      "name": "DAORateChanged",
      "type": "event"
    },
    {
      "anonymous": false,
      "inputs": [
        {
          "indexed": false,
          "internalType": "uint8",
          "name": "version",
          "type": "uint8"
        }
      ],
      "name": "Initialized",
      "type": "event"
    },
    {
      "anonymous": false,
      "inputs": [
        {
          "indexed": false,
          "internalType": "address",
          "name": "userAddress",
          "type": "address"
        },
        {
          "indexed": false,
          "internalType": "uint256",
          "name": "subnetId",
          "type": "uint256"
        },
        {
          "indexed": false,
          "internalType": "uint256",
          "name": "clusterId",
          "type": "uint256"
        },
        {
          "indexed": false,
          "internalType": "uint256",
          "name": "nftID",
          "type": "uint256"
        }
      ],
      "name": "NFTLockedForCluster",
      "type": "event"
    },
    {
      "anonymous": false,
      "inputs": [
        {
          "indexed": false,
          "internalType": "address",
          "name": "userAddress",
          "type": "address"
        },
        {
          "indexed": false,
          "internalType": "uint256",
          "name": "subnetId",
          "type": "uint256"
        },
        {
          "indexed": false,
          "internalType": "uint256",
          "name": "nftID",
          "type": "uint256"
        }
      ],
      "name": "NFTLockedForSubnet",
      "type": "event"
    },
    {
      "anonymous": false,
      "inputs": [
        {
          "indexed": false,
          "internalType": "address",
          "name": "account",
          "type": "address"
        }
      ],
      "name": "Paused",
      "type": "event"
    },
    {
      "anonymous": false,
      "inputs": [
        {
          "indexed": false,
          "internalType": "uint256",
          "name": "subnetId",
          "type": "uint256"
        },
        {
          "indexed": false,
          "internalType": "address",
          "name": "blacklistAddress",
          "type": "address"
        }
      ],
      "name": "RemovedWhitelistCluster",
      "type": "event"
    },
    {
      "anonymous": false,
      "inputs": [
        {
          "indexed": false,
          "internalType": "uint256",
          "name": "subnetId",
          "type": "uint256"
        },
        {
          "indexed": false,
          "internalType": "uint256[]",
          "name": "unitPrices",
          "type": "uint256[]"
        }
      ],
      "name": "RequestedClusterPriceChange",
      "type": "event"
    },
    {
      "anonymous": false,
      "inputs": [
        {
          "indexed": false,
          "internalType": "uint256",
          "name": "subnetId",
          "type": "uint256"
        }
      ],
      "name": "ResetWhitelistCluster",
      "type": "event"
    },
    {
      "anonymous": false,
      "inputs": [
        {
          "indexed": true,
          "internalType": "bytes32",
          "name": "role",
          "type": "bytes32"
        },
        {
          "indexed": true,
          "internalType": "bytes32",
          "name": "previousAdminRole",
          "type": "bytes32"
        },
        {
          "indexed": true,
          "internalType": "bytes32",
          "name": "newAdminRole",
          "type": "bytes32"
        }
      ],
      "name": "RoleAdminChanged",
      "type": "event"
    },
    {
      "anonymous": false,
      "inputs": [
        {
          "indexed": true,
          "internalType": "bytes32",
          "name": "role",
          "type": "bytes32"
        },
        {
          "indexed": true,
          "internalType": "address",
          "name": "account",
          "type": "address"
        },
        {
          "indexed": true,
          "internalType": "address",
          "name": "sender",
          "type": "address"
        }
      ],
      "name": "RoleGranted",
      "type": "event"
    },
    {
      "anonymous": false,
      "inputs": [
        {
          "indexed": true,
          "internalType": "bytes32",
          "name": "role",
          "type": "bytes32"
        },
        {
          "indexed": true,
          "internalType": "address",
          "name": "account",
          "type": "address"
        },
        {
          "indexed": true,
          "internalType": "address",
          "name": "sender",
          "type": "address"
        }
      ],
      "name": "RoleRevoked",
      "type": "event"
    },
    {
      "anonymous": false,
      "inputs": [
        {
          "indexed": false,
          "internalType": "uint256",
          "name": "subnetId",
          "type": "uint256"
        },
        {
          "components": [
            {
              "internalType": "uint256",
              "name": "subnetType",
              "type": "uint256"
            },
            {
              "internalType": "bool",
              "name": "sovereignStatus",
              "type": "bool"
            },
            {
              "internalType": "uint256",
              "name": "cloudProviderType",
              "type": "uint256"
            },
            {
              "internalType": "bool",
              "name": "subnetStatusListed",
              "type": "bool"
            },
            {
              "internalType": "uint256[]",
              "name": "unitPrices",
              "type": "uint256[]"
            },
            {
              "internalType": "uint256[]",
              "name": "otherAttributes",
              "type": "uint256[]"
            },
            {
              "internalType": "uint256",
              "name": "maxClusters",
              "type": "uint256"
            },
            {
              "internalType": "uint256",
              "name": "supportFeeRate",
              "type": "uint256"
            },
            {
              "internalType": "uint256",
              "name": "stackFeesReqd",
              "type": "uint256"
            },
            {
              "internalType": "contract IERC721Upgradeable",
              "name": "DarkMatterNFTType",
              "type": "address"
            }
          ],
          "indexed": false,
          "internalType": "struct Registration.SubnetAttributes",
          "name": "subnetAttributes",
          "type": "tuple"
        },
        {
          "indexed": false,
          "internalType": "address",
          "name": "sender",
          "type": "address"
        }
      ],
      "name": "SubnetAttributesChanged",
      "type": "event"
    },
    {
      "anonymous": false,
      "inputs": [
        {
          "indexed": false,
          "internalType": "uint256",
          "name": "subnetId",
          "type": "uint256"
        },
        {
          "indexed": false,
          "internalType": "address",
          "name": "subnetLocalDAO",
          "type": "address"
        },
        {
          "indexed": false,
          "internalType": "uint256",
          "name": "subnetType",
          "type": "uint256"
        },
        {
          "indexed": false,
          "internalType": "bool",
          "name": "sovereignStatus",
          "type": "bool"
        },
        {
          "indexed": false,
          "internalType": "uint256",
          "name": "cloudProviderType",
          "type": "uint256"
        },
        {
          "indexed": false,
          "internalType": "bool",
          "name": "subnetStatusListed",
          "type": "bool"
        },
        {
          "indexed": false,
          "internalType": "uint256[]",
          "name": "unitPrices",
          "type": "uint256[]"
        },
        {
          "indexed": false,
          "internalType": "uint256[]",
          "name": "otherAttributes",
          "type": "uint256[]"
        },
        {
          "indexed": false,
          "internalType": "uint256",
          "name": "maxClusters",
          "type": "uint256"
        },
        {
          "indexed": false,
          "internalType": "address[]",
          "name": "whiteListedClusters",
          "type": "address[]"
        },
        {
          "indexed": false,
          "internalType": "uint256",
          "name": "supportFeeRate",
          "type": "uint256"
        },
        {
          "indexed": false,
          "internalType": "address",
          "name": "sender",
          "type": "address"
        },
        {
          "indexed": false,
          "internalType": "uint256",
          "name": "stackFeesReqd",
          "type": "uint256"
        }
      ],
      "name": "SubnetCreated",
      "type": "event"
    },
    {
      "anonymous": false,
      "inputs": [
        {
          "indexed": false,
          "internalType": "uint256",
          "name": "subnetId",
          "type": "uint256"
        },
        {
          "indexed": false,
          "internalType": "uint256",
          "name": "clusterId",
          "type": "uint256"
        },
        {
          "indexed": false,
          "internalType": "address",
          "name": "sender",
          "type": "address"
        },
        {
          "indexed": false,
          "internalType": "address",
          "name": "newOwner",
          "type": "address"
        }
      ],
      "name": "TransferredClusterDAOOwnership",
      "type": "event"
    },
    {
      "anonymous": false,
      "inputs": [
        {
          "indexed": false,
          "internalType": "address",
          "name": "account",
          "type": "address"
        }
      ],
      "name": "Unpaused",
      "type": "event"
    },
    {
      "anonymous": false,
      "inputs": [
        {
          "indexed": false,
          "internalType": "uint256",
          "name": "subnetId",
          "type": "uint256"
        },
        {
          "indexed": false,
          "internalType": "uint256",
          "name": "clusterId",
          "type": "uint256"
        },
        {
          "indexed": false,
          "internalType": "address",
          "name": "sender",
          "type": "address"
        },
        {
          "indexed": false,
          "internalType": "uint256",
          "name": "NFTid",
          "type": "uint256"
        }
      ],
      "name": "WithdrawnNFTFromCluster",
      "type": "event"
    },
    {
      "anonymous": false,
      "inputs": [
        {
          "indexed": false,
          "internalType": "uint256[]",
          "name": "nftIds",
          "type": "uint256[]"
        }
      ],
      "name": "WithdrawnNFTs",
      "type": "event"
    },
    {
      "anonymous": false,
      "inputs": [
        {
          "indexed": false,
          "internalType": "uint256",
          "name": "subnetId",
          "type": "uint256"
        },
        {
          "indexed": false,
          "internalType": "uint256",
          "name": "clusterId",
          "type": "uint256"
        },
        {
          "indexed": false,
          "internalType": "address",
          "name": "sender",
          "type": "address"
        },
        {
          "indexed": false,
          "internalType": "uint256",
          "name": "stackTokens",
          "type": "uint256"
        }
      ],
      "name": "WithdrawnStackFromCluster",
      "type": "event"
    },
    {
      "anonymous": false,
      "inputs": [
        {
          "indexed": false,
          "internalType": "uint256",
          "name": "subnetId",
          "type": "uint256"
        },
        {
          "indexed": false,
          "internalType": "uint256",
          "name": "clusterId",
          "type": "uint256"
        },
        {
          "indexed": false,
          "internalType": "address",
          "name": "sender",
          "type": "address"
        },
        {
          "indexed": false,
          "internalType": "uint256",
          "name": "amount",
          "type": "uint256"
        }
      ],
      "name": "WithdrawnStackFromClusterByDAO",
      "type": "event"
    },
    {
      "inputs": [],
      "name": "CLUSTER_LIST_ROLE",
      "outputs": [
        {
          "internalType": "bytes32",
          "name": "",
          "type": "bytes32"
        }
      ],
      "stateMutability": "view",
      "type": "function"
    },
    {
      "inputs": [],
      "name": "COOLDOWN_ROLE",
      "outputs": [
        {
          "internalType": "bytes32",
          "name": "",
          "type": "bytes32"
        }
      ],
      "stateMutability": "view",
      "type": "function"
    },
    {
      "inputs": [],
      "name": "DEFAULT_ADMIN_ROLE",
      "outputs": [
        {
          "internalType": "bytes32",
          "name": "",
          "type": "bytes32"
        }
      ],
      "stateMutability": "view",
      "type": "function"
    },
    {
      "inputs": [],
      "name": "DarkMatterNFT",
      "outputs": [
        {
          "internalType": "contract IERC721Upgradeable",
          "name": "",
          "type": "address"
        }
      ],
      "stateMutability": "view",
      "type": "function"
    },
    {
      "inputs": [],
      "name": "DefaultWhitelistedClusterWeight",
      "outputs": [
        {
          "internalType": "uint256",
          "name": "",
          "type": "uint256"
        }
      ],
      "stateMutability": "view",
      "type": "function"
    },
    {
      "inputs": [],
      "name": "GLOBAL_DAO_ADDRESS",
      "outputs": [
        {
          "internalType": "address",
          "name": "",
          "type": "address"
        }
      ],
      "stateMutability": "view",
      "type": "function"
    },
    {
      "inputs": [],
      "name": "PAUSER_ROLE",
      "outputs": [
        {
          "internalType": "bytes32",
          "name": "",
          "type": "bytes32"
        }
      ],
      "stateMutability": "view",
      "type": "function"
    },
    {
      "inputs": [],
      "name": "PRICE_ROLE",
      "outputs": [
        {
          "internalType": "bytes32",
          "name": "",
          "type": "bytes32"
        }
      ],
      "stateMutability": "view",
      "type": "function"
    },
    {
      "inputs": [],
      "name": "REQD_STACK_FEES_FOR_SUBNET",
      "outputs": [
        {
          "internalType": "uint256",
          "name": "",
          "type": "uint256"
        }
      ],
      "stateMutability": "view",
      "type": "function"
    },
    {
      "inputs": [],
      "name": "SUBNET_ATTR_ROLE",
      "outputs": [
        {
          "internalType": "bytes32",
          "name": "",
          "type": "bytes32"
        }
      ],
      "stateMutability": "view",
      "type": "function"
    },
    {
      "inputs": [],
      "name": "StackToken",
      "outputs": [
        {
          "internalType": "contract IERC20Upgradeable",
          "name": "",
          "type": "address"
        }
      ],
      "stateMutability": "view",
      "type": "function"
    },
    {
      "inputs": [],
      "name": "SubnetDAODistributor",
      "outputs": [
        {
          "internalType": "contract ISubnetDAODistributor",
          "name": "",
          "type": "address"
        }
      ],
      "stateMutability": "view",
      "type": "function"
    },
    {
      "inputs": [],
      "name": "WHITELIST_ROLE",
      "outputs": [
        {
          "internalType": "bytes32",
          "name": "",
          "type": "bytes32"
        }
      ],
      "stateMutability": "view",
      "type": "function"
    },
    {
      "inputs": [],
      "name": "WITHDRAW_STACK_ROLE",
      "outputs": [
        {
          "internalType": "bytes32",
          "name": "",
          "type": "bytes32"
        }
      ],
      "stateMutability": "view",
      "type": "function"
    },
    {
      "inputs": [
        {
          "internalType": "address",
          "name": "_NFTTypes",
          "type": "address"
        },
        {
          "internalType": "bool",
          "name": "allow",
          "type": "bool"
        }
      ],
      "name": "addApprovedDarkMatterNFTTypes",
      "outputs": [],
      "stateMutability": "nonpayable",
      "type": "function"
    },
    {
      "inputs": [
        {
          "internalType": "uint256",
          "name": "subnetId",
          "type": "uint256"
        },
        {
          "internalType": "address[]",
          "name": "_whitelistAddresses",
          "type": "address[]"
        }
      ],
      "name": "addClusterToWhitelisted",
      "outputs": [],
      "stateMutability": "nonpayable",
      "type": "function"
    },
    {
      "inputs": [
        {
          "internalType": "uint256",
          "name": "subnetId",
          "type": "uint256"
        }
      ],
      "name": "applyChangedClusterPrice",
      "outputs": [],
      "stateMutability": "nonpayable",
      "type": "function"
    },
    {
      "inputs": [
        {
          "internalType": "uint256",
          "name": "subnetId",
          "type": "uint256"
        },
        {
          "internalType": "uint256",
          "name": "clusterId",
          "type": "uint256"
        },
        {
          "internalType": "uint256",
          "name": "_weight",
          "type": "uint256"
        }
      ],
      "name": "approveListingCluster",
      "outputs": [],
      "stateMutability": "nonpayable",
      "type": "function"
    },
    {
      "inputs": [
        {
          "internalType": "address",
          "name": "",
          "type": "address"
        }
      ],
      "name": "approvedDarkMatterNFTTypes",
      "outputs": [
        {
          "internalType": "bool",
          "name": "",
          "type": "bool"
        }
      ],
      "stateMutability": "view",
      "type": "function"
    },
    {
      "inputs": [
        {
          "internalType": "address",
          "name": "",
          "type": "address"
        }
      ],
      "name": "balanceOfStackLocked",
      "outputs": [
        {
          "internalType": "uint256",
          "name": "",
          "type": "uint256"
        }
      ],
      "stateMutability": "view",
      "type": "function"
    },
    {
      "inputs": [
        {
          "internalType": "uint256",
          "name": "_coolDownTimeSecs",
          "type": "uint256"
        }
      ],
      "name": "changeCoolDownTime",
      "outputs": [],
      "stateMutability": "nonpayable",
      "type": "function"
    },
    {
      "inputs": [
        {
          "internalType": "uint256",
          "name": "subnetId",
          "type": "uint256"
        },
        {
          "internalType": "uint256",
          "name": "clusterId",
          "type": "uint256"
        },
        {
          "internalType": "string",
          "name": "newDNSIP",
          "type": "string"
        }
      ],
      "name": "changeDNSIP",
      "outputs": [],
      "stateMutability": "nonpayable",
      "type": "function"
    },
    {
      "inputs": [
        {
          "internalType": "contract IERC721Upgradeable",
          "name": "_DarkMatterNFT",
          "type": "address"
        }
      ],
      "name": "changeNFT",
      "outputs": [],
      "stateMutability": "nonpayable",
      "type": "function"
    },
    {
      "inputs": [
        {
          "internalType": "uint256",
          "name": "subnetId",
          "type": "uint256"
        },
        {
          "internalType": "uint256",
          "name": "_attributeNo",
          "type": "uint256"
        },
        {
          "internalType": "uint256",
          "name": "_subnetType",
          "type": "uint256"
        },
        {
          "internalType": "bool",
          "name": "_sovereignStatus",
          "type": "bool"
        },
        {
          "internalType": "uint256",
          "name": "_cloudProviderType",
          "type": "uint256"
        },
        {
          "internalType": "bool",
          "name": "_subnetStatusListed",
          "type": "bool"
        },
        {
          "internalType": "uint256[]",
          "name": "_otherAttributes",
          "type": "uint256[]"
        },
        {
          "internalType": "uint256",
          "name": "_maxClusters",
          "type": "uint256"
        },
        {
          "internalType": "uint256",
          "name": "_supportFeeRate",
          "type": "uint256"
        },
        {
          "internalType": "uint256",
          "name": "_stackFeesReqd",
          "type": "uint256"
        },
        {
          "internalType": "contract IERC721Upgradeable",
          "name": "_DarkMatterNFTType",
          "type": "address"
        }
      ],
      "name": "changeSubnetAttributes",
      "outputs": [],
      "stateMutability": "nonpayable",
      "type": "function"
    },
    {
      "inputs": [
        {
          "internalType": "uint256",
          "name": "_daoRate",
          "type": "uint256"
        }
      ],
      "name": "change_DAORate",
      "outputs": [],
      "stateMutability": "nonpayable",
      "type": "function"
    },
    {
      "inputs": [
        {
          "internalType": "uint256",
          "name": "_REQD_STACK_FEES_FOR_SUBNET",
          "type": "uint256"
        }
      ],
      "name": "change_REQD_STACK_FEES_FOR_SUBNET",
      "outputs": [],
      "stateMutability": "nonpayable",
      "type": "function"
    },
    {
      "inputs": [
        {
          "internalType": "uint256",
          "name": "subnetId",
          "type": "uint256"
        },
        {
          "internalType": "string",
          "name": "_DNSIP",
          "type": "string"
        },
        {
          "internalType": "address",
          "name": "_clusterDAO",
          "type": "address"
        },
        {
          "internalType": "uint256",
          "name": "nftId",
          "type": "uint256"
        }
      ],
      "name": "clusterSignUp",
      "outputs": [],
      "stateMutability": "nonpayable",
      "type": "function"
    },
    {
      "inputs": [],
      "name": "coolDownTimeForPriceChange",
      "outputs": [
        {
          "internalType": "uint256",
          "name": "",
          "type": "uint256"
        }
      ],
      "stateMutability": "view",
      "type": "function"
    },
    {
      "inputs": [
        {
          "internalType": "uint256",
          "name": "nftId",
          "type": "uint256"
        },
        {
          "internalType": "address",
          "name": "_subnetLocalDAO",
          "type": "address"
        },
        {
          "internalType": "uint256",
          "name": "_subnetType",
          "type": "uint256"
        },
        {
          "internalType": "bool",
          "name": "_sovereignStatus",
          "type": "bool"
        },
        {
          "internalType": "uint256",
          "name": "_cloudProviderType",
          "type": "uint256"
        },
        {
          "internalType": "bool",
          "name": "_subnetStatusListed",
          "type": "bool"
        },
        {
          "internalType": "uint256[]",
          "name": "_unitPrices",
          "type": "uint256[]"
        },
        {
          "internalType": "uint256[]",
          "name": "_otherAttributes",
          "type": "uint256[]"
        },
        {
          "internalType": "uint256",
          "name": "_maxClusters",
          "type": "uint256"
        },
        {
          "internalType": "address[]",
          "name": "_whiteListedClusters",
          "type": "address[]"
        },
        {
          "internalType": "uint256",
          "name": "_supportFeeRate",
          "type": "uint256"
        },
        {
          "internalType": "uint256",
          "name": "_stackFeesReqd",
          "type": "uint256"
        }
      ],
      "name": "createSubnet",
      "outputs": [],
      "stateMutability": "nonpayable",
      "type": "function"
    },
    {
      "inputs": [],
      "name": "daoRate",
      "outputs": [
        {
          "internalType": "uint256",
          "name": "",
          "type": "uint256"
        }
      ],
      "stateMutability": "view",
      "type": "function"
    },
    {
      "inputs": [
        {
          "internalType": "uint256",
          "name": "subnetId",
          "type": "uint256"
        },
        {
          "internalType": "uint256",
          "name": "clusterId",
          "type": "uint256"
        }
      ],
      "name": "delistCluster",
      "outputs": [],
      "stateMutability": "nonpayable",
      "type": "function"
    },
    {
      "inputs": [],
      "name": "getAllSubnetAttributes",
      "outputs": [
        {
          "components": [
            {
              "internalType": "uint256",
              "name": "subnetType",
              "type": "uint256"
            },
            {
              "internalType": "bool",
              "name": "sovereignStatus",
              "type": "bool"
            },
            {
              "internalType": "uint256",
              "name": "cloudProviderType",
              "type": "uint256"
            },
            {
              "internalType": "bool",
              "name": "subnetStatusListed",
              "type": "bool"
            },
            {
              "internalType": "uint256[]",
              "name": "unitPrices",
              "type": "uint256[]"
            },
            {
              "internalType": "uint256[]",
              "name": "otherAttributes",
              "type": "uint256[]"
            },
            {
              "internalType": "uint256",
              "name": "maxClusters",
              "type": "uint256"
            },
            {
              "internalType": "uint256",
              "name": "supportFeeRate",
              "type": "uint256"
            },
            {
              "internalType": "uint256",
              "name": "stackFeesReqd",
              "type": "uint256"
            },
            {
              "internalType": "contract IERC721Upgradeable",
              "name": "DarkMatterNFTType",
              "type": "address"
            }
          ],
          "internalType": "struct Registration.SubnetAttributes[]",
          "name": "_subnetAttributesArr",
          "type": "tuple[]"
        }
      ],
      "stateMutability": "view",
      "type": "function"
    },
    {
      "inputs": [
        {
          "internalType": "uint256",
          "name": "_subnetId",
          "type": "uint256"
        },
        {
          "internalType": "uint256",
          "name": "_clusterId",
          "type": "uint256"
        }
      ],
      "name": "getClusterAttributes",
      "outputs": [
        {
          "internalType": "address",
          "name": "",
          "type": "address"
        },
        {
          "internalType": "string",
          "name": "",
          "type": "string"
        },
        {
          "internalType": "uint8",
          "name": "",
          "type": "uint8"
        },
        {
          "internalType": "uint256",
          "name": "",
          "type": "uint256"
        }
      ],
      "stateMutability": "view",
      "type": "function"
    },
    {
      "inputs": [
        {
          "internalType": "bytes32",
          "name": "role",
          "type": "bytes32"
        }
      ],
      "name": "getRoleAdmin",
      "outputs": [
        {
          "internalType": "bytes32",
          "name": "",
          "type": "bytes32"
        }
      ],
      "stateMutability": "view",
      "type": "function"
    },
    {
      "inputs": [
        {
          "internalType": "uint256",
          "name": "subnetId",
          "type": "uint256"
        }
      ],
      "name": "getSubnetAttributes",
      "outputs": [
        {
          "internalType": "uint256",
          "name": "",
          "type": "uint256"
        },
        {
          "internalType": "bool",
          "name": "",
          "type": "bool"
        },
        {
          "internalType": "uint256",
          "name": "",
          "type": "uint256"
        },
        {
          "internalType": "bool",
          "name": "",
          "type": "bool"
        },
        {
          "internalType": "uint256[]",
          "name": "",
          "type": "uint256[]"
        },
        {
          "internalType": "uint256[]",
          "name": "",
          "type": "uint256[]"
        },
        {
          "internalType": "uint256",
          "name": "",
          "type": "uint256"
        },
        {
          "internalType": "uint256",
          "name": "",
          "type": "uint256"
        },
        {
          "internalType": "uint256",
          "name": "",
          "type": "uint256"
        }
      ],
      "stateMutability": "view",
      "type": "function"
    },
    {
      "inputs": [
        {
          "internalType": "bytes32",
          "name": "role",
          "type": "bytes32"
        },
        {
          "internalType": "address",
          "name": "account",
          "type": "address"
        }
      ],
      "name": "grantRole",
      "outputs": [],
      "stateMutability": "nonpayable",
      "type": "function"
    },
    {
      "inputs": [
        {
          "internalType": "uint256",
          "name": "subnetId",
          "type": "uint256"
        },
        {
          "internalType": "address",
          "name": "user",
          "type": "address"
        }
      ],
      "name": "hasPermissionToClusterList",
      "outputs": [
        {
          "internalType": "bool",
          "name": "",
          "type": "bool"
        }
      ],
      "stateMutability": "view",
      "type": "function"
    },
    {
      "inputs": [
        {
          "internalType": "bytes32",
          "name": "role",
          "type": "bytes32"
        },
        {
          "internalType": "address",
          "name": "account",
          "type": "address"
        }
      ],
      "name": "hasRole",
      "outputs": [
        {
          "internalType": "bool",
          "name": "",
          "type": "bool"
        }
      ],
      "stateMutability": "view",
      "type": "function"
    },
    {
      "inputs": [
        {
          "internalType": "contract IERC721Upgradeable",
          "name": "_DarkMatterNFT",
          "type": "address"
        },
        {
          "internalType": "contract IERC20Upgradeable",
          "name": "_StackToken",
          "type": "address"
        },
        {
          "internalType": "address",
          "name": "_GlobalDAO",
          "type": "address"
        },
        {
          "internalType": "uint256",
          "name": "_coolDownTimeForPriceChange",
          "type": "uint256"
        },
        {
          "internalType": "uint256",
          "name": "_daoRate",
          "type": "uint256"
        },
        {
          "internalType": "uint256",
          "name": "_REQD_STACK_FEES_FOR_SUBNET",
          "type": "uint256"
        },
        {
          "internalType": "uint256",
          "name": "_DefaultWhitelistedClusterWeight",
          "type": "uint256"
        }
      ],
      "name": "initialize",
      "outputs": [],
      "stateMutability": "nonpayable",
      "type": "function"
    },
    {
      "inputs": [
        {
          "internalType": "address",
          "name": "_operator",
          "type": "address"
        },
        {
          "internalType": "address",
          "name": "_from",
          "type": "address"
        },
        {
          "internalType": "uint256",
          "name": "_id",
          "type": "uint256"
        },
        {
          "internalType": "bytes",
          "name": "_data",
          "type": "bytes"
        }
      ],
      "name": "onERC721Received",
      "outputs": [
        {
          "internalType": "bytes4",
          "name": "",
          "type": "bytes4"
        }
      ],
      "stateMutability": "nonpayable",
      "type": "function"
    },
    {
      "inputs": [],
      "name": "pause",
      "outputs": [],
      "stateMutability": "nonpayable",
      "type": "function"
    },
    {
      "inputs": [],
      "name": "paused",
      "outputs": [
        {
          "internalType": "bool",
          "name": "",
          "type": "bool"
        }
      ],
      "stateMutability": "view",
      "type": "function"
    },
    {
      "inputs": [
        {
          "internalType": "contract IERC1155Upgradeable",
          "name": "token",
          "type": "address"
        },
        {
          "internalType": "uint256",
          "name": "tokenId",
          "type": "uint256"
        },
        {
          "internalType": "uint256",
          "name": "amount",
          "type": "uint256"
        }
      ],
      "name": "recoverERC1155",
      "outputs": [],
      "stateMutability": "nonpayable",
      "type": "function"
    },
    {
      "inputs": [
        {
          "internalType": "contract IERC721Upgradeable",
          "name": "token",
          "type": "address"
        },
        {
          "internalType": "uint256",
          "name": "tokenId",
          "type": "uint256"
        }
      ],
      "name": "recoverERC721",
      "outputs": [],
      "stateMutability": "nonpayable",
      "type": "function"
    },
    {
      "inputs": [
        {
          "internalType": "uint256",
          "name": "amount",
          "type": "uint256"
        }
      ],
      "name": "recoverETH",
      "outputs": [],
      "stateMutability": "nonpayable",
      "type": "function"
    },
    {
      "inputs": [
        {
          "internalType": "contract IERC20Upgradeable",
          "name": "token",
          "type": "address"
        }
      ],
      "name": "recoverTokens",
      "outputs": [],
      "stateMutability": "nonpayable",
      "type": "function"
    },
    {
      "inputs": [
        {
          "internalType": "uint256",
          "name": "subnetId",
          "type": "uint256"
        },
        {
          "internalType": "address",
          "name": "_blacklistAddress",
          "type": "address"
        },
        {
          "internalType": "uint256",
          "name": "_index",
          "type": "uint256"
        }
      ],
      "name": "removeClusterFromWhitelisted",
      "outputs": [],
      "stateMutability": "nonpayable",
      "type": "function"
    },
    {
      "inputs": [
        {
          "internalType": "bytes32",
          "name": "role",
          "type": "bytes32"
        },
        {
          "internalType": "address",
          "name": "account",
          "type": "address"
        }
      ],
      "name": "renounceRole",
      "outputs": [],
      "stateMutability": "nonpayable",
      "type": "function"
    },
    {
      "inputs": [
        {
          "internalType": "uint256",
          "name": "subnetId",
          "type": "uint256"
        },
        {
          "internalType": "uint256[]",
          "name": "_unitPrices",
          "type": "uint256[]"
        }
      ],
      "name": "requestClusterPriceChange",
      "outputs": [],
      "stateMutability": "nonpayable",
      "type": "function"
    },
    {
      "inputs": [
        {
          "internalType": "uint256",
          "name": "subnetId",
          "type": "uint256"
        }
      ],
      "name": "resetWhitelistClusters",
      "outputs": [],
      "stateMutability": "nonpayable",
      "type": "function"
    },
    {
      "inputs": [
        {
          "internalType": "bytes32",
          "name": "role",
          "type": "bytes32"
        },
        {
          "internalType": "address",
          "name": "account",
          "type": "address"
        }
      ],
      "name": "revokeRole",
      "outputs": [],
      "stateMutability": "nonpayable",
      "type": "function"
    },
    {
      "inputs": [
        {
          "internalType": "contract ISubnetDAODistributor",
          "name": "_SubnetDAODistributor",
          "type": "address"
        }
      ],
      "name": "set_SubnetDAODistributorContract",
      "outputs": [],
      "stateMutability": "nonpayable",
      "type": "function"
    },
    {
      "inputs": [
        {
          "internalType": "uint256",
          "name": "",
          "type": "uint256"
        }
      ],
      "name": "subnetAttributes",
      "outputs": [
        {
          "internalType": "uint256",
          "name": "subnetType",
          "type": "uint256"
        },
        {
          "internalType": "bool",
          "name": "sovereignStatus",
          "type": "bool"
        },
        {
          "internalType": "uint256",
          "name": "cloudProviderType",
          "type": "uint256"
        },
        {
          "internalType": "bool",
          "name": "subnetStatusListed",
          "type": "bool"
        },
        {
          "internalType": "uint256",
          "name": "maxClusters",
          "type": "uint256"
        },
        {
          "internalType": "uint256",
          "name": "supportFeeRate",
          "type": "uint256"
        },
        {
          "internalType": "uint256",
          "name": "stackFeesReqd",
          "type": "uint256"
        },
        {
          "internalType": "contract IERC721Upgradeable",
          "name": "DarkMatterNFTType",
          "type": "address"
        }
      ],
      "stateMutability": "view",
      "type": "function"
    },
    {
      "inputs": [
        {
          "internalType": "uint256",
          "name": "",
          "type": "uint256"
        },
        {
          "internalType": "uint256",
          "name": "",
          "type": "uint256"
        }
      ],
      "name": "subnetClusters",
      "outputs": [
        {
          "internalType": "address",
          "name": "ClusterDAO",
          "type": "address"
        },
        {
          "internalType": "string",
          "name": "DNSIP",
          "type": "string"
        },
        {
          "internalType": "uint8",
          "name": "listed",
          "type": "uint8"
        },
        {
          "internalType": "uint256",
          "name": "NFTidLocked",
          "type": "uint256"
        }
      ],
      "stateMutability": "view",
      "type": "function"
    },
    {
      "inputs": [
        {
          "internalType": "uint256",
          "name": "",
          "type": "uint256"
        }
      ],
      "name": "subnetLocalDAO",
      "outputs": [
        {
          "internalType": "address",
          "name": "",
          "type": "address"
        }
      ],
      "stateMutability": "view",
      "type": "function"
    },
    {
      "inputs": [
        {
          "internalType": "bytes4",
          "name": "interfaceId",
          "type": "bytes4"
        }
      ],
      "name": "supportsInterface",
      "outputs": [
        {
          "internalType": "bool",
          "name": "",
          "type": "bool"
        }
      ],
      "stateMutability": "view",
      "type": "function"
    },
    {
      "inputs": [
        {
          "internalType": "uint256",
          "name": "subnetId",
          "type": "uint256"
        }
      ],
      "name": "totalClusterSpotsAvailable",
      "outputs": [
        {
          "internalType": "uint256",
          "name": "",
          "type": "uint256"
        }
      ],
      "stateMutability": "view",
      "type": "function"
    },
    {
      "inputs": [
        {
          "internalType": "uint256",
          "name": "",
          "type": "uint256"
        }
      ],
      "name": "totalClustersSigned",
      "outputs": [
        {
          "internalType": "uint256",
          "name": "",
          "type": "uint256"
        }
      ],
      "stateMutability": "view",
      "type": "function"
    },
    {
      "inputs": [],
      "name": "totalSubnets",
      "outputs": [
        {
          "internalType": "uint256",
          "name": "",
          "type": "uint256"
        }
      ],
      "stateMutability": "view",
      "type": "function"
    },
    {
      "inputs": [
        {
          "internalType": "uint256",
          "name": "subnetId",
          "type": "uint256"
        },
        {
          "internalType": "uint256",
          "name": "clusterId",
          "type": "uint256"
        },
        {
          "internalType": "address",
          "name": "_newOwner",
          "type": "address"
        }
      ],
      "name": "transferClusterDAOOwnership",
      "outputs": [],
      "stateMutability": "nonpayable",
      "type": "function"
    },
    {
      "inputs": [],
      "name": "unpause",
      "outputs": [],
      "stateMutability": "nonpayable",
      "type": "function"
    },
    {
      "inputs": [
        {
          "internalType": "uint256",
          "name": "",
          "type": "uint256"
        },
        {
          "internalType": "uint256",
          "name": "",
          "type": "uint256"
        }
      ],
      "name": "whiteListedClusters",
      "outputs": [
        {
          "internalType": "address",
          "name": "",
          "type": "address"
        }
      ],
      "stateMutability": "view",
      "type": "function"
    },
    {
      "inputs": [
        {
          "internalType": "uint256",
          "name": "subnetId",
          "type": "uint256"
        },
        {
          "internalType": "uint256",
          "name": "clusterId",
          "type": "uint256"
        }
      ],
      "name": "withdrawClusterForDelistedSubnet",
      "outputs": [],
      "stateMutability": "nonpayable",
      "type": "function"
    },
    {
      "inputs": [
        {
          "internalType": "uint256[]",
          "name": "_nftIds",
          "type": "uint256[]"
        }
      ],
      "name": "withdrawNFT",
      "outputs": [],
      "stateMutability": "nonpayable",
      "type": "function"
    },
    {
      "inputs": [
        {
          "internalType": "uint256",
          "name": "subnetId",
          "type": "uint256"
        },
        {
          "internalType": "uint256",
          "name": "clusterId",
          "type": "uint256"
        },
        {
          "internalType": "uint256",
          "name": "_amount",
          "type": "uint256"
        }
      ],
      "name": "withdrawStackFromClusterByDAO",
      "outputs": [],
      "stateMutability": "nonpayable",
      "type": "function"
    }
  ],
  "bytecode": "0x608060405234801561001057600080fd5b50614c33806100206000396000f3fe608060405234801561001057600080fd5b50600436106103db5760003560e01c80637cf4c3b71161020a578063a907dded11610125578063d547741f116100b8578063eff49d2b11610087578063eff49d2b146109a5578063f8b4ff22146109b8578063fb91758a146109cb578063ffbd8181146109f2578063ffd2f5f814610a05576103db565b8063d547741f14610957578063d8aaee001461096a578063df05f5211461097d578063e63ab1e914610990576103db565b8063cbaa1d9b116100f4578063cbaa1d9b14610915578063ceb7fa4b14610928578063cf6393b81461093b578063d333555314610944576103db565b8063a907dded146108bc578063aca7207a146108cf578063bf8ab0c1146108e2578063c92077bf146108f5576103db565b806394f7ec711161019d578063a217fddf1161016c578063a217fddf14610885578063a23b00df1461088d578063a2b67158146108a0578063a5130a4b146108a9576103db565b806394f7ec71146108255780639830a5c5146108385780639cbf07621461084b578063a1aa492b1461085e576103db565b806384a075e5116101d957806384a075e5146107ca57806384cb7f4f146107dd5780638ccf724b146107fd57806391d1485414610812576103db565b80637cf4c3b714610775578063819d4cc61461079c57806383f59ac6146107af5780638456cb59146107c2576103db565b80633f4ba83a116102fa57806360b5f7561161028d57806373d97f391161025c57806373d97f39146106fc57806379b57c321461072457806379fed2eb146107375780637a997ab714610760576103db565b806360b5f7561461062957806362546237146106cd578063719eaefc146106e057806372bbb5fe146106e9576103db565b806353e775c5116102c957806353e775c5146105df5780635c2b146f146105e85780635c975abb146105fb5780636067945f14610606576103db565b80633f4ba83a1461059e5780634b0b3dc7146105a65780634b6bd2d3146105b95780634d25dbcb146105cc576103db565b806320054db2116103725780632f2ff15d116103415780632f2ff15d1461055a57806336568abe1461056d5780633a430b4f146105805780633a4d22bb14610589576103db565b806320054db2146104e65780632106031f146104f9578063248a9ca3146105245780632b4656c814610547576103db565b8063142d92c5116103ae578063142d92c514610453578063150b7a021461048857806316114acd146104c0578063193d1589146104d3576103db565b806301ffc9a7146103e0578063080bf63614610408578063084985861461041d5780630cf706b814610430575b600080fd5b6103f36103ee366004613eda565b610a18565b60405190151581526020015b60405180910390f35b61041b61041636600461419e565b610a51565b005b61041b61042b36600461421d565b610f4b565b6103f361043e366004613d63565b60cd6020526000908152604090205460ff1681565b61047a7fc45069b141f83fdb9a15de03a5d47e65750f13669a7d610468dde2a64542857281565b6040519081526020016103ff565b6104a7610496366004613d7f565b630a85bd0160e11b95945050505050565b6040516001600160e01b031990911681526020016103ff565b61041b6104ce366004613d63565b61106c565b61041b6104e13660046142a2565b611109565b61041b6104f4366004613fe6565b6112ba565b60c95461050c906001600160a01b031681565b6040516001600160a01b0390911681526020016103ff565b61047a610532366004613e9e565b60009081526065602052604090206001015490565b61041b610555366004613f36565b61152a565b61041b610568366004613eb6565b6116ff565b61041b61057b366004613eb6565b611729565b61047a60cf5481565b6105916117a3565b6040516103ff9190614543565b61041b61191d565b61041b6105b4366004613e50565b611940565b61041b6105c7366004613d63565b611a31565b61041b6105da3660046142cd565b611aa6565b61047a60d05481565b61041b6105f6366004613e9e565b611cf5565b60975460ff166103f3565b6106196106143660046141fc565b611e09565b6040516103ff9493929190614509565b610689610637366004613e9e565b60d26020526000908152604090208054600182015460028301546003840154600685015460078601546008870154600990970154959660ff95861696949590931693919290916001600160a01b031688565b604080519889529615156020890152958701949094529115156060860152608085015260a084015260c08301526001600160a01b031660e0820152610100016103ff565b61041b6106db366004613e18565b611ed3565b61047a60d95481565b61047a6106f7366004613e9e565b611f7d565b61070f61070a366004613e9e565b612014565b6040516103ff9998979695949392919061487d565b61041b6107323660046141fc565b6121d1565b61050c610745366004613e9e565b60d3602052600090815260409020546001600160a01b031681565b61047a600080516020614b9e83398151915281565b61047a7f515cb9a6faf5ac018717b314df173fdbfa087f4f7981dfa1b108db1f00015d1981565b61041b6107aa366004613fa3565b6122f6565b60cc5461050c906001600160a01b031681565b61041b612368565b60ca5461050c906001600160a01b031681565b61047a6107eb366004613e9e565b60d66020526000908152604090205481565b61047a600080516020614bbe83398151915281565b6103f3610820366004613eb6565b612388565b61050c6108333660046141fc565b6123b5565b61041b610846366004614120565b6123ed565b61041b610859366004614255565b612553565b61047a7f0f751c86f068434f3f52b374dc6ecf5a4dda893e6eea601c8012ca82c7e9fce581565b61047a600081565b61061961089b3660046141fc565b612648565b61047a60d55481565b61041b6108b7366004614164565b61272b565b61041b6108ca366004613d63565b6127af565b61041b6108dd366004613e9e565b612808565b61041b6108f03660046142a2565b612867565b61047a610903366004613d63565b60d86020526000908152604090205481565b61041b610923366004613f02565b6129bf565b61041b610936366004613e9e565b612a4c565b61047a60ce5481565b61041b610952366004613e9e565b612b32565b61041b610965366004613eb6565b612b6a565b61041b61097836600461401d565b612b8f565b61041b61098b366004613e9e565b612f2f565b61047a600080516020614bde83398151915281565b6103f36109b3366004613eb6565b612f40565b61041b6109c6366004613e9e565b612f94565b61047a7fd4656a873938c6a54143cf99a88af3386da566bdef9cba62b37bbb4b88969b2d81565b60cb5461050c906001600160a01b031681565b61041b610a133660046141fc565b612fe1565b60006001600160e01b03198216637965db0b60e01b1480610a4957506301ffc9a760e01b6001600160e01b03198316145b90505b919050565b60975460ff1615610a7d5760405162461bcd60e51b8152600401610a74906146ba565b60405180910390fd5b600084815260d2602052604090206001015460ff1615610b3a57604080516020808201909252600081528451918501919091207fc5d2460186f7233c927e7db2dcc703c0e500b653ca82273b7bfad8045d85a4701415610b385760405162461bcd60e51b815260206004820152603060248201527f444e532f49502063616e6e6f7420626520656d70747920666f72206e6f6e207360448201526f6f7665726569676e207375626e65747360801b6064820152608401610a74565b505b6000610b4585611f7d565b11610baa5760405162461bcd60e51b815260206004820152602f60248201527f4e6f2073706f747320617661696c61626c652c206d6178536c6f74732072656160448201526e18da195908199bdc881cdd589b995d608a1b6064820152608401610a74565b600084815260d260205260409020600901546001600160a01b03166323b872dd3330846040518463ffffffff1660e01b8152600401610beb939291906144e5565b600060405180830381600087803b158015610c0557600080fd5b505af1158015610c19573d6000803e3d6000fd5b505060ca54600087815260d26020526040908190206008015490516323b872dd60e01b81526001600160a01b0390921693506323b872dd9250610c6291339130916004016144e5565b602060405180830381600087803b158015610c7c57600080fd5b505af1158015610c90573d6000803e3d6000fd5b505050506040513d601f19601f82011682018060405250810190610cb49190613e82565b50600084815260d260209081526040808320600801546001600160a01b038616845260d890925290912054610ce8916132e4565b6001600160a01b038316600081815260d8602090815260408083209490945587825260d681528382205460d7825284832081845282529390912080546001600160a01b03191690921782558551610d459260010191870190613ab0565b50600085815260d760209081526040808320848452825280832060028101805460ff19166001908117909155600390910186905588845260d690925290912054610d8e916132e4565b600086815260d660205260408120919091555b600086815260d46020526040902054811015610ebd57600086815260d46020526040902080546001600160a01b038616919083908110610df157634e487b7160e01b600052603260045260246000fd5b6000918252602090912001546001600160a01b03161415610eab57600086815260d760209081526040808320858452909152908190206002908101805460ff1916909117905560cb5460d05491516335961f1f60e11b8152600481018990526001600160a01b0387811660248301526044820193909352911690636b2c3e3e90606401600060405180830381600087803b158015610e8e57600080fd5b505af1158015610ea2573d6000803e3d6000fd5b50505050610ebd565b80610eb581614b33565b915050610da1565b507f9fb9ac4c6d9a62f6befa9ce65c92f896aeb8c8abea750a82bc01b12cdc85c0cd8582868633604051610ef59594939291906149cf565b60405180910390a160408051338152602081018790528082018390526060810184905290517f1015cbdf9c2e7decb331210c6daaa13e038656ae7309ee8a7a051781800111559181900360800190a15050505050565b60975460ff1615610f6e5760405162461bcd60e51b8152600401610a74906146ba565b600083815260d7602090815260408083208584529091529020546001600160a01b03163314610fd75760405162461bcd60e51b81526020600482015260156024820152742737ba103a34329031b63ab9ba32b91037bbb732b960591b6044820152606401610a74565b600083815260d760209081526040808320858452909152902080546001600160a01b0319166001600160a01b0383161790557f781b079fc079d37024e79662c9a159bec216bc0fa98c48a5d0f9e44a02d85a1b83836110333390565b6040805193845260208401929092526001600160a01b0390811691830191909152831660608201526080015b60405180910390a1505050565b6000611077816132f7565b6040516370a0823160e01b81523060048201526111059033906001600160a01b038516906370a082319060240160206040518083038186803b1580156110bc57600080fd5b505afa1580156110d0573d6000803e3d6000fd5b505050506040513d601f19601f820116820180604052508101906110f49190613fce565b6001600160a01b0385169190613301565b5050565b600080516020614bbe833981519152611121816132f7565b600084815260d760209081526040808320868452909152902060029081015460ff1614156111c35760405162461bcd60e51b815260206004820152604360248201527f416c726561647920617070726f7665642065697468657220627920776869746560448201527f6c697374696e67206f722062792063616c6c696e6720746869732066756e637460648201526234b7b760e91b608482015260a401610a74565b600084815260d760209081526040808320868452909152908190206002808201805460ff1916909117905560cb54905491516335961f1f60e11b8152600481018790526001600160a01b03928316602482015260448101859052911690636b2c3e3e90606401600060405180830381600087803b15801561124357600080fd5b505af1158015611257573d6000803e3d6000fd5b505050507f033d06e667c8589d6bf094a28be43fdc2ca4bc976f081304e77575d6a44682a684846112853390565b6040805193845260208401929092526001600160a01b031690820152600260608201526080015b60405180910390a150505050565b600083815260d46020526040902080546001600160a01b0384169190839081106112f457634e487b7160e01b600052603260045260246000fd5b6000918252602090912001546001600160a01b0316146113665760405162461bcd60e51b815260206004820152602760248201527f4164647265737320646f6e6f74206d61746368207769746820696e64657820706044820152661c9bdd9a59195960ca1b6064820152608401610a74565b61137e600080516020614b9e83398151915233610820565b8061139f5750600083815260d360205260409020546001600160a01b031633145b6113bb5760405162461bcd60e51b8152600401610a749061465d565b805b600084815260d460205260409020546113d890600190614a9a565b81101561149857600084815260d4602052604090206113f8826001614a63565b8154811061141657634e487b7160e01b600052603260045260246000fd5b600091825260208083209091015486835260d4909152604090912080546001600160a01b03909216918390811061145d57634e487b7160e01b600052603260045260246000fd5b600091825260209091200180546001600160a01b0319166001600160a01b03929092169190911790558061149081614b33565b9150506113bd565b50600083815260d4602052604090208054806114c457634e487b7160e01b600052603160045260246000fd5b600082815260209020810160001990810180546001600160a01b03191690550190556040517f061b5b655cfeaf344bc505d25124654c45ca9b9d781c11dc81a6222a4169850b9061105f90859085909182526001600160a01b0316602082015260400190565b60006115366001613353565b9050801561154e576000805461ff0019166101001790555b6115566133d8565b61155e613401565b611569600087613434565b611581600080516020614bbe83398151915287613434565b6115ab7f515cb9a6faf5ac018717b314df173fdbfa087f4f7981dfa1b108db1f00015d1987613434565b6115d57fc45069b141f83fdb9a15de03a5d47e65750f13669a7d610468dde2a64542857287613434565b6115ff7fd4656a873938c6a54143cf99a88af3386da566bdef9cba62b37bbb4b88969b2d87613434565b611617600080516020614b9e83398151915287613434565b61162f600080516020614bde83398151915287613434565b6116597f0f751c86f068434f3f52b374dc6ecf5a4dda893e6eea601c8012ca82c7e9fce587613434565b60cc80546001600160a01b038089166001600160a01b03199283161790925560c980548b841690831617905560ca8054928a1692909116919091179055600060d55560d985905560ce84905560cf83905560d082905580156116f5576000805461ff0019169055604051600181527f7f26b83ff96e1f2b6a682f133852f6798a09c465da95921460cefb38474024989060200160405180910390a15b5050505050505050565b60008281526065602052604090206001015461171a816132f7565b6117248383613434565b505050565b6001600160a01b03811633146117995760405162461bcd60e51b815260206004820152602f60248201527f416363657373436f6e74726f6c3a2063616e206f6e6c792072656e6f756e636560448201526e103937b632b9903337b91039b2b63360891b6064820152608401610a74565b61110582826134ba565b606060005b60d55481101561191957600081815260d2602090815260409182902082516101408101845281548152600182015460ff90811615158285015260028301548286015260038301541615156060820152600482018054855181860281018601909652808652919492936080860193929083018282801561184657602002820191906000526020600020905b815481526020019060010190808311611832575b505050505081526020016005820180548060200260200160405190810160405280929190818152602001828054801561189e57602002820191906000526020600020905b81548152602001906001019080831161188a575b50505091835250506006820154602082015260078201546040820152600882015460608201526009909101546001600160a01b031660809091015282518390839081106118fb57634e487b7160e01b600052603260045260246000fd5b6020026020010181905250808061191190614b33565b9150506117a8565b5090565b600080516020614bde833981519152611935816132f7565b61193d613521565b50565b600061194b816132f7565b60005b82518110156119f55760c9546001600160a01b03166323b872dd303386858151811061198a57634e487b7160e01b600052603260045260246000fd5b60200260200101516040518463ffffffff1660e01b81526004016119b0939291906144e5565b600060405180830381600087803b1580156119ca57600080fd5b505af11580156119de573d6000803e3d6000fd5b5050505080806119ed90614b33565b91505061194e565b507f44f90752d4e829c0ece87e335cabadbe59eae106989e8c33f98cffd4f301c27382604051611a259190614637565b60405180910390a15050565b6000611a3c816132f7565b60cb546001600160a01b031615611a835760405162461bcd60e51b815260206004820152600b60248201526a105b1c9958591e481cd95d60aa1b6044820152606401610a74565b5060cb80546001600160a01b0319166001600160a01b0392909216919091179055565b7f515cb9a6faf5ac018717b314df173fdbfa087f4f7981dfa1b108db1f00015d19611ad0816132f7565b8a60011415611aef5760008c815260d2602052604090208a9055611c9d565b8a60021415611b1a5760008c815260d260205260409020600101805460ff19168a1515179055611c9d565b8a60031415611b3c5760008c815260d260205260409020600201889055611c9d565b8a60041415611b675760008c815260d260205260409020600301805460ff1916881515179055611c9d565b8a60051415611b9b5760008c815260d2602090815260409091208751611b9592600590920191890190613b30565b50611c9d565b8a60061415611bbd5760008c815260d260205260409020600601859055611c9d565b8a60071415611bdf5760008c815260d260205260409020600701849055611c9d565b8a60081415611c015760008c815260d260205260409020600801839055611c9d565b8a60091415611c9d576001600160a01b038216600090815260cd602052604090205460ff16611c725760405162461bcd60e51b815260206004820152601c60248201527f4e6f7420617070726f766564204461726b204d6174746572204e4654000000006044820152606401610a74565b60008c815260d26020526040902060090180546001600160a01b0319166001600160a01b0384161790555b60008c815260d2602052604090207fc5aa3350a17364e5dc4b7d6e337257137c39651e4730e8de5132d3791d051e0f908d9033604051611cdf939291906148e4565b60405180910390a1505050505050505050505050565b600080516020614b9e833981519152611d0d816132f7565b600082815260d26020526040902054600114611d635760405162461bcd60e51b8152602060048201526015602482015274105b1c9958591e481c1d589b1a58c81cdd589b995d605a1b6044820152606401610a74565b611d7b600080516020614b9e83398151915233610820565b80611d9c5750600082815260d360205260409020546001600160a01b031633145b611db85760405162461bcd60e51b8152600401610a749061465d565b600082815260d460205260409020606080519091611dd891608090613b6a565b506040518381527f9e70d79633df959d6b05d1099cfa06b805b55ad2ec5b7482f72b5d3413f5fdb09060200161105f565b60d7602090815260009283526040808420909152908252902080546001820180546001600160a01b039092169291611e4090614af8565b80601f0160208091040260200160405190810160405280929190818152602001828054611e6c90614af8565b8015611eb95780601f10611e8e57610100808354040283529160200191611eb9565b820191906000526020600020905b815481529060010190602001808311611e9c57829003601f168201915b505050506002830154600390930154919260ff1691905084565b611eeb600080516020614b9e83398151915233610820565b611f525760405162461bcd60e51b815260206004820152603260248201527f4f6e6c792057484954454c4953545f524f4c452063616e20656469742077686960448201527174656c69737465642061646472657373657360701b6064820152608401610a74565b6001600160a01b0391909116600090815260cd60205260409020805460ff1916911515919091179055565b600081815260d6602052604081205481805b82811015611fdf57600085815260d760209081526040808320848452909152902060029081015460ff161415611fcd57611fca8260016132e4565b91505b80611fd781614b33565b915050611f8f565b506000611fec83836135b4565b600086815260d2602052604090206006015490915061200b90826135b4565b95945050505050565b6000806000806060806000806000808a905060d260008281526020019081526020016000206000015460d2600083815260200190815260200160002060010160009054906101000a900460ff1660d260008481526020019081526020016000206002015460d2600085815260200190815260200160002060030160009054906101000a900460ff1660d2600086815260200190815260200160002060040160d2600087815260200190815260200160002060050160d260008881526020019081526020016000206006015460d260008981526020019081526020016000206007015460d260008a8152602001908152602001600020600801548480548060200260200160405190810160405280929190818152602001828054801561215857602002820191906000526020600020905b815481526020019060010190808311612144575b50505050509450838054806020026020016040519081016040528092919081815260200182805480156121aa57602002820191906000526020600020905b815481526020019060010190808311612196575b50505050509350995099509950995099509950995099509950509193959799909294969850565b6121e9600080516020614bbe83398151915233610820565b806122155750600082815260d7602090815260408083208484529091529020546001600160a01b031633145b61227e5760405162461bcd60e51b815260206004820152603460248201527f53656e646572206973206e6f7420436c7573746572206f776e6572206f722068604482015273617320434c55535445525f4c4953545f524f4c4560601b6064820152608401610a74565b600082815260d76020908152604080832084845290915290206002908101805460ff191690911790557f033d06e667c8589d6bf094a28be43fdc2ca4bc976f081304e77575d6a44682a68282336040805193845260208401929092526001600160a01b03169082015260026060820152608001611a25565b6000612301816132f7565b604051632142170760e11b81526001600160a01b038416906342842e0e90612331903090339087906004016144e5565b600060405180830381600087803b15801561234b57600080fd5b505af115801561235f573d6000803e3d6000fd5b50505050505050565b600080516020614bde833981519152612380816132f7565b61193d6135c0565b60008281526065602090815260408083206001600160a01b038516845290915290205460ff165b92915050565b60d460205281600052604060002081815481106123d157600080fd5b6000918252602090912001546001600160a01b03169150829050565b600082815260d260205260409020546001146124435760405162461bcd60e51b8152602060048201526015602482015274105b1c9958591e481c1d589b1a58c81cdd589b995d605a1b6044820152606401610a74565b61245b600080516020614b9e83398151915233610820565b8061247c5750600082815260d360205260409020546001600160a01b031633145b6124985760405162461bcd60e51b8152600401610a749061465d565b60005b815181101561252157600083815260d46020526040902082518390839081106124d457634e487b7160e01b600052603260045260246000fd5b60209081029190910181015182546001810184556000938452919092200180546001600160a01b0319166001600160a01b039092169190911790558061251981614b33565b91505061249b565b507f796f24f814d152716ce0b8e64483e688c61dca897d5816d74efdc8e0665be4328282604051611a25929190614832565b60975460ff16156125765760405162461bcd60e51b8152600401610a74906146ba565b600083815260d7602090815260408083208584529091529020546001600160a01b031633146125e75760405162461bcd60e51b815260206004820152601b60248201527f53656e646572206973206e6f7420436c7573746572206f776e657200000000006044820152606401610a74565b600083815260d7602090815260408083208584528252909120825161261492600190920191840190613ab0565b507fe24e4bfe4f4c3361921b5d9ef1eac8f9a55d09ae3d9699c51d1a668ede2c831983838360405161105f939291906149b0565b600082815260d760209081526040808320848452909152812080546002820154600383015460019093018054606094869485946001600160a01b03909116939260ff9091169190839061269a90614af8565b80601f01602080910402602001604051908101604052809291908181526020018280546126c690614af8565b80156127135780601f106126e857610100808354040283529160200191612713565b820191906000526020600020905b8154815290600101906020018083116126f657829003601f168201915b50505050509250935093509350935092959194509250565b7fd4656a873938c6a54143cf99a88af3386da566bdef9cba62b37bbb4b88969b2d612755816132f7565b600083815260d160209081526040909120428155835161277d92600190920191850190613b30565b507fe313790d329011b4379172e25d9354b5de88eb0f7bc3053f5ab0b366d3cda3b8838360405161105f92919061484b565b60006127ba816132f7565b60c980546001600160a01b0319166001600160a01b0384169081179091556040519081527f0509ed52799171e23f5c37dfa66db8e0dadb499373ec7eb90b79a6a6ffe7230490602001611a25565b7fc45069b141f83fdb9a15de03a5d47e65750f13669a7d610468dde2a645428572612832816132f7565b60d98290556040518281527fd62325d508fc47cbcfee1d1874e8629885af65954ba2d26dccfe1381131a45ca90602001611a25565b7f0f751c86f068434f3f52b374dc6ecf5a4dda893e6eea601c8012ca82c7e9fce5612891816132f7565b600084815260d7602090815260408083208684528252808320546001600160a01b0316835260d89091529020546128c890836135b4565b600085815260d7602090815260408083208784528252808320546001600160a01b03908116845260d89092529091209190915560ca54166323b872dd3033856040518463ffffffff1660e01b8152600401612925939291906144e5565b602060405180830381600087803b15801561293f57600080fd5b505af1158015612953573d6000803e3d6000fd5b505050506040513d601f19601f820116820180604052508101906129779190613e82565b5060408051858152602081018590523391810191909152606081018390527feaf0dcecd372ff2fedd93f8bf5b69976ef33e3c98a5c7792faccc0a316a23148906080016112ac565b60006129ca816132f7565b604051637921219560e11b8152306004820152336024820152604481018490526064810183905260a06084820152600260a482015261060f60f31b60c48201526001600160a01b0385169063f242432a9060e401600060405180830381600087803b158015612a3857600080fd5b505af11580156116f5573d6000803e3d6000fd5b60d954600082815260d16020526040902054612a67916132e4565b4211612ab55760405162461bcd60e51b815260206004820152601a60248201527f436f6f6c646f776e2074696d65206e6f74206f766572207965740000000000006044820152606401610a74565b600081815260d16020908152604080832060d290925290912060019091018054612ae3926004019190613bbf565b50600081815260d160205260409081902090517f0f127d0a7e6bc1ce0fc731fa40740bf251d03b41e462bc93a8cac4c175b8b0f391612b2791849160010190614864565b60405180910390a150565b6000612b3d816132f7565b604051339083156108fc029084906000818181858888f19350505050158015611724573d6000803e3d6000fd5b600082815260656020526040902060010154612b85816132f7565b61172483836134ba565b60975460ff1615612bb25760405162461bcd60e51b8152600401610a74906146ba565b60c9546001600160a01b03166323b872dd33308f6040518463ffffffff1660e01b8152600401612be4939291906144e5565b600060405180830381600087803b158015612bfe57600080fd5b505af1158015612c12573d6000803e3d6000fd5b505060ca5460cc5460cf546040516323b872dd60e01b81526001600160a01b0393841695506323b872dd9450612c4f9333931691906004016144e5565b602060405180830381600087803b158015612c6957600080fd5b505af1158015612c7d573d6000803e3d6000fd5b505050506040513d601f19601f82011682018060405250810190612ca19190613e82565b508a60d3600060d554815260200190815260200160002060006101000a8154816001600160a01b0302191690836001600160a01b03160217905550612d3f6040518061014001604052806000815260200160001515815260200160008152602001600015158152602001606081526020016060815260200160008152602001600081526020016000815260200160006001600160a01b031681525090565b8a8152891515602080830191825260408084018c81528b151560608601908152608086018c815260a087018c905260c087018b905260e08701899052610100870188905260c9546001600160a01b031661012088015260d554600090815260d286529390932086518155945160018601805491151560ff19928316179055915160028601555160038501805491151591909216179055518051849392612dec926004850192910190613b30565b5060a08201518051612e08916005840191602090910190613b30565b5060c0820151600682015560e08201516007820155610100820151600882015561012090910151600990910180546001600160a01b0319166001600160a01b0390921691909117905560d5547f76b50f1816f387dbae506806e88cd421e26f13fa255f390ba931946e15fee8a2908d8d8d8d8d8d8d8d8d8d612e873390565b8e604051612ea19d9c9b9a9998979695949392919061477d565b60405180910390a160d5546040805133815260208101929092528181018f9052517f1e8ca4c189ee24e9a00297282e66ae881c6e3788821b188c51d335cbafd9416a9181900360600190a160d554600090815260d4602090815260409091208551612f0e92870190613b6a565b5060d554612f1d9060016132e4565b60d55550505050505050505050505050565b6000612f3a816132f7565b5060cf55565b6000612f5a600080516020614bbe83398151915283612388565b80612f7e5750600083815260d360205260409020546001600160a01b038381169116145b15612f8b575060016123af565b50600092915050565b6000612f9f816132f7565b60ce5460408051918252602082018490527f6a4a5332747a0ff452432b251176f864b3aa17df85cb50c22af972b67f2d60d4910160405180910390a15060ce55565b600082815260d2602052604090206003015460ff16156130625760405162461bcd60e51b815260206004820152603660248201527f43616e6e6f7420776974686472617720537461636b206c6f636b6564206966206044820152751cdd589b995d081a5cc81b9bdd0819195b1a5cdd195960521b6064820152608401610a74565b600082815260d7602090815260408083208484529091529020546001600160a01b031633146130e95760405162461bcd60e51b815260206004820152602d60248201527f4f6e6c7920436c757374657244414f2044414f2063616e20776974686472617760448201526c0814dd1858dac81b1bd8dad959609a1b6064820152608401610a74565b33600081815260d86020908152604080832083905585835260d782528083208584529091528082206002908101805460ff1916909117905560ca5490516323b872dd60e01b815291926001600160a01b03909116916323b872dd916131559130919086906004016144e5565b602060405180830381600087803b15801561316f57600080fd5b505af1158015613183573d6000803e3d6000fd5b505050506040513d601f19601f820116820180604052508101906131a79190613e82565b5060c954600084815260d760209081526040808320868452909152908190206003015490516323b872dd60e01b81526001600160a01b03909216916323b872dd916131f891309133916004016144e5565b600060405180830381600087803b15801561321257600080fd5b505af1158015613226573d6000803e3d6000fd5b505050507f3b7a9017fb40befecce5dfd5dcec15a767568cd5bd3a631fdf53263fa1e4313583836132543390565b600087815260d760209081526040808320898452825291829020600301548251958652908501939093526001600160a01b0390911690830152606082015260800160405180910390a160408051848152602081018490523391810191909152606081018290527f6944159908f55f02059a9d2c78c6962528fc2b75a306d0802a2eb2dca1d3fc359060800161105f565b60006132f08284614a63565b9392505050565b61193d8133613618565b604080516001600160a01b038416602482015260448082018490528251808303909101815260649091019091526020810180516001600160e01b031663a9059cbb60e01b17905261172490849061367c565b60008054610100900460ff161561339a578160ff1660011480156133765750303b155b6133925760405162461bcd60e51b8152600401610a74906146e4565b506000610a4c565b60005460ff8084169116106133c15760405162461bcd60e51b8152600401610a74906146e4565b506000805460ff191660ff83161790556001610a4c565b600054610100900460ff166133ff5760405162461bcd60e51b8152600401610a7490614732565b565b600054610100900460ff166134285760405162461bcd60e51b8152600401610a7490614732565b6097805460ff19169055565b61343e8282612388565b6111055760008281526065602090815260408083206001600160a01b03851684529091529020805460ff191660011790556134763390565b6001600160a01b0316816001600160a01b0316837f2f8788117e7eff1d82e926ec794901d17c78024a50270940304540a733656f0d60405160405180910390a45050565b6134c48282612388565b156111055760008281526065602090815260408083206001600160a01b0385168085529252808320805460ff1916905551339285917ff6391f5c32d9c69d2a47ea670b442974b53935d1edc7fd64eb21e047a839171b9190a45050565b60975460ff1661356a5760405162461bcd60e51b815260206004820152601460248201527314185d5cd8589b194e881b9bdd081c185d5cd95960621b6044820152606401610a74565b6097805460ff191690557f5db9ee0a495bf2e6ff9c91a7834c1ba4fdd244a5e8aa4e537bd38aeae4b073aa335b6040516001600160a01b03909116815260200160405180910390a1565b60006132f08284614a9a565b60975460ff16156135e35760405162461bcd60e51b8152600401610a74906146ba565b6097805460ff191660011790557f62e78cea01bee320cd4e420270b5ea74000d11b0c9f74754ebdbfc544b05a2586135973390565b6136228282612388565b6111055761363a816001600160a01b0316601461374e565b61364583602061374e565b604051602001613656929190614470565b60408051601f198184030181529082905262461bcd60e51b8252610a749160040161464a565b60006136d1826040518060400160405280602081526020017f5361666545524332303a206c6f772d6c6576656c2063616c6c206661696c6564815250856001600160a01b031661392f9092919063ffffffff16565b80519091501561172457808060200190518101906136ef9190613e82565b6117245760405162461bcd60e51b815260206004820152602a60248201527f5361666545524332303a204552433230206f7065726174696f6e20646964206e6044820152691bdd081cdd58d8d9595960b21b6064820152608401610a74565b6060600061375d836002614a7b565b613768906002614a63565b6001600160401b0381111561378d57634e487b7160e01b600052604160045260246000fd5b6040519080825280601f01601f1916602001820160405280156137b7576020820181803683370190505b509050600360fc1b816000815181106137e057634e487b7160e01b600052603260045260246000fd5b60200101906001600160f81b031916908160001a905350600f60fb1b8160018151811061381d57634e487b7160e01b600052603260045260246000fd5b60200101906001600160f81b031916908160001a9053506000613841846002614a7b565b61384c906001614a63565b90505b60018111156138e0576f181899199a1a9b1b9c1cb0b131b232b360811b85600f166010811061388e57634e487b7160e01b600052603260045260246000fd5b1a60f81b8282815181106138b257634e487b7160e01b600052603260045260246000fd5b60200101906001600160f81b031916908160001a90535060049490941c936138d981614ae1565b905061384f565b5083156132f05760405162461bcd60e51b815260206004820181905260248201527f537472696e67733a20686578206c656e67746820696e73756666696369656e746044820152606401610a74565b606061393e8484600085613946565b949350505050565b6060824710156139a75760405162461bcd60e51b815260206004820152602660248201527f416464726573733a20696e73756666696369656e742062616c616e636520666f6044820152651c8818d85b1b60d21b6064820152608401610a74565b6001600160a01b0385163b6139fe5760405162461bcd60e51b815260206004820152601d60248201527f416464726573733a2063616c6c20746f206e6f6e2d636f6e74726163740000006044820152606401610a74565b600080866001600160a01b03168587604051613a1a9190614454565b60006040518083038185875af1925050503d8060008114613a57576040519150601f19603f3d011682016040523d82523d6000602084013e613a5c565b606091505b5091509150613a6c828286613a77565b979650505050505050565b60608315613a865750816132f0565b825115613a965782518084602001fd5b8160405162461bcd60e51b8152600401610a74919061464a565b828054613abc90614af8565b90600052602060002090601f016020900481019282613ade5760008555613b24565b82601f10613af757805160ff1916838001178555613b24565b82800160010185558215613b24579182015b82811115613b24578251825591602001919060010190613b09565b50611919929150613bff565b828054828255906000526020600020908101928215613b245791602002820182811115613b24578251825591602001919060010190613b09565b828054828255906000526020600020908101928215613b24579160200282015b82811115613b2457825182546001600160a01b0319166001600160a01b03909116178255602090920191600190910190613b8a565b828054828255906000526020600020908101928215613b245760005260206000209182015b82811115613b24578254825591600101919060010190613be4565b5b808211156119195760008155600101613c00565b8035610a4c81614b7a565b600082601f830112613c2f578081fd5b81356020613c44613c3f83614a40565b614a10565b8281528181019085830183850287018401881015613c60578586fd5b855b85811015613c87578135613c7581614b7a565b84529284019290840190600101613c62565b5090979650505050505050565b600082601f830112613ca4578081fd5b81356020613cb4613c3f83614a40565b8281528181019085830183850287018401881015613cd0578586fd5b855b85811015613c8757813584529284019290840190600101613cd2565b8035610a4c81614b8f565b600082601f830112613d09578081fd5b81356001600160401b03811115613d2257613d22614b64565b613d35601f8201601f1916602001614a10565b818152846020838601011115613d49578283fd5b816020850160208301379081016020019190915292915050565b600060208284031215613d74578081fd5b81356132f081614b7a565b600080600080600060808688031215613d96578081fd5b8535613da181614b7a565b94506020860135613db181614b7a565b93506040860135925060608601356001600160401b0380821115613dd3578283fd5b818801915088601f830112613de6578283fd5b813581811115613df4578384fd5b896020828501011115613e05578384fd5b9699959850939650602001949392505050565b60008060408385031215613e2a578182fd5b8235613e3581614b7a565b91506020830135613e4581614b8f565b809150509250929050565b600060208284031215613e61578081fd5b81356001600160401b03811115613e76578182fd5b61393e84828501613c94565b600060208284031215613e93578081fd5b81516132f081614b8f565b600060208284031215613eaf578081fd5b5035919050565b60008060408385031215613ec8578182fd5b823591506020830135613e4581614b7a565b600060208284031215613eeb578081fd5b81356001600160e01b0319811681146132f0578182fd5b600080600060608486031215613f16578081fd5b8335613f2181614b7a565b95602085013595506040909401359392505050565b600080600080600080600060e0888a031215613f50578485fd5b8735613f5b81614b7a565b96506020880135613f6b81614b7a565b95506040880135613f7b81614b7a565b969995985095966060810135965060808101359560a0820135955060c0909101359350915050565b60008060408385031215613fb5578182fd5b8235613fc081614b7a565b946020939093013593505050565b600060208284031215613fdf578081fd5b5051919050565b600080600060608486031215613ffa578081fd5b83359250602084013561400c81614b7a565b929592945050506040919091013590565b6000806000806000806000806000806000806101808d8f03121561403f578586fd5b8c359b5061404f60208e01613c14565b9a5060408d0135995061406460608e01613cee565b985060808d0135975061407960a08e01613cee565b96506001600160401b0360c08e01351115614092578586fd5b6140a28e60c08f01358f01613c94565b95506001600160401b0360e08e013511156140bb578485fd5b6140cb8e60e08f01358f01613c94565b94506101008d013593506001600160401b036101208e013511156140ed578283fd5b6140fe8e6101208f01358f01613c1f565b92506101408d013591506101608d013590509295989b509295989b509295989b565b60008060408385031215614132578182fd5b8235915060208301356001600160401b0381111561414e578182fd5b61415a85828601613c1f565b9150509250929050565b60008060408385031215614176578182fd5b8235915060208301356001600160401b03811115614192578182fd5b61415a85828601613c94565b600080600080608085870312156141b3578182fd5b8435935060208501356001600160401b038111156141cf578283fd5b6141db87828801613cf9565b93505060408501356141ec81614b7a565b9396929550929360600135925050565b6000806040838503121561420e578182fd5b50508035926020909101359150565b600080600060608486031215614231578081fd5b8335925060208401359150604084013561424a81614b7a565b809150509250925092565b600080600060608486031215614269578081fd5b833592506020840135915060408401356001600160401b0381111561428c578182fd5b61429886828701613cf9565b9150509250925092565b6000806000606084860312156142b6578081fd5b505081359360208301359350604090920135919050565b60008060008060008060008060008060006101608c8e0312156142ee578485fd5b8b359a5060208c0135995060408c0135985060608c013561430e81614b8f565b975060808c0135965060a08c013561432581614b8f565b955060c08c01356001600160401b0381111561433f578586fd5b61434b8e828f01613c94565b95505060e08c013593506101008c013592506101208c013591506143726101408d01613c14565b90509295989b509295989b9093969950565b6000815180845260208085019450808401835b838110156143bc5781516001600160a01b031687529582019590820190600101614397565b509495945050505050565b6000815180845260208085019450808401835b838110156143bc578151875295820195908201906001016143da565b6000815480845260208085019450838352808320835b838110156143bc5781548752958201956001918201910161440c565b60008151808452614440816020860160208601614ab1565b601f01601f19169290920160200192915050565b60008251614466818460208701614ab1565b9190910192915050565b60007f416363657373436f6e74726f6c3a206163636f756e7420000000000000000000825283516144a8816017850160208801614ab1565b7001034b99036b4b9b9b4b733903937b6329607d1b60179184019182015283516144d9816028840160208801614ab1565b01602801949350505050565b6001600160a01b039384168152919092166020820152604081019190915260600190565b6001600160a01b038516815260806020820181905260009061452d90830186614428565b60ff949094166040830152506060015292915050565b60208082528251828201819052600091906040908185019080840286018301878501865b8381101561462957603f1989840301855281518051845287810151151588850152868101518785015260608082015115159085015260808082015161014082870181905291906145b9838801826143c7565b9250505060a080830151868303828801526145d483826143c7565b60c0858101519089015260e080860151908901526101008086015190890152610120948501516001600160a01b038116868a01529490935091506146159050565b509588019593505090860190600101614567565b509098975050505050505050565b6000602082526132f060208301846143c7565b6000602082526132f06020830184614428565b6020808252603f908201527f4f6e6c792057484954454c4953545f524f4c45206f72204c6f63616c2044414f60408201527f2063616e20656469742077686974656c69737465642061646472657373657300606082015260800190565b60208082526010908201526f14185d5cd8589b194e881c185d5cd95960821b604082015260600190565b6020808252602e908201527f496e697469616c697a61626c653a20636f6e747261637420697320616c72656160408201526d191e481a5b9a5d1a585b1a5e995960921b606082015260800190565b6020808252602b908201527f496e697469616c697a61626c653a20636f6e7472616374206973206e6f74206960408201526a6e697469616c697a696e6760a81b606082015260800190565b8d81526001600160a01b038d166020820152604081018c90528a1515606082015260006101a08b60808401526147b760a084018c15159052565b8060c08401526147c98184018b6143c7565b905082810360e08401526147dd818a6143c7565b9050876101008401528281036101208401526147f98188614384565b915050846101408301526148196101608301856001600160a01b03169052565b826101808301529e9d5050505050505050505050505050565b60008382526040602083015261393e6040830184614384565b60008382526040602083015261393e60408301846143c7565b60008382526040602083015261393e60408301846143f6565b60006101208b83528a1515602084015289604084015288151560608401528060808401526148ad818401896143c7565b905082810360a08401526148c181886143c7565b60c0840196909652505060e0810192909252610100909101529695505050505050565b60008482526060602083015283546060830152614905600185015460ff1690565b15156080830152600284015460a0830152600384015460ff16151560c083015261014060e083018190526149406101a08401600487016143f6565b838103605f190161010085015261495a81600588016143f6565b90506006860154610120850152600786015482850152600886015461016085015261498f60098701546001600160a01b031690565b6001600160a01b0390811661018086015285166040850152915061393e9050565b60008482528360208301526060604083015261200b6060830184614428565b600086825285602083015260a060408301526149ee60a0830186614428565b6001600160a01b03948516606084015292909316608090910152949350505050565b604051601f8201601f191681016001600160401b0381118282101715614a3857614a38614b64565b604052919050565b60006001600160401b03821115614a5957614a59614b64565b5060209081020190565b60008219821115614a7657614a76614b4e565b500190565b6000816000190483118215151615614a9557614a95614b4e565b500290565b600082821015614aac57614aac614b4e565b500390565b60005b83811015614acc578181015183820152602001614ab4565b83811115614adb576000848401525b50505050565b600081614af057614af0614b4e565b506000190190565b600281046001821680614b0c57607f821691505b60208210811415614b2d57634e487b7160e01b600052602260045260246000fd5b50919050565b6000600019821415614b4757614b47614b4e565b5060010190565b634e487b7160e01b600052601160045260246000fd5b634e487b7160e01b600052604160045260246000fd5b6001600160a01b038116811461193d57600080fd5b801515811461193d57600080fdfedc72ed553f2544c34465af23b847953efeb813428162d767f9ba5f4013be676065c28dd45c4ff9294e0a087620aaf7cd9ce5fbe1aacb5d391aec529164025bd065d7a28e3265b37a6474929f336521b332c1681b933f6cb9f3376673440d862aa2646970667358221220c77f0ddeac6fbe855c1ee3e8b6a3fe88d259453e2c01566c46e2d5c481826ca064736f6c63430008020033",
  "linkReferences": {},
  "deployedLinkReferences": {}
}