{
  "_format": "hh-sol-artifact-1",
  "contractName": "Registration",
  "sourceName": "contracts/Registration.sol",
  "abi": [
    {
      "anonymous": false,
      "inputs": [
        {
          "indexed": false,
          "internalType": "uint256",
          "name": "subnetId",
          "type": "uint256"
        },
        {
          "indexed": false,
          "internalType": "address[]",
          "name": "whitelistAddresses",
          "type": "address[]"
        }
      ],
      "name": "AddedToWhitelistCluster",
      "type": "event"
    },
    {
      "anonymous": false,
      "inputs": [
        {
          "indexed": false,
          "internalType": "uint256",
          "name": "subnetId",
          "type": "uint256"
        },
        {
          "indexed": false,
          "internalType": "uint256",
          "name": "price",
          "type": "uint256"
        }
      ],
      "name": "AppliedChangedClusterPrice",
      "type": "event"
    },
    {
      "anonymous": false,
      "inputs": [
        {
          "indexed": false,
          "internalType": "uint256",
          "name": "coolDownTimeSecs",
          "type": "uint256"
        }
      ],
      "name": "ChangedCoolDownForPriceChange",
      "type": "event"
    },
    {
      "anonymous": false,
      "inputs": [
        {
          "indexed": false,
          "internalType": "uint256",
          "name": "subnetId",
          "type": "uint256"
        },
        {
          "indexed": false,
          "internalType": "uint256",
          "name": "clusterId",
          "type": "uint256"
        },
        {
          "indexed": false,
          "internalType": "string",
          "name": "newDNSIP",
          "type": "string"
        }
      ],
      "name": "ChangedDNSIP",
      "type": "event"
    },
    {
      "anonymous": false,
      "inputs": [
        {
          "indexed": false,
          "internalType": "uint256",
          "name": "subnetId",
          "type": "uint256"
        },
        {
          "indexed": false,
          "internalType": "uint256",
          "name": "clusterId",
          "type": "uint256"
        },
        {
          "indexed": false,
          "internalType": "address",
          "name": "sender",
          "type": "address"
        },
        {
          "indexed": false,
          "internalType": "bool",
          "name": "allow",
          "type": "bool"
        }
      ],
      "name": "ChangedListingCluster",
      "type": "event"
    },
    {
      "anonymous": false,
      "inputs": [
        {
          "indexed": false,
          "internalType": "address",
          "name": "DarkMatterNFT",
          "type": "address"
        }
      ],
      "name": "ChangedNFTAddress",
      "type": "event"
    },
    {
      "anonymous": false,
      "inputs": [
        {
          "indexed": false,
          "internalType": "uint256",
          "name": "subnetId",
          "type": "uint256"
        },
        {
          "indexed": false,
          "internalType": "uint256",
          "name": "clusterId",
          "type": "uint256"
        },
        {
          "indexed": false,
          "internalType": "string",
          "name": "DNS_IP",
          "type": "string"
        },
        {
          "indexed": false,
          "internalType": "address",
          "name": "clusterDAO",
          "type": "address"
        },
        {
          "indexed": false,
          "internalType": "address",
          "name": "sender",
          "type": "address"
        }
      ],
      "name": "ClusterSignedUp",
      "type": "event"
    },
    {
      "anonymous": false,
      "inputs": [
        {
          "indexed": false,
          "internalType": "uint8",
          "name": "version",
          "type": "uint8"
        }
      ],
      "name": "Initialized",
      "type": "event"
    },
    {
      "anonymous": false,
      "inputs": [
        {
          "indexed": false,
          "internalType": "address",
          "name": "userAddress",
          "type": "address"
        },
        {
          "indexed": false,
          "internalType": "uint256",
          "name": "subnetId",
          "type": "uint256"
        },
        {
          "indexed": false,
          "internalType": "uint256",
          "name": "clusterId",
          "type": "uint256"
        },
        {
          "indexed": false,
          "internalType": "uint256",
          "name": "nftID",
          "type": "uint256"
        }
      ],
      "name": "NFTLockedForCluster",
      "type": "event"
    },
    {
      "anonymous": false,
      "inputs": [
        {
          "indexed": false,
          "internalType": "address",
          "name": "userAddress",
          "type": "address"
        },
        {
          "indexed": false,
          "internalType": "uint256",
          "name": "subnetId",
          "type": "uint256"
        },
        {
          "indexed": false,
          "internalType": "uint256",
          "name": "nftID",
          "type": "uint256"
        }
      ],
      "name": "NFTLockedForSubnet",
      "type": "event"
    },
    {
      "anonymous": false,
      "inputs": [
        {
          "indexed": false,
          "internalType": "address",
          "name": "account",
          "type": "address"
        }
      ],
      "name": "Paused",
      "type": "event"
    },
    {
      "anonymous": false,
      "inputs": [
        {
          "indexed": false,
          "internalType": "uint256",
          "name": "subnetId",
          "type": "uint256"
        },
        {
          "indexed": false,
          "internalType": "address",
          "name": "blacklistAddress",
          "type": "address"
        }
      ],
      "name": "RemovedWhitelistCluster",
      "type": "event"
    },
    {
      "anonymous": false,
      "inputs": [
        {
          "indexed": false,
          "internalType": "uint256",
          "name": "subnetId",
          "type": "uint256"
        },
        {
          "indexed": false,
          "internalType": "uint256",
          "name": "price",
          "type": "uint256"
        }
      ],
      "name": "RequestedClusterPriceChange",
      "type": "event"
    },
    {
      "anonymous": false,
      "inputs": [
        {
          "indexed": false,
          "internalType": "uint256",
          "name": "subnetId",
          "type": "uint256"
        }
      ],
      "name": "ResetWhitelistCluster",
      "type": "event"
    },
    {
      "anonymous": false,
      "inputs": [
        {
          "indexed": true,
          "internalType": "bytes32",
          "name": "role",
          "type": "bytes32"
        },
        {
          "indexed": true,
          "internalType": "bytes32",
          "name": "previousAdminRole",
          "type": "bytes32"
        },
        {
          "indexed": true,
          "internalType": "bytes32",
          "name": "newAdminRole",
          "type": "bytes32"
        }
      ],
      "name": "RoleAdminChanged",
      "type": "event"
    },
    {
      "anonymous": false,
      "inputs": [
        {
          "indexed": true,
          "internalType": "bytes32",
          "name": "role",
          "type": "bytes32"
        },
        {
          "indexed": true,
          "internalType": "address",
          "name": "account",
          "type": "address"
        },
        {
          "indexed": true,
          "internalType": "address",
          "name": "sender",
          "type": "address"
        }
      ],
      "name": "RoleGranted",
      "type": "event"
    },
    {
      "anonymous": false,
      "inputs": [
        {
          "indexed": true,
          "internalType": "bytes32",
          "name": "role",
          "type": "bytes32"
        },
        {
          "indexed": true,
          "internalType": "address",
          "name": "account",
          "type": "address"
        },
        {
          "indexed": true,
          "internalType": "address",
          "name": "sender",
          "type": "address"
        }
      ],
      "name": "RoleRevoked",
      "type": "event"
    },
    {
      "anonymous": false,
      "inputs": [
        {
          "indexed": false,
          "internalType": "uint256",
          "name": "subnetId",
          "type": "uint256"
        },
        {
          "components": [
            {
              "internalType": "uint256",
              "name": "subnetType",
              "type": "uint256"
            },
            {
              "internalType": "bool",
              "name": "sovereignStatus",
              "type": "bool"
            },
            {
              "internalType": "uint256",
              "name": "cloudProviderType",
              "type": "uint256"
            },
            {
              "internalType": "bool",
              "name": "subnetStatusListed",
              "type": "bool"
            },
            {
              "internalType": "uint256",
              "name": "price",
              "type": "uint256"
            },
            {
              "internalType": "uint256[]",
              "name": "otherAttributes",
              "type": "uint256[]"
            },
            {
              "internalType": "uint256",
              "name": "maxClusters",
              "type": "uint256"
            }
          ],
          "indexed": false,
          "internalType": "struct Registration.SubnetAttributes",
          "name": "subnetAttributes",
          "type": "tuple"
        },
        {
          "indexed": false,
          "internalType": "address",
          "name": "sender",
          "type": "address"
        }
      ],
      "name": "SubnetAttributesChanged",
      "type": "event"
    },
    {
      "anonymous": false,
      "inputs": [
        {
          "indexed": false,
          "internalType": "uint256",
          "name": "subnetId",
          "type": "uint256"
        },
        {
          "indexed": false,
          "internalType": "address",
          "name": "subnetLocalDAO",
          "type": "address"
        },
        {
          "indexed": false,
          "internalType": "uint256",
          "name": "subnetType",
          "type": "uint256"
        },
        {
          "indexed": false,
          "internalType": "bool",
          "name": "sovereignStatus",
          "type": "bool"
        },
        {
          "indexed": false,
          "internalType": "uint256",
          "name": "cloudProviderType",
          "type": "uint256"
        },
        {
          "indexed": false,
          "internalType": "bool",
          "name": "subnetStatusListed",
          "type": "bool"
        },
        {
          "indexed": false,
          "internalType": "uint256",
          "name": "price",
          "type": "uint256"
        },
        {
          "indexed": false,
          "internalType": "uint256[]",
          "name": "otherAttributes",
          "type": "uint256[]"
        },
        {
          "indexed": false,
          "internalType": "uint256",
          "name": "maxClusters",
          "type": "uint256"
        },
        {
          "indexed": false,
          "internalType": "address[]",
          "name": "whiteListedClusters",
          "type": "address[]"
        },
        {
          "indexed": false,
          "internalType": "address",
          "name": "sender",
          "type": "address"
        }
      ],
      "name": "SubnetCreated",
      "type": "event"
    },
    {
      "anonymous": false,
      "inputs": [
        {
          "indexed": false,
          "internalType": "uint256",
          "name": "subnetId",
          "type": "uint256"
        },
        {
          "indexed": false,
          "internalType": "uint256",
          "name": "clusterId",
          "type": "uint256"
        },
        {
          "indexed": false,
          "internalType": "address",
          "name": "sender",
          "type": "address"
        },
        {
          "indexed": false,
          "internalType": "address",
          "name": "newOwner",
          "type": "address"
        }
      ],
      "name": "TransferredClusterDAOOwnership",
      "type": "event"
    },
    {
      "anonymous": false,
      "inputs": [
        {
          "indexed": false,
          "internalType": "address",
          "name": "account",
          "type": "address"
        }
      ],
      "name": "Unpaused",
      "type": "event"
    },
    {
      "anonymous": false,
      "inputs": [
        {
          "indexed": false,
          "internalType": "uint256[]",
          "name": "nftIds",
          "type": "uint256[]"
        }
      ],
      "name": "WithdrawnNFTs",
      "type": "event"
    },
    {
      "inputs": [],
      "name": "CLUSTER_LIST_ROLE",
      "outputs": [
        {
          "internalType": "bytes32",
          "name": "",
          "type": "bytes32"
        }
      ],
      "stateMutability": "view",
      "type": "function"
    },
    {
      "inputs": [],
      "name": "COOLDOWN_ROLE",
      "outputs": [
        {
          "internalType": "bytes32",
          "name": "",
          "type": "bytes32"
        }
      ],
      "stateMutability": "view",
      "type": "function"
    },
    {
      "inputs": [],
      "name": "DEFAULT_ADMIN_ROLE",
      "outputs": [
        {
          "internalType": "bytes32",
          "name": "",
          "type": "bytes32"
        }
      ],
      "stateMutability": "view",
      "type": "function"
    },
    {
      "inputs": [],
      "name": "PAUSER_ROLE",
      "outputs": [
        {
          "internalType": "bytes32",
          "name": "",
          "type": "bytes32"
        }
      ],
      "stateMutability": "view",
      "type": "function"
    },
    {
      "inputs": [],
      "name": "PRICE_ROLE",
      "outputs": [
        {
          "internalType": "bytes32",
          "name": "",
          "type": "bytes32"
        }
      ],
      "stateMutability": "view",
      "type": "function"
    },
    {
      "inputs": [],
      "name": "SUBNET_ATTR_ROLE",
      "outputs": [
        {
          "internalType": "bytes32",
          "name": "",
          "type": "bytes32"
        }
      ],
      "stateMutability": "view",
      "type": "function"
    },
    {
      "inputs": [],
      "name": "WHITELIST_ROLE",
      "outputs": [
        {
          "internalType": "bytes32",
          "name": "",
          "type": "bytes32"
        }
      ],
      "stateMutability": "view",
      "type": "function"
    },
    {
      "inputs": [
        {
          "internalType": "uint256",
          "name": "subnetId",
          "type": "uint256"
        },
        {
          "internalType": "address[]",
          "name": "_whitelistAddresses",
          "type": "address[]"
        }
      ],
      "name": "addClusterToWhitelisted",
      "outputs": [],
      "stateMutability": "nonpayable",
      "type": "function"
    },
    {
      "inputs": [
        {
          "internalType": "uint256",
          "name": "subnetId",
          "type": "uint256"
        }
      ],
      "name": "applyChangedClusterPrice",
      "outputs": [],
      "stateMutability": "nonpayable",
      "type": "function"
    },
    {
      "inputs": [
        {
          "internalType": "uint256",
          "name": "_coolDownTimeSecs",
          "type": "uint256"
        }
      ],
      "name": "changeCoolDownTime",
      "outputs": [],
      "stateMutability": "nonpayable",
      "type": "function"
    },
    {
      "inputs": [
        {
          "internalType": "uint256",
          "name": "subnetId",
          "type": "uint256"
        },
        {
          "internalType": "uint256",
          "name": "clusterId",
          "type": "uint256"
        },
        {
          "internalType": "string",
          "name": "newDNSIP",
          "type": "string"
        }
      ],
      "name": "changeDNSIP",
      "outputs": [],
      "stateMutability": "nonpayable",
      "type": "function"
    },
    {
      "inputs": [
        {
          "internalType": "uint256",
          "name": "subnetId",
          "type": "uint256"
        },
        {
          "internalType": "uint256",
          "name": "clusterId",
          "type": "uint256"
        },
        {
          "internalType": "bool",
          "name": "_allow",
          "type": "bool"
        }
      ],
      "name": "changeListingCluster",
      "outputs": [],
      "stateMutability": "nonpayable",
      "type": "function"
    },
    {
      "inputs": [
        {
          "internalType": "contract IERC721Upgradeable",
          "name": "_DarkMatterNFT",
          "type": "address"
        }
      ],
      "name": "changeNFT",
      "outputs": [],
      "stateMutability": "nonpayable",
      "type": "function"
    },
    {
      "inputs": [
        {
          "internalType": "uint256",
          "name": "subnetId",
          "type": "uint256"
        },
        {
          "internalType": "uint256",
          "name": "_attributeNo",
          "type": "uint256"
        },
        {
          "internalType": "uint256",
          "name": "_subnetType",
          "type": "uint256"
        },
        {
          "internalType": "bool",
          "name": "_sovereignStatus",
          "type": "bool"
        },
        {
          "internalType": "uint256",
          "name": "_cloudProviderType",
          "type": "uint256"
        },
        {
          "internalType": "bool",
          "name": "_subnetStatusListed",
          "type": "bool"
        },
        {
          "internalType": "uint256[]",
          "name": "_otherAttributes",
          "type": "uint256[]"
        },
        {
          "internalType": "uint256",
          "name": "_maxClusters",
          "type": "uint256"
        }
      ],
      "name": "changeSubnetAttributes",
      "outputs": [],
      "stateMutability": "nonpayable",
      "type": "function"
    },
    {
      "inputs": [
        {
          "internalType": "uint256",
          "name": "subnetId",
          "type": "uint256"
        },
        {
          "internalType": "string",
          "name": "_DNSIP",
          "type": "string"
        },
        {
          "internalType": "address",
          "name": "_clusterDAO",
          "type": "address"
        },
        {
          "internalType": "uint256",
          "name": "nftId",
          "type": "uint256"
        }
      ],
      "name": "clusterSignUp",
      "outputs": [],
      "stateMutability": "nonpayable",
      "type": "function"
    },
    {
      "inputs": [],
      "name": "coolDownTimeForPriceChange",
      "outputs": [
        {
          "internalType": "uint256",
          "name": "",
          "type": "uint256"
        }
      ],
      "stateMutability": "view",
      "type": "function"
    },
    {
      "inputs": [
        {
          "internalType": "uint256",
          "name": "nftId",
          "type": "uint256"
        },
        {
          "internalType": "address",
          "name": "_subnetLocalDAO",
          "type": "address"
        },
        {
          "internalType": "uint256",
          "name": "_subnetType",
          "type": "uint256"
        },
        {
          "internalType": "bool",
          "name": "_sovereignStatus",
          "type": "bool"
        },
        {
          "internalType": "uint256",
          "name": "_cloudProviderType",
          "type": "uint256"
        },
        {
          "internalType": "bool",
          "name": "_subnetStatusListed",
          "type": "bool"
        },
        {
          "internalType": "uint256",
          "name": "_price",
          "type": "uint256"
        },
        {
          "internalType": "uint256[]",
          "name": "_otherAttributes",
          "type": "uint256[]"
        },
        {
          "internalType": "uint256",
          "name": "_maxClusters",
          "type": "uint256"
        },
        {
          "internalType": "address[]",
          "name": "_whiteListedClusters",
          "type": "address[]"
        }
      ],
      "name": "createSubnet",
      "outputs": [],
      "stateMutability": "nonpayable",
      "type": "function"
    },
    {
      "inputs": [
        {
          "internalType": "bytes32",
          "name": "role",
          "type": "bytes32"
        }
      ],
      "name": "getRoleAdmin",
      "outputs": [
        {
          "internalType": "bytes32",
          "name": "",
          "type": "bytes32"
        }
      ],
      "stateMutability": "view",
      "type": "function"
    },
    {
      "inputs": [
        {
          "internalType": "bytes32",
          "name": "role",
          "type": "bytes32"
        },
        {
          "internalType": "address",
          "name": "account",
          "type": "address"
        }
      ],
      "name": "grantRole",
      "outputs": [],
      "stateMutability": "nonpayable",
      "type": "function"
    },
    {
      "inputs": [
        {
          "internalType": "bytes32",
          "name": "role",
          "type": "bytes32"
        },
        {
          "internalType": "address",
          "name": "account",
          "type": "address"
        }
      ],
      "name": "hasRole",
      "outputs": [
        {
          "internalType": "bool",
          "name": "",
          "type": "bool"
        }
      ],
      "stateMutability": "view",
      "type": "function"
    },
    {
      "inputs": [
        {
          "internalType": "contract IERC721Upgradeable",
          "name": "_DarkMatterNFT",
          "type": "address"
        },
        {
          "internalType": "address",
          "name": "_GlobalDAO",
          "type": "address"
        },
        {
          "internalType": "uint256",
          "name": "_coolDownTimeForPriceChange",
          "type": "uint256"
        }
      ],
      "name": "initialize",
      "outputs": [],
      "stateMutability": "nonpayable",
      "type": "function"
    },
    {
      "inputs": [
        {
          "internalType": "address",
          "name": "_operator",
          "type": "address"
        },
        {
          "internalType": "address",
          "name": "_from",
          "type": "address"
        },
        {
          "internalType": "uint256",
          "name": "_id",
          "type": "uint256"
        },
        {
          "internalType": "bytes",
          "name": "_data",
          "type": "bytes"
        }
      ],
      "name": "onERC721Received",
      "outputs": [
        {
          "internalType": "bytes4",
          "name": "",
          "type": "bytes4"
        }
      ],
      "stateMutability": "nonpayable",
      "type": "function"
    },
    {
      "inputs": [],
      "name": "pause",
      "outputs": [],
      "stateMutability": "nonpayable",
      "type": "function"
    },
    {
      "inputs": [],
      "name": "paused",
      "outputs": [
        {
          "internalType": "bool",
          "name": "",
          "type": "bool"
        }
      ],
      "stateMutability": "view",
      "type": "function"
    },
    {
      "inputs": [
        {
          "internalType": "contract IERC1155Upgradeable",
          "name": "token",
          "type": "address"
        },
        {
          "internalType": "uint256",
          "name": "tokenId",
          "type": "uint256"
        },
        {
          "internalType": "uint256",
          "name": "amount",
          "type": "uint256"
        }
      ],
      "name": "recoverERC1155",
      "outputs": [],
      "stateMutability": "nonpayable",
      "type": "function"
    },
    {
      "inputs": [
        {
          "internalType": "contract IERC721Upgradeable",
          "name": "token",
          "type": "address"
        },
        {
          "internalType": "uint256",
          "name": "tokenId",
          "type": "uint256"
        }
      ],
      "name": "recoverERC721",
      "outputs": [],
      "stateMutability": "nonpayable",
      "type": "function"
    },
    {
      "inputs": [
        {
          "internalType": "uint256",
          "name": "amount",
          "type": "uint256"
        }
      ],
      "name": "recoverETH",
      "outputs": [],
      "stateMutability": "nonpayable",
      "type": "function"
    },
    {
      "inputs": [
        {
          "internalType": "contract IERC20Upgradeable",
          "name": "token",
          "type": "address"
        }
      ],
      "name": "recoverTokens",
      "outputs": [],
      "stateMutability": "nonpayable",
      "type": "function"
    },
    {
      "inputs": [
        {
          "internalType": "uint256",
          "name": "subnetId",
          "type": "uint256"
        },
        {
          "internalType": "address",
          "name": "_blacklistAddress",
          "type": "address"
        },
        {
          "internalType": "uint256",
          "name": "_index",
          "type": "uint256"
        }
      ],
      "name": "removeClusterFromWhitelisted",
      "outputs": [],
      "stateMutability": "nonpayable",
      "type": "function"
    },
    {
      "inputs": [
        {
          "internalType": "bytes32",
          "name": "role",
          "type": "bytes32"
        },
        {
          "internalType": "address",
          "name": "account",
          "type": "address"
        }
      ],
      "name": "renounceRole",
      "outputs": [],
      "stateMutability": "nonpayable",
      "type": "function"
    },
    {
      "inputs": [
        {
          "internalType": "uint256",
          "name": "subnetId",
          "type": "uint256"
        },
        {
          "internalType": "uint256",
          "name": "_price",
          "type": "uint256"
        }
      ],
      "name": "requestClusterPriceChange",
      "outputs": [],
      "stateMutability": "nonpayable",
      "type": "function"
    },
    {
      "inputs": [
        {
          "internalType": "uint256",
          "name": "subnetId",
          "type": "uint256"
        }
      ],
      "name": "resetWhitelistClusters",
      "outputs": [],
      "stateMutability": "nonpayable",
      "type": "function"
    },
    {
      "inputs": [
        {
          "internalType": "bytes32",
          "name": "role",
          "type": "bytes32"
        },
        {
          "internalType": "address",
          "name": "account",
          "type": "address"
        }
      ],
      "name": "revokeRole",
      "outputs": [],
      "stateMutability": "nonpayable",
      "type": "function"
    },
    {
      "inputs": [
        {
          "internalType": "uint256",
          "name": "",
          "type": "uint256"
        }
      ],
      "name": "subnetAttributes",
      "outputs": [
        {
          "internalType": "uint256",
          "name": "subnetType",
          "type": "uint256"
        },
        {
          "internalType": "bool",
          "name": "sovereignStatus",
          "type": "bool"
        },
        {
          "internalType": "uint256",
          "name": "cloudProviderType",
          "type": "uint256"
        },
        {
          "internalType": "bool",
          "name": "subnetStatusListed",
          "type": "bool"
        },
        {
          "internalType": "uint256",
          "name": "price",
          "type": "uint256"
        },
        {
          "internalType": "uint256",
          "name": "maxClusters",
          "type": "uint256"
        }
      ],
      "stateMutability": "view",
      "type": "function"
    },
    {
      "inputs": [
        {
          "internalType": "uint256",
          "name": "",
          "type": "uint256"
        },
        {
          "internalType": "uint256",
          "name": "",
          "type": "uint256"
        }
      ],
      "name": "subnetClusters",
      "outputs": [
        {
          "internalType": "address",
          "name": "ClusterDAO",
          "type": "address"
        },
        {
          "internalType": "string",
          "name": "DNSIP",
          "type": "string"
        },
        {
          "internalType": "bool",
          "name": "listed",
          "type": "bool"
        }
      ],
      "stateMutability": "view",
      "type": "function"
    },
    {
      "inputs": [
        {
          "internalType": "uint256",
          "name": "",
          "type": "uint256"
        }
      ],
      "name": "subnetLocalDAO",
      "outputs": [
        {
          "internalType": "address",
          "name": "",
          "type": "address"
        }
      ],
      "stateMutability": "view",
      "type": "function"
    },
    {
      "inputs": [
        {
          "internalType": "bytes4",
          "name": "interfaceId",
          "type": "bytes4"
        }
      ],
      "name": "supportsInterface",
      "outputs": [
        {
          "internalType": "bool",
          "name": "",
          "type": "bool"
        }
      ],
      "stateMutability": "view",
      "type": "function"
    },
    {
      "inputs": [
        {
          "internalType": "uint256",
          "name": "subnetId",
          "type": "uint256"
        }
      ],
      "name": "totalClusterSpotsAvailable",
      "outputs": [
        {
          "internalType": "uint256",
          "name": "",
          "type": "uint256"
        }
      ],
      "stateMutability": "view",
      "type": "function"
    },
    {
      "inputs": [
        {
          "internalType": "uint256",
          "name": "",
          "type": "uint256"
        }
      ],
      "name": "totalClustersSigned",
      "outputs": [
        {
          "internalType": "uint256",
          "name": "",
          "type": "uint256"
        }
      ],
      "stateMutability": "view",
      "type": "function"
    },
    {
      "inputs": [],
      "name": "totalSubnets",
      "outputs": [
        {
          "internalType": "uint256",
          "name": "",
          "type": "uint256"
        }
      ],
      "stateMutability": "view",
      "type": "function"
    },
    {
      "inputs": [
        {
          "internalType": "uint256",
          "name": "subnetId",
          "type": "uint256"
        },
        {
          "internalType": "uint256",
          "name": "clusterId",
          "type": "uint256"
        },
        {
          "internalType": "address",
          "name": "_newOwner",
          "type": "address"
        }
      ],
      "name": "transferClusterDAOOwnership",
      "outputs": [],
      "stateMutability": "nonpayable",
      "type": "function"
    },
    {
      "inputs": [],
      "name": "unpause",
      "outputs": [],
      "stateMutability": "nonpayable",
      "type": "function"
    },
    {
      "inputs": [
        {
          "internalType": "uint256",
          "name": "",
          "type": "uint256"
        },
        {
          "internalType": "uint256",
          "name": "",
          "type": "uint256"
        }
      ],
      "name": "whiteListedClusters",
      "outputs": [
        {
          "internalType": "address",
          "name": "",
          "type": "address"
        }
      ],
      "stateMutability": "view",
      "type": "function"
    },
    {
      "inputs": [
        {
          "internalType": "uint256[]",
          "name": "_nftIds",
          "type": "uint256[]"
        }
      ],
      "name": "withdrawNFT",
      "outputs": [],
      "stateMutability": "nonpayable",
      "type": "function"
    }
  ],
  "bytecode": "0x608060405234801561001057600080fd5b50613520806100206000396000f3fe608060405234801561001057600080fd5b50600436106102745760003560e01c806372bbb5fe116101515780639cbf0762116100c3578063cbaa1d9b11610087578063cbaa1d9b14610655578063ceb7fa4b14610668578063d33355531461067b578063d547741f1461068e578063e63ab1e9146106a1578063fb91758a146106b657610274565b80639cbf07621461060b578063a217fddf1461061e578063a2b6715814610626578063a907dded1461062f578063aca7207a1461064257610274565b80638456cb59116101155780638456cb591461058357806384cb7f4f1461058b5780638ccf724b146105ab57806391d14854146105d257806394f7ec71146105e55780639830a5c5146105f857610274565b806372bbb5fe146104e057806379fed2eb146104f35780637a997ab7146105345780637cf4c3b714610549578063819d4cc61461057057610274565b806336568abe116101ea5780635c2b146f116101ae5780635c2b146f1461040c5780635c975abb1461041f5780636067945f1461042a57806360b5f7561461044c5780636b88fab4146104c4578063719eaefc146104d757610274565b806336568abe146103b85780633f4ba83a146103cb5780634b0b3dc7146103d35780635088193c146103e65780635a77ef9c146103f957610274565b806316114acd1161023c57806316114acd146103365780631794bb3c1461034957806320054db21461035c5780632158d6101461036f578063248a9ca3146103825780632f2ff15d146103a557610274565b806301ffc9a714610279578063080bf636146102a157806308498586146102b6578063142d92c5146102c9578063150b7a02146102fe575b600080fd5b61028c610287366004612aab565b6106dd565b60405190151581526020015b60405180910390f35b6102b46102af366004612cd6565b610716565b005b6102b46102c4366004612d56565b6109fe565b6102f07fc45069b141f83fdb9a15de03a5d47e65750f13669a7d610468dde2a64542857281565b604051908152602001610298565b61031d61030c36600461297b565b630a85bd0160e11b95945050505050565b6040516001600160e01b03199091168152602001610298565b6102b4610344366004612b07565b610b1f565b6102b4610357366004612b23565b610bbc565b6102b461036a366004612ba6565b610d44565b6102b461037d366004612bcc565b610fb4565b6102f0610390366004612a64565b60009081526065602052604090206001015490565b6102b46103b3366004612a7c565b611232565b6102b46103c6366004612a7c565b61125c565b6102b46112d6565b6102b46103e1366004612a15565b6112f9565b6102b46103f4366004612e09565b6113ea565b6102b4610407366004612d35565b611552565b6102b461041a366004612a64565b6115ca565b60975460ff1661028c565b61043d610438366004612d35565b6116de565b6040516102989392919061301f565b61049561045a366004612a64565b60cb60205260009081526040902080546001820154600283015460038401546004850154600690950154939460ff9384169492939091169186565b6040805196875294151560208701529385019290925215156060840152608083015260a082015260c001610298565b6102b46104d2366004612d8e565b6117a1565b6102f060d15481565b6102f06104ee366004612a64565b6118de565b61051c610501366004612a64565b60cc602052600090815260409020546001600160a01b031681565b6040516001600160a01b039091168152602001610298565b6102f06000805160206134ab83398151915281565b6102f07f515cb9a6faf5ac018717b314df173fdbfa087f4f7981dfa1b108db1f00015d1981565b6102b461057e366004612b63565b611971565b6102b46119e3565b6102f0610599366004612a64565b60cf6020526000908152604090205481565b6102f07f65c28dd45c4ff9294e0a087620aaf7cd9ce5fbe1aacb5d391aec529164025bd081565b61028c6105e0366004612a7c565b611a03565b61051c6105f3366004612d35565b611a2e565b6102b4610606366004612c91565b611a66565b6102b4610619366004612dbb565b611bcc565b6102f0600081565b6102f060ce5481565b6102b461063d366004612b07565b611cc1565b6102b4610650366004612a64565b611d1a565b6102b4610663366004612ad3565b611d79565b6102b4610676366004612a64565b611e10565b6102b4610689366004612a64565b611ed9565b6102b461069c366004612a7c565b611f11565b6102f06000805160206134cb83398151915281565b6102f07fd4656a873938c6a54143cf99a88af3386da566bdef9cba62b37bbb4b88969b2d81565b60006001600160e01b03198216637965db0b60e01b148061070e57506301ffc9a760e01b6001600160e01b03198316145b90505b919050565b60975460ff16156107425760405162461bcd60e51b8152600401610739906130d8565b60405180910390fd5b600084815260cb602052604090206001015460ff16156107ff57604080516020808201909252600081528451918501919091207fc5d2460186f7233c927e7db2dcc703c0e500b653ca82273b7bfad8045d85a47014156107fd5760405162461bcd60e51b815260206004820152603060248201527f444e532f49502063616e6e6f7420626520656d70747920666f72206e6f6e207360448201526f6f7665726569676e207375626e65747360801b6064820152608401610739565b505b600061080a856118de565b1161086f5760405162461bcd60e51b815260206004820152602f60248201527f4e6f2073706f747320617661696c61626c652c206d6178536c6f74732072656160448201526e18da195908199bdc881cdd589b995d608a1b6064820152608401610739565b60c9546001600160a01b03166323b872dd3330846040518463ffffffff1660e01b81526004016108a193929190612ffb565b600060405180830381600087803b1580156108bb57600080fd5b505af11580156108cf573d6000803e3d6000fd5b505050600085815260cf602090815260408083205460d083528184208185528352922080546001600160a01b0319166001600160a01b038716178155865192935061092292600190910191870190612703565b50600085815260d0602090815260408083208484528252808320600201805460ff1916600190811790915588845260cf9092529091205461096291611f36565b600086815260cf60205260409020557f9fb9ac4c6d9a62f6befa9ce65c92f896aeb8c8abea750a82bc01b12cdc85c0cd85828686336040516109a89594939291906132de565b60405180910390a160408051338152602081018790528082018390526060810184905290517f1015cbdf9c2e7decb331210c6daaa13e038656ae7309ee8a7a051781800111559181900360800190a15050505050565b60975460ff1615610a215760405162461bcd60e51b8152600401610739906130d8565b600083815260d0602090815260408083208584529091529020546001600160a01b03163314610a8a5760405162461bcd60e51b81526020600482015260156024820152742737ba103a34329031b63ab9ba32b91037bbb732b960591b6044820152606401610739565b600083815260d060209081526040808320858452909152902080546001600160a01b0319166001600160a01b0383161790557f781b079fc079d37024e79662c9a159bec216bc0fa98c48a5d0f9e44a02d85a1b8383610ae63390565b6040805193845260208401929092526001600160a01b0390811691830191909152831660608201526080015b60405180910390a1505050565b6000610b2a81611f49565b6040516370a0823160e01b8152306004820152610bb89033906001600160a01b038516906370a082319060240160206040518083038186803b158015610b6f57600080fd5b505afa158015610b83573d6000803e3d6000fd5b505050506040513d601f19601f82011682018060405250810190610ba79190612b8e565b6001600160a01b0385169190611f53565b5050565b6000610bc86001611fa5565b90508015610be0576000805461ff0019166101001790555b610be861202a565b610bf0612053565b610bfb600084612086565b610c257f65c28dd45c4ff9294e0a087620aaf7cd9ce5fbe1aacb5d391aec529164025bd084612086565b610c4f7f515cb9a6faf5ac018717b314df173fdbfa087f4f7981dfa1b108db1f00015d1984612086565b610c797fc45069b141f83fdb9a15de03a5d47e65750f13669a7d610468dde2a64542857284612086565b610ca37fd4656a873938c6a54143cf99a88af3386da566bdef9cba62b37bbb4b88969b2d84612086565b610cbb6000805160206134ab83398151915284612086565b610cd36000805160206134cb83398151915284612086565b60c980546001600160a01b0319166001600160a01b038616179055600060ce5560d18290558015610d3e576000805461ff0019169055604051600181527f7f26b83ff96e1f2b6a682f133852f6798a09c465da95921460cefb38474024989060200160405180910390a15b50505050565b600083815260cd6020526040902080546001600160a01b038416919083908110610d7e57634e487b7160e01b600052603260045260246000fd5b6000918252602090912001546001600160a01b031614610df05760405162461bcd60e51b815260206004820152602760248201527f4164647265737320646f6e6f74206d61746368207769746820696e64657820706044820152661c9bdd9a59195960ca1b6064820152608401610739565b610e086000805160206134ab833981519152336105e0565b80610e295750600083815260cc60205260409020546001600160a01b031633145b610e455760405162461bcd60e51b81526004016107399061307b565b805b600084815260cd6020526040902054610e62906001906133ab565b811015610f2257600084815260cd60205260409020610e82826001613374565b81548110610ea057634e487b7160e01b600052603260045260246000fd5b600091825260208083209091015486835260cd909152604090912080546001600160a01b039092169183908110610ee757634e487b7160e01b600052603260045260246000fd5b600091825260209091200180546001600160a01b0319166001600160a01b039290921691909117905580610f1a81613440565b915050610e47565b50600083815260cd60205260409020805480610f4e57634e487b7160e01b600052603160045260246000fd5b600082815260209020810160001990810180546001600160a01b03191690550190556040517f061b5b655cfeaf344bc505d25124654c45ca9b9d781c11dc81a6222a4169850b90610b1290859085909182526001600160a01b0316602082015260400190565b60975460ff1615610fd75760405162461bcd60e51b8152600401610739906130d8565b60c9546001600160a01b03166323b872dd33308d6040518463ffffffff1660e01b815260040161100993929190612ffb565b600060405180830381600087803b15801561102357600080fd5b505af1158015611037573d6000803e3d6000fd5b505050508860cc600060ce54815260200190815260200160002060006101000a8154816001600160a01b0302191690836001600160a01b031602179055506110b96040518060e0016040528060008152602001600015158152602001600081526020016000151581526020016000815260200160608152602001600081525090565b888152871515602080830191825260408084018a815289151560608601908152608086018a815260a087018a815260c088018a905260ce54600090815260cb87529490942087518155955160018701805491151560ff19928316179055925160028701559051600386018054911515919093161790915551600484015551805184939261114d926005850192910190612787565b5060c082015181600601559050507f31ed678b0d5019e9d1b9a59974aadfdb9adf5ecb0c766fba0c7f2b0a82e0269b60ce548b8b8b8b8b8b8b8b8b61118f3390565b6040516111a69b9a9998979695949392919061319b565b60405180910390a160ce546040805133815260208101929092528181018d9052517f1e8ca4c189ee24e9a00297282e66ae881c6e3788821b188c51d335cbafd9416a9181900360600190a160ce54600090815260cd602090815260409091208351611213928501906127c1565b5060ce54611222906001611f36565b60ce555050505050505050505050565b60008281526065602052604090206001015461124d81611f49565b6112578383612086565b505050565b6001600160a01b03811633146112cc5760405162461bcd60e51b815260206004820152602f60248201527f416363657373436f6e74726f6c3a2063616e206f6e6c792072656e6f756e636560448201526e103937b632b9903337b91039b2b63360891b6064820152608401610739565b610bb8828261210c565b6000805160206134cb8339815191526112ee81611f49565b6112f6612173565b50565b600061130481611f49565b60005b82518110156113ae5760c9546001600160a01b03166323b872dd303386858151811061134357634e487b7160e01b600052603260045260246000fd5b60200260200101516040518463ffffffff1660e01b815260040161136993929190612ffb565b600060405180830381600087803b15801561138357600080fd5b505af1158015611397573d6000803e3d6000fd5b5050505080806113a690613440565b915050611307565b507f44f90752d4e829c0ece87e335cabadbe59eae106989e8c33f98cffd4f301c273826040516113de9190613055565b60405180910390a15050565b7f515cb9a6faf5ac018717b314df173fdbfa087f4f7981dfa1b108db1f00015d1961141481611f49565b876001141561143357600089815260cb602052604090208790556114fd565b876002141561145e57600089815260cb60205260409020600101805460ff19168715151790556114fd565b876003141561148057600089815260cb602052604090206002018590556114fd565b87600414156114ab57600089815260cb60205260409020600301805460ff19168515151790556114fd565b87600514156114df57600089815260cb6020908152604090912084516114d992600590920191860190612787565b506114fd565b87600614156114fd57600089815260cb602052604090206006018290555b600089815260cb602052604090207f99241549bbbbe025fa851c97af34b9336fbef961cabf93a92e6a492653505ff8908a903360405161153f93929190613238565b60405180910390a1505050505050505050565b7fd4656a873938c6a54143cf99a88af3386da566bdef9cba62b37bbb4b88969b2d61157c81611f49565b600083815260ca602090815260409182902042815560010184905581518581529081018490527f1ed17c4f9185b5e90b57ba3c3634e7836decea23cbffe2cf3969f2f15d4cecba9101610b12565b6000805160206134ab8339815191526115e281611f49565b600082815260cb60205260409020546001146116385760405162461bcd60e51b8152602060048201526015602482015274105b1c9958591e481c1d589b1a58c81cdd589b995d605a1b6044820152606401610739565b6116506000805160206134ab833981519152336105e0565b806116715750600082815260cc60205260409020546001600160a01b031633145b61168d5760405162461bcd60e51b81526004016107399061307b565b600082815260cd602052604090206060805190916116ad916080906127c1565b506040518381527f9e70d79633df959d6b05d1099cfa06b805b55ad2ec5b7482f72b5d3413f5fdb090602001610b12565b60d0602090815260009283526040808420909152908252902080546001820180546001600160a01b03909216929161171590613405565b80601f016020809104026020016040519081016040528092919081815260200182805461174190613405565b801561178e5780601f106117635761010080835404028352916020019161178e565b820191906000526020600020905b81548152906001019060200180831161177157829003601f168201915b5050506002909301549192505060ff1683565b6117cb7f65c28dd45c4ff9294e0a087620aaf7cd9ce5fbe1aacb5d391aec529164025bd0336105e0565b806117f75750600083815260d0602090815260408083208584529091529020546001600160a01b031633145b6118605760405162461bcd60e51b815260206004820152603460248201527f53656e646572206973206e6f7420436c7573746572206f776e6572206f722068604482015273617320434c55535445525f4c4953545f524f4c4560601b6064820152608401610739565b600083815260d0602090815260408083208584529091529020600201805460ff19168215151790557fa1b9ff692cca28003589ba2e08d6d470d2daca1de6e8207ef34bc2d64a05188183836118b23390565b6040805193845260208401929092526001600160a01b0316908201528215156060820152608001610b12565b600081815260cf602052604081205481805b8281101561193c57600085815260d06020908152604080832084845290915290206002015460ff1661192a57611927826001611f36565b91505b8061193481613440565b9150506118f0565b5060006119498383612206565b600086815260cb60205260409020600601549091506119689082612206565b95945050505050565b600061197c81611f49565b604051632142170760e11b81526001600160a01b038416906342842e0e906119ac90309033908790600401612ffb565b600060405180830381600087803b1580156119c657600080fd5b505af11580156119da573d6000803e3d6000fd5b50505050505050565b6000805160206134cb8339815191526119fb81611f49565b6112f6612212565b60009182526065602090815260408084206001600160a01b0393909316845291905290205460ff1690565b60cd6020528160005260406000208181548110611a4a57600080fd5b6000918252602090912001546001600160a01b03169150829050565b600082815260cb6020526040902054600114611abc5760405162461bcd60e51b8152602060048201526015602482015274105b1c9958591e481c1d589b1a58c81cdd589b995d605a1b6044820152606401610739565b611ad46000805160206134ab833981519152336105e0565b80611af55750600082815260cc60205260409020546001600160a01b031633145b611b115760405162461bcd60e51b81526004016107399061307b565b60005b8151811015611b9a57600083815260cd602052604090208251839083908110611b4d57634e487b7160e01b600052603260045260246000fd5b60209081029190910181015182546001810184556000938452919092200180546001600160a01b0319166001600160a01b0390921691909117905580611b9281613440565b915050611b14565b507f796f24f814d152716ce0b8e64483e688c61dca897d5816d74efdc8e0665be43282826040516113de92919061321f565b60975460ff1615611bef5760405162461bcd60e51b8152600401610739906130d8565b600083815260d0602090815260408083208584529091529020546001600160a01b03163314611c605760405162461bcd60e51b815260206004820152601b60248201527f53656e646572206973206e6f7420436c7573746572206f776e657200000000006044820152606401610739565b600083815260d06020908152604080832085845282529091208251611c8d92600190920191840190612703565b507fe24e4bfe4f4c3361921b5d9ef1eac8f9a55d09ae3d9699c51d1a668ede2c8319838383604051610b12939291906132bf565b6000611ccc81611f49565b60c980546001600160a01b0319166001600160a01b0384169081179091556040519081527f0509ed52799171e23f5c37dfa66db8e0dadb499373ec7eb90b79a6a6ffe72304906020016113de565b7fc45069b141f83fdb9a15de03a5d47e65750f13669a7d610468dde2a645428572611d4481611f49565b60d18290556040518281527fd62325d508fc47cbcfee1d1874e8629885af65954ba2d26dccfe1381131a45ca906020016113de565b6000611d8481611f49565b604051637921219560e11b8152306004820152336024820152604481018490526064810183905260a06084820152600260a482015261060f60f31b60c48201526001600160a01b0385169063f242432a9060e401600060405180830381600087803b158015611df257600080fd5b505af1158015611e06573d6000803e3d6000fd5b5050505050505050565b60d154600082815260ca6020526040902054611e2b91611f36565b4211611e795760405162461bcd60e51b815260206004820152601a60248201527f436f6f6c646f776e2074696d65206e6f74206f766572207965740000000000006044820152606401610739565b600081815260ca602081815260408084206001015460cb8352938190206004018490559181528151848152908101929092527ff20bcb77e2b078f64b327c721f384e4cbd50d02cf0088283c4ecd13711750b38910160405180910390a150565b6000611ee481611f49565b604051339083156108fc029084906000818181858888f19350505050158015611257573d6000803e3d6000fd5b600082815260656020526040902060010154611f2c81611f49565b611257838361210c565b6000611f428284613374565b9392505050565b6112f6813361226a565b604080516001600160a01b038416602482015260448082018490528251808303909101815260649091019091526020810180516001600160e01b031663a9059cbb60e01b1790526112579084906122ce565b60008054610100900460ff1615611fec578160ff166001148015611fc85750303b155b611fe45760405162461bcd60e51b815260040161073990613102565b506000610711565b60005460ff8084169116106120135760405162461bcd60e51b815260040161073990613102565b506000805460ff191660ff83161790556001610711565b600054610100900460ff166120515760405162461bcd60e51b815260040161073990613150565b565b600054610100900460ff1661207a5760405162461bcd60e51b815260040161073990613150565b6097805460ff19169055565b6120908282611a03565b610bb85760008281526065602090815260408083206001600160a01b03851684529091529020805460ff191660011790556120c83390565b6001600160a01b0316816001600160a01b0316837f2f8788117e7eff1d82e926ec794901d17c78024a50270940304540a733656f0d60405160405180910390a45050565b6121168282611a03565b15610bb85760008281526065602090815260408083206001600160a01b0385168085529252808320805460ff1916905551339285917ff6391f5c32d9c69d2a47ea670b442974b53935d1edc7fd64eb21e047a839171b9190a45050565b60975460ff166121bc5760405162461bcd60e51b815260206004820152601460248201527314185d5cd8589b194e881b9bdd081c185d5cd95960621b6044820152606401610739565b6097805460ff191690557f5db9ee0a495bf2e6ff9c91a7834c1ba4fdd244a5e8aa4e537bd38aeae4b073aa335b6040516001600160a01b03909116815260200160405180910390a1565b6000611f4282846133ab565b60975460ff16156122355760405162461bcd60e51b8152600401610739906130d8565b6097805460ff191660011790557f62e78cea01bee320cd4e420270b5ea74000d11b0c9f74754ebdbfc544b05a2586121e93390565b6122748282611a03565b610bb85761228c816001600160a01b031660146123a0565b6122978360206123a0565b6040516020016122a8929190612f86565b60408051601f198184030181529082905262461bcd60e51b825261073991600401613068565b6000612323826040518060400160405280602081526020017f5361666545524332303a206c6f772d6c6576656c2063616c6c206661696c6564815250856001600160a01b03166125829092919063ffffffff16565b80519091501561125757808060200190518101906123419190612a48565b6112575760405162461bcd60e51b815260206004820152602a60248201527f5361666545524332303a204552433230206f7065726174696f6e20646964206e6044820152691bdd081cdd58d8d9595960b21b6064820152608401610739565b606060006123af83600261338c565b6123ba906002613374565b67ffffffffffffffff8111156123e057634e487b7160e01b600052604160045260246000fd5b6040519080825280601f01601f19166020018201604052801561240a576020820181803683370190505b509050600360fc1b8160008151811061243357634e487b7160e01b600052603260045260246000fd5b60200101906001600160f81b031916908160001a905350600f60fb1b8160018151811061247057634e487b7160e01b600052603260045260246000fd5b60200101906001600160f81b031916908160001a905350600061249484600261338c565b61249f906001613374565b90505b6001811115612533576f181899199a1a9b1b9c1cb0b131b232b360811b85600f16601081106124e157634e487b7160e01b600052603260045260246000fd5b1a60f81b82828151811061250557634e487b7160e01b600052603260045260246000fd5b60200101906001600160f81b031916908160001a90535060049490941c9361252c816133ee565b90506124a2565b508315611f425760405162461bcd60e51b815260206004820181905260248201527f537472696e67733a20686578206c656e67746820696e73756666696369656e746044820152606401610739565b60606125918484600085612599565b949350505050565b6060824710156125fa5760405162461bcd60e51b815260206004820152602660248201527f416464726573733a20696e73756666696369656e742062616c616e636520666f6044820152651c8818d85b1b60d21b6064820152608401610739565b6001600160a01b0385163b6126515760405162461bcd60e51b815260206004820152601d60248201527f416464726573733a2063616c6c20746f206e6f6e2d636f6e74726163740000006044820152606401610739565b600080866001600160a01b0316858760405161266d9190612f6a565b60006040518083038185875af1925050503d80600081146126aa576040519150601f19603f3d011682016040523d82523d6000602084013e6126af565b606091505b50915091506126bf8282866126ca565b979650505050505050565b606083156126d9575081611f42565b8251156126e95782518084602001fd5b8160405162461bcd60e51b81526004016107399190613068565b82805461270f90613405565b90600052602060002090601f0160209004810192826127315760008555612777565b82601f1061274a57805160ff1916838001178555612777565b82800160010185558215612777579182015b8281111561277757825182559160200191906001019061275c565b50612783929150612816565b5090565b828054828255906000526020600020908101928215612777579160200282018281111561277757825182559160200191906001019061275c565b828054828255906000526020600020908101928215612777579160200282015b8281111561277757825182546001600160a01b0319166001600160a01b039091161782556020909201916001909101906127e1565b5b808211156127835760008155600101612817565b803561071181613487565b600082601f830112612846578081fd5b8135602061285b61285683613350565b61331f565b8281528181019085830183850287018401881015612877578586fd5b855b8581101561289e57813561288c81613487565b84529284019290840190600101612879565b5090979650505050505050565b600082601f8301126128bb578081fd5b813560206128cb61285683613350565b82815281810190858301838502870184018810156128e7578586fd5b855b8581101561289e578135845292840192908401906001016128e9565b80356107118161349c565b600082601f830112612920578081fd5b813567ffffffffffffffff81111561293a5761293a613471565b61294d601f8201601f191660200161331f565b818152846020838601011115612961578283fd5b816020850160208301379081016020019190915292915050565b600080600080600060808688031215612992578081fd5b853561299d81613487565b945060208601356129ad81613487565b935060408601359250606086013567ffffffffffffffff808211156129d0578283fd5b818801915088601f8301126129e3578283fd5b8135818111156129f1578384fd5b896020828501011115612a02578384fd5b9699959850939650602001949392505050565b600060208284031215612a26578081fd5b813567ffffffffffffffff811115612a3c578182fd5b612591848285016128ab565b600060208284031215612a59578081fd5b8151611f428161349c565b600060208284031215612a75578081fd5b5035919050565b60008060408385031215612a8e578182fd5b823591506020830135612aa081613487565b809150509250929050565b600060208284031215612abc578081fd5b81356001600160e01b031981168114611f42578182fd5b600080600060608486031215612ae7578283fd5b8335612af281613487565b95602085013595506040909401359392505050565b600060208284031215612b18578081fd5b8135611f4281613487565b600080600060608486031215612b37578081fd5b8335612b4281613487565b92506020840135612b5281613487565b929592945050506040919091013590565b60008060408385031215612b75578182fd5b8235612b8081613487565b946020939093013593505050565b600060208284031215612b9f578081fd5b5051919050565b600080600060608486031215612bba578081fd5b833592506020840135612b5281613487565b6000806000806000806000806000806101408b8d031215612beb578788fd5b8a359950612bfb60208c0161282b565b985060408b01359750612c1060608c01612905565b965060808b01359550612c2560a08c01612905565b945060c08b0135935060e08b013567ffffffffffffffff80821115612c48578485fd5b612c548e838f016128ab565b94506101008d013593506101208d0135915080821115612c72578283fd5b50612c7f8d828e01612836565b9150509295989b9194979a5092959850565b60008060408385031215612ca3578182fd5b82359150602083013567ffffffffffffffff811115612cc0578182fd5b612ccc85828601612836565b9150509250929050565b60008060008060808587031215612ceb578182fd5b84359350602085013567ffffffffffffffff811115612d08578283fd5b612d1487828801612910565b9350506040850135612d2581613487565b9396929550929360600135925050565b60008060408385031215612d47578182fd5b50508035926020909101359150565b600080600060608486031215612d6a578081fd5b83359250602084013591506040840135612d8381613487565b809150509250925092565b600080600060608486031215612da2578081fd5b83359250602084013591506040840135612d838161349c565b600080600060608486031215612dcf578081fd5b8335925060208401359150604084013567ffffffffffffffff811115612df3578182fd5b612dff86828701612910565b9150509250925092565b600080600080600080600080610100898b031215612e25578182fd5b8835975060208901359650604089013595506060890135612e458161349c565b94506080890135935060a0890135612e5c8161349c565b925060c089013567ffffffffffffffff811115612e77578283fd5b612e838b828c016128ab565b92505060e089013590509295985092959890939650565b6000815180845260208085019450808401835b83811015612ed25781516001600160a01b031687529582019590820190600101612ead565b509495945050505050565b6000815180845260208085019450808401835b83811015612ed257815187529582019590820190600101612ef0565b6000815480845260208085019450838352808320835b83811015612ed257815487529582019560019182019101612f22565b60008151808452612f568160208601602086016133c2565b601f01601f19169290920160200192915050565b60008251612f7c8184602087016133c2565b9190910192915050565b60007f416363657373436f6e74726f6c3a206163636f756e742000000000000000000082528351612fbe8160178501602088016133c2565b7001034b99036b4b9b9b4b733903937b6329607d1b6017918401918201528351612fef8160288401602088016133c2565b01602801949350505050565b6001600160a01b039384168152919092166020820152604081019190915260600190565b6001600160a01b038416815260606020820181905260009061304390830185612f3e565b90508215156040830152949350505050565b600060208252611f426020830184612edd565b600060208252611f426020830184612f3e565b6020808252603f908201527f4f6e6c792057484954454c4953545f524f4c45206f72204c6f63616c2044414f60408201527f2063616e20656469742077686974656c69737465642061646472657373657300606082015260800190565b60208082526010908201526f14185d5cd8589b194e881c185d5cd95960821b604082015260600190565b6020808252602e908201527f496e697469616c697a61626c653a20636f6e747261637420697320616c72656160408201526d191e481a5b9a5d1a585b1a5e995960921b606082015260800190565b6020808252602b908201527f496e697469616c697a61626c653a20636f6e7472616374206973206e6f74206960408201526a6e697469616c697a696e6760a81b606082015260800190565b60006101608d835260018060a01b03808e1660208501528c60408501528b151560608501528a608085015289151560a08501528860c08501528160e08501526131e682850189612edd565b9150866101008501528382036101208501526132028287612e9a565b925080851661014085015250509c9b505050505050505050505050565b6000838252604060208301526125916040830184612e9a565b60008482526060602083015283546060830152613259600185015460ff1690565b15156080830152600284015460a0830152600384015460ff16151560c0830152600484015460e08084019190915261010083015261329e610140830160058601612f0c565b60068501546101208401526001600160a01b03841660408401529050612591565b6000848252836020830152606060408301526119686060830184612f3e565b600086825285602083015260a060408301526132fd60a0830186612f3e565b6001600160a01b03948516606084015292909316608090910152949350505050565b604051601f8201601f1916810167ffffffffffffffff8111828210171561334857613348613471565b604052919050565b600067ffffffffffffffff82111561336a5761336a613471565b5060209081020190565b600082198211156133875761338761345b565b500190565b60008160001904831182151516156133a6576133a661345b565b500290565b6000828210156133bd576133bd61345b565b500390565b60005b838110156133dd5781810151838201526020016133c5565b83811115610d3e5750506000910152565b6000816133fd576133fd61345b565b506000190190565b60028104600182168061341957607f821691505b6020821081141561343a57634e487b7160e01b600052602260045260246000fd5b50919050565b60006000198214156134545761345461345b565b5060010190565b634e487b7160e01b600052601160045260246000fd5b634e487b7160e01b600052604160045260246000fd5b6001600160a01b03811681146112f657600080fd5b80151581146112f657600080fdfedc72ed553f2544c34465af23b847953efeb813428162d767f9ba5f4013be676065d7a28e3265b37a6474929f336521b332c1681b933f6cb9f3376673440d862aa2646970667358221220f94e14eaeb096d4c032c06d0f7da69f6a09a03e19b0e62d53837383352193d3964736f6c63430008020033",
  "linkReferences": {},
  "deployedLinkReferences": {}
}