{
  "_format": "hh-sol-artifact-1",
  "contractName": "Registration",
  "sourceName": "contracts/Registration.sol",
  "abi": [
    {
      "anonymous": false,
      "inputs": [
        {
          "indexed": false,
          "internalType": "uint256",
          "name": "subnetId",
          "type": "uint256"
        },
        {
          "indexed": false,
          "internalType": "address[]",
          "name": "whitelistAddresses",
          "type": "address[]"
        }
      ],
      "name": "AddedToWhitelistCluster",
      "type": "event"
    },
    {
      "anonymous": false,
      "inputs": [
        {
          "indexed": false,
          "internalType": "uint256",
          "name": "subnetId",
          "type": "uint256"
        },
        {
          "indexed": false,
          "internalType": "uint256[]",
          "name": "unitPrices",
          "type": "uint256[]"
        }
      ],
      "name": "AppliedChangedClusterPrice",
      "type": "event"
    },
    {
      "anonymous": false,
      "inputs": [
        {
          "indexed": false,
          "internalType": "uint256",
          "name": "coolDownTimeSecs",
          "type": "uint256"
        }
      ],
      "name": "ChangedCoolDownForPriceChange",
      "type": "event"
    },
    {
      "anonymous": false,
      "inputs": [
        {
          "indexed": false,
          "internalType": "uint256",
          "name": "subnetId",
          "type": "uint256"
        },
        {
          "indexed": false,
          "internalType": "uint256",
          "name": "clusterId",
          "type": "uint256"
        },
        {
          "indexed": false,
          "internalType": "string",
          "name": "newDNSIP",
          "type": "string"
        }
      ],
      "name": "ChangedDNSIP",
      "type": "event"
    },
    {
      "anonymous": false,
      "inputs": [
        {
          "indexed": false,
          "internalType": "uint256",
          "name": "subnetId",
          "type": "uint256"
        },
        {
          "indexed": false,
          "internalType": "uint256",
          "name": "clusterId",
          "type": "uint256"
        },
        {
          "indexed": false,
          "internalType": "address",
          "name": "sender",
          "type": "address"
        },
        {
          "indexed": false,
          "internalType": "uint8",
          "name": "allowStatus",
          "type": "uint8"
        }
      ],
      "name": "ChangedListingCluster",
      "type": "event"
    },
    {
      "anonymous": false,
      "inputs": [
        {
          "indexed": false,
          "internalType": "address",
          "name": "DarkMatterNFT",
          "type": "address"
        }
      ],
      "name": "ChangedNFTAddress",
      "type": "event"
    },
    {
      "anonymous": false,
      "inputs": [
        {
          "indexed": false,
          "internalType": "uint256",
          "name": "subnetId",
          "type": "uint256"
        },
        {
          "indexed": false,
          "internalType": "uint256",
          "name": "clusterId",
          "type": "uint256"
        },
        {
          "indexed": false,
          "internalType": "string",
          "name": "DNS_IP",
          "type": "string"
        },
        {
          "indexed": false,
          "internalType": "address",
          "name": "clusterDAO",
          "type": "address"
        },
        {
          "indexed": false,
          "internalType": "address",
          "name": "sender",
          "type": "address"
        }
      ],
      "name": "ClusterSignedUp",
      "type": "event"
    },
    {
      "anonymous": false,
      "inputs": [
        {
          "indexed": false,
          "internalType": "uint256",
          "name": "daoRate",
          "type": "uint256"
        },
        {
          "indexed": false,
          "internalType": "uint256",
          "name": "_daoRate",
          "type": "uint256"
        }
      ],
      "name": "DAORateChanged",
      "type": "event"
    },
    {
      "anonymous": false,
      "inputs": [
        {
          "indexed": false,
          "internalType": "uint8",
          "name": "version",
          "type": "uint8"
        }
      ],
      "name": "Initialized",
      "type": "event"
    },
    {
      "anonymous": false,
      "inputs": [
        {
          "indexed": false,
          "internalType": "address",
          "name": "userAddress",
          "type": "address"
        },
        {
          "indexed": false,
          "internalType": "uint256",
          "name": "subnetId",
          "type": "uint256"
        },
        {
          "indexed": false,
          "internalType": "uint256",
          "name": "clusterId",
          "type": "uint256"
        },
        {
          "indexed": false,
          "internalType": "uint256",
          "name": "nftID",
          "type": "uint256"
        }
      ],
      "name": "NFTLockedForCluster",
      "type": "event"
    },
    {
      "anonymous": false,
      "inputs": [
        {
          "indexed": false,
          "internalType": "address",
          "name": "userAddress",
          "type": "address"
        },
        {
          "indexed": false,
          "internalType": "uint256",
          "name": "subnetId",
          "type": "uint256"
        },
        {
          "indexed": false,
          "internalType": "uint256",
          "name": "nftID",
          "type": "uint256"
        }
      ],
      "name": "NFTLockedForSubnet",
      "type": "event"
    },
    {
      "anonymous": false,
      "inputs": [
        {
          "indexed": false,
          "internalType": "address",
          "name": "account",
          "type": "address"
        }
      ],
      "name": "Paused",
      "type": "event"
    },
    {
      "anonymous": false,
      "inputs": [
        {
          "indexed": false,
          "internalType": "uint256",
          "name": "subnetId",
          "type": "uint256"
        },
        {
          "indexed": false,
          "internalType": "address",
          "name": "blacklistAddress",
          "type": "address"
        }
      ],
      "name": "RemovedWhitelistCluster",
      "type": "event"
    },
    {
      "anonymous": false,
      "inputs": [
        {
          "indexed": false,
          "internalType": "uint256",
          "name": "subnetId",
          "type": "uint256"
        },
        {
          "indexed": false,
          "internalType": "uint256[]",
          "name": "unitPrices",
          "type": "uint256[]"
        }
      ],
      "name": "RequestedClusterPriceChange",
      "type": "event"
    },
    {
      "anonymous": false,
      "inputs": [
        {
          "indexed": false,
          "internalType": "uint256",
          "name": "subnetId",
          "type": "uint256"
        }
      ],
      "name": "ResetWhitelistCluster",
      "type": "event"
    },
    {
      "anonymous": false,
      "inputs": [
        {
          "indexed": true,
          "internalType": "bytes32",
          "name": "role",
          "type": "bytes32"
        },
        {
          "indexed": true,
          "internalType": "bytes32",
          "name": "previousAdminRole",
          "type": "bytes32"
        },
        {
          "indexed": true,
          "internalType": "bytes32",
          "name": "newAdminRole",
          "type": "bytes32"
        }
      ],
      "name": "RoleAdminChanged",
      "type": "event"
    },
    {
      "anonymous": false,
      "inputs": [
        {
          "indexed": true,
          "internalType": "bytes32",
          "name": "role",
          "type": "bytes32"
        },
        {
          "indexed": true,
          "internalType": "address",
          "name": "account",
          "type": "address"
        },
        {
          "indexed": true,
          "internalType": "address",
          "name": "sender",
          "type": "address"
        }
      ],
      "name": "RoleGranted",
      "type": "event"
    },
    {
      "anonymous": false,
      "inputs": [
        {
          "indexed": true,
          "internalType": "bytes32",
          "name": "role",
          "type": "bytes32"
        },
        {
          "indexed": true,
          "internalType": "address",
          "name": "account",
          "type": "address"
        },
        {
          "indexed": true,
          "internalType": "address",
          "name": "sender",
          "type": "address"
        }
      ],
      "name": "RoleRevoked",
      "type": "event"
    },
    {
      "anonymous": false,
      "inputs": [
        {
          "indexed": false,
          "internalType": "uint256",
          "name": "subnetId",
          "type": "uint256"
        },
        {
          "components": [
            {
              "internalType": "uint256",
              "name": "subnetType",
              "type": "uint256"
            },
            {
              "internalType": "bool",
              "name": "sovereignStatus",
              "type": "bool"
            },
            {
              "internalType": "uint256",
              "name": "cloudProviderType",
              "type": "uint256"
            },
            {
              "internalType": "bool",
              "name": "subnetStatusListed",
              "type": "bool"
            },
            {
              "internalType": "uint256[]",
              "name": "unitPrices",
              "type": "uint256[]"
            },
            {
              "internalType": "uint256[]",
              "name": "otherAttributes",
              "type": "uint256[]"
            },
            {
              "internalType": "uint256",
              "name": "maxClusters",
              "type": "uint256"
            },
            {
              "internalType": "uint256",
              "name": "supportFeeRate",
              "type": "uint256"
            },
            {
              "internalType": "uint256",
              "name": "stackFeesReqd",
              "type": "uint256"
            }
          ],
          "indexed": false,
          "internalType": "struct Registration.SubnetAttributes",
          "name": "subnetAttributes",
          "type": "tuple"
        },
        {
          "indexed": false,
          "internalType": "address",
          "name": "sender",
          "type": "address"
        }
      ],
      "name": "SubnetAttributesChanged",
      "type": "event"
    },
    {
      "anonymous": false,
      "inputs": [
        {
          "indexed": false,
          "internalType": "uint256",
          "name": "subnetId",
          "type": "uint256"
        },
        {
          "indexed": false,
          "internalType": "address",
          "name": "subnetLocalDAO",
          "type": "address"
        },
        {
          "indexed": false,
          "internalType": "uint256",
          "name": "subnetType",
          "type": "uint256"
        },
        {
          "indexed": false,
          "internalType": "bool",
          "name": "sovereignStatus",
          "type": "bool"
        },
        {
          "indexed": false,
          "internalType": "uint256",
          "name": "cloudProviderType",
          "type": "uint256"
        },
        {
          "indexed": false,
          "internalType": "bool",
          "name": "subnetStatusListed",
          "type": "bool"
        },
        {
          "indexed": false,
          "internalType": "uint256[]",
          "name": "unitPrices",
          "type": "uint256[]"
        },
        {
          "indexed": false,
          "internalType": "uint256[]",
          "name": "otherAttributes",
          "type": "uint256[]"
        },
        {
          "indexed": false,
          "internalType": "uint256",
          "name": "maxClusters",
          "type": "uint256"
        },
        {
          "indexed": false,
          "internalType": "address[]",
          "name": "whiteListedClusters",
          "type": "address[]"
        },
        {
          "indexed": false,
          "internalType": "uint256",
          "name": "supportFeeRate",
          "type": "uint256"
        },
        {
          "indexed": false,
          "internalType": "address",
          "name": "sender",
          "type": "address"
        },
        {
          "indexed": false,
          "internalType": "uint256",
          "name": "stackFeesReqd",
          "type": "uint256"
        }
      ],
      "name": "SubnetCreated",
      "type": "event"
    },
    {
      "anonymous": false,
      "inputs": [
        {
          "indexed": false,
          "internalType": "uint256",
          "name": "subnetId",
          "type": "uint256"
        },
        {
          "indexed": false,
          "internalType": "uint256",
          "name": "clusterId",
          "type": "uint256"
        },
        {
          "indexed": false,
          "internalType": "address",
          "name": "sender",
          "type": "address"
        },
        {
          "indexed": false,
          "internalType": "address",
          "name": "newOwner",
          "type": "address"
        }
      ],
      "name": "TransferredClusterDAOOwnership",
      "type": "event"
    },
    {
      "anonymous": false,
      "inputs": [
        {
          "indexed": false,
          "internalType": "address",
          "name": "account",
          "type": "address"
        }
      ],
      "name": "Unpaused",
      "type": "event"
    },
    {
      "anonymous": false,
      "inputs": [
        {
          "indexed": false,
          "internalType": "uint256",
          "name": "subnetId",
          "type": "uint256"
        },
        {
          "indexed": false,
          "internalType": "uint256",
          "name": "clusterId",
          "type": "uint256"
        },
        {
          "indexed": false,
          "internalType": "address",
          "name": "sender",
          "type": "address"
        },
        {
          "indexed": false,
          "internalType": "uint256",
          "name": "NFTid",
          "type": "uint256"
        }
      ],
      "name": "WithdrawnNFTFromCluster",
      "type": "event"
    },
    {
      "anonymous": false,
      "inputs": [
        {
          "indexed": false,
          "internalType": "uint256[]",
          "name": "nftIds",
          "type": "uint256[]"
        }
      ],
      "name": "WithdrawnNFTs",
      "type": "event"
    },
    {
      "anonymous": false,
      "inputs": [
        {
          "indexed": false,
          "internalType": "uint256",
          "name": "subnetId",
          "type": "uint256"
        },
        {
          "indexed": false,
          "internalType": "uint256",
          "name": "clusterId",
          "type": "uint256"
        },
        {
          "indexed": false,
          "internalType": "address",
          "name": "sender",
          "type": "address"
        },
        {
          "indexed": false,
          "internalType": "uint256",
          "name": "stackTokens",
          "type": "uint256"
        }
      ],
      "name": "WithdrawnStackFromCluster",
      "type": "event"
    },
    {
      "anonymous": false,
      "inputs": [
        {
          "indexed": false,
          "internalType": "uint256",
          "name": "subnetId",
          "type": "uint256"
        },
        {
          "indexed": false,
          "internalType": "uint256",
          "name": "clusterId",
          "type": "uint256"
        },
        {
          "indexed": false,
          "internalType": "address",
          "name": "sender",
          "type": "address"
        },
        {
          "indexed": false,
          "internalType": "uint256",
          "name": "amount",
          "type": "uint256"
        }
      ],
      "name": "WithdrawnStackFromClusterByDAO",
      "type": "event"
    },
    {
      "inputs": [],
      "name": "CLUSTER_LIST_ROLE",
      "outputs": [
        {
          "internalType": "bytes32",
          "name": "",
          "type": "bytes32"
        }
      ],
      "stateMutability": "view",
      "type": "function"
    },
    {
      "inputs": [],
      "name": "COOLDOWN_ROLE",
      "outputs": [
        {
          "internalType": "bytes32",
          "name": "",
          "type": "bytes32"
        }
      ],
      "stateMutability": "view",
      "type": "function"
    },
    {
      "inputs": [],
      "name": "DEFAULT_ADMIN_ROLE",
      "outputs": [
        {
          "internalType": "bytes32",
          "name": "",
          "type": "bytes32"
        }
      ],
      "stateMutability": "view",
      "type": "function"
    },
    {
      "inputs": [],
      "name": "DarkMatterNFT",
      "outputs": [
        {
          "internalType": "contract IERC721Upgradeable",
          "name": "",
          "type": "address"
        }
      ],
      "stateMutability": "view",
      "type": "function"
    },
    {
      "inputs": [],
      "name": "GLOBAL_DAO_ADDRESS",
      "outputs": [
        {
          "internalType": "address",
          "name": "",
          "type": "address"
        }
      ],
      "stateMutability": "view",
      "type": "function"
    },
    {
      "inputs": [],
      "name": "PAUSER_ROLE",
      "outputs": [
        {
          "internalType": "bytes32",
          "name": "",
          "type": "bytes32"
        }
      ],
      "stateMutability": "view",
      "type": "function"
    },
    {
      "inputs": [],
      "name": "PRICE_ROLE",
      "outputs": [
        {
          "internalType": "bytes32",
          "name": "",
          "type": "bytes32"
        }
      ],
      "stateMutability": "view",
      "type": "function"
    },
    {
      "inputs": [],
      "name": "REQD_STACK_FEES_FOR_SUBNET",
      "outputs": [
        {
          "internalType": "uint256",
          "name": "",
          "type": "uint256"
        }
      ],
      "stateMutability": "view",
      "type": "function"
    },
    {
      "inputs": [],
      "name": "SUBNET_ATTR_ROLE",
      "outputs": [
        {
          "internalType": "bytes32",
          "name": "",
          "type": "bytes32"
        }
      ],
      "stateMutability": "view",
      "type": "function"
    },
    {
      "inputs": [],
      "name": "StackToken",
      "outputs": [
        {
          "internalType": "contract IERC20Upgradeable",
          "name": "",
          "type": "address"
        }
      ],
      "stateMutability": "view",
      "type": "function"
    },
    {
      "inputs": [],
      "name": "WHITELIST_ROLE",
      "outputs": [
        {
          "internalType": "bytes32",
          "name": "",
          "type": "bytes32"
        }
      ],
      "stateMutability": "view",
      "type": "function"
    },
    {
      "inputs": [],
      "name": "WITHDRAW_STACK_ROLE",
      "outputs": [
        {
          "internalType": "bytes32",
          "name": "",
          "type": "bytes32"
        }
      ],
      "stateMutability": "view",
      "type": "function"
    },
    {
      "inputs": [
        {
          "internalType": "uint256",
          "name": "subnetId",
          "type": "uint256"
        },
        {
          "internalType": "address[]",
          "name": "_whitelistAddresses",
          "type": "address[]"
        }
      ],
      "name": "addClusterToWhitelisted",
      "outputs": [],
      "stateMutability": "nonpayable",
      "type": "function"
    },
    {
      "inputs": [
        {
          "internalType": "uint256",
          "name": "subnetId",
          "type": "uint256"
        }
      ],
      "name": "applyChangedClusterPrice",
      "outputs": [],
      "stateMutability": "nonpayable",
      "type": "function"
    },
    {
      "inputs": [
        {
          "internalType": "uint256",
          "name": "subnetId",
          "type": "uint256"
        },
        {
          "internalType": "uint256",
          "name": "clusterId",
          "type": "uint256"
        }
      ],
      "name": "approveListingCluster",
      "outputs": [],
      "stateMutability": "nonpayable",
      "type": "function"
    },
    {
      "inputs": [
        {
          "internalType": "address",
          "name": "",
          "type": "address"
        }
      ],
      "name": "balanceOfStackLocked",
      "outputs": [
        {
          "internalType": "uint256",
          "name": "",
          "type": "uint256"
        }
      ],
      "stateMutability": "view",
      "type": "function"
    },
    {
      "inputs": [
        {
          "internalType": "uint256",
          "name": "_coolDownTimeSecs",
          "type": "uint256"
        }
      ],
      "name": "changeCoolDownTime",
      "outputs": [],
      "stateMutability": "nonpayable",
      "type": "function"
    },
    {
      "inputs": [
        {
          "internalType": "uint256",
          "name": "subnetId",
          "type": "uint256"
        },
        {
          "internalType": "uint256",
          "name": "clusterId",
          "type": "uint256"
        },
        {
          "internalType": "string",
          "name": "newDNSIP",
          "type": "string"
        }
      ],
      "name": "changeDNSIP",
      "outputs": [],
      "stateMutability": "nonpayable",
      "type": "function"
    },
    {
      "inputs": [
        {
          "internalType": "contract IERC721Upgradeable",
          "name": "_DarkMatterNFT",
          "type": "address"
        }
      ],
      "name": "changeNFT",
      "outputs": [],
      "stateMutability": "nonpayable",
      "type": "function"
    },
    {
      "inputs": [
        {
          "internalType": "uint256",
          "name": "subnetId",
          "type": "uint256"
        },
        {
          "internalType": "uint256",
          "name": "_attributeNo",
          "type": "uint256"
        },
        {
          "internalType": "uint256",
          "name": "_subnetType",
          "type": "uint256"
        },
        {
          "internalType": "bool",
          "name": "_sovereignStatus",
          "type": "bool"
        },
        {
          "internalType": "uint256",
          "name": "_cloudProviderType",
          "type": "uint256"
        },
        {
          "internalType": "bool",
          "name": "_subnetStatusListed",
          "type": "bool"
        },
        {
          "internalType": "uint256[]",
          "name": "_otherAttributes",
          "type": "uint256[]"
        },
        {
          "internalType": "uint256",
          "name": "_maxClusters",
          "type": "uint256"
        },
        {
          "internalType": "uint256",
          "name": "_supportFeeRate",
          "type": "uint256"
        },
        {
          "internalType": "uint256",
          "name": "_stackFeesReqd",
          "type": "uint256"
        }
      ],
      "name": "changeSubnetAttributes",
      "outputs": [],
      "stateMutability": "nonpayable",
      "type": "function"
    },
    {
      "inputs": [
        {
          "internalType": "uint256",
          "name": "_daoRate",
          "type": "uint256"
        }
      ],
      "name": "change_DAORate",
      "outputs": [],
      "stateMutability": "nonpayable",
      "type": "function"
    },
    {
      "inputs": [
        {
          "internalType": "uint256",
          "name": "_REQD_STACK_FEES_FOR_SUBNET",
          "type": "uint256"
        }
      ],
      "name": "change_REQD_STACK_FEES_FOR_SUBNET",
      "outputs": [],
      "stateMutability": "nonpayable",
      "type": "function"
    },
    {
      "inputs": [
        {
          "internalType": "uint256",
          "name": "subnetId",
          "type": "uint256"
        },
        {
          "internalType": "string",
          "name": "_DNSIP",
          "type": "string"
        },
        {
          "internalType": "address",
          "name": "_clusterDAO",
          "type": "address"
        },
        {
          "internalType": "uint256",
          "name": "nftId",
          "type": "uint256"
        }
      ],
      "name": "clusterSignUp",
      "outputs": [],
      "stateMutability": "nonpayable",
      "type": "function"
    },
    {
      "inputs": [],
      "name": "coolDownTimeForPriceChange",
      "outputs": [
        {
          "internalType": "uint256",
          "name": "",
          "type": "uint256"
        }
      ],
      "stateMutability": "view",
      "type": "function"
    },
    {
      "inputs": [
        {
          "internalType": "uint256",
          "name": "nftId",
          "type": "uint256"
        },
        {
          "internalType": "address",
          "name": "_subnetLocalDAO",
          "type": "address"
        },
        {
          "internalType": "uint256",
          "name": "_subnetType",
          "type": "uint256"
        },
        {
          "internalType": "bool",
          "name": "_sovereignStatus",
          "type": "bool"
        },
        {
          "internalType": "uint256",
          "name": "_cloudProviderType",
          "type": "uint256"
        },
        {
          "internalType": "bool",
          "name": "_subnetStatusListed",
          "type": "bool"
        },
        {
          "internalType": "uint256[]",
          "name": "_unitPrices",
          "type": "uint256[]"
        },
        {
          "internalType": "uint256[]",
          "name": "_otherAttributes",
          "type": "uint256[]"
        },
        {
          "internalType": "uint256",
          "name": "_maxClusters",
          "type": "uint256"
        },
        {
          "internalType": "address[]",
          "name": "_whiteListedClusters",
          "type": "address[]"
        },
        {
          "internalType": "uint256",
          "name": "_supportFeeRate",
          "type": "uint256"
        },
        {
          "internalType": "uint256",
          "name": "_stackFeesReqd",
          "type": "uint256"
        }
      ],
      "name": "createSubnet",
      "outputs": [],
      "stateMutability": "nonpayable",
      "type": "function"
    },
    {
      "inputs": [],
      "name": "daoRate",
      "outputs": [
        {
          "internalType": "uint256",
          "name": "",
          "type": "uint256"
        }
      ],
      "stateMutability": "view",
      "type": "function"
    },
    {
      "inputs": [
        {
          "internalType": "uint256",
          "name": "subnetId",
          "type": "uint256"
        },
        {
          "internalType": "uint256",
          "name": "clusterId",
          "type": "uint256"
        }
      ],
      "name": "delistCluster",
      "outputs": [],
      "stateMutability": "nonpayable",
      "type": "function"
    },
    {
      "inputs": [
        {
          "internalType": "uint256",
          "name": "_subnetId",
          "type": "uint256"
        },
        {
          "internalType": "uint256",
          "name": "_clusterId",
          "type": "uint256"
        }
      ],
      "name": "getClusterAttributes",
      "outputs": [
        {
          "internalType": "address",
          "name": "",
          "type": "address"
        },
        {
          "internalType": "string",
          "name": "",
          "type": "string"
        },
        {
          "internalType": "uint8",
          "name": "",
          "type": "uint8"
        },
        {
          "internalType": "uint256",
          "name": "",
          "type": "uint256"
        }
      ],
      "stateMutability": "view",
      "type": "function"
    },
    {
      "inputs": [
        {
          "internalType": "bytes32",
          "name": "role",
          "type": "bytes32"
        }
      ],
      "name": "getRoleAdmin",
      "outputs": [
        {
          "internalType": "bytes32",
          "name": "",
          "type": "bytes32"
        }
      ],
      "stateMutability": "view",
      "type": "function"
    },
    {
      "inputs": [
        {
          "internalType": "uint256",
          "name": "subnetId",
          "type": "uint256"
        }
      ],
      "name": "getSubnetAttributes",
      "outputs": [
        {
          "internalType": "uint256",
          "name": "",
          "type": "uint256"
        },
        {
          "internalType": "bool",
          "name": "",
          "type": "bool"
        },
        {
          "internalType": "uint256",
          "name": "",
          "type": "uint256"
        },
        {
          "internalType": "bool",
          "name": "",
          "type": "bool"
        },
        {
          "internalType": "uint256[]",
          "name": "",
          "type": "uint256[]"
        },
        {
          "internalType": "uint256[]",
          "name": "",
          "type": "uint256[]"
        },
        {
          "internalType": "uint256",
          "name": "",
          "type": "uint256"
        },
        {
          "internalType": "uint256",
          "name": "",
          "type": "uint256"
        },
        {
          "internalType": "uint256",
          "name": "",
          "type": "uint256"
        }
      ],
      "stateMutability": "view",
      "type": "function"
    },
    {
      "inputs": [
        {
          "internalType": "bytes32",
          "name": "role",
          "type": "bytes32"
        },
        {
          "internalType": "address",
          "name": "account",
          "type": "address"
        }
      ],
      "name": "grantRole",
      "outputs": [],
      "stateMutability": "nonpayable",
      "type": "function"
    },
    {
      "inputs": [
        {
          "internalType": "bytes32",
          "name": "role",
          "type": "bytes32"
        },
        {
          "internalType": "address",
          "name": "account",
          "type": "address"
        }
      ],
      "name": "hasRole",
      "outputs": [
        {
          "internalType": "bool",
          "name": "",
          "type": "bool"
        }
      ],
      "stateMutability": "view",
      "type": "function"
    },
    {
      "inputs": [
        {
          "internalType": "contract IERC721Upgradeable",
          "name": "_DarkMatterNFT",
          "type": "address"
        },
        {
          "internalType": "contract IERC20Upgradeable",
          "name": "_StackToken",
          "type": "address"
        },
        {
          "internalType": "address",
          "name": "_GlobalDAO",
          "type": "address"
        },
        {
          "internalType": "uint256",
          "name": "_coolDownTimeForPriceChange",
          "type": "uint256"
        },
        {
          "internalType": "uint256",
          "name": "_daoRate",
          "type": "uint256"
        },
        {
          "internalType": "uint256",
          "name": "_REQD_STACK_FEES_FOR_SUBNET",
          "type": "uint256"
        }
      ],
      "name": "initialize",
      "outputs": [],
      "stateMutability": "nonpayable",
      "type": "function"
    },
    {
      "inputs": [
        {
          "internalType": "address",
          "name": "_operator",
          "type": "address"
        },
        {
          "internalType": "address",
          "name": "_from",
          "type": "address"
        },
        {
          "internalType": "uint256",
          "name": "_id",
          "type": "uint256"
        },
        {
          "internalType": "bytes",
          "name": "_data",
          "type": "bytes"
        }
      ],
      "name": "onERC721Received",
      "outputs": [
        {
          "internalType": "bytes4",
          "name": "",
          "type": "bytes4"
        }
      ],
      "stateMutability": "nonpayable",
      "type": "function"
    },
    {
      "inputs": [],
      "name": "pause",
      "outputs": [],
      "stateMutability": "nonpayable",
      "type": "function"
    },
    {
      "inputs": [],
      "name": "paused",
      "outputs": [
        {
          "internalType": "bool",
          "name": "",
          "type": "bool"
        }
      ],
      "stateMutability": "view",
      "type": "function"
    },
    {
      "inputs": [
        {
          "internalType": "contract IERC1155Upgradeable",
          "name": "token",
          "type": "address"
        },
        {
          "internalType": "uint256",
          "name": "tokenId",
          "type": "uint256"
        },
        {
          "internalType": "uint256",
          "name": "amount",
          "type": "uint256"
        }
      ],
      "name": "recoverERC1155",
      "outputs": [],
      "stateMutability": "nonpayable",
      "type": "function"
    },
    {
      "inputs": [
        {
          "internalType": "contract IERC721Upgradeable",
          "name": "token",
          "type": "address"
        },
        {
          "internalType": "uint256",
          "name": "tokenId",
          "type": "uint256"
        }
      ],
      "name": "recoverERC721",
      "outputs": [],
      "stateMutability": "nonpayable",
      "type": "function"
    },
    {
      "inputs": [
        {
          "internalType": "uint256",
          "name": "amount",
          "type": "uint256"
        }
      ],
      "name": "recoverETH",
      "outputs": [],
      "stateMutability": "nonpayable",
      "type": "function"
    },
    {
      "inputs": [
        {
          "internalType": "contract IERC20Upgradeable",
          "name": "token",
          "type": "address"
        }
      ],
      "name": "recoverTokens",
      "outputs": [],
      "stateMutability": "nonpayable",
      "type": "function"
    },
    {
      "inputs": [
        {
          "internalType": "uint256",
          "name": "subnetId",
          "type": "uint256"
        },
        {
          "internalType": "address",
          "name": "_blacklistAddress",
          "type": "address"
        },
        {
          "internalType": "uint256",
          "name": "_index",
          "type": "uint256"
        }
      ],
      "name": "removeClusterFromWhitelisted",
      "outputs": [],
      "stateMutability": "nonpayable",
      "type": "function"
    },
    {
      "inputs": [
        {
          "internalType": "bytes32",
          "name": "role",
          "type": "bytes32"
        },
        {
          "internalType": "address",
          "name": "account",
          "type": "address"
        }
      ],
      "name": "renounceRole",
      "outputs": [],
      "stateMutability": "nonpayable",
      "type": "function"
    },
    {
      "inputs": [
        {
          "internalType": "uint256",
          "name": "subnetId",
          "type": "uint256"
        },
        {
          "internalType": "uint256[]",
          "name": "_unitPrices",
          "type": "uint256[]"
        }
      ],
      "name": "requestClusterPriceChange",
      "outputs": [],
      "stateMutability": "nonpayable",
      "type": "function"
    },
    {
      "inputs": [
        {
          "internalType": "uint256",
          "name": "subnetId",
          "type": "uint256"
        }
      ],
      "name": "resetWhitelistClusters",
      "outputs": [],
      "stateMutability": "nonpayable",
      "type": "function"
    },
    {
      "inputs": [
        {
          "internalType": "bytes32",
          "name": "role",
          "type": "bytes32"
        },
        {
          "internalType": "address",
          "name": "account",
          "type": "address"
        }
      ],
      "name": "revokeRole",
      "outputs": [],
      "stateMutability": "nonpayable",
      "type": "function"
    },
    {
      "inputs": [
        {
          "internalType": "uint256",
          "name": "",
          "type": "uint256"
        }
      ],
      "name": "subnetAttributes",
      "outputs": [
        {
          "internalType": "uint256",
          "name": "subnetType",
          "type": "uint256"
        },
        {
          "internalType": "bool",
          "name": "sovereignStatus",
          "type": "bool"
        },
        {
          "internalType": "uint256",
          "name": "cloudProviderType",
          "type": "uint256"
        },
        {
          "internalType": "bool",
          "name": "subnetStatusListed",
          "type": "bool"
        },
        {
          "internalType": "uint256",
          "name": "maxClusters",
          "type": "uint256"
        },
        {
          "internalType": "uint256",
          "name": "supportFeeRate",
          "type": "uint256"
        },
        {
          "internalType": "uint256",
          "name": "stackFeesReqd",
          "type": "uint256"
        }
      ],
      "stateMutability": "view",
      "type": "function"
    },
    {
      "inputs": [
        {
          "internalType": "uint256",
          "name": "",
          "type": "uint256"
        },
        {
          "internalType": "uint256",
          "name": "",
          "type": "uint256"
        }
      ],
      "name": "subnetClusters",
      "outputs": [
        {
          "internalType": "address",
          "name": "ClusterDAO",
          "type": "address"
        },
        {
          "internalType": "string",
          "name": "DNSIP",
          "type": "string"
        },
        {
          "internalType": "uint8",
          "name": "listed",
          "type": "uint8"
        },
        {
          "internalType": "uint256",
          "name": "NFTidLocked",
          "type": "uint256"
        }
      ],
      "stateMutability": "view",
      "type": "function"
    },
    {
      "inputs": [
        {
          "internalType": "uint256",
          "name": "",
          "type": "uint256"
        }
      ],
      "name": "subnetLocalDAO",
      "outputs": [
        {
          "internalType": "address",
          "name": "",
          "type": "address"
        }
      ],
      "stateMutability": "view",
      "type": "function"
    },
    {
      "inputs": [
        {
          "internalType": "bytes4",
          "name": "interfaceId",
          "type": "bytes4"
        }
      ],
      "name": "supportsInterface",
      "outputs": [
        {
          "internalType": "bool",
          "name": "",
          "type": "bool"
        }
      ],
      "stateMutability": "view",
      "type": "function"
    },
    {
      "inputs": [
        {
          "internalType": "uint256",
          "name": "subnetId",
          "type": "uint256"
        }
      ],
      "name": "totalClusterSpotsAvailable",
      "outputs": [
        {
          "internalType": "uint256",
          "name": "",
          "type": "uint256"
        }
      ],
      "stateMutability": "view",
      "type": "function"
    },
    {
      "inputs": [
        {
          "internalType": "uint256",
          "name": "",
          "type": "uint256"
        }
      ],
      "name": "totalClustersSigned",
      "outputs": [
        {
          "internalType": "uint256",
          "name": "",
          "type": "uint256"
        }
      ],
      "stateMutability": "view",
      "type": "function"
    },
    {
      "inputs": [],
      "name": "totalSubnets",
      "outputs": [
        {
          "internalType": "uint256",
          "name": "",
          "type": "uint256"
        }
      ],
      "stateMutability": "view",
      "type": "function"
    },
    {
      "inputs": [
        {
          "internalType": "uint256",
          "name": "subnetId",
          "type": "uint256"
        },
        {
          "internalType": "uint256",
          "name": "clusterId",
          "type": "uint256"
        },
        {
          "internalType": "address",
          "name": "_newOwner",
          "type": "address"
        }
      ],
      "name": "transferClusterDAOOwnership",
      "outputs": [],
      "stateMutability": "nonpayable",
      "type": "function"
    },
    {
      "inputs": [],
      "name": "unpause",
      "outputs": [],
      "stateMutability": "nonpayable",
      "type": "function"
    },
    {
      "inputs": [
        {
          "internalType": "uint256",
          "name": "",
          "type": "uint256"
        },
        {
          "internalType": "uint256",
          "name": "",
          "type": "uint256"
        }
      ],
      "name": "whiteListedClusters",
      "outputs": [
        {
          "internalType": "address",
          "name": "",
          "type": "address"
        }
      ],
      "stateMutability": "view",
      "type": "function"
    },
    {
      "inputs": [
        {
          "internalType": "uint256",
          "name": "subnetId",
          "type": "uint256"
        },
        {
          "internalType": "uint256",
          "name": "clusterId",
          "type": "uint256"
        }
      ],
      "name": "withdrawClusterForDelistedSubnet",
      "outputs": [],
      "stateMutability": "nonpayable",
      "type": "function"
    },
    {
      "inputs": [
        {
          "internalType": "uint256[]",
          "name": "_nftIds",
          "type": "uint256[]"
        }
      ],
      "name": "withdrawNFT",
      "outputs": [],
      "stateMutability": "nonpayable",
      "type": "function"
    },
    {
      "inputs": [
        {
          "internalType": "uint256",
          "name": "subnetId",
          "type": "uint256"
        },
        {
          "internalType": "uint256",
          "name": "clusterId",
          "type": "uint256"
        },
        {
          "internalType": "uint256",
          "name": "_amount",
          "type": "uint256"
        }
      ],
      "name": "withdrawStackFromClusterByDAO",
      "outputs": [],
      "stateMutability": "nonpayable",
      "type": "function"
    }
  ],
  "bytecode": "0x608060405234801561001057600080fd5b506143b6806100206000396000f3fe608060405234801561001057600080fd5b506004361061038e5760003560e01c806384a075e5116101de578063bf8ab0c11161010f578063d8aaee00116100ad578063e63ab1e91161007c578063e63ab1e9146108be578063f8b4ff22146108d3578063fb91758a146108e6578063ffd2f5f81461090d5761038e565b8063d8aaee0014610872578063dbc0124614610885578063df05f52114610898578063e16000a4146108ab5761038e565b8063ceb7fa4b116100e9578063ceb7fa4b14610830578063cf6393b814610843578063d33355531461084c578063d547741f1461085f5761038e565b8063bf8ab0c1146107ea578063c92077bf146107fd578063cbaa1d9b1461081d5761038e565b8063a1aa492b1161017c578063a2b6715811610156578063a2b67158146107a8578063a5130a4b146107b1578063a907dded146107c4578063aca7207a146107d75761038e565b8063a1aa492b14610766578063a217fddf1461078d578063a23b00df146107955761038e565b806391d14854116101b857806391d148541461071a57806394f7ec711461072d5780639830a5c5146107405780639cbf0762146107535761038e565b806384a075e5146106d257806384cb7f4f146106e55780638ccf724b146107055761038e565b80635c2b146f116102c357806373d97f39116102615780637cf4c3b7116102305780637cf4c3b71461067d578063819d4cc6146106a457806383f59ac6146106b75780638456cb59146106ca5761038e565b806373d97f391461060457806379b57c321461062c57806379fed2eb1461063f5780637a997ab7146106685761038e565b806360b5f7561161029d57806360b5f7561461054f578063719eaefc146105d5578063728cdbca146105de57806372bbb5fe146105f15761038e565b80635c2b146f1461050e5780635c975abb146105215780636067945f1461052c5761038e565b80632106031f1161033057806336568abe1161030a57806336568abe146104d75780633a430b4f146104ea5780633f4ba83a146104f35780634b0b3dc7146104fb5761038e565b80632106031f14610476578063248a9ca3146104a15780632f2ff15d146104c45761038e565b8063142d92c51161036c578063142d92c5146103e3578063150b7a021461041857806316114acd1461045057806320054db2146104635761038e565b806301ffc9a714610393578063080bf636146103bb57806308498586146103d0575b600080fd5b6103a66103a1366004613789565b610920565b60405190151581526020015b60405180910390f35b6103ce6103c9366004613a44565b610959565b005b6103ce6103de366004613ac3565b610d23565b61040a7fc45069b141f83fdb9a15de03a5d47e65750f13669a7d610468dde2a64542857281565b6040519081526020016103b2565b61043761042636600461365b565b630a85bd0160e11b95945050505050565b6040516001600160e01b031990911681526020016103b2565b6103ce61045e36600461363f565b610e44565b6103ce61047136600461388c565b610ee1565b60c954610489906001600160a01b031681565b6040516001600160a01b0390911681526020016103b2565b61040a6104af366004613742565b60009081526065602052604090206001015490565b6103ce6104d236600461375a565b611151565b6103ce6104e536600461375a565b61117b565b61040a60cd5481565b6103ce6111f5565b6103ce6105093660046136f4565b611218565b6103ce61051c366004613742565b611309565b60975460ff166103a6565b61053f61053a366004613aa2565b61141d565b6040516103b29493929190613d9d565b6105a061055d366004613742565b60cf602052600090815260409020805460018201546002830154600384015460068501546007860154600890960154949560ff9485169593949092169290919087565b604080519788529515156020880152948601939093529015156060850152608084015260a083015260c082015260e0016103b2565b61040a60d65481565b6103ce6105ec3660046137e5565b6114e7565b61040a6105ff366004613742565b6116b6565b610617610612366004613742565b61174d565b6040516103b29998979695949392919061401d565b6103ce61063a366004613aa2565b61190a565b61048961064d366004613742565b60d0602052600090815260409020546001600160a01b031681565b61040a60008051602061432183398151915281565b61040a7f515cb9a6faf5ac018717b314df173fdbfa087f4f7981dfa1b108db1f00015d1981565b6103ce6106b2366004613849565b611a2f565b60cb54610489906001600160a01b031681565b6103ce611a98565b60ca54610489906001600160a01b031681565b61040a6106f3366004613742565b60d36020526000908152604090205481565b61040a60008051602061434183398151915281565b6103a661072836600461375a565b611ab8565b61048961073b366004613aa2565b611ae3565b6103ce61074e3660046139c6565b611b1b565b6103ce610761366004613afb565b611c81565b61040a7f0f751c86f068434f3f52b374dc6ecf5a4dda893e6eea601c8012ca82c7e9fce581565b61040a600081565b61053f6107a3366004613aa2565b611d76565b61040a60d25481565b6103ce6107bf366004613a0a565b611e59565b6103ce6107d236600461363f565b611edd565b6103ce6107e5366004613742565b611f36565b6103ce6107f8366004613b48565b611f95565b61040a61080b36600461363f565b60d56020526000908152604090205481565b6103ce61082b3660046137b1565b6120f2565b6103ce61083e366004613742565b612189565b61040a60cc5481565b6103ce61085a366004613742565b61226f565b6103ce61086d36600461375a565b6122a7565b6103ce6108803660046138c3565b6122cc565b6103ce610893366004613aa2565b61261d565b6103ce6108a6366004613742565b6126ad565b6103ce6108b9366004613b73565b6126be565b61040a60008051602061436183398151915281565b6103ce6108e1366004613742565b61286c565b61040a7fd4656a873938c6a54143cf99a88af3386da566bdef9cba62b37bbb4b88969b2d81565b6103ce61091b366004613aa2565b6128b9565b60006001600160e01b03198216637965db0b60e01b148061095157506301ffc9a760e01b6001600160e01b03198316145b90505b919050565b60975460ff16156109855760405162461bcd60e51b815260040161097c90613e5a565b60405180910390fd5b600084815260cf602052604090206001015460ff1615610a4257604080516020808201909252600081528451918501919091207fc5d2460186f7233c927e7db2dcc703c0e500b653ca82273b7bfad8045d85a4701415610a405760405162461bcd60e51b815260206004820152603060248201527f444e532f49502063616e6e6f7420626520656d70747920666f72206e6f6e207360448201526f6f7665726569676e207375626e65747360801b606482015260840161097c565b505b6000610a4d856116b6565b11610ab25760405162461bcd60e51b815260206004820152602f60248201527f4e6f2073706f747320617661696c61626c652c206d6178536c6f74732072656160448201526e18da195908199bdc881cdd589b995d608a1b606482015260840161097c565b60c9546001600160a01b03166323b872dd3330846040518463ffffffff1660e01b8152600401610ae493929190613d79565b600060405180830381600087803b158015610afe57600080fd5b505af1158015610b12573d6000803e3d6000fd5b505060ca54600087815260cf6020526040908190206008015490516323b872dd60e01b81526001600160a01b0390921693506323b872dd9250610b5b9133913091600401613d79565b602060405180830381600087803b158015610b7557600080fd5b505af1158015610b89573d6000803e3d6000fd5b505050506040513d601f19601f82011682018060405250810190610bad9190613726565b50600084815260cf60209081526040808320600801546001600160a01b038616845260d590925290912054610be191612bbc565b6001600160a01b038316600081815260d5602090815260408083209490945587825260d381528382205460d4825284832081845282529390912080546001600160a01b03191690921782558551610c3e9260010191870190613388565b50600085815260d460209081526040808320848452825280832060028101805460ff19166001908117909155600390910186905588845260d390925290912054610c8791612bbc565b600086815260d360205260409020557f9fb9ac4c6d9a62f6befa9ce65c92f896aeb8c8abea750a82bc01b12cdc85c0cd8582868633604051610ccd959493929190614152565b60405180910390a160408051338152602081018790528082018390526060810184905290517f1015cbdf9c2e7decb331210c6daaa13e038656ae7309ee8a7a051781800111559181900360800190a15050505050565b60975460ff1615610d465760405162461bcd60e51b815260040161097c90613e5a565b600083815260d4602090815260408083208584529091529020546001600160a01b03163314610daf5760405162461bcd60e51b81526020600482015260156024820152742737ba103a34329031b63ab9ba32b91037bbb732b960591b604482015260640161097c565b600083815260d460209081526040808320858452909152902080546001600160a01b0319166001600160a01b0383161790557f781b079fc079d37024e79662c9a159bec216bc0fa98c48a5d0f9e44a02d85a1b8383610e0b3390565b6040805193845260208401929092526001600160a01b0390811691830191909152831660608201526080015b60405180910390a1505050565b6000610e4f81612bcf565b6040516370a0823160e01b8152306004820152610edd9033906001600160a01b038516906370a082319060240160206040518083038186803b158015610e9457600080fd5b505afa158015610ea8573d6000803e3d6000fd5b505050506040513d601f19601f82011682018060405250810190610ecc9190613874565b6001600160a01b0385169190612bd9565b5050565b600083815260d16020526040902080546001600160a01b038416919083908110610f1b57634e487b7160e01b600052603260045260246000fd5b6000918252602090912001546001600160a01b031614610f8d5760405162461bcd60e51b815260206004820152602760248201527f4164647265737320646f6e6f74206d61746368207769746820696e64657820706044820152661c9bdd9a59195960ca1b606482015260840161097c565b610fa560008051602061432183398151915233610728565b80610fc65750600083815260d060205260409020546001600160a01b031633145b610fe25760405162461bcd60e51b815260040161097c90613dfd565b805b600084815260d16020526040902054610fff9060019061421d565b8110156110bf57600084815260d16020526040902061101f8260016141e6565b8154811061103d57634e487b7160e01b600052603260045260246000fd5b600091825260208083209091015486835260d1909152604090912080546001600160a01b03909216918390811061108457634e487b7160e01b600052603260045260246000fd5b600091825260209091200180546001600160a01b0319166001600160a01b0392909216919091179055806110b7816142b6565b915050610fe4565b50600083815260d1602052604090208054806110eb57634e487b7160e01b600052603160045260246000fd5b600082815260209020810160001990810180546001600160a01b03191690550190556040517f061b5b655cfeaf344bc505d25124654c45ca9b9d781c11dc81a6222a4169850b90610e3790859085909182526001600160a01b0316602082015260400190565b60008281526065602052604090206001015461116c81612bcf565b6111768383612c2b565b505050565b6001600160a01b03811633146111eb5760405162461bcd60e51b815260206004820152602f60248201527f416363657373436f6e74726f6c3a2063616e206f6e6c792072656e6f756e636560448201526e103937b632b9903337b91039b2b63360891b606482015260840161097c565b610edd8282612cb1565b60008051602061436183398151915261120d81612bcf565b611215612d18565b50565b600061122381612bcf565b60005b82518110156112cd5760c9546001600160a01b03166323b872dd303386858151811061126257634e487b7160e01b600052603260045260246000fd5b60200260200101516040518463ffffffff1660e01b815260040161128893929190613d79565b600060405180830381600087803b1580156112a257600080fd5b505af11580156112b6573d6000803e3d6000fd5b5050505080806112c5906142b6565b915050611226565b507f44f90752d4e829c0ece87e335cabadbe59eae106989e8c33f98cffd4f301c273826040516112fd9190613dd7565b60405180910390a15050565b60008051602061432183398151915261132181612bcf565b600082815260cf60205260409020546001146113775760405162461bcd60e51b8152602060048201526015602482015274105b1c9958591e481c1d589b1a58c81cdd589b995d605a1b604482015260640161097c565b61138f60008051602061432183398151915233610728565b806113b05750600082815260d060205260409020546001600160a01b031633145b6113cc5760405162461bcd60e51b815260040161097c90613dfd565b600082815260d1602052604090206060805190916113ec9160809061340c565b506040518381527f9e70d79633df959d6b05d1099cfa06b805b55ad2ec5b7482f72b5d3413f5fdb090602001610e37565b60d4602090815260009283526040808420909152908252902080546001820180546001600160a01b0390921692916114549061427b565b80601f01602080910402602001604051908101604052809291908181526020018280546114809061427b565b80156114cd5780601f106114a2576101008083540402835291602001916114cd565b820191906000526020600020905b8154815290600101906020018083116114b057829003601f168201915b505050506002830154600390930154919260ff1691905084565b60006114f36001612dab565b9050801561150b576000805461ff0019166101001790555b611513612e30565b61151b612e59565b611526600086612c2b565b61153e60008051602061434183398151915286612c2b565b6115687f515cb9a6faf5ac018717b314df173fdbfa087f4f7981dfa1b108db1f00015d1986612c2b565b6115927fc45069b141f83fdb9a15de03a5d47e65750f13669a7d610468dde2a64542857286612c2b565b6115bc7fd4656a873938c6a54143cf99a88af3386da566bdef9cba62b37bbb4b88969b2d86612c2b565b6115d460008051602061432183398151915286612c2b565b6115ec60008051602061436183398151915286612c2b565b6116167f0f751c86f068434f3f52b374dc6ecf5a4dda893e6eea601c8012ca82c7e9fce586612c2b565b60cb80546001600160a01b038088166001600160a01b03199283161790925560c980548a841690831617905560ca805492891692909116919091179055600060d25560d684905560cc83905560cd82905580156116ad576000805461ff0019169055604051600181527f7f26b83ff96e1f2b6a682f133852f6798a09c465da95921460cefb38474024989060200160405180910390a15b50505050505050565b600081815260d3602052604081205481805b8281101561171857600085815260d460209081526040808320848452909152902060029081015460ff16141561170657611703826001612bbc565b91505b80611710816142b6565b9150506116c8565b5060006117258383612e8c565b600086815260cf60205260409020600601549091506117449082612e8c565b95945050505050565b6000806000806060806000806000808a905060cf60008281526020019081526020016000206000015460cf600083815260200190815260200160002060010160009054906101000a900460ff1660cf60008481526020019081526020016000206002015460cf600085815260200190815260200160002060030160009054906101000a900460ff1660cf600086815260200190815260200160002060040160cf600087815260200190815260200160002060050160cf60008881526020019081526020016000206006015460cf60008981526020019081526020016000206007015460cf60008a8152602001908152602001600020600801548480548060200260200160405190810160405280929190818152602001828054801561189157602002820191906000526020600020905b81548152602001906001019080831161187d575b50505050509450838054806020026020016040519081016040528092919081815260200182805480156118e357602002820191906000526020600020905b8154815260200190600101908083116118cf575b50505050509350995099509950995099509950995099509950509193959799909294969850565b61192260008051602061434183398151915233610728565b8061194e5750600082815260d4602090815260408083208484529091529020546001600160a01b031633145b6119b75760405162461bcd60e51b815260206004820152603460248201527f53656e646572206973206e6f7420436c7573746572206f776e6572206f722068604482015273617320434c55535445525f4c4953545f524f4c4560601b606482015260840161097c565b600082815260d46020908152604080832084845290915290206002908101805460ff191690911790557f033d06e667c8589d6bf094a28be43fdc2ca4bc976f081304e77575d6a44682a68282336040805193845260208401929092526001600160a01b031690820152600260608201526080016112fd565b6000611a3a81612bcf565b604051632142170760e11b81526001600160a01b038416906342842e0e90611a6a90309033908790600401613d79565b600060405180830381600087803b158015611a8457600080fd5b505af11580156116ad573d6000803e3d6000fd5b600080516020614361833981519152611ab081612bcf565b611215612e98565b60009182526065602090815260408084206001600160a01b0393909316845291905290205460ff1690565b60d16020528160005260406000208181548110611aff57600080fd5b6000918252602090912001546001600160a01b03169150829050565b600082815260cf6020526040902054600114611b715760405162461bcd60e51b8152602060048201526015602482015274105b1c9958591e481c1d589b1a58c81cdd589b995d605a1b604482015260640161097c565b611b8960008051602061432183398151915233610728565b80611baa5750600082815260d060205260409020546001600160a01b031633145b611bc65760405162461bcd60e51b815260040161097c90613dfd565b60005b8151811015611c4f57600083815260d1602052604090208251839083908110611c0257634e487b7160e01b600052603260045260246000fd5b60209081029190910181015182546001810184556000938452919092200180546001600160a01b0319166001600160a01b0390921691909117905580611c47816142b6565b915050611bc9565b507f796f24f814d152716ce0b8e64483e688c61dca897d5816d74efdc8e0665be43282826040516112fd929190613fd2565b60975460ff1615611ca45760405162461bcd60e51b815260040161097c90613e5a565b600083815260d4602090815260408083208584529091529020546001600160a01b03163314611d155760405162461bcd60e51b815260206004820152601b60248201527f53656e646572206973206e6f7420436c7573746572206f776e65720000000000604482015260640161097c565b600083815260d46020908152604080832085845282529091208251611d4292600190920191840190613388565b507fe24e4bfe4f4c3361921b5d9ef1eac8f9a55d09ae3d9699c51d1a668ede2c8319838383604051610e3793929190614133565b600082815260d460209081526040808320848452909152812080546002820154600383015460019093018054606094869485946001600160a01b03909116939260ff90911691908390611dc89061427b565b80601f0160208091040260200160405190810160405280929190818152602001828054611df49061427b565b8015611e415780601f10611e1657610100808354040283529160200191611e41565b820191906000526020600020905b815481529060010190602001808311611e2457829003601f168201915b50505050509250935093509350935092959194509250565b7fd4656a873938c6a54143cf99a88af3386da566bdef9cba62b37bbb4b88969b2d611e8381612bcf565b600083815260ce602090815260409091204281558351611eab92600190920191850190613461565b507fe313790d329011b4379172e25d9354b5de88eb0f7bc3053f5ab0b366d3cda3b88383604051610e37929190613feb565b6000611ee881612bcf565b60c980546001600160a01b0319166001600160a01b0384169081179091556040519081527f0509ed52799171e23f5c37dfa66db8e0dadb499373ec7eb90b79a6a6ffe72304906020016112fd565b7fc45069b141f83fdb9a15de03a5d47e65750f13669a7d610468dde2a645428572611f6081612bcf565b60d68290556040518281527fd62325d508fc47cbcfee1d1874e8629885af65954ba2d26dccfe1381131a45ca906020016112fd565b7f0f751c86f068434f3f52b374dc6ecf5a4dda893e6eea601c8012ca82c7e9fce5611fbf81612bcf565b600084815260d4602090815260408083208684528252808320546001600160a01b0316835260d5909152902054611ff69083612e8c565b600085815260d4602090815260408083208784528252808320546001600160a01b03908116845260d59092529091209190915560ca54166323b872dd3033856040518463ffffffff1660e01b815260040161205393929190613d79565b602060405180830381600087803b15801561206d57600080fd5b505af1158015612081573d6000803e3d6000fd5b505050506040513d601f19601f820116820180604052508101906120a59190613726565b50604080518581526020810185905233818301526060810184905290517feaf0dcecd372ff2fedd93f8bf5b69976ef33e3c98a5c7792faccc0a316a231489181900360800190a150505050565b60006120fd81612bcf565b604051637921219560e11b8152306004820152336024820152604481018490526064810183905260a06084820152600260a482015261060f60f31b60c48201526001600160a01b0385169063f242432a9060e401600060405180830381600087803b15801561216b57600080fd5b505af115801561217f573d6000803e3d6000fd5b5050505050505050565b60d654600082815260ce60205260409020546121a491612bbc565b42116121f25760405162461bcd60e51b815260206004820152601a60248201527f436f6f6c646f776e2074696d65206e6f74206f76657220796574000000000000604482015260640161097c565b600081815260ce6020908152604080832060cf9092529091206001909101805461222092600401919061349b565b50600081815260ce60205260409081902090517f0f127d0a7e6bc1ce0fc731fa40740bf251d03b41e462bc93a8cac4c175b8b0f39161226491849160010190614004565b60405180910390a150565b600061227a81612bcf565b604051339083156108fc029084906000818181858888f19350505050158015611176573d6000803e3d6000fd5b6000828152606560205260409020600101546122c281612bcf565b6111768383612cb1565b60975460ff16156122ef5760405162461bcd60e51b815260040161097c90613e5a565b60c9546001600160a01b03166323b872dd33308f6040518463ffffffff1660e01b815260040161232193929190613d79565b600060405180830381600087803b15801561233b57600080fd5b505af115801561234f573d6000803e3d6000fd5b505060ca5460cb5460cd546040516323b872dd60e01b81526001600160a01b0393841695506323b872dd945061238c933393169190600401613d79565b602060405180830381600087803b1580156123a657600080fd5b505af11580156123ba573d6000803e3d6000fd5b505050506040513d601f19601f820116820180604052508101906123de9190613726565b508a60d0600060d254815260200190815260200160002060006101000a8154816001600160a01b0302191690836001600160a01b0316021790555061246c604051806101200160405280600081526020016000151581526020016000815260200160001515815260200160608152602001606081526020016000815260200160008152602001600081525090565b8a8152891515602080830191825260408084018c81528b151560608601908152608086018c815260a087018c905260c087018b905260e08701899052610100870188905260d254600090815260cf86529390932086518155945160018601805491151560ff19928316179055915160028601555160038501805491151591909216179055518051849392612507926004850192910190613461565b5060a08201518051612523916005840191602090910190613461565b5060c0820151600682015560e082015160078201556101009091015160089091015560d2547f76b50f1816f387dbae506806e88cd421e26f13fa255f390ba931946e15fee8a2908d8d8d8d8d8d8d8d8d8d338e60405161258f9d9c9b9a99989796959493929190613f1d565b60405180910390a160d2546040805133815260208101929092528181018f9052517f1e8ca4c189ee24e9a00297282e66ae881c6e3788821b188c51d335cbafd9416a9181900360600190a160d254600090815260d16020908152604090912085516125fc9287019061340c565b5060d25461260b906001612bbc565b60d25550505050505050505050505050565b60008051602061434183398151915261263581612bcf565b600083815260d46020908152604080832085845290915290206002908101805460ff191690911790557f033d06e667c8589d6bf094a28be43fdc2ca4bc976f081304e77575d6a44682a68383336040805193845260208401929092526001600160a01b03169082015260026060820152608001610e37565b60006126b881612bcf565b5060cd55565b7f515cb9a6faf5ac018717b314df173fdbfa087f4f7981dfa1b108db1f00015d196126e881612bcf565b89600114156127075760008b815260cf60205260409020899055612815565b89600214156127325760008b815260cf60205260409020600101805460ff1916891515179055612815565b89600314156127545760008b815260cf60205260409020600201879055612815565b896004141561277f5760008b815260cf60205260409020600301805460ff1916871515179055612815565b89600514156127b35760008b815260cf6020908152604090912086516127ad92600590920191880190613461565b50612815565b89600614156127d55760008b815260cf60205260409020600601849055612815565b89600714156127f75760008b815260cf60205260409020600701839055612815565b89600814156128155760008b815260cf602052604090206008018290555b60008b815260cf602052604090207f627548e72e2b257dd036d4cbb1084063dd5c73a4cd483d213efa65db3f3e7624908c903360405161285793929190614084565b60405180910390a15050505050505050505050565b600061287781612bcf565b60cc5460408051918252602082018490527f6a4a5332747a0ff452432b251176f864b3aa17df85cb50c22af972b67f2d60d4910160405180910390a15060cc55565b600082815260cf602052604090206003015460ff161561293a5760405162461bcd60e51b815260206004820152603660248201527f43616e6e6f7420776974686472617720537461636b206c6f636b6564206966206044820152751cdd589b995d081a5cc81b9bdd0819195b1a5cdd195960521b606482015260840161097c565b600082815260d4602090815260408083208484529091529020546001600160a01b031633146129c15760405162461bcd60e51b815260206004820152602d60248201527f4f6e6c7920436c757374657244414f2044414f2063616e20776974686472617760448201526c0814dd1858dac81b1bd8dad959609a1b606482015260840161097c565b33600081815260d56020908152604080832083905585835260d482528083208584529091528082206002908101805460ff1916909117905560ca5490516323b872dd60e01b815291926001600160a01b03909116916323b872dd91612a2d913091908690600401613d79565b602060405180830381600087803b158015612a4757600080fd5b505af1158015612a5b573d6000803e3d6000fd5b505050506040513d601f19601f82011682018060405250810190612a7f9190613726565b5060c954600084815260d460209081526040808320868452909152908190206003015490516323b872dd60e01b81526001600160a01b03909216916323b872dd91612ad09130913391600401613d79565b600060405180830381600087803b158015612aea57600080fd5b505af1158015612afe573d6000803e3d6000fd5b505050507f3b7a9017fb40befecce5dfd5dcec15a767568cd5bd3a631fdf53263fa1e431358383612b2c3390565b600087815260d460209081526040808320898452825291829020600301548251958652908501939093526001600160a01b0390911690830152606082015260800160405180910390a160408051848152602081018490523391810191909152606081018290527f6944159908f55f02059a9d2c78c6962528fc2b75a306d0802a2eb2dca1d3fc3590608001610e37565b6000612bc882846141e6565b9392505050565b6112158133612ef0565b604080516001600160a01b038416602482015260448082018490528251808303909101815260649091019091526020810180516001600160e01b031663a9059cbb60e01b179052611176908490612f54565b612c358282611ab8565b610edd5760008281526065602090815260408083206001600160a01b03851684529091529020805460ff19166001179055612c6d3390565b6001600160a01b0316816001600160a01b0316837f2f8788117e7eff1d82e926ec794901d17c78024a50270940304540a733656f0d60405160405180910390a45050565b612cbb8282611ab8565b15610edd5760008281526065602090815260408083206001600160a01b0385168085529252808320805460ff1916905551339285917ff6391f5c32d9c69d2a47ea670b442974b53935d1edc7fd64eb21e047a839171b9190a45050565b60975460ff16612d615760405162461bcd60e51b815260206004820152601460248201527314185d5cd8589b194e881b9bdd081c185d5cd95960621b604482015260640161097c565b6097805460ff191690557f5db9ee0a495bf2e6ff9c91a7834c1ba4fdd244a5e8aa4e537bd38aeae4b073aa335b6040516001600160a01b03909116815260200160405180910390a1565b60008054610100900460ff1615612df2578160ff166001148015612dce5750303b155b612dea5760405162461bcd60e51b815260040161097c90613e84565b506000610954565b60005460ff808416911610612e195760405162461bcd60e51b815260040161097c90613e84565b506000805460ff191660ff83161790556001610954565b600054610100900460ff16612e575760405162461bcd60e51b815260040161097c90613ed2565b565b600054610100900460ff16612e805760405162461bcd60e51b815260040161097c90613ed2565b6097805460ff19169055565b6000612bc8828461421d565b60975460ff1615612ebb5760405162461bcd60e51b815260040161097c90613e5a565b6097805460ff191660011790557f62e78cea01bee320cd4e420270b5ea74000d11b0c9f74754ebdbfc544b05a258612d8e3390565b612efa8282611ab8565b610edd57612f12816001600160a01b03166014613026565b612f1d836020613026565b604051602001612f2e929190613d04565b60408051601f198184030181529082905262461bcd60e51b825261097c91600401613dea565b6000612fa9826040518060400160405280602081526020017f5361666545524332303a206c6f772d6c6576656c2063616c6c206661696c6564815250856001600160a01b03166132079092919063ffffffff16565b8051909150156111765780806020019051810190612fc79190613726565b6111765760405162461bcd60e51b815260206004820152602a60248201527f5361666545524332303a204552433230206f7065726174696f6e20646964206e6044820152691bdd081cdd58d8d9595960b21b606482015260840161097c565b606060006130358360026141fe565b6130409060026141e6565b6001600160401b0381111561306557634e487b7160e01b600052604160045260246000fd5b6040519080825280601f01601f19166020018201604052801561308f576020820181803683370190505b509050600360fc1b816000815181106130b857634e487b7160e01b600052603260045260246000fd5b60200101906001600160f81b031916908160001a905350600f60fb1b816001815181106130f557634e487b7160e01b600052603260045260246000fd5b60200101906001600160f81b031916908160001a90535060006131198460026141fe565b6131249060016141e6565b90505b60018111156131b8576f181899199a1a9b1b9c1cb0b131b232b360811b85600f166010811061316657634e487b7160e01b600052603260045260246000fd5b1a60f81b82828151811061318a57634e487b7160e01b600052603260045260246000fd5b60200101906001600160f81b031916908160001a90535060049490941c936131b181614264565b9050613127565b508315612bc85760405162461bcd60e51b815260206004820181905260248201527f537472696e67733a20686578206c656e67746820696e73756666696369656e74604482015260640161097c565b6060613216848460008561321e565b949350505050565b60608247101561327f5760405162461bcd60e51b815260206004820152602660248201527f416464726573733a20696e73756666696369656e742062616c616e636520666f6044820152651c8818d85b1b60d21b606482015260840161097c565b6001600160a01b0385163b6132d65760405162461bcd60e51b815260206004820152601d60248201527f416464726573733a2063616c6c20746f206e6f6e2d636f6e7472616374000000604482015260640161097c565b600080866001600160a01b031685876040516132f29190613ce8565b60006040518083038185875af1925050503d806000811461332f576040519150601f19603f3d011682016040523d82523d6000602084013e613334565b606091505b509150915061334482828661334f565b979650505050505050565b6060831561335e575081612bc8565b82511561336e5782518084602001fd5b8160405162461bcd60e51b815260040161097c9190613dea565b8280546133949061427b565b90600052602060002090601f0160209004810192826133b657600085556133fc565b82601f106133cf57805160ff19168380011785556133fc565b828001600101855582156133fc579182015b828111156133fc5782518255916020019190600101906133e1565b506134089291506134db565b5090565b8280548282559060005260206000209081019282156133fc579160200282015b828111156133fc57825182546001600160a01b0319166001600160a01b0390911617825560209092019160019091019061342c565b8280548282559060005260206000209081019282156133fc57916020028201828111156133fc5782518255916020019190600101906133e1565b8280548282559060005260206000209081019282156133fc5760005260206000209182015b828111156133fc5782548255916001019190600101906134c0565b5b8082111561340857600081556001016134dc565b8035610954816142fd565b600082601f83011261350b578081fd5b8135602061352061351b836141c3565b614193565b828152818101908583018385028701840188101561353c578586fd5b855b85811015613563578135613551816142fd565b8452928401929084019060010161353e565b5090979650505050505050565b600082601f830112613580578081fd5b8135602061359061351b836141c3565b82815281810190858301838502870184018810156135ac578586fd5b855b85811015613563578135845292840192908401906001016135ae565b803561095481614312565b600082601f8301126135e5578081fd5b81356001600160401b038111156135fe576135fe6142e7565b613611601f8201601f1916602001614193565b818152846020838601011115613625578283fd5b816020850160208301379081016020019190915292915050565b600060208284031215613650578081fd5b8135612bc8816142fd565b600080600080600060808688031215613672578081fd5b853561367d816142fd565b9450602086013561368d816142fd565b93506040860135925060608601356001600160401b03808211156136af578283fd5b818801915088601f8301126136c2578283fd5b8135818111156136d0578384fd5b8960208285010111156136e1578384fd5b9699959850939650602001949392505050565b600060208284031215613705578081fd5b81356001600160401b0381111561371a578182fd5b61321684828501613570565b600060208284031215613737578081fd5b8151612bc881614312565b600060208284031215613753578081fd5b5035919050565b6000806040838503121561376c578182fd5b82359150602083013561377e816142fd565b809150509250929050565b60006020828403121561379a578081fd5b81356001600160e01b031981168114612bc8578182fd5b6000806000606084860312156137c5578283fd5b83356137d0816142fd565b95602085013595506040909401359392505050565b60008060008060008060c087890312156137fd578384fd5b8635613808816142fd565b95506020870135613818816142fd565b94506040870135613828816142fd565b959894975094956060810135955060808101359460a0909101359350915050565b6000806040838503121561385b578182fd5b8235613866816142fd565b946020939093013593505050565b600060208284031215613885578081fd5b5051919050565b6000806000606084860312156138a0578081fd5b8335925060208401356138b2816142fd565b929592945050506040919091013590565b6000806000806000806000806000806000806101808d8f0312156138e557898afd5b8c359b506138f560208e016134f0565b9a5060408d0135995061390a60608e016135ca565b985060808d0135975061391f60a08e016135ca565b96506001600160401b0360c08e01351115613938578586fd5b6139488e60c08f01358f01613570565b95506001600160401b0360e08e01351115613961578485fd5b6139718e60e08f01358f01613570565b94506101008d013593506001600160401b036101208e01351115613993578283fd5b6139a48e6101208f01358f016134fb565b92506101408d013591506101608d013590509295989b509295989b509295989b565b600080604083850312156139d8578182fd5b8235915060208301356001600160401b038111156139f4578182fd5b613a00858286016134fb565b9150509250929050565b60008060408385031215613a1c578182fd5b8235915060208301356001600160401b03811115613a38578182fd5b613a0085828601613570565b60008060008060808587031215613a59578182fd5b8435935060208501356001600160401b03811115613a75578283fd5b613a81878288016135d5565b9350506040850135613a92816142fd565b9396929550929360600135925050565b60008060408385031215613ab4578182fd5b50508035926020909101359150565b600080600060608486031215613ad7578081fd5b83359250602084013591506040840135613af0816142fd565b809150509250925092565b600080600060608486031215613b0f578081fd5b833592506020840135915060408401356001600160401b03811115613b32578182fd5b613b3e868287016135d5565b9150509250925092565b600080600060608486031215613b5c578081fd5b505081359360208301359350604090920135919050565b6000806000806000806000806000806101408b8d031215613b92578384fd5b8a35995060208b0135985060408b0135975060608b0135613bb281614312565b965060808b0135955060a08b0135613bc981614312565b945060c08b01356001600160401b03811115613be3578485fd5b613bef8d828e01613570565b94505060e08b013592506101008b013591506101208b013590509295989b9194979a5092959850565b6000815180845260208085019450808401835b83811015613c505781516001600160a01b031687529582019590820190600101613c2b565b509495945050505050565b6000815180845260208085019450808401835b83811015613c5057815187529582019590820190600101613c6e565b6000815480845260208085019450838352808320835b83811015613c5057815487529582019560019182019101613ca0565b60008151808452613cd4816020860160208601614234565b601f01601f19169290920160200192915050565b60008251613cfa818460208701614234565b9190910192915050565b60007f416363657373436f6e74726f6c3a206163636f756e742000000000000000000082528351613d3c816017850160208801614234565b7001034b99036b4b9b9b4b733903937b6329607d1b6017918401918201528351613d6d816028840160208801614234565b01602801949350505050565b6001600160a01b039384168152919092166020820152604081019190915260600190565b6001600160a01b0385168152608060208201819052600090613dc190830186613cbc565b60ff949094166040830152506060015292915050565b600060208252612bc86020830184613c5b565b600060208252612bc86020830184613cbc565b6020808252603f908201527f4f6e6c792057484954454c4953545f524f4c45206f72204c6f63616c2044414f60408201527f2063616e20656469742077686974656c69737465642061646472657373657300606082015260800190565b60208082526010908201526f14185d5cd8589b194e881c185d5cd95960821b604082015260600190565b6020808252602e908201527f496e697469616c697a61626c653a20636f6e747261637420697320616c72656160408201526d191e481a5b9a5d1a585b1a5e995960921b606082015260800190565b6020808252602b908201527f496e697469616c697a61626c653a20636f6e7472616374206973206e6f74206960408201526a6e697469616c697a696e6760a81b606082015260800190565b8d81526001600160a01b038d166020820152604081018c90528a1515606082015260006101a08b6080840152613f5760a084018c15159052565b8060c0840152613f698184018b613c5b565b905082810360e0840152613f7d818a613c5b565b905087610100840152828103610120840152613f998188613c18565b91505084610140830152613fb96101608301856001600160a01b03169052565b826101808301529e9d5050505050505050505050505050565b6000838252604060208301526132166040830184613c18565b6000838252604060208301526132166040830184613c5b565b6000838252604060208301526132166040830184613c8a565b60006101208b83528a15156020840152896040840152881515606084015280608084015261404d81840189613c5b565b905082810360a08401526140618188613c5b565b60c0840196909652505060e0810192909252610100909101529695505050505050565b600084825260606020830152835460608301526140a5600185015460ff1690565b15156080830152600284015460a0830152600384015460ff16151560c083015261012060e083018190526140e0610180840160048701613c8a565b838103605f19016101008501526140fa8160058801613c8a565b60068701549285019290925250600785015461014084015260088501546101608401526001600160a01b03841660408401529050613216565b6000848252836020830152606060408301526117446060830184613cbc565b600086825285602083015260a0604083015261417160a0830186613cbc565b6001600160a01b03948516606084015292909316608090910152949350505050565b604051601f8201601f191681016001600160401b03811182821017156141bb576141bb6142e7565b604052919050565b60006001600160401b038211156141dc576141dc6142e7565b5060209081020190565b600082198211156141f9576141f96142d1565b500190565b6000816000190483118215151615614218576142186142d1565b500290565b60008282101561422f5761422f6142d1565b500390565b60005b8381101561424f578181015183820152602001614237565b8381111561425e576000848401525b50505050565b600081614273576142736142d1565b506000190190565b60028104600182168061428f57607f821691505b602082108114156142b057634e487b7160e01b600052602260045260246000fd5b50919050565b60006000198214156142ca576142ca6142d1565b5060010190565b634e487b7160e01b600052601160045260246000fd5b634e487b7160e01b600052604160045260246000fd5b6001600160a01b038116811461121557600080fd5b801515811461121557600080fdfedc72ed553f2544c34465af23b847953efeb813428162d767f9ba5f4013be676065c28dd45c4ff9294e0a087620aaf7cd9ce5fbe1aacb5d391aec529164025bd065d7a28e3265b37a6474929f336521b332c1681b933f6cb9f3376673440d862aa26469706673582212201fad0145a996864c61a2d1134c814be0043b3c07cba93f582c3b53f49ed036da64736f6c63430008020033",
  "linkReferences": {},
  "deployedLinkReferences": {}
}