{
  "_format": "hh-sol-artifact-1",
  "contractName": "Registration",
  "sourceName": "contracts/Registration.sol",
  "abi": [
    {
      "anonymous": false,
      "inputs": [
        {
          "indexed": false,
          "internalType": "uint256",
          "name": "subnetId",
          "type": "uint256"
        },
        {
          "indexed": false,
          "internalType": "address[]",
          "name": "whitelistAddresses",
          "type": "address[]"
        }
      ],
      "name": "AddedToWhitelistCluster",
      "type": "event"
    },
    {
      "anonymous": false,
      "inputs": [
        {
          "indexed": false,
          "internalType": "uint256",
          "name": "subnetId",
          "type": "uint256"
        },
        {
          "indexed": false,
          "internalType": "uint256[]",
          "name": "unitPrices",
          "type": "uint256[]"
        }
      ],
      "name": "AppliedChangedClusterPrice",
      "type": "event"
    },
    {
      "anonymous": false,
      "inputs": [
        {
          "indexed": false,
          "internalType": "uint256",
          "name": "coolDownTimeSecs",
          "type": "uint256"
        }
      ],
      "name": "ChangedCoolDownForPriceChange",
      "type": "event"
    },
    {
      "anonymous": false,
      "inputs": [
        {
          "indexed": false,
          "internalType": "uint256",
          "name": "subnetId",
          "type": "uint256"
        },
        {
          "indexed": false,
          "internalType": "uint256",
          "name": "clusterId",
          "type": "uint256"
        },
        {
          "indexed": false,
          "internalType": "string",
          "name": "newDNSIP",
          "type": "string"
        }
      ],
      "name": "ChangedDNSIP",
      "type": "event"
    },
    {
      "anonymous": false,
      "inputs": [
        {
          "indexed": false,
          "internalType": "uint256",
          "name": "subnetId",
          "type": "uint256"
        },
        {
          "indexed": false,
          "internalType": "uint256",
          "name": "clusterId",
          "type": "uint256"
        },
        {
          "indexed": false,
          "internalType": "address",
          "name": "sender",
          "type": "address"
        },
        {
          "indexed": false,
          "internalType": "bool",
          "name": "allow",
          "type": "bool"
        }
      ],
      "name": "ChangedListingCluster",
      "type": "event"
    },
    {
      "anonymous": false,
      "inputs": [
        {
          "indexed": false,
          "internalType": "address",
          "name": "DarkMatterNFT",
          "type": "address"
        }
      ],
      "name": "ChangedNFTAddress",
      "type": "event"
    },
    {
      "anonymous": false,
      "inputs": [
        {
          "indexed": false,
          "internalType": "uint256",
          "name": "subnetId",
          "type": "uint256"
        },
        {
          "indexed": false,
          "internalType": "uint256",
          "name": "clusterId",
          "type": "uint256"
        },
        {
          "indexed": false,
          "internalType": "string",
          "name": "DNS_IP",
          "type": "string"
        },
        {
          "indexed": false,
          "internalType": "address",
          "name": "clusterDAO",
          "type": "address"
        },
        {
          "indexed": false,
          "internalType": "address",
          "name": "sender",
          "type": "address"
        }
      ],
      "name": "ClusterSignedUp",
      "type": "event"
    },
    {
      "anonymous": false,
      "inputs": [
        {
          "indexed": false,
          "internalType": "uint256",
          "name": "daoRate",
          "type": "uint256"
        },
        {
          "indexed": false,
          "internalType": "uint256",
          "name": "_daoRate",
          "type": "uint256"
        }
      ],
      "name": "DAORateChanged",
      "type": "event"
    },
    {
      "anonymous": false,
      "inputs": [
        {
          "indexed": false,
          "internalType": "uint8",
          "name": "version",
          "type": "uint8"
        }
      ],
      "name": "Initialized",
      "type": "event"
    },
    {
      "anonymous": false,
      "inputs": [
        {
          "indexed": false,
          "internalType": "address",
          "name": "userAddress",
          "type": "address"
        },
        {
          "indexed": false,
          "internalType": "uint256",
          "name": "subnetId",
          "type": "uint256"
        },
        {
          "indexed": false,
          "internalType": "uint256",
          "name": "clusterId",
          "type": "uint256"
        },
        {
          "indexed": false,
          "internalType": "uint256",
          "name": "nftID",
          "type": "uint256"
        }
      ],
      "name": "NFTLockedForCluster",
      "type": "event"
    },
    {
      "anonymous": false,
      "inputs": [
        {
          "indexed": false,
          "internalType": "address",
          "name": "userAddress",
          "type": "address"
        },
        {
          "indexed": false,
          "internalType": "uint256",
          "name": "subnetId",
          "type": "uint256"
        },
        {
          "indexed": false,
          "internalType": "uint256",
          "name": "nftID",
          "type": "uint256"
        }
      ],
      "name": "NFTLockedForSubnet",
      "type": "event"
    },
    {
      "anonymous": false,
      "inputs": [
        {
          "indexed": false,
          "internalType": "address",
          "name": "account",
          "type": "address"
        }
      ],
      "name": "Paused",
      "type": "event"
    },
    {
      "anonymous": false,
      "inputs": [
        {
          "indexed": false,
          "internalType": "uint256",
          "name": "subnetId",
          "type": "uint256"
        },
        {
          "indexed": false,
          "internalType": "address",
          "name": "blacklistAddress",
          "type": "address"
        }
      ],
      "name": "RemovedWhitelistCluster",
      "type": "event"
    },
    {
      "anonymous": false,
      "inputs": [
        {
          "indexed": false,
          "internalType": "uint256",
          "name": "subnetId",
          "type": "uint256"
        },
        {
          "indexed": false,
          "internalType": "uint256[]",
          "name": "unitPrices",
          "type": "uint256[]"
        }
      ],
      "name": "RequestedClusterPriceChange",
      "type": "event"
    },
    {
      "anonymous": false,
      "inputs": [
        {
          "indexed": false,
          "internalType": "uint256",
          "name": "subnetId",
          "type": "uint256"
        }
      ],
      "name": "ResetWhitelistCluster",
      "type": "event"
    },
    {
      "anonymous": false,
      "inputs": [
        {
          "indexed": true,
          "internalType": "bytes32",
          "name": "role",
          "type": "bytes32"
        },
        {
          "indexed": true,
          "internalType": "bytes32",
          "name": "previousAdminRole",
          "type": "bytes32"
        },
        {
          "indexed": true,
          "internalType": "bytes32",
          "name": "newAdminRole",
          "type": "bytes32"
        }
      ],
      "name": "RoleAdminChanged",
      "type": "event"
    },
    {
      "anonymous": false,
      "inputs": [
        {
          "indexed": true,
          "internalType": "bytes32",
          "name": "role",
          "type": "bytes32"
        },
        {
          "indexed": true,
          "internalType": "address",
          "name": "account",
          "type": "address"
        },
        {
          "indexed": true,
          "internalType": "address",
          "name": "sender",
          "type": "address"
        }
      ],
      "name": "RoleGranted",
      "type": "event"
    },
    {
      "anonymous": false,
      "inputs": [
        {
          "indexed": true,
          "internalType": "bytes32",
          "name": "role",
          "type": "bytes32"
        },
        {
          "indexed": true,
          "internalType": "address",
          "name": "account",
          "type": "address"
        },
        {
          "indexed": true,
          "internalType": "address",
          "name": "sender",
          "type": "address"
        }
      ],
      "name": "RoleRevoked",
      "type": "event"
    },
    {
      "anonymous": false,
      "inputs": [
        {
          "indexed": false,
          "internalType": "uint256",
          "name": "subnetId",
          "type": "uint256"
        },
        {
          "components": [
            {
              "internalType": "uint256",
              "name": "subnetType",
              "type": "uint256"
            },
            {
              "internalType": "bool",
              "name": "sovereignStatus",
              "type": "bool"
            },
            {
              "internalType": "uint256",
              "name": "cloudProviderType",
              "type": "uint256"
            },
            {
              "internalType": "bool",
              "name": "subnetStatusListed",
              "type": "bool"
            },
            {
              "internalType": "uint256[]",
              "name": "unitPrices",
              "type": "uint256[]"
            },
            {
              "internalType": "uint256[]",
              "name": "otherAttributes",
              "type": "uint256[]"
            },
            {
              "internalType": "uint256",
              "name": "maxClusters",
              "type": "uint256"
            },
            {
              "internalType": "uint256",
              "name": "supportFeeRate",
              "type": "uint256"
            },
            {
              "internalType": "uint256",
              "name": "stackFeesReqd",
              "type": "uint256"
            }
          ],
          "indexed": false,
          "internalType": "struct Registration.SubnetAttributes",
          "name": "subnetAttributes",
          "type": "tuple"
        },
        {
          "indexed": false,
          "internalType": "address",
          "name": "sender",
          "type": "address"
        }
      ],
      "name": "SubnetAttributesChanged",
      "type": "event"
    },
    {
      "anonymous": false,
      "inputs": [
        {
          "indexed": false,
          "internalType": "uint256",
          "name": "subnetId",
          "type": "uint256"
        },
        {
          "indexed": false,
          "internalType": "address",
          "name": "subnetLocalDAO",
          "type": "address"
        },
        {
          "indexed": false,
          "internalType": "uint256",
          "name": "subnetType",
          "type": "uint256"
        },
        {
          "indexed": false,
          "internalType": "bool",
          "name": "sovereignStatus",
          "type": "bool"
        },
        {
          "indexed": false,
          "internalType": "uint256",
          "name": "cloudProviderType",
          "type": "uint256"
        },
        {
          "indexed": false,
          "internalType": "bool",
          "name": "subnetStatusListed",
          "type": "bool"
        },
        {
          "indexed": false,
          "internalType": "uint256[]",
          "name": "unitPrices",
          "type": "uint256[]"
        },
        {
          "indexed": false,
          "internalType": "uint256[]",
          "name": "otherAttributes",
          "type": "uint256[]"
        },
        {
          "indexed": false,
          "internalType": "uint256",
          "name": "maxClusters",
          "type": "uint256"
        },
        {
          "indexed": false,
          "internalType": "address[]",
          "name": "whiteListedClusters",
          "type": "address[]"
        },
        {
          "indexed": false,
          "internalType": "uint256",
          "name": "supportFeeRate",
          "type": "uint256"
        },
        {
          "indexed": false,
          "internalType": "address",
          "name": "sender",
          "type": "address"
        },
        {
          "indexed": false,
          "internalType": "uint256",
          "name": "stackFeesReqd",
          "type": "uint256"
        }
      ],
      "name": "SubnetCreated",
      "type": "event"
    },
    {
      "anonymous": false,
      "inputs": [
        {
          "indexed": false,
          "internalType": "uint256",
          "name": "subnetId",
          "type": "uint256"
        },
        {
          "indexed": false,
          "internalType": "uint256",
          "name": "clusterId",
          "type": "uint256"
        },
        {
          "indexed": false,
          "internalType": "address",
          "name": "sender",
          "type": "address"
        },
        {
          "indexed": false,
          "internalType": "address",
          "name": "newOwner",
          "type": "address"
        }
      ],
      "name": "TransferredClusterDAOOwnership",
      "type": "event"
    },
    {
      "anonymous": false,
      "inputs": [
        {
          "indexed": false,
          "internalType": "address",
          "name": "account",
          "type": "address"
        }
      ],
      "name": "Unpaused",
      "type": "event"
    },
    {
      "anonymous": false,
      "inputs": [
        {
          "indexed": false,
          "internalType": "uint256[]",
          "name": "nftIds",
          "type": "uint256[]"
        }
      ],
      "name": "WithdrawnNFTs",
      "type": "event"
    },
    {
      "anonymous": false,
      "inputs": [
        {
          "indexed": false,
          "internalType": "uint256",
          "name": "subnetId",
          "type": "uint256"
        },
        {
          "indexed": false,
          "internalType": "uint256",
          "name": "clusterId",
          "type": "uint256"
        },
        {
          "indexed": false,
          "internalType": "address",
          "name": "sender",
          "type": "address"
        }
      ],
      "name": "WithdrawnStackFromCluster",
      "type": "event"
    },
    {
      "anonymous": false,
      "inputs": [
        {
          "indexed": false,
          "internalType": "uint256",
          "name": "subnetId",
          "type": "uint256"
        },
        {
          "indexed": false,
          "internalType": "uint256",
          "name": "clusterId",
          "type": "uint256"
        },
        {
          "indexed": false,
          "internalType": "address",
          "name": "sender",
          "type": "address"
        },
        {
          "indexed": false,
          "internalType": "uint256",
          "name": "amount",
          "type": "uint256"
        }
      ],
      "name": "WithdrawnStackFromClusterByDAO",
      "type": "event"
    },
    {
      "inputs": [],
      "name": "CLUSTER_LIST_ROLE",
      "outputs": [
        {
          "internalType": "bytes32",
          "name": "",
          "type": "bytes32"
        }
      ],
      "stateMutability": "view",
      "type": "function"
    },
    {
      "inputs": [],
      "name": "COOLDOWN_ROLE",
      "outputs": [
        {
          "internalType": "bytes32",
          "name": "",
          "type": "bytes32"
        }
      ],
      "stateMutability": "view",
      "type": "function"
    },
    {
      "inputs": [],
      "name": "DEFAULT_ADMIN_ROLE",
      "outputs": [
        {
          "internalType": "bytes32",
          "name": "",
          "type": "bytes32"
        }
      ],
      "stateMutability": "view",
      "type": "function"
    },
    {
      "inputs": [],
      "name": "DarkMatterNFT",
      "outputs": [
        {
          "internalType": "contract IERC721Upgradeable",
          "name": "",
          "type": "address"
        }
      ],
      "stateMutability": "view",
      "type": "function"
    },
    {
      "inputs": [],
      "name": "GLOBAL_DAO_ADDRESS",
      "outputs": [
        {
          "internalType": "address",
          "name": "",
          "type": "address"
        }
      ],
      "stateMutability": "view",
      "type": "function"
    },
    {
      "inputs": [],
      "name": "PAUSER_ROLE",
      "outputs": [
        {
          "internalType": "bytes32",
          "name": "",
          "type": "bytes32"
        }
      ],
      "stateMutability": "view",
      "type": "function"
    },
    {
      "inputs": [],
      "name": "PRICE_ROLE",
      "outputs": [
        {
          "internalType": "bytes32",
          "name": "",
          "type": "bytes32"
        }
      ],
      "stateMutability": "view",
      "type": "function"
    },
    {
      "inputs": [],
      "name": "REQD_STACK_FEES_FOR_SUBNET",
      "outputs": [
        {
          "internalType": "uint256",
          "name": "",
          "type": "uint256"
        }
      ],
      "stateMutability": "view",
      "type": "function"
    },
    {
      "inputs": [],
      "name": "SUBNET_ATTR_ROLE",
      "outputs": [
        {
          "internalType": "bytes32",
          "name": "",
          "type": "bytes32"
        }
      ],
      "stateMutability": "view",
      "type": "function"
    },
    {
      "inputs": [],
      "name": "StackToken",
      "outputs": [
        {
          "internalType": "contract IERC20Upgradeable",
          "name": "",
          "type": "address"
        }
      ],
      "stateMutability": "view",
      "type": "function"
    },
    {
      "inputs": [],
      "name": "WHITELIST_ROLE",
      "outputs": [
        {
          "internalType": "bytes32",
          "name": "",
          "type": "bytes32"
        }
      ],
      "stateMutability": "view",
      "type": "function"
    },
    {
      "inputs": [],
      "name": "WITHDRAW_STACK_ROLE",
      "outputs": [
        {
          "internalType": "bytes32",
          "name": "",
          "type": "bytes32"
        }
      ],
      "stateMutability": "view",
      "type": "function"
    },
    {
      "inputs": [
        {
          "internalType": "uint256",
          "name": "subnetId",
          "type": "uint256"
        },
        {
          "internalType": "address[]",
          "name": "_whitelistAddresses",
          "type": "address[]"
        }
      ],
      "name": "addClusterToWhitelisted",
      "outputs": [],
      "stateMutability": "nonpayable",
      "type": "function"
    },
    {
      "inputs": [
        {
          "internalType": "uint256",
          "name": "subnetId",
          "type": "uint256"
        }
      ],
      "name": "applyChangedClusterPrice",
      "outputs": [],
      "stateMutability": "nonpayable",
      "type": "function"
    },
    {
      "inputs": [
        {
          "internalType": "address",
          "name": "",
          "type": "address"
        }
      ],
      "name": "balanceOfStackLocked",
      "outputs": [
        {
          "internalType": "uint256",
          "name": "",
          "type": "uint256"
        }
      ],
      "stateMutability": "view",
      "type": "function"
    },
    {
      "inputs": [
        {
          "internalType": "uint256",
          "name": "_coolDownTimeSecs",
          "type": "uint256"
        }
      ],
      "name": "changeCoolDownTime",
      "outputs": [],
      "stateMutability": "nonpayable",
      "type": "function"
    },
    {
      "inputs": [
        {
          "internalType": "uint256",
          "name": "subnetId",
          "type": "uint256"
        },
        {
          "internalType": "uint256",
          "name": "clusterId",
          "type": "uint256"
        },
        {
          "internalType": "string",
          "name": "newDNSIP",
          "type": "string"
        }
      ],
      "name": "changeDNSIP",
      "outputs": [],
      "stateMutability": "nonpayable",
      "type": "function"
    },
    {
      "inputs": [
        {
          "internalType": "uint256",
          "name": "subnetId",
          "type": "uint256"
        },
        {
          "internalType": "uint256",
          "name": "clusterId",
          "type": "uint256"
        },
        {
          "internalType": "bool",
          "name": "_allow",
          "type": "bool"
        }
      ],
      "name": "changeListingCluster",
      "outputs": [],
      "stateMutability": "nonpayable",
      "type": "function"
    },
    {
      "inputs": [
        {
          "internalType": "contract IERC721Upgradeable",
          "name": "_DarkMatterNFT",
          "type": "address"
        }
      ],
      "name": "changeNFT",
      "outputs": [],
      "stateMutability": "nonpayable",
      "type": "function"
    },
    {
      "inputs": [
        {
          "internalType": "uint256",
          "name": "subnetId",
          "type": "uint256"
        },
        {
          "internalType": "uint256",
          "name": "_attributeNo",
          "type": "uint256"
        },
        {
          "internalType": "uint256",
          "name": "_subnetType",
          "type": "uint256"
        },
        {
          "internalType": "bool",
          "name": "_sovereignStatus",
          "type": "bool"
        },
        {
          "internalType": "uint256",
          "name": "_cloudProviderType",
          "type": "uint256"
        },
        {
          "internalType": "bool",
          "name": "_subnetStatusListed",
          "type": "bool"
        },
        {
          "internalType": "uint256[]",
          "name": "_otherAttributes",
          "type": "uint256[]"
        },
        {
          "internalType": "uint256",
          "name": "_maxClusters",
          "type": "uint256"
        },
        {
          "internalType": "uint256",
          "name": "_supportFeeRate",
          "type": "uint256"
        },
        {
          "internalType": "uint256",
          "name": "_stackFeesReqd",
          "type": "uint256"
        }
      ],
      "name": "changeSubnetAttributes",
      "outputs": [],
      "stateMutability": "nonpayable",
      "type": "function"
    },
    {
      "inputs": [
        {
          "internalType": "uint256",
          "name": "_daoRate",
          "type": "uint256"
        }
      ],
      "name": "change_DAORate",
      "outputs": [],
      "stateMutability": "nonpayable",
      "type": "function"
    },
    {
      "inputs": [
        {
          "internalType": "uint256",
          "name": "_REQD_STACK_FEES_FOR_SUBNET",
          "type": "uint256"
        }
      ],
      "name": "change_REQD_STACK_FEES_FOR_SUBNET",
      "outputs": [],
      "stateMutability": "nonpayable",
      "type": "function"
    },
    {
      "inputs": [
        {
          "internalType": "uint256",
          "name": "subnetId",
          "type": "uint256"
        },
        {
          "internalType": "string",
          "name": "_DNSIP",
          "type": "string"
        },
        {
          "internalType": "address",
          "name": "_clusterDAO",
          "type": "address"
        },
        {
          "internalType": "uint256",
          "name": "nftId",
          "type": "uint256"
        }
      ],
      "name": "clusterSignUp",
      "outputs": [],
      "stateMutability": "nonpayable",
      "type": "function"
    },
    {
      "inputs": [],
      "name": "coolDownTimeForPriceChange",
      "outputs": [
        {
          "internalType": "uint256",
          "name": "",
          "type": "uint256"
        }
      ],
      "stateMutability": "view",
      "type": "function"
    },
    {
      "inputs": [
        {
          "internalType": "uint256",
          "name": "nftId",
          "type": "uint256"
        },
        {
          "internalType": "address",
          "name": "_subnetLocalDAO",
          "type": "address"
        },
        {
          "internalType": "uint256",
          "name": "_subnetType",
          "type": "uint256"
        },
        {
          "internalType": "bool",
          "name": "_sovereignStatus",
          "type": "bool"
        },
        {
          "internalType": "uint256",
          "name": "_cloudProviderType",
          "type": "uint256"
        },
        {
          "internalType": "bool",
          "name": "_subnetStatusListed",
          "type": "bool"
        },
        {
          "internalType": "uint256[]",
          "name": "_unitPrices",
          "type": "uint256[]"
        },
        {
          "internalType": "uint256[]",
          "name": "_otherAttributes",
          "type": "uint256[]"
        },
        {
          "internalType": "uint256",
          "name": "_maxClusters",
          "type": "uint256"
        },
        {
          "internalType": "address[]",
          "name": "_whiteListedClusters",
          "type": "address[]"
        },
        {
          "internalType": "uint256",
          "name": "_supportFeeRate",
          "type": "uint256"
        },
        {
          "internalType": "uint256",
          "name": "_stackFeesReqd",
          "type": "uint256"
        }
      ],
      "name": "createSubnet",
      "outputs": [],
      "stateMutability": "nonpayable",
      "type": "function"
    },
    {
      "inputs": [],
      "name": "daoRate",
      "outputs": [
        {
          "internalType": "uint256",
          "name": "",
          "type": "uint256"
        }
      ],
      "stateMutability": "view",
      "type": "function"
    },
    {
      "inputs": [
        {
          "internalType": "uint256",
          "name": "_subnetId",
          "type": "uint256"
        },
        {
          "internalType": "uint256",
          "name": "_clusterId",
          "type": "uint256"
        }
      ],
      "name": "getClusterAttributes",
      "outputs": [
        {
          "internalType": "address",
          "name": "",
          "type": "address"
        },
        {
          "internalType": "string",
          "name": "",
          "type": "string"
        },
        {
          "internalType": "bool",
          "name": "",
          "type": "bool"
        }
      ],
      "stateMutability": "view",
      "type": "function"
    },
    {
      "inputs": [
        {
          "internalType": "bytes32",
          "name": "role",
          "type": "bytes32"
        }
      ],
      "name": "getRoleAdmin",
      "outputs": [
        {
          "internalType": "bytes32",
          "name": "",
          "type": "bytes32"
        }
      ],
      "stateMutability": "view",
      "type": "function"
    },
    {
      "inputs": [
        {
          "internalType": "uint256",
          "name": "subnetId",
          "type": "uint256"
        }
      ],
      "name": "getSubnetAttributes",
      "outputs": [
        {
          "internalType": "uint256",
          "name": "",
          "type": "uint256"
        },
        {
          "internalType": "bool",
          "name": "",
          "type": "bool"
        },
        {
          "internalType": "uint256",
          "name": "",
          "type": "uint256"
        },
        {
          "internalType": "bool",
          "name": "",
          "type": "bool"
        },
        {
          "internalType": "uint256[]",
          "name": "",
          "type": "uint256[]"
        },
        {
          "internalType": "uint256[]",
          "name": "",
          "type": "uint256[]"
        },
        {
          "internalType": "uint256",
          "name": "",
          "type": "uint256"
        },
        {
          "internalType": "uint256",
          "name": "",
          "type": "uint256"
        },
        {
          "internalType": "uint256",
          "name": "",
          "type": "uint256"
        }
      ],
      "stateMutability": "view",
      "type": "function"
    },
    {
      "inputs": [
        {
          "internalType": "bytes32",
          "name": "role",
          "type": "bytes32"
        },
        {
          "internalType": "address",
          "name": "account",
          "type": "address"
        }
      ],
      "name": "grantRole",
      "outputs": [],
      "stateMutability": "nonpayable",
      "type": "function"
    },
    {
      "inputs": [
        {
          "internalType": "bytes32",
          "name": "role",
          "type": "bytes32"
        },
        {
          "internalType": "address",
          "name": "account",
          "type": "address"
        }
      ],
      "name": "hasRole",
      "outputs": [
        {
          "internalType": "bool",
          "name": "",
          "type": "bool"
        }
      ],
      "stateMutability": "view",
      "type": "function"
    },
    {
      "inputs": [
        {
          "internalType": "contract IERC721Upgradeable",
          "name": "_DarkMatterNFT",
          "type": "address"
        },
        {
          "internalType": "contract IERC20Upgradeable",
          "name": "_StackToken",
          "type": "address"
        },
        {
          "internalType": "address",
          "name": "_GlobalDAO",
          "type": "address"
        },
        {
          "internalType": "uint256",
          "name": "_coolDownTimeForPriceChange",
          "type": "uint256"
        },
        {
          "internalType": "uint256",
          "name": "_daoRate",
          "type": "uint256"
        },
        {
          "internalType": "uint256",
          "name": "_REQD_STACK_FEES_FOR_SUBNET",
          "type": "uint256"
        }
      ],
      "name": "initialize",
      "outputs": [],
      "stateMutability": "nonpayable",
      "type": "function"
    },
    {
      "inputs": [
        {
          "internalType": "address",
          "name": "_operator",
          "type": "address"
        },
        {
          "internalType": "address",
          "name": "_from",
          "type": "address"
        },
        {
          "internalType": "uint256",
          "name": "_id",
          "type": "uint256"
        },
        {
          "internalType": "bytes",
          "name": "_data",
          "type": "bytes"
        }
      ],
      "name": "onERC721Received",
      "outputs": [
        {
          "internalType": "bytes4",
          "name": "",
          "type": "bytes4"
        }
      ],
      "stateMutability": "nonpayable",
      "type": "function"
    },
    {
      "inputs": [],
      "name": "pause",
      "outputs": [],
      "stateMutability": "nonpayable",
      "type": "function"
    },
    {
      "inputs": [],
      "name": "paused",
      "outputs": [
        {
          "internalType": "bool",
          "name": "",
          "type": "bool"
        }
      ],
      "stateMutability": "view",
      "type": "function"
    },
    {
      "inputs": [
        {
          "internalType": "contract IERC1155Upgradeable",
          "name": "token",
          "type": "address"
        },
        {
          "internalType": "uint256",
          "name": "tokenId",
          "type": "uint256"
        },
        {
          "internalType": "uint256",
          "name": "amount",
          "type": "uint256"
        }
      ],
      "name": "recoverERC1155",
      "outputs": [],
      "stateMutability": "nonpayable",
      "type": "function"
    },
    {
      "inputs": [
        {
          "internalType": "contract IERC721Upgradeable",
          "name": "token",
          "type": "address"
        },
        {
          "internalType": "uint256",
          "name": "tokenId",
          "type": "uint256"
        }
      ],
      "name": "recoverERC721",
      "outputs": [],
      "stateMutability": "nonpayable",
      "type": "function"
    },
    {
      "inputs": [
        {
          "internalType": "uint256",
          "name": "amount",
          "type": "uint256"
        }
      ],
      "name": "recoverETH",
      "outputs": [],
      "stateMutability": "nonpayable",
      "type": "function"
    },
    {
      "inputs": [
        {
          "internalType": "contract IERC20Upgradeable",
          "name": "token",
          "type": "address"
        }
      ],
      "name": "recoverTokens",
      "outputs": [],
      "stateMutability": "nonpayable",
      "type": "function"
    },
    {
      "inputs": [
        {
          "internalType": "uint256",
          "name": "subnetId",
          "type": "uint256"
        },
        {
          "internalType": "address",
          "name": "_blacklistAddress",
          "type": "address"
        },
        {
          "internalType": "uint256",
          "name": "_index",
          "type": "uint256"
        }
      ],
      "name": "removeClusterFromWhitelisted",
      "outputs": [],
      "stateMutability": "nonpayable",
      "type": "function"
    },
    {
      "inputs": [
        {
          "internalType": "bytes32",
          "name": "role",
          "type": "bytes32"
        },
        {
          "internalType": "address",
          "name": "account",
          "type": "address"
        }
      ],
      "name": "renounceRole",
      "outputs": [],
      "stateMutability": "nonpayable",
      "type": "function"
    },
    {
      "inputs": [
        {
          "internalType": "uint256",
          "name": "subnetId",
          "type": "uint256"
        },
        {
          "internalType": "uint256[]",
          "name": "_unitPrices",
          "type": "uint256[]"
        }
      ],
      "name": "requestClusterPriceChange",
      "outputs": [],
      "stateMutability": "nonpayable",
      "type": "function"
    },
    {
      "inputs": [
        {
          "internalType": "uint256",
          "name": "subnetId",
          "type": "uint256"
        }
      ],
      "name": "resetWhitelistClusters",
      "outputs": [],
      "stateMutability": "nonpayable",
      "type": "function"
    },
    {
      "inputs": [
        {
          "internalType": "bytes32",
          "name": "role",
          "type": "bytes32"
        },
        {
          "internalType": "address",
          "name": "account",
          "type": "address"
        }
      ],
      "name": "revokeRole",
      "outputs": [],
      "stateMutability": "nonpayable",
      "type": "function"
    },
    {
      "inputs": [
        {
          "internalType": "uint256",
          "name": "",
          "type": "uint256"
        }
      ],
      "name": "subnetAttributes",
      "outputs": [
        {
          "internalType": "uint256",
          "name": "subnetType",
          "type": "uint256"
        },
        {
          "internalType": "bool",
          "name": "sovereignStatus",
          "type": "bool"
        },
        {
          "internalType": "uint256",
          "name": "cloudProviderType",
          "type": "uint256"
        },
        {
          "internalType": "bool",
          "name": "subnetStatusListed",
          "type": "bool"
        },
        {
          "internalType": "uint256",
          "name": "maxClusters",
          "type": "uint256"
        },
        {
          "internalType": "uint256",
          "name": "supportFeeRate",
          "type": "uint256"
        },
        {
          "internalType": "uint256",
          "name": "stackFeesReqd",
          "type": "uint256"
        }
      ],
      "stateMutability": "view",
      "type": "function"
    },
    {
      "inputs": [
        {
          "internalType": "uint256",
          "name": "",
          "type": "uint256"
        },
        {
          "internalType": "uint256",
          "name": "",
          "type": "uint256"
        }
      ],
      "name": "subnetClusters",
      "outputs": [
        {
          "internalType": "address",
          "name": "ClusterDAO",
          "type": "address"
        },
        {
          "internalType": "string",
          "name": "DNSIP",
          "type": "string"
        },
        {
          "internalType": "bool",
          "name": "listed",
          "type": "bool"
        }
      ],
      "stateMutability": "view",
      "type": "function"
    },
    {
      "inputs": [
        {
          "internalType": "uint256",
          "name": "",
          "type": "uint256"
        }
      ],
      "name": "subnetLocalDAO",
      "outputs": [
        {
          "internalType": "address",
          "name": "",
          "type": "address"
        }
      ],
      "stateMutability": "view",
      "type": "function"
    },
    {
      "inputs": [
        {
          "internalType": "bytes4",
          "name": "interfaceId",
          "type": "bytes4"
        }
      ],
      "name": "supportsInterface",
      "outputs": [
        {
          "internalType": "bool",
          "name": "",
          "type": "bool"
        }
      ],
      "stateMutability": "view",
      "type": "function"
    },
    {
      "inputs": [
        {
          "internalType": "uint256",
          "name": "subnetId",
          "type": "uint256"
        }
      ],
      "name": "totalClusterSpotsAvailable",
      "outputs": [
        {
          "internalType": "uint256",
          "name": "",
          "type": "uint256"
        }
      ],
      "stateMutability": "view",
      "type": "function"
    },
    {
      "inputs": [
        {
          "internalType": "uint256",
          "name": "",
          "type": "uint256"
        }
      ],
      "name": "totalClustersSigned",
      "outputs": [
        {
          "internalType": "uint256",
          "name": "",
          "type": "uint256"
        }
      ],
      "stateMutability": "view",
      "type": "function"
    },
    {
      "inputs": [],
      "name": "totalSubnets",
      "outputs": [
        {
          "internalType": "uint256",
          "name": "",
          "type": "uint256"
        }
      ],
      "stateMutability": "view",
      "type": "function"
    },
    {
      "inputs": [
        {
          "internalType": "uint256",
          "name": "subnetId",
          "type": "uint256"
        },
        {
          "internalType": "uint256",
          "name": "clusterId",
          "type": "uint256"
        },
        {
          "internalType": "address",
          "name": "_newOwner",
          "type": "address"
        }
      ],
      "name": "transferClusterDAOOwnership",
      "outputs": [],
      "stateMutability": "nonpayable",
      "type": "function"
    },
    {
      "inputs": [],
      "name": "unpause",
      "outputs": [],
      "stateMutability": "nonpayable",
      "type": "function"
    },
    {
      "inputs": [
        {
          "internalType": "uint256",
          "name": "",
          "type": "uint256"
        },
        {
          "internalType": "uint256",
          "name": "",
          "type": "uint256"
        }
      ],
      "name": "whiteListedClusters",
      "outputs": [
        {
          "internalType": "address",
          "name": "",
          "type": "address"
        }
      ],
      "stateMutability": "view",
      "type": "function"
    },
    {
      "inputs": [
        {
          "internalType": "uint256[]",
          "name": "_nftIds",
          "type": "uint256[]"
        }
      ],
      "name": "withdrawNFT",
      "outputs": [],
      "stateMutability": "nonpayable",
      "type": "function"
    },
    {
      "inputs": [
        {
          "internalType": "uint256",
          "name": "subnetId",
          "type": "uint256"
        },
        {
          "internalType": "uint256",
          "name": "clusterId",
          "type": "uint256"
        },
        {
          "internalType": "uint256",
          "name": "_amount",
          "type": "uint256"
        }
      ],
      "name": "withdrawStackFromClusterByDAO",
      "outputs": [],
      "stateMutability": "nonpayable",
      "type": "function"
    },
    {
      "inputs": [
        {
          "internalType": "uint256",
          "name": "subnetId",
          "type": "uint256"
        },
        {
          "internalType": "uint256",
          "name": "clusterId",
          "type": "uint256"
        }
      ],
      "name": "withdrawStackFromClusterForDelistedSubnet",
      "outputs": [],
      "stateMutability": "nonpayable",
      "type": "function"
    }
  ],
  "bytecode": "0x608060405234801561001057600080fd5b50614209806100206000396000f3fe608060405234801561001057600080fd5b50600436106103835760003560e01c806383f59ac6116101de578063a907dded1161010f578063d3335553116100ad578063e16000a41161007c578063e16000a4146108b1578063e63ab1e9146108c4578063f8b4ff22146108d9578063fb91758a146108ec57610383565b8063d333555314610865578063d547741f14610878578063d8aaee001461088b578063df05f5211461089e57610383565b8063c92077bf116100e9578063c92077bf14610816578063cbaa1d9b14610836578063ceb7fa4b14610849578063cf6393b81461085c57610383565b8063a907dded146107dd578063aca7207a146107f0578063bf8ab0c11461080357610383565b80639830a5c51161017c578063a217fddf11610156578063a217fddf146107a6578063a23b00df146107ae578063a2b67158146107c1578063a5130a4b146107ca57610383565b80639830a5c5146107595780639cbf07621461076c578063a1aa492b1461077f57610383565b806384cb7f4f116101b857806384cb7f4f146106ec5780638ccf724b1461070c57806391d148541461073357806394f7ec711461074657610383565b806383f59ac6146106be5780638456cb59146106d157806384a075e5146106d957610383565b80634b0b3dc7116102b8578063728cdbca1161025657806379fed2eb1161023057806379fed2eb146106465780637a997ab71461066f5780637cf4c3b714610684578063819d4cc6146106ab57610383565b8063728cdbca146105f857806372bbb5fe1461060b57806373d97f391461061e57610383565b80636067945f116102925780636067945f1461053457806360b5f756146105565780636b88fab4146105dc578063719eaefc146105ef57610383565b80634b0b3dc7146105035780635c2b146f146105165780635c975abb1461052957610383565b80632106031f1161032557806336568abe116102ff57806336568abe146104cc5780633a430b4f146104df5780633ba73eab146104e85780633f4ba83a146104fb57610383565b80632106031f1461046b578063248a9ca3146104965780632f2ff15d146104b957610383565b8063142d92c511610361578063142d92c5146103d8578063150b7a021461040d57806316114acd1461044557806320054db21461045857610383565b806301ffc9a714610388578063080bf636146103b057806308498586146103c5575b600080fd5b61039b6103963660046135d3565b610913565b60405190151581526020015b60405180910390f35b6103c36103be36600461388e565b61094c565b005b6103c36103d336600461390d565b610d0d565b6103ff7fc45069b141f83fdb9a15de03a5d47e65750f13669a7d610468dde2a64542857281565b6040519081526020016103a7565b61042c61041b3660046134a5565b630a85bd0160e11b95945050505050565b6040516001600160e01b031990911681526020016103a7565b6103c3610453366004613489565b610e2e565b6103c36104663660046136d6565b610ecb565b60c95461047e906001600160a01b031681565b6040516001600160a01b0390911681526020016103a7565b6103ff6104a436600461358c565b60009081526065602052604090206001015490565b6103c36104c73660046135a4565b61113b565b6103c36104da3660046135a4565b611165565b6103ff60cd5481565b6103c36104f63660046138ec565b6111df565b6103c36113c1565b6103c361051136600461353e565b6113e4565b6103c361052436600461358c565b6114d5565b60975460ff1661039b565b6105476105423660046138ec565b6115e9565b6040516103a793929190613c14565b6105a761056436600461358c565b60cf602052600090815260409020805460018201546002830154600384015460068501546007860154600890960154949560ff9485169593949092169290919087565b604080519788529515156020880152948601939093529015156060850152608084015260a083015260c082015260e0016103a7565b6103c36105ea366004613945565b6116ac565b6103ff60d65481565b6103c361060636600461362f565b6117e9565b6103ff61061936600461358c565b6119ca565b61063161062c36600461358c565b611a5d565b6040516103a799989796959493929190613e90565b61047e61065436600461358c565b60d0602052600090815260409020546001600160a01b031681565b6103ff60008051602061419483398151915281565b6103ff7f515cb9a6faf5ac018717b314df173fdbfa087f4f7981dfa1b108db1f00015d1981565b6103c36106b9366004613693565b611c1a565b60cb5461047e906001600160a01b031681565b6103c3611c83565b60ca5461047e906001600160a01b031681565b6103ff6106fa36600461358c565b60d36020526000908152604090205481565b6103ff7f65c28dd45c4ff9294e0a087620aaf7cd9ce5fbe1aacb5d391aec529164025bd081565b61039b6107413660046135a4565b611ca3565b61047e6107543660046138ec565b611cce565b6103c3610767366004613810565b611d06565b6103c361077a366004613972565b611e6c565b6103ff7f0f751c86f068434f3f52b374dc6ecf5a4dda893e6eea601c8012ca82c7e9fce581565b6103ff600081565b6105476107bc3660046138ec565b611f61565b6103ff60d25481565b6103c36107d8366004613854565b612036565b6103c36107eb366004613489565b6120ba565b6103c36107fe36600461358c565b612113565b6103c36108113660046139bf565b612172565b6103ff610824366004613489565b60d56020526000908152604090205481565b6103c36108443660046135fb565b6122cf565b6103c361085736600461358c565b612366565b6103ff60cc5481565b6103c361087336600461358c565b61244c565b6103c36108863660046135a4565b612484565b6103c361089936600461370d565b6124a9565b6103c36108ac36600461358c565b6127fa565b6103c36108bf3660046139ea565b61280b565b6103ff6000805160206141b483398151915281565b6103c36108e736600461358c565b6129b9565b6103ff7fd4656a873938c6a54143cf99a88af3386da566bdef9cba62b37bbb4b88969b2d81565b60006001600160e01b03198216637965db0b60e01b148061094457506301ffc9a760e01b6001600160e01b03198316145b90505b919050565b60975460ff16156109785760405162461bcd60e51b815260040161096f90613ccd565b60405180910390fd5b600084815260cf602052604090206001015460ff1615610a3557604080516020808201909252600081528451918501919091207fc5d2460186f7233c927e7db2dcc703c0e500b653ca82273b7bfad8045d85a4701415610a335760405162461bcd60e51b815260206004820152603060248201527f444e532f49502063616e6e6f7420626520656d70747920666f72206e6f6e207360448201526f6f7665726569676e207375626e65747360801b606482015260840161096f565b505b6000610a40856119ca565b11610aa55760405162461bcd60e51b815260206004820152602f60248201527f4e6f2073706f747320617661696c61626c652c206d6178536c6f74732072656160448201526e18da195908199bdc881cdd589b995d608a1b606482015260840161096f565b60c9546001600160a01b03166323b872dd3330846040518463ffffffff1660e01b8152600401610ad793929190613bf0565b600060405180830381600087803b158015610af157600080fd5b505af1158015610b05573d6000803e3d6000fd5b505060ca54600087815260cf6020526040908190206008015490516323b872dd60e01b81526001600160a01b0390921693506323b872dd9250610b4e9133913091600401613bf0565b602060405180830381600087803b158015610b6857600080fd5b505af1158015610b7c573d6000803e3d6000fd5b505050506040513d601f19601f82011682018060405250810190610ba09190613570565b50600084815260cf60209081526040808320600801546001600160a01b038616845260d590925290912054610bd491612a06565b6001600160a01b038316600081815260d5602090815260408083209490945587825260d381528382205460d4825284832081845282529390912080546001600160a01b03191690921782558551610c3192600101918701906131d2565b50600085815260d4602090815260408083208484528252808320600201805460ff1916600190811790915588845260d390925290912054610c7191612a06565b600086815260d360205260409020557f9fb9ac4c6d9a62f6befa9ce65c92f896aeb8c8abea750a82bc01b12cdc85c0cd8582868633604051610cb7959493929190613fc5565b60405180910390a160408051338152602081018790528082018390526060810184905290517f1015cbdf9c2e7decb331210c6daaa13e038656ae7309ee8a7a051781800111559181900360800190a15050505050565b60975460ff1615610d305760405162461bcd60e51b815260040161096f90613ccd565b600083815260d4602090815260408083208584529091529020546001600160a01b03163314610d995760405162461bcd60e51b81526020600482015260156024820152742737ba103a34329031b63ab9ba32b91037bbb732b960591b604482015260640161096f565b600083815260d460209081526040808320858452909152902080546001600160a01b0319166001600160a01b0383161790557f781b079fc079d37024e79662c9a159bec216bc0fa98c48a5d0f9e44a02d85a1b8383610df53390565b6040805193845260208401929092526001600160a01b0390811691830191909152831660608201526080015b60405180910390a1505050565b6000610e3981612a19565b6040516370a0823160e01b8152306004820152610ec79033906001600160a01b038516906370a082319060240160206040518083038186803b158015610e7e57600080fd5b505afa158015610e92573d6000803e3d6000fd5b505050506040513d601f19601f82011682018060405250810190610eb691906136be565b6001600160a01b0385169190612a23565b5050565b600083815260d16020526040902080546001600160a01b038416919083908110610f0557634e487b7160e01b600052603260045260246000fd5b6000918252602090912001546001600160a01b031614610f775760405162461bcd60e51b815260206004820152602760248201527f4164647265737320646f6e6f74206d61746368207769746820696e64657820706044820152661c9bdd9a59195960ca1b606482015260840161096f565b610f8f60008051602061419483398151915233610741565b80610fb05750600083815260d060205260409020546001600160a01b031633145b610fcc5760405162461bcd60e51b815260040161096f90613c70565b805b600084815260d16020526040902054610fe990600190614090565b8110156110a957600084815260d160205260409020611009826001614059565b8154811061102757634e487b7160e01b600052603260045260246000fd5b600091825260208083209091015486835260d1909152604090912080546001600160a01b03909216918390811061106e57634e487b7160e01b600052603260045260246000fd5b600091825260209091200180546001600160a01b0319166001600160a01b0392909216919091179055806110a181614129565b915050610fce565b50600083815260d1602052604090208054806110d557634e487b7160e01b600052603160045260246000fd5b600082815260209020810160001990810180546001600160a01b03191690550190556040517f061b5b655cfeaf344bc505d25124654c45ca9b9d781c11dc81a6222a4169850b90610e2190859085909182526001600160a01b0316602082015260400190565b60008281526065602052604090206001015461115681612a19565b6111608383612a75565b505050565b6001600160a01b03811633146111d55760405162461bcd60e51b815260206004820152602f60248201527f416363657373436f6e74726f6c3a2063616e206f6e6c792072656e6f756e636560448201526e103937b632b9903337b91039b2b63360891b606482015260840161096f565b610ec78282612afb565b600082815260cf602052604090206003015460ff16156112605760405162461bcd60e51b815260206004820152603660248201527f43616e6e6f7420776974686472617720537461636b206c6f636b6564206966206044820152751cdd589b995d081a5cc81b9bdd0819195b1a5cdd195960521b606482015260840161096f565b600082815260d4602090815260408083208484529091529020546001600160a01b031633146112e75760405162461bcd60e51b815260206004820152602d60248201527f4f6e6c7920436c757374657244414f2044414f2063616e20776974686472617760448201526c0814dd1858dac81b1bd8dad959609a1b606482015260840161096f565b33600081815260d5602052604080822082905560ca5490516323b872dd60e01b815291926001600160a01b03909116916323b872dd9161132e913091908690600401613bf0565b602060405180830381600087803b15801561134857600080fd5b505af115801561135c573d6000803e3d6000fd5b505050506040513d601f19601f820116820180604052508101906113809190613570565b50604080518481526020810184905233918101919091527ff2341d1c63fcfc618bd1029a6e03baee63a45e349a6b99219195ee70c0a5338a90606001610e21565b6000805160206141b48339815191526113d981612a19565b6113e1612b62565b50565b60006113ef81612a19565b60005b82518110156114995760c9546001600160a01b03166323b872dd303386858151811061142e57634e487b7160e01b600052603260045260246000fd5b60200260200101516040518463ffffffff1660e01b815260040161145493929190613bf0565b600060405180830381600087803b15801561146e57600080fd5b505af1158015611482573d6000803e3d6000fd5b50505050808061149190614129565b9150506113f2565b507f44f90752d4e829c0ece87e335cabadbe59eae106989e8c33f98cffd4f301c273826040516114c99190613c4a565b60405180910390a15050565b6000805160206141948339815191526114ed81612a19565b600082815260cf60205260409020546001146115435760405162461bcd60e51b8152602060048201526015602482015274105b1c9958591e481c1d589b1a58c81cdd589b995d605a1b604482015260640161096f565b61155b60008051602061419483398151915233610741565b8061157c5750600082815260d060205260409020546001600160a01b031633145b6115985760405162461bcd60e51b815260040161096f90613c70565b600082815260d1602052604090206060805190916115b891608090613256565b506040518381527f9e70d79633df959d6b05d1099cfa06b805b55ad2ec5b7482f72b5d3413f5fdb090602001610e21565b60d4602090815260009283526040808420909152908252902080546001820180546001600160a01b039092169291611620906140ee565b80601f016020809104026020016040519081016040528092919081815260200182805461164c906140ee565b80156116995780601f1061166e57610100808354040283529160200191611699565b820191906000526020600020905b81548152906001019060200180831161167c57829003601f168201915b5050506002909301549192505060ff1683565b6116d67f65c28dd45c4ff9294e0a087620aaf7cd9ce5fbe1aacb5d391aec529164025bd033610741565b806117025750600083815260d4602090815260408083208584529091529020546001600160a01b031633145b61176b5760405162461bcd60e51b815260206004820152603460248201527f53656e646572206973206e6f7420436c7573746572206f776e6572206f722068604482015273617320434c55535445525f4c4953545f524f4c4560601b606482015260840161096f565b600083815260d4602090815260408083208584529091529020600201805460ff19168215151790557fa1b9ff692cca28003589ba2e08d6d470d2daca1de6e8207ef34bc2d64a05188183836117bd3390565b6040805193845260208401929092526001600160a01b0316908201528215156060820152608001610e21565b60006117f56001612bf5565b9050801561180d576000805461ff0019166101001790555b611815612c7a565b61181d612ca3565b611828600086612a75565b6118527f65c28dd45c4ff9294e0a087620aaf7cd9ce5fbe1aacb5d391aec529164025bd086612a75565b61187c7f515cb9a6faf5ac018717b314df173fdbfa087f4f7981dfa1b108db1f00015d1986612a75565b6118a67fc45069b141f83fdb9a15de03a5d47e65750f13669a7d610468dde2a64542857286612a75565b6118d07fd4656a873938c6a54143cf99a88af3386da566bdef9cba62b37bbb4b88969b2d86612a75565b6118e860008051602061419483398151915286612a75565b6119006000805160206141b483398151915286612a75565b61192a7f0f751c86f068434f3f52b374dc6ecf5a4dda893e6eea601c8012ca82c7e9fce586612a75565b60cb80546001600160a01b038088166001600160a01b03199283161790925560c980548a841690831617905560ca805492891692909116919091179055600060d25560d684905560cc83905560cd82905580156119c1576000805461ff0019169055604051600181527f7f26b83ff96e1f2b6a682f133852f6798a09c465da95921460cefb38474024989060200160405180910390a15b50505050505050565b600081815260d3602052604081205481805b82811015611a2857600085815260d46020908152604080832084845290915290206002015460ff16611a1657611a13826001612a06565b91505b80611a2081614129565b9150506119dc565b506000611a358383612cd6565b600086815260cf6020526040902060060154909150611a549082612cd6565b95945050505050565b6000806000806060806000806000808a905060cf60008281526020019081526020016000206000015460cf600083815260200190815260200160002060010160009054906101000a900460ff1660cf60008481526020019081526020016000206002015460cf600085815260200190815260200160002060030160009054906101000a900460ff1660cf600086815260200190815260200160002060040160cf600087815260200190815260200160002060050160cf60008881526020019081526020016000206006015460cf60008981526020019081526020016000206007015460cf60008a81526020019081526020016000206008015484805480602002602001604051908101604052809291908181526020018280548015611ba157602002820191906000526020600020905b815481526020019060010190808311611b8d575b5050505050945083805480602002602001604051908101604052809291908181526020018280548015611bf357602002820191906000526020600020905b815481526020019060010190808311611bdf575b50505050509350995099509950995099509950995099509950509193959799909294969850565b6000611c2581612a19565b604051632142170760e11b81526001600160a01b038416906342842e0e90611c5590309033908790600401613bf0565b600060405180830381600087803b158015611c6f57600080fd5b505af11580156119c1573d6000803e3d6000fd5b6000805160206141b4833981519152611c9b81612a19565b6113e1612ce2565b60009182526065602090815260408084206001600160a01b0393909316845291905290205460ff1690565b60d16020528160005260406000208181548110611cea57600080fd5b6000918252602090912001546001600160a01b03169150829050565b600082815260cf6020526040902054600114611d5c5760405162461bcd60e51b8152602060048201526015602482015274105b1c9958591e481c1d589b1a58c81cdd589b995d605a1b604482015260640161096f565b611d7460008051602061419483398151915233610741565b80611d955750600082815260d060205260409020546001600160a01b031633145b611db15760405162461bcd60e51b815260040161096f90613c70565b60005b8151811015611e3a57600083815260d1602052604090208251839083908110611ded57634e487b7160e01b600052603260045260246000fd5b60209081029190910181015182546001810184556000938452919092200180546001600160a01b0319166001600160a01b0390921691909117905580611e3281614129565b915050611db4565b507f796f24f814d152716ce0b8e64483e688c61dca897d5816d74efdc8e0665be43282826040516114c9929190613e45565b60975460ff1615611e8f5760405162461bcd60e51b815260040161096f90613ccd565b600083815260d4602090815260408083208584529091529020546001600160a01b03163314611f005760405162461bcd60e51b815260206004820152601b60248201527f53656e646572206973206e6f7420436c7573746572206f776e65720000000000604482015260640161096f565b600083815260d46020908152604080832085845282529091208251611f2d926001909201918401906131d2565b507fe24e4bfe4f4c3361921b5d9ef1eac8f9a55d09ae3d9699c51d1a668ede2c8319838383604051610e2193929190613fa6565b600082815260d4602090815260408083208484529091528120805460028201546001909201805460609385936001600160a01b0316929160ff909116908290611fa9906140ee565b80601f0160208091040260200160405190810160405280929190818152602001828054611fd5906140ee565b80156120225780601f10611ff757610100808354040283529160200191612022565b820191906000526020600020905b81548152906001019060200180831161200557829003601f168201915b505050505091509250925092509250925092565b7fd4656a873938c6a54143cf99a88af3386da566bdef9cba62b37bbb4b88969b2d61206081612a19565b600083815260ce602090815260409091204281558351612088926001909201918501906132ab565b507fe313790d329011b4379172e25d9354b5de88eb0f7bc3053f5ab0b366d3cda3b88383604051610e21929190613e5e565b60006120c581612a19565b60c980546001600160a01b0319166001600160a01b0384169081179091556040519081527f0509ed52799171e23f5c37dfa66db8e0dadb499373ec7eb90b79a6a6ffe72304906020016114c9565b7fc45069b141f83fdb9a15de03a5d47e65750f13669a7d610468dde2a64542857261213d81612a19565b60d68290556040518281527fd62325d508fc47cbcfee1d1874e8629885af65954ba2d26dccfe1381131a45ca906020016114c9565b7f0f751c86f068434f3f52b374dc6ecf5a4dda893e6eea601c8012ca82c7e9fce561219c81612a19565b600084815260d4602090815260408083208684528252808320546001600160a01b0316835260d59091529020546121d39083612cd6565b600085815260d4602090815260408083208784528252808320546001600160a01b03908116845260d59092529091209190915560ca54166323b872dd3033856040518463ffffffff1660e01b815260040161223093929190613bf0565b602060405180830381600087803b15801561224a57600080fd5b505af115801561225e573d6000803e3d6000fd5b505050506040513d601f19601f820116820180604052508101906122829190613570565b50604080518581526020810185905233818301526060810184905290517feaf0dcecd372ff2fedd93f8bf5b69976ef33e3c98a5c7792faccc0a316a231489181900360800190a150505050565b60006122da81612a19565b604051637921219560e11b8152306004820152336024820152604481018490526064810183905260a06084820152600260a482015261060f60f31b60c48201526001600160a01b0385169063f242432a9060e401600060405180830381600087803b15801561234857600080fd5b505af115801561235c573d6000803e3d6000fd5b5050505050505050565b60d654600082815260ce602052604090205461238191612a06565b42116123cf5760405162461bcd60e51b815260206004820152601a60248201527f436f6f6c646f776e2074696d65206e6f74206f76657220796574000000000000604482015260640161096f565b600081815260ce6020908152604080832060cf909252909120600190910180546123fd9260040191906132e5565b50600081815260ce60205260409081902090517f0f127d0a7e6bc1ce0fc731fa40740bf251d03b41e462bc93a8cac4c175b8b0f39161244191849160010190613e77565b60405180910390a150565b600061245781612a19565b604051339083156108fc029084906000818181858888f19350505050158015611160573d6000803e3d6000fd5b60008281526065602052604090206001015461249f81612a19565b6111608383612afb565b60975460ff16156124cc5760405162461bcd60e51b815260040161096f90613ccd565b60c9546001600160a01b03166323b872dd33308f6040518463ffffffff1660e01b81526004016124fe93929190613bf0565b600060405180830381600087803b15801561251857600080fd5b505af115801561252c573d6000803e3d6000fd5b505060ca5460cb5460cd546040516323b872dd60e01b81526001600160a01b0393841695506323b872dd9450612569933393169190600401613bf0565b602060405180830381600087803b15801561258357600080fd5b505af1158015612597573d6000803e3d6000fd5b505050506040513d601f19601f820116820180604052508101906125bb9190613570565b508a60d0600060d254815260200190815260200160002060006101000a8154816001600160a01b0302191690836001600160a01b03160217905550612649604051806101200160405280600081526020016000151581526020016000815260200160001515815260200160608152602001606081526020016000815260200160008152602001600081525090565b8a8152891515602080830191825260408084018c81528b151560608601908152608086018c815260a087018c905260c087018b905260e08701899052610100870188905260d254600090815260cf86529390932086518155945160018601805491151560ff199283161790559151600286015551600385018054911515919092161790555180518493926126e49260048501929101906132ab565b5060a082015180516127009160058401916020909101906132ab565b5060c0820151600682015560e082015160078201556101009091015160089091015560d2547f76b50f1816f387dbae506806e88cd421e26f13fa255f390ba931946e15fee8a2908d8d8d8d8d8d8d8d8d8d338e60405161276c9d9c9b9a99989796959493929190613d90565b60405180910390a160d2546040805133815260208101929092528181018f9052517f1e8ca4c189ee24e9a00297282e66ae881c6e3788821b188c51d335cbafd9416a9181900360600190a160d254600090815260d16020908152604090912085516127d992870190613256565b5060d2546127e8906001612a06565b60d25550505050505050505050505050565b600061280581612a19565b5060cd55565b7f515cb9a6faf5ac018717b314df173fdbfa087f4f7981dfa1b108db1f00015d1961283581612a19565b89600114156128545760008b815260cf60205260409020899055612962565b896002141561287f5760008b815260cf60205260409020600101805460ff1916891515179055612962565b89600314156128a15760008b815260cf60205260409020600201879055612962565b89600414156128cc5760008b815260cf60205260409020600301805460ff1916871515179055612962565b89600514156129005760008b815260cf6020908152604090912086516128fa926005909201918801906132ab565b50612962565b89600614156129225760008b815260cf60205260409020600601849055612962565b89600714156129445760008b815260cf60205260409020600701839055612962565b89600814156129625760008b815260cf602052604090206008018290555b60008b815260cf602052604090207f627548e72e2b257dd036d4cbb1084063dd5c73a4cd483d213efa65db3f3e7624908c90336040516129a493929190613ef7565b60405180910390a15050505050505050505050565b60006129c481612a19565b60cc5460408051918252602082018490527f6a4a5332747a0ff452432b251176f864b3aa17df85cb50c22af972b67f2d60d4910160405180910390a15060cc55565b6000612a128284614059565b9392505050565b6113e18133612d3a565b604080516001600160a01b038416602482015260448082018490528251808303909101815260649091019091526020810180516001600160e01b031663a9059cbb60e01b179052611160908490612d9e565b612a7f8282611ca3565b610ec75760008281526065602090815260408083206001600160a01b03851684529091529020805460ff19166001179055612ab73390565b6001600160a01b0316816001600160a01b0316837f2f8788117e7eff1d82e926ec794901d17c78024a50270940304540a733656f0d60405160405180910390a45050565b612b058282611ca3565b15610ec75760008281526065602090815260408083206001600160a01b0385168085529252808320805460ff1916905551339285917ff6391f5c32d9c69d2a47ea670b442974b53935d1edc7fd64eb21e047a839171b9190a45050565b60975460ff16612bab5760405162461bcd60e51b815260206004820152601460248201527314185d5cd8589b194e881b9bdd081c185d5cd95960621b604482015260640161096f565b6097805460ff191690557f5db9ee0a495bf2e6ff9c91a7834c1ba4fdd244a5e8aa4e537bd38aeae4b073aa335b6040516001600160a01b03909116815260200160405180910390a1565b60008054610100900460ff1615612c3c578160ff166001148015612c185750303b155b612c345760405162461bcd60e51b815260040161096f90613cf7565b506000610947565b60005460ff808416911610612c635760405162461bcd60e51b815260040161096f90613cf7565b506000805460ff191660ff83161790556001610947565b600054610100900460ff16612ca15760405162461bcd60e51b815260040161096f90613d45565b565b600054610100900460ff16612cca5760405162461bcd60e51b815260040161096f90613d45565b6097805460ff19169055565b6000612a128284614090565b60975460ff1615612d055760405162461bcd60e51b815260040161096f90613ccd565b6097805460ff191660011790557f62e78cea01bee320cd4e420270b5ea74000d11b0c9f74754ebdbfc544b05a258612bd83390565b612d448282611ca3565b610ec757612d5c816001600160a01b03166014612e70565b612d67836020612e70565b604051602001612d78929190613b7b565b60408051601f198184030181529082905262461bcd60e51b825261096f91600401613c5d565b6000612df3826040518060400160405280602081526020017f5361666545524332303a206c6f772d6c6576656c2063616c6c206661696c6564815250856001600160a01b03166130519092919063ffffffff16565b8051909150156111605780806020019051810190612e119190613570565b6111605760405162461bcd60e51b815260206004820152602a60248201527f5361666545524332303a204552433230206f7065726174696f6e20646964206e6044820152691bdd081cdd58d8d9595960b21b606482015260840161096f565b60606000612e7f836002614071565b612e8a906002614059565b6001600160401b03811115612eaf57634e487b7160e01b600052604160045260246000fd5b6040519080825280601f01601f191660200182016040528015612ed9576020820181803683370190505b509050600360fc1b81600081518110612f0257634e487b7160e01b600052603260045260246000fd5b60200101906001600160f81b031916908160001a905350600f60fb1b81600181518110612f3f57634e487b7160e01b600052603260045260246000fd5b60200101906001600160f81b031916908160001a9053506000612f63846002614071565b612f6e906001614059565b90505b6001811115613002576f181899199a1a9b1b9c1cb0b131b232b360811b85600f1660108110612fb057634e487b7160e01b600052603260045260246000fd5b1a60f81b828281518110612fd457634e487b7160e01b600052603260045260246000fd5b60200101906001600160f81b031916908160001a90535060049490941c93612ffb816140d7565b9050612f71565b508315612a125760405162461bcd60e51b815260206004820181905260248201527f537472696e67733a20686578206c656e67746820696e73756666696369656e74604482015260640161096f565b60606130608484600085613068565b949350505050565b6060824710156130c95760405162461bcd60e51b815260206004820152602660248201527f416464726573733a20696e73756666696369656e742062616c616e636520666f6044820152651c8818d85b1b60d21b606482015260840161096f565b6001600160a01b0385163b6131205760405162461bcd60e51b815260206004820152601d60248201527f416464726573733a2063616c6c20746f206e6f6e2d636f6e7472616374000000604482015260640161096f565b600080866001600160a01b0316858760405161313c9190613b5f565b60006040518083038185875af1925050503d8060008114613179576040519150601f19603f3d011682016040523d82523d6000602084013e61317e565b606091505b509150915061318e828286613199565b979650505050505050565b606083156131a8575081612a12565b8251156131b85782518084602001fd5b8160405162461bcd60e51b815260040161096f9190613c5d565b8280546131de906140ee565b90600052602060002090601f0160209004810192826132005760008555613246565b82601f1061321957805160ff1916838001178555613246565b82800160010185558215613246579182015b8281111561324657825182559160200191906001019061322b565b50613252929150613325565b5090565b828054828255906000526020600020908101928215613246579160200282015b8281111561324657825182546001600160a01b0319166001600160a01b03909116178255602090920191600190910190613276565b828054828255906000526020600020908101928215613246579160200282018281111561324657825182559160200191906001019061322b565b8280548282559060005260206000209081019282156132465760005260206000209182015b8281111561324657825482559160010191906001019061330a565b5b808211156132525760008155600101613326565b803561094781614170565b600082601f830112613355578081fd5b8135602061336a61336583614036565b614006565b8281528181019085830183850287018401881015613386578586fd5b855b858110156133ad57813561339b81614170565b84529284019290840190600101613388565b5090979650505050505050565b600082601f8301126133ca578081fd5b813560206133da61336583614036565b82815281810190858301838502870184018810156133f6578586fd5b855b858110156133ad578135845292840192908401906001016133f8565b803561094781614185565b600082601f83011261342f578081fd5b81356001600160401b038111156134485761344861415a565b61345b601f8201601f1916602001614006565b81815284602083860101111561346f578283fd5b816020850160208301379081016020019190915292915050565b60006020828403121561349a578081fd5b8135612a1281614170565b6000806000806000608086880312156134bc578081fd5b85356134c781614170565b945060208601356134d781614170565b93506040860135925060608601356001600160401b03808211156134f9578283fd5b818801915088601f83011261350c578283fd5b81358181111561351a578384fd5b89602082850101111561352b578384fd5b9699959850939650602001949392505050565b60006020828403121561354f578081fd5b81356001600160401b03811115613564578182fd5b613060848285016133ba565b600060208284031215613581578081fd5b8151612a1281614185565b60006020828403121561359d578081fd5b5035919050565b600080604083850312156135b6578182fd5b8235915060208301356135c881614170565b809150509250929050565b6000602082840312156135e4578081fd5b81356001600160e01b031981168114612a12578182fd5b60008060006060848603121561360f578283fd5b833561361a81614170565b95602085013595506040909401359392505050565b60008060008060008060c08789031215613647578384fd5b863561365281614170565b9550602087013561366281614170565b9450604087013561367281614170565b959894975094956060810135955060808101359460a0909101359350915050565b600080604083850312156136a5578182fd5b82356136b081614170565b946020939093013593505050565b6000602082840312156136cf578081fd5b5051919050565b6000806000606084860312156136ea578081fd5b8335925060208401356136fc81614170565b929592945050506040919091013590565b6000806000806000806000806000806000806101808d8f03121561372f57898afd5b8c359b5061373f60208e0161333a565b9a5060408d0135995061375460608e01613414565b985060808d0135975061376960a08e01613414565b96506001600160401b0360c08e01351115613782578586fd5b6137928e60c08f01358f016133ba565b95506001600160401b0360e08e013511156137ab578485fd5b6137bb8e60e08f01358f016133ba565b94506101008d013593506001600160401b036101208e013511156137dd578283fd5b6137ee8e6101208f01358f01613345565b92506101408d013591506101608d013590509295989b509295989b509295989b565b60008060408385031215613822578182fd5b8235915060208301356001600160401b0381111561383e578182fd5b61384a85828601613345565b9150509250929050565b60008060408385031215613866578182fd5b8235915060208301356001600160401b03811115613882578182fd5b61384a858286016133ba565b600080600080608085870312156138a3578182fd5b8435935060208501356001600160401b038111156138bf578283fd5b6138cb8782880161341f565b93505060408501356138dc81614170565b9396929550929360600135925050565b600080604083850312156138fe578182fd5b50508035926020909101359150565b600080600060608486031215613921578081fd5b8335925060208401359150604084013561393a81614170565b809150509250925092565b600080600060608486031215613959578081fd5b8335925060208401359150604084013561393a81614185565b600080600060608486031215613986578081fd5b833592506020840135915060408401356001600160401b038111156139a9578182fd5b6139b58682870161341f565b9150509250925092565b6000806000606084860312156139d3578081fd5b505081359360208301359350604090920135919050565b6000806000806000806000806000806101408b8d031215613a09578384fd5b8a35995060208b0135985060408b0135975060608b0135613a2981614185565b965060808b0135955060a08b0135613a4081614185565b945060c08b01356001600160401b03811115613a5a578485fd5b613a668d828e016133ba565b94505060e08b013592506101008b013591506101208b013590509295989b9194979a5092959850565b6000815180845260208085019450808401835b83811015613ac75781516001600160a01b031687529582019590820190600101613aa2565b509495945050505050565b6000815180845260208085019450808401835b83811015613ac757815187529582019590820190600101613ae5565b6000815480845260208085019450838352808320835b83811015613ac757815487529582019560019182019101613b17565b60008151808452613b4b8160208601602086016140a7565b601f01601f19169290920160200192915050565b60008251613b718184602087016140a7565b9190910192915050565b60007f416363657373436f6e74726f6c3a206163636f756e742000000000000000000082528351613bb38160178501602088016140a7565b7001034b99036b4b9b9b4b733903937b6329607d1b6017918401918201528351613be48160288401602088016140a7565b01602801949350505050565b6001600160a01b039384168152919092166020820152604081019190915260600190565b6001600160a01b0384168152606060208201819052600090613c3890830185613b33565b90508215156040830152949350505050565b600060208252612a126020830184613ad2565b600060208252612a126020830184613b33565b6020808252603f908201527f4f6e6c792057484954454c4953545f524f4c45206f72204c6f63616c2044414f60408201527f2063616e20656469742077686974656c69737465642061646472657373657300606082015260800190565b60208082526010908201526f14185d5cd8589b194e881c185d5cd95960821b604082015260600190565b6020808252602e908201527f496e697469616c697a61626c653a20636f6e747261637420697320616c72656160408201526d191e481a5b9a5d1a585b1a5e995960921b606082015260800190565b6020808252602b908201527f496e697469616c697a61626c653a20636f6e7472616374206973206e6f74206960408201526a6e697469616c697a696e6760a81b606082015260800190565b8d81526001600160a01b038d166020820152604081018c90528a1515606082015260006101a08b6080840152613dca60a084018c15159052565b8060c0840152613ddc8184018b613ad2565b905082810360e0840152613df0818a613ad2565b905087610100840152828103610120840152613e0c8188613a8f565b91505084610140830152613e2c6101608301856001600160a01b03169052565b826101808301529e9d5050505050505050505050505050565b6000838252604060208301526130606040830184613a8f565b6000838252604060208301526130606040830184613ad2565b6000838252604060208301526130606040830184613b01565b60006101208b83528a151560208401528960408401528815156060840152806080840152613ec081840189613ad2565b905082810360a0840152613ed48188613ad2565b60c0840196909652505060e0810192909252610100909101529695505050505050565b60008482526060602083015283546060830152613f18600185015460ff1690565b15156080830152600284015460a0830152600384015460ff16151560c083015261012060e08301819052613f53610180840160048701613b01565b838103605f1901610100850152613f6d8160058801613b01565b60068701549285019290925250600785015461014084015260088501546101608401526001600160a01b03841660408401529050613060565b600084825283602083015260606040830152611a546060830184613b33565b600086825285602083015260a06040830152613fe460a0830186613b33565b6001600160a01b03948516606084015292909316608090910152949350505050565b604051601f8201601f191681016001600160401b038111828210171561402e5761402e61415a565b604052919050565b60006001600160401b0382111561404f5761404f61415a565b5060209081020190565b6000821982111561406c5761406c614144565b500190565b600081600019048311821515161561408b5761408b614144565b500290565b6000828210156140a2576140a2614144565b500390565b60005b838110156140c25781810151838201526020016140aa565b838111156140d1576000848401525b50505050565b6000816140e6576140e6614144565b506000190190565b60028104600182168061410257607f821691505b6020821081141561412357634e487b7160e01b600052602260045260246000fd5b50919050565b600060001982141561413d5761413d614144565b5060010190565b634e487b7160e01b600052601160045260246000fd5b634e487b7160e01b600052604160045260246000fd5b6001600160a01b03811681146113e157600080fd5b80151581146113e157600080fdfedc72ed553f2544c34465af23b847953efeb813428162d767f9ba5f4013be676065d7a28e3265b37a6474929f336521b332c1681b933f6cb9f3376673440d862aa264697066735822122047dffb5b3c328c191462e422d7347b0098385d55f4b05f18ce06ec3890563e4b64736f6c63430008020033",
  "linkReferences": {},
  "deployedLinkReferences": {}
}