{
  "_format": "hh-sol-artifact-1",
  "contractName": "Registration",
  "sourceName": "contracts/Registration.sol",
  "abi": [
    {
      "anonymous": false,
      "inputs": [
        {
          "indexed": false,
          "internalType": "uint256",
          "name": "subnetId",
          "type": "uint256"
        },
        {
          "indexed": false,
          "internalType": "address[]",
          "name": "whitelistAddresses",
          "type": "address[]"
        }
      ],
      "name": "AddedToWhitelistCluster",
      "type": "event"
    },
    {
      "anonymous": false,
      "inputs": [
        {
          "indexed": false,
          "internalType": "uint256",
          "name": "subnetId",
          "type": "uint256"
        },
        {
          "indexed": false,
          "internalType": "uint256[]",
          "name": "unitPrices",
          "type": "uint256[]"
        }
      ],
      "name": "AppliedChangedClusterPrice",
      "type": "event"
    },
    {
      "anonymous": false,
      "inputs": [
        {
          "indexed": false,
          "internalType": "uint256",
          "name": "coolDownTimeSecs",
          "type": "uint256"
        }
      ],
      "name": "ChangedCoolDownForPriceChange",
      "type": "event"
    },
    {
      "anonymous": false,
      "inputs": [
        {
          "indexed": false,
          "internalType": "uint256",
          "name": "subnetId",
          "type": "uint256"
        },
        {
          "indexed": false,
          "internalType": "uint256",
          "name": "clusterId",
          "type": "uint256"
        },
        {
          "indexed": false,
          "internalType": "string",
          "name": "newDNSIP",
          "type": "string"
        }
      ],
      "name": "ChangedDNSIP",
      "type": "event"
    },
    {
      "anonymous": false,
      "inputs": [
        {
          "indexed": false,
          "internalType": "uint256",
          "name": "subnetId",
          "type": "uint256"
        },
        {
          "indexed": false,
          "internalType": "uint256",
          "name": "clusterId",
          "type": "uint256"
        },
        {
          "indexed": false,
          "internalType": "address",
          "name": "sender",
          "type": "address"
        },
        {
          "indexed": false,
          "internalType": "uint8",
          "name": "allowStatus",
          "type": "uint8"
        }
      ],
      "name": "ChangedListingCluster",
      "type": "event"
    },
    {
      "anonymous": false,
      "inputs": [
        {
          "indexed": false,
          "internalType": "address",
          "name": "DarkMatterNFT",
          "type": "address"
        }
      ],
      "name": "ChangedNFTAddress",
      "type": "event"
    },
    {
      "anonymous": false,
      "inputs": [
        {
          "indexed": false,
          "internalType": "uint256",
          "name": "subnetId",
          "type": "uint256"
        },
        {
          "indexed": false,
          "internalType": "uint256",
          "name": "clusterId",
          "type": "uint256"
        },
        {
          "indexed": false,
          "internalType": "string",
          "name": "DNS_IP",
          "type": "string"
        },
        {
          "indexed": false,
          "internalType": "address",
          "name": "clusterDAO",
          "type": "address"
        },
        {
          "indexed": false,
          "internalType": "address",
          "name": "sender",
          "type": "address"
        }
      ],
      "name": "ClusterSignedUp",
      "type": "event"
    },
    {
      "anonymous": false,
      "inputs": [
        {
          "indexed": false,
          "internalType": "uint256",
          "name": "daoRate",
          "type": "uint256"
        },
        {
          "indexed": false,
          "internalType": "uint256",
          "name": "_daoRate",
          "type": "uint256"
        }
      ],
      "name": "DAORateChanged",
      "type": "event"
    },
    {
      "anonymous": false,
      "inputs": [
        {
          "indexed": false,
          "internalType": "uint8",
          "name": "version",
          "type": "uint8"
        }
      ],
      "name": "Initialized",
      "type": "event"
    },
    {
      "anonymous": false,
      "inputs": [
        {
          "indexed": false,
          "internalType": "address",
          "name": "userAddress",
          "type": "address"
        },
        {
          "indexed": false,
          "internalType": "uint256",
          "name": "subnetId",
          "type": "uint256"
        },
        {
          "indexed": false,
          "internalType": "uint256",
          "name": "clusterId",
          "type": "uint256"
        },
        {
          "indexed": false,
          "internalType": "uint256",
          "name": "nftID",
          "type": "uint256"
        }
      ],
      "name": "NFTLockedForCluster",
      "type": "event"
    },
    {
      "anonymous": false,
      "inputs": [
        {
          "indexed": false,
          "internalType": "address",
          "name": "userAddress",
          "type": "address"
        },
        {
          "indexed": false,
          "internalType": "uint256",
          "name": "subnetId",
          "type": "uint256"
        },
        {
          "indexed": false,
          "internalType": "uint256",
          "name": "nftID",
          "type": "uint256"
        }
      ],
      "name": "NFTLockedForSubnet",
      "type": "event"
    },
    {
      "anonymous": false,
      "inputs": [
        {
          "indexed": false,
          "internalType": "address",
          "name": "account",
          "type": "address"
        }
      ],
      "name": "Paused",
      "type": "event"
    },
    {
      "anonymous": false,
      "inputs": [
        {
          "indexed": false,
          "internalType": "uint256",
          "name": "subnetId",
          "type": "uint256"
        },
        {
          "indexed": false,
          "internalType": "address",
          "name": "blacklistAddress",
          "type": "address"
        }
      ],
      "name": "RemovedWhitelistCluster",
      "type": "event"
    },
    {
      "anonymous": false,
      "inputs": [
        {
          "indexed": false,
          "internalType": "uint256",
          "name": "subnetId",
          "type": "uint256"
        },
        {
          "indexed": false,
          "internalType": "uint256[]",
          "name": "unitPrices",
          "type": "uint256[]"
        }
      ],
      "name": "RequestedClusterPriceChange",
      "type": "event"
    },
    {
      "anonymous": false,
      "inputs": [
        {
          "indexed": false,
          "internalType": "uint256",
          "name": "subnetId",
          "type": "uint256"
        }
      ],
      "name": "ResetWhitelistCluster",
      "type": "event"
    },
    {
      "anonymous": false,
      "inputs": [
        {
          "indexed": true,
          "internalType": "bytes32",
          "name": "role",
          "type": "bytes32"
        },
        {
          "indexed": true,
          "internalType": "bytes32",
          "name": "previousAdminRole",
          "type": "bytes32"
        },
        {
          "indexed": true,
          "internalType": "bytes32",
          "name": "newAdminRole",
          "type": "bytes32"
        }
      ],
      "name": "RoleAdminChanged",
      "type": "event"
    },
    {
      "anonymous": false,
      "inputs": [
        {
          "indexed": true,
          "internalType": "bytes32",
          "name": "role",
          "type": "bytes32"
        },
        {
          "indexed": true,
          "internalType": "address",
          "name": "account",
          "type": "address"
        },
        {
          "indexed": true,
          "internalType": "address",
          "name": "sender",
          "type": "address"
        }
      ],
      "name": "RoleGranted",
      "type": "event"
    },
    {
      "anonymous": false,
      "inputs": [
        {
          "indexed": true,
          "internalType": "bytes32",
          "name": "role",
          "type": "bytes32"
        },
        {
          "indexed": true,
          "internalType": "address",
          "name": "account",
          "type": "address"
        },
        {
          "indexed": true,
          "internalType": "address",
          "name": "sender",
          "type": "address"
        }
      ],
      "name": "RoleRevoked",
      "type": "event"
    },
    {
      "anonymous": false,
      "inputs": [
        {
          "indexed": false,
          "internalType": "uint256",
          "name": "subnetId",
          "type": "uint256"
        },
        {
          "components": [
            {
              "internalType": "uint256",
              "name": "subnetType",
              "type": "uint256"
            },
            {
              "internalType": "bool",
              "name": "sovereignStatus",
              "type": "bool"
            },
            {
              "internalType": "uint256",
              "name": "cloudProviderType",
              "type": "uint256"
            },
            {
              "internalType": "bool",
              "name": "subnetStatusListed",
              "type": "bool"
            },
            {
              "internalType": "uint256[]",
              "name": "unitPrices",
              "type": "uint256[]"
            },
            {
              "internalType": "uint256[]",
              "name": "otherAttributes",
              "type": "uint256[]"
            },
            {
              "internalType": "uint256",
              "name": "maxClusters",
              "type": "uint256"
            },
            {
              "internalType": "uint256",
              "name": "supportFeeRate",
              "type": "uint256"
            },
            {
              "internalType": "uint256",
              "name": "stackFeesReqd",
              "type": "uint256"
            }
          ],
          "indexed": false,
          "internalType": "struct Registration.SubnetAttributes",
          "name": "subnetAttributes",
          "type": "tuple"
        },
        {
          "indexed": false,
          "internalType": "address",
          "name": "sender",
          "type": "address"
        }
      ],
      "name": "SubnetAttributesChanged",
      "type": "event"
    },
    {
      "anonymous": false,
      "inputs": [
        {
          "indexed": false,
          "internalType": "uint256",
          "name": "subnetId",
          "type": "uint256"
        },
        {
          "indexed": false,
          "internalType": "address",
          "name": "subnetLocalDAO",
          "type": "address"
        },
        {
          "indexed": false,
          "internalType": "uint256",
          "name": "subnetType",
          "type": "uint256"
        },
        {
          "indexed": false,
          "internalType": "bool",
          "name": "sovereignStatus",
          "type": "bool"
        },
        {
          "indexed": false,
          "internalType": "uint256",
          "name": "cloudProviderType",
          "type": "uint256"
        },
        {
          "indexed": false,
          "internalType": "bool",
          "name": "subnetStatusListed",
          "type": "bool"
        },
        {
          "indexed": false,
          "internalType": "uint256[]",
          "name": "unitPrices",
          "type": "uint256[]"
        },
        {
          "indexed": false,
          "internalType": "uint256[]",
          "name": "otherAttributes",
          "type": "uint256[]"
        },
        {
          "indexed": false,
          "internalType": "uint256",
          "name": "maxClusters",
          "type": "uint256"
        },
        {
          "indexed": false,
          "internalType": "address[]",
          "name": "whiteListedClusters",
          "type": "address[]"
        },
        {
          "indexed": false,
          "internalType": "uint256",
          "name": "supportFeeRate",
          "type": "uint256"
        },
        {
          "indexed": false,
          "internalType": "address",
          "name": "sender",
          "type": "address"
        },
        {
          "indexed": false,
          "internalType": "uint256",
          "name": "stackFeesReqd",
          "type": "uint256"
        }
      ],
      "name": "SubnetCreated",
      "type": "event"
    },
    {
      "anonymous": false,
      "inputs": [
        {
          "indexed": false,
          "internalType": "uint256",
          "name": "subnetId",
          "type": "uint256"
        },
        {
          "indexed": false,
          "internalType": "uint256",
          "name": "clusterId",
          "type": "uint256"
        },
        {
          "indexed": false,
          "internalType": "address",
          "name": "sender",
          "type": "address"
        },
        {
          "indexed": false,
          "internalType": "address",
          "name": "newOwner",
          "type": "address"
        }
      ],
      "name": "TransferredClusterDAOOwnership",
      "type": "event"
    },
    {
      "anonymous": false,
      "inputs": [
        {
          "indexed": false,
          "internalType": "address",
          "name": "account",
          "type": "address"
        }
      ],
      "name": "Unpaused",
      "type": "event"
    },
    {
      "anonymous": false,
      "inputs": [
        {
          "indexed": false,
          "internalType": "uint256",
          "name": "subnetId",
          "type": "uint256"
        },
        {
          "indexed": false,
          "internalType": "uint256",
          "name": "clusterId",
          "type": "uint256"
        },
        {
          "indexed": false,
          "internalType": "address",
          "name": "sender",
          "type": "address"
        },
        {
          "indexed": false,
          "internalType": "uint256",
          "name": "NFTid",
          "type": "uint256"
        }
      ],
      "name": "WithdrawnNFTFromCluster",
      "type": "event"
    },
    {
      "anonymous": false,
      "inputs": [
        {
          "indexed": false,
          "internalType": "uint256[]",
          "name": "nftIds",
          "type": "uint256[]"
        }
      ],
      "name": "WithdrawnNFTs",
      "type": "event"
    },
    {
      "anonymous": false,
      "inputs": [
        {
          "indexed": false,
          "internalType": "uint256",
          "name": "subnetId",
          "type": "uint256"
        },
        {
          "indexed": false,
          "internalType": "uint256",
          "name": "clusterId",
          "type": "uint256"
        },
        {
          "indexed": false,
          "internalType": "address",
          "name": "sender",
          "type": "address"
        },
        {
          "indexed": false,
          "internalType": "uint256",
          "name": "stackTokens",
          "type": "uint256"
        }
      ],
      "name": "WithdrawnStackFromCluster",
      "type": "event"
    },
    {
      "anonymous": false,
      "inputs": [
        {
          "indexed": false,
          "internalType": "uint256",
          "name": "subnetId",
          "type": "uint256"
        },
        {
          "indexed": false,
          "internalType": "uint256",
          "name": "clusterId",
          "type": "uint256"
        },
        {
          "indexed": false,
          "internalType": "address",
          "name": "sender",
          "type": "address"
        },
        {
          "indexed": false,
          "internalType": "uint256",
          "name": "amount",
          "type": "uint256"
        }
      ],
      "name": "WithdrawnStackFromClusterByDAO",
      "type": "event"
    },
    {
      "inputs": [],
      "name": "CLUSTER_LIST_ROLE",
      "outputs": [
        {
          "internalType": "bytes32",
          "name": "",
          "type": "bytes32"
        }
      ],
      "stateMutability": "view",
      "type": "function"
    },
    {
      "inputs": [],
      "name": "COOLDOWN_ROLE",
      "outputs": [
        {
          "internalType": "bytes32",
          "name": "",
          "type": "bytes32"
        }
      ],
      "stateMutability": "view",
      "type": "function"
    },
    {
      "inputs": [],
      "name": "DEFAULT_ADMIN_ROLE",
      "outputs": [
        {
          "internalType": "bytes32",
          "name": "",
          "type": "bytes32"
        }
      ],
      "stateMutability": "view",
      "type": "function"
    },
    {
      "inputs": [],
      "name": "DarkMatterNFT",
      "outputs": [
        {
          "internalType": "contract IERC721Upgradeable",
          "name": "",
          "type": "address"
        }
      ],
      "stateMutability": "view",
      "type": "function"
    },
    {
      "inputs": [],
      "name": "DefaultWhitelistedClusterWeight",
      "outputs": [
        {
          "internalType": "uint256",
          "name": "",
          "type": "uint256"
        }
      ],
      "stateMutability": "view",
      "type": "function"
    },
    {
      "inputs": [],
      "name": "GLOBAL_DAO_ADDRESS",
      "outputs": [
        {
          "internalType": "address",
          "name": "",
          "type": "address"
        }
      ],
      "stateMutability": "view",
      "type": "function"
    },
    {
      "inputs": [],
      "name": "PAUSER_ROLE",
      "outputs": [
        {
          "internalType": "bytes32",
          "name": "",
          "type": "bytes32"
        }
      ],
      "stateMutability": "view",
      "type": "function"
    },
    {
      "inputs": [],
      "name": "PRICE_ROLE",
      "outputs": [
        {
          "internalType": "bytes32",
          "name": "",
          "type": "bytes32"
        }
      ],
      "stateMutability": "view",
      "type": "function"
    },
    {
      "inputs": [],
      "name": "REQD_STACK_FEES_FOR_SUBNET",
      "outputs": [
        {
          "internalType": "uint256",
          "name": "",
          "type": "uint256"
        }
      ],
      "stateMutability": "view",
      "type": "function"
    },
    {
      "inputs": [],
      "name": "SUBNET_ATTR_ROLE",
      "outputs": [
        {
          "internalType": "bytes32",
          "name": "",
          "type": "bytes32"
        }
      ],
      "stateMutability": "view",
      "type": "function"
    },
    {
      "inputs": [],
      "name": "StackToken",
      "outputs": [
        {
          "internalType": "contract IERC20Upgradeable",
          "name": "",
          "type": "address"
        }
      ],
      "stateMutability": "view",
      "type": "function"
    },
    {
      "inputs": [],
      "name": "SubnetDAODistributor",
      "outputs": [
        {
          "internalType": "contract ISubnetDAODistributor",
          "name": "",
          "type": "address"
        }
      ],
      "stateMutability": "view",
      "type": "function"
    },
    {
      "inputs": [],
      "name": "WHITELIST_ROLE",
      "outputs": [
        {
          "internalType": "bytes32",
          "name": "",
          "type": "bytes32"
        }
      ],
      "stateMutability": "view",
      "type": "function"
    },
    {
      "inputs": [],
      "name": "WITHDRAW_STACK_ROLE",
      "outputs": [
        {
          "internalType": "bytes32",
          "name": "",
          "type": "bytes32"
        }
      ],
      "stateMutability": "view",
      "type": "function"
    },
    {
      "inputs": [
        {
          "internalType": "uint256",
          "name": "subnetId",
          "type": "uint256"
        },
        {
          "internalType": "address[]",
          "name": "_whitelistAddresses",
          "type": "address[]"
        }
      ],
      "name": "addClusterToWhitelisted",
      "outputs": [],
      "stateMutability": "nonpayable",
      "type": "function"
    },
    {
      "inputs": [
        {
          "internalType": "uint256",
          "name": "subnetId",
          "type": "uint256"
        }
      ],
      "name": "applyChangedClusterPrice",
      "outputs": [],
      "stateMutability": "nonpayable",
      "type": "function"
    },
    {
      "inputs": [
        {
          "internalType": "uint256",
          "name": "subnetId",
          "type": "uint256"
        },
        {
          "internalType": "uint256",
          "name": "clusterId",
          "type": "uint256"
        },
        {
          "internalType": "uint256",
          "name": "_weight",
          "type": "uint256"
        }
      ],
      "name": "approveListingCluster",
      "outputs": [],
      "stateMutability": "nonpayable",
      "type": "function"
    },
    {
      "inputs": [
        {
          "internalType": "address",
          "name": "",
          "type": "address"
        }
      ],
      "name": "balanceOfStackLocked",
      "outputs": [
        {
          "internalType": "uint256",
          "name": "",
          "type": "uint256"
        }
      ],
      "stateMutability": "view",
      "type": "function"
    },
    {
      "inputs": [
        {
          "internalType": "uint256",
          "name": "_coolDownTimeSecs",
          "type": "uint256"
        }
      ],
      "name": "changeCoolDownTime",
      "outputs": [],
      "stateMutability": "nonpayable",
      "type": "function"
    },
    {
      "inputs": [
        {
          "internalType": "uint256",
          "name": "subnetId",
          "type": "uint256"
        },
        {
          "internalType": "uint256",
          "name": "clusterId",
          "type": "uint256"
        },
        {
          "internalType": "string",
          "name": "newDNSIP",
          "type": "string"
        }
      ],
      "name": "changeDNSIP",
      "outputs": [],
      "stateMutability": "nonpayable",
      "type": "function"
    },
    {
      "inputs": [
        {
          "internalType": "contract IERC721Upgradeable",
          "name": "_DarkMatterNFT",
          "type": "address"
        }
      ],
      "name": "changeNFT",
      "outputs": [],
      "stateMutability": "nonpayable",
      "type": "function"
    },
    {
      "inputs": [
        {
          "internalType": "uint256",
          "name": "subnetId",
          "type": "uint256"
        },
        {
          "internalType": "uint256",
          "name": "_attributeNo",
          "type": "uint256"
        },
        {
          "internalType": "uint256",
          "name": "_subnetType",
          "type": "uint256"
        },
        {
          "internalType": "bool",
          "name": "_sovereignStatus",
          "type": "bool"
        },
        {
          "internalType": "uint256",
          "name": "_cloudProviderType",
          "type": "uint256"
        },
        {
          "internalType": "bool",
          "name": "_subnetStatusListed",
          "type": "bool"
        },
        {
          "internalType": "uint256[]",
          "name": "_otherAttributes",
          "type": "uint256[]"
        },
        {
          "internalType": "uint256",
          "name": "_maxClusters",
          "type": "uint256"
        },
        {
          "internalType": "uint256",
          "name": "_supportFeeRate",
          "type": "uint256"
        },
        {
          "internalType": "uint256",
          "name": "_stackFeesReqd",
          "type": "uint256"
        }
      ],
      "name": "changeSubnetAttributes",
      "outputs": [],
      "stateMutability": "nonpayable",
      "type": "function"
    },
    {
      "inputs": [
        {
          "internalType": "uint256",
          "name": "_daoRate",
          "type": "uint256"
        }
      ],
      "name": "change_DAORate",
      "outputs": [],
      "stateMutability": "nonpayable",
      "type": "function"
    },
    {
      "inputs": [
        {
          "internalType": "uint256",
          "name": "_REQD_STACK_FEES_FOR_SUBNET",
          "type": "uint256"
        }
      ],
      "name": "change_REQD_STACK_FEES_FOR_SUBNET",
      "outputs": [],
      "stateMutability": "nonpayable",
      "type": "function"
    },
    {
      "inputs": [
        {
          "internalType": "uint256",
          "name": "subnetId",
          "type": "uint256"
        },
        {
          "internalType": "string",
          "name": "_DNSIP",
          "type": "string"
        },
        {
          "internalType": "address",
          "name": "_clusterDAO",
          "type": "address"
        },
        {
          "internalType": "uint256",
          "name": "nftId",
          "type": "uint256"
        }
      ],
      "name": "clusterSignUp",
      "outputs": [],
      "stateMutability": "nonpayable",
      "type": "function"
    },
    {
      "inputs": [],
      "name": "coolDownTimeForPriceChange",
      "outputs": [
        {
          "internalType": "uint256",
          "name": "",
          "type": "uint256"
        }
      ],
      "stateMutability": "view",
      "type": "function"
    },
    {
      "inputs": [
        {
          "internalType": "uint256",
          "name": "nftId",
          "type": "uint256"
        },
        {
          "internalType": "address",
          "name": "_subnetLocalDAO",
          "type": "address"
        },
        {
          "internalType": "uint256",
          "name": "_subnetType",
          "type": "uint256"
        },
        {
          "internalType": "bool",
          "name": "_sovereignStatus",
          "type": "bool"
        },
        {
          "internalType": "uint256",
          "name": "_cloudProviderType",
          "type": "uint256"
        },
        {
          "internalType": "bool",
          "name": "_subnetStatusListed",
          "type": "bool"
        },
        {
          "internalType": "uint256[]",
          "name": "_unitPrices",
          "type": "uint256[]"
        },
        {
          "internalType": "uint256[]",
          "name": "_otherAttributes",
          "type": "uint256[]"
        },
        {
          "internalType": "uint256",
          "name": "_maxClusters",
          "type": "uint256"
        },
        {
          "internalType": "address[]",
          "name": "_whiteListedClusters",
          "type": "address[]"
        },
        {
          "internalType": "uint256",
          "name": "_supportFeeRate",
          "type": "uint256"
        },
        {
          "internalType": "uint256",
          "name": "_stackFeesReqd",
          "type": "uint256"
        }
      ],
      "name": "createSubnet",
      "outputs": [],
      "stateMutability": "nonpayable",
      "type": "function"
    },
    {
      "inputs": [],
      "name": "daoRate",
      "outputs": [
        {
          "internalType": "uint256",
          "name": "",
          "type": "uint256"
        }
      ],
      "stateMutability": "view",
      "type": "function"
    },
    {
      "inputs": [
        {
          "internalType": "uint256",
          "name": "subnetId",
          "type": "uint256"
        },
        {
          "internalType": "uint256",
          "name": "clusterId",
          "type": "uint256"
        }
      ],
      "name": "delistCluster",
      "outputs": [],
      "stateMutability": "nonpayable",
      "type": "function"
    },
    {
      "inputs": [
        {
          "internalType": "uint256",
          "name": "_subnetId",
          "type": "uint256"
        },
        {
          "internalType": "uint256",
          "name": "_clusterId",
          "type": "uint256"
        }
      ],
      "name": "getClusterAttributes",
      "outputs": [
        {
          "internalType": "address",
          "name": "",
          "type": "address"
        },
        {
          "internalType": "string",
          "name": "",
          "type": "string"
        },
        {
          "internalType": "uint8",
          "name": "",
          "type": "uint8"
        },
        {
          "internalType": "uint256",
          "name": "",
          "type": "uint256"
        }
      ],
      "stateMutability": "view",
      "type": "function"
    },
    {
      "inputs": [
        {
          "internalType": "bytes32",
          "name": "role",
          "type": "bytes32"
        }
      ],
      "name": "getRoleAdmin",
      "outputs": [
        {
          "internalType": "bytes32",
          "name": "",
          "type": "bytes32"
        }
      ],
      "stateMutability": "view",
      "type": "function"
    },
    {
      "inputs": [
        {
          "internalType": "uint256",
          "name": "subnetId",
          "type": "uint256"
        }
      ],
      "name": "getSubnetAttributes",
      "outputs": [
        {
          "internalType": "uint256",
          "name": "",
          "type": "uint256"
        },
        {
          "internalType": "bool",
          "name": "",
          "type": "bool"
        },
        {
          "internalType": "uint256",
          "name": "",
          "type": "uint256"
        },
        {
          "internalType": "bool",
          "name": "",
          "type": "bool"
        },
        {
          "internalType": "uint256[]",
          "name": "",
          "type": "uint256[]"
        },
        {
          "internalType": "uint256[]",
          "name": "",
          "type": "uint256[]"
        },
        {
          "internalType": "uint256",
          "name": "",
          "type": "uint256"
        },
        {
          "internalType": "uint256",
          "name": "",
          "type": "uint256"
        },
        {
          "internalType": "uint256",
          "name": "",
          "type": "uint256"
        }
      ],
      "stateMutability": "view",
      "type": "function"
    },
    {
      "inputs": [
        {
          "internalType": "bytes32",
          "name": "role",
          "type": "bytes32"
        },
        {
          "internalType": "address",
          "name": "account",
          "type": "address"
        }
      ],
      "name": "grantRole",
      "outputs": [],
      "stateMutability": "nonpayable",
      "type": "function"
    },
    {
      "inputs": [
        {
          "internalType": "uint256",
          "name": "subnetId",
          "type": "uint256"
        },
        {
          "internalType": "address",
          "name": "user",
          "type": "address"
        }
      ],
      "name": "hasPermissionToClusterList",
      "outputs": [
        {
          "internalType": "bool",
          "name": "",
          "type": "bool"
        }
      ],
      "stateMutability": "view",
      "type": "function"
    },
    {
      "inputs": [
        {
          "internalType": "bytes32",
          "name": "role",
          "type": "bytes32"
        },
        {
          "internalType": "address",
          "name": "account",
          "type": "address"
        }
      ],
      "name": "hasRole",
      "outputs": [
        {
          "internalType": "bool",
          "name": "",
          "type": "bool"
        }
      ],
      "stateMutability": "view",
      "type": "function"
    },
    {
      "inputs": [
        {
          "internalType": "contract IERC721Upgradeable",
          "name": "_DarkMatterNFT",
          "type": "address"
        },
        {
          "internalType": "contract IERC20Upgradeable",
          "name": "_StackToken",
          "type": "address"
        },
        {
          "internalType": "address",
          "name": "_GlobalDAO",
          "type": "address"
        },
        {
          "internalType": "uint256",
          "name": "_coolDownTimeForPriceChange",
          "type": "uint256"
        },
        {
          "internalType": "uint256",
          "name": "_daoRate",
          "type": "uint256"
        },
        {
          "internalType": "uint256",
          "name": "_REQD_STACK_FEES_FOR_SUBNET",
          "type": "uint256"
        },
        {
          "internalType": "uint256",
          "name": "_DefaultWhitelistedClusterWeight",
          "type": "uint256"
        }
      ],
      "name": "initialize",
      "outputs": [],
      "stateMutability": "nonpayable",
      "type": "function"
    },
    {
      "inputs": [
        {
          "internalType": "address",
          "name": "_operator",
          "type": "address"
        },
        {
          "internalType": "address",
          "name": "_from",
          "type": "address"
        },
        {
          "internalType": "uint256",
          "name": "_id",
          "type": "uint256"
        },
        {
          "internalType": "bytes",
          "name": "_data",
          "type": "bytes"
        }
      ],
      "name": "onERC721Received",
      "outputs": [
        {
          "internalType": "bytes4",
          "name": "",
          "type": "bytes4"
        }
      ],
      "stateMutability": "nonpayable",
      "type": "function"
    },
    {
      "inputs": [],
      "name": "pause",
      "outputs": [],
      "stateMutability": "nonpayable",
      "type": "function"
    },
    {
      "inputs": [],
      "name": "paused",
      "outputs": [
        {
          "internalType": "bool",
          "name": "",
          "type": "bool"
        }
      ],
      "stateMutability": "view",
      "type": "function"
    },
    {
      "inputs": [
        {
          "internalType": "contract IERC1155Upgradeable",
          "name": "token",
          "type": "address"
        },
        {
          "internalType": "uint256",
          "name": "tokenId",
          "type": "uint256"
        },
        {
          "internalType": "uint256",
          "name": "amount",
          "type": "uint256"
        }
      ],
      "name": "recoverERC1155",
      "outputs": [],
      "stateMutability": "nonpayable",
      "type": "function"
    },
    {
      "inputs": [
        {
          "internalType": "contract IERC721Upgradeable",
          "name": "token",
          "type": "address"
        },
        {
          "internalType": "uint256",
          "name": "tokenId",
          "type": "uint256"
        }
      ],
      "name": "recoverERC721",
      "outputs": [],
      "stateMutability": "nonpayable",
      "type": "function"
    },
    {
      "inputs": [
        {
          "internalType": "uint256",
          "name": "amount",
          "type": "uint256"
        }
      ],
      "name": "recoverETH",
      "outputs": [],
      "stateMutability": "nonpayable",
      "type": "function"
    },
    {
      "inputs": [
        {
          "internalType": "contract IERC20Upgradeable",
          "name": "token",
          "type": "address"
        }
      ],
      "name": "recoverTokens",
      "outputs": [],
      "stateMutability": "nonpayable",
      "type": "function"
    },
    {
      "inputs": [
        {
          "internalType": "uint256",
          "name": "subnetId",
          "type": "uint256"
        },
        {
          "internalType": "address",
          "name": "_blacklistAddress",
          "type": "address"
        },
        {
          "internalType": "uint256",
          "name": "_index",
          "type": "uint256"
        }
      ],
      "name": "removeClusterFromWhitelisted",
      "outputs": [],
      "stateMutability": "nonpayable",
      "type": "function"
    },
    {
      "inputs": [
        {
          "internalType": "bytes32",
          "name": "role",
          "type": "bytes32"
        },
        {
          "internalType": "address",
          "name": "account",
          "type": "address"
        }
      ],
      "name": "renounceRole",
      "outputs": [],
      "stateMutability": "nonpayable",
      "type": "function"
    },
    {
      "inputs": [
        {
          "internalType": "uint256",
          "name": "subnetId",
          "type": "uint256"
        },
        {
          "internalType": "uint256[]",
          "name": "_unitPrices",
          "type": "uint256[]"
        }
      ],
      "name": "requestClusterPriceChange",
      "outputs": [],
      "stateMutability": "nonpayable",
      "type": "function"
    },
    {
      "inputs": [
        {
          "internalType": "uint256",
          "name": "subnetId",
          "type": "uint256"
        }
      ],
      "name": "resetWhitelistClusters",
      "outputs": [],
      "stateMutability": "nonpayable",
      "type": "function"
    },
    {
      "inputs": [
        {
          "internalType": "bytes32",
          "name": "role",
          "type": "bytes32"
        },
        {
          "internalType": "address",
          "name": "account",
          "type": "address"
        }
      ],
      "name": "revokeRole",
      "outputs": [],
      "stateMutability": "nonpayable",
      "type": "function"
    },
    {
      "inputs": [
        {
          "internalType": "contract ISubnetDAODistributor",
          "name": "_SubnetDAODistributor",
          "type": "address"
        }
      ],
      "name": "set_SubnetDAODistributorContract",
      "outputs": [],
      "stateMutability": "nonpayable",
      "type": "function"
    },
    {
      "inputs": [
        {
          "internalType": "uint256",
          "name": "",
          "type": "uint256"
        }
      ],
      "name": "subnetAttributes",
      "outputs": [
        {
          "internalType": "uint256",
          "name": "subnetType",
          "type": "uint256"
        },
        {
          "internalType": "bool",
          "name": "sovereignStatus",
          "type": "bool"
        },
        {
          "internalType": "uint256",
          "name": "cloudProviderType",
          "type": "uint256"
        },
        {
          "internalType": "bool",
          "name": "subnetStatusListed",
          "type": "bool"
        },
        {
          "internalType": "uint256",
          "name": "maxClusters",
          "type": "uint256"
        },
        {
          "internalType": "uint256",
          "name": "supportFeeRate",
          "type": "uint256"
        },
        {
          "internalType": "uint256",
          "name": "stackFeesReqd",
          "type": "uint256"
        }
      ],
      "stateMutability": "view",
      "type": "function"
    },
    {
      "inputs": [
        {
          "internalType": "uint256",
          "name": "",
          "type": "uint256"
        },
        {
          "internalType": "uint256",
          "name": "",
          "type": "uint256"
        }
      ],
      "name": "subnetClusters",
      "outputs": [
        {
          "internalType": "address",
          "name": "ClusterDAO",
          "type": "address"
        },
        {
          "internalType": "string",
          "name": "DNSIP",
          "type": "string"
        },
        {
          "internalType": "uint8",
          "name": "listed",
          "type": "uint8"
        },
        {
          "internalType": "uint256",
          "name": "NFTidLocked",
          "type": "uint256"
        }
      ],
      "stateMutability": "view",
      "type": "function"
    },
    {
      "inputs": [
        {
          "internalType": "uint256",
          "name": "",
          "type": "uint256"
        }
      ],
      "name": "subnetLocalDAO",
      "outputs": [
        {
          "internalType": "address",
          "name": "",
          "type": "address"
        }
      ],
      "stateMutability": "view",
      "type": "function"
    },
    {
      "inputs": [
        {
          "internalType": "bytes4",
          "name": "interfaceId",
          "type": "bytes4"
        }
      ],
      "name": "supportsInterface",
      "outputs": [
        {
          "internalType": "bool",
          "name": "",
          "type": "bool"
        }
      ],
      "stateMutability": "view",
      "type": "function"
    },
    {
      "inputs": [
        {
          "internalType": "uint256",
          "name": "subnetId",
          "type": "uint256"
        }
      ],
      "name": "totalClusterSpotsAvailable",
      "outputs": [
        {
          "internalType": "uint256",
          "name": "",
          "type": "uint256"
        }
      ],
      "stateMutability": "view",
      "type": "function"
    },
    {
      "inputs": [
        {
          "internalType": "uint256",
          "name": "",
          "type": "uint256"
        }
      ],
      "name": "totalClustersSigned",
      "outputs": [
        {
          "internalType": "uint256",
          "name": "",
          "type": "uint256"
        }
      ],
      "stateMutability": "view",
      "type": "function"
    },
    {
      "inputs": [],
      "name": "totalSubnets",
      "outputs": [
        {
          "internalType": "uint256",
          "name": "",
          "type": "uint256"
        }
      ],
      "stateMutability": "view",
      "type": "function"
    },
    {
      "inputs": [
        {
          "internalType": "uint256",
          "name": "subnetId",
          "type": "uint256"
        },
        {
          "internalType": "uint256",
          "name": "clusterId",
          "type": "uint256"
        },
        {
          "internalType": "address",
          "name": "_newOwner",
          "type": "address"
        }
      ],
      "name": "transferClusterDAOOwnership",
      "outputs": [],
      "stateMutability": "nonpayable",
      "type": "function"
    },
    {
      "inputs": [],
      "name": "unpause",
      "outputs": [],
      "stateMutability": "nonpayable",
      "type": "function"
    },
    {
      "inputs": [
        {
          "internalType": "uint256",
          "name": "",
          "type": "uint256"
        },
        {
          "internalType": "uint256",
          "name": "",
          "type": "uint256"
        }
      ],
      "name": "whiteListedClusters",
      "outputs": [
        {
          "internalType": "address",
          "name": "",
          "type": "address"
        }
      ],
      "stateMutability": "view",
      "type": "function"
    },
    {
      "inputs": [
        {
          "internalType": "uint256",
          "name": "subnetId",
          "type": "uint256"
        },
        {
          "internalType": "uint256",
          "name": "clusterId",
          "type": "uint256"
        }
      ],
      "name": "withdrawClusterForDelistedSubnet",
      "outputs": [],
      "stateMutability": "nonpayable",
      "type": "function"
    },
    {
      "inputs": [
        {
          "internalType": "uint256[]",
          "name": "_nftIds",
          "type": "uint256[]"
        }
      ],
      "name": "withdrawNFT",
      "outputs": [],
      "stateMutability": "nonpayable",
      "type": "function"
    },
    {
      "inputs": [
        {
          "internalType": "uint256",
          "name": "subnetId",
          "type": "uint256"
        },
        {
          "internalType": "uint256",
          "name": "clusterId",
          "type": "uint256"
        },
        {
          "internalType": "uint256",
          "name": "_amount",
          "type": "uint256"
        }
      ],
      "name": "withdrawStackFromClusterByDAO",
      "outputs": [],
      "stateMutability": "nonpayable",
      "type": "function"
    }
  ],
  "bytecode": "0x608060405234801561001057600080fd5b5061473a806100206000396000f3fe608060405234801561001057600080fd5b50600436106103ba5760003560e01c80638456cb59116101f4578063bf8ab0c11161011a578063df05f521116100ad578063f8b4ff221161007c578063f8b4ff221461092e578063fb91758a14610941578063ffbd818114610968578063ffd2f5f81461097b576103ba565b8063df05f521146108e0578063e16000a4146108f3578063e63ab1e914610906578063eff49d2b1461091b576103ba565b8063cf6393b8116100e9578063cf6393b81461089e578063d3335553146108a7578063d547741f146108ba578063d8aaee00146108cd576103ba565b8063bf8ab0c114610845578063c92077bf14610858578063cbaa1d9b14610878578063ceb7fa4b1461088b576103ba565b80639cbf076211610192578063a2b6715811610161578063a2b6715814610803578063a5130a4b1461080c578063a907dded1461081f578063aca7207a14610832576103ba565b80639cbf0762146107ae578063a1aa492b146107c1578063a217fddf146107e8578063a23b00df146107f0576103ba565b80638ccf724b116101ce5780638ccf724b1461076057806391d148541461077557806394f7ec71146107885780639830a5c51461079b576103ba565b80638456cb591461072557806384a075e51461072d57806384cb7f4f14610740576103ba565b80634b0b3dc7116102e457806372bbb5fe116102775780637a997ab7116102465780637a997ab7146106c35780637cf4c3b7146106d8578063819d4cc6146106ff57806383f59ac614610712576103ba565b806372bbb5fe1461064c57806373d97f391461065f57806379b57c321461068757806379fed2eb1461069a576103ba565b80635c975abb116102b35780635c975abb1461058f5780636067945f1461059a57806360b5f756146105bd578063719eaefc14610643576103ba565b80634b0b3dc71461054d5780634b6bd2d31461056057806353e775c5146105735780635c2b146f1461057c576103ba565b806320054db21161035c5780632f2ff15d1161032b5780632f2ff15d1461051657806336568abe146105295780633a430b4f1461053c5780633f4ba83a14610545576103ba565b806320054db2146104a25780632106031f146104b5578063248a9ca3146104e05780632b4656c814610503576103ba565b8063142d92c511610398578063142d92c51461040f578063150b7a021461044457806316114acd1461047c578063193d15891461048f576103ba565b806301ffc9a7146103bf578063080bf636146103e757806308498586146103fc575b600080fd5b6103d26103cd366004613b04565b61098e565b60405190151581526020015b60405180910390f35b6103fa6103f5366004613dc8565b6109c7565b005b6103fa61040a366004613e47565b610eb2565b6104367fc45069b141f83fdb9a15de03a5d47e65750f13669a7d610468dde2a64542857281565b6040519081526020016103de565b6104636104523660046139d6565b630a85bd0160e11b95945050505050565b6040516001600160e01b031990911681526020016103de565b6103fa61048a3660046139ba565b610fd3565b6103fa61049d366004613ecc565b611070565b6103fa6104b0366004613c10565b611221565b60c9546104c8906001600160a01b031681565b6040516001600160a01b0390911681526020016103de565b6104366104ee366004613abd565b60009081526065602052604090206001015490565b6103fa610511366004613b60565b611491565b6103fa610524366004613ad5565b611666565b6103fa610537366004613ad5565b611690565b61043660ce5481565b6103fa61170a565b6103fa61055b366004613a6f565b61172d565b6103fa61056e3660046139ba565b61181e565b61043660cf5481565b6103fa61058a366004613abd565b611893565b60975460ff166103d2565b6105ad6105a8366004613e26565b6119a7565b6040516103de9493929190614121565b61060e6105cb366004613abd565b60d1602052600090815260409020805460018201546002830154600384015460068501546007860154600890960154949560ff9485169593949092169290919087565b604080519788529515156020880152948601939093529015156060850152608084015260a083015260c082015260e0016103de565b61043660d85481565b61043661065a366004613abd565b611a71565b61067261066d366004613abd565b611b08565b6040516103de999897969594939291906143a1565b6103fa610695366004613e26565b611cc5565b6104c86106a8366004613abd565b60d2602052600090815260409020546001600160a01b031681565b6104366000805160206146a583398151915281565b6104367f515cb9a6faf5ac018717b314df173fdbfa087f4f7981dfa1b108db1f00015d1981565b6103fa61070d366004613bcd565b611dea565b60cc546104c8906001600160a01b031681565b6103fa611e5c565b60ca546104c8906001600160a01b031681565b61043661074e366004613abd565b60d56020526000908152604090205481565b6104366000805160206146c583398151915281565b6103d2610783366004613ad5565b611e7c565b6104c8610796366004613e26565b611ea9565b6103fa6107a9366004613d4a565b611ee1565b6103fa6107bc366004613e7f565b612047565b6104367f0f751c86f068434f3f52b374dc6ecf5a4dda893e6eea601c8012ca82c7e9fce581565b610436600081565b6105ad6107fe366004613e26565b61213c565b61043660d45481565b6103fa61081a366004613d8e565b61221f565b6103fa61082d3660046139ba565b6122a3565b6103fa610840366004613abd565b6122fc565b6103fa610853366004613ecc565b61235b565b6104366108663660046139ba565b60d76020526000908152604090205481565b6103fa610886366004613b2c565b6124b3565b6103fa610899366004613abd565b612540565b61043660cd5481565b6103fa6108b5366004613abd565b612626565b6103fa6108c8366004613ad5565b61265e565b6103fa6108db366004613c47565b612683565b6103fa6108ee366004613abd565b6129d4565b6103fa610901366004613ef7565b6129e5565b6104366000805160206146e583398151915281565b6103d2610929366004613ad5565b612b93565b6103fa61093c366004613abd565b612be7565b6104367fd4656a873938c6a54143cf99a88af3386da566bdef9cba62b37bbb4b88969b2d81565b60cb546104c8906001600160a01b031681565b6103fa610989366004613e26565b612c34565b60006001600160e01b03198216637965db0b60e01b14806109bf57506301ffc9a760e01b6001600160e01b03198316145b90505b919050565b60975460ff16156109f35760405162461bcd60e51b81526004016109ea906141de565b60405180910390fd5b600084815260d1602052604090206001015460ff1615610ab057604080516020808201909252600081528451918501919091207fc5d2460186f7233c927e7db2dcc703c0e500b653ca82273b7bfad8045d85a4701415610aae5760405162461bcd60e51b815260206004820152603060248201527f444e532f49502063616e6e6f7420626520656d70747920666f72206e6f6e207360448201526f6f7665726569676e207375626e65747360801b60648201526084016109ea565b505b6000610abb85611a71565b11610b205760405162461bcd60e51b815260206004820152602f60248201527f4e6f2073706f747320617661696c61626c652c206d6178536c6f74732072656160448201526e18da195908199bdc881cdd589b995d608a1b60648201526084016109ea565b60c9546001600160a01b03166323b872dd3330846040518463ffffffff1660e01b8152600401610b52939291906140fd565b600060405180830381600087803b158015610b6c57600080fd5b505af1158015610b80573d6000803e3d6000fd5b505060ca54600087815260d16020526040908190206008015490516323b872dd60e01b81526001600160a01b0390921693506323b872dd9250610bc991339130916004016140fd565b602060405180830381600087803b158015610be357600080fd5b505af1158015610bf7573d6000803e3d6000fd5b505050506040513d601f19601f82011682018060405250810190610c1b9190613aa1565b50600084815260d160209081526040808320600801546001600160a01b038616845260d790925290912054610c4f91612f37565b6001600160a01b038316600081815260d7602090815260408083209490945587825260d581528382205460d6825284832081845282529390912080546001600160a01b03191690921782558551610cac9260010191870190613703565b50600085815260d660209081526040808320848452825280832060028101805460ff19166001908117909155600390910186905588845260d590925290912054610cf591612f37565b600086815260d560205260408120919091555b600086815260d36020526040902054811015610e2457600086815260d36020526040902080546001600160a01b038616919083908110610d5857634e487b7160e01b600052603260045260246000fd5b6000918252602090912001546001600160a01b03161415610e1257600086815260d660209081526040808320858452909152908190206002908101805460ff1916909117905560cb5460cf5491516335961f1f60e11b8152600481018990526001600160a01b0387811660248301526044820193909352911690636b2c3e3e90606401600060405180830381600087803b158015610df557600080fd5b505af1158015610e09573d6000803e3d6000fd5b50505050610e24565b80610e1c8161463a565b915050610d08565b507f9fb9ac4c6d9a62f6befa9ce65c92f896aeb8c8abea750a82bc01b12cdc85c0cd8582868633604051610e5c9594939291906144d6565b60405180910390a160408051338152602081018790528082018390526060810184905290517f1015cbdf9c2e7decb331210c6daaa13e038656ae7309ee8a7a051781800111559181900360800190a15050505050565b60975460ff1615610ed55760405162461bcd60e51b81526004016109ea906141de565b600083815260d6602090815260408083208584529091529020546001600160a01b03163314610f3e5760405162461bcd60e51b81526020600482015260156024820152742737ba103a34329031b63ab9ba32b91037bbb732b960591b60448201526064016109ea565b600083815260d660209081526040808320858452909152902080546001600160a01b0319166001600160a01b0383161790557f781b079fc079d37024e79662c9a159bec216bc0fa98c48a5d0f9e44a02d85a1b8383610f9a3390565b6040805193845260208401929092526001600160a01b0390811691830191909152831660608201526080015b60405180910390a1505050565b6000610fde81612f4a565b6040516370a0823160e01b815230600482015261106c9033906001600160a01b038516906370a082319060240160206040518083038186803b15801561102357600080fd5b505afa158015611037573d6000803e3d6000fd5b505050506040513d601f19601f8201168201806040525081019061105b9190613bf8565b6001600160a01b0385169190612f54565b5050565b6000805160206146c583398151915261108881612f4a565b600084815260d660209081526040808320868452909152902060029081015460ff16141561112a5760405162461bcd60e51b815260206004820152604360248201527f416c726561647920617070726f7665642065697468657220627920776869746560448201527f6c697374696e67206f722062792063616c6c696e6720746869732066756e637460648201526234b7b760e91b608482015260a4016109ea565b600084815260d660209081526040808320868452909152908190206002808201805460ff1916909117905560cb54905491516335961f1f60e11b8152600481018790526001600160a01b03928316602482015260448101859052911690636b2c3e3e90606401600060405180830381600087803b1580156111aa57600080fd5b505af11580156111be573d6000803e3d6000fd5b505050507f033d06e667c8589d6bf094a28be43fdc2ca4bc976f081304e77575d6a44682a684846111ec3390565b6040805193845260208401929092526001600160a01b031690820152600260608201526080015b60405180910390a150505050565b600083815260d36020526040902080546001600160a01b03841691908390811061125b57634e487b7160e01b600052603260045260246000fd5b6000918252602090912001546001600160a01b0316146112cd5760405162461bcd60e51b815260206004820152602760248201527f4164647265737320646f6e6f74206d61746368207769746820696e64657820706044820152661c9bdd9a59195960ca1b60648201526084016109ea565b6112e56000805160206146a583398151915233610783565b806113065750600083815260d260205260409020546001600160a01b031633145b6113225760405162461bcd60e51b81526004016109ea90614181565b805b600084815260d3602052604090205461133f906001906145a1565b8110156113ff57600084815260d36020526040902061135f82600161456a565b8154811061137d57634e487b7160e01b600052603260045260246000fd5b600091825260208083209091015486835260d3909152604090912080546001600160a01b0390921691839081106113c457634e487b7160e01b600052603260045260246000fd5b600091825260209091200180546001600160a01b0319166001600160a01b0392909216919091179055806113f78161463a565b915050611324565b50600083815260d36020526040902080548061142b57634e487b7160e01b600052603160045260246000fd5b600082815260209020810160001990810180546001600160a01b03191690550190556040517f061b5b655cfeaf344bc505d25124654c45ca9b9d781c11dc81a6222a4169850b90610fc690859085909182526001600160a01b0316602082015260400190565b600061149d6001612fa6565b905080156114b5576000805461ff0019166101001790555b6114bd61302b565b6114c5613054565b6114d0600087613087565b6114e86000805160206146c583398151915287613087565b6115127f515cb9a6faf5ac018717b314df173fdbfa087f4f7981dfa1b108db1f00015d1987613087565b61153c7fc45069b141f83fdb9a15de03a5d47e65750f13669a7d610468dde2a64542857287613087565b6115667fd4656a873938c6a54143cf99a88af3386da566bdef9cba62b37bbb4b88969b2d87613087565b61157e6000805160206146a583398151915287613087565b6115966000805160206146e583398151915287613087565b6115c07f0f751c86f068434f3f52b374dc6ecf5a4dda893e6eea601c8012ca82c7e9fce587613087565b60cc80546001600160a01b038089166001600160a01b03199283161790925560c980548b841690831617905560ca8054928a1692909116919091179055600060d45560d885905560cd84905560ce83905560cf829055801561165c576000805461ff0019169055604051600181527f7f26b83ff96e1f2b6a682f133852f6798a09c465da95921460cefb38474024989060200160405180910390a15b5050505050505050565b60008281526065602052604090206001015461168181612f4a565b61168b8383613087565b505050565b6001600160a01b03811633146117005760405162461bcd60e51b815260206004820152602f60248201527f416363657373436f6e74726f6c3a2063616e206f6e6c792072656e6f756e636560448201526e103937b632b9903337b91039b2b63360891b60648201526084016109ea565b61106c828261310d565b6000805160206146e583398151915261172281612f4a565b61172a613174565b50565b600061173881612f4a565b60005b82518110156117e25760c9546001600160a01b03166323b872dd303386858151811061177757634e487b7160e01b600052603260045260246000fd5b60200260200101516040518463ffffffff1660e01b815260040161179d939291906140fd565b600060405180830381600087803b1580156117b757600080fd5b505af11580156117cb573d6000803e3d6000fd5b5050505080806117da9061463a565b91505061173b565b507f44f90752d4e829c0ece87e335cabadbe59eae106989e8c33f98cffd4f301c27382604051611812919061415b565b60405180910390a15050565b600061182981612f4a565b60cb546001600160a01b0316156118705760405162461bcd60e51b815260206004820152600b60248201526a105b1c9958591e481cd95d60aa1b60448201526064016109ea565b5060cb80546001600160a01b0319166001600160a01b0392909216919091179055565b6000805160206146a58339815191526118ab81612f4a565b600082815260d160205260409020546001146119015760405162461bcd60e51b8152602060048201526015602482015274105b1c9958591e481c1d589b1a58c81cdd589b995d605a1b60448201526064016109ea565b6119196000805160206146a583398151915233610783565b8061193a5750600082815260d260205260409020546001600160a01b031633145b6119565760405162461bcd60e51b81526004016109ea90614181565b600082815260d36020526040902060608051909161197691608090613787565b506040518381527f9e70d79633df959d6b05d1099cfa06b805b55ad2ec5b7482f72b5d3413f5fdb090602001610fc6565b60d6602090815260009283526040808420909152908252902080546001820180546001600160a01b0390921692916119de906145ff565b80601f0160208091040260200160405190810160405280929190818152602001828054611a0a906145ff565b8015611a575780601f10611a2c57610100808354040283529160200191611a57565b820191906000526020600020905b815481529060010190602001808311611a3a57829003601f168201915b505050506002830154600390930154919260ff1691905084565b600081815260d5602052604081205481805b82811015611ad357600085815260d660209081526040808320848452909152902060029081015460ff161415611ac157611abe826001612f37565b91505b80611acb8161463a565b915050611a83565b506000611ae08383613207565b600086815260d16020526040902060060154909150611aff9082613207565b95945050505050565b6000806000806060806000806000808a905060d160008281526020019081526020016000206000015460d1600083815260200190815260200160002060010160009054906101000a900460ff1660d160008481526020019081526020016000206002015460d1600085815260200190815260200160002060030160009054906101000a900460ff1660d1600086815260200190815260200160002060040160d1600087815260200190815260200160002060050160d160008881526020019081526020016000206006015460d160008981526020019081526020016000206007015460d160008a81526020019081526020016000206008015484805480602002602001604051908101604052809291908181526020018280548015611c4c57602002820191906000526020600020905b815481526020019060010190808311611c38575b5050505050945083805480602002602001604051908101604052809291908181526020018280548015611c9e57602002820191906000526020600020905b815481526020019060010190808311611c8a575b50505050509350995099509950995099509950995099509950509193959799909294969850565b611cdd6000805160206146c583398151915233610783565b80611d095750600082815260d6602090815260408083208484529091529020546001600160a01b031633145b611d725760405162461bcd60e51b815260206004820152603460248201527f53656e646572206973206e6f7420436c7573746572206f776e6572206f722068604482015273617320434c55535445525f4c4953545f524f4c4560601b60648201526084016109ea565b600082815260d66020908152604080832084845290915290206002908101805460ff191690911790557f033d06e667c8589d6bf094a28be43fdc2ca4bc976f081304e77575d6a44682a68282336040805193845260208401929092526001600160a01b03169082015260026060820152608001611812565b6000611df581612f4a565b604051632142170760e11b81526001600160a01b038416906342842e0e90611e25903090339087906004016140fd565b600060405180830381600087803b158015611e3f57600080fd5b505af1158015611e53573d6000803e3d6000fd5b50505050505050565b6000805160206146e5833981519152611e7481612f4a565b61172a613213565b60008281526065602090815260408083206001600160a01b038516845290915290205460ff165b92915050565b60d36020528160005260406000208181548110611ec557600080fd5b6000918252602090912001546001600160a01b03169150829050565b600082815260d16020526040902054600114611f375760405162461bcd60e51b8152602060048201526015602482015274105b1c9958591e481c1d589b1a58c81cdd589b995d605a1b60448201526064016109ea565b611f4f6000805160206146a583398151915233610783565b80611f705750600082815260d260205260409020546001600160a01b031633145b611f8c5760405162461bcd60e51b81526004016109ea90614181565b60005b815181101561201557600083815260d3602052604090208251839083908110611fc857634e487b7160e01b600052603260045260246000fd5b60209081029190910181015182546001810184556000938452919092200180546001600160a01b0319166001600160a01b039092169190911790558061200d8161463a565b915050611f8f565b507f796f24f814d152716ce0b8e64483e688c61dca897d5816d74efdc8e0665be4328282604051611812929190614356565b60975460ff161561206a5760405162461bcd60e51b81526004016109ea906141de565b600083815260d6602090815260408083208584529091529020546001600160a01b031633146120db5760405162461bcd60e51b815260206004820152601b60248201527f53656e646572206973206e6f7420436c7573746572206f776e6572000000000060448201526064016109ea565b600083815260d6602090815260408083208584528252909120825161210892600190920191840190613703565b507fe24e4bfe4f4c3361921b5d9ef1eac8f9a55d09ae3d9699c51d1a668ede2c8319838383604051610fc6939291906144b7565b600082815260d660209081526040808320848452909152812080546002820154600383015460019093018054606094869485946001600160a01b03909116939260ff9091169190839061218e906145ff565b80601f01602080910402602001604051908101604052809291908181526020018280546121ba906145ff565b80156122075780601f106121dc57610100808354040283529160200191612207565b820191906000526020600020905b8154815290600101906020018083116121ea57829003601f168201915b50505050509250935093509350935092959194509250565b7fd4656a873938c6a54143cf99a88af3386da566bdef9cba62b37bbb4b88969b2d61224981612f4a565b600083815260d0602090815260409091204281558351612271926001909201918501906137dc565b507fe313790d329011b4379172e25d9354b5de88eb0f7bc3053f5ab0b366d3cda3b88383604051610fc692919061436f565b60006122ae81612f4a565b60c980546001600160a01b0319166001600160a01b0384169081179091556040519081527f0509ed52799171e23f5c37dfa66db8e0dadb499373ec7eb90b79a6a6ffe7230490602001611812565b7fc45069b141f83fdb9a15de03a5d47e65750f13669a7d610468dde2a64542857261232681612f4a565b60d88290556040518281527fd62325d508fc47cbcfee1d1874e8629885af65954ba2d26dccfe1381131a45ca90602001611812565b7f0f751c86f068434f3f52b374dc6ecf5a4dda893e6eea601c8012ca82c7e9fce561238581612f4a565b600084815260d6602090815260408083208684528252808320546001600160a01b0316835260d79091529020546123bc9083613207565b600085815260d6602090815260408083208784528252808320546001600160a01b03908116845260d79092529091209190915560ca54166323b872dd3033856040518463ffffffff1660e01b8152600401612419939291906140fd565b602060405180830381600087803b15801561243357600080fd5b505af1158015612447573d6000803e3d6000fd5b505050506040513d601f19601f8201168201806040525081019061246b9190613aa1565b5060408051858152602081018590523391810191909152606081018390527feaf0dcecd372ff2fedd93f8bf5b69976ef33e3c98a5c7792faccc0a316a2314890608001611213565b60006124be81612f4a565b604051637921219560e11b8152306004820152336024820152604481018490526064810183905260a06084820152600260a482015261060f60f31b60c48201526001600160a01b0385169063f242432a9060e401600060405180830381600087803b15801561252c57600080fd5b505af115801561165c573d6000803e3d6000fd5b60d854600082815260d0602052604090205461255b91612f37565b42116125a95760405162461bcd60e51b815260206004820152601a60248201527f436f6f6c646f776e2074696d65206e6f74206f7665722079657400000000000060448201526064016109ea565b600081815260d06020908152604080832060d1909252909120600190910180546125d7926004019190613816565b50600081815260d060205260409081902090517f0f127d0a7e6bc1ce0fc731fa40740bf251d03b41e462bc93a8cac4c175b8b0f39161261b91849160010190614388565b60405180910390a150565b600061263181612f4a565b604051339083156108fc029084906000818181858888f1935050505015801561168b573d6000803e3d6000fd5b60008281526065602052604090206001015461267981612f4a565b61168b838361310d565b60975460ff16156126a65760405162461bcd60e51b81526004016109ea906141de565b60c9546001600160a01b03166323b872dd33308f6040518463ffffffff1660e01b81526004016126d8939291906140fd565b600060405180830381600087803b1580156126f257600080fd5b505af1158015612706573d6000803e3d6000fd5b505060ca5460cc5460ce546040516323b872dd60e01b81526001600160a01b0393841695506323b872dd94506127439333931691906004016140fd565b602060405180830381600087803b15801561275d57600080fd5b505af1158015612771573d6000803e3d6000fd5b505050506040513d601f19601f820116820180604052508101906127959190613aa1565b508a60d2600060d454815260200190815260200160002060006101000a8154816001600160a01b0302191690836001600160a01b03160217905550612823604051806101200160405280600081526020016000151581526020016000815260200160001515815260200160608152602001606081526020016000815260200160008152602001600081525090565b8a8152891515602080830191825260408084018c81528b151560608601908152608086018c815260a087018c905260c087018b905260e08701899052610100870188905260d454600090815260d186529390932086518155945160018601805491151560ff199283161790559151600286015551600385018054911515919092161790555180518493926128be9260048501929101906137dc565b5060a082015180516128da9160058401916020909101906137dc565b5060c0820151600682015560e082015160078201556101009091015160089091015560d4547f76b50f1816f387dbae506806e88cd421e26f13fa255f390ba931946e15fee8a2908d8d8d8d8d8d8d8d8d8d338e6040516129469d9c9b9a999897969594939291906142a1565b60405180910390a160d4546040805133815260208101929092528181018f9052517f1e8ca4c189ee24e9a00297282e66ae881c6e3788821b188c51d335cbafd9416a9181900360600190a160d454600090815260d36020908152604090912085516129b392870190613787565b5060d4546129c2906001612f37565b60d45550505050505050505050505050565b60006129df81612f4a565b5060ce55565b7f515cb9a6faf5ac018717b314df173fdbfa087f4f7981dfa1b108db1f00015d19612a0f81612f4a565b8960011415612a2e5760008b815260d160205260409020899055612b3c565b8960021415612a595760008b815260d160205260409020600101805460ff1916891515179055612b3c565b8960031415612a7b5760008b815260d160205260409020600201879055612b3c565b8960041415612aa65760008b815260d160205260409020600301805460ff1916871515179055612b3c565b8960051415612ada5760008b815260d1602090815260409091208651612ad4926005909201918801906137dc565b50612b3c565b8960061415612afc5760008b815260d160205260409020600601849055612b3c565b8960071415612b1e5760008b815260d160205260409020600701839055612b3c565b8960081415612b3c5760008b815260d1602052604090206008018290555b60008b815260d1602052604090207f627548e72e2b257dd036d4cbb1084063dd5c73a4cd483d213efa65db3f3e7624908c9033604051612b7e93929190614408565b60405180910390a15050505050505050505050565b6000612bad6000805160206146c583398151915283611e7c565b80612bd15750600083815260d260205260409020546001600160a01b038381169116145b15612bde57506001611ea3565b50600092915050565b6000612bf281612f4a565b60cd5460408051918252602082018490527f6a4a5332747a0ff452432b251176f864b3aa17df85cb50c22af972b67f2d60d4910160405180910390a15060cd55565b600082815260d1602052604090206003015460ff1615612cb55760405162461bcd60e51b815260206004820152603660248201527f43616e6e6f7420776974686472617720537461636b206c6f636b6564206966206044820152751cdd589b995d081a5cc81b9bdd0819195b1a5cdd195960521b60648201526084016109ea565b600082815260d6602090815260408083208484529091529020546001600160a01b03163314612d3c5760405162461bcd60e51b815260206004820152602d60248201527f4f6e6c7920436c757374657244414f2044414f2063616e20776974686472617760448201526c0814dd1858dac81b1bd8dad959609a1b60648201526084016109ea565b33600081815260d76020908152604080832083905585835260d682528083208584529091528082206002908101805460ff1916909117905560ca5490516323b872dd60e01b815291926001600160a01b03909116916323b872dd91612da89130919086906004016140fd565b602060405180830381600087803b158015612dc257600080fd5b505af1158015612dd6573d6000803e3d6000fd5b505050506040513d601f19601f82011682018060405250810190612dfa9190613aa1565b5060c954600084815260d660209081526040808320868452909152908190206003015490516323b872dd60e01b81526001600160a01b03909216916323b872dd91612e4b91309133916004016140fd565b600060405180830381600087803b158015612e6557600080fd5b505af1158015612e79573d6000803e3d6000fd5b505050507f3b7a9017fb40befecce5dfd5dcec15a767568cd5bd3a631fdf53263fa1e431358383612ea73390565b600087815260d660209081526040808320898452825291829020600301548251958652908501939093526001600160a01b0390911690830152606082015260800160405180910390a160408051848152602081018490523391810191909152606081018290527f6944159908f55f02059a9d2c78c6962528fc2b75a306d0802a2eb2dca1d3fc3590608001610fc6565b6000612f43828461456a565b9392505050565b61172a813361326b565b604080516001600160a01b038416602482015260448082018490528251808303909101815260649091019091526020810180516001600160e01b031663a9059cbb60e01b17905261168b9084906132cf565b60008054610100900460ff1615612fed578160ff166001148015612fc95750303b155b612fe55760405162461bcd60e51b81526004016109ea90614208565b5060006109c2565b60005460ff8084169116106130145760405162461bcd60e51b81526004016109ea90614208565b506000805460ff191660ff831617905560016109c2565b600054610100900460ff166130525760405162461bcd60e51b81526004016109ea90614256565b565b600054610100900460ff1661307b5760405162461bcd60e51b81526004016109ea90614256565b6097805460ff19169055565b6130918282611e7c565b61106c5760008281526065602090815260408083206001600160a01b03851684529091529020805460ff191660011790556130c93390565b6001600160a01b0316816001600160a01b0316837f2f8788117e7eff1d82e926ec794901d17c78024a50270940304540a733656f0d60405160405180910390a45050565b6131178282611e7c565b1561106c5760008281526065602090815260408083206001600160a01b0385168085529252808320805460ff1916905551339285917ff6391f5c32d9c69d2a47ea670b442974b53935d1edc7fd64eb21e047a839171b9190a45050565b60975460ff166131bd5760405162461bcd60e51b815260206004820152601460248201527314185d5cd8589b194e881b9bdd081c185d5cd95960621b60448201526064016109ea565b6097805460ff191690557f5db9ee0a495bf2e6ff9c91a7834c1ba4fdd244a5e8aa4e537bd38aeae4b073aa335b6040516001600160a01b03909116815260200160405180910390a1565b6000612f4382846145a1565b60975460ff16156132365760405162461bcd60e51b81526004016109ea906141de565b6097805460ff191660011790557f62e78cea01bee320cd4e420270b5ea74000d11b0c9f74754ebdbfc544b05a2586131ea3390565b6132758282611e7c565b61106c5761328d816001600160a01b031660146133a1565b6132988360206133a1565b6040516020016132a9929190614088565b60408051601f198184030181529082905262461bcd60e51b82526109ea9160040161416e565b6000613324826040518060400160405280602081526020017f5361666545524332303a206c6f772d6c6576656c2063616c6c206661696c6564815250856001600160a01b03166135829092919063ffffffff16565b80519091501561168b57808060200190518101906133429190613aa1565b61168b5760405162461bcd60e51b815260206004820152602a60248201527f5361666545524332303a204552433230206f7065726174696f6e20646964206e6044820152691bdd081cdd58d8d9595960b21b60648201526084016109ea565b606060006133b0836002614582565b6133bb90600261456a565b6001600160401b038111156133e057634e487b7160e01b600052604160045260246000fd5b6040519080825280601f01601f19166020018201604052801561340a576020820181803683370190505b509050600360fc1b8160008151811061343357634e487b7160e01b600052603260045260246000fd5b60200101906001600160f81b031916908160001a905350600f60fb1b8160018151811061347057634e487b7160e01b600052603260045260246000fd5b60200101906001600160f81b031916908160001a9053506000613494846002614582565b61349f90600161456a565b90505b6001811115613533576f181899199a1a9b1b9c1cb0b131b232b360811b85600f16601081106134e157634e487b7160e01b600052603260045260246000fd5b1a60f81b82828151811061350557634e487b7160e01b600052603260045260246000fd5b60200101906001600160f81b031916908160001a90535060049490941c9361352c816145e8565b90506134a2565b508315612f435760405162461bcd60e51b815260206004820181905260248201527f537472696e67733a20686578206c656e67746820696e73756666696369656e7460448201526064016109ea565b60606135918484600085613599565b949350505050565b6060824710156135fa5760405162461bcd60e51b815260206004820152602660248201527f416464726573733a20696e73756666696369656e742062616c616e636520666f6044820152651c8818d85b1b60d21b60648201526084016109ea565b6001600160a01b0385163b6136515760405162461bcd60e51b815260206004820152601d60248201527f416464726573733a2063616c6c20746f206e6f6e2d636f6e747261637400000060448201526064016109ea565b600080866001600160a01b0316858760405161366d919061406c565b60006040518083038185875af1925050503d80600081146136aa576040519150601f19603f3d011682016040523d82523d6000602084013e6136af565b606091505b50915091506136bf8282866136ca565b979650505050505050565b606083156136d9575081612f43565b8251156136e95782518084602001fd5b8160405162461bcd60e51b81526004016109ea919061416e565b82805461370f906145ff565b90600052602060002090601f0160209004810192826137315760008555613777565b82601f1061374a57805160ff1916838001178555613777565b82800160010185558215613777579182015b8281111561377757825182559160200191906001019061375c565b50613783929150613856565b5090565b828054828255906000526020600020908101928215613777579160200282015b8281111561377757825182546001600160a01b0319166001600160a01b039091161782556020909201916001909101906137a7565b828054828255906000526020600020908101928215613777579160200282018281111561377757825182559160200191906001019061375c565b8280548282559060005260206000209081019282156137775760005260206000209182015b8281111561377757825482559160010191906001019061383b565b5b808211156137835760008155600101613857565b80356109c281614681565b600082601f830112613886578081fd5b8135602061389b61389683614547565b614517565b82815281810190858301838502870184018810156138b7578586fd5b855b858110156138de5781356138cc81614681565b845292840192908401906001016138b9565b5090979650505050505050565b600082601f8301126138fb578081fd5b8135602061390b61389683614547565b8281528181019085830183850287018401881015613927578586fd5b855b858110156138de57813584529284019290840190600101613929565b80356109c281614696565b600082601f830112613960578081fd5b81356001600160401b038111156139795761397961466b565b61398c601f8201601f1916602001614517565b8181528460208386010111156139a0578283fd5b816020850160208301379081016020019190915292915050565b6000602082840312156139cb578081fd5b8135612f4381614681565b6000806000806000608086880312156139ed578081fd5b85356139f881614681565b94506020860135613a0881614681565b93506040860135925060608601356001600160401b0380821115613a2a578283fd5b818801915088601f830112613a3d578283fd5b813581811115613a4b578384fd5b896020828501011115613a5c578384fd5b9699959850939650602001949392505050565b600060208284031215613a80578081fd5b81356001600160401b03811115613a95578182fd5b613591848285016138eb565b600060208284031215613ab2578081fd5b8151612f4381614696565b600060208284031215613ace578081fd5b5035919050565b60008060408385031215613ae7578182fd5b823591506020830135613af981614681565b809150509250929050565b600060208284031215613b15578081fd5b81356001600160e01b031981168114612f43578182fd5b600080600060608486031215613b40578283fd5b8335613b4b81614681565b95602085013595506040909401359392505050565b600080600080600080600060e0888a031215613b7a578485fd5b8735613b8581614681565b96506020880135613b9581614681565b95506040880135613ba581614681565b969995985095966060810135965060808101359560a0820135955060c0909101359350915050565b60008060408385031215613bdf578182fd5b8235613bea81614681565b946020939093013593505050565b600060208284031215613c09578081fd5b5051919050565b600080600060608486031215613c24578081fd5b833592506020840135613c3681614681565b929592945050506040919091013590565b6000806000806000806000806000806000806101808d8f031215613c69578586fd5b8c359b50613c7960208e0161386b565b9a5060408d01359950613c8e60608e01613945565b985060808d01359750613ca360a08e01613945565b96506001600160401b0360c08e01351115613cbc578586fd5b613ccc8e60c08f01358f016138eb565b95506001600160401b0360e08e01351115613ce5578485fd5b613cf58e60e08f01358f016138eb565b94506101008d013593506001600160401b036101208e01351115613d17578283fd5b613d288e6101208f01358f01613876565b92506101408d013591506101608d013590509295989b509295989b509295989b565b60008060408385031215613d5c578182fd5b8235915060208301356001600160401b03811115613d78578182fd5b613d8485828601613876565b9150509250929050565b60008060408385031215613da0578182fd5b8235915060208301356001600160401b03811115613dbc578182fd5b613d84858286016138eb565b60008060008060808587031215613ddd578182fd5b8435935060208501356001600160401b03811115613df9578283fd5b613e0587828801613950565b9350506040850135613e1681614681565b9396929550929360600135925050565b60008060408385031215613e38578182fd5b50508035926020909101359150565b600080600060608486031215613e5b578081fd5b83359250602084013591506040840135613e7481614681565b809150509250925092565b600080600060608486031215613e93578081fd5b833592506020840135915060408401356001600160401b03811115613eb6578182fd5b613ec286828701613950565b9150509250925092565b600080600060608486031215613ee0578081fd5b505081359360208301359350604090920135919050565b6000806000806000806000806000806101408b8d031215613f16578384fd5b8a35995060208b0135985060408b0135975060608b0135613f3681614696565b965060808b0135955060a08b0135613f4d81614696565b945060c08b01356001600160401b03811115613f67578485fd5b613f738d828e016138eb565b94505060e08b013592506101008b013591506101208b013590509295989b9194979a5092959850565b6000815180845260208085019450808401835b83811015613fd45781516001600160a01b031687529582019590820190600101613faf565b509495945050505050565b6000815180845260208085019450808401835b83811015613fd457815187529582019590820190600101613ff2565b6000815480845260208085019450838352808320835b83811015613fd457815487529582019560019182019101614024565b600081518084526140588160208601602086016145b8565b601f01601f19169290920160200192915050565b6000825161407e8184602087016145b8565b9190910192915050565b60007f416363657373436f6e74726f6c3a206163636f756e7420000000000000000000825283516140c08160178501602088016145b8565b7001034b99036b4b9b9b4b733903937b6329607d1b60179184019182015283516140f18160288401602088016145b8565b01602801949350505050565b6001600160a01b039384168152919092166020820152604081019190915260600190565b6001600160a01b038516815260806020820181905260009061414590830186614040565b60ff949094166040830152506060015292915050565b600060208252612f436020830184613fdf565b600060208252612f436020830184614040565b6020808252603f908201527f4f6e6c792057484954454c4953545f524f4c45206f72204c6f63616c2044414f60408201527f2063616e20656469742077686974656c69737465642061646472657373657300606082015260800190565b60208082526010908201526f14185d5cd8589b194e881c185d5cd95960821b604082015260600190565b6020808252602e908201527f496e697469616c697a61626c653a20636f6e747261637420697320616c72656160408201526d191e481a5b9a5d1a585b1a5e995960921b606082015260800190565b6020808252602b908201527f496e697469616c697a61626c653a20636f6e7472616374206973206e6f74206960408201526a6e697469616c697a696e6760a81b606082015260800190565b8d81526001600160a01b038d166020820152604081018c90528a1515606082015260006101a08b60808401526142db60a084018c15159052565b8060c08401526142ed8184018b613fdf565b905082810360e0840152614301818a613fdf565b90508761010084015282810361012084015261431d8188613f9c565b9150508461014083015261433d6101608301856001600160a01b03169052565b826101808301529e9d5050505050505050505050505050565b6000838252604060208301526135916040830184613f9c565b6000838252604060208301526135916040830184613fdf565b600083825260406020830152613591604083018461400e565b60006101208b83528a1515602084015289604084015288151560608401528060808401526143d181840189613fdf565b905082810360a08401526143e58188613fdf565b60c0840196909652505060e0810192909252610100909101529695505050505050565b60008482526060602083015283546060830152614429600185015460ff1690565b15156080830152600284015460a0830152600384015460ff16151560c083015261012060e0830181905261446461018084016004870161400e565b838103605f190161010085015261447e816005880161400e565b60068701549285019290925250600785015461014084015260088501546101608401526001600160a01b03841660408401529050613591565b600084825283602083015260606040830152611aff6060830184614040565b600086825285602083015260a060408301526144f560a0830186614040565b6001600160a01b03948516606084015292909316608090910152949350505050565b604051601f8201601f191681016001600160401b038111828210171561453f5761453f61466b565b604052919050565b60006001600160401b038211156145605761456061466b565b5060209081020190565b6000821982111561457d5761457d614655565b500190565b600081600019048311821515161561459c5761459c614655565b500290565b6000828210156145b3576145b3614655565b500390565b60005b838110156145d35781810151838201526020016145bb565b838111156145e2576000848401525b50505050565b6000816145f7576145f7614655565b506000190190565b60028104600182168061461357607f821691505b6020821081141561463457634e487b7160e01b600052602260045260246000fd5b50919050565b600060001982141561464e5761464e614655565b5060010190565b634e487b7160e01b600052601160045260246000fd5b634e487b7160e01b600052604160045260246000fd5b6001600160a01b038116811461172a57600080fd5b801515811461172a57600080fdfedc72ed553f2544c34465af23b847953efeb813428162d767f9ba5f4013be676065c28dd45c4ff9294e0a087620aaf7cd9ce5fbe1aacb5d391aec529164025bd065d7a28e3265b37a6474929f336521b332c1681b933f6cb9f3376673440d862aa26469706673582212205439021c92e7f01dfae0d9617761ef4676ccef5abb6518ab3d6d9b917bddb91b64736f6c63430008020033",
  "linkReferences": {},
  "deployedLinkReferences": {}
}