{
  "_format": "hh-sol-artifact-1",
  "contractName": "RoleControlV2",
  "sourceName": "contracts/RoleControlV2.sol",
  "abi": [
    {
      "anonymous": false,
      "inputs": [
        {
          "indexed": false,
          "internalType": "uint8",
          "name": "version",
          "type": "uint8"
        }
      ],
      "name": "Initialized",
      "type": "event"
    },
    {
      "anonymous": false,
      "inputs": [
        {
          "indexed": false,
          "internalType": "uint256",
          "name": "_appId",
          "type": "uint256"
        },
        {
          "indexed": false,
          "internalType": "bytes32",
          "name": "role",
          "type": "bytes32"
        },
        {
          "indexed": false,
          "internalType": "bytes32",
          "name": "prevAdminRole",
          "type": "bytes32"
        },
        {
          "indexed": false,
          "internalType": "bytes32",
          "name": "adminRole",
          "type": "bytes32"
        }
      ],
      "name": "RoleAdminChanged",
      "type": "event"
    },
    {
      "anonymous": false,
      "inputs": [
        {
          "indexed": false,
          "internalType": "uint256",
          "name": "_appId",
          "type": "uint256"
        },
        {
          "indexed": false,
          "internalType": "bytes32",
          "name": "role",
          "type": "bytes32"
        },
        {
          "indexed": false,
          "internalType": "address",
          "name": "account",
          "type": "address"
        },
        {
          "indexed": false,
          "internalType": "address",
          "name": "sender",
          "type": "address"
        }
      ],
      "name": "RoleGranted",
      "type": "event"
    },
    {
      "anonymous": false,
      "inputs": [
        {
          "indexed": false,
          "internalType": "uint256",
          "name": "_appId",
          "type": "uint256"
        },
        {
          "indexed": false,
          "internalType": "bytes32",
          "name": "role",
          "type": "bytes32"
        },
        {
          "indexed": false,
          "internalType": "address",
          "name": "account",
          "type": "address"
        },
        {
          "indexed": false,
          "internalType": "address",
          "name": "sender",
          "type": "address"
        }
      ],
      "name": "RoleRevoked",
      "type": "event"
    },
    {
      "inputs": [],
      "name": "ACCESS_MANAGER",
      "outputs": [
        {
          "internalType": "bytes32",
          "name": "",
          "type": "bytes32"
        }
      ],
      "stateMutability": "view",
      "type": "function"
    },
    {
      "inputs": [],
      "name": "BILLING_MANAGER",
      "outputs": [
        {
          "internalType": "bytes32",
          "name": "",
          "type": "bytes32"
        }
      ],
      "stateMutability": "view",
      "type": "function"
    },
    {
      "inputs": [],
      "name": "CONTRACT_BASED_DEPLOYER",
      "outputs": [
        {
          "internalType": "bytes32",
          "name": "",
          "type": "bytes32"
        }
      ],
      "stateMutability": "view",
      "type": "function"
    },
    {
      "inputs": [],
      "name": "DEFAULT_ADMIN_ROLE",
      "outputs": [
        {
          "internalType": "bytes32",
          "name": "",
          "type": "bytes32"
        }
      ],
      "stateMutability": "view",
      "type": "function"
    },
    {
      "inputs": [],
      "name": "DEPLOYER",
      "outputs": [
        {
          "internalType": "bytes32",
          "name": "",
          "type": "bytes32"
        }
      ],
      "stateMutability": "view",
      "type": "function"
    },
    {
      "inputs": [
        {
          "internalType": "uint256",
          "name": "_nftId",
          "type": "uint256"
        }
      ],
      "name": "NFTOwner",
      "outputs": [
        {
          "internalType": "address",
          "name": "",
          "type": "address"
        }
      ],
      "stateMutability": "view",
      "type": "function"
    },
    {
      "inputs": [],
      "name": "NFT_Address",
      "outputs": [
        {
          "internalType": "contract IERC721",
          "name": "",
          "type": "address"
        }
      ],
      "stateMutability": "view",
      "type": "function"
    },
    {
      "inputs": [],
      "name": "READ",
      "outputs": [
        {
          "internalType": "bytes32",
          "name": "",
          "type": "bytes32"
        }
      ],
      "stateMutability": "view",
      "type": "function"
    },
    {
      "inputs": [
        {
          "internalType": "string",
          "name": "_roleName",
          "type": "string"
        }
      ],
      "name": "getBytes32OfRole",
      "outputs": [
        {
          "internalType": "bytes32",
          "name": "",
          "type": "bytes32"
        }
      ],
      "stateMutability": "pure",
      "type": "function"
    },
    {
      "inputs": [
        {
          "internalType": "uint256",
          "name": "_appId",
          "type": "uint256"
        },
        {
          "internalType": "bytes32",
          "name": "role",
          "type": "bytes32"
        }
      ],
      "name": "getRoleAdmin",
      "outputs": [
        {
          "internalType": "bytes32",
          "name": "",
          "type": "bytes32"
        }
      ],
      "stateMutability": "view",
      "type": "function"
    },
    {
      "inputs": [
        {
          "internalType": "uint256",
          "name": "_nftId",
          "type": "uint256"
        },
        {
          "internalType": "bytes32",
          "name": "role",
          "type": "bytes32"
        },
        {
          "internalType": "address",
          "name": "account",
          "type": "address"
        }
      ],
      "name": "grantRole",
      "outputs": [],
      "stateMutability": "nonpayable",
      "type": "function"
    },
    {
      "inputs": [
        {
          "internalType": "uint256",
          "name": "_appId",
          "type": "uint256"
        },
        {
          "internalType": "bytes32",
          "name": "role",
          "type": "bytes32"
        },
        {
          "internalType": "address",
          "name": "account",
          "type": "address"
        }
      ],
      "name": "hasRole",
      "outputs": [
        {
          "internalType": "bool",
          "name": "",
          "type": "bool"
        }
      ],
      "stateMutability": "view",
      "type": "function"
    },
    {
      "inputs": [
        {
          "internalType": "uint256",
          "name": "_nftId",
          "type": "uint256"
        },
        {
          "internalType": "string",
          "name": "_roleName",
          "type": "string"
        },
        {
          "internalType": "address",
          "name": "_account",
          "type": "address"
        }
      ],
      "name": "hasRoleOf",
      "outputs": [
        {
          "internalType": "bool",
          "name": "",
          "type": "bool"
        }
      ],
      "stateMutability": "view",
      "type": "function"
    },
    {
      "inputs": [
        {
          "internalType": "contract IERC721",
          "name": "_NFT_Address",
          "type": "address"
        }
      ],
      "name": "initialize",
      "outputs": [],
      "stateMutability": "nonpayable",
      "type": "function"
    },
    {
      "inputs": [
        {
          "internalType": "uint256",
          "name": "_appId",
          "type": "uint256"
        },
        {
          "internalType": "bytes32",
          "name": "role",
          "type": "bytes32"
        },
        {
          "internalType": "address",
          "name": "account",
          "type": "address"
        }
      ],
      "name": "renounceRole",
      "outputs": [],
      "stateMutability": "nonpayable",
      "type": "function"
    },
    {
      "inputs": [
        {
          "internalType": "uint256",
          "name": "_nftId",
          "type": "uint256"
        },
        {
          "internalType": "bytes32",
          "name": "role",
          "type": "bytes32"
        },
        {
          "internalType": "address",
          "name": "account",
          "type": "address"
        }
      ],
      "name": "revokeRole",
      "outputs": [],
      "stateMutability": "nonpayable",
      "type": "function"
    }
  ],
  "bytecode": "0x608060405234801561001057600080fd5b50610afb806100206000396000f3fe608060405234801561001057600080fd5b50600436106101005760003560e01c8063b545c82a11610097578063dfe4551011610066578063dfe4551014610286578063e381313c1461029f578063f66d544b146102c6578063fb42204d146102d957610100565b8063b545c82a1461020e578063c1b8411a14610221578063c4d66de814610248578063d51fe9cb1461025b57610100565b806366599dc3116100d357806366599dc3146101a5578063724bdedf146101cc5780638a74ec3a146101df578063a217fddf1461020657610100565b8063119345aa14610105578063397d4dbc1461012d5780633a7b7a39146101695780634a120dd714610190575b600080fd5b610118610113366004610973565b6102ec565b60405190151581526020015b60405180910390f35b61015b61013b366004610952565b600091825260336020908152604080842092845291905290206001015490565b604051908152602001610124565b61015b7f73d57861095ed1ff7b0e5c00e25f9fc922cf9164e617149ee7073f371364c95481565b6101a361019e366004610973565b61031e565b005b61015b7f917ec7ea41e5f357223d15148fe9b320af36ca576055af433ea3445b3922179981565b6101a36101da366004610973565b6103e0565b61015b7f623badb9039dbbd5d587be00d11d7c8156609448b61d5432194584599d5524d981565b61015b600081565b61011861021c3660046109ab565b610460565b61015b7f503cf060389b91af8851125bd70ce66d16d12330718b103fc7674ef6d27e70c981565b6101a36102563660046108eb565b61047c565b61026e61026936600461093a565b61050d565b6040516001600160a01b039091168152602001610124565b61015b610294366004610907565b805160209091012090565b61015b7ffc4d5b8dc48f53079d1753f1e53aabb674d1bdef461b3803bef96591e9ef396981565b60655461026e906001600160a01b031681565b6101a36102e7366004610973565b610592565b60009283526033602090815260408085209385529281528284206001600160a01b039290921684525290205460ff1690565b82336065546040516331a9108f60e11b8152600481018490526001600160a01b039283169290911690636352211e9060240160206040518083038186803b15801561036857600080fd5b505afa15801561037c573d6000803e3d6000fd5b505050506040513d601f19601f820116820180604052508101906103a091906108c8565b6001600160a01b0316146103cf5760405162461bcd60e51b81526004016103c690610a47565b60405180910390fd5b6103da848484610645565b50505050565b6001600160a01b03811633146104505760405162461bcd60e51b815260206004820152602f60248201527f416363657373436f6e74726f6c3a2063616e206f6e6c792072656e6f756e636560448201526e103937b632b9903337b91039b2b63360891b60648201526084016103c6565b61045b838383610645565b505050565b6000610474848480519060200120846102ec565b949350505050565b600061048860016106e0565b905080156104a0576000805461ff0019166101001790555b6104a8610765565b606580546001600160a01b0319166001600160a01b0384161790558015610509576000805461ff0019169055604051600181527f7f26b83ff96e1f2b6a682f133852f6798a09c465da95921460cefb38474024989060200160405180910390a15b5050565b6065546040516331a9108f60e11b8152600481018390526000916001600160a01b031690636352211e9060240160206040518083038186803b15801561055257600080fd5b505afa158015610566573d6000803e3d6000fd5b505050506040513d601f19601f8201168201806040525081019061058a91906108c8565b90505b919050565b82336065546040516331a9108f60e11b8152600481018490526001600160a01b039283169290911690636352211e9060240160206040518083038186803b1580156105dc57600080fd5b505afa1580156105f0573d6000803e3d6000fd5b505050506040513d601f19601f8201168201806040525081019061061491906108c8565b6001600160a01b03161461063a5760405162461bcd60e51b81526004016103c690610a47565b6103da8484846107d2565b6106508383836102ec565b1561045b57600083815260336020908152604080832085845282528083206001600160a01b03851684529091529020805460ff191690557f7b00293d63517946aeba2f56c6b4c5dec87b67393ac48520994d3d8ce776335a838383335b6040805194855260208501939093526001600160a01b0391821684840152166060830152519081900360800190a1505050565b60008054610100900460ff1615610727578160ff1660011480156107035750303b155b61071f5760405162461bcd60e51b81526004016103c6906109f9565b50600061058d565b60005460ff80841691161061074e5760405162461bcd60e51b81526004016103c6906109f9565b506000805460ff191660ff8316179055600161058d565b600054610100900460ff166107d05760405162461bcd60e51b815260206004820152602b60248201527f496e697469616c697a61626c653a20636f6e7472616374206973206e6f74206960448201526a6e697469616c697a696e6760a81b60648201526084016103c6565b565b6107dd8383836102ec565b61045b57600083815260336020908152604080832085845282528083206001600160a01b03851684529091529020805460ff191660011790557fd9dfff7752b7a810e2b646c0c96b76bc9ed817f6c6f7848bbe68163f7e8b43788383836106ad3390565b600082601f830112610851578081fd5b813567ffffffffffffffff8082111561086c5761086c610a97565b604051601f8301601f19908116603f0116810190828211818310171561089457610894610a97565b816040528381528660208588010111156108ac578485fd5b8360208701602083013792830160200193909352509392505050565b6000602082840312156108d9578081fd5b81516108e481610aad565b9392505050565b6000602082840312156108fc578081fd5b81356108e481610aad565b600060208284031215610918578081fd5b813567ffffffffffffffff81111561092e578182fd5b61047484828501610841565b60006020828403121561094b578081fd5b5035919050565b60008060408385031215610964578081fd5b50508035926020909101359150565b600080600060608486031215610987578081fd5b833592506020840135915060408401356109a081610aad565b809150509250925092565b6000806000606084860312156109bf578283fd5b83359250602084013567ffffffffffffffff8111156109dc578283fd5b6109e886828701610841565b92505060408401356109a081610aad565b6020808252602e908201527f496e697469616c697a61626c653a20636f6e747261637420697320616c72656160408201526d191e481a5b9a5d1a585b1a5e995960921b606082015260800190565b60208082526030908201527f4772616e7420616e64205265766f6b6520726f6c65206f6e6c7920616c6c6f7760408201526f32b2103337b91027232a1037bbb732b960811b606082015260800190565b634e487b7160e01b600052604160045260246000fd5b6001600160a01b0381168114610ac257600080fd5b5056fea26469706673582212209e85c3ffb387150b61d4b9da0390d5b298047044895a73a66f80309184c247b264736f6c63430008020033",
  "linkReferences": {},
  "deployedLinkReferences": {}
}