{
  "_format": "hh-sol-artifact-1",
  "contractName": "Subscription2",
  "sourceName": "contracts/Subscription2.sol",
  "abi": [
    {
      "anonymous": false,
      "inputs": [
        {
          "indexed": false,
          "internalType": "uint256",
          "name": "NFTId",
          "type": "uint256"
        },
        {
          "indexed": false,
          "internalType": "uint256",
          "name": "subnetId",
          "type": "uint256"
        },
        {
          "indexed": false,
          "internalType": "string",
          "name": "newServiceProvider",
          "type": "string"
        }
      ],
      "name": "AppliedServiceProviderChange",
      "type": "event"
    },
    {
      "anonymous": false,
      "inputs": [
        {
          "indexed": false,
          "internalType": "uint256",
          "name": "NFTId",
          "type": "uint256"
        },
        {
          "indexed": false,
          "internalType": "uint256",
          "name": "balanceType",
          "type": "uint256"
        },
        {
          "indexed": false,
          "internalType": "uint256",
          "name": "bal",
          "type": "uint256"
        }
      ],
      "name": "BalanceAdded",
      "type": "event"
    },
    {
      "anonymous": false,
      "inputs": [
        {
          "indexed": false,
          "internalType": "uint256",
          "name": "NFTId",
          "type": "uint256"
        },
        {
          "indexed": false,
          "internalType": "uint256",
          "name": "currentSubnetId",
          "type": "uint256"
        },
        {
          "indexed": false,
          "internalType": "uint256",
          "name": "newSubnetId",
          "type": "uint256"
        }
      ],
      "name": "ChangedSubnetSubscription",
      "type": "event"
    },
    {
      "anonymous": false,
      "inputs": [
        {
          "indexed": false,
          "internalType": "uint256",
          "name": "prev_limit",
          "type": "uint256"
        },
        {
          "indexed": false,
          "internalType": "uint256",
          "name": "new_limit",
          "type": "uint256"
        }
      ],
      "name": "Changed_LIMIT_MIN_TIME_FUNDS",
      "type": "event"
    },
    {
      "anonymous": false,
      "inputs": [
        {
          "indexed": false,
          "internalType": "uint256",
          "name": "prev_limit",
          "type": "uint256"
        },
        {
          "indexed": false,
          "internalType": "uint256",
          "name": "new_limit",
          "type": "uint256"
        }
      ],
      "name": "Changed_LIMIT_NFT_SUBNETS",
      "type": "event"
    },
    {
      "anonymous": false,
      "inputs": [
        {
          "indexed": false,
          "internalType": "uint256",
          "name": "prev_limit",
          "type": "uint256"
        },
        {
          "indexed": false,
          "internalType": "uint256",
          "name": "new_limit",
          "type": "uint256"
        }
      ],
      "name": "Changed_REQD_COOLDOWN_S_PROVIDER",
      "type": "event"
    },
    {
      "anonymous": false,
      "inputs": [
        {
          "indexed": false,
          "internalType": "uint256",
          "name": "prev_limit",
          "type": "uint256"
        },
        {
          "indexed": false,
          "internalType": "uint256",
          "name": "new_limit",
          "type": "uint256"
        }
      ],
      "name": "Changed_REQD_NOTICE_TIME_S_PROVIDER",
      "type": "event"
    },
    {
      "anonymous": false,
      "inputs": [
        {
          "indexed": false,
          "internalType": "uint8",
          "name": "version",
          "type": "uint8"
        }
      ],
      "name": "Initialized",
      "type": "event"
    },
    {
      "anonymous": false,
      "inputs": [
        {
          "indexed": false,
          "internalType": "address",
          "name": "account",
          "type": "address"
        }
      ],
      "name": "Paused",
      "type": "event"
    },
    {
      "anonymous": false,
      "inputs": [
        {
          "indexed": false,
          "internalType": "address",
          "name": "benficiary",
          "type": "address"
        },
        {
          "indexed": false,
          "internalType": "uint256",
          "name": "bal",
          "type": "uint256"
        }
      ],
      "name": "ReceivedRevenue",
      "type": "event"
    },
    {
      "anonymous": false,
      "inputs": [
        {
          "indexed": false,
          "internalType": "uint256",
          "name": "NFTId",
          "type": "uint256"
        },
        {
          "indexed": false,
          "internalType": "uint256",
          "name": "subnetId",
          "type": "uint256"
        },
        {
          "indexed": false,
          "internalType": "address",
          "name": "refAddress",
          "type": "address"
        }
      ],
      "name": "ReferralAdded",
      "type": "event"
    },
    {
      "anonymous": false,
      "inputs": [
        {
          "indexed": false,
          "internalType": "uint256",
          "name": "NFTId",
          "type": "uint256"
        }
      ],
      "name": "RefreshedBalance",
      "type": "event"
    },
    {
      "anonymous": false,
      "inputs": [
        {
          "indexed": false,
          "internalType": "uint256",
          "name": "NFTId",
          "type": "uint256"
        },
        {
          "indexed": false,
          "internalType": "uint256",
          "name": "subnetId",
          "type": "uint256"
        },
        {
          "indexed": false,
          "internalType": "string",
          "name": "newServiceProvider",
          "type": "string"
        }
      ],
      "name": "RequestedServiceProviderChange",
      "type": "event"
    },
    {
      "anonymous": false,
      "inputs": [
        {
          "indexed": true,
          "internalType": "bytes32",
          "name": "role",
          "type": "bytes32"
        },
        {
          "indexed": true,
          "internalType": "bytes32",
          "name": "previousAdminRole",
          "type": "bytes32"
        },
        {
          "indexed": true,
          "internalType": "bytes32",
          "name": "newAdminRole",
          "type": "bytes32"
        }
      ],
      "name": "RoleAdminChanged",
      "type": "event"
    },
    {
      "anonymous": false,
      "inputs": [
        {
          "indexed": true,
          "internalType": "bytes32",
          "name": "role",
          "type": "bytes32"
        },
        {
          "indexed": true,
          "internalType": "address",
          "name": "account",
          "type": "address"
        },
        {
          "indexed": true,
          "internalType": "address",
          "name": "sender",
          "type": "address"
        }
      ],
      "name": "RoleGranted",
      "type": "event"
    },
    {
      "anonymous": false,
      "inputs": [
        {
          "indexed": true,
          "internalType": "bytes32",
          "name": "role",
          "type": "bytes32"
        },
        {
          "indexed": true,
          "internalType": "address",
          "name": "account",
          "type": "address"
        },
        {
          "indexed": true,
          "internalType": "address",
          "name": "sender",
          "type": "address"
        }
      ],
      "name": "RoleRevoked",
      "type": "event"
    },
    {
      "anonymous": false,
      "inputs": [
        {
          "indexed": false,
          "internalType": "uint256",
          "name": "NFTId",
          "type": "uint256"
        },
        {
          "indexed": false,
          "internalType": "uint256",
          "name": "subnetId",
          "type": "uint256"
        },
        {
          "indexed": false,
          "internalType": "string",
          "name": "serviceProviderAddress",
          "type": "string"
        },
        {
          "indexed": false,
          "internalType": "address",
          "name": "referralAddress",
          "type": "address"
        },
        {
          "indexed": false,
          "internalType": "uint256",
          "name": "licenseFee",
          "type": "uint256"
        },
        {
          "indexed": false,
          "internalType": "uint256[]",
          "name": "computeRequired",
          "type": "uint256[]"
        }
      ],
      "name": "Subscribed",
      "type": "event"
    },
    {
      "anonymous": false,
      "inputs": [
        {
          "indexed": false,
          "internalType": "address",
          "name": "account",
          "type": "address"
        }
      ],
      "name": "Unpaused",
      "type": "event"
    },
    {
      "inputs": [],
      "name": "ApplicationNFT",
      "outputs": [
        {
          "internalType": "contract IERC721",
          "name": "",
          "type": "address"
        }
      ],
      "stateMutability": "view",
      "type": "function"
    },
    {
      "inputs": [],
      "name": "CHANGE_COMPUTE_ROLE",
      "outputs": [
        {
          "internalType": "bytes32",
          "name": "",
          "type": "bytes32"
        }
      ],
      "stateMutability": "view",
      "type": "function"
    },
    {
      "inputs": [],
      "name": "DEFAULT_ADMIN_ROLE",
      "outputs": [
        {
          "internalType": "bytes32",
          "name": "",
          "type": "bytes32"
        }
      ],
      "stateMutability": "view",
      "type": "function"
    },
    {
      "inputs": [],
      "name": "GLOBAL_DAO_ADDRESS",
      "outputs": [
        {
          "internalType": "address",
          "name": "",
          "type": "address"
        }
      ],
      "stateMutability": "view",
      "type": "function"
    },
    {
      "inputs": [],
      "name": "LIMIT_NFT_SUBNETS",
      "outputs": [
        {
          "internalType": "uint256",
          "name": "",
          "type": "uint256"
        }
      ],
      "stateMutability": "view",
      "type": "function"
    },
    {
      "inputs": [],
      "name": "MIN_TIME_FUNDS",
      "outputs": [
        {
          "internalType": "uint256",
          "name": "",
          "type": "uint256"
        }
      ],
      "stateMutability": "view",
      "type": "function"
    },
    {
      "inputs": [],
      "name": "REQD_COOLDOWN_S_PROVIDER",
      "outputs": [
        {
          "internalType": "uint256",
          "name": "",
          "type": "uint256"
        }
      ],
      "stateMutability": "view",
      "type": "function"
    },
    {
      "inputs": [],
      "name": "REQD_NOTICE_TIME_S_PROVIDER",
      "outputs": [
        {
          "internalType": "uint256",
          "name": "",
          "type": "uint256"
        }
      ],
      "stateMutability": "view",
      "type": "function"
    },
    {
      "inputs": [],
      "name": "RegistrationContract",
      "outputs": [
        {
          "internalType": "contract IRegistration",
          "name": "",
          "type": "address"
        }
      ],
      "stateMutability": "view",
      "type": "function"
    },
    {
      "inputs": [],
      "name": "WITHDRAW_CREDITS_ROLE",
      "outputs": [
        {
          "internalType": "bytes32",
          "name": "",
          "type": "bytes32"
        }
      ],
      "stateMutability": "view",
      "type": "function"
    },
    {
      "inputs": [],
      "name": "XCTToken",
      "outputs": [
        {
          "internalType": "contract IERC20Upgradeable",
          "name": "",
          "type": "address"
        }
      ],
      "stateMutability": "view",
      "type": "function"
    },
    {
      "inputs": [
        {
          "internalType": "uint256",
          "name": "_nftId",
          "type": "uint256"
        },
        {
          "internalType": "uint256",
          "name": "_balanceToAdd",
          "type": "uint256"
        }
      ],
      "name": "addBalance",
      "outputs": [
        {
          "internalType": "bool",
          "name": "",
          "type": "bool"
        }
      ],
      "stateMutability": "nonpayable",
      "type": "function"
    },
    {
      "inputs": [
        {
          "internalType": "uint256",
          "name": "_nftId",
          "type": "uint256"
        },
        {
          "internalType": "uint256",
          "name": "_subnetId",
          "type": "uint256"
        },
        {
          "internalType": "address",
          "name": "_refAddress",
          "type": "address"
        }
      ],
      "name": "addReferralAddress",
      "outputs": [],
      "stateMutability": "nonpayable",
      "type": "function"
    },
    {
      "inputs": [
        {
          "internalType": "uint256",
          "name": "_nftId",
          "type": "uint256"
        },
        {
          "internalType": "uint256",
          "name": "_subnetId",
          "type": "uint256"
        }
      ],
      "name": "applyServiceProviderChange",
      "outputs": [],
      "stateMutability": "nonpayable",
      "type": "function"
    },
    {
      "inputs": [
        {
          "internalType": "uint256",
          "name": "NFTid",
          "type": "uint256"
        }
      ],
      "name": "balanceLeft",
      "outputs": [
        {
          "internalType": "uint256",
          "name": "",
          "type": "uint256"
        }
      ],
      "stateMutability": "view",
      "type": "function"
    },
    {
      "inputs": [
        {
          "internalType": "address",
          "name": "",
          "type": "address"
        }
      ],
      "name": "balanceOfRev",
      "outputs": [
        {
          "internalType": "uint256",
          "name": "",
          "type": "uint256"
        }
      ],
      "stateMutability": "view",
      "type": "function"
    },
    {
      "inputs": [
        {
          "internalType": "uint256",
          "name": "_NFTid",
          "type": "uint256"
        },
        {
          "internalType": "uint256",
          "name": "_subnetId",
          "type": "uint256"
        },
        {
          "internalType": "uint256[]",
          "name": "_computeRequired",
          "type": "uint256[]"
        }
      ],
      "name": "changeComputesOfSubnet",
      "outputs": [],
      "stateMutability": "nonpayable",
      "type": "function"
    },
    {
      "inputs": [
        {
          "internalType": "uint256",
          "name": "_nftId",
          "type": "uint256"
        },
        {
          "internalType": "uint256",
          "name": "_currentSubnetId",
          "type": "uint256"
        },
        {
          "internalType": "uint256",
          "name": "_newSubnetId",
          "type": "uint256"
        }
      ],
      "name": "changeSubnetSubscription",
      "outputs": [],
      "stateMutability": "nonpayable",
      "type": "function"
    },
    {
      "inputs": [
        {
          "internalType": "address",
          "name": "_newGlobalDAO",
          "type": "address"
        }
      ],
      "name": "change__GLOBAL_DAO_ADDRESS",
      "outputs": [],
      "stateMutability": "nonpayable",
      "type": "function"
    },
    {
      "inputs": [
        {
          "internalType": "uint256",
          "name": "_new_LIMIT_NFT_SUBNETS",
          "type": "uint256"
        }
      ],
      "name": "change__LIMIT_NFT_SUBNETS",
      "outputs": [],
      "stateMutability": "nonpayable",
      "type": "function"
    },
    {
      "inputs": [
        {
          "internalType": "uint256",
          "name": "_new_MIN_TIME_FUNDS",
          "type": "uint256"
        }
      ],
      "name": "change__MIN_TIME_FUNDS",
      "outputs": [],
      "stateMutability": "nonpayable",
      "type": "function"
    },
    {
      "inputs": [
        {
          "internalType": "uint256",
          "name": "_REQD_COOLDOWN_S_PROVIDER",
          "type": "uint256"
        }
      ],
      "name": "change__REQD_COOLDOWN_S_PROVIDER",
      "outputs": [],
      "stateMutability": "nonpayable",
      "type": "function"
    },
    {
      "inputs": [
        {
          "internalType": "uint256",
          "name": "_REQD_NOTICE_TIME_S_PROVIDER",
          "type": "uint256"
        }
      ],
      "name": "change__REQD_NOTICE_TIME_S_PROVIDER",
      "outputs": [],
      "stateMutability": "nonpayable",
      "type": "function"
    },
    {
      "inputs": [
        {
          "internalType": "uint256",
          "name": "NFTid",
          "type": "uint256"
        }
      ],
      "name": "dripRatePerSec",
      "outputs": [
        {
          "internalType": "uint256",
          "name": "totalDripRate",
          "type": "uint256"
        }
      ],
      "stateMutability": "view",
      "type": "function"
    },
    {
      "inputs": [
        {
          "internalType": "uint256",
          "name": "NFTid",
          "type": "uint256"
        },
        {
          "internalType": "uint256",
          "name": "subnetId",
          "type": "uint256"
        }
      ],
      "name": "dripRatePerSecOfSubnet",
      "outputs": [
        {
          "internalType": "uint256",
          "name": "",
          "type": "uint256"
        }
      ],
      "stateMutability": "view",
      "type": "function"
    },
    {
      "inputs": [
        {
          "internalType": "bytes32",
          "name": "role",
          "type": "bytes32"
        }
      ],
      "name": "getRoleAdmin",
      "outputs": [
        {
          "internalType": "bytes32",
          "name": "",
          "type": "bytes32"
        }
      ],
      "stateMutability": "view",
      "type": "function"
    },
    {
      "inputs": [
        {
          "internalType": "bytes32",
          "name": "role",
          "type": "bytes32"
        },
        {
          "internalType": "address",
          "name": "account",
          "type": "address"
        }
      ],
      "name": "grantRole",
      "outputs": [],
      "stateMutability": "nonpayable",
      "type": "function"
    },
    {
      "inputs": [
        {
          "internalType": "bytes32",
          "name": "role",
          "type": "bytes32"
        },
        {
          "internalType": "address",
          "name": "account",
          "type": "address"
        }
      ],
      "name": "hasRole",
      "outputs": [
        {
          "internalType": "bool",
          "name": "",
          "type": "bool"
        }
      ],
      "stateMutability": "view",
      "type": "function"
    },
    {
      "inputs": [
        {
          "internalType": "address",
          "name": "_GlobalDAO",
          "type": "address"
        },
        {
          "internalType": "uint256",
          "name": "_LIMIT_NFT_SUBNETS",
          "type": "uint256"
        },
        {
          "internalType": "uint256",
          "name": "_MIN_TIME_FUNDS",
          "type": "uint256"
        },
        {
          "internalType": "contract IRegistration",
          "name": "_RegistrationContract",
          "type": "address"
        },
        {
          "internalType": "contract IERC721",
          "name": "_ApplicationNFT",
          "type": "address"
        },
        {
          "internalType": "contract IERC20Upgradeable",
          "name": "_XCTToken",
          "type": "address"
        },
        {
          "internalType": "uint256",
          "name": "_REQD_NOTICE_TIME_S_PROVIDER",
          "type": "uint256"
        },
        {
          "internalType": "uint256",
          "name": "_REQD_COOLDOWN_S_PROVIDER",
          "type": "uint256"
        }
      ],
      "name": "initialize",
      "outputs": [],
      "stateMutability": "nonpayable",
      "type": "function"
    },
    {
      "inputs": [
        {
          "internalType": "uint256",
          "name": "_nftId",
          "type": "uint256"
        }
      ],
      "name": "isBalancePresent",
      "outputs": [
        {
          "internalType": "bool",
          "name": "",
          "type": "bool"
        }
      ],
      "stateMutability": "view",
      "type": "function"
    },
    {
      "inputs": [
        {
          "internalType": "uint256",
          "name": "",
          "type": "uint256"
        }
      ],
      "name": "nftAttributes",
      "outputs": [
        {
          "internalType": "uint256",
          "name": "lastBalanceUpdateTime",
          "type": "uint256"
        },
        {
          "internalType": "address",
          "name": "NFTMinter",
          "type": "address"
        },
        {
          "internalType": "uint256",
          "name": "endOfXCTBalance",
          "type": "uint256"
        }
      ],
      "stateMutability": "view",
      "type": "function"
    },
    {
      "inputs": [
        {
          "internalType": "address",
          "name": "_operator",
          "type": "address"
        },
        {
          "internalType": "address",
          "name": "_from",
          "type": "address"
        },
        {
          "internalType": "uint256",
          "name": "_id",
          "type": "uint256"
        },
        {
          "internalType": "bytes",
          "name": "_data",
          "type": "bytes"
        }
      ],
      "name": "onERC721Received",
      "outputs": [
        {
          "internalType": "bytes4",
          "name": "",
          "type": "bytes4"
        }
      ],
      "stateMutability": "nonpayable",
      "type": "function"
    },
    {
      "inputs": [],
      "name": "paused",
      "outputs": [
        {
          "internalType": "bool",
          "name": "",
          "type": "bool"
        }
      ],
      "stateMutability": "view",
      "type": "function"
    },
    {
      "inputs": [
        {
          "internalType": "uint256",
          "name": "_nftId",
          "type": "uint256"
        },
        {
          "internalType": "uint256",
          "name": "_subnetId",
          "type": "uint256"
        }
      ],
      "name": "r_licenseFee",
      "outputs": [
        {
          "internalType": "uint256",
          "name": "",
          "type": "uint256"
        }
      ],
      "stateMutability": "view",
      "type": "function"
    },
    {
      "inputs": [],
      "name": "receiveRevenue",
      "outputs": [],
      "stateMutability": "nonpayable",
      "type": "function"
    },
    {
      "inputs": [
        {
          "internalType": "address",
          "name": "_userAddress",
          "type": "address"
        }
      ],
      "name": "receiveRevenueForAddress",
      "outputs": [],
      "stateMutability": "nonpayable",
      "type": "function"
    },
    {
      "inputs": [
        {
          "internalType": "address[]",
          "name": "_userAddresses",
          "type": "address[]"
        }
      ],
      "name": "receiveRevenueForAddressBulk",
      "outputs": [],
      "stateMutability": "nonpayable",
      "type": "function"
    },
    {
      "inputs": [
        {
          "internalType": "uint256",
          "name": "_nftId",
          "type": "uint256"
        }
      ],
      "name": "refreshBalance",
      "outputs": [],
      "stateMutability": "nonpayable",
      "type": "function"
    },
    {
      "inputs": [
        {
          "internalType": "bytes32",
          "name": "role",
          "type": "bytes32"
        },
        {
          "internalType": "address",
          "name": "account",
          "type": "address"
        }
      ],
      "name": "renounceRole",
      "outputs": [],
      "stateMutability": "nonpayable",
      "type": "function"
    },
    {
      "inputs": [
        {
          "internalType": "uint256",
          "name": "_nftId",
          "type": "uint256"
        },
        {
          "internalType": "uint256",
          "name": "_subnetId",
          "type": "uint256"
        },
        {
          "internalType": "string",
          "name": "_newServiceProvider",
          "type": "string"
        }
      ],
      "name": "requestServiceProviderChange",
      "outputs": [],
      "stateMutability": "nonpayable",
      "type": "function"
    },
    {
      "inputs": [
        {
          "internalType": "bytes32",
          "name": "role",
          "type": "bytes32"
        },
        {
          "internalType": "address",
          "name": "account",
          "type": "address"
        }
      ],
      "name": "revokeRole",
      "outputs": [],
      "stateMutability": "nonpayable",
      "type": "function"
    },
    {
      "inputs": [],
      "name": "s_GlobalDAOAddress",
      "outputs": [
        {
          "internalType": "address",
          "name": "",
          "type": "address"
        }
      ],
      "stateMutability": "view",
      "type": "function"
    },
    {
      "inputs": [],
      "name": "s_GlobalDAORate",
      "outputs": [
        {
          "internalType": "uint256",
          "name": "",
          "type": "uint256"
        }
      ],
      "stateMutability": "view",
      "type": "function"
    },
    {
      "inputs": [
        {
          "internalType": "uint256",
          "name": "_subnetId",
          "type": "uint256"
        }
      ],
      "name": "subnetDAOWalletFor1",
      "outputs": [
        {
          "internalType": "address",
          "name": "",
          "type": "address"
        }
      ],
      "stateMutability": "view",
      "type": "function"
    },
    {
      "inputs": [
        {
          "internalType": "uint256",
          "name": "_balanceToAdd",
          "type": "uint256"
        },
        {
          "internalType": "uint256[]",
          "name": "subnetId",
          "type": "uint256[]"
        },
        {
          "internalType": "string[]",
          "name": "_serviceProviderAddress",
          "type": "string[]"
        },
        {
          "internalType": "address[]",
          "name": "_referralAddress",
          "type": "address[]"
        },
        {
          "internalType": "uint256[]",
          "name": "_licenseFee",
          "type": "uint256[]"
        },
        {
          "internalType": "uint256[][]",
          "name": "computeRequired",
          "type": "uint256[][]"
        }
      ],
      "name": "subscribeBatchNew",
      "outputs": [
        {
          "internalType": "uint256",
          "name": "NFTid",
          "type": "uint256"
        }
      ],
      "stateMutability": "nonpayable",
      "type": "function"
    },
    {
      "inputs": [
        {
          "internalType": "uint256",
          "name": "_nftId",
          "type": "uint256"
        },
        {
          "internalType": "uint256[]",
          "name": "subnetId",
          "type": "uint256[]"
        },
        {
          "internalType": "string[]",
          "name": "_serviceProviderAddress",
          "type": "string[]"
        },
        {
          "internalType": "address[]",
          "name": "_referralAddress",
          "type": "address[]"
        },
        {
          "internalType": "uint256[]",
          "name": "_licenseFee",
          "type": "uint256[]"
        },
        {
          "internalType": "uint256[][]",
          "name": "computeRequired",
          "type": "uint256[][]"
        }
      ],
      "name": "subscribeBatchToExistingNFT",
      "outputs": [],
      "stateMutability": "nonpayable",
      "type": "function"
    },
    {
      "inputs": [
        {
          "internalType": "uint256",
          "name": "_balanceToAdd",
          "type": "uint256"
        },
        {
          "internalType": "uint256",
          "name": "subnetId",
          "type": "uint256"
        },
        {
          "internalType": "string",
          "name": "_serviceProviderAddress",
          "type": "string"
        },
        {
          "internalType": "address",
          "name": "_referralAddress",
          "type": "address"
        },
        {
          "internalType": "uint256",
          "name": "_licenseFee",
          "type": "uint256"
        },
        {
          "internalType": "uint256[]",
          "name": "_computeRequired",
          "type": "uint256[]"
        }
      ],
      "name": "subscribeNew",
      "outputs": [
        {
          "internalType": "uint256",
          "name": "",
          "type": "uint256"
        }
      ],
      "stateMutability": "nonpayable",
      "type": "function"
    },
    {
      "inputs": [
        {
          "internalType": "uint256",
          "name": "_nftId",
          "type": "uint256"
        },
        {
          "internalType": "uint256",
          "name": "_subnetId",
          "type": "uint256"
        },
        {
          "internalType": "string",
          "name": "_serviceProviderAddress",
          "type": "string"
        },
        {
          "internalType": "address",
          "name": "_referralAddress",
          "type": "address"
        },
        {
          "internalType": "uint256",
          "name": "_licenseFee",
          "type": "uint256"
        },
        {
          "internalType": "uint256[]",
          "name": "_computeRequired",
          "type": "uint256[]"
        }
      ],
      "name": "subscribeToExistingNFT",
      "outputs": [],
      "stateMutability": "nonpayable",
      "type": "function"
    },
    {
      "inputs": [
        {
          "internalType": "bytes4",
          "name": "interfaceId",
          "type": "bytes4"
        }
      ],
      "name": "supportsInterface",
      "outputs": [
        {
          "internalType": "bool",
          "name": "",
          "type": "bool"
        }
      ],
      "stateMutability": "view",
      "type": "function"
    },
    {
      "inputs": [
        {
          "internalType": "uint256",
          "name": "_subnetId",
          "type": "uint256"
        }
      ],
      "name": "t_SupportFeeRate",
      "outputs": [
        {
          "internalType": "uint256",
          "name": "fee",
          "type": "uint256"
        }
      ],
      "stateMutability": "view",
      "type": "function"
    },
    {
      "inputs": [
        {
          "internalType": "uint256",
          "name": "_tokenId",
          "type": "uint256"
        }
      ],
      "name": "t_supportFeeAddress",
      "outputs": [
        {
          "internalType": "address",
          "name": "",
          "type": "address"
        }
      ],
      "stateMutability": "view",
      "type": "function"
    },
    {
      "inputs": [
        {
          "internalType": "uint256",
          "name": "NFTid",
          "type": "uint256"
        }
      ],
      "name": "totalPrevBalance",
      "outputs": [
        {
          "internalType": "uint256",
          "name": "",
          "type": "uint256"
        }
      ],
      "stateMutability": "view",
      "type": "function"
    },
    {
      "inputs": [
        {
          "internalType": "uint256",
          "name": "",
          "type": "uint256"
        },
        {
          "internalType": "uint256",
          "name": "",
          "type": "uint256"
        }
      ],
      "name": "userSubscription",
      "outputs": [
        {
          "internalType": "string",
          "name": "serviceProviderAddress",
          "type": "string"
        },
        {
          "internalType": "address",
          "name": "referralAddress",
          "type": "address"
        },
        {
          "internalType": "uint256",
          "name": "r_licenseFee",
          "type": "uint256"
        },
        {
          "internalType": "bool",
          "name": "subscribed",
          "type": "bool"
        }
      ],
      "stateMutability": "view",
      "type": "function"
    },
    {
      "inputs": [
        {
          "internalType": "uint256",
          "name": "_NFTid",
          "type": "uint256"
        }
      ],
      "name": "withdrawAllOwnerBalance",
      "outputs": [],
      "stateMutability": "nonpayable",
      "type": "function"
    },
    {
      "inputs": [
        {
          "internalType": "uint256",
          "name": "_NFTid",
          "type": "uint256"
        },
        {
          "internalType": "uint256",
          "name": "_bal",
          "type": "uint256"
        }
      ],
      "name": "withdrawBalance",
      "outputs": [],
      "stateMutability": "nonpayable",
      "type": "function"
    }
  ],
  "bytecode": "0x608060405234801561001057600080fd5b50615d7280620000216000396000f3fe608060405234801561001057600080fd5b506004361061035d5760003560e01c806391d14854116101d3578063b621f5b711610104578063d9f64005116100a2578063ec4149761161007c578063ec414976146107e9578063f73ecb30146107fc578063f8f4724f1461080f578063fdffffff146108225761035d565b8063d9f64005146107ad578063dd8ba3f0146107c0578063df44b170146107c95761035d565b8063d480dc14116100de578063d480dc1414610723578063d4b5d60314610736578063d547741f14610791578063d5cb22c9146107a45761035d565b8063b621f5b7146106ea578063c73f22e6146106fd578063cbfafbda146107105761035d565b8063a8440fe211610171578063b1f107e21161014b578063b1f107e2146106b2578063b4b33ecd146106bb578063b5d8e986146106ce578063b5f608e8146106e15761035d565b8063a8440fe21461065e578063abb4b9cd1461068c578063aef72fb21461069f5761035d565b80639ca8b426116101ad5780639ca8b42614610609578063a217fddf14610630578063a40398a614610638578063a6d5d7021461064b5761035d565b806391d14854146105db57806396bbda3e146105ee5780639bda6a9e146105f65761035d565b8063248a9ca3116102ad57806345c37cd41161024b578063632bd76a11610225578063632bd76a1461057f5780637584c82f146105925780637bf654f2146105b557806383f59ac6146105c85761035d565b806345c37cd41461054e5780634beb71e6146105615780635c975abb146105745761035d565b80633320619211610287578063332061921461050d57806336568abe1461052057806343915cd01461053357806344e82250146105465761035d565b8063248a9ca3146104c45780632f2ff15d146104e75780632fc84de8146104fa5761035d565b8063150b7a021161031a5780631d2e0223116102f45780631d2e022314610483578063203181c91461048b578063215c5cb01461049e57806322115ef0146104b15761035d565b8063150b7a021461040d578063192cd212146104455780631bef5ddf146104705761035d565b806301ffc9a71461036257806306e29ed91461038a57806309cfddb21461039f5780630d47e245146103c0578063110bb8cd146103d35780631386387a146103e6575b600080fd5b6103756103703660046154b3565b610835565b60405190151581526020015b60405180910390f35b61039d61039836600461541f565b61086e565b005b6103b26103ad3660046154f3565b6108c0565b604051908152602001610381565b6103b26103ce36600461575a565b610ad0565b61039d6103e136600461566f565b610e46565b6103b27f86c262939a9533c4628ccc11f9decb407b7c04ffc9311f0c60d1f23d7d790db781565b61042c61041b366004615303565b630a85bd0160e11b95945050505050565b6040516001600160e01b03199091168152602001610381565b61045861045336600461546c565b610f99565b6040516001600160a01b039091168152602001610381565b61045861047e36600461546c565b611017565b610458611049565b61039d610499366004615690565b6110cb565b61039d6104ac3660046152cb565b611251565b61039d6104bf36600461539d565b61133b565b6103b26104d236600461546c565b60009081526065602052604090206001015490565b61039d6104f5366004615484565b61147d565b60cb54610458906001600160a01b031681565b6103b261051b36600461566f565b6114a7565b61039d61052e366004615484565b611634565b61039d61054136600461546c565b6116ae565b61039d6116fb565b60ca54610458906001600160a01b031681565b61039d61056f36600461546c565b611706565b60975460ff16610375565b61039d61058d36600461566f565b611d59565b6105a56105a036600461566f565b612436565b60405161038194939291906158bd565b61039d6105c33660046156c8565b612500565b60cc54610458906001600160a01b031681565b6103756105e9366004615484565b612ae2565b6103b2612b0d565b61039d610604366004615716565b612b8a565b6103b27f3accb7525e36f7c8113757659b4e6f25deb99f23daf336bf7c35736aae7bcd9d81565b6103b2600081565b61037561064636600461566f565b612ddb565b6103b261065936600461546c565b613463565b6103b261066c36600461566f565b600091825260ce6020908152604080842092845291905290206002015490565b60c954610458906001600160a01b031681565b6103756106ad36600461546c565b61351f565b6103b260d15481565b6103b26106c936600461546c565b613548565b6103b26106dc36600461546c565b6135ae565b6103b260d35481565b61039d6106f83660046152cb565b61360b565b61039d61070b3660046157de565b613639565b61039d61071e36600461546c565b613ab6565b61039d61073136600461546c565b613b03565b61076e61074436600461546c565b60cd6020526000908152604090208054600582015460069092015490916001600160a01b03169083565b604080519384526001600160a01b03909216602084015290820152606001610381565b61039d61079f366004615484565b61407a565b6103b260d05481565b61039d6107bb36600461546c565b61409f565b6103b260d25481565b6103b26107d73660046152cb565b60cf6020526000908152604090205481565b61039d6107f73660046154f3565b6140ec565b6103b261080a36600461546c565b6141d7565b61039d61081d36600461546c565b614265565b61039d61083036600461575a565b6142b2565b60006001600160e01b03198216637965db0b60e01b148061086657506301ffc9a760e01b6001600160e01b03198316145b90505b919050565b60005b81518110156108bc576108aa82828151811061089d57634e487b7160e01b600052603260045260246000fd5b6020026020010151611251565b806108b481615ce0565b915050610871565b5050565b600061099887876000815181106108e757634e487b7160e01b600052603260045260246000fd5b60200260200101518760008151811061091057634e487b7160e01b600052603260045260246000fd5b60200260200101518760008151811061093957634e487b7160e01b600052603260045260246000fd5b60200260200101518760008151811061096257634e487b7160e01b600052603260045260246000fd5b60200260200101518760008151811061098b57634e487b7160e01b600052603260045260246000fd5b6020026020010151610ad0565b905060015b8651811015610a8957610a77828883815181106109ca57634e487b7160e01b600052603260045260246000fd5b60200260200101518884815181106109f257634e487b7160e01b600052603260045260246000fd5b6020026020010151888581518110610a1a57634e487b7160e01b600052603260045260246000fd5b6020026020010151888681518110610a4257634e487b7160e01b600052603260045260246000fd5b6020026020010151888781518110610a6a57634e487b7160e01b600052603260045260246000fd5b60200260200101516142b2565b80610a8181615ce0565b91505061099d565b5086610aa060d154610a9a84613463565b9061481f565b10610ac65760405162461bcd60e51b8152600401610abd906159a6565b60405180910390fd5b9695505050505050565b6000610ade60975460ff1690565b15610afb5760405162461bcd60e51b8152600401610abd906158f7565b6000610b8e600160ca60009054906101000a90046001600160a01b03166001600160a01b031663561892366040518163ffffffff1660e01b815260040160206040518083038186803b158015610b5057600080fd5b505afa158015610b64573d6000803e3d6000fd5b505050506040513d601f19601f82011682018060405250810190610b8891906154db565b90614832565b60ca549091506001600160a01b0316636a627842336040516001600160e01b031960e084901b1681526001600160a01b039091166004820152602401602060405180830381600087803b158015610be457600080fd5b505af1158015610bf8573d6000803e3d6000fd5b505050506040513d601f19601f82011682018060405250810190610c1c91906154db565b5060606000604051806060016040528060008152602001600081526020018b81525090506040518060a00160405280428152602001828152602001838152602001610c643390565b6001600160a01b031681526000602091820181905285815260cd8252604090208251815590820151610c9c9060018301906003614ec3565b5060408201518051610cb8916004840191602090910190614f01565b5060608201516005820180546001600160a01b0319166001600160a01b03909216919091179055608090910151600690910155610cf9838a8a8a8a8a61483e565b89610d0a60d154610a9a868d6114a7565b10610d275760405162461bcd60e51b8152600401610abd906159a6565b60cb546001600160a01b03166323b872dd336040516001600160e01b031960e084901b1681526001600160a01b039091166004820152306024820152604481018d9052606401602060405180830381600087803b158015610d8757600080fd5b505af1158015610d9b573d6000803e3d6000fd5b505050506040513d601f19601f82011682018060405250810190610dbf9190615452565b5060408051848152600260208201529081018b90527fc3cb85e2217091051779d8f75f52cc9874723c3b9fad06042a5fa2df88df96429060600160405180910390a1610e26610e1f610e1085613463565b610e1986613548565b90614a8c565b4290614832565b600084815260cd6020526040902060060155509098975050505050505050565b60d354600083815260d4602090815260408083208584529091529020544291610e6f9190614832565b10610ebc5760405162461bcd60e51b815260206004820152601c60248201527f43616e6e6f74206170706c79206265666f726520636f6f6c646f776e000000006044820152606401610abd565b600082815260d460209081526040808320848452825280832042600282015585845260ce835281842085855290925290912060019091018054610efe90615ca5565b610f09929190614f3b565b50604080516020808201808452600080845286815260d483528481208682529092529290209051610f409260019092019190614fb6565b50600082815260ce602090815260408083208484529091529081902090517f18ea9894f61e99766c715362e69b478c1e4b6d999d935a1a9e513b5a55e2fd3b91610f8d9185918591615ae4565b60405180910390a15050565b60c9546040516379fed2eb60e01b8152600481018390526000916001600160a01b0316906379fed2eb906024015b60206040518083038186803b158015610fdf57600080fd5b505afa158015610ff3573d6000803e3d6000fd5b505050506040513d601f19601f8201168201806040525081019061086691906152e7565b60ca546040516331a9108f60e11b8152600481018390526000916001600160a01b031690636352211e90602401610fc7565b60c954604080516341facd6360e11b815290516000926001600160a01b0316916383f59ac6916004808301926020929190829003018186803b15801561108e57600080fd5b505afa1580156110a2573d6000803e3d6000fd5b505050506040513d601f19601f820116820180604052508101906110c691906152e7565b905090565b600083815260ce602090815260408083208584529091529020600101546001600160a01b03161561112c5760405162461bcd60e51b815260206004820152600b60248201526a105b1c9958591e481cd95d60aa1b6044820152606401610abd565b3360ca546040516331a9108f60e11b8152600481018690526001600160a01b039283169290911690636352211e9060240160206040518083038186803b15801561117557600080fd5b505afa158015611189573d6000803e3d6000fd5b505050506040513d601f19601f820116820180604052508101906111ad91906152e7565b6001600160a01b0316146111d35760405162461bcd60e51b8152600401610abd90615921565b600083815260ce6020908152604080832085845282529182902060010180546001600160a01b0319166001600160a01b0385169081179091558251868152918201859052918101919091527f5878ac48f3058583ef4c6d4eb2cc2fdbe3fad465b25bb2216a7d0396e0a88b75906060015b60405180910390a1505050565b6001600160a01b03818116600081815260cf6020526040908190205460cb54915163a9059cbb60e01b815260048101939093526024830181905292169063a9059cbb90604401602060405180830381600087803b1580156112b157600080fd5b505af11580156112c5573d6000803e3d6000fd5b505050506040513d601f19601f820116820180604052508101906112e99190615452565b506001600160a01b038216600081815260cf6020908152604080832092909255815192835282018390527ff8df0bb865f83f0bfa58caa2a1ec0cccc495ea623170108323baecc06cd6537a9101610f8d565b60006113476001614a98565b9050801561135f576000805461ff0019166101001790555b611367614b1d565b61136f614b44565b61137a60008a614b77565b6113a47f3accb7525e36f7c8113757659b4e6f25deb99f23daf336bf7c35736aae7bcd9d8a614b77565b6113ce7f86c262939a9533c4628ccc11f9decb407b7c04ffc9311f0c60d1f23d7d790db78a614b77565b60cc80546001600160a01b03808c166001600160a01b03199283161790925560d08a905560d189905560c9805489841690831617905560ca805488841690831617905560cb80549287169290911691909117905560d283905560d38290558015611472576000805461ff0019169055604051600181527f7f26b83ff96e1f2b6a682f133852f6798a09c465da95921460cefb38474024989060200160405180910390a15b505050505050505050565b60008281526065602052604090206001015461149881614bfd565b6114a28383614b77565b505050565b6000806114e6620186a0610b886114bd866141d7565b600088815260ce602090815260408083208a8452909152902060020154610b8890610b88612b0d565b60c9546040516373d97f3960e01b8152600481018690529192506000916001600160a01b03909116906373d97f399060240160006040518083038186803b15801561153057600080fd5b505afa158015611544573d6000803e3d6000fd5b505050506040513d6000823e601f3d908101601f1916820160405261156c91908101906155c7565b5050509450505050506000805b825181101561162257600087815260ce602090815260408083208984529091529020600301805461160e9161160791849081106115c657634e487b7160e01b600052603260045260246000fd5b90600052602060002001548584815181106115f157634e487b7160e01b600052603260045260246000fd5b602002602001015161481f90919063ffffffff16565b8390614832565b91508061161a81615ce0565b915050611579565b50610ac6620186a0610e19858461481f565b6001600160a01b03811633146116a45760405162461bcd60e51b815260206004820152602f60248201527f416363657373436f6e74726f6c3a2063616e206f6e6c792072656e6f756e636560448201526e103937b632b9903337b91039b2b63360891b6064820152608401610abd565b6108bc8282614c0a565b60006116b981614bfd565b60d35460408051918252602082018490527fc5e14df5fc337a990601fe0ce9170d1666340710bae7daf71491634ab38a58dc910160405180910390a15060d355565b611704336104ac565b565b600081815260cd602090815260408083206004018054825181850281018501909352808352859493849392919083018282801561176257602002820191906000526020600020905b81548152602001906001019080831161174e575b5050505050905060005b815181101561190a5760c95482516000916001600160a01b0316906373d97f39908590859081106117ad57634e487b7160e01b600052603260045260246000fd5b60200260200101516040518263ffffffff1660e01b81526004016117d391815260200190565b60006040518083038186803b1580156117eb57600080fd5b505afa1580156117ff573d6000803e3d6000fd5b505050506040513d6000823e601f3d908101601f1916820160405261182791908101906155c7565b50505094505050505060005b81518110156118f5576118e16118da60ce6000898152602001908152602001600020600087878151811061187757634e487b7160e01b600052603260045260246000fd5b6020026020010151815260200190815260200160002060030183815481106118af57634e487b7160e01b600052603260045260246000fd5b90600052602060002001548484815181106115f157634e487b7160e01b600052603260045260246000fd5b8690614832565b9450806118ed81615ce0565b915050611833565b5050808061190290615ce0565b91505061176c565b50600083815260cd602052604081205461193090611929904290614c71565b849061481f565b9050620186a0811115611d1e576000808083611955620186a0610e1983610a9a612b0d565b92506119878360cf6000611967611049565b6001600160a01b0316815260208101919091526040016000205490614832565b60cf6000611993611049565b6001600160a01b03166001600160a01b031681526020019081526020016000208190555060005b8651811015611af157611a1d6118da620186a0610e1989610a9a8e8d88815181106119f557634e487b7160e01b600052603260045260246000fd5b6020026020010151600091825260ce6020908152604080842092845291905290206002015490565b9450611a64611a5d620186a0610e1989610a9a8c8781518110611a5057634e487b7160e01b600052603260045260246000fd5b60200260200101516141d7565b8490614832565b9250611a9e8260cf60006119678b8681518110611a9157634e487b7160e01b600052603260045260246000fd5b6020026020010151610f99565b60cf6000611ac58a8581518110611a9157634e487b7160e01b600052603260045260246000fd5b6001600160a01b0316815260208101919091526040016000205580611ae981615ce0565b9150506119ba565b50600088815260cd60209081526040808320600501546001600160a01b0316835260cf909152902054611b249085614832565b600089815260cd60209081526040808320600501546001600160a01b0316835260cf91829052822092909255611b5f9184916119678c611017565b60cf6000611b6c8b611017565b6001600160a01b031681526020810191909152604001600090812091909155611b9b82610b8885818989614832565b60008a815260cd602052604081206001015491925090821015611bf05760008a815260cd60205260408120611bd9918491600101905b015490614c71565b60008b815260cd6020526040902060010155611d06565b60008a815260cd60205260408120611c12916001909101905b01548390614c71565b60008b815260cd60205260408120600181019190915560020154909150811015611c745760008a815260cd60205260409020611c55908290600190810190611bd1565b60008b815260cd602052604090206001908101905b0155506000611d06565b60008a815260cd60205260409020611c96906001908101905b01548290614c71565b60008b815260cd60205260408120600281019190915560030154909150811015611cf05760008a815260cd60205260409020611cd89082906001016002611bd1565b60008b815260cd602052604090206001016002611c6a565b50600089815260cd602052604081206003018190555b505050600087815260cd602052604090204290555050505b6040518581527f106128e5bc2fab46dc6facdb884bcdb95b9005c33eff74a8009b90a3944c1009906020015b60405180910390a15050505050565b60975460ff1615611d7c5760405162461bcd60e51b8152600401610abd906158f7565b600082815260cd6020908152604080832060040180548251818502810185019093528083528694938493929190830182828015611dd857602002820191906000526020600020905b815481526020019060010190808311611dc4575b5050505050905060005b8151811015611f165760c95482516000916001600160a01b0316906373d97f3990859085908110611e2357634e487b7160e01b600052603260045260246000fd5b60200260200101516040518263ffffffff1660e01b8152600401611e4991815260200190565b60006040518083038186803b158015611e6157600080fd5b505afa158015611e75573d6000803e3d6000fd5b505050506040513d6000823e601f3d908101601f19168201604052611e9d91908101906155c7565b50505094505050505060005b8151811015611f0157611eed6118da60ce6000898152602001908152602001600020600087878151811061187757634e487b7160e01b600052603260045260246000fd5b945080611ef981615ce0565b915050611ea9565b50508080611f0e90615ce0565b915050611de2565b50600083815260cd6020526040812054611f3590611929904290614c71565b9050620186a08111156122ac576000808083611f5a620186a0610e1983610a9a612b0d565b9250611f6c8360cf6000611967611049565b60cf6000611f78611049565b6001600160a01b03166001600160a01b031681526020019081526020016000208190555060005b865181101561208d57611fda6118da620186a0610e1989610a9a8e8d88815181106119f557634e487b7160e01b600052603260045260246000fd5b945061200d611a5d620186a0610e1989610a9a8c8781518110611a5057634e487b7160e01b600052603260045260246000fd5b925061203a8260cf60006119678b8681518110611a9157634e487b7160e01b600052603260045260246000fd5b60cf60006120618a8581518110611a9157634e487b7160e01b600052603260045260246000fd5b6001600160a01b031681526020810191909152604001600020558061208581615ce0565b915050611f9f565b50600088815260cd60209081526040808320600501546001600160a01b0316835260cf9091529020546120c09085614832565b600089815260cd60209081526040808320600501546001600160a01b0316835260cf918290528220929092556120fb9184916119678c611017565b60cf60006121088b611017565b6001600160a01b03168152602081019190915260400160009081209190915561213782610b8885818989614832565b60008a815260cd6020526040812060010154919250908210156121885760008a815260cd6020526040812061217191849160010190611bd1565b60008b815260cd6020526040902060010155612294565b60008a815260cd602052604081206121a591600190910190611c09565b60008b815260cd602052604081206001810191909155600201549091508110156122075760008a815260cd602052604090206121e8908290600190810190611bd1565b60008b815260cd602052604090206001908101905b0155506000612294565b60008a815260cd6020526040902061222490600190810190611c8d565b60008b815260cd6020526040812060028101919091556003015490915081101561227e5760008a815260cd602052604090206122669082906001016002611bd1565b60008b815260cd6020526040902060010160026121fd565b50600089815260cd602052604081206003018190555b505050600087815260cd602052604090204290555050505b3360ca546040516331a9108f60e11b8152600481018990526001600160a01b039283169290911690636352211e9060240160206040518083038186803b1580156122f557600080fd5b505afa158015612309573d6000803e3d6000fd5b505050506040513d601f19601f8201168201806040525081019061232d91906152e7565b6001600160a01b0316146123535760405162461bcd60e51b8152600401610abd90615921565b60cb546001600160a01b031663a9059cbb336040516001600160e01b031960e084901b1681526001600160a01b03909116600482015260248101889052604401602060405180830381600087803b1580156123ad57600080fd5b505af11580156123c1573d6000803e3d6000fd5b505050506040513d601f19601f820116820180604052508101906123e59190615452565b50600086815260cd602052604081206003015561240186611706565b612419610e1f61241088613463565b610e1989613548565b600096875260cd6020526040909620600601959095555050505050565b60ce60209081526000928352604080842090915290825290208054819061245c90615ca5565b80601f016020809104026020016040519081016040528092919081815260200182805461248890615ca5565b80156124d55780601f106124aa576101008083540402835291602001916124d5565b820191906000526020600020905b8154815290600101906020018083116124b857829003601f168201915b505050506001830154600284015460049094015492936001600160a01b039091169290915060ff1684565b7f3accb7525e36f7c8113757659b4e6f25deb99f23daf336bf7c35736aae7bcd9d61252a81614bfd565b60975460ff161561254d5760405162461bcd60e51b8152600401610abd906158f7565b600084815260cd60209081526040808320600401805482518185028101850190935280835288949384939291908301828280156125a957602002820191906000526020600020905b815481526020019060010190808311612595575b5050505050905060005b81518110156126e75760c95482516000916001600160a01b0316906373d97f39908590859081106125f457634e487b7160e01b600052603260045260246000fd5b60200260200101516040518263ffffffff1660e01b815260040161261a91815260200190565b60006040518083038186803b15801561263257600080fd5b505afa158015612646573d6000803e3d6000fd5b505050506040513d6000823e601f3d908101601f1916820160405261266e91908101906155c7565b50505094505050505060005b81518110156126d2576126be6118da60ce6000898152602001908152602001600020600087878151811061187757634e487b7160e01b600052603260045260246000fd5b9450806126ca81615ce0565b91505061267a565b505080806126df90615ce0565b9150506125b3565b50600083815260cd602052604081205461270690611929904290614c71565b9050620186a0811115612a7d57600080808361272b620186a0610e1983610a9a612b0d565b925061273d8360cf6000611967611049565b60cf6000612749611049565b6001600160a01b03166001600160a01b031681526020019081526020016000208190555060005b865181101561285e576127ab6118da620186a0610e1989610a9a8e8d88815181106119f557634e487b7160e01b600052603260045260246000fd5b94506127de611a5d620186a0610e1989610a9a8c8781518110611a5057634e487b7160e01b600052603260045260246000fd5b925061280b8260cf60006119678b8681518110611a9157634e487b7160e01b600052603260045260246000fd5b60cf60006128328a8581518110611a9157634e487b7160e01b600052603260045260246000fd5b6001600160a01b031681526020810191909152604001600020558061285681615ce0565b915050612770565b50600088815260cd60209081526040808320600501546001600160a01b0316835260cf9091529020546128919085614832565b600089815260cd60209081526040808320600501546001600160a01b0316835260cf918290528220929092556128cc9184916119678c611017565b60cf60006128d98b611017565b6001600160a01b03168152602081019190915260400160009081209190915561290882610b8885818989614832565b60008a815260cd6020526040812060010154919250908210156129595760008a815260cd6020526040812061294291849160010190611bd1565b60008b815260cd6020526040902060010155612a65565b60008a815260cd6020526040812061297691600190910190611c09565b60008b815260cd602052604081206001810191909155600201549091508110156129d85760008a815260cd602052604090206129b9908290600190810190611bd1565b60008b815260cd602052604090206001908101905b0155506000612a65565b60008a815260cd602052604090206129f590600190810190611c8d565b60008b815260cd60205260408120600281019190915560030154909150811015612a4f5760008a815260cd60205260409020612a379082906001016002611bd1565b60008b815260cd6020526040902060010160026129ce565b50600089815260cd602052604081206003018190555b505050600087815260cd602052604090204290555050505b600088815260ce602090815260408083208a845282529091208751612aaa92600390920191890190614f01565b50612ac3610e1f612aba8a613463565b610e198b613548565b600098895260cd60205260409098206006019790975550505050505050565b60009182526065602090815260408084206001600160a01b0393909316845291905290205460ff1690565b60c954604080516319ec727760e31b815290516000926001600160a01b03169163cf6393b8916004808301926020929190829003018186803b158015612b5257600080fd5b505afa158015612b66573d6000803e3d6000fd5b505050506040513d601f19601f820116820180604052508101906110c691906154db565b3360ca546040516331a9108f60e11b8152600481018690526001600160a01b039283169290911690636352211e9060240160206040518083038186803b158015612bd357600080fd5b505afa158015612be7573d6000803e3d6000fd5b505050506040513d601f19601f82011682018060405250810190612c0b91906152e7565b6001600160a01b031614612c5b5760405162461bcd60e51b8152602060048201526017602482015276139bdd081d1a19481bdddb995c881bd988139195081a59604a1b6044820152606401610abd565b600083815260ce6020908152604080832085845290915290206004015460ff16612cd95760405162461bcd60e51b815260206004820152602960248201527f5f7375626e65744964206973206e6f74207375627363726962656420627920756044820152681cd95c89dcc813919560ba1b6064820152608401610abd565b60d254600084815260d4602090815260408083208684529091529020600201544291612d059190614832565b10612d785760405162461bcd60e51b815260206004820152603860248201527f43616e6e6f742072657175657374206265666f726520524551445f4e4f54494360448201527f455f54494d455f535f50524f56494445522070617373656400000000000000006064820152608401610abd565b600083815260d46020908152604080832085845282529091204281558251612da892600190920191840190614fb6565b507e0858c198563c0aa886be91504eeb8007e0be28541c36be5d1ace93f3eebbfd83838360405161124493929190615a43565b60008260008060cd6000848152602001908152602001600020600401805480602002602001604051908101604052809291908181526020018280548015612e4157602002820191906000526020600020905b815481526020019060010190808311612e2d575b5050505050905060005b8151811015612f7f5760c95482516000916001600160a01b0316906373d97f3990859085908110612e8c57634e487b7160e01b600052603260045260246000fd5b60200260200101516040518263ffffffff1660e01b8152600401612eb291815260200190565b60006040518083038186803b158015612eca57600080fd5b505afa158015612ede573d6000803e3d6000fd5b505050506040513d6000823e601f3d908101601f19168201604052612f0691908101906155c7565b50505094505050505060005b8151811015612f6a57612f566118da60ce6000898152602001908152602001600020600087878151811061187757634e487b7160e01b600052603260045260246000fd5b945080612f6281615ce0565b915050612f12565b50508080612f7790615ce0565b915050612e4b565b50600083815260cd6020526040812054612f9e90611929904290614c71565b9050620186a0811115613315576000808083612fc3620186a0610e1983610a9a612b0d565b9250612fd58360cf6000611967611049565b60cf6000612fe1611049565b6001600160a01b03166001600160a01b031681526020019081526020016000208190555060005b86518110156130f6576130436118da620186a0610e1989610a9a8e8d88815181106119f557634e487b7160e01b600052603260045260246000fd5b9450613076611a5d620186a0610e1989610a9a8c8781518110611a5057634e487b7160e01b600052603260045260246000fd5b92506130a38260cf60006119678b8681518110611a9157634e487b7160e01b600052603260045260246000fd5b60cf60006130ca8a8581518110611a9157634e487b7160e01b600052603260045260246000fd5b6001600160a01b03168152602081019190915260400160002055806130ee81615ce0565b915050613008565b50600088815260cd60209081526040808320600501546001600160a01b0316835260cf9091529020546131299085614832565b600089815260cd60209081526040808320600501546001600160a01b0316835260cf918290528220929092556131649184916119678c611017565b60cf60006131718b611017565b6001600160a01b0316815260208101919091526040016000908120919091556131a082610b8885818989614832565b60008a815260cd6020526040812060010154919250908210156131f15760008a815260cd602052604081206131da91849160010190611bd1565b60008b815260cd60205260409020600101556132fd565b60008a815260cd6020526040812061320e91600190910190611c09565b60008b815260cd602052604081206001810191909155600201549091508110156132705760008a815260cd60205260409020613251908290600190810190611bd1565b60008b815260cd602052604090206001908101905b01555060006132fd565b60008a815260cd6020526040902061328d90600190810190611c8d565b60008b815260cd602052604081206002810191909155600301549091508110156132e75760008a815260cd602052604090206132cf9082906001016002611bd1565b60008b815260cd602052604090206001016002613266565b50600089815260cd602052604081206003018190555b505050600087815260cd602052604090204290555050505b60cb5487906001600160a01b03166323b872dd336040516001600160e01b031960e084901b1681526001600160a01b039091166004820152306024820152604481018a9052606401602060405180830381600087803b15801561337757600080fd5b505af115801561338b573d6000803e3d6000fd5b505050506040513d601f19601f820116820180604052508101906133af9190615452565b50600081815260cd60205260408120600301546133cc9089614832565b600083815260cd602052604090206003810182905542905590506133fe610e1f6133f584613463565b610e198c613548565b600083815260cd60209081526040918290206006019290925580518b815260029281019290925281018990527fc3cb85e2217091051779d8f75f52cc9874723c3b9fad06042a5fa2df88df96429060600160405180910390a150505050505092915050565b600081815260cd60209081526040808320600401805482518185028101850190935280835284938301828280156134b957602002820191906000526020600020905b8154815260200190600101908083116134a5575b505050505090506000915060005b815181101561351857613504611a5d858484815181106134f757634e487b7160e01b600052603260045260246000fd5b60200260200101516114a7565b92508061351081615ce0565b9150506134c7565b5050919050565b600081815260cd602052604081206006015442101561354057506001610869565b506000919050565b600080805b60038110156135a757600084815260cd6020526040902061359390600101826003811061358a57634e487b7160e01b600052603260045260246000fd5b01548390614832565b91508061359f81615ce0565b91505061354d565b5092915050565b6000806135d76135bd84613463565b600085815260cd6020526040902054610a9a904290614c71565b905060006135e484613548565b9050818110156135f957600092505050610869565b6136038183614c71565b949350505050565b600061361681614bfd565b5060cc80546001600160a01b0319166001600160a01b0392909216919091179055565b60975460ff161561365c5760405162461bcd60e51b8152600401610abd906158f7565b60c9546040516373d97f3960e01b8152600481018490526000916001600160a01b0316906373d97f399060240160006040518083038186803b1580156136a157600080fd5b505afa1580156136b5573d6000803e3d6000fd5b505050506040513d6000823e601f3d908101601f191682016040526136dd91908101906155c7565b505050509350505050806137505760405162461bcd60e51b815260206004820152603460248201527f43616e6e6f74206368616e676520737562736372697074696f6e206966207375604482015273189b995d081a5cc81b9bdd0819195b1a5cdd195960621b6064820152608401610abd565b3360ca546040516331a9108f60e11b8152600481018790526001600160a01b039283169290911690636352211e9060240160206040518083038186803b15801561379957600080fd5b505afa1580156137ad573d6000803e3d6000fd5b505050506040513d601f19601f820116820180604052508101906137d191906152e7565b6001600160a01b0316146138215760405162461bcd60e51b8152602060048201526017602482015276139bdd081d1a19481bdddb995c881bd988139195081a59604a1b6044820152606401610abd565b600084815260ce6020908152604080832086845290915290206004015460ff166138a05760405162461bcd60e51b815260206004820152602a60248201527f5f63757272656e745375626e65744964206973206e6f7420737562736372696260448201526932b210313c903ab9b2b960b11b6064820152608401610abd565b600084815260ce6020908152604080832085845290915280822060048101805460ff191660011790558583529082209184905281549091906138e190615ca5565b6138ec929190614f3b565b50600084815260ce602090815260408083208684529091528082206001808201548685529290932092830180546001600160a01b0319166001600160a01b03909316929092179091556002808201549083015560039081018054613954939290920191615029565b50600084815260ce6020908152604080832086845282528083206004908101805460ff1916905587845260cd835281842001805482518185028101850190935280835291929091908301828280156139cb57602002820191906000526020600020905b8154815260200190600101908083116139b7575b5050505050905060005b8151811015613a5157848282815181106139ff57634e487b7160e01b600052603260045260246000fd5b60200260200101511415613a3f5783828281518110613a2e57634e487b7160e01b600052603260045260246000fd5b602002602001018181525050613a51565b80613a4981615ce0565b9150506139d5565b50600085815260cd602090815260409091208251613a7792600490920191840190614f01565b5060408051868152602081018690529081018490527f53404332d7fbbd680064ad6f3fa2e5a1c6737c9c3206cf95918a31755c7918b790606001611d4a565b6000613ac181614bfd565b60d05460408051918252602082018490527f54fe1a6d60ea8cebf2cb1d7889eb5b27dd95abe955e06eed2cae5540a54b4bf2910160405180910390a15060d055565b60975460ff1615613b265760405162461bcd60e51b8152600401610abd906158f7565b600081815260cd6020908152604080832060040180548251818502810185019093528083528594938493929190830182828015613b8257602002820191906000526020600020905b815481526020019060010190808311613b6e575b5050505050905060005b8151811015613cc05760c95482516000916001600160a01b0316906373d97f3990859085908110613bcd57634e487b7160e01b600052603260045260246000fd5b60200260200101516040518263ffffffff1660e01b8152600401613bf391815260200190565b60006040518083038186803b158015613c0b57600080fd5b505afa158015613c1f573d6000803e3d6000fd5b505050506040513d6000823e601f3d908101601f19168201604052613c4791908101906155c7565b50505094505050505060005b8151811015613cab57613c976118da60ce6000898152602001908152602001600020600087878151811061187757634e487b7160e01b600052603260045260246000fd5b945080613ca381615ce0565b915050613c53565b50508080613cb890615ce0565b915050613b8c565b50600083815260cd6020526040812054613cdf90611929904290614c71565b9050620186a0811115614056576000808083613d04620186a0610e1983610a9a612b0d565b9250613d168360cf6000611967611049565b60cf6000613d22611049565b6001600160a01b03166001600160a01b031681526020019081526020016000208190555060005b8651811015613e3757613d846118da620186a0610e1989610a9a8e8d88815181106119f557634e487b7160e01b600052603260045260246000fd5b9450613db7611a5d620186a0610e1989610a9a8c8781518110611a5057634e487b7160e01b600052603260045260246000fd5b9250613de48260cf60006119678b8681518110611a9157634e487b7160e01b600052603260045260246000fd5b60cf6000613e0b8a8581518110611a9157634e487b7160e01b600052603260045260246000fd5b6001600160a01b0316815260208101919091526040016000205580613e2f81615ce0565b915050613d49565b50600088815260cd60209081526040808320600501546001600160a01b0316835260cf909152902054613e6a9085614832565b600089815260cd60209081526040808320600501546001600160a01b0316835260cf91829052822092909255613ea59184916119678c611017565b60cf6000613eb28b611017565b6001600160a01b031681526020810191909152604001600090812091909155613ee182610b8885818989614832565b60008a815260cd602052604081206001015491925090821015613f325760008a815260cd60205260408120613f1b91849160010190611bd1565b60008b815260cd602052604090206001015561403e565b60008a815260cd60205260408120613f4f91600190910190611c09565b60008b815260cd60205260408120600181019190915560020154909150811015613fb15760008a815260cd60205260409020613f92908290600190810190611bd1565b60008b815260cd602052604090206001908101905b015550600061403e565b60008a815260cd60205260409020613fce90600190810190611c8d565b60008b815260cd602052604081206002810191909155600301549091508110156140285760008a815260cd602052604090206140109082906001016002611bd1565b60008b815260cd602052604090206001016002613fa7565b50600089815260cd602052604081206003018190555b505050600087815260cd602052604090204290555050505b600085815260cd60205260409020600301546140728682611d59565b505050505050565b60008281526065602052604090206001015461409581614bfd565b6114a28383614c0a565b60006140aa81614bfd565b60d25460408051918252602082018490527f880c74d681b789e90ecfbf24398fc73843a046f74a0f6ffe22a0fcc0d214a771910160405180910390a15060d255565b60005b85518110156141ce576141bc8787838151811061411c57634e487b7160e01b600052603260045260246000fd5b602002602001015187848151811061414457634e487b7160e01b600052603260045260246000fd5b602002602001015187858151811061416c57634e487b7160e01b600052603260045260246000fd5b602002602001015187868151811061419457634e487b7160e01b600052603260045260246000fd5b6020026020010151878781518110610a6a57634e487b7160e01b600052603260045260246000fd5b806141c681615ce0565b9150506140ef565b50505050505050565b60c9546040516373d97f3960e01b8152600481018390526000916001600160a01b0316906373d97f399060240160006040518083038186803b15801561421c57600080fd5b505afa158015614230573d6000803e3d6000fd5b505050506040513d6000823e601f3d908101601f1916820160405261425891908101906155c7565b9998505050505050505050565b600061427081614bfd565b60d15460408051918252602082018490527f7c687d0697c66d5104a1421b7d823a0818020aeacac7371785314a404d9a2ee2910160405180910390a15060d155565b60975460ff16156142d55760405162461bcd60e51b8152600401610abd906158f7565b600086815260cd6020908152604080832060040180548251818502810185019093528083528a9493849392919083018282801561433157602002820191906000526020600020905b81548152602001906001019080831161431d575b5050505050905060005b815181101561446f5760c95482516000916001600160a01b0316906373d97f399085908590811061437c57634e487b7160e01b600052603260045260246000fd5b60200260200101516040518263ffffffff1660e01b81526004016143a291815260200190565b60006040518083038186803b1580156143ba57600080fd5b505afa1580156143ce573d6000803e3d6000fd5b505050506040513d6000823e601f3d908101601f191682016040526143f691908101906155c7565b50505094505050505060005b815181101561445a576144466118da60ce6000898152602001908152602001600020600087878151811061187757634e487b7160e01b600052603260045260246000fd5b94508061445281615ce0565b915050614402565b5050808061446790615ce0565b91505061433b565b50600083815260cd602052604081205461448e90611929904290614c71565b9050620186a08111156148055760008080836144b3620186a0610e1983610a9a612b0d565b92506144c58360cf6000611967611049565b60cf60006144d1611049565b6001600160a01b03166001600160a01b031681526020019081526020016000208190555060005b86518110156145e6576145336118da620186a0610e1989610a9a8e8d88815181106119f557634e487b7160e01b600052603260045260246000fd5b9450614566611a5d620186a0610e1989610a9a8c8781518110611a5057634e487b7160e01b600052603260045260246000fd5b92506145938260cf60006119678b8681518110611a9157634e487b7160e01b600052603260045260246000fd5b60cf60006145ba8a8581518110611a9157634e487b7160e01b600052603260045260246000fd5b6001600160a01b03168152602081019190915260400160002055806145de81615ce0565b9150506144f8565b50600088815260cd60209081526040808320600501546001600160a01b0316835260cf9091529020546146199085614832565b600089815260cd60209081526040808320600501546001600160a01b0316835260cf918290528220929092556146549184916119678c611017565b60cf60006146618b611017565b6001600160a01b03168152602081019190915260400160009081209190915561469082610b8885818989614832565b60008a815260cd6020526040812060010154919250908210156146e15760008a815260cd602052604081206146ca91849160010190611bd1565b60008b815260cd60205260409020600101556147ed565b60008a815260cd602052604081206146fe91600190910190611c09565b60008b815260cd602052604081206001810191909155600201549091508110156147605760008a815260cd60205260409020614741908290600190810190611bd1565b60008b815260cd602052604090206001908101905b01555060006147ed565b60008a815260cd6020526040902061477d90600190810190611c8d565b60008b815260cd602052604081206002810191909155600301549091508110156147d75760008a815260cd602052604090206147bf9082906001016002611bd1565b60008b815260cd602052604090206001016002614756565b50600089815260cd602052604081206003018190555b505050600087815260cd602052604090204290555050505b6148138a8a8a8a8a8a61483e565b50505050505050505050565b600061482b8284615c28565b9392505050565b600061482b8284615bf0565b60d054600087815260cd6020526040902060040154106148db5760405162461bcd60e51b815260206004820152604c60248201527f43616e6e6f7420737562736372696265206173206c696d69742065786365656460448201527f7320746f206d6178205375626e657420737562736372697074696f6e20616c6c60648201526b1bddd959081c195c8813919560a21b608482015260a401610abd565b3360ca546040516331a9108f60e11b8152600481018990526001600160a01b039283169290911690636352211e9060240160206040518083038186803b15801561492457600080fd5b505afa158015614938573d6000803e3d6000fd5b505050506040513d601f19601f8201168201806040525081019061495c91906152e7565b6001600160a01b0316146149825760405162461bcd60e51b8152600401610abd90615921565b600086815260cd6020908152604080832060040180546001810182559084528284200188905588835260ce8252808320888452825290912085516149c892870190614fb6565b50600086815260ce6020908152604080832088845282529091206001810180546001600160a01b0319166001600160a01b038716179055600281018490558251614a1a92600390920191840190614f01565b50600086815260ce6020908152604080832088845290915290819020600401805460ff19166001179055517fd8a8eccd539765905df336ff4c3dea59261278d3c359ccf40f1dddd1fa2a5a8290614a7c90889088908890889088908890615a6b565b60405180910390a1505050505050565b600061482b8284615c08565b60008054610100900460ff1615614adf578160ff166001148015614abb5750303b155b614ad75760405162461bcd60e51b8152600401610abd90615958565b506000610869565b60005460ff808416911610614b065760405162461bcd60e51b8152600401610abd90615958565b506000805460ff191660ff83161790556001610869565b600054610100900460ff166117045760405162461bcd60e51b8152600401610abd906159f8565b600054610100900460ff16614b6b5760405162461bcd60e51b8152600401610abd906159f8565b6097805460ff19169055565b614b818282612ae2565b6108bc5760008281526065602090815260408083206001600160a01b03851684529091529020805460ff19166001179055614bb93390565b6001600160a01b0316816001600160a01b0316837f2f8788117e7eff1d82e926ec794901d17c78024a50270940304540a733656f0d60405160405180910390a45050565b614c078133614c7d565b50565b614c148282612ae2565b156108bc5760008281526065602090815260408083206001600160a01b0385168085529252808320805460ff1916905551339285917ff6391f5c32d9c69d2a47ea670b442974b53935d1edc7fd64eb21e047a839171b9190a45050565b600061482b8284615c47565b614c878282612ae2565b6108bc57614c9f816001600160a01b03166014614ce1565b614caa836020614ce1565b604051602001614cbb929190615835565b60408051601f198184030181529082905262461bcd60e51b8252610abd916004016158aa565b60606000614cf0836002615c28565b614cfb906002615bf0565b67ffffffffffffffff811115614d2157634e487b7160e01b600052604160045260246000fd5b6040519080825280601f01601f191660200182016040528015614d4b576020820181803683370190505b509050600360fc1b81600081518110614d7457634e487b7160e01b600052603260045260246000fd5b60200101906001600160f81b031916908160001a905350600f60fb1b81600181518110614db157634e487b7160e01b600052603260045260246000fd5b60200101906001600160f81b031916908160001a9053506000614dd5846002615c28565b614de0906001615bf0565b90505b6001811115614e74576f181899199a1a9b1b9c1cb0b131b232b360811b85600f1660108110614e2257634e487b7160e01b600052603260045260246000fd5b1a60f81b828281518110614e4657634e487b7160e01b600052603260045260246000fd5b60200101906001600160f81b031916908160001a90535060049490941c93614e6d81615c8e565b9050614de3565b50831561482b5760405162461bcd60e51b815260206004820181905260248201527f537472696e67733a20686578206c656e67746820696e73756666696369656e746044820152606401610abd565b8260038101928215614ef1579160200282015b82811115614ef1578251825591602001919060010190614ed6565b50614efd929150615068565b5090565b828054828255906000526020600020908101928215614ef15791602002820182811115614ef1578251825591602001919060010190614ed6565b828054614f4790615ca5565b90600052602060002090601f016020900481019282614f695760008555614ef1565b82601f10614f7a5780548555614ef1565b82800160010185558215614ef157600052602060002091601f016020900482015b82811115614ef1578254825591600101919060010190614f9b565b828054614fc290615ca5565b90600052602060002090601f016020900481019282614fe45760008555614ef1565b82601f10614ffd57805160ff1916838001178555614ef1565b82800160010185558215614ef15791820182811115614ef1578251825591602001919060010190614ed6565b828054828255906000526020600020908101928215614ef157600052602060002091820182811115614ef1578254825591600101919060010190614f9b565b5b80821115614efd5760008155600101615069565b600082601f83011261508d578081fd5b813560206150a261509d83615bcc565b615b9b565b82815281810190858301838502870184018810156150be578586fd5b855b858110156150e55781356150d381615d27565b845292840192908401906001016150c0565b5090979650505050505050565b600082601f830112615102578081fd5b8135602061511261509d83615bcc565b82815281810190858301855b858110156150e557615135898684358b010161519c565b8452928401929084019060010161511e565b600082601f830112615157578081fd5b8135602061516761509d83615bcc565b82815281810190858301855b858110156150e55761518a898684358b0101615260565b84529284019290840190600101615173565b600082601f8301126151ac578081fd5b813560206151bc61509d83615bcc565b82815281810190858301838502870184018810156151d8578586fd5b855b858110156150e5578135845292840192908401906001016151da565b600082601f830112615206578081fd5b8151602061521661509d83615bcc565b8281528181019085830183850287018401881015615232578586fd5b855b858110156150e557815184529284019290840190600101615234565b8051801515811461086957600080fd5b600082601f830112615270578081fd5b813567ffffffffffffffff81111561528a5761528a615d11565b61529d601f8201601f1916602001615b9b565b8181528460208386010111156152b1578283fd5b816020850160208301379081016020019190915292915050565b6000602082840312156152dc578081fd5b813561482b81615d27565b6000602082840312156152f8578081fd5b815161482b81615d27565b60008060008060006080868803121561531a578081fd5b853561532581615d27565b9450602086013561533581615d27565b935060408601359250606086013567ffffffffffffffff80821115615358578283fd5b818801915088601f83011261536b578283fd5b813581811115615379578384fd5b89602082850101111561538a578384fd5b9699959850939650602001949392505050565b600080600080600080600080610100898b0312156153b9578586fd5b88356153c481615d27565b9750602089013596506040890135955060608901356153e281615d27565b945060808901356153f281615d27565b935060a089013561540281615d27565b979a969950949793969295929450505060c08201359160e0013590565b600060208284031215615430578081fd5b813567ffffffffffffffff811115615446578182fd5b6136038482850161507d565b600060208284031215615463578081fd5b61482b82615250565b60006020828403121561547d578081fd5b5035919050565b60008060408385031215615496578182fd5b8235915060208301356154a881615d27565b809150509250929050565b6000602082840312156154c4578081fd5b81356001600160e01b03198116811461482b578182fd5b6000602082840312156154ec578081fd5b5051919050565b60008060008060008060c0878903121561550b578384fd5b86359550602087013567ffffffffffffffff80821115615529578586fd5b6155358a838b0161519c565b9650604089013591508082111561554a578586fd5b6155568a838b01615147565b9550606089013591508082111561556b578384fd5b6155778a838b0161507d565b9450608089013591508082111561558c578384fd5b6155988a838b0161519c565b935060a08901359150808211156155ad578283fd5b506155ba89828a016150f2565b9150509295509295509295565b600080600080600080600080610100898b0312156155e3578182fd5b885197506155f360208a01615250565b96506040890151955061560860608a01615250565b9450608089015167ffffffffffffffff80821115615624578384fd5b6156308c838d016151f6565b955060a08b0151915080821115615645578384fd5b506156528b828c016151f6565b60c08b015160e0909b0151999c989b509699959894979350505050565b60008060408385031215615681578182fd5b50508035926020909101359150565b6000806000606084860312156156a4578081fd5b833592506020840135915060408401356156bd81615d27565b809150509250925092565b6000806000606084860312156156dc578081fd5b8335925060208401359150604084013567ffffffffffffffff811115615700578182fd5b61570c8682870161519c565b9150509250925092565b60008060006060848603121561572a578081fd5b8335925060208401359150604084013567ffffffffffffffff81111561574e578182fd5b61570c86828701615260565b60008060008060008060c08789031215615772578384fd5b8635955060208701359450604087013567ffffffffffffffff80821115615797578586fd5b6157a38a838b01615260565b9550606089013591506157b582615d27565b9093506080880135925060a088013590808211156157d1578283fd5b506155ba89828a0161519c565b6000806000606084860312156157f2578081fd5b505081359360208301359350604090920135919050565b60008151808452615821816020860160208601615c5e565b601f01601f19169290920160200192915050565b60007f416363657373436f6e74726f6c3a206163636f756e74200000000000000000008252835161586d816017850160208801615c5e565b7001034b99036b4b9b9b4b733903937b6329607d1b601791840191820152835161589e816028840160208801615c5e565b01602801949350505050565b60006020825261482b6020830184615809565b6000608082526158d06080830187615809565b6001600160a01b039590951660208301525060408101929092521515606090910152919050565b60208082526010908201526f14185d5cd8589b194e881c185d5cd95960821b604082015260600190565b6020808252601e908201527f53656e646572206e6f7420746865206f776e6572206f66204e46542069640000604082015260600190565b6020808252602e908201527f496e697469616c697a61626c653a20636f6e747261637420697320616c72656160408201526d191e481a5b9a5d1a585b1a5e995960921b606082015260800190565b60208082526032908201527f42616c616e63652061646465642073686f756c6420626520656e6f7567682077604082015271697468204d494e5f54494d455f46554e445360701b606082015260800190565b6020808252602b908201527f496e697469616c697a61626c653a20636f6e7472616374206973206e6f74206960408201526a6e697469616c697a696e6760a81b606082015260800190565b600084825283602083015260606040830152615a626060830184615809565b95945050505050565b60008782526020878184015260c06040840152615a8b60c0840188615809565b6001600160a01b03871660608501526080840186905283810360a0850152845180825282860191830190845b81811015615ad357835183529284019291840191600101615ab7565b50909b9a5050505050505050505050565b6000848252602084818401526060604084015281845483600282049050600180831680615b1257607f831692505b858310811415615b3057634e487b7160e01b87526022600452602487fd5b6060880183905260808801818015615b4f5760018114615b6057615b8a565b60ff19861682528782019650615b8a565b60008b815260209020895b86811015615b8457815484820152908501908901615b6b565b83019750505b50949b9a5050505050505050505050565b604051601f8201601f1916810167ffffffffffffffff81118282101715615bc457615bc4615d11565b604052919050565b600067ffffffffffffffff821115615be657615be6615d11565b5060209081020190565b60008219821115615c0357615c03615cfb565b500190565b600082615c2357634e487b7160e01b81526012600452602481fd5b500490565b6000816000190483118215151615615c4257615c42615cfb565b500290565b600082821015615c5957615c59615cfb565b500390565b60005b83811015615c79578181015183820152602001615c61565b83811115615c88576000848401525b50505050565b600081615c9d57615c9d615cfb565b506000190190565b600281046001821680615cb957607f821691505b60208210811415615cda57634e487b7160e01b600052602260045260246000fd5b50919050565b6000600019821415615cf457615cf4615cfb565b5060010190565b634e487b7160e01b600052601160045260246000fd5b634e487b7160e01b600052604160045260246000fd5b6001600160a01b0381168114614c0757600080fdfea26469706673582212205fc79b6b94b8b1582e95f745b39f46ddcead4691964c391885d9bc8a1af90fec64736f6c63430008020033",
  "linkReferences": {},
  "deployedLinkReferences": {}
}