{
  "_format": "hh-sol-artifact-1",
  "contractName": "TestERC20",
  "sourceName": "contracts/TestERC20.sol",
  "abi": [
    {
      "anonymous": false,
      "inputs": [
        {
          "indexed": true,
          "internalType": "address",
          "name": "owner",
          "type": "address"
        },
        {
          "indexed": true,
          "internalType": "address",
          "name": "spender",
          "type": "address"
        },
        {
          "indexed": false,
          "internalType": "uint256",
          "name": "value",
          "type": "uint256"
        }
      ],
      "name": "Approval",
      "type": "event"
    },
    {
      "anonymous": false,
      "inputs": [
        {
          "indexed": false,
          "internalType": "uint8",
          "name": "version",
          "type": "uint8"
        }
      ],
      "name": "Initialized",
      "type": "event"
    },
    {
      "anonymous": false,
      "inputs": [
        {
          "indexed": true,
          "internalType": "address",
          "name": "from",
          "type": "address"
        },
        {
          "indexed": true,
          "internalType": "address",
          "name": "to",
          "type": "address"
        },
        {
          "indexed": false,
          "internalType": "uint256",
          "name": "value",
          "type": "uint256"
        }
      ],
      "name": "Transfer",
      "type": "event"
    },
    {
      "inputs": [
        {
          "internalType": "address",
          "name": "owner",
          "type": "address"
        },
        {
          "internalType": "address",
          "name": "spender",
          "type": "address"
        }
      ],
      "name": "allowance",
      "outputs": [
        {
          "internalType": "uint256",
          "name": "",
          "type": "uint256"
        }
      ],
      "stateMutability": "view",
      "type": "function"
    },
    {
      "inputs": [
        {
          "internalType": "address",
          "name": "spender",
          "type": "address"
        },
        {
          "internalType": "uint256",
          "name": "amount",
          "type": "uint256"
        }
      ],
      "name": "approve",
      "outputs": [
        {
          "internalType": "bool",
          "name": "",
          "type": "bool"
        }
      ],
      "stateMutability": "nonpayable",
      "type": "function"
    },
    {
      "inputs": [
        {
          "internalType": "address",
          "name": "account",
          "type": "address"
        }
      ],
      "name": "balanceOf",
      "outputs": [
        {
          "internalType": "uint256",
          "name": "",
          "type": "uint256"
        }
      ],
      "stateMutability": "view",
      "type": "function"
    },
    {
      "inputs": [],
      "name": "decimals",
      "outputs": [
        {
          "internalType": "uint8",
          "name": "",
          "type": "uint8"
        }
      ],
      "stateMutability": "view",
      "type": "function"
    },
    {
      "inputs": [
        {
          "internalType": "address",
          "name": "spender",
          "type": "address"
        },
        {
          "internalType": "uint256",
          "name": "subtractedValue",
          "type": "uint256"
        }
      ],
      "name": "decreaseAllowance",
      "outputs": [
        {
          "internalType": "bool",
          "name": "",
          "type": "bool"
        }
      ],
      "stateMutability": "nonpayable",
      "type": "function"
    },
    {
      "inputs": [
        {
          "internalType": "address",
          "name": "spender",
          "type": "address"
        },
        {
          "internalType": "uint256",
          "name": "addedValue",
          "type": "uint256"
        }
      ],
      "name": "increaseAllowance",
      "outputs": [
        {
          "internalType": "bool",
          "name": "",
          "type": "bool"
        }
      ],
      "stateMutability": "nonpayable",
      "type": "function"
    },
    {
      "inputs": [],
      "name": "initialize",
      "outputs": [],
      "stateMutability": "nonpayable",
      "type": "function"
    },
    {
      "inputs": [],
      "name": "name",
      "outputs": [
        {
          "internalType": "string",
          "name": "",
          "type": "string"
        }
      ],
      "stateMutability": "view",
      "type": "function"
    },
    {
      "inputs": [],
      "name": "symbol",
      "outputs": [
        {
          "internalType": "string",
          "name": "",
          "type": "string"
        }
      ],
      "stateMutability": "view",
      "type": "function"
    },
    {
      "inputs": [],
      "name": "totalSupply",
      "outputs": [
        {
          "internalType": "uint256",
          "name": "",
          "type": "uint256"
        }
      ],
      "stateMutability": "view",
      "type": "function"
    },
    {
      "inputs": [
        {
          "internalType": "address",
          "name": "to",
          "type": "address"
        },
        {
          "internalType": "uint256",
          "name": "amount",
          "type": "uint256"
        }
      ],
      "name": "transfer",
      "outputs": [
        {
          "internalType": "bool",
          "name": "",
          "type": "bool"
        }
      ],
      "stateMutability": "nonpayable",
      "type": "function"
    },
    {
      "inputs": [
        {
          "internalType": "address",
          "name": "from",
          "type": "address"
        },
        {
          "internalType": "address",
          "name": "to",
          "type": "address"
        },
        {
          "internalType": "uint256",
          "name": "amount",
          "type": "uint256"
        }
      ],
      "name": "transferFrom",
      "outputs": [
        {
          "internalType": "bool",
          "name": "",
          "type": "bool"
        }
      ],
      "stateMutability": "nonpayable",
      "type": "function"
    }
  ],
  "bytecode": "0x608060405234801561001057600080fd5b50610c47806100206000396000f3fe608060405234801561001057600080fd5b50600436106100b45760003560e01c806370a082311161007157806370a08231146101415780638129fc1c1461015457806395d89b411461015e578063a457c2d714610166578063a9059cbb14610179578063dd62ed3e1461018c576100b4565b806306fdde03146100b9578063095ea7b3146100d757806318160ddd146100fa57806323b872dd1461010c578063313ce5671461011f578063395093511461012e575b600080fd5b6100c161019f565b6040516100ce9190610b11565b60405180910390f35b6100ea6100e5366004610ae8565b610231565b60405190151581526020016100ce565b6035545b6040519081526020016100ce565b6100ea61011a366004610aad565b610249565b604051601281526020016100ce565b6100ea61013c366004610ae8565b61026d565b6100fe61014f366004610a5a565b61028f565b61015c6102ae565b005b6100c161037b565b6100ea610174366004610ae8565b61038a565b6100ea610187366004610ae8565b61040a565b6100fe61019a366004610a7b565b610418565b6060603680546101ae90610bd6565b80601f01602080910402602001604051908101604052809291908181526020018280546101da90610bd6565b80156102275780601f106101fc57610100808354040283529160200191610227565b820191906000526020600020905b81548152906001019060200180831161020a57829003601f168201915b5050505050905090565b60003361023f818585610443565b5060019392505050565b600033610257858285610567565b6102628585856105e1565b506001949350505050565b60003361023f8185856102808383610418565b61028a9190610bb2565b610443565b6001600160a01b0381166000908152603360205260409020545b919050565b60006102ba60016107af565b905080156102d2576000805461ff0019166101001790555b61031b6040518060400160405280600981526020016805465737445524332360bc1b8152506040518060400160405280600681526020016505445524332360d41b815250610834565b610332336c01431e0fae6d7217caa00000006108cb565b8015610378576000805461ff0019169055604051600181527f7f26b83ff96e1f2b6a682f133852f6798a09c465da95921460cefb38474024989060200160405180910390a15b50565b6060603780546101ae90610bd6565b600033816103988286610418565b9050838110156103fd5760405162461bcd60e51b815260206004820152602560248201527f45524332303a2064656372656173656420616c6c6f77616e63652062656c6f77604482015264207a65726f60d81b60648201526084015b60405180910390fd5b6102628286868403610443565b60003361023f8185856105e1565b6001600160a01b03918216600090815260346020908152604080832093909416825291909152205490565b6001600160a01b0383166104a55760405162461bcd60e51b8152602060048201526024808201527f45524332303a20617070726f76652066726f6d20746865207a65726f206164646044820152637265737360e01b60648201526084016103f4565b6001600160a01b0382166105065760405162461bcd60e51b815260206004820152602260248201527f45524332303a20617070726f766520746f20746865207a65726f206164647265604482015261737360f01b60648201526084016103f4565b6001600160a01b0383811660008181526034602090815260408083209487168084529482529182902085905590518481527f8c5be1e5ebec7d5bd14f71427d1e84f3dd0314c0f7b2291e5b200ac8c7c3b925910160405180910390a3505050565b60006105738484610418565b905060001981146105db57818110156105ce5760405162461bcd60e51b815260206004820152601d60248201527f45524332303a20696e73756666696369656e7420616c6c6f77616e636500000060448201526064016103f4565b6105db8484848403610443565b50505050565b6001600160a01b0383166106455760405162461bcd60e51b815260206004820152602560248201527f45524332303a207472616e736665722066726f6d20746865207a65726f206164604482015264647265737360d81b60648201526084016103f4565b6001600160a01b0382166106a75760405162461bcd60e51b815260206004820152602360248201527f45524332303a207472616e7366657220746f20746865207a65726f206164647260448201526265737360e81b60648201526084016103f4565b6001600160a01b0383166000908152603360205260409020548181101561071f5760405162461bcd60e51b815260206004820152602660248201527f45524332303a207472616e7366657220616d6f756e7420657863656564732062604482015265616c616e636560d01b60648201526084016103f4565b6001600160a01b03808516600090815260336020526040808220858503905591851681529081208054849290610756908490610bb2565b92505081905550826001600160a01b0316846001600160a01b03167fddf252ad1be2c89b69c2b068fc378daa952ba7f163c4a11628f55a4df523b3ef846040516107a291815260200190565b60405180910390a36105db565b60008054610100900460ff16156107f6578160ff1660011480156107d25750303b155b6107ee5760405162461bcd60e51b81526004016103f490610b64565b5060006102a9565b60005460ff80841691161061081d5760405162461bcd60e51b81526004016103f490610b64565b506000805460ff191660ff831617905560016102a9565b600054610100900460ff1661089f5760405162461bcd60e51b815260206004820152602b60248201527f496e697469616c697a61626c653a20636f6e7472616374206973206e6f74206960448201526a6e697469616c697a696e6760a81b60648201526084016103f4565b81516108b29060369060208501906109aa565b5080516108c69060379060208401906109aa565b505050565b6001600160a01b0382166109215760405162461bcd60e51b815260206004820152601f60248201527f45524332303a206d696e7420746f20746865207a65726f20616464726573730060448201526064016103f4565b80603560008282546109339190610bb2565b90915550506001600160a01b03821660009081526033602052604081208054839290610960908490610bb2565b90915550506040518181526001600160a01b038316906000907fddf252ad1be2c89b69c2b068fc378daa952ba7f163c4a11628f55a4df523b3ef9060200160405180910390a35050565b8280546109b690610bd6565b90600052602060002090601f0160209004810192826109d85760008555610a1e565b82601f106109f157805160ff1916838001178555610a1e565b82800160010185558215610a1e579182015b82811115610a1e578251825591602001919060010190610a03565b50610a2a929150610a2e565b5090565b5b80821115610a2a5760008155600101610a2f565b80356001600160a01b03811681146102a957600080fd5b600060208284031215610a6b578081fd5b610a7482610a43565b9392505050565b60008060408385031215610a8d578081fd5b610a9683610a43565b9150610aa460208401610a43565b90509250929050565b600080600060608486031215610ac1578081fd5b610aca84610a43565b9250610ad860208501610a43565b9150604084013590509250925092565b60008060408385031215610afa578182fd5b610b0383610a43565b946020939093013593505050565b6000602080835283518082850152825b81811015610b3d57858101830151858201604001528201610b21565b81811115610b4e5783604083870101525b50601f01601f1916929092016040019392505050565b6020808252602e908201527f496e697469616c697a61626c653a20636f6e747261637420697320616c72656160408201526d191e481a5b9a5d1a585b1a5e995960921b606082015260800190565b60008219821115610bd157634e487b7160e01b81526011600452602481fd5b500190565b600281046001821680610bea57607f821691505b60208210811415610c0b57634e487b7160e01b600052602260045260246000fd5b5091905056fea26469706673582212202cd4cc91595e2dd8f6f9568ee501b9e52d3c73097f9adaaf40db48e2256aa4c564736f6c63430008020033",
  "linkReferences": {},
  "deployedLinkReferences": {}
}