{
  "_format": "hh-sol-artifact-1",
  "contractName": "ContractBasedDeployment",
  "sourceName": "contracts/ContractBasedDeployment.sol",
  "abi": [
    {
      "anonymous": false,
      "inputs": [
        {
          "indexed": true,
          "internalType": "string",
          "name": "appName",
          "type": "string"
        }
      ],
      "name": "EntryDeleted",
      "type": "event"
    },
    {
      "anonymous": false,
      "inputs": [
        {
          "indexed": true,
          "internalType": "string",
          "name": "appName",
          "type": "string"
        },
        {
          "indexed": false,
          "internalType": "bytes32",
          "name": "digest",
          "type": "bytes32"
        },
        {
          "indexed": false,
          "internalType": "uint8",
          "name": "hashFunction",
          "type": "uint8"
        },
        {
          "indexed": false,
          "internalType": "uint8",
          "name": "size",
          "type": "uint8"
        }
      ],
      "name": "EntrySet",
      "type": "event"
    },
    {
      "anonymous": false,
      "inputs": [
        {
          "indexed": false,
          "internalType": "uint8",
          "name": "version",
          "type": "uint8"
        }
      ],
      "name": "Initialized",
      "type": "event"
    },
    {
      "inputs": [],
      "name": "CONTRACT_BASED_DEPLOYER",
      "outputs": [
        {
          "internalType": "bytes32",
          "name": "",
          "type": "bytes32"
        }
      ],
      "stateMutability": "view",
      "type": "function"
    },
    {
      "inputs": [],
      "name": "RoleControl",
      "outputs": [
        {
          "internalType": "contract IRoleControl",
          "name": "",
          "type": "address"
        }
      ],
      "stateMutability": "view",
      "type": "function"
    },
    {
      "inputs": [
        {
          "internalType": "string",
          "name": "appName",
          "type": "string"
        },
        {
          "internalType": "bytes32",
          "name": "_digest",
          "type": "bytes32"
        },
        {
          "internalType": "uint8",
          "name": "_hashFunction",
          "type": "uint8"
        },
        {
          "internalType": "uint8",
          "name": "_size",
          "type": "uint8"
        }
      ],
      "name": "createData",
      "outputs": [],
      "stateMutability": "nonpayable",
      "type": "function"
    },
    {
      "inputs": [
        {
          "internalType": "string",
          "name": "appName",
          "type": "string"
        }
      ],
      "name": "deleteData",
      "outputs": [],
      "stateMutability": "nonpayable",
      "type": "function"
    },
    {
      "inputs": [
        {
          "internalType": "string",
          "name": "appName",
          "type": "string"
        }
      ],
      "name": "getData",
      "outputs": [
        {
          "internalType": "bytes32",
          "name": "digest",
          "type": "bytes32"
        },
        {
          "internalType": "uint8",
          "name": "hashfunction",
          "type": "uint8"
        },
        {
          "internalType": "uint8",
          "name": "size",
          "type": "uint8"
        }
      ],
      "stateMutability": "view",
      "type": "function"
    },
    {
      "inputs": [],
      "name": "getNFTAddress",
      "outputs": [
        {
          "internalType": "address",
          "name": "",
          "type": "address"
        }
      ],
      "stateMutability": "view",
      "type": "function"
    },
    {
      "inputs": [],
      "name": "getNFTId",
      "outputs": [
        {
          "internalType": "uint256",
          "name": "",
          "type": "uint256"
        }
      ],
      "stateMutability": "view",
      "type": "function"
    },
    {
      "inputs": [
        {
          "internalType": "contract IRoleControl",
          "name": "_RoleControl",
          "type": "address"
        }
      ],
      "name": "initialize",
      "outputs": [],
      "stateMutability": "nonpayable",
      "type": "function"
    },
    {
      "inputs": [
        {
          "internalType": "string",
          "name": "appName",
          "type": "string"
        },
        {
          "internalType": "bytes32",
          "name": "_digest",
          "type": "bytes32"
        },
        {
          "internalType": "uint8",
          "name": "_hashFunction",
          "type": "uint8"
        },
        {
          "internalType": "uint8",
          "name": "_size",
          "type": "uint8"
        }
      ],
      "name": "updateData",
      "outputs": [],
      "stateMutability": "nonpayable",
      "type": "function"
    }
  ],
  "bytecode": "0x608060405234801561001057600080fd5b50610b7c806100206000396000f3fe608060405234801561001057600080fd5b50600436106100935760003560e01c8063a2c7fc5411610066578063a2c7fc5414610119578063ae55c88814610121578063b2a6b01b14610153578063b961847814610166578063c4d66de81461016e57610093565b80630b5e96381461009857806338a097a3146100ad5780638a74ec3a146100e35780639295cd1f14610106575b600080fd5b6100ab6100a6366004610996565b610181565b005b6000546100c6906201000090046001600160a01b031681565b6040516001600160a01b0390911681526020015b60405180910390f35b6100f8600080516020610b2783398151915281565b6040519081526020016100da565b6100ab61011436600461095b565b61036d565b6100f86104e8565b61013461012f36600461095b565b610574565b6040805193845260ff92831660208501529116908201526060016100da565b6100ab610161366004610996565b6105bc565b6100c66106c7565b6100ab61017c36600461093f565b61074e565b600054604051632474521560e21b8152600080516020610b278339815191526004820152336024820152620100009091046001600160a01b0316906391d148549060440160206040518083038186803b1580156101dd57600080fd5b505afa1580156101f1573d6000803e3d6000fd5b505050506040513d601f19601f82011682018060405250810190610215919061091f565b61023a5760405162461bcd60e51b815260040161023190610a9b565b60405180910390fd5b60018460405161024a9190610a14565b908152604051908190036020019020546102985760405162461bcd60e51b815260206004820152600f60248201526e416c7265616479206e6f206461746160881b6044820152606401610231565b6040805160608101825284815260ff8085166020830152831681830152905181906001906102c7908890610a14565b9081526040805160209281900383018120845181559284015160019093018054949092015160ff1990941660ff9384161761ff00191661010093909416929092029290921790915561031a908690610a14565b6040805191829003822086835260ff8681166020850152851683830152905190917fa2fb73e344b37911d27f7350dd1523e5e78f2a017b6f1dbbadb2d7c5695843bc919081900360600190a25050505050565b600054604051632474521560e21b8152600080516020610b278339815191526004820152336024820152620100009091046001600160a01b0316906391d148549060440160206040518083038186803b1580156103c957600080fd5b505afa1580156103dd573d6000803e3d6000fd5b505050506040513d601f19601f82011682018060405250810190610401919061091f565b61041d5760405162461bcd60e51b815260040161023190610a9b565b60018160405161042d9190610a14565b9081526040519081900360200190205461047b5760405162461bcd60e51b815260206004820152600f60248201526e416c7265616479206e6f206461746160881b6044820152606401610231565b60018160405161048b9190610a14565b90815260405190819003602001812060008155600101805461ffff191690556104b5908290610a14565b604051908190038120907fbe6e0faeeb04e5a8d86ebf94c1eee227a9616903e2cb8efd970b3c0bc20c2aac90600090a250565b60008060029054906101000a90046001600160a01b03166001600160a01b031663e1617b296040518163ffffffff1660e01b815260040160206040518083038186803b15801561053757600080fd5b505afa15801561054b573d6000803e3d6000fd5b505050506040513d601f19601f8201168201806040525081019061056f91906109fc565b905090565b60008060008060018560405161058a9190610a14565b908152604051908190036020019020805460019091015490945060ff8082169450610100909104169150509193909250565b600054604051632474521560e21b8152600080516020610b278339815191526004820152336024820152620100009091046001600160a01b0316906391d148549060440160206040518083038186803b15801561061857600080fd5b505afa15801561062c573d6000803e3d6000fd5b505050506040513d601f19601f82011682018060405250810190610650919061091f565b61066c5760405162461bcd60e51b815260040161023190610a9b565b60018460405161067c9190610a14565b90815260405190819003602001902054156102985760405162461bcd60e51b815260206004820152600b60248201526a105b1c9958591e481cd95d60aa1b6044820152606401610231565b60008060029054906101000a90046001600160a01b03166001600160a01b031663f66d544b6040518163ffffffff1660e01b815260040160206040518083038186803b15801561071657600080fd5b505afa15801561072a573d6000803e3d6000fd5b505050506040513d601f19601f8201168201806040525081019061056f91906108fc565b600061075a60016107de565b90508015610772576000805461ff0019166101001790555b6000805462010000600160b01b031916620100006001600160a01b0385160217905580156107da576000805461ff0019169055604051600181527f7f26b83ff96e1f2b6a682f133852f6798a09c465da95921460cefb38474024989060200160405180910390a15b5050565b60008054610100900460ff1615610825578160ff1660011480156108015750303b155b61081d5760405162461bcd60e51b815260040161023190610a4d565b50600061085f565b60005460ff80841691161061084c5760405162461bcd60e51b815260040161023190610a4d565b506000805460ff191660ff831617905560015b919050565b600082601f830112610874578081fd5b813567ffffffffffffffff8082111561088f5761088f610af8565b604051601f8301601f19908116603f011681019082821181831017156108b7576108b7610af8565b816040528381528660208588010111156108cf578485fd5b8360208701602083013792830160200193909352509392505050565b803560ff8116811461085f57600080fd5b60006020828403121561090d578081fd5b815161091881610b0e565b9392505050565b600060208284031215610930578081fd5b81518015158114610918578182fd5b600060208284031215610950578081fd5b813561091881610b0e565b60006020828403121561096c578081fd5b813567ffffffffffffffff811115610982578182fd5b61098e84828501610864565b949350505050565b600080600080608085870312156109ab578283fd5b843567ffffffffffffffff8111156109c1578384fd5b6109cd87828801610864565b945050602085013592506109e3604086016108eb565b91506109f1606086016108eb565b905092959194509250565b600060208284031215610a0d578081fd5b5051919050565b60008251815b81811015610a345760208186018101518583015201610a1a565b81811115610a425782828501525b509190910192915050565b6020808252602e908201527f496e697469616c697a61626c653a20636f6e747261637420697320616c72656160408201526d191e481a5b9a5d1a585b1a5e995960921b606082015260800190565b6020808252603b908201527f434f4e54524143545f42415345445f4445504c4f594552207065726d6973736960408201527f6f6e206e6f7420746865726520696e20526f6c65436f6e74726f6c0000000000606082015260800190565b634e487b7160e01b600052604160045260246000fd5b6001600160a01b0381168114610b2357600080fd5b5056fe623badb9039dbbd5d587be00d11d7c8156609448b61d5432194584599d5524d9a26469706673582212206b6216c4e459f45d8b5914529f762eb209998f44b7b122647ecb00e5e1b984c764736f6c63430008020033",
  "linkReferences": {},
  "deployedLinkReferences": {}
}