{
  "_format": "hh-sol-artifact-1",
  "contractName": "ContractBasedDeployment",
  "sourceName": "contracts/ContractBasedDeployment.sol",
  "abi": [
    {
      "anonymous": false,
      "inputs": [
        {
          "indexed": true,
          "internalType": "string",
          "name": "appName",
          "type": "string"
        }
      ],
      "name": "EntryDeleted",
      "type": "event"
    },
    {
      "anonymous": false,
      "inputs": [
        {
          "indexed": true,
          "internalType": "string",
          "name": "appName",
          "type": "string"
        },
        {
          "indexed": false,
          "internalType": "bytes32",
          "name": "digest",
          "type": "bytes32"
        },
        {
          "indexed": false,
          "internalType": "uint8",
          "name": "hashFunction",
          "type": "uint8"
        },
        {
          "indexed": false,
          "internalType": "uint8",
          "name": "size",
          "type": "uint8"
        },
        {
          "indexed": false,
          "internalType": "uint256[]",
          "name": "resourceArray",
          "type": "uint256[]"
        }
      ],
      "name": "EntrySet",
      "type": "event"
    },
    {
      "anonymous": false,
      "inputs": [
        {
          "indexed": false,
          "internalType": "uint8",
          "name": "version",
          "type": "uint8"
        }
      ],
      "name": "Initialized",
      "type": "event"
    },
    {
      "inputs": [],
      "name": "CONTRACT_BASED_DEPLOYER",
      "outputs": [
        {
          "internalType": "bytes32",
          "name": "",
          "type": "bytes32"
        }
      ],
      "stateMutability": "view",
      "type": "function"
    },
    {
      "inputs": [],
      "name": "ListenerContract",
      "outputs": [
        {
          "internalType": "contract IListener",
          "name": "",
          "type": "address"
        }
      ],
      "stateMutability": "view",
      "type": "function"
    },
    {
      "inputs": [],
      "name": "RoleControl",
      "outputs": [
        {
          "internalType": "contract IRoleControl",
          "name": "",
          "type": "address"
        }
      ],
      "stateMutability": "view",
      "type": "function"
    },
    {
      "inputs": [
        {
          "internalType": "string",
          "name": "appName",
          "type": "string"
        },
        {
          "internalType": "bytes32",
          "name": "_digest",
          "type": "bytes32"
        },
        {
          "internalType": "uint8",
          "name": "_hashFunction",
          "type": "uint8"
        },
        {
          "internalType": "uint8",
          "name": "_size",
          "type": "uint8"
        },
        {
          "internalType": "uint256[]",
          "name": "_resourceArray",
          "type": "uint256[]"
        }
      ],
      "name": "createData",
      "outputs": [],
      "stateMutability": "nonpayable",
      "type": "function"
    },
    {
      "inputs": [
        {
          "internalType": "string",
          "name": "appName",
          "type": "string"
        }
      ],
      "name": "deleteData",
      "outputs": [],
      "stateMutability": "nonpayable",
      "type": "function"
    },
    {
      "inputs": [
        {
          "internalType": "string",
          "name": "appName",
          "type": "string"
        }
      ],
      "name": "getData",
      "outputs": [
        {
          "internalType": "bytes32",
          "name": "digest",
          "type": "bytes32"
        },
        {
          "internalType": "uint8",
          "name": "hashfunction",
          "type": "uint8"
        },
        {
          "internalType": "uint8",
          "name": "size",
          "type": "uint8"
        }
      ],
      "stateMutability": "view",
      "type": "function"
    },
    {
      "inputs": [
        {
          "internalType": "string",
          "name": "appName",
          "type": "string"
        }
      ],
      "name": "getFullData",
      "outputs": [
        {
          "internalType": "bytes32",
          "name": "digest",
          "type": "bytes32"
        },
        {
          "internalType": "uint8",
          "name": "hashfunction",
          "type": "uint8"
        },
        {
          "internalType": "uint8",
          "name": "size",
          "type": "uint8"
        },
        {
          "internalType": "uint256[]",
          "name": "_resourceArray",
          "type": "uint256[]"
        }
      ],
      "stateMutability": "view",
      "type": "function"
    },
    {
      "inputs": [],
      "name": "getNFTAddress",
      "outputs": [
        {
          "internalType": "address",
          "name": "",
          "type": "address"
        }
      ],
      "stateMutability": "view",
      "type": "function"
    },
    {
      "inputs": [],
      "name": "getNFTId",
      "outputs": [
        {
          "internalType": "uint256",
          "name": "",
          "type": "uint256"
        }
      ],
      "stateMutability": "view",
      "type": "function"
    },
    {
      "inputs": [
        {
          "internalType": "contract IRoleControl",
          "name": "_RoleControl",
          "type": "address"
        },
        {
          "internalType": "contract IListener",
          "name": "_ListenerContract",
          "type": "address"
        }
      ],
      "name": "initialize",
      "outputs": [],
      "stateMutability": "nonpayable",
      "type": "function"
    },
    {
      "inputs": [
        {
          "internalType": "string",
          "name": "appName",
          "type": "string"
        },
        {
          "internalType": "bytes32",
          "name": "_digest",
          "type": "bytes32"
        },
        {
          "internalType": "uint8",
          "name": "_hashFunction",
          "type": "uint8"
        },
        {
          "internalType": "uint8",
          "name": "_size",
          "type": "uint8"
        },
        {
          "internalType": "uint256[]",
          "name": "_resourceArray",
          "type": "uint256[]"
        }
      ],
      "name": "updateData",
      "outputs": [],
      "stateMutability": "nonpayable",
      "type": "function"
    }
  ],
  "bytecode": "0x608060405234801561001057600080fd5b50611321806100206000396000f3fe608060405234801561001057600080fd5b50600436106100a95760003560e01c80639a8ebe57116100715780639a8ebe57146101425780639adc555314610155578063a2c7fc5414610178578063ae55c88814610180578063b9618478146101b2578063e91dfb68146101ba576100a9565b80631efd14f9146100ae57806338a097a3146100c3578063485cc955146100f95780638a74ec3a1461010c5780639295cd1f1461012f575b600080fd5b6100c16100bc366004610e14565b6101cd565b005b6000546100dc906201000090046001600160a01b031681565b6040516001600160a01b0390911681526020015b60405180910390f35b6100c1610107366004610da1565b610472565b6101216000805160206112cc83398151915281565b6040519081526020016100f0565b6100c161013d366004610dd9565b610522565b6001546100dc906001600160a01b031681565b610168610163366004610dd9565b61074d565b6040516100f09493929190610fa3565b610121610826565b61019361018e366004610dd9565b6108b2565b6040805193845260ff92831660208501529116908201526060016100f0565b6100dc610910565b6100c16101c8366004610e14565b610997565b600054604051632474521560e21b81526000805160206112cc8339815191526004820152336024820152620100009091046001600160a01b0316906391d148549060440160206040518083038186803b15801561022957600080fd5b505afa15801561023d573d6000803e3d6000fd5b505050506040513d601f19601f820116820180604052508101906102619190610d81565b6102865760405162461bcd60e51b815260040161027d906111e2565b60405180910390fd5b6002856040516102969190610f87565b90815260405190819003602001902054156102e15760405162461bcd60e51b815260206004820152600b60248201526a105b1c9958591e481cd95d60aa1b604482015260640161027d565b6040805160608101825285815260ff808616602083015284168183015290518190600290610310908990610f87565b9081526040805160209281900383018120845181559284015160019093018054949092015160ff1990941660ff9384161761ff0019166101009390941692909202929092179091558290600390610368908990610f87565b90815260200160405180910390209080519060200190610389929190610c61565b50856040516103989190610f87565b60405180910390207f88a1b050b7c3d6af76b4d517d5e922ae21cf3a5567f8984f39789621ffb82d5e868686866040516103d59493929190610fa3565b60405180910390a260015460405163f54b6ae560e01b81526001600160a01b039091169063f54b6ae5906104179030908a908a908a908a908a90600401611026565b602060405180830381600087803b15801561043157600080fd5b505af1158015610445573d6000803e3d6000fd5b505050506040513d601f19601f820116820180604052508101906104699190610d81565b50505050505050565b600061047e6001610bdb565b90508015610496576000805461ff0019166101001790555b6000805462010000600160b01b031916620100006001600160a01b038681169190910291909117909155600180546001600160a01b031916918416919091179055801561051d576000805461ff0019169055604051600181527f7f26b83ff96e1f2b6a682f133852f6798a09c465da95921460cefb38474024989060200160405180910390a15b505050565b600054604051632474521560e21b81526000805160206112cc8339815191526004820152336024820152620100009091046001600160a01b0316906391d148549060440160206040518083038186803b15801561057e57600080fd5b505afa158015610592573d6000803e3d6000fd5b505050506040513d601f19601f820116820180604052508101906105b69190610d81565b6105d25760405162461bcd60e51b815260040161027d906111e2565b6002816040516105e29190610f87565b908152604051908190036020019020546106305760405162461bcd60e51b815260206004820152600f60248201526e416c7265616479206e6f206461746160881b604482015260640161027d565b6002816040516106409190610f87565b90815260405190819003602001812060008155600101805461ffff1916905560039061066d908390610f87565b908152602001604051809103902060006106879190610cac565b806040516106959190610f87565b604051908190038120907fbe6e0faeeb04e5a8d86ebf94c1eee227a9616903e2cb8efd970b3c0bc20c2aac90600090a2600154604051633713464360e11b81526001600160a01b0390911690636e268c86906106f790309085906004016110de565b602060405180830381600087803b15801561071157600080fd5b505af1158015610725573d6000803e3d6000fd5b505050506040513d601f19601f820116820180604052508101906107499190610d81565b5050565b6000806000606060006002866040516107669190610f87565b9081526040805160209281900383018120606082018352805480835260019091015460ff8082169584018690526101009091041682840181905292519194509291906003906107b6908b90610f87565b90815260200160405180910390208080548060200260200160405190810160405280929190818152602001828054801561080f57602002820191906000526020600020905b8154815260200190600101908083116107fb575b505050505090509450945094509450509193509193565b60008060029054906101000a90046001600160a01b03166001600160a01b031663e1617b296040518163ffffffff1660e01b815260040160206040518083038186803b15801561087557600080fd5b505afa158015610889573d6000803e3d6000fd5b505050506040513d601f19601f820116820180604052508101906108ad9190610f09565b905090565b6000806000806002856040516108c89190610f87565b9081526040805160209281900383018120606082018352805480835260019091015460ff80821695840186905261010090910416919092018190529097919650945092505050565b60008060029054906101000a90046001600160a01b03166001600160a01b031663f66d544b6040518163ffffffff1660e01b815260040160206040518083038186803b15801561095f57600080fd5b505afa158015610973573d6000803e3d6000fd5b505050506040513d601f19601f820116820180604052508101906108ad9190610d5e565b600054604051632474521560e21b81526000805160206112cc8339815191526004820152336024820152620100009091046001600160a01b0316906391d148549060440160206040518083038186803b1580156109f357600080fd5b505afa158015610a07573d6000803e3d6000fd5b505050506040513d601f19601f82011682018060405250810190610a2b9190610d81565b610a475760405162461bcd60e51b815260040161027d906111e2565b600285604051610a579190610f87565b90815260405190819003602001902054610aa55760405162461bcd60e51b815260206004820152600f60248201526e416c7265616479206e6f206461746160881b604482015260640161027d565b6040805160608101825285815260ff808616602083015284168183015290518190600290610ad4908990610f87565b9081526040805160209281900383018120845181559284015160019093018054949092015160ff1990941660ff9384161761ff0019166101009390941692909202929092179091558290600390610b2c908990610f87565b90815260200160405180910390209080519060200190610b4d929190610c61565b5085604051610b5c9190610f87565b60405180910390207f88a1b050b7c3d6af76b4d517d5e922ae21cf3a5567f8984f39789621ffb82d5e86868686604051610b999493929190610fa3565b60405180910390a260015460405163f54b6ae560e01b81526001600160a01b039091169063f54b6ae5906104179030908a908a908a908a908a90600401611163565b60008054610100900460ff1615610c22578160ff166001148015610bfe5750303b155b610c1a5760405162461bcd60e51b815260040161027d90610fd8565b506000610c5c565b60005460ff808416911610610c495760405162461bcd60e51b815260040161027d90610fd8565b506000805460ff191660ff831617905560015b919050565b828054828255906000526020600020908101928215610c9c579160200282015b82811115610c9c578251825591602001919060010190610c81565b50610ca8929150610ccd565b5090565b5080546000825590600052602060002090810190610cca9190610ccd565b50565b5b80821115610ca85760008155600101610cce565b600082601f830112610cf2578081fd5b813567ffffffffffffffff811115610d0c57610d0c6112a0565b610d1f601f8201601f191660200161123f565b818152846020838601011115610d33578283fd5b816020850160208301379081016020019190915292915050565b803560ff81168114610c5c57600080fd5b600060208284031215610d6f578081fd5b8151610d7a816112b6565b9392505050565b600060208284031215610d92578081fd5b81518015158114610d7a578182fd5b60008060408385031215610db3578081fd5b8235610dbe816112b6565b91506020830135610dce816112b6565b809150509250929050565b600060208284031215610dea578081fd5b813567ffffffffffffffff811115610e00578182fd5b610e0c84828501610ce2565b949350505050565b600080600080600060a08688031215610e2b578081fd5b853567ffffffffffffffff80821115610e42578283fd5b610e4e89838a01610ce2565b965060209150818801359550610e6660408901610d4d565b9450610e7460608901610d4d565b9350608088013581811115610e87578384fd5b8801601f81018a13610e97578384fd5b803582811115610ea957610ea96112a0565b8381029250610eb984840161123f565b8181528481019083860185850187018e1015610ed3578788fd5b8795505b83861015610ef5578035835260019590950194918601918601610ed7565b508096505050505050509295509295909350565b600060208284031215610f1a578081fd5b5051919050565b6000815180845260208085019450808401835b83811015610f5057815187529582019590820190600101610f34565b509495945050505050565b60008151808452610f73816020860160208601611270565b601f01601f19169290920160200192915050565b60008251610f99818460208701611270565b9190910192915050565b600085825260ff8516602083015260ff8416604083015260806060830152610fce6080830184610f21565b9695505050505050565b6020808252602e908201527f496e697469616c697a61626c653a20636f6e747261637420697320616c72656160408201526d191e481a5b9a5d1a585b1a5e995960921b606082015260800190565b600061010080835261105e818401601781527610dbdb9d1c9858dd10985cd95911195c1b1bde5b595b9d604a1b602082015260400190565b905060018060a01b0389166020840152828103806040850152600a8252696372656174654461746160b01b6020830152604081016060850152506110a56040820189610f5b565b905086608084015260ff861660a084015260ff851660c084015282810360e08401526110d18185610f21565b9998505050505050505050565b60006080825261111560808301601781527610dbdb9d1c9858dd10985cd95911195c1b1bde5b595b9d604a1b602082015260400190565b60018060a01b0385166020840152828103806040850152600a82526964656c6574654461746160b01b60208301526040810160608501525061115a6040820185610f5b565b95945050505050565b600061010080835261119b818401601781527610dbdb9d1c9858dd10985cd95911195c1b1bde5b595b9d604a1b602082015260400190565b905060018060a01b0389166020840152828103806040850152600a8252697570646174654461746160b01b6020830152604081016060850152506110a56040820189610f5b565b6020808252603b908201527f434f4e54524143545f42415345445f4445504c4f594552207065726d6973736960408201527f6f6e206e6f7420746865726520696e20526f6c65436f6e74726f6c0000000000606082015260800190565b604051601f8201601f1916810167ffffffffffffffff81118282101715611268576112686112a0565b604052919050565b60005b8381101561128b578181015183820152602001611273565b8381111561129a576000848401525b50505050565b634e487b7160e01b600052604160045260246000fd5b6001600160a01b0381168114610cca57600080fdfe623badb9039dbbd5d587be00d11d7c8156609448b61d5432194584599d5524d9a26469706673582212207adf9f58aa8121507e24d4e4efd98f7bb3d044a4ac33e454950971d2612a03d664736f6c63430008020033",
  "linkReferences": {},
  "deployedLinkReferences": {}
}