{
  "_format": "hh-sol-artifact-1",
  "contractName": "ContractBasedDeployment",
  "sourceName": "contracts/deprecated/ContractBasedDeployment.sol",
  "abi": [
    {
      "anonymous": false,
      "inputs": [
        {
          "indexed": true,
          "internalType": "string",
          "name": "appName",
          "type": "string"
        }
      ],
      "name": "EntryDeleted",
      "type": "event"
    },
    {
      "anonymous": false,
      "inputs": [
        {
          "indexed": true,
          "internalType": "string",
          "name": "appName",
          "type": "string"
        },
        {
          "indexed": false,
          "internalType": "bytes32",
          "name": "digest",
          "type": "bytes32"
        },
        {
          "indexed": false,
          "internalType": "uint8",
          "name": "hashFunction",
          "type": "uint8"
        },
        {
          "indexed": false,
          "internalType": "uint8",
          "name": "size",
          "type": "uint8"
        },
        {
          "indexed": false,
          "internalType": "uint256[]",
          "name": "resourceArray",
          "type": "uint256[]"
        }
      ],
      "name": "EntrySet",
      "type": "event"
    },
    {
      "anonymous": false,
      "inputs": [
        {
          "indexed": false,
          "internalType": "uint8",
          "name": "version",
          "type": "uint8"
        }
      ],
      "name": "Initialized",
      "type": "event"
    },
    {
      "inputs": [],
      "name": "CONTRACT_BASED_DEPLOYER",
      "outputs": [
        {
          "internalType": "bytes32",
          "name": "",
          "type": "bytes32"
        }
      ],
      "stateMutability": "view",
      "type": "function"
    },
    {
      "inputs": [],
      "name": "ListenerContract",
      "outputs": [
        {
          "internalType": "contract IListener",
          "name": "",
          "type": "address"
        }
      ],
      "stateMutability": "view",
      "type": "function"
    },
    {
      "inputs": [],
      "name": "RoleControl",
      "outputs": [
        {
          "internalType": "contract IRoleControl",
          "name": "",
          "type": "address"
        }
      ],
      "stateMutability": "view",
      "type": "function"
    },
    {
      "inputs": [
        {
          "internalType": "uint256",
          "name": "",
          "type": "uint256"
        }
      ],
      "name": "appIDToName",
      "outputs": [
        {
          "internalType": "string",
          "name": "",
          "type": "string"
        }
      ],
      "stateMutability": "view",
      "type": "function"
    },
    {
      "inputs": [
        {
          "internalType": "string",
          "name": "appName",
          "type": "string"
        },
        {
          "internalType": "bytes32",
          "name": "_digest",
          "type": "bytes32"
        },
        {
          "internalType": "uint8",
          "name": "_hashFunction",
          "type": "uint8"
        },
        {
          "internalType": "uint8",
          "name": "_size",
          "type": "uint8"
        },
        {
          "internalType": "uint256[]",
          "name": "_resourceArray",
          "type": "uint256[]"
        }
      ],
      "name": "createData",
      "outputs": [],
      "stateMutability": "nonpayable",
      "type": "function"
    },
    {
      "inputs": [
        {
          "internalType": "string",
          "name": "appName",
          "type": "string"
        }
      ],
      "name": "deleteData",
      "outputs": [],
      "stateMutability": "nonpayable",
      "type": "function"
    },
    {
      "inputs": [
        {
          "internalType": "string",
          "name": "appName",
          "type": "string"
        }
      ],
      "name": "getData",
      "outputs": [
        {
          "internalType": "bytes32",
          "name": "digest",
          "type": "bytes32"
        },
        {
          "internalType": "uint8",
          "name": "hashfunction",
          "type": "uint8"
        },
        {
          "internalType": "uint8",
          "name": "size",
          "type": "uint8"
        }
      ],
      "stateMutability": "view",
      "type": "function"
    },
    {
      "inputs": [],
      "name": "getDataArray",
      "outputs": [
        {
          "components": [
            {
              "internalType": "bytes32",
              "name": "digest",
              "type": "bytes32"
            },
            {
              "internalType": "uint8",
              "name": "hashFunction",
              "type": "uint8"
            },
            {
              "internalType": "uint8",
              "name": "size",
              "type": "uint8"
            }
          ],
          "internalType": "struct ContractBasedDeployment.Multihash[]",
          "name": "_entries",
          "type": "tuple[]"
        }
      ],
      "stateMutability": "view",
      "type": "function"
    },
    {
      "inputs": [
        {
          "internalType": "uint256[]",
          "name": "AppIds",
          "type": "uint256[]"
        }
      ],
      "name": "getDataByIds",
      "outputs": [
        {
          "components": [
            {
              "internalType": "bytes32",
              "name": "digest",
              "type": "bytes32"
            },
            {
              "internalType": "uint8",
              "name": "hashFunction",
              "type": "uint8"
            },
            {
              "internalType": "uint8",
              "name": "size",
              "type": "uint8"
            }
          ],
          "internalType": "struct ContractBasedDeployment.Multihash[]",
          "name": "_entries",
          "type": "tuple[]"
        }
      ],
      "stateMutability": "view",
      "type": "function"
    },
    {
      "inputs": [
        {
          "internalType": "string[]",
          "name": "_appNames",
          "type": "string[]"
        }
      ],
      "name": "getDataByNames",
      "outputs": [
        {
          "components": [
            {
              "internalType": "bytes32",
              "name": "digest",
              "type": "bytes32"
            },
            {
              "internalType": "uint8",
              "name": "hashFunction",
              "type": "uint8"
            },
            {
              "internalType": "uint8",
              "name": "size",
              "type": "uint8"
            }
          ],
          "internalType": "struct ContractBasedDeployment.Multihash[]",
          "name": "_entries",
          "type": "tuple[]"
        }
      ],
      "stateMutability": "view",
      "type": "function"
    },
    {
      "inputs": [
        {
          "internalType": "string",
          "name": "appName",
          "type": "string"
        }
      ],
      "name": "getFullData",
      "outputs": [
        {
          "internalType": "bytes32",
          "name": "digest",
          "type": "bytes32"
        },
        {
          "internalType": "uint8",
          "name": "hashfunction",
          "type": "uint8"
        },
        {
          "internalType": "uint8",
          "name": "size",
          "type": "uint8"
        },
        {
          "internalType": "uint256[]",
          "name": "_resourceArray",
          "type": "uint256[]"
        }
      ],
      "stateMutability": "view",
      "type": "function"
    },
    {
      "inputs": [],
      "name": "getNFTAddress",
      "outputs": [
        {
          "internalType": "address",
          "name": "",
          "type": "address"
        }
      ],
      "stateMutability": "view",
      "type": "function"
    },
    {
      "inputs": [],
      "name": "getNFTId",
      "outputs": [
        {
          "internalType": "uint256",
          "name": "",
          "type": "uint256"
        }
      ],
      "stateMutability": "view",
      "type": "function"
    },
    {
      "inputs": [
        {
          "internalType": "contract IRoleControl",
          "name": "_RoleControl",
          "type": "address"
        },
        {
          "internalType": "contract IListener",
          "name": "_ListenerContract",
          "type": "address"
        }
      ],
      "name": "initialize",
      "outputs": [],
      "stateMutability": "nonpayable",
      "type": "function"
    },
    {
      "inputs": [
        {
          "internalType": "string",
          "name": "appName",
          "type": "string"
        },
        {
          "internalType": "bytes32",
          "name": "_digest",
          "type": "bytes32"
        },
        {
          "internalType": "uint8",
          "name": "_hashFunction",
          "type": "uint8"
        },
        {
          "internalType": "uint8",
          "name": "_size",
          "type": "uint8"
        },
        {
          "internalType": "uint256[]",
          "name": "_resourceArray",
          "type": "uint256[]"
        }
      ],
      "name": "updateData",
      "outputs": [],
      "stateMutability": "nonpayable",
      "type": "function"
    }
  ],
  "bytecode": "0x608060405234801561001057600080fd5b506119cb806100206000396000f3fe608060405234801561001057600080fd5b50600436106100f55760003560e01c80639c37adc611610097578063ae55c88811610066578063ae55c88814610214578063b961847814610246578063c47218cd1461024e578063e91dfb6814610261576100f5565b80639c37adc6146101c4578063a170b5ac146101e4578063a2c7fc54146101f9578063ad106a9114610201576100f5565b80638a74ec3a116100d35780638a74ec3a146101585780639295cd1f1461017b5780639a8ebe571461018e5780639adc5553146101a1576100f5565b80631efd14f9146100fa57806338a097a31461010f578063485cc95514610145575b600080fd5b61010d61010836600461135f565b610274565b005b600054610128906201000090046001600160a01b031681565b6040516001600160a01b0390911681526020015b60405180910390f35b61010d6101533660046112f4565b61054d565b61016d60008051602061197683398151915281565b60405190815260200161013c565b61010d61018936600461132c565b6105ff565b600154610128906001600160a01b031681565b6101b46101af36600461132c565b61082a565b60405161013c9493929190611598565b6101d76101d23660046113eb565b610903565b60405161013c91906115cd565b6101ec61099d565b60405161013c9190611538565b61016d610a44565b6101ec61020f366004611299565b610ad0565b61022761022236600461132c565b610ba4565b6040805193845260ff928316602085015291169082015260600161013c565b610128610c02565b6101ec61025c366004611210565b610c89565b61010d61026f36600461135f565b610d4c565b600054604051632474521560e21b81526000805160206119768339815191526004820152336024820152620100009091046001600160a01b0316906391d148549060440160206040518083038186803b1580156102d057600080fd5b505afa1580156102e4573d6000803e3d6000fd5b505050506040513d601f19601f8201168201806040525081019061030891906112d4565b61032d5760405162461bcd60e51b8152600401610324906117ea565b60405180910390fd5b60028560405161033d9190611481565b90815260405190819003602001902054156103885760405162461bcd60e51b815260206004820152600b60248201526a105b1c9958591e481cd95d60aa1b6044820152606401610324565b6040805160608101825285815260ff8086166020830152841681830152905181906002906103b7908990611481565b9081526040805160209281900383018120845181559284015160019093018054949092015160ff1990941660ff9384161761ff001916610100939094169290920292909217909155829060039061040f908990611481565b90815260200160405180910390209080519060200190610430929190611015565b50600554600090815260046020908152604090912087516104539289019061105c565b5060055461046290600161189c565b600555604051610473908790611481565b60405180910390207f88a1b050b7c3d6af76b4d517d5e922ae21cf3a5567f8984f39789621ffb82d5e868686866040516104b09493929190611598565b60405180910390a260015460405163f54b6ae560e01b81526001600160a01b039091169063f54b6ae5906104f29030908a908a908a908a908a9060040161162e565b602060405180830381600087803b15801561050c57600080fd5b505af1158015610520573d6000803e3d6000fd5b505050506040513d601f19601f8201168201806040525081019061054491906112d4565b50505050505050565b60006105596001610f90565b90508015610571576000805461ff0019166101001790555b6000805462010000600160b01b031916620100006001600160a01b0386811691909102919091178255600180546001600160a01b03191691851691909117905560055580156105fa576000805461ff0019169055604051600181527f7f26b83ff96e1f2b6a682f133852f6798a09c465da95921460cefb38474024989060200160405180910390a15b505050565b600054604051632474521560e21b81526000805160206119768339815191526004820152336024820152620100009091046001600160a01b0316906391d148549060440160206040518083038186803b15801561065b57600080fd5b505afa15801561066f573d6000803e3d6000fd5b505050506040513d601f19601f8201168201806040525081019061069391906112d4565b6106af5760405162461bcd60e51b8152600401610324906117ea565b6002816040516106bf9190611481565b9081526040519081900360200190205461070d5760405162461bcd60e51b815260206004820152600f60248201526e416c7265616479206e6f206461746160881b6044820152606401610324565b60028160405161071d9190611481565b90815260405190819003602001812060008155600101805461ffff1916905560039061074a908390611481565b9081526020016040518091039020600061076491906110cf565b806040516107729190611481565b604051908190038120907fbe6e0faeeb04e5a8d86ebf94c1eee227a9616903e2cb8efd970b3c0bc20c2aac90600090a2600154604051633713464360e11b81526001600160a01b0390911690636e268c86906107d490309085906004016116e6565b602060405180830381600087803b1580156107ee57600080fd5b505af1158015610802573d6000803e3d6000fd5b505050506040513d601f19601f8201168201806040525081019061082691906112d4565b5050565b6000806000606060006002866040516108439190611481565b9081526040805160209281900383018120606082018352805480835260019091015460ff808216958401869052610100909104168284018190529251919450929190600390610893908b90611481565b9081526020016040518091039020808054806020026020016040519081016040528092919081815260200182805480156108ec57602002820191906000526020600020905b8154815260200190600101908083116108d8575b505050505090509450945094509450509193509193565b6004602052600090815260409020805461091c906118e4565b80601f0160208091040260200160405190810160405280929190818152602001828054610948906118e4565b80156109955780601f1061096a57610100808354040283529160200191610995565b820191906000526020600020905b81548152906001019060200180831161097857829003601f168201915b505050505081565b606060005b600554811015610a40576000818152600460205260409081902090516002916109ca9161149d565b908152604080519182900360209081018320606084018352805484526001015460ff80821692850192909252610100900416908201528251839083908110610a2257634e487b7160e01b600052603260045260246000fd5b60200260200101819052508080610a3890611919565b9150506109a2565b5090565b60008060029054906101000a90046001600160a01b03166001600160a01b031663e1617b296040518163ffffffff1660e01b815260040160206040518083038186803b158015610a9357600080fd5b505afa158015610aa7573d6000803e3d6000fd5b505050506040513d601f19601f82011682018060405250810190610acb9190611403565b905090565b606060005b8251811015610b9d57600260046000858481518110610b0457634e487b7160e01b600052603260045260246000fd5b60200260200101518152602001908152602001600020604051610b27919061149d565b908152604080519182900360209081018320606084018352805484526001015460ff80821692850192909252610100900416908201528251839083908110610b7f57634e487b7160e01b600052603260045260246000fd5b60200260200101819052508080610b9590611919565b915050610ad5565b505b919050565b600080600080600285604051610bba9190611481565b9081526040805160209281900383018120606082018352805480835260019091015460ff80821695840186905261010090910416919092018190529097919650945092505050565b60008060029054906101000a90046001600160a01b03166001600160a01b031663f66d544b6040518163ffffffff1660e01b815260040160206040518083038186803b158015610c5157600080fd5b505afa158015610c65573d6000803e3d6000fd5b505050506040513d601f19601f82011682018060405250810190610acb91906111ed565b606060005b8251811015610b9d5760006002848381518110610cbb57634e487b7160e01b600052603260045260246000fd5b6020026020010151604051610cd09190611481565b908152604080519182900360209081018320606084018352805484526001015460ff808216928501929092526101009004169082015283519091508190849084908110610d2d57634e487b7160e01b600052603260045260246000fd5b6020026020010181905250508080610d4490611919565b915050610c8e565b600054604051632474521560e21b81526000805160206119768339815191526004820152336024820152620100009091046001600160a01b0316906391d148549060440160206040518083038186803b158015610da857600080fd5b505afa158015610dbc573d6000803e3d6000fd5b505050506040513d601f19601f82011682018060405250810190610de091906112d4565b610dfc5760405162461bcd60e51b8152600401610324906117ea565b600285604051610e0c9190611481565b90815260405190819003602001902054610e5a5760405162461bcd60e51b815260206004820152600f60248201526e416c7265616479206e6f206461746160881b6044820152606401610324565b6040805160608101825285815260ff808616602083015284168183015290518190600290610e89908990611481565b9081526040805160209281900383018120845181559284015160019093018054949092015160ff1990941660ff9384161761ff0019166101009390941692909202929092179091558290600390610ee1908990611481565b90815260200160405180910390209080519060200190610f02929190611015565b5085604051610f119190611481565b60405180910390207f88a1b050b7c3d6af76b4d517d5e922ae21cf3a5567f8984f39789621ffb82d5e86868686604051610f4e9493929190611598565b60405180910390a260015460405163f54b6ae560e01b81526001600160a01b039091169063f54b6ae5906104f29030908a908a908a908a908a9060040161176b565b60008054610100900460ff1615610fd7578160ff166001148015610fb35750303b155b610fcf5760405162461bcd60e51b8152600401610324906115e0565b506000610b9f565b60005460ff808416911610610ffe5760405162461bcd60e51b8152600401610324906115e0565b506000805460ff191660ff83161790556001610b9f565b828054828255906000526020600020908101928215611050579160200282015b82811115611050578251825591602001919060010190611035565b50610a409291506110f0565b828054611068906118e4565b90600052602060002090601f01602090048101928261108a5760008555611050565b82601f106110a357805160ff1916838001178555611050565b828001600101855582156110505791820182811115611050578251825591602001919060010190611035565b50805460008255906000526020600020908101906110ed91906110f0565b50565b5b80821115610a4057600081556001016110f1565b600082601f830112611115578081fd5b8135602061112a61112583611878565b611847565b8281528181019085830183850287018401881015611146578586fd5b855b8581101561116457813584529284019290840190600101611148565b5090979650505050505050565b600082601f830112611181578081fd5b813567ffffffffffffffff81111561119b5761119b61194a565b6111ae601f8201601f1916602001611847565b8181528460208386010111156111c2578283fd5b816020850160208301379081016020019190915292915050565b803560ff81168114610b9f57600080fd5b6000602082840312156111fe578081fd5b815161120981611960565b9392505050565b60006020808385031215611222578182fd5b823567ffffffffffffffff811115611238578283fd5b8301601f81018513611248578283fd5b803561125661112582611878565b81815283810190838501865b8481101561128b576112798a888435890101611171565b84529286019290860190600101611262565b509098975050505050505050565b6000602082840312156112aa578081fd5b813567ffffffffffffffff8111156112c0578182fd5b6112cc84828501611105565b949350505050565b6000602082840312156112e5578081fd5b81518015158114611209578182fd5b60008060408385031215611306578081fd5b823561131181611960565b9150602083013561132181611960565b809150509250929050565b60006020828403121561133d578081fd5b813567ffffffffffffffff811115611353578182fd5b6112cc84828501611171565b600080600080600060a08688031215611376578081fd5b853567ffffffffffffffff8082111561138d578283fd5b61139989838a01611171565b9650602088013595506113ae604089016111dc565b94506113bc606089016111dc565b935060808801359150808211156113d1578283fd5b506113de88828901611105565b9150509295509295909350565b6000602082840312156113fc578081fd5b5035919050565b600060208284031215611414578081fd5b5051919050565b6000815180845260208085019450808401835b8381101561144a5781518752958201959082019060010161142e565b509495945050505050565b6000815180845261146d8160208601602086016118b4565b601f01601f19169290920160200192915050565b600082516114938184602087016118b4565b9190910192915050565b81546000908190600281046001808316806114b957607f831692505b60208084108214156114d957634e487b7160e01b87526022600452602487fd5b8180156114ed57600181146114fe5761152a565b60ff1986168952848901965061152a565b60008a815260209020885b868110156115225781548b820152908501908301611509565b505084890196505b509498975050505050505050565b602080825282518282018190526000919060409081850190868401855b8281101561158b578151805185528681015160ff9081168887015290860151168585015260609093019290850190600101611555565b5091979650505050505050565b600085825260ff8516602083015260ff84166040830152608060608301526115c3608083018461141b565b9695505050505050565b6000602082526112096020830184611455565b6020808252602e908201527f496e697469616c697a61626c653a20636f6e747261637420697320616c72656160408201526d191e481a5b9a5d1a585b1a5e995960921b606082015260800190565b6000610100808352611666818401601781527610dbdb9d1c9858dd10985cd95911195c1b1bde5b595b9d604a1b602082015260400190565b905060018060a01b0389166020840152828103806040850152600a8252696372656174654461746160b01b6020830152604081016060850152506116ad6040820189611455565b905086608084015260ff861660a084015260ff851660c084015282810360e08401526116d9818561141b565b9998505050505050505050565b60006080825261171d60808301601781527610dbdb9d1c9858dd10985cd95911195c1b1bde5b595b9d604a1b602082015260400190565b60018060a01b0385166020840152828103806040850152600a82526964656c6574654461746160b01b6020830152604081016060850152506117626040820185611455565b95945050505050565b60006101008083526117a3818401601781527610dbdb9d1c9858dd10985cd95911195c1b1bde5b595b9d604a1b602082015260400190565b905060018060a01b0389166020840152828103806040850152600a8252697570646174654461746160b01b6020830152604081016060850152506116ad6040820189611455565b6020808252603b908201527f434f4e54524143545f42415345445f4445504c4f594552207065726d6973736960408201527f6f6e206e6f7420746865726520696e20526f6c65436f6e74726f6c0000000000606082015260800190565b604051601f8201601f1916810167ffffffffffffffff811182821017156118705761187061194a565b604052919050565b600067ffffffffffffffff8211156118925761189261194a565b5060209081020190565b600082198211156118af576118af611934565b500190565b60005b838110156118cf5781810151838201526020016118b7565b838111156118de576000848401525b50505050565b6002810460018216806118f857607f821691505b60208210811415610b9d57634e487b7160e01b600052602260045260246000fd5b600060001982141561192d5761192d611934565b5060010190565b634e487b7160e01b600052601160045260246000fd5b634e487b7160e01b600052604160045260246000fd5b6001600160a01b03811681146110ed57600080fdfe623badb9039dbbd5d587be00d11d7c8156609448b61d5432194584599d5524d9a26469706673582212200e4c8683758837ef20de71d38d25c281a3cb352bf6a5ee87177489f6e90a7e0364736f6c63430008020033",
  "linkReferences": {},
  "deployedLinkReferences": {}
}