{
  "_format": "hh-sol-artifact-1",
  "contractName": "SubscriptionBalanceCalculator",
  "sourceName": "contracts/SubscriptionBalanceCalculator.sol",
  "abi": [
    {
      "anonymous": false,
      "inputs": [
        {
          "indexed": false,
          "internalType": "uint8",
          "name": "version",
          "type": "uint8"
        }
      ],
      "name": "Initialized",
      "type": "event"
    },
    {
      "anonymous": false,
      "inputs": [
        {
          "indexed": true,
          "internalType": "address",
          "name": "previousOwner",
          "type": "address"
        },
        {
          "indexed": true,
          "internalType": "address",
          "name": "newOwner",
          "type": "address"
        }
      ],
      "name": "OwnershipTransferred",
      "type": "event"
    },
    {
      "anonymous": false,
      "inputs": [
        {
          "indexed": false,
          "internalType": "address",
          "name": "benficiary",
          "type": "address"
        },
        {
          "indexed": false,
          "internalType": "uint256",
          "name": "bal",
          "type": "uint256"
        }
      ],
      "name": "ReceivedRevenue",
      "type": "event"
    },
    {
      "inputs": [],
      "name": "ApplicationNFT",
      "outputs": [
        {
          "internalType": "contract IERC721",
          "name": "",
          "type": "address"
        }
      ],
      "stateMutability": "view",
      "type": "function"
    },
    {
      "inputs": [],
      "name": "RegistrationContract",
      "outputs": [
        {
          "internalType": "contract IRegistration",
          "name": "",
          "type": "address"
        }
      ],
      "stateMutability": "view",
      "type": "function"
    },
    {
      "inputs": [],
      "name": "SubscriptionBalance",
      "outputs": [
        {
          "internalType": "contract ISubscriptionBalance",
          "name": "",
          "type": "address"
        }
      ],
      "stateMutability": "view",
      "type": "function"
    },
    {
      "inputs": [],
      "name": "SubscriptionContract",
      "outputs": [
        {
          "internalType": "contract ISubscription",
          "name": "",
          "type": "address"
        }
      ],
      "stateMutability": "view",
      "type": "function"
    },
    {
      "inputs": [],
      "name": "XCTToken",
      "outputs": [
        {
          "internalType": "contract IERC20Upgradeable",
          "name": "",
          "type": "address"
        }
      ],
      "stateMutability": "view",
      "type": "function"
    },
    {
      "inputs": [
        {
          "internalType": "address",
          "name": "",
          "type": "address"
        }
      ],
      "name": "balanceOfRev",
      "outputs": [
        {
          "internalType": "uint256",
          "name": "",
          "type": "uint256"
        }
      ],
      "stateMutability": "view",
      "type": "function"
    },
    {
      "inputs": [
        {
          "internalType": "uint256",
          "name": "nftId",
          "type": "uint256"
        },
        {
          "internalType": "uint256[]",
          "name": "subnetIds",
          "type": "uint256[]"
        },
        {
          "internalType": "uint256[3]",
          "name": "prevBalance",
          "type": "uint256[3]"
        },
        {
          "internalType": "uint256",
          "name": "lastBalanceUpdatedTime",
          "type": "uint256"
        }
      ],
      "name": "getRealtimeBalance",
      "outputs": [
        {
          "internalType": "uint256[3]",
          "name": "",
          "type": "uint256[3]"
        }
      ],
      "stateMutability": "view",
      "type": "function"
    },
    {
      "inputs": [
        {
          "internalType": "uint256",
          "name": "nftId",
          "type": "uint256"
        },
        {
          "internalType": "uint256[]",
          "name": "subnetIds",
          "type": "uint256[]"
        },
        {
          "internalType": "uint256[3]",
          "name": "prevBalance",
          "type": "uint256[3]"
        },
        {
          "internalType": "uint256",
          "name": "lastBalanceUpdatedTime",
          "type": "uint256"
        }
      ],
      "name": "getRealtimeCostIncurred",
      "outputs": [
        {
          "internalType": "uint256",
          "name": "",
          "type": "uint256"
        }
      ],
      "stateMutability": "view",
      "type": "function"
    },
    {
      "inputs": [
        {
          "internalType": "uint256",
          "name": "nftId",
          "type": "uint256"
        },
        {
          "internalType": "uint256[]",
          "name": "subnetIds",
          "type": "uint256[]"
        },
        {
          "internalType": "address",
          "name": "nftMinter",
          "type": "address"
        },
        {
          "internalType": "uint256",
          "name": "mintTime",
          "type": "uint256"
        },
        {
          "internalType": "uint256[3]",
          "name": "prevBalance",
          "type": "uint256[3]"
        },
        {
          "internalType": "uint256",
          "name": "lastBalanceUpdatedTime",
          "type": "uint256"
        }
      ],
      "name": "getUpdatedBalance",
      "outputs": [
        {
          "internalType": "uint256[3]",
          "name": "",
          "type": "uint256[3]"
        }
      ],
      "stateMutability": "nonpayable",
      "type": "function"
    },
    {
      "inputs": [
        {
          "internalType": "contract IRegistration",
          "name": "_RegistrationContract",
          "type": "address"
        },
        {
          "internalType": "contract IERC721",
          "name": "_ApplicationNFT",
          "type": "address"
        },
        {
          "internalType": "contract IERC20Upgradeable",
          "name": "_XCTToken",
          "type": "address"
        }
      ],
      "name": "initialize",
      "outputs": [],
      "stateMutability": "nonpayable",
      "type": "function"
    },
    {
      "inputs": [],
      "name": "owner",
      "outputs": [
        {
          "internalType": "address",
          "name": "",
          "type": "address"
        }
      ],
      "stateMutability": "view",
      "type": "function"
    },
    {
      "inputs": [
        {
          "internalType": "uint256",
          "name": "_nftId",
          "type": "uint256"
        },
        {
          "internalType": "uint256",
          "name": "_subnetId",
          "type": "uint256"
        }
      ],
      "name": "r_licenseFee",
      "outputs": [
        {
          "internalType": "uint256",
          "name": "",
          "type": "uint256"
        }
      ],
      "stateMutability": "view",
      "type": "function"
    },
    {
      "inputs": [],
      "name": "receiveRevenue",
      "outputs": [],
      "stateMutability": "nonpayable",
      "type": "function"
    },
    {
      "inputs": [
        {
          "internalType": "address",
          "name": "_userAddress",
          "type": "address"
        }
      ],
      "name": "receiveRevenueForAddress",
      "outputs": [],
      "stateMutability": "nonpayable",
      "type": "function"
    },
    {
      "inputs": [
        {
          "internalType": "address[]",
          "name": "_userAddresses",
          "type": "address[]"
        }
      ],
      "name": "receiveRevenueForAddressBulk",
      "outputs": [],
      "stateMutability": "nonpayable",
      "type": "function"
    },
    {
      "inputs": [],
      "name": "renounceOwnership",
      "outputs": [],
      "stateMutability": "nonpayable",
      "type": "function"
    },
    {
      "inputs": [],
      "name": "s_GlobalDAOAddress",
      "outputs": [
        {
          "internalType": "address",
          "name": "",
          "type": "address"
        }
      ],
      "stateMutability": "view",
      "type": "function"
    },
    {
      "inputs": [],
      "name": "s_GlobalDAORate",
      "outputs": [
        {
          "internalType": "uint256",
          "name": "",
          "type": "uint256"
        }
      ],
      "stateMutability": "view",
      "type": "function"
    },
    {
      "inputs": [
        {
          "internalType": "address",
          "name": "_SubscriptionBalance",
          "type": "address"
        }
      ],
      "name": "setSubscriptionBalanceContract",
      "outputs": [],
      "stateMutability": "nonpayable",
      "type": "function"
    },
    {
      "inputs": [
        {
          "internalType": "address",
          "name": "_Subscription",
          "type": "address"
        }
      ],
      "name": "setSubscriptionContract",
      "outputs": [],
      "stateMutability": "nonpayable",
      "type": "function"
    },
    {
      "inputs": [
        {
          "internalType": "uint256",
          "name": "_subnetId",
          "type": "uint256"
        }
      ],
      "name": "subnetDAOWalletFor1",
      "outputs": [
        {
          "internalType": "address",
          "name": "",
          "type": "address"
        }
      ],
      "stateMutability": "view",
      "type": "function"
    },
    {
      "inputs": [
        {
          "internalType": "uint256",
          "name": "_subnetId",
          "type": "uint256"
        }
      ],
      "name": "t_SupportFeeRate",
      "outputs": [
        {
          "internalType": "uint256",
          "name": "fee",
          "type": "uint256"
        }
      ],
      "stateMutability": "view",
      "type": "function"
    },
    {
      "inputs": [
        {
          "internalType": "uint256",
          "name": "_tokenId",
          "type": "uint256"
        }
      ],
      "name": "t_supportFeeAddress",
      "outputs": [
        {
          "internalType": "address",
          "name": "",
          "type": "address"
        }
      ],
      "stateMutability": "view",
      "type": "function"
    },
    {
      "inputs": [
        {
          "internalType": "address",
          "name": "newOwner",
          "type": "address"
        }
      ],
      "name": "transferOwnership",
      "outputs": [],
      "stateMutability": "nonpayable",
      "type": "function"
    },
    {
      "inputs": [],
      "name": "u_ReferralExpiry",
      "outputs": [
        {
          "internalType": "uint256",
          "name": "",
          "type": "uint256"
        }
      ],
      "stateMutability": "view",
      "type": "function"
    },
    {
      "inputs": [],
      "name": "u_ReferralPercent",
      "outputs": [
        {
          "internalType": "uint256",
          "name": "",
          "type": "uint256"
        }
      ],
      "stateMutability": "view",
      "type": "function"
    }
  ],
  "bytecode": "0x608060405234801561001057600080fd5b50611d2b806100206000396000f3fe608060405234801561001057600080fd5b506004361061018e5760003560e01c806384a0a326116100de578063c0c53b8b11610097578063f2fde38b11610071578063f2fde38b14610343578063f73ecb3014610356578063f7a249ab14610369578063f7aa1e541461037c5761018e565b8063c0c53b8b146102fd578063c314dc3914610310578063df44b170146103235761018e565b806384a0a326146102955780638da5cb5b146102a857806396530a22146102b957806396bbda3e146102cf578063a8440fe2146102d7578063abb4b9cd146102ea5761018e565b806341910dc11161014b578063545204fe11610125578063545204fe1461024757806360378c0c1461025a578063715018a61461027a5780637f3b13bc146102825761018e565b806341910dc11461021957806344e822501461022c57806345c37cd4146102345761018e565b806306e29ed914610193578063192cd212146101a85780631bef5ddf146101d85780631d2e0223146101eb578063215c5cb0146101f35780632fc84de814610206575b600080fd5b6101a66101a136600461180c565b610384565b005b6101bb6101b6366004611944565b6103d6565b6040516001600160a01b0390911681526020015b60405180910390f35b6101bb6101e6366004611944565b61045c565b6101bb61048e565b6101a66102013660046117d4565b610510565b6069546101bb906001600160a01b031681565b6067546101bb906001600160a01b031681565b6101a6610601565b6066546101bb906001600160a01b031681565b6101a66102553660046117d4565b61060c565b61026d610268366004611974565b6106a8565b6040516101cf9190611b22565b6101a6610aee565b61026d6102903660046119f0565b610b22565b6101a66102a33660046117d4565b610c67565b6033546001600160a01b03166101bb565b6102c1610cfa565b6040519081526020016101cf565b6102c1610d77565b6102c16102e5366004611b01565b610dbc565b6065546101bb906001600160a01b031681565b6101a661030b3660046118fa565b610e47565b6102c161031e3660046119f0565b610efc565b6102c16103313660046117d4565b606a6020526000908152604090205481565b6101a66103513660046117d4565b611016565b6102c1610364366004611944565b6110b1565b6068546101bb906001600160a01b031681565b6102c1611140565b60005b81518110156103d2576103c08282815181106103b357634e487b7160e01b600052603260045260246000fd5b6020026020010151610510565b806103ca81611c99565b915050610387565b5050565b6065546040516379fed2eb60e01b8152600481018390526000916001600160a01b0316906379fed2eb906024015b60206040518083038186803b15801561041c57600080fd5b505afa158015610430573d6000803e3d6000fd5b505050506040513d601f19601f8201168201806040525081019061045491906117f0565b90505b919050565b6066546040516331a9108f60e11b8152600481018390526000916001600160a01b031690636352211e90602401610404565b606554604080516341facd6360e11b815290516000926001600160a01b0316916383f59ac6916004808301926020929190829003018186803b1580156104d357600080fd5b505afa1580156104e7573d6000803e3d6000fd5b505050506040513d601f19601f8201168201806040525081019061050b91906117f0565b905090565b6001600160a01b038181166000818152606a60205260409081902054606954915163a9059cbb60e01b815260048101939093526024830181905292169063a9059cbb90604401602060405180830381600087803b15801561057057600080fd5b505af1158015610584573d6000803e3d6000fd5b505050506040513d601f19601f820116820180604052508101906105a891906118e0565b506001600160a01b0382166000818152606a6020908152604080832092909255815192835282018390527ff8df0bb865f83f0bfa58caa2a1ec0cccc495ea623170108323baecc06cd6537a910160405180910390a15050565b61060a33610201565b565b6033546001600160a01b0316331461063f5760405162461bcd60e51b815260040161063690611ba1565b60405180910390fd5b6067546001600160a01b0316156106865760405162461bcd60e51b815260206004820152600b60248201526a105b1c9958591e481cd95d60aa1b6044820152606401610636565b606780546001600160a01b0319166001600160a01b0392909216919091179055565b6106b0611689565b60006106bd888885611185565b9050620186a0811115610adf5760006040518060800160405280600081526020016106fd620186a06106f7866106f1610d77565b906113cf565b906113db565b81526020016000815260200161071c620186a06106f7866106f1610cfa565b905290506107588160015b6020020151606a600061073861048e565b6001600160a01b03168152602081019190915260400160002054906113e7565b606a600061076461048e565b6001600160a01b03168152602081019190915260400160009081209190915589908990899089905b8351811015610a19576107e36107d4620186a06106f78a6106f18a8a88815181106107c757634e487b7160e01b600052603260045260246000fd5b6020026020010151610dbc565b8760005b6020020151906113e7565b86600060200201818152505061083561082d620186a06106f78a6106f189878151811061082057634e487b7160e01b600052603260045260246000fd5b60200260200101516110b1565b8760026107d8565b86600260200201818152505061087987606a600061073888868151811061086c57634e487b7160e01b600052603260045260246000fd5b60200260200101516103d6565b606a60006108a087858151811061086c57634e487b7160e01b600052603260045260246000fd5b6001600160a01b03168152602081019190915260400160002055426108cd6108c6611140565b84906113e7565b11156109d55760675484516000916001600160a01b031690639704576a90889088908690811061090d57634e487b7160e01b600052603260045260246000fd5b60200260200101516040518363ffffffff1660e01b815260040161093b929190918252602082015260400190565b60206040518083038186803b15801561095357600080fd5b505afa158015610967573d6000803e3d6000fd5b505050506040513d601f19601f8201168201806040525081019061098b91906117f0565b60608801516001600160a01b0382166000908152606a60205260409020549192506109b691906113e7565b6001600160a01b039091166000908152606a6020526040902055610a07565b6109e0866003610727565b606a60006109ec61048e565b6001600160a01b031681526020810191909152604001600020555b80610a1181611c99565b91505061078c565b5084516001600160a01b0383166000908152606a6020526040902054610a3e916113e7565b6001600160a01b0383166000908152606a6020526040902055610a6f8560026020020151606a60006107388861045c565b606a6000610a7c8761045c565b6001600160a01b03168152602081019190915260400160002055610ad2610acc87610ac68860036020020151610ac68a60026020020151610ac68c600160200201518d60006107d8565b906113e7565b8a6113f3565b9650505050505050610ae4565b839150505b9695505050505050565b6033546001600160a01b03163314610b185760405162461bcd60e51b815260040161063690611ba1565b61060a6000611532565b610b2a611689565b6000610b37868685611185565b90506000604051806080016040528060008152602001610b60620186a06106f7866106f1610d77565b815260200160008152602001610b7f620186a06106f7866106f1610cfa565b9052905060005b8651811015610c2557610bc9610bc1620186a06106f7866106f18d8d88815181106107c757634e487b7160e01b600052603260045260246000fd5b8360006107d8565b826000602002018181525050610c0e610c06620186a06106f7866106f18c878151811061082057634e487b7160e01b600052603260045260246000fd5b8360026107d8565b604083015280610c1d81611c99565b915050610b86565b50610c5c610c5683610ac68460036020020151610ac68660026020020151610ac688600160200201518960006107d8565b866113f3565b979650505050505050565b6033546001600160a01b03163314610c915760405162461bcd60e51b815260040161063690611ba1565b6068546001600160a01b031615610cd85760405162461bcd60e51b815260206004820152600b60248201526a105b1c9958591e481cd95d60aa1b6044820152606401610636565b606880546001600160a01b0319166001600160a01b0392909216919091179055565b60685460408051638d8440b360e01b815290516000926001600160a01b031691638d8440b3916004808301926020929190829003018186803b158015610d3f57600080fd5b505afa158015610d53573d6000803e3d6000fd5b505050506040513d601f19601f8201168201806040525081019061050b919061195c565b606554604080516319ec727760e31b815290516000926001600160a01b03169163cf6393b8916004808301926020929190829003018186803b158015610d3f57600080fd5b60675460405163542207f160e11b815260048101849052602481018390526000916001600160a01b03169063a8440fe29060440160206040518083038186803b158015610e0857600080fd5b505afa158015610e1c573d6000803e3d6000fd5b505050506040513d601f19601f82011682018060405250810190610e40919061195c565b9392505050565b6000610e536001611584565b90508015610e6b576000805461ff0019166101001790555b610e73611609565b606580546001600160a01b038087166001600160a01b0319928316179092556066805486841690831617905560698054928516929091169190911790558015610ef6576000805461ff0019169055604051600181527f7f26b83ff96e1f2b6a682f133852f6798a09c465da95921460cefb38474024989060200160405180910390a15b50505050565b600080610f0a868685611185565b90506000604051806080016040528060008152602001610f33620186a06106f7866106f1610d77565b815260200160008152602001610f52620186a06106f7866106f1610cfa565b9052905060005b8651811015610fe857610f94610bc1620186a06106f7866106f18d8d88815181106107c757634e487b7160e01b600052603260045260246000fd5b826000602002018181525050610fd1610c06620186a06106f7866106f18c878151811061082057634e487b7160e01b600052603260045260246000fd5b604083015280610fe081611c99565b915050610f59565b50610c5c82610ac68360036020020151610ac68560026020020151610ac687600160200201518860006107d8565b6033546001600160a01b031633146110405760405162461bcd60e51b815260040161063690611ba1565b6001600160a01b0381166110a55760405162461bcd60e51b815260206004820152602660248201527f4f776e61626c653a206e6577206f776e657220697320746865207a65726f206160448201526564647265737360d01b6064820152608401610636565b6110ae81611532565b50565b6065546040516373d97f3960e01b8152600481018390526000916001600160a01b0316906373d97f399060240160006040518083038186803b1580156110f657600080fd5b505afa15801561110a573d6000803e3d6000fd5b505050506040513d6000823e601f3d908101601f191682016040526111329190810190611a4e565b509998505050505050505050565b6068546040805163b0d47ef560e01b815290516000926001600160a01b03169163b0d47ef5916004808301926020929190829003018186803b158015610d3f57600080fd5b600080805b84518110156113b15760675485516000916001600160a01b03169063436254d69089908990869081106111cd57634e487b7160e01b600052603260045260246000fd5b60200260200101516040518363ffffffff1660e01b81526004016111fb929190918252602082015260400190565b60006040518083038186803b15801561121357600080fd5b505afa158015611227573d6000803e3d6000fd5b505050506040513d6000823e601f3d908101601f1916820160405261124f91908101906118a5565b60655487519192506000916001600160a01b03909116906373d97f399089908690811061128c57634e487b7160e01b600052603260045260246000fd5b60200260200101516040518263ffffffff1660e01b81526004016112b291815260200190565b60006040518083038186803b1580156112ca57600080fd5b505afa1580156112de573d6000803e3d6000fd5b505050506040513d6000823e601f3d908101601f191682016040526113069190810190611a4e565b5050505094505050505060005b825181101561139b5761138761138083838151811061134257634e487b7160e01b600052603260045260246000fd5b602002602001015185848151811061136a57634e487b7160e01b600052603260045260246000fd5b60200260200101516113cf90919063ffffffff16565b86906113e7565b94508061139381611c99565b915050611313565b50505080806113a990611c99565b91505061118a565b506113c66113bf428561167d565b82906113cf565b95945050505050565b6000610e408284611c63565b6000610e408284611c43565b6000610e408284611c2b565b6113fb611689565b600060405180606001604052808460006003811061142957634e487b7160e01b600052603260045260246000fd5b602002015181526020018460016003811061145457634e487b7160e01b600052603260045260246000fd5b602002015181526020018460026003811061147f57634e487b7160e01b600052603260045260246000fd5b6020020151905283519092508410156114ac576114a5848460005b60200201519061167d565b825261152b565b82516114b990859061167d565b6000835260208401519091508110156114e9576114d88184600161149a565b8260015b602002015250600061152b565b60208301516114f990829061167d565b6000602084015260408401519091508110156115235761151b8184600261149a565b8260026114dc565b600060408301525b5092915050565b603380546001600160a01b038381166001600160a01b0319831681179093556040519116919082907f8be0079c531659141344cd1fd0a4f28419497f9722a3daafe3b4186f6b6457e090600090a35050565b60008054610100900460ff16156115cb578160ff1660011480156115a75750303b155b6115c35760405162461bcd60e51b815260040161063690611b53565b506000610457565b60005460ff8084169116106115f25760405162461bcd60e51b815260040161063690611b53565b506000805460ff191660ff83161790556001610457565b600054610100900460ff166116745760405162461bcd60e51b815260206004820152602b60248201527f496e697469616c697a61626c653a20636f6e7472616374206973206e6f74206960448201526a6e697469616c697a696e6760a81b6064820152608401610636565b61060a33611532565b6000610e408284611c82565b60405180606001604052806003906020820280368337509192915050565b600082601f8301126116b7578081fd5b6116c16060611bd6565b8083856060860111156116d2578384fd5b835b60038110156116f35781358452602093840193909101906001016116d4565b509095945050505050565b600082601f83011261170e578081fd5b8135602061172361171e83611c07565b611bd6565b828152818101908583018385028701840188101561173f578586fd5b855b8581101561175d57813584529284019290840190600101611741565b5090979650505050505050565b600082601f83011261177a578081fd5b8151602061178a61171e83611c07565b82815281810190858301838502870184018810156117a6578586fd5b855b8581101561175d578151845292840192908401906001016117a8565b8051801515811461045757600080fd5b6000602082840312156117e5578081fd5b8135610e4081611ce0565b600060208284031215611801578081fd5b8151610e4081611ce0565b6000602080838503121561181e578182fd5b823567ffffffffffffffff811115611834578283fd5b8301601f81018513611844578283fd5b803561185261171e82611c07565b818152838101908385018584028501860189101561186e578687fd5b8694505b8385101561189957803561188581611ce0565b835260019490940193918501918501611872565b50979650505050505050565b6000602082840312156118b6578081fd5b815167ffffffffffffffff8111156118cc578182fd5b6118d88482850161176a565b949350505050565b6000602082840312156118f1578081fd5b610e40826117c4565b60008060006060848603121561190e578182fd5b833561191981611ce0565b9250602084013561192981611ce0565b9150604084013561193981611ce0565b809150509250925092565b600060208284031215611955578081fd5b5035919050565b60006020828403121561196d578081fd5b5051919050565b600080600080600080610100878903121561198d578182fd5b86359550602087013567ffffffffffffffff8111156119aa578283fd5b6119b689828a016116fe565b95505060408701356119c781611ce0565b9350606087013592506119dd88608089016116a7565b915060e087013590509295509295509295565b60008060008060c08587031215611a05578182fd5b84359350602085013567ffffffffffffffff811115611a22578283fd5b611a2e878288016116fe565b935050611a3e86604087016116a7565b9396929550929360a00135925050565b60008060008060008060008060006101208a8c031215611a6c578687fd5b89519850611a7c60208b016117c4565b975060408a01519650611a9160608b016117c4565b955060808a015167ffffffffffffffff80821115611aad578485fd5b611ab98d838e0161176a565b965060a08c0151915080821115611ace578485fd5b50611adb8c828d0161176a565b94505060c08a0151925060e08a015191506101008a015190509295985092959850929598565b60008060408385031215611b13578182fd5b50508035926020909101359150565b60608101818360005b6003811015611b4a578151835260209283019290910190600101611b2b565b50505092915050565b6020808252602e908201527f496e697469616c697a61626c653a20636f6e747261637420697320616c72656160408201526d191e481a5b9a5d1a585b1a5e995960921b606082015260800190565b6020808252818101527f4f776e61626c653a2063616c6c6572206973206e6f7420746865206f776e6572604082015260600190565b604051601f8201601f1916810167ffffffffffffffff81118282101715611bff57611bff611cca565b604052919050565b600067ffffffffffffffff821115611c2157611c21611cca565b5060209081020190565b60008219821115611c3e57611c3e611cb4565b500190565b600082611c5e57634e487b7160e01b81526012600452602481fd5b500490565b6000816000190483118215151615611c7d57611c7d611cb4565b500290565b600082821015611c9457611c94611cb4565b500390565b6000600019821415611cad57611cad611cb4565b5060010190565b634e487b7160e01b600052601160045260246000fd5b634e487b7160e01b600052604160045260246000fd5b6001600160a01b03811681146110ae57600080fdfea264697066735822122033439ac563e6786c3bd8ca1638bc1d169f81a4a441cae5ff785084b9a6e824ef64736f6c63430008020033",
  "linkReferences": {},
  "deployedLinkReferences": {}
}