{
  "_format": "hh-sol-artifact-1",
  "contractName": "SubscriptionBalanceCalculator",
  "sourceName": "contracts/SubscriptionBalanceCalculator.sol",
  "abi": [
    {
      "anonymous": false,
      "inputs": [
        {
          "indexed": false,
          "internalType": "uint8",
          "name": "version",
          "type": "uint8"
        }
      ],
      "name": "Initialized",
      "type": "event"
    },
    {
      "anonymous": false,
      "inputs": [
        {
          "indexed": true,
          "internalType": "address",
          "name": "previousOwner",
          "type": "address"
        },
        {
          "indexed": true,
          "internalType": "address",
          "name": "newOwner",
          "type": "address"
        }
      ],
      "name": "OwnershipTransferred",
      "type": "event"
    },
    {
      "anonymous": false,
      "inputs": [
        {
          "indexed": false,
          "internalType": "address",
          "name": "benficiary",
          "type": "address"
        },
        {
          "indexed": false,
          "internalType": "uint256",
          "name": "bal",
          "type": "uint256"
        }
      ],
      "name": "ReceivedRevenue",
      "type": "event"
    },
    {
      "inputs": [],
      "name": "ApplicationNFT",
      "outputs": [
        {
          "internalType": "contract IERC721",
          "name": "",
          "type": "address"
        }
      ],
      "stateMutability": "view",
      "type": "function"
    },
    {
      "inputs": [],
      "name": "RegistrationContract",
      "outputs": [
        {
          "internalType": "contract IRegistration",
          "name": "",
          "type": "address"
        }
      ],
      "stateMutability": "view",
      "type": "function"
    },
    {
      "inputs": [],
      "name": "SubscriptionBalance",
      "outputs": [
        {
          "internalType": "contract ISubscriptionBalance",
          "name": "",
          "type": "address"
        }
      ],
      "stateMutability": "view",
      "type": "function"
    },
    {
      "inputs": [],
      "name": "SubscriptionContract",
      "outputs": [
        {
          "internalType": "contract ISubscription",
          "name": "",
          "type": "address"
        }
      ],
      "stateMutability": "view",
      "type": "function"
    },
    {
      "inputs": [],
      "name": "XCTToken",
      "outputs": [
        {
          "internalType": "contract IERC20Upgradeable",
          "name": "",
          "type": "address"
        }
      ],
      "stateMutability": "view",
      "type": "function"
    },
    {
      "inputs": [
        {
          "internalType": "address",
          "name": "",
          "type": "address"
        }
      ],
      "name": "balanceOfRev",
      "outputs": [
        {
          "internalType": "uint256",
          "name": "",
          "type": "uint256"
        }
      ],
      "stateMutability": "view",
      "type": "function"
    },
    {
      "inputs": [
        {
          "internalType": "uint256",
          "name": "nftId",
          "type": "uint256"
        },
        {
          "internalType": "uint256[]",
          "name": "subnetIds",
          "type": "uint256[]"
        },
        {
          "internalType": "address",
          "name": "nftMinter",
          "type": "address"
        },
        {
          "internalType": "uint256",
          "name": "mintTime",
          "type": "uint256"
        },
        {
          "internalType": "uint256[3]",
          "name": "prevBalance",
          "type": "uint256[3]"
        },
        {
          "internalType": "uint256",
          "name": "lastBalanceUpdatedTime",
          "type": "uint256"
        }
      ],
      "name": "getUpdatedBalance",
      "outputs": [
        {
          "internalType": "uint256[3]",
          "name": "prevBalanceUpdated",
          "type": "uint256[3]"
        }
      ],
      "stateMutability": "nonpayable",
      "type": "function"
    },
    {
      "inputs": [
        {
          "internalType": "contract IRegistration",
          "name": "_RegistrationContract",
          "type": "address"
        },
        {
          "internalType": "contract IERC721",
          "name": "_ApplicationNFT",
          "type": "address"
        },
        {
          "internalType": "contract IERC20Upgradeable",
          "name": "_XCTToken",
          "type": "address"
        }
      ],
      "name": "initialize",
      "outputs": [],
      "stateMutability": "nonpayable",
      "type": "function"
    },
    {
      "inputs": [],
      "name": "owner",
      "outputs": [
        {
          "internalType": "address",
          "name": "",
          "type": "address"
        }
      ],
      "stateMutability": "view",
      "type": "function"
    },
    {
      "inputs": [
        {
          "internalType": "uint256",
          "name": "_nftId",
          "type": "uint256"
        },
        {
          "internalType": "uint256",
          "name": "_subnetId",
          "type": "uint256"
        }
      ],
      "name": "r_licenseFee",
      "outputs": [
        {
          "internalType": "uint256",
          "name": "",
          "type": "uint256"
        }
      ],
      "stateMutability": "view",
      "type": "function"
    },
    {
      "inputs": [],
      "name": "receiveRevenue",
      "outputs": [],
      "stateMutability": "nonpayable",
      "type": "function"
    },
    {
      "inputs": [
        {
          "internalType": "address",
          "name": "_userAddress",
          "type": "address"
        }
      ],
      "name": "receiveRevenueForAddress",
      "outputs": [],
      "stateMutability": "nonpayable",
      "type": "function"
    },
    {
      "inputs": [
        {
          "internalType": "address[]",
          "name": "_userAddresses",
          "type": "address[]"
        }
      ],
      "name": "receiveRevenueForAddressBulk",
      "outputs": [],
      "stateMutability": "nonpayable",
      "type": "function"
    },
    {
      "inputs": [],
      "name": "renounceOwnership",
      "outputs": [],
      "stateMutability": "nonpayable",
      "type": "function"
    },
    {
      "inputs": [],
      "name": "s_GlobalDAOAddress",
      "outputs": [
        {
          "internalType": "address",
          "name": "",
          "type": "address"
        }
      ],
      "stateMutability": "view",
      "type": "function"
    },
    {
      "inputs": [],
      "name": "s_GlobalDAORate",
      "outputs": [
        {
          "internalType": "uint256",
          "name": "",
          "type": "uint256"
        }
      ],
      "stateMutability": "view",
      "type": "function"
    },
    {
      "inputs": [
        {
          "internalType": "address",
          "name": "_SubscriptionBalance",
          "type": "address"
        }
      ],
      "name": "setSubscriptionBalanceContract",
      "outputs": [],
      "stateMutability": "nonpayable",
      "type": "function"
    },
    {
      "inputs": [
        {
          "internalType": "address",
          "name": "_Subscription",
          "type": "address"
        }
      ],
      "name": "setSubscriptionContract",
      "outputs": [],
      "stateMutability": "nonpayable",
      "type": "function"
    },
    {
      "inputs": [
        {
          "internalType": "uint256",
          "name": "_subnetId",
          "type": "uint256"
        }
      ],
      "name": "subnetDAOWalletFor1",
      "outputs": [
        {
          "internalType": "address",
          "name": "",
          "type": "address"
        }
      ],
      "stateMutability": "view",
      "type": "function"
    },
    {
      "inputs": [
        {
          "internalType": "uint256",
          "name": "_subnetId",
          "type": "uint256"
        }
      ],
      "name": "t_SupportFeeRate",
      "outputs": [
        {
          "internalType": "uint256",
          "name": "fee",
          "type": "uint256"
        }
      ],
      "stateMutability": "view",
      "type": "function"
    },
    {
      "inputs": [
        {
          "internalType": "uint256",
          "name": "_tokenId",
          "type": "uint256"
        }
      ],
      "name": "t_supportFeeAddress",
      "outputs": [
        {
          "internalType": "address",
          "name": "",
          "type": "address"
        }
      ],
      "stateMutability": "view",
      "type": "function"
    },
    {
      "inputs": [
        {
          "internalType": "address",
          "name": "newOwner",
          "type": "address"
        }
      ],
      "name": "transferOwnership",
      "outputs": [],
      "stateMutability": "nonpayable",
      "type": "function"
    },
    {
      "inputs": [],
      "name": "u_ReferralExpiry",
      "outputs": [
        {
          "internalType": "uint256",
          "name": "",
          "type": "uint256"
        }
      ],
      "stateMutability": "view",
      "type": "function"
    },
    {
      "inputs": [],
      "name": "u_ReferralPercent",
      "outputs": [
        {
          "internalType": "uint256",
          "name": "",
          "type": "uint256"
        }
      ],
      "stateMutability": "view",
      "type": "function"
    }
  ],
  "bytecode": "0x608060405234801561001057600080fd5b50611a0f806100206000396000f3fe608060405234801561001057600080fd5b50600436106101585760003560e01c806384a0a326116100c3578063c0c53b8b1161007c578063c0c53b8b146102b4578063df44b170146102c7578063f2fde38b146102e7578063f73ecb30146102fa578063f7a249ab1461030d578063f7aa1e541461032057610158565b806384a0a3261461024c5780638da5cb5b1461025f57806396530a221461027057806396bbda3e14610286578063a8440fe21461028e578063abb4b9cd146102a157610158565b806341910dc11161011557806341910dc1146101e357806344e82250146101f657806345c37cd4146101fe578063545204fe1461021157806360378c0c14610224578063715018a61461024457610158565b806306e29ed91461015d578063192cd212146101725780631bef5ddf146101a25780631d2e0223146101b5578063215c5cb0146101bd5780632fc84de8146101d0575b600080fd5b61017061016b3660046114f9565b610328565b005b610185610180366004611631565b61037a565b6040516001600160a01b0390911681526020015b60405180910390f35b6101856101b0366004611631565b610400565b610185610432565b6101706101cb3660046114c1565b6104b4565b606954610185906001600160a01b031681565b606754610185906001600160a01b031681565b6101706105a5565b606654610185906001600160a01b031681565b61017061021f3660046114c1565b6105b0565b610237610232366004611661565b61064c565b6040516101999190611806565b610170610a89565b61017061025a3660046114c1565b610abd565b6033546001600160a01b0316610185565b610278610b50565b604051908152602001610199565b610278610bcd565b61027861029c3660046117e5565b610c12565b606554610185906001600160a01b031681565b6101706102c23660046115e7565b610c9d565b6102786102d53660046114c1565b606a6020526000908152604090205481565b6101706102f53660046114c1565b610d52565b610278610308366004611631565b610ded565b606854610185906001600160a01b031681565b610278610e7c565b60005b81518110156103765761036482828151811061035757634e487b7160e01b600052603260045260246000fd5b60200260200101516104b4565b8061036e8161197d565b91505061032b565b5050565b6065546040516379fed2eb60e01b8152600481018390526000916001600160a01b0316906379fed2eb906024015b60206040518083038186803b1580156103c057600080fd5b505afa1580156103d4573d6000803e3d6000fd5b505050506040513d601f19601f820116820180604052508101906103f891906114dd565b90505b919050565b6066546040516331a9108f60e11b8152600481018390526000916001600160a01b031690636352211e906024016103a8565b606554604080516341facd6360e11b815290516000926001600160a01b0316916383f59ac6916004808301926020929190829003018186803b15801561047757600080fd5b505afa15801561048b573d6000803e3d6000fd5b505050506040513d601f19601f820116820180604052508101906104af91906114dd565b905090565b6001600160a01b038181166000818152606a60205260409081902054606954915163a9059cbb60e01b815260048101939093526024830181905292169063a9059cbb90604401602060405180830381600087803b15801561051457600080fd5b505af1158015610528573d6000803e3d6000fd5b505050506040513d601f19601f8201168201806040525081019061054c91906115cd565b506001600160a01b0382166000818152606a6020908152604080832092909255815192835282018390527ff8df0bb865f83f0bfa58caa2a1ec0cccc495ea623170108323baecc06cd6537a910160405180910390a15050565b6105ae336101cb565b565b6033546001600160a01b031633146105e35760405162461bcd60e51b81526004016105da90611885565b60405180910390fd5b6067546001600160a01b03161561062a5760405162461bcd60e51b815260206004820152600b60248201526a105b1c9958591e481cd95d60aa1b60448201526064016105da565b606780546001600160a01b0319166001600160a01b0392909216919091179055565b6106546113c5565b6000610661888885610ec1565b9050620186a0811115610a7e5760006040518060800160405280600081526020016106a1620186a061069b86610695610bcd565b9061110b565b90611117565b8152602001600081526020016106c0620186a061069b86610695610b50565b905290506106fc8160015b6020020151606a60006106dc610432565b6001600160a01b0316815260208101919091526040016000205490611123565b606a6000610708610432565b6001600160a01b03168152602081019190915260400160009081209190915589908990899089905b83518110156109bd57610787610778620186a061069b8a6106958a8a888151811061076b57634e487b7160e01b600052603260045260246000fd5b6020026020010151610c12565b8760005b602002015190611123565b8660006020020181815250506107d96107d1620186a061069b8a6106958987815181106107c457634e487b7160e01b600052603260045260246000fd5b6020026020010151610ded565b87600261077c565b86600260200201818152505061081d87606a60006106dc88868151811061081057634e487b7160e01b600052603260045260246000fd5b602002602001015161037a565b606a600061084487858151811061081057634e487b7160e01b600052603260045260246000fd5b6001600160a01b031681526020810191909152604001600020554261087161086a610e7c565b8490611123565b11156109795760675484516000916001600160a01b031690639704576a9088908890869081106108b157634e487b7160e01b600052603260045260246000fd5b60200260200101516040518363ffffffff1660e01b81526004016108df929190918252602082015260400190565b60206040518083038186803b1580156108f757600080fd5b505afa15801561090b573d6000803e3d6000fd5b505050506040513d601f19601f8201168201806040525081019061092f91906114dd565b60608801516001600160a01b0382166000908152606a602052604090205491925061095a9190611123565b6001600160a01b039091166000908152606a60205260409020556109ab565b6109848660036106cb565b606a6000610990610432565b6001600160a01b031681526020810191909152604001600020555b806109b58161197d565b915050610730565b5084516001600160a01b0383166000908152606a60205260409020546109e291611123565b6001600160a01b0383166000908152606a6020526040902055610a138560026020020151606a60006106dc88610400565b606a6000610a2087610400565b6001600160a01b03168152602081019190915260400160002055610a76610a7087610a6a8860036020020151610a6a8a60026020020151610a6a8c600160200201518d600061077c565b90611123565b8a61112f565b965050505050505b509695505050505050565b6033546001600160a01b03163314610ab35760405162461bcd60e51b81526004016105da90611885565b6105ae600061126e565b6033546001600160a01b03163314610ae75760405162461bcd60e51b81526004016105da90611885565b6068546001600160a01b031615610b2e5760405162461bcd60e51b815260206004820152600b60248201526a105b1c9958591e481cd95d60aa1b60448201526064016105da565b606880546001600160a01b0319166001600160a01b0392909216919091179055565b60685460408051638d8440b360e01b815290516000926001600160a01b031691638d8440b3916004808301926020929190829003018186803b158015610b9557600080fd5b505afa158015610ba9573d6000803e3d6000fd5b505050506040513d601f19601f820116820180604052508101906104af9190611649565b606554604080516319ec727760e31b815290516000926001600160a01b03169163cf6393b8916004808301926020929190829003018186803b158015610b9557600080fd5b60675460405163542207f160e11b815260048101849052602481018390526000916001600160a01b03169063a8440fe29060440160206040518083038186803b158015610c5e57600080fd5b505afa158015610c72573d6000803e3d6000fd5b505050506040513d601f19601f82011682018060405250810190610c969190611649565b9392505050565b6000610ca960016112c0565b90508015610cc1576000805461ff0019166101001790555b610cc9611345565b606580546001600160a01b038087166001600160a01b0319928316179092556066805486841690831617905560698054928516929091169190911790558015610d4c576000805461ff0019169055604051600181527f7f26b83ff96e1f2b6a682f133852f6798a09c465da95921460cefb38474024989060200160405180910390a15b50505050565b6033546001600160a01b03163314610d7c5760405162461bcd60e51b81526004016105da90611885565b6001600160a01b038116610de15760405162461bcd60e51b815260206004820152602660248201527f4f776e61626c653a206e6577206f776e657220697320746865207a65726f206160448201526564647265737360d01b60648201526084016105da565b610dea8161126e565b50565b6065546040516373d97f3960e01b8152600481018390526000916001600160a01b0316906373d97f399060240160006040518083038186803b158015610e3257600080fd5b505afa158015610e46573d6000803e3d6000fd5b505050506040513d6000823e601f3d908101601f19168201604052610e6e9190810190611732565b509998505050505050505050565b6068546040805163b0d47ef560e01b815290516000926001600160a01b03169163b0d47ef5916004808301926020929190829003018186803b158015610b9557600080fd5b600080805b84518110156110ed5760675485516000916001600160a01b03169063436254d6908990899086908110610f0957634e487b7160e01b600052603260045260246000fd5b60200260200101516040518363ffffffff1660e01b8152600401610f37929190918252602082015260400190565b60006040518083038186803b158015610f4f57600080fd5b505afa158015610f63573d6000803e3d6000fd5b505050506040513d6000823e601f3d908101601f19168201604052610f8b9190810190611592565b60655487519192506000916001600160a01b03909116906373d97f3990899086908110610fc857634e487b7160e01b600052603260045260246000fd5b60200260200101516040518263ffffffff1660e01b8152600401610fee91815260200190565b60006040518083038186803b15801561100657600080fd5b505afa15801561101a573d6000803e3d6000fd5b505050506040513d6000823e601f3d908101601f191682016040526110429190810190611732565b5050505094505050505060005b82518110156110d7576110c36110bc83838151811061107e57634e487b7160e01b600052603260045260246000fd5b60200260200101518584815181106110a657634e487b7160e01b600052603260045260246000fd5b602002602001015161110b90919063ffffffff16565b8690611123565b9450806110cf8161197d565b91505061104f565b50505080806110e59061197d565b915050610ec6565b506111026110fb42856113b9565b829061110b565b95945050505050565b6000610c968284611947565b6000610c968284611927565b6000610c96828461190f565b6111376113c5565b600060405180606001604052808460006003811061116557634e487b7160e01b600052603260045260246000fd5b602002015181526020018460016003811061119057634e487b7160e01b600052603260045260246000fd5b60200201518152602001846002600381106111bb57634e487b7160e01b600052603260045260246000fd5b6020020151905283519092508410156111e8576111e1848460005b6020020151906113b9565b8252611267565b82516111f59085906113b9565b60008352602084015190915081101561122557611214818460016111d6565b8260015b6020020152506000611267565b60208301516112359082906113b9565b60006020840152604084015190915081101561125f57611257818460026111d6565b826002611218565b600060408301525b5092915050565b603380546001600160a01b038381166001600160a01b0319831681179093556040519116919082907f8be0079c531659141344cd1fd0a4f28419497f9722a3daafe3b4186f6b6457e090600090a35050565b60008054610100900460ff1615611307578160ff1660011480156112e35750303b155b6112ff5760405162461bcd60e51b81526004016105da90611837565b5060006103fb565b60005460ff80841691161061132e5760405162461bcd60e51b81526004016105da90611837565b506000805460ff191660ff831617905560016103fb565b600054610100900460ff166113b05760405162461bcd60e51b815260206004820152602b60248201527f496e697469616c697a61626c653a20636f6e7472616374206973206e6f74206960448201526a6e697469616c697a696e6760a81b60648201526084016105da565b6105ae3361126e565b6000610c968284611966565b60405180606001604052806003906020820280368337509192915050565b80356103fb816119c4565b600082601f8301126113fe578081fd5b61140860606118ba565b808385606086011115611419578384fd5b835b600381101561143a57813584526020938401939091019060010161141b565b509095945050505050565b600082601f830112611455578081fd5b8151602061146a611465836118eb565b6118ba565b8281528181019085830183850287018401881015611486578586fd5b855b858110156114a457815184529284019290840190600101611488565b5090979650505050505050565b805180151581146103fb57600080fd5b6000602082840312156114d2578081fd5b8135610c96816119c4565b6000602082840312156114ee578081fd5b8151610c96816119c4565b6000602080838503121561150b578182fd5b823567ffffffffffffffff811115611521578283fd5b8301601f81018513611531578283fd5b803561153f611465826118eb565b818152838101908385018584028501860189101561155b578687fd5b8694505b83851015611586578035611572816119c4565b83526001949094019391850191850161155f565b50979650505050505050565b6000602082840312156115a3578081fd5b815167ffffffffffffffff8111156115b9578182fd5b6115c584828501611445565b949350505050565b6000602082840312156115de578081fd5b610c96826114b1565b6000806000606084860312156115fb578182fd5b8335611606816119c4565b92506020840135611616816119c4565b91506040840135611626816119c4565b809150509250925092565b600060208284031215611642578081fd5b5035919050565b60006020828403121561165a578081fd5b5051919050565b600080600080600080610100878903121561167a578182fd5b8635955060208088013567ffffffffffffffff811115611698578384fd5b8801601f81018a136116a8578384fd5b80356116b6611465826118eb565b81815283810190838501858402850186018e10156116d2578788fd5b8794505b838510156116f45780358352600194909401939185019185016116d6565b508099505050505050611709604088016113e3565b93506060870135925061171f88608089016113ee565b915060e087013590509295509295509295565b60008060008060008060008060006101208a8c031215611750578687fd5b8951985061176060208b016114b1565b975060408a0151965061177560608b016114b1565b955060808a015167ffffffffffffffff80821115611791578485fd5b61179d8d838e01611445565b965060a08c01519150808211156117b2578485fd5b506117bf8c828d01611445565b94505060c08a0151925060e08a015191506101008a015190509295985092959850929598565b600080604083850312156117f7578182fd5b50508035926020909101359150565b60608101818360005b600381101561182e57815183526020928301929091019060010161180f565b50505092915050565b6020808252602e908201527f496e697469616c697a61626c653a20636f6e747261637420697320616c72656160408201526d191e481a5b9a5d1a585b1a5e995960921b606082015260800190565b6020808252818101527f4f776e61626c653a2063616c6c6572206973206e6f7420746865206f776e6572604082015260600190565b604051601f8201601f1916810167ffffffffffffffff811182821017156118e3576118e36119ae565b604052919050565b600067ffffffffffffffff821115611905576119056119ae565b5060209081020190565b6000821982111561192257611922611998565b500190565b60008261194257634e487b7160e01b81526012600452602481fd5b500490565b600081600019048311821515161561196157611961611998565b500290565b60008282101561197857611978611998565b500390565b600060001982141561199157611991611998565b5060010190565b634e487b7160e01b600052601160045260246000fd5b634e487b7160e01b600052604160045260246000fd5b6001600160a01b0381168114610dea57600080fdfea2646970667358221220fc75f7b44d13d4b88a8eead21c047690c81e3b57659e005202922090c0eca21a64736f6c63430008020033",
  "linkReferences": {},
  "deployedLinkReferences": {}
}