{
  "_format": "hh-sol-artifact-1",
  "contractName": "SubscriptionBalanceCalculator",
  "sourceName": "contracts/SubscriptionBalanceCalculator.sol",
  "abi": [
    {
      "anonymous": false,
      "inputs": [
        {
          "indexed": false,
          "internalType": "uint8",
          "name": "version",
          "type": "uint8"
        }
      ],
      "name": "Initialized",
      "type": "event"
    },
    {
      "anonymous": false,
      "inputs": [
        {
          "indexed": true,
          "internalType": "address",
          "name": "previousOwner",
          "type": "address"
        },
        {
          "indexed": true,
          "internalType": "address",
          "name": "newOwner",
          "type": "address"
        }
      ],
      "name": "OwnershipTransferred",
      "type": "event"
    },
    {
      "anonymous": false,
      "inputs": [
        {
          "indexed": false,
          "internalType": "address",
          "name": "benficiary",
          "type": "address"
        },
        {
          "indexed": false,
          "internalType": "uint256",
          "name": "bal",
          "type": "uint256"
        }
      ],
      "name": "ReceivedRevenue",
      "type": "event"
    },
    {
      "inputs": [],
      "name": "ApplicationNFT",
      "outputs": [
        {
          "internalType": "contract IERC721",
          "name": "",
          "type": "address"
        }
      ],
      "stateMutability": "view",
      "type": "function"
    },
    {
      "inputs": [],
      "name": "RegistrationContract",
      "outputs": [
        {
          "internalType": "contract IRegistration",
          "name": "",
          "type": "address"
        }
      ],
      "stateMutability": "view",
      "type": "function"
    },
    {
      "inputs": [],
      "name": "SubnetDAODistributor",
      "outputs": [
        {
          "internalType": "contract ISubnetDAODistributor",
          "name": "",
          "type": "address"
        }
      ],
      "stateMutability": "view",
      "type": "function"
    },
    {
      "inputs": [],
      "name": "SubscriptionBalance",
      "outputs": [
        {
          "internalType": "contract ISubscriptionBalance",
          "name": "",
          "type": "address"
        }
      ],
      "stateMutability": "view",
      "type": "function"
    },
    {
      "inputs": [],
      "name": "SubscriptionContract",
      "outputs": [
        {
          "internalType": "contract ISubscription",
          "name": "",
          "type": "address"
        }
      ],
      "stateMutability": "view",
      "type": "function"
    },
    {
      "inputs": [],
      "name": "XCTToken",
      "outputs": [
        {
          "internalType": "contract IERC20Upgradeable",
          "name": "",
          "type": "address"
        }
      ],
      "stateMutability": "view",
      "type": "function"
    },
    {
      "inputs": [
        {
          "internalType": "address",
          "name": "",
          "type": "address"
        }
      ],
      "name": "balanceOfRev",
      "outputs": [
        {
          "internalType": "uint256",
          "name": "",
          "type": "uint256"
        }
      ],
      "stateMutability": "view",
      "type": "function"
    },
    {
      "inputs": [
        {
          "internalType": "uint256",
          "name": "nftId",
          "type": "uint256"
        },
        {
          "internalType": "uint256[]",
          "name": "subnetIds",
          "type": "uint256[]"
        },
        {
          "internalType": "uint256[3]",
          "name": "prevBalance",
          "type": "uint256[3]"
        },
        {
          "internalType": "uint256",
          "name": "lastBalanceUpdatedTime",
          "type": "uint256"
        }
      ],
      "name": "getRealtimeBalance",
      "outputs": [
        {
          "internalType": "uint256[3]",
          "name": "",
          "type": "uint256[3]"
        }
      ],
      "stateMutability": "view",
      "type": "function"
    },
    {
      "inputs": [
        {
          "internalType": "uint256",
          "name": "nftId",
          "type": "uint256"
        },
        {
          "internalType": "uint256[]",
          "name": "subnetIds",
          "type": "uint256[]"
        },
        {
          "internalType": "uint256",
          "name": "lastBalanceUpdatedTime",
          "type": "uint256"
        }
      ],
      "name": "getRealtimeCostIncurred",
      "outputs": [
        {
          "internalType": "uint256",
          "name": "",
          "type": "uint256"
        }
      ],
      "stateMutability": "view",
      "type": "function"
    },
    {
      "inputs": [
        {
          "internalType": "uint256",
          "name": "nftId",
          "type": "uint256"
        },
        {
          "internalType": "uint256[]",
          "name": "subnetIds",
          "type": "uint256[]"
        },
        {
          "internalType": "address",
          "name": "nftMinter",
          "type": "address"
        },
        {
          "internalType": "uint256",
          "name": "mintTime",
          "type": "uint256"
        },
        {
          "internalType": "uint256[3]",
          "name": "prevBalance",
          "type": "uint256[3]"
        },
        {
          "internalType": "uint256",
          "name": "lastBalanceUpdatedTime",
          "type": "uint256"
        }
      ],
      "name": "getUpdatedBalance",
      "outputs": [
        {
          "internalType": "uint256[3]",
          "name": "",
          "type": "uint256[3]"
        }
      ],
      "stateMutability": "nonpayable",
      "type": "function"
    },
    {
      "inputs": [
        {
          "internalType": "contract IRegistration",
          "name": "_RegistrationContract",
          "type": "address"
        },
        {
          "internalType": "contract IERC721",
          "name": "_ApplicationNFT",
          "type": "address"
        },
        {
          "internalType": "contract IERC20Upgradeable",
          "name": "_XCTToken",
          "type": "address"
        }
      ],
      "name": "initialize",
      "outputs": [],
      "stateMutability": "nonpayable",
      "type": "function"
    },
    {
      "inputs": [],
      "name": "owner",
      "outputs": [
        {
          "internalType": "address",
          "name": "",
          "type": "address"
        }
      ],
      "stateMutability": "view",
      "type": "function"
    },
    {
      "inputs": [
        {
          "internalType": "uint256",
          "name": "_nftId",
          "type": "uint256"
        },
        {
          "internalType": "uint256",
          "name": "_subnetId",
          "type": "uint256"
        }
      ],
      "name": "r_licenseFee",
      "outputs": [
        {
          "internalType": "uint256",
          "name": "",
          "type": "uint256"
        }
      ],
      "stateMutability": "view",
      "type": "function"
    },
    {
      "inputs": [],
      "name": "receiveRevenue",
      "outputs": [],
      "stateMutability": "nonpayable",
      "type": "function"
    },
    {
      "inputs": [
        {
          "internalType": "address",
          "name": "_userAddress",
          "type": "address"
        }
      ],
      "name": "receiveRevenueForAddress",
      "outputs": [],
      "stateMutability": "nonpayable",
      "type": "function"
    },
    {
      "inputs": [
        {
          "internalType": "address[]",
          "name": "_userAddresses",
          "type": "address[]"
        }
      ],
      "name": "receiveRevenueForAddressBulk",
      "outputs": [],
      "stateMutability": "nonpayable",
      "type": "function"
    },
    {
      "inputs": [],
      "name": "renounceOwnership",
      "outputs": [],
      "stateMutability": "nonpayable",
      "type": "function"
    },
    {
      "inputs": [],
      "name": "s_GlobalDAOAddress",
      "outputs": [
        {
          "internalType": "address",
          "name": "",
          "type": "address"
        }
      ],
      "stateMutability": "view",
      "type": "function"
    },
    {
      "inputs": [],
      "name": "s_GlobalDAORate",
      "outputs": [
        {
          "internalType": "uint256",
          "name": "",
          "type": "uint256"
        }
      ],
      "stateMutability": "view",
      "type": "function"
    },
    {
      "inputs": [
        {
          "internalType": "contract ISubnetDAODistributor",
          "name": "_SubnetDAODistributor",
          "type": "address"
        }
      ],
      "name": "setSubnetDAODistributor",
      "outputs": [],
      "stateMutability": "nonpayable",
      "type": "function"
    },
    {
      "inputs": [
        {
          "internalType": "address",
          "name": "_SubscriptionBalance",
          "type": "address"
        }
      ],
      "name": "setSubscriptionBalanceContract",
      "outputs": [],
      "stateMutability": "nonpayable",
      "type": "function"
    },
    {
      "inputs": [
        {
          "internalType": "address",
          "name": "_Subscription",
          "type": "address"
        }
      ],
      "name": "setSubscriptionContract",
      "outputs": [],
      "stateMutability": "nonpayable",
      "type": "function"
    },
    {
      "inputs": [
        {
          "internalType": "uint256",
          "name": "_subnetId",
          "type": "uint256"
        }
      ],
      "name": "t_SupportFeeRate",
      "outputs": [
        {
          "internalType": "uint256",
          "name": "fee",
          "type": "uint256"
        }
      ],
      "stateMutability": "view",
      "type": "function"
    },
    {
      "inputs": [
        {
          "internalType": "uint256",
          "name": "_tokenId",
          "type": "uint256"
        }
      ],
      "name": "t_supportFeeAddress",
      "outputs": [
        {
          "internalType": "address",
          "name": "",
          "type": "address"
        }
      ],
      "stateMutability": "view",
      "type": "function"
    },
    {
      "inputs": [
        {
          "internalType": "address",
          "name": "newOwner",
          "type": "address"
        }
      ],
      "name": "transferOwnership",
      "outputs": [],
      "stateMutability": "nonpayable",
      "type": "function"
    },
    {
      "inputs": [],
      "name": "u_ReferralExpiry",
      "outputs": [
        {
          "internalType": "uint256",
          "name": "",
          "type": "uint256"
        }
      ],
      "stateMutability": "view",
      "type": "function"
    },
    {
      "inputs": [],
      "name": "u_ReferralPercent",
      "outputs": [
        {
          "internalType": "uint256",
          "name": "",
          "type": "uint256"
        }
      ],
      "stateMutability": "view",
      "type": "function"
    }
  ],
  "bytecode": "0x608060405234801561001057600080fd5b50611e26806100206000396000f3fe608060405234801561001057600080fd5b50600436106101a95760003560e01c80638da5cb5b116100f9578063df44b17011610097578063f73ecb3011610071578063f73ecb3014610371578063f7a249ab14610384578063f7aa1e5414610397578063ffbd81811461039f576101a9565b8063df44b1701461032b578063e2e5bbef1461034b578063f2fde38b1461035e576101a9565b8063a8440fe2116100d3578063a8440fe2146102df578063abb4b9cd146102f2578063c0c53b8b14610305578063c9d3754814610318576101a9565b80638da5cb5b146102b057806396530a22146102c157806396bbda3e146102d7576101a9565b806344e822501161016657806360378c0c1161014057806360378c0c14610262578063715018a6146102825780637f3b13bc1461028a57806384a0a3261461029d576101a9565b806344e822501461023457806345c37cd41461023c578063545204fe1461024f576101a9565b806306e29ed9146101ae5780631bef5ddf146101c35780631d2e0223146101f3578063215c5cb0146101fb5780632fc84de81461020e57806341910dc114610221575b600080fd5b6101c16101bc366004611894565b6103b2565b005b6101d66101d13660046119cc565b610404565b6040516001600160a01b0390911681526020015b60405180910390f35b6101d6610489565b6101c161020936600461185c565b61050b565b6069546101d6906001600160a01b031681565b6067546101d6906001600160a01b031681565b6101c16105fc565b6066546101d6906001600160a01b031681565b6101c161025d36600461185c565b610607565b6102756102703660046119fc565b610685565b6040516101ea9190611bf8565b6101c1610b1f565b610275610298366004611a78565b610b53565b6101c16102ab36600461185c565b610c98565b6033546001600160a01b03166101d6565b6102c9610d0d565b6040519081526020016101ea565b6102c9610d8a565b6102c96102ed366004611bd7565b610dcf565b6065546101d6906001600160a01b031681565b6101c1610313366004611982565b610e5a565b6102c9610326366004611ad6565b610f0f565b6102c961033936600461185c565b606b6020526000908152604090205481565b6101c161035936600461185c565b611029565b6101c161036c36600461185c565b61109e565b6102c961037f3660046119cc565b611139565b6068546101d6906001600160a01b031681565b6102c96111c8565b606a546101d6906001600160a01b031681565b60005b8151811015610400576103ee8282815181106103e157634e487b7160e01b600052603260045260246000fd5b602002602001015161050b565b806103f881611d94565b9150506103b5565b5050565b6066546040516331a9108f60e11b8152600481018390526000916001600160a01b031690636352211e9060240160206040518083038186803b15801561044957600080fd5b505afa15801561045d573d6000803e3d6000fd5b505050506040513d601f19601f820116820180604052508101906104819190611878565b90505b919050565b606554604080516341facd6360e11b815290516000926001600160a01b0316916383f59ac6916004808301926020929190829003018186803b1580156104ce57600080fd5b505afa1580156104e2573d6000803e3d6000fd5b505050506040513d601f19601f820116820180604052508101906105069190611878565b905090565b6001600160a01b038181166000818152606b60205260409081902054606954915163a9059cbb60e01b815260048101939093526024830181905292169063a9059cbb90604401602060405180830381600087803b15801561056b57600080fd5b505af115801561057f573d6000803e3d6000fd5b505050506040513d601f19601f820116820180604052508101906105a39190611968565b506001600160a01b0382166000818152606b6020908152604080832092909255815192835282018390527ff8df0bb865f83f0bfa58caa2a1ec0cccc495ea623170108323baecc06cd6537a910160405180910390a15050565b61060533610209565b565b6033546001600160a01b0316331461063a5760405162461bcd60e51b815260040161063190611c9c565b60405180910390fd5b6067546001600160a01b0316156106635760405162461bcd60e51b815260040161063190611c77565b606780546001600160a01b0319166001600160a01b0392909216919091179055565b61068d611711565b600061069a88888561120d565b9050620186a0811115610b105760006040518060800160405280600081526020016106da620186a06106d4866106ce610d8a565b90611457565b90611463565b8152602001600081526020016106f9620186a06106d4866106ce610d0d565b905290506107358160015b6020020151606b6000610715610489565b6001600160a01b031681526020810191909152604001600020549061146f565b606b6000610741610489565b6001600160a01b03168152602081019190915260400160009081209190915589908990899089905b8351811015610a4a576107c06107b1620186a06106d48a6106ce8a8a88815181106107a457634e487b7160e01b600052603260045260246000fd5b6020026020010151610dcf565b8760005b60200201519061146f565b86600060200201818152505061081261080a620186a06106d48a6106ce8987815181106107fd57634e487b7160e01b600052603260045260246000fd5b6020026020010151611139565b8760026107b5565b604080880191909152606a546001600160a01b03166000908152606b602052205461083d908861146f565b606a80546001600160a01b039081166000908152606b602052604090209290925554855191169063105fa3a39086908490811061088a57634e487b7160e01b600052603260045260246000fd5b6020026020010151896040518363ffffffff1660e01b81526004016108b9929190918252602082015260400190565b600060405180830381600087803b1580156108d357600080fd5b505af11580156108e7573d6000803e3d6000fd5b50505050426108fe6108f76111c8565b849061146f565b1115610a065760675484516000916001600160a01b031690639704576a90889088908690811061093e57634e487b7160e01b600052603260045260246000fd5b60200260200101516040518363ffffffff1660e01b815260040161096c929190918252602082015260400190565b60206040518083038186803b15801561098457600080fd5b505afa158015610998573d6000803e3d6000fd5b505050506040513d601f19601f820116820180604052508101906109bc9190611878565b60608801516001600160a01b0382166000908152606b60205260409020549192506109e7919061146f565b6001600160a01b039091166000908152606b6020526040902055610a38565b610a11866003610704565b606b6000610a1d610489565b6001600160a01b031681526020810191909152604001600020555b80610a4281611d94565b915050610769565b5084516001600160a01b0383166000908152606b6020526040902054610a6f9161146f565b6001600160a01b0383166000908152606b6020526040902055610aa08560026020020151606b600061071588610404565b606b6000610aad87610404565b6001600160a01b03168152602081019190915260400160002055610b03610afd87610af78860036020020151610af78a60026020020151610af78c600160200201518d60006107b5565b9061146f565b8a61147b565b9650505050505050610b15565b839150505b9695505050505050565b6033546001600160a01b03163314610b495760405162461bcd60e51b815260040161063190611c9c565b61060560006115ba565b610b5b611711565b6000610b6886868561120d565b90506000604051806080016040528060008152602001610b91620186a06106d4866106ce610d8a565b815260200160008152602001610bb0620186a06106d4866106ce610d0d565b9052905060005b8651811015610c5657610bfa610bf2620186a06106d4866106ce8d8d88815181106107a457634e487b7160e01b600052603260045260246000fd5b8360006107b5565b826000602002018181525050610c3f610c37620186a06106d4866106ce8c87815181106107fd57634e487b7160e01b600052603260045260246000fd5b8360026107b5565b604083015280610c4e81611d94565b915050610bb7565b50610c8d610c8783610af78460036020020151610af78660026020020151610af788600160200201518960006107b5565b8661147b565b979650505050505050565b6033546001600160a01b03163314610cc25760405162461bcd60e51b815260040161063190611c9c565b6068546001600160a01b031615610ceb5760405162461bcd60e51b815260040161063190611c77565b606880546001600160a01b0319166001600160a01b0392909216919091179055565b60685460408051638d8440b360e01b815290516000926001600160a01b031691638d8440b3916004808301926020929190829003018186803b158015610d5257600080fd5b505afa158015610d66573d6000803e3d6000fd5b505050506040513d601f19601f8201168201806040525081019061050691906119e4565b606554604080516319ec727760e31b815290516000926001600160a01b03169163cf6393b8916004808301926020929190829003018186803b158015610d5257600080fd5b60675460405163542207f160e11b815260048101849052602481018390526000916001600160a01b03169063a8440fe29060440160206040518083038186803b158015610e1b57600080fd5b505afa158015610e2f573d6000803e3d6000fd5b505050506040513d601f19601f82011682018060405250810190610e5391906119e4565b9392505050565b6000610e66600161160c565b90508015610e7e576000805461ff0019166101001790555b610e86611691565b606580546001600160a01b038087166001600160a01b0319928316179092556066805486841690831617905560698054928516929091169190911790558015610f09576000805461ff0019169055604051600181527f7f26b83ff96e1f2b6a682f133852f6798a09c465da95921460cefb38474024989060200160405180910390a15b50505050565b600080610f1d85858561120d565b90506000604051806080016040528060008152602001610f46620186a06106d4866106ce610d8a565b815260200160008152602001610f65620186a06106d4866106ce610d0d565b9052905060005b8551811015610ffb57610fa7610bf2620186a06106d4866106ce8c8c88815181106107a457634e487b7160e01b600052603260045260246000fd5b826000602002018181525050610fe4610c37620186a06106d4866106ce8b87815181106107fd57634e487b7160e01b600052603260045260246000fd5b604083015280610ff381611d94565b915050610f6c565b50610b1582610af78360036020020151610af78560026020020151610af787600160200201518860006107b5565b6033546001600160a01b031633146110535760405162461bcd60e51b815260040161063190611c9c565b606a546001600160a01b03161561107c5760405162461bcd60e51b815260040161063190611c77565b606a80546001600160a01b0319166001600160a01b0392909216919091179055565b6033546001600160a01b031633146110c85760405162461bcd60e51b815260040161063190611c9c565b6001600160a01b03811661112d5760405162461bcd60e51b815260206004820152602660248201527f4f776e61626c653a206e6577206f776e657220697320746865207a65726f206160448201526564647265737360d01b6064820152608401610631565b611136816115ba565b50565b6065546040516373d97f3960e01b8152600481018390526000916001600160a01b0316906373d97f399060240160006040518083038186803b15801561117e57600080fd5b505afa158015611192573d6000803e3d6000fd5b505050506040513d6000823e601f3d908101601f191682016040526111ba9190810190611b24565b509998505050505050505050565b6068546040805163b0d47ef560e01b815290516000926001600160a01b03169163b0d47ef5916004808301926020929190829003018186803b158015610d5257600080fd5b600080805b84518110156114395760675485516000916001600160a01b03169063436254d690899089908690811061125557634e487b7160e01b600052603260045260246000fd5b60200260200101516040518363ffffffff1660e01b8152600401611283929190918252602082015260400190565b60006040518083038186803b15801561129b57600080fd5b505afa1580156112af573d6000803e3d6000fd5b505050506040513d6000823e601f3d908101601f191682016040526112d7919081019061192d565b60655487519192506000916001600160a01b03909116906373d97f399089908690811061131457634e487b7160e01b600052603260045260246000fd5b60200260200101516040518263ffffffff1660e01b815260040161133a91815260200190565b60006040518083038186803b15801561135257600080fd5b505afa158015611366573d6000803e3d6000fd5b505050506040513d6000823e601f3d908101601f1916820160405261138e9190810190611b24565b5050505094505050505060005b82518110156114235761140f6114088383815181106113ca57634e487b7160e01b600052603260045260246000fd5b60200260200101518584815181106113f257634e487b7160e01b600052603260045260246000fd5b602002602001015161145790919063ffffffff16565b869061146f565b94508061141b81611d94565b91505061139b565b505050808061143190611d94565b915050611212565b5061144e6114474285611705565b8290611457565b95945050505050565b6000610e538284611d5e565b6000610e538284611d3e565b6000610e538284611d26565b611483611711565b60006040518060600160405280846000600381106114b157634e487b7160e01b600052603260045260246000fd5b60200201518152602001846001600381106114dc57634e487b7160e01b600052603260045260246000fd5b602002015181526020018460026003811061150757634e487b7160e01b600052603260045260246000fd5b6020020151905283519092508410156115345761152d848460005b602002015190611705565b82526115b3565b8251611541908590611705565b6000835260208401519091508110156115715761156081846001611522565b8260015b60200201525060006115b3565b6020830151611581908290611705565b6000602084015260408401519091508110156115ab576115a381846002611522565b826002611564565b600060408301525b5092915050565b603380546001600160a01b038381166001600160a01b0319831681179093556040519116919082907f8be0079c531659141344cd1fd0a4f28419497f9722a3daafe3b4186f6b6457e090600090a35050565b60008054610100900460ff1615611653578160ff16600114801561162f5750303b155b61164b5760405162461bcd60e51b815260040161063190611c29565b506000610484565b60005460ff80841691161061167a5760405162461bcd60e51b815260040161063190611c29565b506000805460ff191660ff83161790556001610484565b600054610100900460ff166116fc5760405162461bcd60e51b815260206004820152602b60248201527f496e697469616c697a61626c653a20636f6e7472616374206973206e6f74206960448201526a6e697469616c697a696e6760a81b6064820152608401610631565b610605336115ba565b6000610e538284611d7d565b60405180606001604052806003906020820280368337509192915050565b600082601f83011261173f578081fd5b6117496060611cd1565b80838560608601111561175a578384fd5b835b600381101561177b57813584526020938401939091019060010161175c565b509095945050505050565b600082601f830112611796578081fd5b813560206117ab6117a683611d02565b611cd1565b82815281810190858301838502870184018810156117c7578586fd5b855b858110156117e5578135845292840192908401906001016117c9565b5090979650505050505050565b600082601f830112611802578081fd5b815160206118126117a683611d02565b828152818101908583018385028701840188101561182e578586fd5b855b858110156117e557815184529284019290840190600101611830565b8051801515811461048457600080fd5b60006020828403121561186d578081fd5b8135610e5381611ddb565b600060208284031215611889578081fd5b8151610e5381611ddb565b600060208083850312156118a6578182fd5b823567ffffffffffffffff8111156118bc578283fd5b8301601f810185136118cc578283fd5b80356118da6117a682611d02565b81815283810190838501858402850186018910156118f6578687fd5b8694505b8385101561192157803561190d81611ddb565b8352600194909401939185019185016118fa565b50979650505050505050565b60006020828403121561193e578081fd5b815167ffffffffffffffff811115611954578182fd5b611960848285016117f2565b949350505050565b600060208284031215611979578081fd5b610e538261184c565b600080600060608486031215611996578182fd5b83356119a181611ddb565b925060208401356119b181611ddb565b915060408401356119c181611ddb565b809150509250925092565b6000602082840312156119dd578081fd5b5035919050565b6000602082840312156119f5578081fd5b5051919050565b6000806000806000806101008789031215611a15578384fd5b86359550602087013567ffffffffffffffff811115611a32578485fd5b611a3e89828a01611786565b9550506040870135611a4f81611ddb565b935060608701359250611a65886080890161172f565b915060e087013590509295509295509295565b60008060008060c08587031215611a8d578182fd5b84359350602085013567ffffffffffffffff811115611aaa578283fd5b611ab687828801611786565b935050611ac6866040870161172f565b9396929550929360a00135925050565b600080600060608486031215611aea578081fd5b83359250602084013567ffffffffffffffff811115611b07578182fd5b611b1386828701611786565b925050604084013590509250925092565b60008060008060008060008060006101208a8c031215611b42578687fd5b89519850611b5260208b0161184c565b975060408a01519650611b6760608b0161184c565b955060808a015167ffffffffffffffff80821115611b83578485fd5b611b8f8d838e016117f2565b965060a08c0151915080821115611ba4578485fd5b50611bb18c828d016117f2565b94505060c08a0151925060e08a015191506101008a015190509295985092959850929598565b60008060408385031215611be9578182fd5b50508035926020909101359150565b60608101818360005b6003811015611c20578151835260209283019290910190600101611c01565b50505092915050565b6020808252602e908201527f496e697469616c697a61626c653a20636f6e747261637420697320616c72656160408201526d191e481a5b9a5d1a585b1a5e995960921b606082015260800190565b6020808252600b908201526a105b1c9958591e481cd95d60aa1b604082015260600190565b6020808252818101527f4f776e61626c653a2063616c6c6572206973206e6f7420746865206f776e6572604082015260600190565b604051601f8201601f1916810167ffffffffffffffff81118282101715611cfa57611cfa611dc5565b604052919050565b600067ffffffffffffffff821115611d1c57611d1c611dc5565b5060209081020190565b60008219821115611d3957611d39611daf565b500190565b600082611d5957634e487b7160e01b81526012600452602481fd5b500490565b6000816000190483118215151615611d7857611d78611daf565b500290565b600082821015611d8f57611d8f611daf565b500390565b6000600019821415611da857611da8611daf565b5060010190565b634e487b7160e01b600052601160045260246000fd5b634e487b7160e01b600052604160045260246000fd5b6001600160a01b038116811461113657600080fdfea26469706673582212207cc73900be06006ad3528356a1373998ae1bc50db7ab61dcd808d325a5b8185e64736f6c63430008020033",
  "linkReferences": {},
  "deployedLinkReferences": {}
}