{
  "_format": "hh-sol-artifact-1",
  "contractName": "ContractBasedDeploymentV2",
  "sourceName": "contracts/ContractBasedDeploymentV2.sol",
  "abi": [
    {
      "anonymous": false,
      "inputs": [
        {
          "indexed": true,
          "internalType": "string",
          "name": "appName",
          "type": "string"
        }
      ],
      "name": "EntryDeleted",
      "type": "event"
    },
    {
      "anonymous": false,
      "inputs": [
        {
          "indexed": true,
          "internalType": "string",
          "name": "appName",
          "type": "string"
        },
        {
          "indexed": false,
          "internalType": "uint256",
          "name": "appId",
          "type": "uint256"
        },
        {
          "indexed": false,
          "internalType": "bytes32",
          "name": "digest",
          "type": "bytes32"
        },
        {
          "indexed": false,
          "internalType": "uint8",
          "name": "hashFunction",
          "type": "uint8"
        },
        {
          "indexed": false,
          "internalType": "uint8",
          "name": "size",
          "type": "uint8"
        },
        {
          "indexed": false,
          "internalType": "uint256[]",
          "name": "resourceArray",
          "type": "uint256[]"
        }
      ],
      "name": "EntrySet",
      "type": "event"
    },
    {
      "anonymous": false,
      "inputs": [
        {
          "indexed": false,
          "internalType": "uint8",
          "name": "version",
          "type": "uint8"
        }
      ],
      "name": "Initialized",
      "type": "event"
    },
    {
      "inputs": [],
      "name": "CONTRACT_BASED_DEPLOYER",
      "outputs": [
        {
          "internalType": "bytes32",
          "name": "",
          "type": "bytes32"
        }
      ],
      "stateMutability": "view",
      "type": "function"
    },
    {
      "inputs": [],
      "name": "RoleControlV2",
      "outputs": [
        {
          "internalType": "contract IRoleControlV2",
          "name": "",
          "type": "address"
        }
      ],
      "stateMutability": "view",
      "type": "function"
    },
    {
      "inputs": [
        {
          "internalType": "uint256",
          "name": "",
          "type": "uint256"
        },
        {
          "internalType": "uint256",
          "name": "",
          "type": "uint256"
        }
      ],
      "name": "appIDToName",
      "outputs": [
        {
          "internalType": "string",
          "name": "",
          "type": "string"
        }
      ],
      "stateMutability": "view",
      "type": "function"
    },
    {
      "inputs": [
        {
          "internalType": "uint256",
          "name": "_nftId",
          "type": "uint256"
        },
        {
          "internalType": "string",
          "name": "appName",
          "type": "string"
        },
        {
          "internalType": "bytes32",
          "name": "_digest",
          "type": "bytes32"
        },
        {
          "internalType": "uint8",
          "name": "_hashFunction",
          "type": "uint8"
        },
        {
          "internalType": "uint8",
          "name": "_size",
          "type": "uint8"
        },
        {
          "internalType": "uint256[]",
          "name": "_resourceArray",
          "type": "uint256[]"
        }
      ],
      "name": "createData",
      "outputs": [],
      "stateMutability": "nonpayable",
      "type": "function"
    },
    {
      "inputs": [
        {
          "internalType": "uint256",
          "name": "_nftId",
          "type": "uint256"
        },
        {
          "internalType": "string",
          "name": "appName",
          "type": "string"
        }
      ],
      "name": "deleteData",
      "outputs": [],
      "stateMutability": "nonpayable",
      "type": "function"
    },
    {
      "inputs": [
        {
          "internalType": "uint256",
          "name": "",
          "type": "uint256"
        },
        {
          "internalType": "string",
          "name": "",
          "type": "string"
        }
      ],
      "name": "entries",
      "outputs": [
        {
          "internalType": "uint256",
          "name": "appID",
          "type": "uint256"
        },
        {
          "internalType": "string",
          "name": "appName",
          "type": "string"
        },
        {
          "internalType": "bytes32",
          "name": "digest",
          "type": "bytes32"
        },
        {
          "internalType": "uint8",
          "name": "hashFunction",
          "type": "uint8"
        },
        {
          "internalType": "uint8",
          "name": "size",
          "type": "uint8"
        }
      ],
      "stateMutability": "view",
      "type": "function"
    },
    {
      "inputs": [
        {
          "internalType": "uint256",
          "name": "_nftId",
          "type": "uint256"
        },
        {
          "internalType": "string",
          "name": "appName",
          "type": "string"
        }
      ],
      "name": "getData",
      "outputs": [
        {
          "internalType": "bytes32",
          "name": "digest",
          "type": "bytes32"
        },
        {
          "internalType": "uint8",
          "name": "hashfunction",
          "type": "uint8"
        },
        {
          "internalType": "uint8",
          "name": "size",
          "type": "uint8"
        }
      ],
      "stateMutability": "view",
      "type": "function"
    },
    {
      "inputs": [
        {
          "internalType": "uint256",
          "name": "_nftId",
          "type": "uint256"
        }
      ],
      "name": "getDataArray",
      "outputs": [
        {
          "components": [
            {
              "internalType": "uint256",
              "name": "appID",
              "type": "uint256"
            },
            {
              "internalType": "string",
              "name": "appName",
              "type": "string"
            },
            {
              "internalType": "bytes32",
              "name": "digest",
              "type": "bytes32"
            },
            {
              "internalType": "uint8",
              "name": "hashFunction",
              "type": "uint8"
            },
            {
              "internalType": "uint8",
              "name": "size",
              "type": "uint8"
            },
            {
              "internalType": "uint256[]",
              "name": "resourceArray",
              "type": "uint256[]"
            }
          ],
          "internalType": "struct ContractBasedDeploymentV2.Multihash[]",
          "name": "_entries",
          "type": "tuple[]"
        }
      ],
      "stateMutability": "view",
      "type": "function"
    },
    {
      "inputs": [
        {
          "internalType": "uint256",
          "name": "_nftId",
          "type": "uint256"
        },
        {
          "internalType": "uint256[]",
          "name": "AppIds",
          "type": "uint256[]"
        }
      ],
      "name": "getDataByIds",
      "outputs": [
        {
          "components": [
            {
              "internalType": "uint256",
              "name": "appID",
              "type": "uint256"
            },
            {
              "internalType": "string",
              "name": "appName",
              "type": "string"
            },
            {
              "internalType": "bytes32",
              "name": "digest",
              "type": "bytes32"
            },
            {
              "internalType": "uint8",
              "name": "hashFunction",
              "type": "uint8"
            },
            {
              "internalType": "uint8",
              "name": "size",
              "type": "uint8"
            },
            {
              "internalType": "uint256[]",
              "name": "resourceArray",
              "type": "uint256[]"
            }
          ],
          "internalType": "struct ContractBasedDeploymentV2.Multihash[]",
          "name": "_entries",
          "type": "tuple[]"
        }
      ],
      "stateMutability": "view",
      "type": "function"
    },
    {
      "inputs": [
        {
          "internalType": "uint256",
          "name": "_nftId",
          "type": "uint256"
        },
        {
          "internalType": "string[]",
          "name": "_appNames",
          "type": "string[]"
        }
      ],
      "name": "getDataByNames",
      "outputs": [
        {
          "components": [
            {
              "internalType": "uint256",
              "name": "appID",
              "type": "uint256"
            },
            {
              "internalType": "string",
              "name": "appName",
              "type": "string"
            },
            {
              "internalType": "bytes32",
              "name": "digest",
              "type": "bytes32"
            },
            {
              "internalType": "uint8",
              "name": "hashFunction",
              "type": "uint8"
            },
            {
              "internalType": "uint8",
              "name": "size",
              "type": "uint8"
            },
            {
              "internalType": "uint256[]",
              "name": "resourceArray",
              "type": "uint256[]"
            }
          ],
          "internalType": "struct ContractBasedDeploymentV2.Multihash[]",
          "name": "_entries",
          "type": "tuple[]"
        }
      ],
      "stateMutability": "view",
      "type": "function"
    },
    {
      "inputs": [
        {
          "internalType": "uint256",
          "name": "_nftId",
          "type": "uint256"
        },
        {
          "internalType": "string",
          "name": "appName",
          "type": "string"
        }
      ],
      "name": "getFullData",
      "outputs": [
        {
          "internalType": "bytes32",
          "name": "digest",
          "type": "bytes32"
        },
        {
          "internalType": "uint8",
          "name": "hashfunction",
          "type": "uint8"
        },
        {
          "internalType": "uint8",
          "name": "size",
          "type": "uint8"
        },
        {
          "internalType": "uint256[]",
          "name": "_resourceArray",
          "type": "uint256[]"
        }
      ],
      "stateMutability": "view",
      "type": "function"
    },
    {
      "inputs": [],
      "name": "getNFTAddress",
      "outputs": [
        {
          "internalType": "address",
          "name": "",
          "type": "address"
        }
      ],
      "stateMutability": "view",
      "type": "function"
    },
    {
      "inputs": [
        {
          "internalType": "contract IRoleControlV2",
          "name": "_RoleControlV2",
          "type": "address"
        }
      ],
      "name": "initialize",
      "outputs": [],
      "stateMutability": "nonpayable",
      "type": "function"
    },
    {
      "inputs": [
        {
          "internalType": "uint256",
          "name": "_nftId",
          "type": "uint256"
        },
        {
          "internalType": "string",
          "name": "appName",
          "type": "string"
        },
        {
          "internalType": "bytes32",
          "name": "_digest",
          "type": "bytes32"
        },
        {
          "internalType": "uint8",
          "name": "_hashFunction",
          "type": "uint8"
        },
        {
          "internalType": "uint8",
          "name": "_size",
          "type": "uint8"
        },
        {
          "internalType": "uint256[]",
          "name": "_resourceArray",
          "type": "uint256[]"
        }
      ],
      "name": "updateData",
      "outputs": [],
      "stateMutability": "nonpayable",
      "type": "function"
    }
  ],
  "bytecode": "0x608060405234801561001057600080fd5b50611e87806100206000396000f3fe608060405234801561001057600080fd5b50600436106100ea5760003560e01c80638a356b001161008c578063b961847811610066578063b961847814610240578063c4d66de814610248578063f13958921461025b578063f30896731461026e576100ea565b80638a356b00146101d85780638a74ec3a146101eb5780638f9c46fb1461020e576100ea565b806343ae4ed0116100c857806343ae4ed01461015b57806355e0ade21461017f578063581b04641461019257806383467cfc146101a7576100ea565b80631382b7db146100ef57806325865abe1461011b5780633ad3c7c01461013b575b600080fd5b6101026100fd3660046118d4565b610281565b6040516101129493929190611b9a565b60405180910390f35b61012e61012936600461188f565b61040b565b6040516101129190611ae1565b61014e6101493660046119a3565b6105f8565b6040516101129190611bcf565b61016e6101693660046118d4565b61069d565b604051610112959493929190611cc9565b61012e61018d3660046117e4565b610775565b6101a56101a03660046118d4565b61093d565b005b6000546101c0906201000090046001600160a01b031681565b6040516001600160a01b039091168152602001610112565b6101a56101e636600461190f565b610b13565b610200600080516020611e3283398151915281565b604051908152602001610112565b61022161021c3660046118d4565b610dab565b6040805193845260ff9283166020850152911690820152606001610112565b6101c0610f2a565b6101a56102563660046117c8565b610fb6565b6101a561026936600461190f565b611046565b61012e61027c3660046117fc565b61131a565b60008060006060600060016000888152602001908152602001600020866040516102ab9190611a2a565b90815260200160405180910390206040518060c0016040529081600082015481526020016001820180546102de90611da0565b80601f016020809104026020016040519081016040528092919081815260200182805461030a90611da0565b80156103575780601f1061032c57610100808354040283529160200191610357565b820191906000526020600020905b81548152906001019060200180831161033a57829003601f168201915b50505091835250506002820154602080830191909152600383015460ff80821660408086019190915261010090920416606084015260048401805482518185028101850190935280835260809094019391929091908301828280156103db57602002820191906000526020600020905b8154815260200190600101908083116103c7575b5050509190925250505060408101516060820151608083015160a090930151919a90995091975095509350505050565b606060005b82518110156105f15760008481526001602090815260408083206002909252822085519192909186908590811061045757634e487b7160e01b600052603260045260246000fd5b6020026020010151815260200190815260200160002060405161047a9190611a46565b90815260200160405180910390206040518060c0016040529081600082015481526020016001820180546104ad90611da0565b80601f01602080910402602001604051908101604052809291908181526020018280546104d990611da0565b80156105265780601f106104fb57610100808354040283529160200191610526565b820191906000526020600020905b81548152906001019060200180831161050957829003601f168201915b50505091835250506002820154602080830191909152600383015460ff80821660408086019190915261010090920416606084015260048401805482518185028101850190935280835260809094019391929091908301828280156105aa57602002820191906000526020600020905b815481526020019060010190808311610596575b5050505050815250508282815181106105d357634e487b7160e01b600052603260045260246000fd5b602002602001018190525080806105e990611dd5565b915050610410565b5092915050565b60026020908152600092835260408084209091529082529020805461061c90611da0565b80601f016020809104026020016040519081016040528092919081815260200182805461064890611da0565b80156106955780601f1061066a57610100808354040283529160200191610695565b820191906000526020600020905b81548152906001019060200180831161067857829003601f168201915b505050505081565b6001602081815260009384526040909320825180840185018051928152908501939094019290922091909252805491810180546106d990611da0565b80601f016020809104026020016040519081016040528092919081815260200182805461070590611da0565b80156107525780601f1061072757610100808354040283529160200191610752565b820191906000526020600020905b81548152906001019060200180831161073557829003601f168201915b50505050600283015460039093015491929160ff80821692506101009091041685565b606060005b6000838152600360205260409020548110156109365760008381526001602090815260408083206002835281842085855290925291829020915190916107bf91611a46565b90815260200160405180910390206040518060c0016040529081600082015481526020016001820180546107f290611da0565b80601f016020809104026020016040519081016040528092919081815260200182805461081e90611da0565b801561086b5780601f106108405761010080835404028352916020019161086b565b820191906000526020600020905b81548152906001019060200180831161084e57829003601f168201915b50505091835250506002820154602080830191909152600383015460ff80821660408086019190915261010090920416606084015260048401805482518185028101850190935280835260809094019391929091908301828280156108ef57602002820191906000526020600020905b8154815260200190600101908083116108db575b50505050508152505082828151811061091857634e487b7160e01b600052603260045260246000fd5b6020026020010181905250808061092e90611dd5565b91505061077a565b505b919050565b6000546040516308c9a2d560e11b815260048101849052600080516020611e32833981519152602482015233604482015283916201000090046001600160a01b03169063119345aa9060640160206040518083038186803b1580156109a157600080fd5b505afa1580156109b5573d6000803e3d6000fd5b505050506040513d601f19601f820116820180604052508101906109d991906117a8565b6109fe5760405162461bcd60e51b81526004016109f590611be2565b60405180910390fd5b600083815260016020526040908190209051610a1b908490611a2a565b90815260405190819003602001902060020154610a6c5760405162461bcd60e51b815260206004820152600f60248201526e416c7265616479206e6f206461746160881b60448201526064016109f5565b600083815260016020526040908190209051610a89908490611a2a565b9081526040519081900360200190206000808255610aaa600183018261156d565b60006002830181905560038301805461ffff19169055610ace9060048401906115ac565b505081604051610ade9190611a2a565b604051908190038120907fbe6e0faeeb04e5a8d86ebf94c1eee227a9616903e2cb8efd970b3c0bc20c2aac90600090a2505050565b6000546040516308c9a2d560e11b815260048101889052600080516020611e32833981519152602482015233604482015287916201000090046001600160a01b03169063119345aa9060640160206040518083038186803b158015610b7757600080fd5b505afa158015610b8b573d6000803e3d6000fd5b505050506040513d601f19601f82011682018060405250810190610baf91906117a8565b610bcb5760405162461bcd60e51b81526004016109f590611be2565b600087815260016020526040908190209051610be8908890611a2a565b90815260405190819003602001902060020154610c395760405162461bcd60e51b815260206004820152600f60248201526e416c7265616479206e6f206461746160881b60448201526064016109f5565b6000878152600160205260408082209051610c55908990611a2a565b90815260200160405180910390206000015490506040518060c001604052808281526020018881526020018781526020018660ff1681526020018560ff16815260200184815250600160008a815260200190815260200160002088604051610cbd9190611a2a565b9081526020016040518091039020600082015181600001556020820151816001019080519060200190610cf19291906115ca565b50604082015160028201556060820151600382018054608085015160ff9081166101000261ff00199190941660ff19909216919091171691909117905560a08201518051610d4991600484019160209091019061164e565b5050604051610d5a91508890611a2a565b60405180910390207f4783d570b19226cea9e5d0821ae0a45ca1d85fa689d2f7f9808b67e1ef9787608288888888604051610d99959493929190611c8d565b60405180910390a25050505050505050565b6000806000806001600087815260200190815260200160002085604051610dd29190611a2a565b90815260200160405180910390206040518060c001604052908160008201548152602001600182018054610e0590611da0565b80601f0160208091040260200160405190810160405280929190818152602001828054610e3190611da0565b8015610e7e5780601f10610e5357610100808354040283529160200191610e7e565b820191906000526020600020905b815481529060010190602001808311610e6157829003601f168201915b50505091835250506002820154602080830191909152600383015460ff8082166040808601919091526101009092041660608401526004840180548251818502810185019093528083526080909401939192909190830182828015610f0257602002820191906000526020600020905b815481526020019060010190808311610eee575b5050505050815250509050806040015181606001518260800151935093509350509250925092565b60008060029054906101000a90046001600160a01b03166001600160a01b031663f66d544b6040518163ffffffff1660e01b815260040160206040518083038186803b158015610f7957600080fd5b505afa158015610f8d573d6000803e3d6000fd5b505050506040513d601f19601f82011682018060405250810190610fb19190611785565b905090565b6000610fc260016114e8565b90508015610fda576000805461ff0019166101001790555b6000805462010000600160b01b031916620100006001600160a01b038516021790558015611042576000805461ff0019169055604051600181527f7f26b83ff96e1f2b6a682f133852f6798a09c465da95921460cefb38474024989060200160405180910390a15b5050565b6000546040516308c9a2d560e11b815260048101889052600080516020611e32833981519152602482015233604482015287916201000090046001600160a01b03169063119345aa9060640160206040518083038186803b1580156110aa57600080fd5b505afa1580156110be573d6000803e3d6000fd5b505050506040513d601f19601f820116820180604052508101906110e291906117a8565b6110fe5760405162461bcd60e51b81526004016109f590611be2565b60008781526001602052604090819020905161111b908890611a2a565b90815260405190819003602001902060020154156111695760405162461bcd60e51b815260206004820152600b60248201526a105b1c9958591e481cd95d60aa1b60448201526064016109f5565b6040805160c0810182526000898152600360209081528382205483528083018a905282840189905260ff80891660608501528716608084015260a083018690528a82526001905282902091519091906111c3908990611a2a565b90815260200160405180910390206000820151816000015560208201518160010190805190602001906111f79291906115ca565b50604082015160028201556060820151600382018054608085015160ff9081166101000261ff00199190941660ff19909216919091171691909117905560a0820151805161124f91600484019160209091019061164e565b50505060008781526002602090815260408083206003835281842054845282529091208751611280928901906115ca565b508560405161128f9190611a2a565b6040805191829003822060008a81526003602052919091205490917f4783d570b19226cea9e5d0821ae0a45ca1d85fa689d2f7f9808b67e1ef978760916112dd918990899089908990611c8d565b60405180910390a26000878152600360205260409020546112ff906001611d58565b60009788526003602052604090972096909655505050505050565b606060005b82518110156105f1576000848152600160205260408120845185908490811061135857634e487b7160e01b600052603260045260246000fd5b602002602001015160405161136d9190611a2a565b90815260200160405180910390206040518060c0016040529081600082015481526020016001820180546113a090611da0565b80601f01602080910402602001604051908101604052809291908181526020018280546113cc90611da0565b80156114195780601f106113ee57610100808354040283529160200191611419565b820191906000526020600020905b8154815290600101906020018083116113fc57829003601f168201915b50505091835250506002820154602080830191909152600383015460ff808216604080860191909152610100909204166060840152600484018054825181850281018501909352808352608090940193919290919083018282801561149d57602002820191906000526020600020905b815481526020019060010190808311611489575b5050505050815250509050808383815181106114c957634e487b7160e01b600052603260045260246000fd5b60200260200101819052505080806114e090611dd5565b91505061131f565b60008054610100900460ff161561152f578160ff16600114801561150b5750303b155b6115275760405162461bcd60e51b81526004016109f590611c3f565b506000610938565b60005460ff8084169116106115565760405162461bcd60e51b81526004016109f590611c3f565b506000805460ff191660ff83161790556001610938565b50805461157990611da0565b6000825580601f1061158b57506115a9565b601f0160209004906000526020600020908101906115a99190611688565b50565b50805460008255906000526020600020908101906115a99190611688565b8280546115d690611da0565b90600052602060002090601f0160209004810192826115f8576000855561163e565b82601f1061161157805160ff191683800117855561163e565b8280016001018555821561163e579182015b8281111561163e578251825591602001919060010190611623565b5061164a929150611688565b5090565b82805482825590600052602060002090810192821561163e579160200282018281111561163e578251825591602001919060010190611623565b5b8082111561164a5760008155600101611689565b600082601f8301126116ad578081fd5b813560206116c26116bd83611d34565b611d03565b82815281810190858301838502870184018810156116de578586fd5b855b858110156116fc578135845292840192908401906001016116e0565b5090979650505050505050565b600082601f830112611719578081fd5b813567ffffffffffffffff81111561173357611733611e06565b611746601f8201601f1916602001611d03565b81815284602083860101111561175a578283fd5b816020850160208301379081016020019190915292915050565b803560ff8116811461093857600080fd5b600060208284031215611796578081fd5b81516117a181611e1c565b9392505050565b6000602082840312156117b9578081fd5b815180151581146117a1578182fd5b6000602082840312156117d9578081fd5b81356117a181611e1c565b6000602082840312156117f5578081fd5b5035919050565b6000806040838503121561180e578081fd5b8235915060208084013567ffffffffffffffff81111561182c578283fd5b8401601f8101861361183c578283fd5b803561184a6116bd82611d34565b81815283810190838501865b8481101561187f5761186d8b888435890101611709565b84529286019290860190600101611856565b5096999098509650505050505050565b600080604083850312156118a1578182fd5b82359150602083013567ffffffffffffffff8111156118be578182fd5b6118ca8582860161169d565b9150509250929050565b600080604083850312156118e6578182fd5b82359150602083013567ffffffffffffffff811115611903578182fd5b6118ca85828601611709565b60008060008060008060c08789031215611927578182fd5b86359550602087013567ffffffffffffffff80821115611945578384fd5b6119518a838b01611709565b96506040890135955061196660608a01611774565b945061197460808a01611774565b935060a0890135915080821115611989578283fd5b5061199689828a0161169d565b9150509295509295509295565b600080604083850312156119b5578182fd5b50508035926020909101359150565b6000815180845260208085019450808401835b838110156119f3578151875295820195908201906001016119d7565b509495945050505050565b60008151808452611a16816020860160208601611d70565b601f01601f19169290920160200192915050565b60008251611a3c818460208701611d70565b9190910192915050565b8154600090819060028104600180831680611a6257607f831692505b6020808410821415611a8257634e487b7160e01b87526022600452602487fd5b818015611a965760018114611aa757611ad3565b60ff19861689528489019650611ad3565b60008a815260209020885b86811015611acb5781548b820152908501908301611ab2565b505084890196505b509498975050505050505050565b60208082528251828201819052600091906040908185019080840286018301878501865b83811015611b8c57603f19898403018552815160c08151855288820151818a870152611b33828701826119fe565b915050878201518886015260608083015160ff80821683890152608092508083860151168389015250505060a08083015192508582038187015250611b7881836119c4565b968901969450505090860190600101611b05565b509098975050505050505050565b600085825260ff8516602083015260ff8416604083015260806060830152611bc560808301846119c4565b9695505050505050565b6000602082526117a160208301846119fe565b6020808252603d908201527f434f4e54524143545f42415345445f4445504c4f594552207065726d6973736960408201527f6f6e206e6f7420746865726520696e20526f6c65436f6e74726f6c5632000000606082015260800190565b6020808252602e908201527f496e697469616c697a61626c653a20636f6e747261637420697320616c72656160408201526d191e481a5b9a5d1a585b1a5e995960921b606082015260800190565b600086825285602083015260ff8516604083015260ff8416606083015260a06080830152611cbe60a08301846119c4565b979650505050505050565b600086825260a06020830152611ce260a08301876119fe565b60408301959095525060ff9283166060820152911660809091015292915050565b604051601f8201601f1916810167ffffffffffffffff81118282101715611d2c57611d2c611e06565b604052919050565b600067ffffffffffffffff821115611d4e57611d4e611e06565b5060209081020190565b60008219821115611d6b57611d6b611df0565b500190565b60005b83811015611d8b578181015183820152602001611d73565b83811115611d9a576000848401525b50505050565b600281046001821680611db457607f821691505b6020821081141561093657634e487b7160e01b600052602260045260246000fd5b6000600019821415611de957611de9611df0565b5060010190565b634e487b7160e01b600052601160045260246000fd5b634e487b7160e01b600052604160045260246000fd5b6001600160a01b03811681146115a957600080fdfe623badb9039dbbd5d587be00d11d7c8156609448b61d5432194584599d5524d9a264697066735822122022268f5ec5a3353e52f39a9c4c165c91a68549133a000cbd20ed92e448324d6f64736f6c63430008020033",
  "linkReferences": {},
  "deployedLinkReferences": {}
}