{
  "_format": "hh-sol-artifact-1",
  "contractName": "ContractBasedDeploymentV2",
  "sourceName": "contracts/ContractBasedDeploymentV2.sol",
  "abi": [
    {
      "anonymous": false,
      "inputs": [
        {
          "indexed": true,
          "internalType": "string",
          "name": "appName",
          "type": "string"
        }
      ],
      "name": "EntryDeleted",
      "type": "event"
    },
    {
      "anonymous": false,
      "inputs": [
        {
          "indexed": true,
          "internalType": "string",
          "name": "appName",
          "type": "string"
        },
        {
          "indexed": false,
          "internalType": "uint256",
          "name": "appId",
          "type": "uint256"
        },
        {
          "indexed": false,
          "internalType": "bytes32",
          "name": "digest",
          "type": "bytes32"
        },
        {
          "indexed": false,
          "internalType": "uint8",
          "name": "hashFunction",
          "type": "uint8"
        },
        {
          "indexed": false,
          "internalType": "uint8",
          "name": "size",
          "type": "uint8"
        },
        {
          "indexed": false,
          "internalType": "uint256[]",
          "name": "resourceArray",
          "type": "uint256[]"
        }
      ],
      "name": "EntrySet",
      "type": "event"
    },
    {
      "anonymous": false,
      "inputs": [
        {
          "indexed": false,
          "internalType": "uint8",
          "name": "version",
          "type": "uint8"
        }
      ],
      "name": "Initialized",
      "type": "event"
    },
    {
      "inputs": [],
      "name": "CONTRACT_BASED_DEPLOYER",
      "outputs": [
        {
          "internalType": "bytes32",
          "name": "",
          "type": "bytes32"
        }
      ],
      "stateMutability": "view",
      "type": "function"
    },
    {
      "inputs": [],
      "name": "RoleControlV2",
      "outputs": [
        {
          "internalType": "contract IRoleControlV2",
          "name": "",
          "type": "address"
        }
      ],
      "stateMutability": "view",
      "type": "function"
    },
    {
      "inputs": [
        {
          "internalType": "uint256",
          "name": "",
          "type": "uint256"
        },
        {
          "internalType": "uint256",
          "name": "",
          "type": "uint256"
        }
      ],
      "name": "appIDToName",
      "outputs": [
        {
          "internalType": "string",
          "name": "",
          "type": "string"
        }
      ],
      "stateMutability": "view",
      "type": "function"
    },
    {
      "inputs": [
        {
          "internalType": "uint256",
          "name": "_nftId",
          "type": "uint256"
        },
        {
          "internalType": "string",
          "name": "appName",
          "type": "string"
        },
        {
          "internalType": "bytes32",
          "name": "_digest",
          "type": "bytes32"
        },
        {
          "internalType": "uint8",
          "name": "_hashFunction",
          "type": "uint8"
        },
        {
          "internalType": "uint8",
          "name": "_size",
          "type": "uint8"
        },
        {
          "internalType": "uint256[]",
          "name": "_resourceArray",
          "type": "uint256[]"
        }
      ],
      "name": "createData",
      "outputs": [],
      "stateMutability": "nonpayable",
      "type": "function"
    },
    {
      "inputs": [
        {
          "internalType": "uint256",
          "name": "_nftId",
          "type": "uint256"
        },
        {
          "internalType": "string",
          "name": "appName",
          "type": "string"
        }
      ],
      "name": "deleteData",
      "outputs": [],
      "stateMutability": "nonpayable",
      "type": "function"
    },
    {
      "inputs": [
        {
          "internalType": "uint256",
          "name": "",
          "type": "uint256"
        },
        {
          "internalType": "string",
          "name": "",
          "type": "string"
        }
      ],
      "name": "entries",
      "outputs": [
        {
          "internalType": "uint256",
          "name": "appID",
          "type": "uint256"
        },
        {
          "internalType": "string",
          "name": "appName",
          "type": "string"
        },
        {
          "internalType": "bytes32",
          "name": "digest",
          "type": "bytes32"
        },
        {
          "internalType": "uint8",
          "name": "hashFunction",
          "type": "uint8"
        },
        {
          "internalType": "uint8",
          "name": "size",
          "type": "uint8"
        }
      ],
      "stateMutability": "view",
      "type": "function"
    },
    {
      "inputs": [
        {
          "internalType": "uint256",
          "name": "_nftId",
          "type": "uint256"
        },
        {
          "internalType": "string",
          "name": "appName",
          "type": "string"
        }
      ],
      "name": "getData",
      "outputs": [
        {
          "internalType": "bytes32",
          "name": "digest",
          "type": "bytes32"
        },
        {
          "internalType": "uint8",
          "name": "hashfunction",
          "type": "uint8"
        },
        {
          "internalType": "uint8",
          "name": "size",
          "type": "uint8"
        }
      ],
      "stateMutability": "view",
      "type": "function"
    },
    {
      "inputs": [
        {
          "internalType": "uint256",
          "name": "_nftId",
          "type": "uint256"
        }
      ],
      "name": "getDataArray",
      "outputs": [
        {
          "components": [
            {
              "internalType": "uint256",
              "name": "appID",
              "type": "uint256"
            },
            {
              "internalType": "string",
              "name": "appName",
              "type": "string"
            },
            {
              "internalType": "bytes32",
              "name": "digest",
              "type": "bytes32"
            },
            {
              "internalType": "uint8",
              "name": "hashFunction",
              "type": "uint8"
            },
            {
              "internalType": "uint8",
              "name": "size",
              "type": "uint8"
            },
            {
              "internalType": "uint256[]",
              "name": "resourceArray",
              "type": "uint256[]"
            }
          ],
          "internalType": "struct ContractBasedDeploymentV2.Multihash[]",
          "name": "",
          "type": "tuple[]"
        }
      ],
      "stateMutability": "view",
      "type": "function"
    },
    {
      "inputs": [
        {
          "internalType": "uint256",
          "name": "_nftId",
          "type": "uint256"
        },
        {
          "internalType": "uint256[]",
          "name": "AppIds",
          "type": "uint256[]"
        }
      ],
      "name": "getDataByIds",
      "outputs": [
        {
          "components": [
            {
              "internalType": "uint256",
              "name": "appID",
              "type": "uint256"
            },
            {
              "internalType": "string",
              "name": "appName",
              "type": "string"
            },
            {
              "internalType": "bytes32",
              "name": "digest",
              "type": "bytes32"
            },
            {
              "internalType": "uint8",
              "name": "hashFunction",
              "type": "uint8"
            },
            {
              "internalType": "uint8",
              "name": "size",
              "type": "uint8"
            },
            {
              "internalType": "uint256[]",
              "name": "resourceArray",
              "type": "uint256[]"
            }
          ],
          "internalType": "struct ContractBasedDeploymentV2.Multihash[]",
          "name": "",
          "type": "tuple[]"
        }
      ],
      "stateMutability": "view",
      "type": "function"
    },
    {
      "inputs": [
        {
          "internalType": "uint256",
          "name": "_nftId",
          "type": "uint256"
        },
        {
          "internalType": "string[]",
          "name": "_appNames",
          "type": "string[]"
        }
      ],
      "name": "getDataByNames",
      "outputs": [
        {
          "components": [
            {
              "internalType": "uint256",
              "name": "appID",
              "type": "uint256"
            },
            {
              "internalType": "string",
              "name": "appName",
              "type": "string"
            },
            {
              "internalType": "bytes32",
              "name": "digest",
              "type": "bytes32"
            },
            {
              "internalType": "uint8",
              "name": "hashFunction",
              "type": "uint8"
            },
            {
              "internalType": "uint8",
              "name": "size",
              "type": "uint8"
            },
            {
              "internalType": "uint256[]",
              "name": "resourceArray",
              "type": "uint256[]"
            }
          ],
          "internalType": "struct ContractBasedDeploymentV2.Multihash[]",
          "name": "_entries",
          "type": "tuple[]"
        }
      ],
      "stateMutability": "view",
      "type": "function"
    },
    {
      "inputs": [
        {
          "internalType": "uint256",
          "name": "_nftId",
          "type": "uint256"
        },
        {
          "internalType": "string",
          "name": "appName",
          "type": "string"
        }
      ],
      "name": "getFullData",
      "outputs": [
        {
          "internalType": "bytes32",
          "name": "digest",
          "type": "bytes32"
        },
        {
          "internalType": "uint8",
          "name": "hashfunction",
          "type": "uint8"
        },
        {
          "internalType": "uint8",
          "name": "size",
          "type": "uint8"
        },
        {
          "internalType": "uint256[]",
          "name": "_resourceArray",
          "type": "uint256[]"
        }
      ],
      "stateMutability": "view",
      "type": "function"
    },
    {
      "inputs": [],
      "name": "getNFTAddress",
      "outputs": [
        {
          "internalType": "address",
          "name": "",
          "type": "address"
        }
      ],
      "stateMutability": "view",
      "type": "function"
    },
    {
      "inputs": [
        {
          "internalType": "contract IRoleControlV2",
          "name": "_RoleControlV2",
          "type": "address"
        }
      ],
      "name": "initialize",
      "outputs": [],
      "stateMutability": "nonpayable",
      "type": "function"
    },
    {
      "inputs": [
        {
          "internalType": "uint256",
          "name": "_nftId",
          "type": "uint256"
        },
        {
          "internalType": "string",
          "name": "appName",
          "type": "string"
        },
        {
          "internalType": "bytes32",
          "name": "_digest",
          "type": "bytes32"
        },
        {
          "internalType": "uint8",
          "name": "_hashFunction",
          "type": "uint8"
        },
        {
          "internalType": "uint8",
          "name": "_size",
          "type": "uint8"
        },
        {
          "internalType": "uint256[]",
          "name": "_resourceArray",
          "type": "uint256[]"
        }
      ],
      "name": "updateData",
      "outputs": [],
      "stateMutability": "nonpayable",
      "type": "function"
    }
  ],
  "bytecode": "0x608060405234801561001057600080fd5b50612052806100206000396000f3fe608060405234801561001057600080fd5b50600436106100ea5760003560e01c80638a356b001161008c578063b961847811610066578063b961847814610240578063c4d66de814610248578063f13958921461025b578063f30896731461026e576100ea565b80638a356b00146101d85780638a74ec3a146101eb5780638f9c46fb1461020e576100ea565b806343ae4ed0116100c857806343ae4ed01461015b57806355e0ade21461017f578063581b04641461019257806383467cfc146101a7576100ea565b80631382b7db146100ef57806325865abe1461011b5780633ad3c7c01461013b575b600080fd5b6101026100fd366004611b34565b610281565b6040516101129493929190611d5f565b60405180910390f35b61012e610129366004611aef565b61040b565b6040516101129190611ca6565b61014e610149366004611c03565b61071c565b6040516101129190611d94565b61016e610169366004611b34565b6107c1565b604051610112959493929190611e8e565b61012e61018d366004611a44565b610899565b6101a56101a0366004611b34565b610b96565b005b6000546101c0906201000090046001600160a01b031681565b6040516001600160a01b039091168152602001610112565b6101a56101e6366004611b6f565b610d6c565b610200600080516020611ffd83398151915281565b604051908152602001610112565b61022161021c366004611b34565b611004565b6040805193845260ff9283166020850152911690820152606001610112565b6101c0611183565b6101a5610256366004611a28565b61120f565b6101a5610269366004611b6f565b61129f565b61012e61027c366004611a5c565b611573565b60008060006060600060016000888152602001908152602001600020866040516102ab9190611c8a565b90815260200160405180910390206040518060c0016040529081600082015481526020016001820180546102de90611f65565b80601f016020809104026020016040519081016040528092919081815260200182805461030a90611f65565b80156103575780601f1061032c57610100808354040283529160200191610357565b820191906000526020600020905b81548152906001019060200180831161033a57829003601f168201915b50505091835250506002820154602080830191909152600383015460ff80821660408086019190915261010090920416606084015260048401805482518185028101850190935280835260809094019391929091908301828280156103db57602002820191906000526020600020905b8154815260200190600101908083116103c7575b5050509190925250505060408101516060820151608083015160a090930151919a90995091975095509350505050565b60606000825167ffffffffffffffff81111561043757634e487b7160e01b600052604160045260246000fd5b60405190808252806020026020018201604052801561049957816020015b6040805160c0810182526000808252606060208301819052928201819052828201819052608082015260a08101919091528152602001906001900390816104555790505b50905060005b8351811015610714576000858152600260205260408120855182908790859081106104da57634e487b7160e01b600052603260045260246000fd5b6020026020010151815260200190815260200160002080546104fb90611f65565b80601f016020809104026020016040519081016040528092919081815260200182805461052790611f65565b80156105745780601f1061054957610100808354040283529160200191610574565b820191906000526020600020905b81548152906001019060200180831161055757829003601f168201915b50505050509050600160008781526020019081526020016000208160405161059c9190611c8a565b90815260200160405180910390206040518060c0016040529081600082015481526020016001820180546105cf90611f65565b80601f01602080910402602001604051908101604052809291908181526020018280546105fb90611f65565b80156106485780601f1061061d57610100808354040283529160200191610648565b820191906000526020600020905b81548152906001019060200180831161062b57829003601f168201915b50505091835250506002820154602080830191909152600383015460ff80821660408086019190915261010090920416606084015260048401805482518185028101850190935280835260809094019391929091908301828280156106cc57602002820191906000526020600020905b8154815260200190600101908083116106b8575b5050505050815250508383815181106106f557634e487b7160e01b600052603260045260246000fd5b602002602001018190525050808061070c90611fa0565b91505061049f565b509392505050565b60026020908152600092835260408084209091529082529020805461074090611f65565b80601f016020809104026020016040519081016040528092919081815260200182805461076c90611f65565b80156107b95780601f1061078e576101008083540402835291602001916107b9565b820191906000526020600020905b81548152906001019060200180831161079c57829003601f168201915b505050505081565b6001602081815260009384526040909320825180840185018051928152908501939094019290922091909252805491810180546107fd90611f65565b80601f016020809104026020016040519081016040528092919081815260200182805461082990611f65565b80156108765780601f1061084b57610100808354040283529160200191610876565b820191906000526020600020905b81548152906001019060200180831161085957829003601f168201915b50505050600283015460039093015491929160ff80821692506101009091041685565b6000818152600360205260408120546060919067ffffffffffffffff8111156108d257634e487b7160e01b600052604160045260246000fd5b60405190808252806020026020018201604052801561093457816020015b6040805160c0810182526000808252606060208301819052928201819052828201819052608082015260a08101919091528152602001906001900390816108f05790505b50905060005b600084815260036020526040902054811015610b8d5760008481526002602090815260408083208484529091528120805461097490611f65565b80601f01602080910402602001604051908101604052809291908181526020018280546109a090611f65565b80156109ed5780601f106109c2576101008083540402835291602001916109ed565b820191906000526020600020905b8154815290600101906020018083116109d057829003601f168201915b505050505090506001600086815260200190815260200160002081604051610a159190611c8a565b90815260200160405180910390206040518060c001604052908160008201548152602001600182018054610a4890611f65565b80601f0160208091040260200160405190810160405280929190818152602001828054610a7490611f65565b8015610ac15780601f10610a9657610100808354040283529160200191610ac1565b820191906000526020600020905b815481529060010190602001808311610aa457829003601f168201915b50505091835250506002820154602080830191909152600383015460ff8082166040808601919091526101009092041660608401526004840180548251818502810185019093528083526080909401939192909190830182828015610b4557602002820191906000526020600020905b815481526020019060010190808311610b31575b505050505081525050838381518110610b6e57634e487b7160e01b600052603260045260246000fd5b6020026020010181905250508080610b8590611fa0565b91505061093a565b5090505b919050565b6000546040516308c9a2d560e11b815260048101849052600080516020611ffd833981519152602482015233604482015283916201000090046001600160a01b03169063119345aa9060640160206040518083038186803b158015610bfa57600080fd5b505afa158015610c0e573d6000803e3d6000fd5b505050506040513d601f19601f82011682018060405250810190610c329190611a08565b610c575760405162461bcd60e51b8152600401610c4e90611da7565b60405180910390fd5b600083815260016020526040908190209051610c74908490611c8a565b90815260405190819003602001902060020154610cc55760405162461bcd60e51b815260206004820152600f60248201526e416c7265616479206e6f206461746160881b6044820152606401610c4e565b600083815260016020526040908190209051610ce2908490611c8a565b9081526040519081900360200190206000808255610d0360018301826117cd565b60006002830181905560038301805461ffff19169055610d2790600484019061180c565b505081604051610d379190611c8a565b604051908190038120907fbe6e0faeeb04e5a8d86ebf94c1eee227a9616903e2cb8efd970b3c0bc20c2aac90600090a2505050565b6000546040516308c9a2d560e11b815260048101889052600080516020611ffd833981519152602482015233604482015287916201000090046001600160a01b03169063119345aa9060640160206040518083038186803b158015610dd057600080fd5b505afa158015610de4573d6000803e3d6000fd5b505050506040513d601f19601f82011682018060405250810190610e089190611a08565b610e245760405162461bcd60e51b8152600401610c4e90611da7565b600087815260016020526040908190209051610e41908890611c8a565b90815260405190819003602001902060020154610e925760405162461bcd60e51b815260206004820152600f60248201526e416c7265616479206e6f206461746160881b6044820152606401610c4e565b6000878152600160205260408082209051610eae908990611c8a565b90815260200160405180910390206000015490506040518060c001604052808281526020018881526020018781526020018660ff1681526020018560ff16815260200184815250600160008a815260200190815260200160002088604051610f169190611c8a565b9081526020016040518091039020600082015181600001556020820151816001019080519060200190610f4a92919061182a565b50604082015160028201556060820151600382018054608085015160ff9081166101000261ff00199190941660ff19909216919091171691909117905560a08201518051610fa29160048401916020909101906118ae565b5050604051610fb391508890611c8a565b60405180910390207f4783d570b19226cea9e5d0821ae0a45ca1d85fa689d2f7f9808b67e1ef9787608288888888604051610ff2959493929190611e52565b60405180910390a25050505050505050565b600080600080600160008781526020019081526020016000208560405161102b9190611c8a565b90815260200160405180910390206040518060c00160405290816000820154815260200160018201805461105e90611f65565b80601f016020809104026020016040519081016040528092919081815260200182805461108a90611f65565b80156110d75780601f106110ac576101008083540402835291602001916110d7565b820191906000526020600020905b8154815290600101906020018083116110ba57829003601f168201915b50505091835250506002820154602080830191909152600383015460ff808216604080860191909152610100909204166060840152600484018054825181850281018501909352808352608090940193919290919083018282801561115b57602002820191906000526020600020905b815481526020019060010190808311611147575b5050505050815250509050806040015181606001518260800151935093509350509250925092565b60008060029054906101000a90046001600160a01b03166001600160a01b031663f66d544b6040518163ffffffff1660e01b815260040160206040518083038186803b1580156111d257600080fd5b505afa1580156111e6573d6000803e3d6000fd5b505050506040513d601f19601f8201168201806040525081019061120a91906119e5565b905090565b600061121b6001611748565b90508015611233576000805461ff0019166101001790555b6000805462010000600160b01b031916620100006001600160a01b03851602179055801561129b576000805461ff0019169055604051600181527f7f26b83ff96e1f2b6a682f133852f6798a09c465da95921460cefb38474024989060200160405180910390a15b5050565b6000546040516308c9a2d560e11b815260048101889052600080516020611ffd833981519152602482015233604482015287916201000090046001600160a01b03169063119345aa9060640160206040518083038186803b15801561130357600080fd5b505afa158015611317573d6000803e3d6000fd5b505050506040513d601f19601f8201168201806040525081019061133b9190611a08565b6113575760405162461bcd60e51b8152600401610c4e90611da7565b600087815260016020526040908190209051611374908890611c8a565b90815260405190819003602001902060020154156113c25760405162461bcd60e51b815260206004820152600b60248201526a105b1c9958591e481cd95d60aa1b6044820152606401610c4e565b6040805160c0810182526000898152600360209081528382205483528083018a905282840189905260ff80891660608501528716608084015260a083018690528a825260019052829020915190919061141c908990611c8a565b908152602001604051809103902060008201518160000155602082015181600101908051906020019061145092919061182a565b50604082015160028201556060820151600382018054608085015160ff9081166101000261ff00199190941660ff19909216919091171691909117905560a082015180516114a89160048401916020909101906118ae565b505050600087815260026020908152604080832060038352818420548452825290912087516114d99289019061182a565b50856040516114e89190611c8a565b6040805191829003822060008a81526003602052919091205490917f4783d570b19226cea9e5d0821ae0a45ca1d85fa689d2f7f9808b67e1ef97876091611536918990899089908990611e52565b60405180910390a2600087815260036020526040902054611558906001611f1d565b60009788526003602052604090972096909655505050505050565b606060005b825181101561174157600084815260016020526040812084518590849081106115b157634e487b7160e01b600052603260045260246000fd5b60200260200101516040516115c69190611c8a565b90815260200160405180910390206040518060c0016040529081600082015481526020016001820180546115f990611f65565b80601f016020809104026020016040519081016040528092919081815260200182805461162590611f65565b80156116725780601f1061164757610100808354040283529160200191611672565b820191906000526020600020905b81548152906001019060200180831161165557829003601f168201915b50505091835250506002820154602080830191909152600383015460ff80821660408086019190915261010090920416606084015260048401805482518185028101850190935280835260809094019391929091908301828280156116f657602002820191906000526020600020905b8154815260200190600101908083116116e2575b50505050508152505090508083838151811061172257634e487b7160e01b600052603260045260246000fd5b602002602001018190525050808061173990611fa0565b915050611578565b5092915050565b60008054610100900460ff161561178f578160ff16600114801561176b5750303b155b6117875760405162461bcd60e51b8152600401610c4e90611e04565b506000610b91565b60005460ff8084169116106117b65760405162461bcd60e51b8152600401610c4e90611e04565b506000805460ff191660ff83161790556001610b91565b5080546117d990611f65565b6000825580601f106117eb5750611809565b601f01602090049060005260206000209081019061180991906118e8565b50565b508054600082559060005260206000209081019061180991906118e8565b82805461183690611f65565b90600052602060002090601f016020900481019282611858576000855561189e565b82601f1061187157805160ff191683800117855561189e565b8280016001018555821561189e579182015b8281111561189e578251825591602001919060010190611883565b506118aa9291506118e8565b5090565b82805482825590600052602060002090810192821561189e579160200282018281111561189e578251825591602001919060010190611883565b5b808211156118aa57600081556001016118e9565b600082601f83011261190d578081fd5b8135602061192261191d83611ef9565b611ec8565b828152818101908583018385028701840188101561193e578586fd5b855b8581101561195c57813584529284019290840190600101611940565b5090979650505050505050565b600082601f830112611979578081fd5b813567ffffffffffffffff81111561199357611993611fd1565b6119a6601f8201601f1916602001611ec8565b8181528460208386010111156119ba578283fd5b816020850160208301379081016020019190915292915050565b803560ff81168114610b9157600080fd5b6000602082840312156119f6578081fd5b8151611a0181611fe7565b9392505050565b600060208284031215611a19578081fd5b81518015158114611a01578182fd5b600060208284031215611a39578081fd5b8135611a0181611fe7565b600060208284031215611a55578081fd5b5035919050565b60008060408385031215611a6e578081fd5b8235915060208084013567ffffffffffffffff811115611a8c578283fd5b8401601f81018613611a9c578283fd5b8035611aaa61191d82611ef9565b81815283810190838501865b84811015611adf57611acd8b888435890101611969565b84529286019290860190600101611ab6565b5096999098509650505050505050565b60008060408385031215611b01578182fd5b82359150602083013567ffffffffffffffff811115611b1e578182fd5b611b2a858286016118fd565b9150509250929050565b60008060408385031215611b46578182fd5b82359150602083013567ffffffffffffffff811115611b63578182fd5b611b2a85828601611969565b60008060008060008060c08789031215611b87578182fd5b86359550602087013567ffffffffffffffff80821115611ba5578384fd5b611bb18a838b01611969565b965060408901359550611bc660608a016119d4565b9450611bd460808a016119d4565b935060a0890135915080821115611be9578283fd5b50611bf689828a016118fd565b9150509295509295509295565b60008060408385031215611c15578182fd5b50508035926020909101359150565b6000815180845260208085019450808401835b83811015611c5357815187529582019590820190600101611c37565b509495945050505050565b60008151808452611c76816020860160208601611f35565b601f01601f19169290920160200192915050565b60008251611c9c818460208701611f35565b9190910192915050565b60208082528251828201819052600091906040908185019080840286018301878501865b83811015611d5157603f19898403018552815160c08151855288820151818a870152611cf882870182611c5e565b915050878201518886015260608083015160ff80821683890152608092508083860151168389015250505060a08083015192508582038187015250611d3d8183611c24565b968901969450505090860190600101611cca565b509098975050505050505050565b600085825260ff8516602083015260ff8416604083015260806060830152611d8a6080830184611c24565b9695505050505050565b600060208252611a016020830184611c5e565b6020808252603d908201527f434f4e54524143545f42415345445f4445504c4f594552207065726d6973736960408201527f6f6e206e6f7420746865726520696e20526f6c65436f6e74726f6c5632000000606082015260800190565b6020808252602e908201527f496e697469616c697a61626c653a20636f6e747261637420697320616c72656160408201526d191e481a5b9a5d1a585b1a5e995960921b606082015260800190565b600086825285602083015260ff8516604083015260ff8416606083015260a06080830152611e8360a0830184611c24565b979650505050505050565b600086825260a06020830152611ea760a0830187611c5e565b60408301959095525060ff9283166060820152911660809091015292915050565b604051601f8201601f1916810167ffffffffffffffff81118282101715611ef157611ef1611fd1565b604052919050565b600067ffffffffffffffff821115611f1357611f13611fd1565b5060209081020190565b60008219821115611f3057611f30611fbb565b500190565b60005b83811015611f50578181015183820152602001611f38565b83811115611f5f576000848401525b50505050565b600281046001821680611f7957607f821691505b60208210811415611f9a57634e487b7160e01b600052602260045260246000fd5b50919050565b6000600019821415611fb457611fb4611fbb565b5060010190565b634e487b7160e01b600052601160045260246000fd5b634e487b7160e01b600052604160045260246000fd5b6001600160a01b038116811461180957600080fdfe623badb9039dbbd5d587be00d11d7c8156609448b61d5432194584599d5524d9a2646970667358221220e61916d45f870c11361b86d77a0a6cfd889828a32d387b944af0cbc18968e54b64736f6c63430008020033",
  "linkReferences": {},
  "deployedLinkReferences": {}
}