{
  "_format": "hh-sol-artifact-1",
  "contractName": "ModuleManager",
  "sourceName": "@gnosis.pm/safe-contracts/contracts/base/ModuleManager.sol",
  "abi": [
    {
      "anonymous": false,
      "inputs": [
        {
          "indexed": false,
          "internalType": "address",
          "name": "module",
          "type": "address"
        }
      ],
      "name": "DisabledModule",
      "type": "event"
    },
    {
      "anonymous": false,
      "inputs": [
        {
          "indexed": false,
          "internalType": "address",
          "name": "module",
          "type": "address"
        }
      ],
      "name": "EnabledModule",
      "type": "event"
    },
    {
      "anonymous": false,
      "inputs": [
        {
          "indexed": true,
          "internalType": "address",
          "name": "module",
          "type": "address"
        }
      ],
      "name": "ExecutionFromModuleFailure",
      "type": "event"
    },
    {
      "anonymous": false,
      "inputs": [
        {
          "indexed": true,
          "internalType": "address",
          "name": "module",
          "type": "address"
        }
      ],
      "name": "ExecutionFromModuleSuccess",
      "type": "event"
    },
    {
      "inputs": [
        {
          "internalType": "address",
          "name": "prevModule",
          "type": "address"
        },
        {
          "internalType": "address",
          "name": "module",
          "type": "address"
        }
      ],
      "name": "disableModule",
      "outputs": [],
      "stateMutability": "nonpayable",
      "type": "function"
    },
    {
      "inputs": [
        {
          "internalType": "address",
          "name": "module",
          "type": "address"
        }
      ],
      "name": "enableModule",
      "outputs": [],
      "stateMutability": "nonpayable",
      "type": "function"
    },
    {
      "inputs": [
        {
          "internalType": "address",
          "name": "to",
          "type": "address"
        },
        {
          "internalType": "uint256",
          "name": "value",
          "type": "uint256"
        },
        {
          "internalType": "bytes",
          "name": "data",
          "type": "bytes"
        },
        {
          "internalType": "enum Enum.Operation",
          "name": "operation",
          "type": "uint8"
        }
      ],
      "name": "execTransactionFromModule",
      "outputs": [
        {
          "internalType": "bool",
          "name": "success",
          "type": "bool"
        }
      ],
      "stateMutability": "nonpayable",
      "type": "function"
    },
    {
      "inputs": [
        {
          "internalType": "address",
          "name": "to",
          "type": "address"
        },
        {
          "internalType": "uint256",
          "name": "value",
          "type": "uint256"
        },
        {
          "internalType": "bytes",
          "name": "data",
          "type": "bytes"
        },
        {
          "internalType": "enum Enum.Operation",
          "name": "operation",
          "type": "uint8"
        }
      ],
      "name": "execTransactionFromModuleReturnData",
      "outputs": [
        {
          "internalType": "bool",
          "name": "success",
          "type": "bool"
        },
        {
          "internalType": "bytes",
          "name": "returnData",
          "type": "bytes"
        }
      ],
      "stateMutability": "nonpayable",
      "type": "function"
    },
    {
      "inputs": [
        {
          "internalType": "address",
          "name": "start",
          "type": "address"
        },
        {
          "internalType": "uint256",
          "name": "pageSize",
          "type": "uint256"
        }
      ],
      "name": "getModulesPaginated",
      "outputs": [
        {
          "internalType": "address[]",
          "name": "array",
          "type": "address[]"
        },
        {
          "internalType": "address",
          "name": "next",
          "type": "address"
        }
      ],
      "stateMutability": "view",
      "type": "function"
    },
    {
      "inputs": [
        {
          "internalType": "address",
          "name": "module",
          "type": "address"
        }
      ],
      "name": "isModuleEnabled",
      "outputs": [
        {
          "internalType": "bool",
          "name": "",
          "type": "bool"
        }
      ],
      "stateMutability": "view",
      "type": "function"
    }
  ],
  "bytecode": "0x608060405234801561001057600080fd5b50610910806100206000396000f3fe608060405234801561001057600080fd5b50600436106100625760003560e01c80632d9ad53d14610067578063468721a71461008f5780635229073f146100a2578063610b5925146100c3578063cc2f8452146100d8578063e009cfde146100f9575b600080fd5b61007a610075366004610691565b61010c565b60405190151581526020015b60405180910390f35b61007a61009d36600461070d565b610149565b6100b56100b036600461070d565b610225565b604051610086929190610840565b6100d66100d1366004610691565b61025b565b005b6100eb6100e63660046106e4565b61039b565b6040516100869291906107e3565b6100d66101073660046106b2565b6104b0565b600060016001600160a01b0383161480159061014157506001600160a01b038281166000908152602081905260409020541615155b90505b919050565b6000336001148015906101735750336000908152602081905260409020546001600160a01b031615155b6101ac5760405162461bcd60e51b815260206004820152600560248201526411d4cc4c0d60da1b60448201526064015b60405180910390fd5b6101b9858585855a6105dc565b905080156101f15760405133907f6895c13664aa4f67288b25d7a21d7aaa34916e355fb9b6fae0a139a9085becb890600090a261021d565b60405133907facd2c8702804128fdb0db2bb49f6d127dd0181c13fd45dbfe16de0930e2bd37590600090a25b949350505050565b6000606061023586868686610149565b915060405160203d0181016040523d81523d6000602083013e8091505094509492505050565b610263610632565b6001600160a01b0381161580159061028557506001600160a01b038116600114155b6102b95760405162461bcd60e51b8152602060048201526005602482015264475331303160d81b60448201526064016101a3565b6001600160a01b0381811660009081526020819052604090205416156103095760405162461bcd60e51b815260206004820152600560248201526423a998981960d91b60448201526064016101a3565b600060208181527fada5013122d395ba3c54772283fb069b10426056ef8ca54750cb9bb552a59e7d80546001600160a01b0385811680865260408087208054939094166001600160a01b03199384161790935560019095528254168417909155519182527fecdf3a3effea5783a3c4c2140e677577666428d44ed9d474a0b3a4c9943f8440910160405180910390a150565b606060008267ffffffffffffffff8111156103c657634e487b7160e01b600052604160045260246000fd5b6040519080825280602002602001820160405280156103ef578160200160208202803683370190505b506001600160a01b0380861660009081526020819052604081205492945091165b6001600160a01b0381161580159061043257506001600160a01b038116600114155b801561043d57508482105b156104a2578084838151811061046357634e487b7160e01b600052603260045260246000fd5b6001600160a01b03928316602091820292909201810191909152918116600090815291829052604090912054168161049a8161089d565b925050610410565b908352919491935090915050565b6104b8610632565b6001600160a01b038116158015906104da57506001600160a01b038116600114155b61050e5760405162461bcd60e51b8152602060048201526005602482015264475331303160d81b60448201526064016101a3565b6001600160a01b038281166000908152602081905260409020548116908216146105625760405162461bcd60e51b8152602060048201526005602482015264475331303360d81b60448201526064016101a3565b6001600160a01b03818116600081815260208181526040808320805488871685528285208054919097166001600160a01b03199182161790965592849052825490941690915591519081527faab4fa2b463f581b2b32cb3b7e3b704b9ce37cc209b5fb4d77e593ace4054276910160405180910390a15050565b6000600183600181111561060057634e487b7160e01b600052602160045260246000fd5b1415610619576000808551602087018986f49050610629565b600080855160208701888a87f190505b95945050505050565b3330146106695760405162461bcd60e51b8152602060048201526005602482015264475330333160d81b60448201526064016101a3565b565b80356001600160a01b038116811461014457600080fd5b80356002811061014457600080fd5b6000602082840312156106a2578081fd5b6106ab8261066b565b9392505050565b600080604083850312156106c4578081fd5b6106cd8361066b565b91506106db6020840161066b565b90509250929050565b600080604083850312156106f6578182fd5b6106ff8361066b565b946020939093013593505050565b60008060008060808587031215610722578182fd5b61072b8561066b565b935060208501359250604085013567ffffffffffffffff8082111561074e578384fd5b818701915087601f830112610761578384fd5b813581811115610773576107736108c4565b604051601f8201601f19908116603f0116810190838211818310171561079b5761079b6108c4565b816040528281528a60208487010111156107b3578687fd5b826020860160208301379182016020019590955293506107d891505060608601610682565b905092959194509250565b604080825283519082018190526000906020906060840190828701845b828110156108255781516001600160a01b031684529284019290840190600101610800565b5050506001600160a01b039490941692019190915250919050565b6000831515825260206040818401528351806040850152825b8181101561087557858101830151858201606001528201610859565b818111156108865783606083870101525b50601f01601f191692909201606001949350505050565b60006000198214156108bd57634e487b7160e01b81526011600452602481fd5b5060010190565b634e487b7160e01b600052604160045260246000fdfea26469706673582212206f532149008cbf53a85634a3a57f67ba8b0e7ea268c5954370e645d3662d0c1264736f6c63430008020033",
  "linkReferences": {},
  "deployedLinkReferences": {}
}