{
  "_format": "hh-sol-artifact-1",
  "contractName": "TestXCTERC20",
  "sourceName": "contracts/TestXCTERC20.sol",
  "abi": [
    {
      "anonymous": false,
      "inputs": [
        {
          "indexed": true,
          "internalType": "address",
          "name": "owner",
          "type": "address"
        },
        {
          "indexed": true,
          "internalType": "address",
          "name": "spender",
          "type": "address"
        },
        {
          "indexed": false,
          "internalType": "uint256",
          "name": "value",
          "type": "uint256"
        }
      ],
      "name": "Approval",
      "type": "event"
    },
    {
      "anonymous": false,
      "inputs": [
        {
          "indexed": false,
          "internalType": "uint8",
          "name": "version",
          "type": "uint8"
        }
      ],
      "name": "Initialized",
      "type": "event"
    },
    {
      "anonymous": false,
      "inputs": [
        {
          "indexed": true,
          "internalType": "bytes32",
          "name": "role",
          "type": "bytes32"
        },
        {
          "indexed": true,
          "internalType": "bytes32",
          "name": "previousAdminRole",
          "type": "bytes32"
        },
        {
          "indexed": true,
          "internalType": "bytes32",
          "name": "newAdminRole",
          "type": "bytes32"
        }
      ],
      "name": "RoleAdminChanged",
      "type": "event"
    },
    {
      "anonymous": false,
      "inputs": [
        {
          "indexed": true,
          "internalType": "bytes32",
          "name": "role",
          "type": "bytes32"
        },
        {
          "indexed": true,
          "internalType": "address",
          "name": "account",
          "type": "address"
        },
        {
          "indexed": true,
          "internalType": "address",
          "name": "sender",
          "type": "address"
        }
      ],
      "name": "RoleGranted",
      "type": "event"
    },
    {
      "anonymous": false,
      "inputs": [
        {
          "indexed": true,
          "internalType": "bytes32",
          "name": "role",
          "type": "bytes32"
        },
        {
          "indexed": true,
          "internalType": "address",
          "name": "account",
          "type": "address"
        },
        {
          "indexed": true,
          "internalType": "address",
          "name": "sender",
          "type": "address"
        }
      ],
      "name": "RoleRevoked",
      "type": "event"
    },
    {
      "anonymous": false,
      "inputs": [
        {
          "indexed": true,
          "internalType": "address",
          "name": "from",
          "type": "address"
        },
        {
          "indexed": true,
          "internalType": "address",
          "name": "to",
          "type": "address"
        },
        {
          "indexed": false,
          "internalType": "uint256",
          "name": "value",
          "type": "uint256"
        }
      ],
      "name": "Transfer",
      "type": "event"
    },
    {
      "inputs": [],
      "name": "DEFAULT_ADMIN_ROLE",
      "outputs": [
        {
          "internalType": "bytes32",
          "name": "",
          "type": "bytes32"
        }
      ],
      "stateMutability": "view",
      "type": "function"
    },
    {
      "inputs": [],
      "name": "MINTER_ROLE",
      "outputs": [
        {
          "internalType": "bytes32",
          "name": "",
          "type": "bytes32"
        }
      ],
      "stateMutability": "view",
      "type": "function"
    },
    {
      "inputs": [
        {
          "internalType": "address",
          "name": "owner",
          "type": "address"
        },
        {
          "internalType": "address",
          "name": "spender",
          "type": "address"
        }
      ],
      "name": "allowance",
      "outputs": [
        {
          "internalType": "uint256",
          "name": "",
          "type": "uint256"
        }
      ],
      "stateMutability": "view",
      "type": "function"
    },
    {
      "inputs": [
        {
          "internalType": "address",
          "name": "spender",
          "type": "address"
        },
        {
          "internalType": "uint256",
          "name": "amount",
          "type": "uint256"
        }
      ],
      "name": "approve",
      "outputs": [
        {
          "internalType": "bool",
          "name": "",
          "type": "bool"
        }
      ],
      "stateMutability": "nonpayable",
      "type": "function"
    },
    {
      "inputs": [
        {
          "internalType": "address",
          "name": "account",
          "type": "address"
        }
      ],
      "name": "balanceOf",
      "outputs": [
        {
          "internalType": "uint256",
          "name": "",
          "type": "uint256"
        }
      ],
      "stateMutability": "view",
      "type": "function"
    },
    {
      "inputs": [
        {
          "internalType": "uint256",
          "name": "amount",
          "type": "uint256"
        }
      ],
      "name": "burn",
      "outputs": [],
      "stateMutability": "nonpayable",
      "type": "function"
    },
    {
      "inputs": [
        {
          "internalType": "address",
          "name": "account",
          "type": "address"
        },
        {
          "internalType": "uint256",
          "name": "amount",
          "type": "uint256"
        }
      ],
      "name": "burnFrom",
      "outputs": [],
      "stateMutability": "nonpayable",
      "type": "function"
    },
    {
      "inputs": [],
      "name": "decimals",
      "outputs": [
        {
          "internalType": "uint8",
          "name": "",
          "type": "uint8"
        }
      ],
      "stateMutability": "view",
      "type": "function"
    },
    {
      "inputs": [
        {
          "internalType": "address",
          "name": "spender",
          "type": "address"
        },
        {
          "internalType": "uint256",
          "name": "subtractedValue",
          "type": "uint256"
        }
      ],
      "name": "decreaseAllowance",
      "outputs": [
        {
          "internalType": "bool",
          "name": "",
          "type": "bool"
        }
      ],
      "stateMutability": "nonpayable",
      "type": "function"
    },
    {
      "inputs": [
        {
          "internalType": "bytes32",
          "name": "role",
          "type": "bytes32"
        }
      ],
      "name": "getRoleAdmin",
      "outputs": [
        {
          "internalType": "bytes32",
          "name": "",
          "type": "bytes32"
        }
      ],
      "stateMutability": "view",
      "type": "function"
    },
    {
      "inputs": [
        {
          "internalType": "bytes32",
          "name": "role",
          "type": "bytes32"
        },
        {
          "internalType": "address",
          "name": "account",
          "type": "address"
        }
      ],
      "name": "grantRole",
      "outputs": [],
      "stateMutability": "nonpayable",
      "type": "function"
    },
    {
      "inputs": [
        {
          "internalType": "bytes32",
          "name": "role",
          "type": "bytes32"
        },
        {
          "internalType": "address",
          "name": "account",
          "type": "address"
        }
      ],
      "name": "hasRole",
      "outputs": [
        {
          "internalType": "bool",
          "name": "",
          "type": "bool"
        }
      ],
      "stateMutability": "view",
      "type": "function"
    },
    {
      "inputs": [
        {
          "internalType": "address",
          "name": "spender",
          "type": "address"
        },
        {
          "internalType": "uint256",
          "name": "addedValue",
          "type": "uint256"
        }
      ],
      "name": "increaseAllowance",
      "outputs": [
        {
          "internalType": "bool",
          "name": "",
          "type": "bool"
        }
      ],
      "stateMutability": "nonpayable",
      "type": "function"
    },
    {
      "inputs": [],
      "name": "initialize",
      "outputs": [],
      "stateMutability": "nonpayable",
      "type": "function"
    },
    {
      "inputs": [
        {
          "internalType": "address",
          "name": "to",
          "type": "address"
        },
        {
          "internalType": "uint256",
          "name": "amount",
          "type": "uint256"
        }
      ],
      "name": "mint",
      "outputs": [],
      "stateMutability": "nonpayable",
      "type": "function"
    },
    {
      "inputs": [],
      "name": "name",
      "outputs": [
        {
          "internalType": "string",
          "name": "",
          "type": "string"
        }
      ],
      "stateMutability": "view",
      "type": "function"
    },
    {
      "inputs": [
        {
          "internalType": "bytes32",
          "name": "role",
          "type": "bytes32"
        },
        {
          "internalType": "address",
          "name": "account",
          "type": "address"
        }
      ],
      "name": "renounceRole",
      "outputs": [],
      "stateMutability": "nonpayable",
      "type": "function"
    },
    {
      "inputs": [
        {
          "internalType": "bytes32",
          "name": "role",
          "type": "bytes32"
        },
        {
          "internalType": "address",
          "name": "account",
          "type": "address"
        }
      ],
      "name": "revokeRole",
      "outputs": [],
      "stateMutability": "nonpayable",
      "type": "function"
    },
    {
      "inputs": [
        {
          "internalType": "bytes4",
          "name": "interfaceId",
          "type": "bytes4"
        }
      ],
      "name": "supportsInterface",
      "outputs": [
        {
          "internalType": "bool",
          "name": "",
          "type": "bool"
        }
      ],
      "stateMutability": "view",
      "type": "function"
    },
    {
      "inputs": [],
      "name": "symbol",
      "outputs": [
        {
          "internalType": "string",
          "name": "",
          "type": "string"
        }
      ],
      "stateMutability": "view",
      "type": "function"
    },
    {
      "inputs": [],
      "name": "totalSupply",
      "outputs": [
        {
          "internalType": "uint256",
          "name": "",
          "type": "uint256"
        }
      ],
      "stateMutability": "view",
      "type": "function"
    },
    {
      "inputs": [
        {
          "internalType": "address",
          "name": "to",
          "type": "address"
        },
        {
          "internalType": "uint256",
          "name": "amount",
          "type": "uint256"
        }
      ],
      "name": "transfer",
      "outputs": [
        {
          "internalType": "bool",
          "name": "",
          "type": "bool"
        }
      ],
      "stateMutability": "nonpayable",
      "type": "function"
    },
    {
      "inputs": [
        {
          "internalType": "address",
          "name": "from",
          "type": "address"
        },
        {
          "internalType": "address",
          "name": "to",
          "type": "address"
        },
        {
          "internalType": "uint256",
          "name": "amount",
          "type": "uint256"
        }
      ],
      "name": "transferFrom",
      "outputs": [
        {
          "internalType": "bool",
          "name": "",
          "type": "bool"
        }
      ],
      "stateMutability": "nonpayable",
      "type": "function"
    }
  ],
  "bytecode": "0x608060405234801561001057600080fd5b50611560806100206000396000f3fe608060405234801561001057600080fd5b506004361061014d5760003560e01c806342966c68116100c3578063a217fddf1161007c578063a217fddf146102b9578063a457c2d7146102c1578063a9059cbb146102d4578063d5391393146102e7578063d547741f1461030e578063dd62ed3e146103215761014d565b806342966c681461024757806370a082311461025a57806379cc6790146102835780638129fc1c1461029657806391d148541461029e57806395d89b41146102b15761014d565b8063248a9ca311610115578063248a9ca3146101c75780632f2ff15d146101ea578063313ce567146101ff57806336568abe1461020e578063395093511461022157806340c10f19146102345761014d565b806301ffc9a71461015257806306fdde031461017a578063095ea7b31461018f57806318160ddd146101a257806323b872dd146101b4575b600080fd5b6101656101603660046112df565b610334565b60405190151581526020015b60405180910390f35b61018261036d565b604051610171919061137c565b61016561019d36600461127c565b6103ff565b6067545b604051908152602001610171565b6101656101c2366004611241565b610417565b6101a66101d53660046112a5565b60009081526097602052604090206001015490565b6101fd6101f83660046112bd565b61043b565b005b60405160128152602001610171565b6101fd61021c3660046112bd565b610465565b61016561022f36600461127c565b6104e8565b6101fd61024236600461127c565b61050a565b6101fd6102553660046112a5565b61053e565b6101a66102683660046111f5565b6001600160a01b031660009081526065602052604090205490565b6101fd61029136600461127c565b61054b565b6101fd610560565b6101656102ac3660046112bd565b610658565b610182610683565b6101a6600081565b6101656102cf36600461127c565b610692565b6101656102e236600461127c565b61070d565b6101a67f9f2df0fed2c77648de5860a4cc508cd0818c85b8b8a1ab4ceeef8d981c8956a681565b6101fd61031c3660046112bd565b61071b565b6101a661032f36600461120f565b610740565b60006001600160e01b03198216637965db0b60e01b148061036557506301ffc9a760e01b6001600160e01b03198316145b90505b919050565b60606068805461037c906114d9565b80601f01602080910402602001604051908101604052809291908181526020018280546103a8906114d9565b80156103f55780601f106103ca576101008083540402835291602001916103f5565b820191906000526020600020905b8154815290600101906020018083116103d857829003601f168201915b5050505050905090565b60003361040d81858561076b565b5060019392505050565b60003361042585828561088f565b610430858585610909565b506001949350505050565b60008281526097602052604090206001015461045681610ad7565b6104608383610ae1565b505050565b6001600160a01b03811633146104da5760405162461bcd60e51b815260206004820152602f60248201527f416363657373436f6e74726f6c3a2063616e206f6e6c792072656e6f756e636560448201526e103937b632b9903337b91039b2b63360891b60648201526084015b60405180910390fd5b6104e48282610b67565b5050565b60003361040d8185856104fb8383610740565b6105059190611448565b61076b565b7f9f2df0fed2c77648de5860a4cc508cd0818c85b8b8a1ab4ceeef8d981c8956a661053481610ad7565b6104608383610bce565b6105483382610cae565b50565b61055682338361088f565b6104e48282610cae565b600061056c6001610dfc565b90508015610584576000805461ff0019166101001790555b6105d36040518060400160405280600c81526020016b05465737458435445524332360a41b8152506040518060400160405280600981526020016805458435445524332360bc1b815250610e81565b6105db610ecf565b6105e6600033610ae1565b6106107f9f2df0fed2c77648de5860a4cc508cd0818c85b8b8a1ab4ceeef8d981c8956a633610ae1565b8015610548576000805461ff0019169055604051600181527f7f26b83ff96e1f2b6a682f133852f6798a09c465da95921460cefb38474024989060200160405180910390a150565b60009182526097602090815260408084206001600160a01b0393909316845291905290205460ff1690565b60606069805461037c906114d9565b600033816106a08286610740565b9050838110156107005760405162461bcd60e51b815260206004820152602560248201527f45524332303a2064656372656173656420616c6c6f77616e63652062656c6f77604482015264207a65726f60d81b60648201526084016104d1565b610430828686840361076b565b60003361040d818585610909565b60008281526097602052604090206001015461073681610ad7565b6104608383610b67565b6001600160a01b03918216600090815260666020908152604080832093909416825291909152205490565b6001600160a01b0383166107cd5760405162461bcd60e51b8152602060048201526024808201527f45524332303a20617070726f76652066726f6d20746865207a65726f206164646044820152637265737360e01b60648201526084016104d1565b6001600160a01b03821661082e5760405162461bcd60e51b815260206004820152602260248201527f45524332303a20617070726f766520746f20746865207a65726f206164647265604482015261737360f01b60648201526084016104d1565b6001600160a01b0383811660008181526066602090815260408083209487168084529482529182902085905590518481527f8c5be1e5ebec7d5bd14f71427d1e84f3dd0314c0f7b2291e5b200ac8c7c3b925910160405180910390a3505050565b600061089b8484610740565b9050600019811461090357818110156108f65760405162461bcd60e51b815260206004820152601d60248201527f45524332303a20696e73756666696369656e7420616c6c6f77616e636500000060448201526064016104d1565b610903848484840361076b565b50505050565b6001600160a01b03831661096d5760405162461bcd60e51b815260206004820152602560248201527f45524332303a207472616e736665722066726f6d20746865207a65726f206164604482015264647265737360d81b60648201526084016104d1565b6001600160a01b0382166109cf5760405162461bcd60e51b815260206004820152602360248201527f45524332303a207472616e7366657220746f20746865207a65726f206164647260448201526265737360e81b60648201526084016104d1565b6001600160a01b03831660009081526065602052604090205481811015610a475760405162461bcd60e51b815260206004820152602660248201527f45524332303a207472616e7366657220616d6f756e7420657863656564732062604482015265616c616e636560d01b60648201526084016104d1565b6001600160a01b03808516600090815260656020526040808220858503905591851681529081208054849290610a7e908490611448565b92505081905550826001600160a01b0316846001600160a01b03167fddf252ad1be2c89b69c2b068fc378daa952ba7f163c4a11628f55a4df523b3ef84604051610aca91815260200190565b60405180910390a3610903565b6105488133610ef8565b610aeb8282610658565b6104e45760008281526097602090815260408083206001600160a01b03851684529091529020805460ff19166001179055610b233390565b6001600160a01b0316816001600160a01b0316837f2f8788117e7eff1d82e926ec794901d17c78024a50270940304540a733656f0d60405160405180910390a45050565b610b718282610658565b156104e45760008281526097602090815260408083206001600160a01b0385168085529252808320805460ff1916905551339285917ff6391f5c32d9c69d2a47ea670b442974b53935d1edc7fd64eb21e047a839171b9190a45050565b6001600160a01b038216610c245760405162461bcd60e51b815260206004820152601f60248201527f45524332303a206d696e7420746f20746865207a65726f20616464726573730060448201526064016104d1565b8060676000828254610c369190611448565b90915550506001600160a01b03821660009081526065602052604081208054839290610c63908490611448565b90915550506040518181526001600160a01b038316906000907fddf252ad1be2c89b69c2b068fc378daa952ba7f163c4a11628f55a4df523b3ef9060200160405180910390a36104e4565b6001600160a01b038216610d0e5760405162461bcd60e51b815260206004820152602160248201527f45524332303a206275726e2066726f6d20746865207a65726f206164647265736044820152607360f81b60648201526084016104d1565b6001600160a01b03821660009081526065602052604090205481811015610d825760405162461bcd60e51b815260206004820152602260248201527f45524332303a206275726e20616d6f756e7420657863656564732062616c616e604482015261636560f01b60648201526084016104d1565b6001600160a01b0383166000908152606560205260408120838303905560678054849290610db190849061147f565b90915550506040518281526000906001600160a01b038516907fddf252ad1be2c89b69c2b068fc378daa952ba7f163c4a11628f55a4df523b3ef9060200160405180910390a3610460565b60008054610100900460ff1615610e43578160ff166001148015610e1f5750303b155b610e3b5760405162461bcd60e51b81526004016104d1906113af565b506000610368565b60005460ff808416911610610e6a5760405162461bcd60e51b81526004016104d1906113af565b506000805460ff191660ff83161790556001610368565b600054610100900460ff16610ea85760405162461bcd60e51b81526004016104d1906113fd565b8151610ebb906068906020850190611145565b508051610460906069906020840190611145565b600054610100900460ff16610ef65760405162461bcd60e51b81526004016104d1906113fd565b565b610f028282610658565b6104e457610f1a816001600160a01b03166014610f5c565b610f25836020610f5c565b604051602001610f36929190611307565b60408051601f198184030181529082905262461bcd60e51b82526104d19160040161137c565b60606000610f6b836002611460565b610f76906002611448565b67ffffffffffffffff811115610f9c57634e487b7160e01b600052604160045260246000fd5b6040519080825280601f01601f191660200182016040528015610fc6576020820181803683370190505b509050600360fc1b81600081518110610fef57634e487b7160e01b600052603260045260246000fd5b60200101906001600160f81b031916908160001a905350600f60fb1b8160018151811061102c57634e487b7160e01b600052603260045260246000fd5b60200101906001600160f81b031916908160001a9053506000611050846002611460565b61105b906001611448565b90505b60018111156110ef576f181899199a1a9b1b9c1cb0b131b232b360811b85600f166010811061109d57634e487b7160e01b600052603260045260246000fd5b1a60f81b8282815181106110c157634e487b7160e01b600052603260045260246000fd5b60200101906001600160f81b031916908160001a90535060049490941c936110e8816114c2565b905061105e565b50831561113e5760405162461bcd60e51b815260206004820181905260248201527f537472696e67733a20686578206c656e67746820696e73756666696369656e7460448201526064016104d1565b9392505050565b828054611151906114d9565b90600052602060002090601f01602090048101928261117357600085556111b9565b82601f1061118c57805160ff19168380011785556111b9565b828001600101855582156111b9579182015b828111156111b957825182559160200191906001019061119e565b506111c59291506111c9565b5090565b5b808211156111c557600081556001016111ca565b80356001600160a01b038116811461036857600080fd5b600060208284031215611206578081fd5b61113e826111de565b60008060408385031215611221578081fd5b61122a836111de565b9150611238602084016111de565b90509250929050565b600080600060608486031215611255578081fd5b61125e846111de565b925061126c602085016111de565b9150604084013590509250925092565b6000806040838503121561128e578182fd5b611297836111de565b946020939093013593505050565b6000602082840312156112b6578081fd5b5035919050565b600080604083850312156112cf578182fd5b82359150611238602084016111de565b6000602082840312156112f0578081fd5b81356001600160e01b03198116811461113e578182fd5b60007f416363657373436f6e74726f6c3a206163636f756e74200000000000000000008252835161133f816017850160208801611496565b7001034b99036b4b9b9b4b733903937b6329607d1b6017918401918201528351611370816028840160208801611496565b01602801949350505050565b600060208252825180602084015261139b816040850160208701611496565b601f01601f19169190910160400192915050565b6020808252602e908201527f496e697469616c697a61626c653a20636f6e747261637420697320616c72656160408201526d191e481a5b9a5d1a585b1a5e995960921b606082015260800190565b6020808252602b908201527f496e697469616c697a61626c653a20636f6e7472616374206973206e6f74206960408201526a6e697469616c697a696e6760a81b606082015260800190565b6000821982111561145b5761145b611514565b500190565b600081600019048311821515161561147a5761147a611514565b500290565b60008282101561149157611491611514565b500390565b60005b838110156114b1578181015183820152602001611499565b838111156109035750506000910152565b6000816114d1576114d1611514565b506000190190565b6002810460018216806114ed57607f821691505b6020821081141561150e57634e487b7160e01b600052602260045260246000fd5b50919050565b634e487b7160e01b600052601160045260246000fdfea26469706673582212209875cd70af1132ce0504b116c46eb63394999411cb202b503b7c639af231b88964736f6c63430008020033",
  "linkReferences": {},
  "deployedLinkReferences": {}
}