{
  "_format": "hh-sol-artifact-1",
  "contractName": "SubnetDAODistributor",
  "sourceName": "contracts/SubnetDAODistributor.sol",
  "abi": [
    {
      "anonymous": false,
      "inputs": [
        {
          "indexed": false,
          "internalType": "uint8",
          "name": "version",
          "type": "uint8"
        }
      ],
      "name": "Initialized",
      "type": "event"
    },
    {
      "anonymous": false,
      "inputs": [
        {
          "indexed": false,
          "internalType": "address",
          "name": "account",
          "type": "address"
        }
      ],
      "name": "Paused",
      "type": "event"
    },
    {
      "anonymous": false,
      "inputs": [
        {
          "indexed": false,
          "internalType": "address",
          "name": "revenueAddress",
          "type": "address"
        },
        {
          "indexed": false,
          "internalType": "uint256",
          "name": "revenueAmt",
          "type": "uint256"
        }
      ],
      "name": "RevenueClaimedFor",
      "type": "event"
    },
    {
      "anonymous": false,
      "inputs": [
        {
          "indexed": false,
          "internalType": "uint256",
          "name": "subnetId",
          "type": "uint256"
        }
      ],
      "name": "RevenueCollected",
      "type": "event"
    },
    {
      "anonymous": false,
      "inputs": [],
      "name": "RevenuesAssignedToAll",
      "type": "event"
    },
    {
      "anonymous": false,
      "inputs": [
        {
          "indexed": true,
          "internalType": "bytes32",
          "name": "role",
          "type": "bytes32"
        },
        {
          "indexed": true,
          "internalType": "bytes32",
          "name": "previousAdminRole",
          "type": "bytes32"
        },
        {
          "indexed": true,
          "internalType": "bytes32",
          "name": "newAdminRole",
          "type": "bytes32"
        }
      ],
      "name": "RoleAdminChanged",
      "type": "event"
    },
    {
      "anonymous": false,
      "inputs": [
        {
          "indexed": true,
          "internalType": "bytes32",
          "name": "role",
          "type": "bytes32"
        },
        {
          "indexed": true,
          "internalType": "address",
          "name": "account",
          "type": "address"
        },
        {
          "indexed": true,
          "internalType": "address",
          "name": "sender",
          "type": "address"
        }
      ],
      "name": "RoleGranted",
      "type": "event"
    },
    {
      "anonymous": false,
      "inputs": [
        {
          "indexed": true,
          "internalType": "bytes32",
          "name": "role",
          "type": "bytes32"
        },
        {
          "indexed": true,
          "internalType": "address",
          "name": "account",
          "type": "address"
        },
        {
          "indexed": true,
          "internalType": "address",
          "name": "sender",
          "type": "address"
        }
      ],
      "name": "RoleRevoked",
      "type": "event"
    },
    {
      "anonymous": false,
      "inputs": [
        {
          "indexed": false,
          "internalType": "address",
          "name": "account",
          "type": "address"
        }
      ],
      "name": "Unpaused",
      "type": "event"
    },
    {
      "anonymous": false,
      "inputs": [
        {
          "indexed": false,
          "internalType": "uint256",
          "name": "subnetId",
          "type": "uint256"
        },
        {
          "indexed": false,
          "internalType": "address",
          "name": "revenueAddress",
          "type": "address"
        },
        {
          "indexed": false,
          "internalType": "uint256",
          "name": "weight",
          "type": "uint256"
        }
      ],
      "name": "WeightAdded",
      "type": "event"
    },
    {
      "anonymous": false,
      "inputs": [
        {
          "indexed": false,
          "internalType": "uint256",
          "name": "subnetId",
          "type": "uint256"
        }
      ],
      "name": "WeightReset",
      "type": "event"
    },
    {
      "inputs": [],
      "name": "DEFAULT_ADMIN_ROLE",
      "outputs": [
        {
          "internalType": "bytes32",
          "name": "",
          "type": "bytes32"
        }
      ],
      "stateMutability": "view",
      "type": "function"
    },
    {
      "inputs": [],
      "name": "Registration",
      "outputs": [
        {
          "internalType": "contract IRegistration",
          "name": "",
          "type": "address"
        }
      ],
      "stateMutability": "view",
      "type": "function"
    },
    {
      "inputs": [],
      "name": "SubscriptionBalanceCalculator",
      "outputs": [
        {
          "internalType": "contract IBalanceCalculator",
          "name": "",
          "type": "address"
        }
      ],
      "stateMutability": "view",
      "type": "function"
    },
    {
      "inputs": [],
      "name": "XCTToken",
      "outputs": [
        {
          "internalType": "contract IERC20Upgradeable",
          "name": "",
          "type": "address"
        }
      ],
      "stateMutability": "view",
      "type": "function"
    },
    {
      "inputs": [
        {
          "internalType": "uint256",
          "name": "subnetId",
          "type": "uint256"
        },
        {
          "internalType": "address",
          "name": "_revenueAddress",
          "type": "address"
        },
        {
          "internalType": "uint256",
          "name": "_weight",
          "type": "uint256"
        }
      ],
      "name": "addWeight",
      "outputs": [],
      "stateMutability": "nonpayable",
      "type": "function"
    },
    {
      "inputs": [
        {
          "internalType": "uint256",
          "name": "subnetId",
          "type": "uint256"
        }
      ],
      "name": "assignRevenues",
      "outputs": [],
      "stateMutability": "nonpayable",
      "type": "function"
    },
    {
      "inputs": [
        {
          "internalType": "address",
          "name": "",
          "type": "address"
        }
      ],
      "name": "balanceOfAssignedRevenue",
      "outputs": [
        {
          "internalType": "uint256",
          "name": "",
          "type": "uint256"
        }
      ],
      "stateMutability": "view",
      "type": "function"
    },
    {
      "inputs": [],
      "name": "claimAllRevenue",
      "outputs": [],
      "stateMutability": "nonpayable",
      "type": "function"
    },
    {
      "inputs": [
        {
          "internalType": "address",
          "name": "revAddress",
          "type": "address"
        }
      ],
      "name": "claimAllRevenueFor",
      "outputs": [],
      "stateMutability": "nonpayable",
      "type": "function"
    },
    {
      "inputs": [
        {
          "internalType": "uint256",
          "name": "subnetId",
          "type": "uint256"
        }
      ],
      "name": "collectAndAssignRevenues",
      "outputs": [],
      "stateMutability": "nonpayable",
      "type": "function"
    },
    {
      "inputs": [
        {
          "internalType": "uint256",
          "name": "subnetId",
          "type": "uint256"
        }
      ],
      "name": "collectRevenueToDistribute",
      "outputs": [],
      "stateMutability": "nonpayable",
      "type": "function"
    },
    {
      "inputs": [
        {
          "internalType": "uint256",
          "name": "",
          "type": "uint256"
        }
      ],
      "name": "commitAssigned",
      "outputs": [
        {
          "internalType": "uint256",
          "name": "",
          "type": "uint256"
        }
      ],
      "stateMutability": "view",
      "type": "function"
    },
    {
      "inputs": [
        {
          "internalType": "uint256",
          "name": "subnetId",
          "type": "uint256"
        },
        {
          "internalType": "uint256",
          "name": "revenue",
          "type": "uint256"
        }
      ],
      "name": "commitAssignedFor",
      "outputs": [
        {
          "internalType": "bool",
          "name": "",
          "type": "bool"
        }
      ],
      "stateMutability": "nonpayable",
      "type": "function"
    },
    {
      "inputs": [
        {
          "internalType": "bytes32",
          "name": "role",
          "type": "bytes32"
        }
      ],
      "name": "getRoleAdmin",
      "outputs": [
        {
          "internalType": "bytes32",
          "name": "",
          "type": "bytes32"
        }
      ],
      "stateMutability": "view",
      "type": "function"
    },
    {
      "inputs": [
        {
          "internalType": "uint256",
          "name": "subnetId",
          "type": "uint256"
        },
        {
          "internalType": "address",
          "name": "revenueAddress",
          "type": "address"
        }
      ],
      "name": "getWeightsFor",
      "outputs": [
        {
          "internalType": "uint256",
          "name": "",
          "type": "uint256"
        }
      ],
      "stateMutability": "view",
      "type": "function"
    },
    {
      "inputs": [
        {
          "internalType": "bytes32",
          "name": "role",
          "type": "bytes32"
        },
        {
          "internalType": "address",
          "name": "account",
          "type": "address"
        }
      ],
      "name": "grantRole",
      "outputs": [],
      "stateMutability": "nonpayable",
      "type": "function"
    },
    {
      "inputs": [
        {
          "internalType": "bytes32",
          "name": "role",
          "type": "bytes32"
        },
        {
          "internalType": "address",
          "name": "account",
          "type": "address"
        }
      ],
      "name": "hasRole",
      "outputs": [
        {
          "internalType": "bool",
          "name": "",
          "type": "bool"
        }
      ],
      "stateMutability": "view",
      "type": "function"
    },
    {
      "inputs": [
        {
          "internalType": "contract IERC20Upgradeable",
          "name": "_XCTToken",
          "type": "address"
        },
        {
          "internalType": "contract IBalanceCalculator",
          "name": "_SubscriptionBalanceCalculator",
          "type": "address"
        },
        {
          "internalType": "contract IRegistration",
          "name": "_Registration",
          "type": "address"
        }
      ],
      "name": "initialize",
      "outputs": [],
      "stateMutability": "nonpayable",
      "type": "function"
    },
    {
      "inputs": [],
      "name": "paused",
      "outputs": [
        {
          "internalType": "bool",
          "name": "",
          "type": "bool"
        }
      ],
      "stateMutability": "view",
      "type": "function"
    },
    {
      "inputs": [
        {
          "internalType": "contract IERC1155Upgradeable",
          "name": "token",
          "type": "address"
        },
        {
          "internalType": "uint256",
          "name": "tokenId",
          "type": "uint256"
        },
        {
          "internalType": "uint256",
          "name": "amount",
          "type": "uint256"
        }
      ],
      "name": "recoverERC1155",
      "outputs": [],
      "stateMutability": "nonpayable",
      "type": "function"
    },
    {
      "inputs": [
        {
          "internalType": "contract IERC721Upgradeable",
          "name": "token",
          "type": "address"
        },
        {
          "internalType": "uint256",
          "name": "tokenId",
          "type": "uint256"
        }
      ],
      "name": "recoverERC721",
      "outputs": [],
      "stateMutability": "nonpayable",
      "type": "function"
    },
    {
      "inputs": [
        {
          "internalType": "uint256",
          "name": "amount",
          "type": "uint256"
        }
      ],
      "name": "recoverETH",
      "outputs": [],
      "stateMutability": "nonpayable",
      "type": "function"
    },
    {
      "inputs": [
        {
          "internalType": "contract IERC20Upgradeable",
          "name": "token",
          "type": "address"
        }
      ],
      "name": "recoverTokens",
      "outputs": [],
      "stateMutability": "nonpayable",
      "type": "function"
    },
    {
      "inputs": [
        {
          "internalType": "bytes32",
          "name": "role",
          "type": "bytes32"
        },
        {
          "internalType": "address",
          "name": "account",
          "type": "address"
        }
      ],
      "name": "renounceRole",
      "outputs": [],
      "stateMutability": "nonpayable",
      "type": "function"
    },
    {
      "inputs": [
        {
          "internalType": "uint256",
          "name": "subnetId",
          "type": "uint256"
        }
      ],
      "name": "resetWeights",
      "outputs": [],
      "stateMutability": "nonpayable",
      "type": "function"
    },
    {
      "inputs": [
        {
          "internalType": "uint256",
          "name": "",
          "type": "uint256"
        },
        {
          "internalType": "uint256",
          "name": "",
          "type": "uint256"
        }
      ],
      "name": "revenueAddresses",
      "outputs": [
        {
          "internalType": "address",
          "name": "",
          "type": "address"
        }
      ],
      "stateMutability": "view",
      "type": "function"
    },
    {
      "inputs": [
        {
          "internalType": "uint256",
          "name": "",
          "type": "uint256"
        }
      ],
      "name": "revenueCollectedToDistribute",
      "outputs": [
        {
          "internalType": "uint256",
          "name": "",
          "type": "uint256"
        }
      ],
      "stateMutability": "view",
      "type": "function"
    },
    {
      "inputs": [
        {
          "internalType": "bytes32",
          "name": "role",
          "type": "bytes32"
        },
        {
          "internalType": "address",
          "name": "account",
          "type": "address"
        }
      ],
      "name": "revokeRole",
      "outputs": [],
      "stateMutability": "nonpayable",
      "type": "function"
    },
    {
      "inputs": [
        {
          "internalType": "bytes4",
          "name": "interfaceId",
          "type": "bytes4"
        }
      ],
      "name": "supportsInterface",
      "outputs": [
        {
          "internalType": "bool",
          "name": "",
          "type": "bool"
        }
      ],
      "stateMutability": "view",
      "type": "function"
    },
    {
      "inputs": [
        {
          "internalType": "uint256",
          "name": "",
          "type": "uint256"
        }
      ],
      "name": "totalWeights",
      "outputs": [
        {
          "internalType": "uint256",
          "name": "",
          "type": "uint256"
        }
      ],
      "stateMutability": "view",
      "type": "function"
    },
    {
      "inputs": [
        {
          "internalType": "uint256",
          "name": "",
          "type": "uint256"
        },
        {
          "internalType": "address",
          "name": "",
          "type": "address"
        }
      ],
      "name": "weights",
      "outputs": [
        {
          "internalType": "uint256",
          "name": "",
          "type": "uint256"
        }
      ],
      "stateMutability": "view",
      "type": "function"
    }
  ],
  "bytecode": "0x608060405234801561001057600080fd5b50611d7d806100206000396000f3fe608060405234801561001057600080fd5b50600436106101e55760003560e01c8063819d4cc61161010f578063cbaa1d9b116100a2578063e1c08da111610071578063e1c08da11461047c578063e8a379191461049c578063e998edf2146104af578063ed6d9226146104c2576101e5565b8063cbaa1d9b14610423578063d333555314610436578063d547741f14610449578063de4a637c1461045c576101e5565b8063ae3457ea116100de578063ae3457ea146103ca578063b4538c3d146103dd578063b62e1efc146103f0578063c0c53b8b14610410576101e5565b8063819d4cc6146103895780638b3703911461039c57806391d14854146103af578063a217fddf146103c2576101e5565b80633381e1ca116101875780635c975abb116101565780635c975abb1461032d5780636b2c3e3e14610338578063747265bd1461034b5780638104e81e14610353576101e5565b80633381e1ca146102c957806336568abe146102dc5780634164c367146102ef5780634fb274611461031a576101e5565b806316114acd116101c357806316114acd14610253578063248a9ca3146102685780632f2ff15d1461028b5780632fc84de81461029e576101e5565b806301ffc9a7146101ea5780630d8cadde14610212578063105fa3a314610240575b600080fd5b6101fd6101f8366004611949565b6104d5565b60405190151581526020015b60405180910390f35b610232610220366004611902565b60d06020526000908152604090205481565b604051908152602001610209565b6101fd61024e366004611a7b565b61050e565b6102666102613660046118c6565b6105ed565b005b610232610276366004611902565b60009081526097602052604090206001015490565b61026661029936600461191a565b61068a565b60ca546102b1906001600160a01b031681565b6040516001600160a01b039091168152602001610209565b6102666102d7366004611902565b6106b4565b6102666102ea36600461191a565b610893565b6102326102fd366004611a32565b60cc60209081526000928352604080842090915290825290205481565b610266610328366004611902565b61090d565b60335460ff166101fd565b610266610346366004611a44565b610abf565b610266610cdb565b610232610361366004611a32565b600091825260cc602090815260408084206001600160a01b0393909316845291905290205490565b6102666103973660046119ef565b610ce6565b6102b16103aa366004611a7b565b610d5c565b6101fd6103bd36600461191a565b610d94565b610232600081565b6102666103d8366004611902565b610dbf565b6102666103eb366004611902565b610efa565b6102326103fe366004611902565b60cd6020526000908152604090205481565b61026661041e3660046119a5565b610f0f565b610266610431366004611971565b610fb8565b610266610444366004611902565b61104f565b61026661045736600461191a565b611087565b61023261046a3660046118c6565b60cf6020526000908152604090205481565b61023261048a366004611902565b60ce6020526000908152604090205481565b60cb546102b1906001600160a01b031681565b60c9546102b1906001600160a01b031681565b6102666104d03660046118c6565b6110ac565b60006001600160e01b03198216637965db0b60e01b148061050657506301ffc9a760e01b6001600160e01b03198316145b90505b919050565b60c9546000906001600160a01b031633146105bc5760405162461bcd60e51b815260206004820152605960248201527f537562736372697074696f6e42616c616e636543616c63756c61746f7220636160448201527f6e206f6e6c792063616c6c20746869732066756e6374696f6e20746f20636f6d60648201527f6d697420726576656e756520666f72207375626e657420696400000000000000608482015260a4015b60405180910390fd5b600083815260d060205260409020546105d590836111ae565b600084815260d0602052604090205550600192915050565b60006105f8816111c1565b6040516370a0823160e01b81523060048201526106869033906001600160a01b038516906370a082319060240160206040518083038186803b15801561063d57600080fd5b505afa158015610651573d6000803e3d6000fd5b505050506040513d601f19601f820116820180604052508101906106759190611a1a565b6001600160a01b03851691906111cb565b5050565b6000828152609760205260409020600101546106a5816111c1565b6106af838361121d565b505050565b60c954604051630215c5cb60e41b81523060048201526001600160a01b039091169063215c5cb090602401600060405180830381600087803b1580156106f957600080fd5b505af115801561070d573d6000803e3d6000fd5b505060ca546040516370a0823160e01b8152306004820152600093506001600160a01b0390911691506370a082319060240160206040518083038186803b15801561075757600080fd5b505afa15801561076b573d6000803e3d6000fd5b505050506040513d601f19601f8201168201806040525081019061078f9190611a1a565b600083815260d060205260409020549091508110156108165760405162461bcd60e51b815260206004820152603760248201527f436f6d6d69746564206973206d6f7265207468616e20636f6c6c65637465642060448201527f726576656e75652077697468696e20636f6e747261637400000000000000000060648201526084016105b3565b600082815260d0602090815260408083205460ce9092529091205461083a916111ae565b600083815260ce602090815260408083209390935560d0905281812055517f57af161438f8fdc89d286da9e49368f4583497e141ba2de6efa3977569193f0b906108879084815260200190565b60405180910390a15050565b6001600160a01b03811633146109035760405162461bcd60e51b815260206004820152602f60248201527f416363657373436f6e74726f6c3a2063616e206f6e6c792072656e6f756e636560448201526e103937b632b9903337b91039b2b63360891b60648201526084016105b3565b61068682826112a3565b60cb5481906001600160a01b03163314806109a5575060cb5460405163eff49d2b60e01b8152600481018390523360248201526001600160a01b039091169063eff49d2b9060440160206040518083038186803b15801561096d57600080fd5b505afa158015610981573d6000803e3d6000fd5b505050506040513d601f19601f820116820180604052508101906109a591906118e2565b6109c15760405162461bcd60e51b81526004016105b390611b60565b606060005b600084815260d16020526040902054811015610a4e57600084815260cc6020908152604080832060d19092528220805483919085908110610a1757634e487b7160e01b600052603260045260246000fd5b60009182526020808320909101546001600160a01b0316835282019290925260400190205580610a4681611d01565b9150506109c6565b50600083815260d1602090815260409091208251610a6e9284019061184c565b50600083815260cd602052604080822091909155517ff591585612b01984cce357d7ce3fd91f7802659abf69c3fb5d0f7bee574fc39c90610ab29085815260200190565b60405180910390a1505050565b60cb5483906001600160a01b0316331480610b57575060cb5460405163eff49d2b60e01b8152600481018390523360248201526001600160a01b039091169063eff49d2b9060440160206040518083038186803b158015610b1f57600080fd5b505afa158015610b33573d6000803e3d6000fd5b505050506040513d601f19601f82011682018060405250810190610b5791906118e2565b610b735760405162461bcd60e51b81526004016105b390611b60565b600084815260d1602052604090205415610b9057610b9084610efa565b600084815260cc602090815260408083206001600160a01b0387168452909152902054610c1957600084815260d16020908152604080832080546001810182559084528284200180546001600160a01b0319166001600160a01b03881617905586835260cd909152902054610c0590836111ae565b600085815260cd6020526040902055610c6d565b600084815260cc602090815260408083206001600160a01b038716845282528083205487845260cd90925290912054610c5d9190610c5790856111ae565b9061130a565b600085815260cd60205260409020555b600084815260cc602090815260408083206001600160a01b038716808552908352928190208590558051878152918201929092529081018390527f5ac215d6e85ae6074ef95b9feeda3de620155ef53d0c098d2c653d70c90a4d4b906060015b60405180910390a150505050565b610ce4336110ac565b565b6000610cf1816111c1565b604051632142170760e11b8152306004820152336024820152604481018390526001600160a01b038416906342842e0e90606401600060405180830381600087803b158015610d3f57600080fd5b505af1158015610d53573d6000803e3d6000fd5b50505050505050565b60d16020528160005260406000208181548110610d7857600080fd5b6000918252602090912001546001600160a01b03169150829050565b60009182526097602090815260408084206001600160a01b0393909316845291905290205460ff1690565b60005b600082815260d16020526040902054811015610ebf57600082815260d160205260408120805483908110610e0657634e487b7160e01b600052603260045260246000fd5b600091825260208083209091015485835260cc825260408084206001600160a01b039092168085529183528084205487855260cd84528185205460ce909452908420549194509290610e65908390610e5f908690611316565b90611322565b6001600160a01b038516600090815260cf6020526040902054909150610e8b90826111ae565b6001600160a01b03909416600090815260cf602052604090209390935550829150610eb7905081611d01565b915050610dc2565b50600081815260ce6020526040808220829055517f308f8b2688a73f3bff9a66f9f84894e56331d78d995106deaecb5eb33f7696109190a150565b610f03816106b4565b610f0c81610dbf565b50565b6000610f1b600161132e565b90508015610f33576000805461ff0019166101001790555b60ca80546001600160a01b038087166001600160a01b03199283161790925560cb805485841690831617905560c98054928616929091169190911790558015610fb2576000805461ff0019169055604051600181527f7f26b83ff96e1f2b6a682f133852f6798a09c465da95921460cefb384740249890602001610ccd565b50505050565b6000610fc3816111c1565b604051637921219560e11b8152306004820152336024820152604481018490526064810183905260a06084820152600260a482015261060f60f31b60c48201526001600160a01b0385169063f242432a9060e401600060405180830381600087803b15801561103157600080fd5b505af1158015611045573d6000803e3d6000fd5b5050505050505050565b600061105a816111c1565b604051339083156108fc029084906000818181858888f193505050501580156106af573d6000803e3d6000fd5b6000828152609760205260409020600101546110a2816111c1565b6106af83836112a3565b60ca546001600160a01b03828116600081815260cf60205260409081902054905163a9059cbb60e01b81526004810192909252602482015291169063a9059cbb90604401602060405180830381600087803b15801561110a57600080fd5b505af115801561111e573d6000803e3d6000fd5b505050506040513d601f19601f8201168201806040525081019061114291906118e2565b506001600160a01b038116600081815260cf6020908152604091829020548251938452908301527f07870126df4a56599b0f4e10c5fe3342062e19a194d09dda990df993c1d8a34a910160405180910390a16001600160a01b0316600090815260cf6020526040812055565b60006111ba8284611c50565b9392505050565b610f0c81336113b3565b604080516001600160a01b038416602482015260448082018490528251808303909101815260649091019091526020810180516001600160e01b031663a9059cbb60e01b1790526106af908490611417565b6112278282610d94565b6106865760008281526097602090815260408083206001600160a01b03851684529091529020805460ff1916600117905561125f3390565b6001600160a01b0316816001600160a01b0316837f2f8788117e7eff1d82e926ec794901d17c78024a50270940304540a733656f0d60405160405180910390a45050565b6112ad8282610d94565b156106865760008281526097602090815260408083206001600160a01b0385168085529252808320805460ff1916905551339285917ff6391f5c32d9c69d2a47ea670b442974b53935d1edc7fd64eb21e047a839171b9190a45050565b60006111ba8284611ca7565b60006111ba8284611c88565b60006111ba8284611c68565b60008054610100900460ff1615611375578160ff1660011480156113515750303b155b61136d5760405162461bcd60e51b81526004016105b390611c02565b506000610509565b60005460ff80841691161061139c5760405162461bcd60e51b81526004016105b390611c02565b506000805460ff191660ff83161790556001610509565b6113bd8282610d94565b610686576113d5816001600160a01b031660146114e9565b6113e08360206114e9565b6040516020016113f1929190611ab8565b60408051601f198184030181529082905262461bcd60e51b82526105b391600401611b2d565b600061146c826040518060400160405280602081526020017f5361666545524332303a206c6f772d6c6576656c2063616c6c206661696c6564815250856001600160a01b03166116cb9092919063ffffffff16565b8051909150156106af578080602001905181019061148a91906118e2565b6106af5760405162461bcd60e51b815260206004820152602a60248201527f5361666545524332303a204552433230206f7065726174696f6e20646964206e6044820152691bdd081cdd58d8d9595960b21b60648201526084016105b3565b606060006114f8836002611c88565b611503906002611c50565b67ffffffffffffffff81111561152957634e487b7160e01b600052604160045260246000fd5b6040519080825280601f01601f191660200182016040528015611553576020820181803683370190505b509050600360fc1b8160008151811061157c57634e487b7160e01b600052603260045260246000fd5b60200101906001600160f81b031916908160001a905350600f60fb1b816001815181106115b957634e487b7160e01b600052603260045260246000fd5b60200101906001600160f81b031916908160001a90535060006115dd846002611c88565b6115e8906001611c50565b90505b600181111561167c576f181899199a1a9b1b9c1cb0b131b232b360811b85600f166010811061162a57634e487b7160e01b600052603260045260246000fd5b1a60f81b82828151811061164e57634e487b7160e01b600052603260045260246000fd5b60200101906001600160f81b031916908160001a90535060049490941c9361167581611cea565b90506115eb565b5083156111ba5760405162461bcd60e51b815260206004820181905260248201527f537472696e67733a20686578206c656e67746820696e73756666696369656e7460448201526064016105b3565b60606116da84846000856116e2565b949350505050565b6060824710156117435760405162461bcd60e51b815260206004820152602660248201527f416464726573733a20696e73756666696369656e742062616c616e636520666f6044820152651c8818d85b1b60d21b60648201526084016105b3565b6001600160a01b0385163b61179a5760405162461bcd60e51b815260206004820152601d60248201527f416464726573733a2063616c6c20746f206e6f6e2d636f6e747261637400000060448201526064016105b3565b600080866001600160a01b031685876040516117b69190611a9c565b60006040518083038185875af1925050503d80600081146117f3576040519150601f19603f3d011682016040523d82523d6000602084013e6117f8565b606091505b5091509150611808828286611813565b979650505050505050565b606083156118225750816111ba565b8251156118325782518084602001fd5b8160405162461bcd60e51b81526004016105b39190611b2d565b8280548282559060005260206000209081019282156118a1579160200282015b828111156118a157825182546001600160a01b0319166001600160a01b0390911617825560209092019160019091019061186c565b506118ad9291506118b1565b5090565b5b808211156118ad57600081556001016118b2565b6000602082840312156118d7578081fd5b81356111ba81611d32565b6000602082840312156118f3578081fd5b815180151581146111ba578182fd5b600060208284031215611913578081fd5b5035919050565b6000806040838503121561192c578081fd5b82359150602083013561193e81611d32565b809150509250929050565b60006020828403121561195a578081fd5b81356001600160e01b0319811681146111ba578182fd5b600080600060608486031215611985578081fd5b833561199081611d32565b95602085013595506040909401359392505050565b6000806000606084860312156119b9578283fd5b83356119c481611d32565b925060208401356119d481611d32565b915060408401356119e481611d32565b809150509250925092565b60008060408385031215611a01578182fd5b8235611a0c81611d32565b946020939093013593505050565b600060208284031215611a2b578081fd5b5051919050565b6000806040838503121561192c578182fd5b600080600060608486031215611a58578283fd5b833592506020840135611a6a81611d32565b929592945050506040919091013590565b60008060408385031215611a8d578182fd5b50508035926020909101359150565b60008251611aae818460208701611cbe565b9190910192915050565b60007f416363657373436f6e74726f6c3a206163636f756e742000000000000000000082528351611af0816017850160208801611cbe565b7001034b99036b4b9b9b4b733903937b6329607d1b6017918401918201528351611b21816028840160208801611cbe565b01602801949350505050565b6000602082528251806020840152611b4c816040850160208701611cbe565b601f01601f19169190910160400192915050565b60208082526076908201527f526567697374726174696f6e3a204f6e6c7920526567697374726174696f6e2060408201527f636f6e7472616374206f722057484954454c4953545f524f4c45206f72204c6f60608201527f63616c2044414f2063616e206164642f7265736574207765696768747320746f6080820152752077686974656c69737465642061646472657373657360501b60a082015260c00190565b6020808252602e908201527f496e697469616c697a61626c653a20636f6e747261637420697320616c72656160408201526d191e481a5b9a5d1a585b1a5e995960921b606082015260800190565b60008219821115611c6357611c63611d1c565b500190565b600082611c8357634e487b7160e01b81526012600452602481fd5b500490565b6000816000190483118215151615611ca257611ca2611d1c565b500290565b600082821015611cb957611cb9611d1c565b500390565b60005b83811015611cd9578181015183820152602001611cc1565b83811115610fb25750506000910152565b600081611cf957611cf9611d1c565b506000190190565b6000600019821415611d1557611d15611d1c565b5060010190565b634e487b7160e01b600052601160045260246000fd5b6001600160a01b0381168114610f0c57600080fdfea26469706673582212208185ca43bfa6e1f6a228a66b72096dfdd85d03d0900e512281101f02d9b22c8464736f6c63430008020033",
  "linkReferences": {},
  "deployedLinkReferences": {}
}