{
  "_format": "hh-sol-artifact-1",
  "contractName": "DarkMatter",
  "sourceName": "contracts/DarkMatter.sol",
  "abi": [
    {
      "inputs": [],
      "stateMutability": "nonpayable",
      "type": "constructor"
    },
    {
      "anonymous": false,
      "inputs": [
        {
          "indexed": true,
          "internalType": "address",
          "name": "owner",
          "type": "address"
        },
        {
          "indexed": true,
          "internalType": "address",
          "name": "approved",
          "type": "address"
        },
        {
          "indexed": true,
          "internalType": "uint256",
          "name": "tokenId",
          "type": "uint256"
        }
      ],
      "name": "Approval",
      "type": "event"
    },
    {
      "anonymous": false,
      "inputs": [
        {
          "indexed": true,
          "internalType": "address",
          "name": "owner",
          "type": "address"
        },
        {
          "indexed": true,
          "internalType": "address",
          "name": "operator",
          "type": "address"
        },
        {
          "indexed": false,
          "internalType": "bool",
          "name": "approved",
          "type": "bool"
        }
      ],
      "name": "ApprovalForAll",
      "type": "event"
    },
    {
      "anonymous": false,
      "inputs": [
        {
          "indexed": true,
          "internalType": "address",
          "name": "from",
          "type": "address"
        },
        {
          "indexed": true,
          "internalType": "address",
          "name": "to",
          "type": "address"
        },
        {
          "indexed": true,
          "internalType": "uint256",
          "name": "tokenId",
          "type": "uint256"
        }
      ],
      "name": "Transfer",
      "type": "event"
    },
    {
      "inputs": [
        {
          "internalType": "address",
          "name": "to",
          "type": "address"
        },
        {
          "internalType": "uint256",
          "name": "tokenId",
          "type": "uint256"
        }
      ],
      "name": "approve",
      "outputs": [],
      "stateMutability": "nonpayable",
      "type": "function"
    },
    {
      "inputs": [],
      "name": "awardTitle",
      "outputs": [
        {
          "internalType": "uint256",
          "name": "",
          "type": "uint256"
        }
      ],
      "stateMutability": "nonpayable",
      "type": "function"
    },
    {
      "inputs": [
        {
          "internalType": "address",
          "name": "owner",
          "type": "address"
        }
      ],
      "name": "balanceOf",
      "outputs": [
        {
          "internalType": "uint256",
          "name": "",
          "type": "uint256"
        }
      ],
      "stateMutability": "view",
      "type": "function"
    },
    {
      "inputs": [],
      "name": "baseURI",
      "outputs": [
        {
          "internalType": "string",
          "name": "",
          "type": "string"
        }
      ],
      "stateMutability": "view",
      "type": "function"
    },
    {
      "inputs": [
        {
          "internalType": "uint256",
          "name": "tokenId",
          "type": "uint256"
        }
      ],
      "name": "getApproved",
      "outputs": [
        {
          "internalType": "address",
          "name": "",
          "type": "address"
        }
      ],
      "stateMutability": "view",
      "type": "function"
    },
    {
      "inputs": [],
      "name": "getCurrentTokenId",
      "outputs": [
        {
          "internalType": "uint256",
          "name": "",
          "type": "uint256"
        }
      ],
      "stateMutability": "view",
      "type": "function"
    },
    {
      "inputs": [],
      "name": "gov",
      "outputs": [
        {
          "internalType": "address",
          "name": "",
          "type": "address"
        }
      ],
      "stateMutability": "view",
      "type": "function"
    },
    {
      "inputs": [
        {
          "internalType": "address",
          "name": "owner",
          "type": "address"
        },
        {
          "internalType": "address",
          "name": "operator",
          "type": "address"
        }
      ],
      "name": "isApprovedForAll",
      "outputs": [
        {
          "internalType": "bool",
          "name": "",
          "type": "bool"
        }
      ],
      "stateMutability": "view",
      "type": "function"
    },
    {
      "inputs": [
        {
          "internalType": "address[]",
          "name": "_addresses",
          "type": "address[]"
        }
      ],
      "name": "listNewKnight",
      "outputs": [],
      "stateMutability": "nonpayable",
      "type": "function"
    },
    {
      "inputs": [
        {
          "internalType": "address",
          "name": "",
          "type": "address"
        }
      ],
      "name": "listedAddresses",
      "outputs": [
        {
          "internalType": "bool",
          "name": "",
          "type": "bool"
        }
      ],
      "stateMutability": "view",
      "type": "function"
    },
    {
      "inputs": [
        {
          "internalType": "address",
          "name": "user",
          "type": "address"
        }
      ],
      "name": "mint",
      "outputs": [
        {
          "internalType": "uint256",
          "name": "",
          "type": "uint256"
        }
      ],
      "stateMutability": "nonpayable",
      "type": "function"
    },
    {
      "inputs": [],
      "name": "name",
      "outputs": [
        {
          "internalType": "string",
          "name": "",
          "type": "string"
        }
      ],
      "stateMutability": "view",
      "type": "function"
    },
    {
      "inputs": [
        {
          "internalType": "uint256",
          "name": "tokenId",
          "type": "uint256"
        }
      ],
      "name": "ownerOf",
      "outputs": [
        {
          "internalType": "address",
          "name": "",
          "type": "address"
        }
      ],
      "stateMutability": "view",
      "type": "function"
    },
    {
      "inputs": [
        {
          "internalType": "address",
          "name": "from",
          "type": "address"
        },
        {
          "internalType": "address",
          "name": "to",
          "type": "address"
        },
        {
          "internalType": "uint256",
          "name": "tokenId",
          "type": "uint256"
        }
      ],
      "name": "safeTransferFrom",
      "outputs": [],
      "stateMutability": "nonpayable",
      "type": "function"
    },
    {
      "inputs": [
        {
          "internalType": "address",
          "name": "from",
          "type": "address"
        },
        {
          "internalType": "address",
          "name": "to",
          "type": "address"
        },
        {
          "internalType": "uint256",
          "name": "tokenId",
          "type": "uint256"
        },
        {
          "internalType": "bytes",
          "name": "_data",
          "type": "bytes"
        }
      ],
      "name": "safeTransferFrom",
      "outputs": [],
      "stateMutability": "nonpayable",
      "type": "function"
    },
    {
      "inputs": [
        {
          "internalType": "address",
          "name": "operator",
          "type": "address"
        },
        {
          "internalType": "bool",
          "name": "approved",
          "type": "bool"
        }
      ],
      "name": "setApprovalForAll",
      "outputs": [],
      "stateMutability": "nonpayable",
      "type": "function"
    },
    {
      "inputs": [
        {
          "internalType": "bytes4",
          "name": "interfaceId",
          "type": "bytes4"
        }
      ],
      "name": "supportsInterface",
      "outputs": [
        {
          "internalType": "bool",
          "name": "",
          "type": "bool"
        }
      ],
      "stateMutability": "view",
      "type": "function"
    },
    {
      "inputs": [],
      "name": "symbol",
      "outputs": [
        {
          "internalType": "string",
          "name": "",
          "type": "string"
        }
      ],
      "stateMutability": "view",
      "type": "function"
    },
    {
      "inputs": [
        {
          "internalType": "uint256",
          "name": "index",
          "type": "uint256"
        }
      ],
      "name": "tokenByIndex",
      "outputs": [
        {
          "internalType": "uint256",
          "name": "",
          "type": "uint256"
        }
      ],
      "stateMutability": "view",
      "type": "function"
    },
    {
      "inputs": [
        {
          "internalType": "address",
          "name": "owner",
          "type": "address"
        },
        {
          "internalType": "uint256",
          "name": "index",
          "type": "uint256"
        }
      ],
      "name": "tokenOfOwnerByIndex",
      "outputs": [
        {
          "internalType": "uint256",
          "name": "",
          "type": "uint256"
        }
      ],
      "stateMutability": "view",
      "type": "function"
    },
    {
      "inputs": [
        {
          "internalType": "uint256",
          "name": "tokenId",
          "type": "uint256"
        }
      ],
      "name": "tokenURI",
      "outputs": [
        {
          "internalType": "string",
          "name": "",
          "type": "string"
        }
      ],
      "stateMutability": "view",
      "type": "function"
    },
    {
      "inputs": [],
      "name": "totalSupply",
      "outputs": [
        {
          "internalType": "uint256",
          "name": "",
          "type": "uint256"
        }
      ],
      "stateMutability": "view",
      "type": "function"
    },
    {
      "inputs": [
        {
          "internalType": "address",
          "name": "from",
          "type": "address"
        },
        {
          "internalType": "address",
          "name": "to",
          "type": "address"
        },
        {
          "internalType": "uint256",
          "name": "tokenId",
          "type": "uint256"
        }
      ],
      "name": "transferFrom",
      "outputs": [],
      "stateMutability": "nonpayable",
      "type": "function"
    }
  ],
  "bytecode": "0x60806040523480156200001157600080fd5b50604080518082018252601381527f4461726b2047656e65736973204b6e69676874000000000000000000000000006020808301919091528251808401909352600383526244474b60e81b90830152906200007c6301ffc9a760e01b6001600160e01b03620001a016565b8151620000919060069060208501906200059b565b508051620000a79060079060208401906200059b565b50620000c36380ac58cd60e01b6001600160e01b03620001a016565b620000de635b5e139f60e01b6001600160e01b03620001a016565b620000f963780e9d6360e01b6001600160e01b03620001a016565b5050600b80546001600160a01b0319163317905560005b600a811015620001995762000131600a6200022560201b620012d21760201c565b60006200014a600a6200022e60201b620012b71760201c565b90506200016133826001600160e01b036200023216565b6200018f8160405180608001604052806043815260200162002614604391396001600160e01b036200039816565b5060010162000110565b5062000640565b6001600160e01b0319808216141562000200576040805162461bcd60e51b815260206004820152601c60248201527f4552433136353a20696e76616c696420696e7465726661636520696400000000604482015290519081900360640190fd5b6001600160e01b0319166000908152602081905260409020805460ff19166001179055565b80546001019055565b5490565b6001600160a01b0382166200028e576040805162461bcd60e51b815260206004820181905260248201527f4552433732313a206d696e7420746f20746865207a65726f2061646472657373604482015290519081900360640190fd5b620002a2816001600160e01b036200040f16565b15620002f5576040805162461bcd60e51b815260206004820152601c60248201527f4552433732313a20746f6b656e20616c7265616479206d696e74656400000000604482015290519081900360640190fd5b6200030c600083836001600160e01b036200040a16565b6001600160a01b03821660009081526001602090815260409091206200033d918390620015a662000432821b17901c565b506200035b818360026200045060201b620015b2179092919060201c565b5060405181906001600160a01b038416906000907fddf252ad1be2c89b69c2b068fc378daa952ba7f163c4a11628f55a4df523b3ef908290a45050565b620003ac826001600160e01b036200040f16565b620003e95760405162461bcd60e51b815260040180806020018281038252602c81526020018062002657602c913960400191505060405180910390fd5b600082815260086020908152604090912082516200040a928401906200059b565b505050565b60006200042c8260026200047960201b6200158e1790919060201c565b92915050565b60006200044983836001600160e01b036200049016565b9392505050565b60006200047184846001600160a01b0385166001600160e01b03620004e816565b949350505050565b60006200044983836001600160e01b036200058316565b6000620004a783836001600160e01b036200058316565b620004df575081546001818101845560008481526020808220909301849055845484825282860190935260409020919091556200042c565b5060006200042c565b6000828152600184016020526040812054806200054f57505060408051808201825283815260208082018481528654600181810189556000898152848120955160029093029095019182559151908201558654868452818801909252929091205562000449565b828560000160018303815481106200056357fe5b906000526020600020906002020160010181905550600091505062000449565b60009081526001919091016020526040902054151590565b828054600181600116156101000203166002900490600052602060002090601f016020900481019282601f10620005de57805160ff19168380011785556200060e565b828001600101855582156200060e579182015b828111156200060e578251825591602001919060010190620005f1565b506200061c92915062000620565b5090565b6200063d91905b808211156200061c576000815560010162000627565b90565b611fc480620006506000396000f3fe608060405234801561001057600080fd5b506004361061014d5760003560e01c80636352211e116100c357806395d89b411161007c57806395d89b411461046c578063a22cb46514610474578063aeea10bd146104a2578063b88d4fde146104c8578063c87b56dd1461058e578063e985e9c5146105ab5761014d565b80636352211e14610350578063672a11c51461036d5780636a627842146103755780636c0360eb1461039b57806370a08231146103a35780637eeb7b2b146103c95761014d565b806318160ddd1161011557806318160ddd1461027957806323b872dd146102935780632f745c59146102c957806342842e0e146102f55780634f6ccce71461032b57806356189236146103485761014d565b806301ffc9a71461015257806306fdde031461018d578063081812fc1461020a578063095ea7b31461024357806312d43a5114610271575b600080fd5b6101796004803603602081101561016857600080fd5b50356001600160e01b0319166105d9565b604080519115158252519081900360200190f35b6101956105fc565b6040805160208082528351818301528351919283929083019185019080838360005b838110156101cf5781810151838201526020016101b7565b50505050905090810190601f1680156101fc5780820380516001836020036101000a031916815260200191505b509250505060405180910390f35b6102276004803603602081101561022057600080fd5b5035610693565b604080516001600160a01b039092168252519081900360200190f35b61026f6004803603604081101561025957600080fd5b506001600160a01b0381351690602001356106f5565b005b6102276107d0565b6102816107df565b60408051918252519081900360200190f35b61026f600480360360608110156102a957600080fd5b506001600160a01b038135811691602081013590911690604001356107f0565b610281600480360360408110156102df57600080fd5b506001600160a01b038135169060200135610847565b61026f6004803603606081101561030b57600080fd5b506001600160a01b03813581169160208101359091169060400135610878565b6102816004803603602081101561034157600080fd5b5035610893565b6102816108af565b6102276004803603602081101561036657600080fd5b50356108bb565b6102816108e9565b6102816004803603602081101561038b57600080fd5b50356001600160a01b031661099c565b6101956109e2565b610281600480360360208110156103b957600080fd5b50356001600160a01b0316610a43565b61026f600480360360208110156103df57600080fd5b8101906020810181356401000000008111156103fa57600080fd5b82018360208201111561040c57600080fd5b8035906020019184602083028401116401000000008311171561042e57600080fd5b919080806020026020016040519081016040528093929190818152602001838360200280828437600092019190915250929550610aab945050505050565b610195610b4f565b61026f6004803603604081101561048a57600080fd5b506001600160a01b0381351690602001351515610bb0565b610179600480360360208110156104b857600080fd5b50356001600160a01b0316610cb5565b61026f600480360360808110156104de57600080fd5b6001600160a01b0382358116926020810135909116916040820135919081019060808101606082013564010000000081111561051957600080fd5b82018360208201111561052b57600080fd5b8035906020019184600183028401116401000000008311171561054d57600080fd5b91908080601f016020809104026020016040519081016040528093929190818152602001838380828437600092019190915250929550610cca945050505050565b610195600480360360208110156105a457600080fd5b5035610d28565b610179600480360360408110156105c157600080fd5b506001600160a01b0381358116916020013516610fcf565b6001600160e01b0319811660009081526020819052604090205460ff165b919050565b60068054604080516020601f60026000196101006001881615020190951694909404938401819004810282018101909252828152606093909290918301828280156106885780601f1061065d57610100808354040283529160200191610688565b820191906000526020600020905b81548152906001019060200180831161066b57829003601f168201915b505050505090505b90565b600061069e82610ffd565b6106d95760405162461bcd60e51b815260040180806020018281038252602c815260200180611e8d602c913960400191505060405180910390fd5b506000908152600460205260409020546001600160a01b031690565b6000610700826108bb565b9050806001600160a01b0316836001600160a01b031614156107535760405162461bcd60e51b8152600401808060200182810382526021815260200180611f3d6021913960400191505060405180910390fd5b806001600160a01b0316610765611010565b6001600160a01b03161480610786575061078681610781611010565b610fcf565b6107c15760405162461bcd60e51b8152600401808060200182810382526038815260200180611de06038913960400191505060405180910390fd5b6107cb8383611014565b505050565b600b546001600160a01b031681565b60006107eb6002611082565b905090565b6108016107fb611010565b8261108d565b61083c5760405162461bcd60e51b8152600401808060200182810382526031815260200180611f5e6031913960400191505060405180910390fd5b6107cb838383611131565b6001600160a01b038216600090815260016020526040812061086f908363ffffffff61128f16565b90505b92915050565b6107cb83838360405180602001604052806000815250610cca565b6000806108a760028463ffffffff61129b16565b509392505050565b60006107eb600a6112b7565b600061087282604051806060016040528060298152602001611e42602991396002919063ffffffff6112bb16565b336000908152600c602052604081205460ff16151560011461093c576040805162461bcd60e51b8152602060048201526007602482015266085b1a5cdd195960ca1b604482015290519081900360640190fd5b610946600a6112d2565b6000610952600a6112b7565b905061095e33826112db565b61098081604051806080016040528060438152602001611d4d60439139611415565b336000908152600c60205260409020805460ff19169055905090565b60006109a8600a6112d2565b60006109b4600a6112b7565b90506109c083826112db565b61087281604051806080016040528060438152602001611d4d60439139611415565b60098054604080516020601f60026000196101006001881615020190951694909404938401819004810282018101909252828152606093909290918301828280156106885780601f1061065d57610100808354040283529160200191610688565b60006001600160a01b038216610a8a5760405162461bcd60e51b815260040180806020018281038252602a815260200180611e18602a913960400191505060405180910390fd5b6001600160a01b038216600090815260016020526040902061087290611082565b600b546001600160a01b03163314610af3576040805162461bcd60e51b8152602060048083019190915260248201526310b3b7bb60e11b604482015290519081900360640190fd5b60005b8151811015610b4b576001600c6000848481518110610b1157fe5b6020908102919091018101516001600160a01b03168252810191909152604001600020805460ff1916911515919091179055600101610af6565b5050565b60078054604080516020601f60026000196101006001881615020190951694909404938401819004810282018101909252828152606093909290918301828280156106885780601f1061065d57610100808354040283529160200191610688565b610bb8611010565b6001600160a01b0316826001600160a01b03161415610c1e576040805162461bcd60e51b815260206004820152601960248201527f4552433732313a20617070726f766520746f2063616c6c657200000000000000604482015290519081900360640190fd5b8060056000610c2b611010565b6001600160a01b03908116825260208083019390935260409182016000908120918716808252919093529120805460ff191692151592909217909155610c6f611010565b60408051841515815290516001600160a01b0392909216917f17307eab39ab6107e8899845ad3d59bd9653f200f220920489ca2b5937696c319181900360200190a35050565b600c6020526000908152604090205460ff1681565b610cdb610cd5611010565b8361108d565b610d165760405162461bcd60e51b8152600401808060200182810382526031815260200180611f5e6031913960400191505060405180910390fd5b610d2284848484611478565b50505050565b6060610d3382610ffd565b610d6e5760405162461bcd60e51b815260040180806020018281038252602f815260200180611f0e602f913960400191505060405180910390fd5b60008281526008602090815260409182902080548351601f6002600019610100600186161502019093169290920491820184900484028101840190945280845260609392830182828015610e035780601f10610dd857610100808354040283529160200191610e03565b820191906000526020600020905b815481529060010190602001808311610de657829003601f168201915b505060095493945050505060026000196101006001841615020190911604610e2c5790506105f7565b805115610efd576009816040516020018083805460018160011615610100020316600290048015610e945780601f10610e72576101008083540402835291820191610e94565b820191906000526020600020905b815481529060010190602001808311610e80575b5050825160208401908083835b60208310610ec05780518252601f199092019160209182019101610ea1565b6001836020036101000a038019825116818451168082178552505050505050905001925050506040516020818303038152906040529150506105f7565b6009610f08846114ca565b6040516020018083805460018160011615610100020316600290048015610f665780601f10610f44576101008083540402835291820191610f66565b820191906000526020600020905b815481529060010190602001808311610f52575b5050825160208401908083835b60208310610f925780518252601f199092019160209182019101610f73565b6001836020036101000a03801982511681845116808217855250505050505090500192505050604051602081830303815290604052915050919050565b6001600160a01b03918216600090815260056020908152604080832093909416825291909152205460ff1690565b600061087260028363ffffffff61158e16565b3390565b600081815260046020526040902080546001600160a01b0319166001600160a01b0384169081179091558190611049826108bb565b6001600160a01b03167f8c5be1e5ebec7d5bd14f71427d1e84f3dd0314c0f7b2291e5b200ac8c7c3b92560405160405180910390a45050565b6000610872826112b7565b600061109882610ffd565b6110d35760405162461bcd60e51b815260040180806020018281038252602c815260200180611db4602c913960400191505060405180910390fd5b60006110de836108bb565b9050806001600160a01b0316846001600160a01b031614806111195750836001600160a01b031661110e84610693565b6001600160a01b0316145b8061112957506111298185610fcf565b949350505050565b826001600160a01b0316611144826108bb565b6001600160a01b0316146111895760405162461bcd60e51b8152600401808060200182810382526029815260200180611ee56029913960400191505060405180910390fd5b6001600160a01b0382166111ce5760405162461bcd60e51b8152600401808060200182810382526024815260200180611d906024913960400191505060405180910390fd5b6111d98383836107cb565b6111e4600082611014565b6001600160a01b038316600090815260016020526040902061120c908263ffffffff61159a16565b506001600160a01b0382166000908152600160205260409020611235908263ffffffff6115a616565b506112486002828463ffffffff6115b216565b5080826001600160a01b0316846001600160a01b03167fddf252ad1be2c89b69c2b068fc378daa952ba7f163c4a11628f55a4df523b3ef60405160405180910390a4505050565b600061086f83836115c8565b60008080806112aa868661162c565b9097909650945050505050565b5490565b60006112c88484846116a7565b90505b9392505050565b80546001019055565b6001600160a01b038216611336576040805162461bcd60e51b815260206004820181905260248201527f4552433732313a206d696e7420746f20746865207a65726f2061646472657373604482015290519081900360640190fd5b61133f81610ffd565b15611391576040805162461bcd60e51b815260206004820152601c60248201527f4552433732313a20746f6b656e20616c7265616479206d696e74656400000000604482015290519081900360640190fd5b61139d600083836107cb565b6001600160a01b03821660009081526001602052604090206113c5908263ffffffff6115a616565b506113d86002828463ffffffff6115b216565b5060405181906001600160a01b038416906000907fddf252ad1be2c89b69c2b068fc378daa952ba7f163c4a11628f55a4df523b3ef908290a45050565b61141e82610ffd565b6114595760405162461bcd60e51b815260040180806020018281038252602c815260200180611eb9602c913960400191505060405180910390fd5b600082815260086020908152604090912082516107cb92840190611c60565b611483848484611131565b61148f84848484611771565b610d225760405162461bcd60e51b8152600401808060200182810382526032815260200180611d1b6032913960400191505060405180910390fd5b6060816114ef57506040805180820190915260018152600360fc1b60208201526105f7565b8160005b811561150757600101600a820491506114f3565b6060816040519080825280601f01601f191660200182016040528015611534576020820181803883390190505b50859350905060001982015b831561158557600a840660300160f81b8282806001900393508151811061156357fe5b60200101906001600160f81b031916908160001a905350600a84049350611540565b50949350505050565b600061086f83836118f1565b600061086f8383611909565b600061086f83836119cf565b60006112c884846001600160a01b038516611a19565b8154600090821061160a5760405162461bcd60e51b8152600401808060200182810382526022815260200180611cf96022913960400191505060405180910390fd5b82600001828154811061161957fe5b9060005260206000200154905092915050565b8154600090819083106116705760405162461bcd60e51b8152600401808060200182810382526022815260200180611e6b6022913960400191505060405180910390fd5b600084600001848154811061168157fe5b906000526020600020906002020190508060000154816001015492509250509250929050565b600082815260018401602052604081205482816117425760405162461bcd60e51b81526004018080602001828103825283818151815260200191508051906020019080838360005b838110156117075781810151838201526020016116ef565b50505050905090810190601f1680156117345780820380516001836020036101000a031916815260200191505b509250505060405180910390fd5b5084600001600182038154811061175557fe5b9060005260206000209060020201600101549150509392505050565b6000611785846001600160a01b0316611ab0565b61179157506001611129565b60606118b7630a85bd0160e11b6117a6611010565b88878760405160240180856001600160a01b03166001600160a01b03168152602001846001600160a01b03166001600160a01b0316815260200183815260200180602001828103825283818151815260200191508051906020019080838360005b8381101561181f578181015183820152602001611807565b50505050905090810190601f16801561184c5780820380516001836020036101000a031916815260200191505b5095505050505050604051602081830303815290604052906001600160e01b0319166020820180516001600160e01b038381831617835250505050604051806060016040528060328152602001611d1b603291396001600160a01b038816919063ffffffff611ae916565b905060008180602001905160208110156118d057600080fd5b50516001600160e01b031916630a85bd0160e11b1492505050949350505050565b60009081526001919091016020526040902054151590565b600081815260018301602052604081205480156119c5578354600019808301919081019060009087908390811061193c57fe5b906000526020600020015490508087600001848154811061195957fe5b60009182526020808320909101929092558281526001898101909252604090209084019055865487908061198957fe5b60019003818190600052602060002001600090559055866001016000878152602001908152602001600020600090556001945050505050610872565b6000915050610872565b60006119db83836118f1565b611a1157508154600181810184556000848152602080822090930184905584548482528286019093526040902091909155610872565b506000610872565b600082815260018401602052604081205480611a7e5750506040805180820182528381526020808201848152865460018181018955600089815284812095516002909302909501918255915190820155865486845281880190925292909120556112cb565b82856000016001830381548110611a9157fe5b90600052602060002090600202016001018190555060009150506112cb565b6000813f7fc5d2460186f7233c927e7db2dcc703c0e500b653ca82273b7bfad8045d85a470818114801590611129575050151592915050565b60606112c884846000856060611afe85611ab0565b611b4f576040805162461bcd60e51b815260206004820152601d60248201527f416464726573733a2063616c6c20746f206e6f6e2d636f6e7472616374000000604482015290519081900360640190fd5b60006060866001600160a01b031685876040518082805190602001908083835b60208310611b8e5780518252601f199092019160209182019101611b6f565b6001836020036101000a03801982511681845116808217855250505050505090500191505060006040518083038185875af1925050503d8060008114611bf0576040519150601f19603f3d011682016040523d82523d6000602084013e611bf5565b606091505b50915091508115611c095791506111299050565b805115611c195780518082602001fd5b60405162461bcd60e51b81526020600482018181528651602484015286518793919283926044019190850190808383600083156117075781810151838201526020016116ef565b828054600181600116156101000203166002900490600052602060002090601f016020900481019282601f10611ca157805160ff1916838001178555611cce565b82800160010185558215611cce579182015b82811115611cce578251825591602001919060010190611cb3565b50611cda929150611cde565b5090565b61069091905b80821115611cda5760008155600101611ce456fe456e756d657261626c655365743a20696e646578206f7574206f6620626f756e64734552433732313a207472616e7366657220746f206e6f6e20455243373231526563656976657220696d706c656d656e74657268747470733a2f2f697066732e696f2f697066732f516d583350473856416b615263674c765639364e437246674751416a745234466262764b6d39683439633679524c4552433732313a207472616e7366657220746f20746865207a65726f20616464726573734552433732313a206f70657261746f7220717565727920666f72206e6f6e6578697374656e7420746f6b656e4552433732313a20617070726f76652063616c6c6572206973206e6f74206f776e6572206e6f7220617070726f76656420666f7220616c6c4552433732313a2062616c616e636520717565727920666f7220746865207a65726f20616464726573734552433732313a206f776e657220717565727920666f72206e6f6e6578697374656e7420746f6b656e456e756d657261626c654d61703a20696e646578206f7574206f6620626f756e64734552433732313a20617070726f76656420717565727920666f72206e6f6e6578697374656e7420746f6b656e4552433732314d657461646174613a2055524920736574206f66206e6f6e6578697374656e7420746f6b656e4552433732313a207472616e73666572206f6620746f6b656e2074686174206973206e6f74206f776e4552433732314d657461646174613a2055524920717565727920666f72206e6f6e6578697374656e7420746f6b656e4552433732313a20617070726f76616c20746f2063757272656e74206f776e65724552433732313a207472616e736665722063616c6c6572206973206e6f74206f776e6572206e6f7220617070726f766564a26469706673582212205cd2dd5a8b63ed038171944e34f54ee82476b2a3e7f170db7b3bb3e0d897b0ed64736f6c6343000602003368747470733a2f2f697066732e696f2f697066732f516d583350473856416b615263674c765639364e437246674751416a745234466262764b6d39683439633679524c4552433732314d657461646174613a2055524920736574206f66206e6f6e6578697374656e7420746f6b656e",
  "linkReferences": {},
  "deployedLinkReferences": {}
}