{
  "_format": "hh-sol-artifact-1",
  "contractName": "DarkMatter",
  "sourceName": "contracts/DarkMatter.sol",
  "abi": [
    {
      "inputs": [],
      "stateMutability": "nonpayable",
      "type": "constructor"
    },
    {
      "anonymous": false,
      "inputs": [
        {
          "indexed": true,
          "internalType": "address",
          "name": "owner",
          "type": "address"
        },
        {
          "indexed": true,
          "internalType": "address",
          "name": "approved",
          "type": "address"
        },
        {
          "indexed": true,
          "internalType": "uint256",
          "name": "tokenId",
          "type": "uint256"
        }
      ],
      "name": "Approval",
      "type": "event"
    },
    {
      "anonymous": false,
      "inputs": [
        {
          "indexed": true,
          "internalType": "address",
          "name": "owner",
          "type": "address"
        },
        {
          "indexed": true,
          "internalType": "address",
          "name": "operator",
          "type": "address"
        },
        {
          "indexed": false,
          "internalType": "bool",
          "name": "approved",
          "type": "bool"
        }
      ],
      "name": "ApprovalForAll",
      "type": "event"
    },
    {
      "anonymous": false,
      "inputs": [
        {
          "indexed": true,
          "internalType": "address",
          "name": "from",
          "type": "address"
        },
        {
          "indexed": true,
          "internalType": "address",
          "name": "to",
          "type": "address"
        },
        {
          "indexed": true,
          "internalType": "uint256",
          "name": "tokenId",
          "type": "uint256"
        }
      ],
      "name": "Transfer",
      "type": "event"
    },
    {
      "inputs": [
        {
          "internalType": "address",
          "name": "to",
          "type": "address"
        },
        {
          "internalType": "uint256",
          "name": "tokenId",
          "type": "uint256"
        }
      ],
      "name": "approve",
      "outputs": [],
      "stateMutability": "nonpayable",
      "type": "function"
    },
    {
      "inputs": [],
      "name": "awardTitle",
      "outputs": [
        {
          "internalType": "uint256",
          "name": "",
          "type": "uint256"
        }
      ],
      "stateMutability": "nonpayable",
      "type": "function"
    },
    {
      "inputs": [
        {
          "internalType": "address",
          "name": "owner",
          "type": "address"
        }
      ],
      "name": "balanceOf",
      "outputs": [
        {
          "internalType": "uint256",
          "name": "",
          "type": "uint256"
        }
      ],
      "stateMutability": "view",
      "type": "function"
    },
    {
      "inputs": [],
      "name": "baseURI",
      "outputs": [
        {
          "internalType": "string",
          "name": "",
          "type": "string"
        }
      ],
      "stateMutability": "view",
      "type": "function"
    },
    {
      "inputs": [
        {
          "internalType": "uint256",
          "name": "tokenId",
          "type": "uint256"
        }
      ],
      "name": "getApproved",
      "outputs": [
        {
          "internalType": "address",
          "name": "",
          "type": "address"
        }
      ],
      "stateMutability": "view",
      "type": "function"
    },
    {
      "inputs": [],
      "name": "gov",
      "outputs": [
        {
          "internalType": "address",
          "name": "",
          "type": "address"
        }
      ],
      "stateMutability": "view",
      "type": "function"
    },
    {
      "inputs": [
        {
          "internalType": "address",
          "name": "owner",
          "type": "address"
        },
        {
          "internalType": "address",
          "name": "operator",
          "type": "address"
        }
      ],
      "name": "isApprovedForAll",
      "outputs": [
        {
          "internalType": "bool",
          "name": "",
          "type": "bool"
        }
      ],
      "stateMutability": "view",
      "type": "function"
    },
    {
      "inputs": [
        {
          "internalType": "address[]",
          "name": "_addresses",
          "type": "address[]"
        }
      ],
      "name": "listNewKnight",
      "outputs": [],
      "stateMutability": "nonpayable",
      "type": "function"
    },
    {
      "inputs": [
        {
          "internalType": "address",
          "name": "",
          "type": "address"
        }
      ],
      "name": "listedAddresses",
      "outputs": [
        {
          "internalType": "bool",
          "name": "",
          "type": "bool"
        }
      ],
      "stateMutability": "view",
      "type": "function"
    },
    {
      "inputs": [
        {
          "internalType": "address",
          "name": "user",
          "type": "address"
        }
      ],
      "name": "mint",
      "outputs": [],
      "stateMutability": "nonpayable",
      "type": "function"
    },
    {
      "inputs": [],
      "name": "name",
      "outputs": [
        {
          "internalType": "string",
          "name": "",
          "type": "string"
        }
      ],
      "stateMutability": "view",
      "type": "function"
    },
    {
      "inputs": [
        {
          "internalType": "uint256",
          "name": "tokenId",
          "type": "uint256"
        }
      ],
      "name": "ownerOf",
      "outputs": [
        {
          "internalType": "address",
          "name": "",
          "type": "address"
        }
      ],
      "stateMutability": "view",
      "type": "function"
    },
    {
      "inputs": [
        {
          "internalType": "address",
          "name": "from",
          "type": "address"
        },
        {
          "internalType": "address",
          "name": "to",
          "type": "address"
        },
        {
          "internalType": "uint256",
          "name": "tokenId",
          "type": "uint256"
        }
      ],
      "name": "safeTransferFrom",
      "outputs": [],
      "stateMutability": "nonpayable",
      "type": "function"
    },
    {
      "inputs": [
        {
          "internalType": "address",
          "name": "from",
          "type": "address"
        },
        {
          "internalType": "address",
          "name": "to",
          "type": "address"
        },
        {
          "internalType": "uint256",
          "name": "tokenId",
          "type": "uint256"
        },
        {
          "internalType": "bytes",
          "name": "_data",
          "type": "bytes"
        }
      ],
      "name": "safeTransferFrom",
      "outputs": [],
      "stateMutability": "nonpayable",
      "type": "function"
    },
    {
      "inputs": [
        {
          "internalType": "address",
          "name": "operator",
          "type": "address"
        },
        {
          "internalType": "bool",
          "name": "approved",
          "type": "bool"
        }
      ],
      "name": "setApprovalForAll",
      "outputs": [],
      "stateMutability": "nonpayable",
      "type": "function"
    },
    {
      "inputs": [
        {
          "internalType": "bytes4",
          "name": "interfaceId",
          "type": "bytes4"
        }
      ],
      "name": "supportsInterface",
      "outputs": [
        {
          "internalType": "bool",
          "name": "",
          "type": "bool"
        }
      ],
      "stateMutability": "view",
      "type": "function"
    },
    {
      "inputs": [],
      "name": "symbol",
      "outputs": [
        {
          "internalType": "string",
          "name": "",
          "type": "string"
        }
      ],
      "stateMutability": "view",
      "type": "function"
    },
    {
      "inputs": [
        {
          "internalType": "uint256",
          "name": "index",
          "type": "uint256"
        }
      ],
      "name": "tokenByIndex",
      "outputs": [
        {
          "internalType": "uint256",
          "name": "",
          "type": "uint256"
        }
      ],
      "stateMutability": "view",
      "type": "function"
    },
    {
      "inputs": [
        {
          "internalType": "address",
          "name": "owner",
          "type": "address"
        },
        {
          "internalType": "uint256",
          "name": "index",
          "type": "uint256"
        }
      ],
      "name": "tokenOfOwnerByIndex",
      "outputs": [
        {
          "internalType": "uint256",
          "name": "",
          "type": "uint256"
        }
      ],
      "stateMutability": "view",
      "type": "function"
    },
    {
      "inputs": [
        {
          "internalType": "uint256",
          "name": "tokenId",
          "type": "uint256"
        }
      ],
      "name": "tokenURI",
      "outputs": [
        {
          "internalType": "string",
          "name": "",
          "type": "string"
        }
      ],
      "stateMutability": "view",
      "type": "function"
    },
    {
      "inputs": [],
      "name": "totalSupply",
      "outputs": [
        {
          "internalType": "uint256",
          "name": "",
          "type": "uint256"
        }
      ],
      "stateMutability": "view",
      "type": "function"
    },
    {
      "inputs": [
        {
          "internalType": "address",
          "name": "from",
          "type": "address"
        },
        {
          "internalType": "address",
          "name": "to",
          "type": "address"
        },
        {
          "internalType": "uint256",
          "name": "tokenId",
          "type": "uint256"
        }
      ],
      "name": "transferFrom",
      "outputs": [],
      "stateMutability": "nonpayable",
      "type": "function"
    }
  ],
  "bytecode": "0x60806040523480156200001157600080fd5b50604080518082018252601381527f4461726b2047656e65736973204b6e69676874000000000000000000000000006020808301919091528251808401909352600383526244474b60e81b90830152906200007c6301ffc9a760e01b6001600160e01b03620001a016565b8151620000919060069060208501906200059b565b508051620000a79060079060208401906200059b565b50620000c36380ac58cd60e01b6001600160e01b03620001a016565b620000de635b5e139f60e01b6001600160e01b03620001a016565b620000f963780e9d6360e01b6001600160e01b03620001a016565b5050600b80546001600160a01b0319163317905560005b600a811015620001995762000131600a6200022560201b620012f51760201c565b60006200014a600a6200022e60201b620012fe1760201c565b90506200016133826001600160e01b036200023216565b6200018f816040518060800160405280604381526020016200263b604391396001600160e01b036200039816565b5060010162000110565b5062000640565b6001600160e01b0319808216141562000200576040805162461bcd60e51b815260206004820152601c60248201527f4552433136353a20696e76616c696420696e7465726661636520696400000000604482015290519081900360640190fd5b6001600160e01b0319166000908152602081905260409020805460ff19166001179055565b80546001019055565b5490565b6001600160a01b0382166200028e576040805162461bcd60e51b815260206004820181905260248201527f4552433732313a206d696e7420746f20746865207a65726f2061646472657373604482015290519081900360640190fd5b620002a2816001600160e01b036200040f16565b15620002f5576040805162461bcd60e51b815260206004820152601c60248201527f4552433732313a20746f6b656e20616c7265616479206d696e74656400000000604482015290519081900360640190fd5b6200030c600083836001600160e01b036200040a16565b6001600160a01b03821660009081526001602090815260409091206200033d918390620015cd62000432821b17901c565b506200035b818360026200045060201b620015d9179092919060201c565b5060405181906001600160a01b038416906000907fddf252ad1be2c89b69c2b068fc378daa952ba7f163c4a11628f55a4df523b3ef908290a45050565b620003ac826001600160e01b036200040f16565b620003e95760405162461bcd60e51b815260040180806020018281038252602c8152602001806200267e602c913960400191505060405180910390fd5b600082815260086020908152604090912082516200040a928401906200059b565b505050565b60006200042c8260026200047960201b620015b51790919060201c565b92915050565b60006200044983836001600160e01b036200049016565b9392505050565b60006200047184846001600160a01b0385166001600160e01b03620004e816565b949350505050565b60006200044983836001600160e01b036200058316565b6000620004a783836001600160e01b036200058316565b620004df575081546001818101845560008481526020808220909301849055845484825282860190935260409020919091556200042c565b5060006200042c565b6000828152600184016020526040812054806200054f57505060408051808201825283815260208082018481528654600181810189556000898152848120955160029093029095019182559151908201558654868452818801909252929091205562000449565b828560000160018303815481106200056357fe5b906000526020600020906002020160010181905550600091505062000449565b60009081526001919091016020526040902054151590565b828054600181600116156101000203166002900490600052602060002090601f016020900481019282601f10620005de57805160ff19168380011785556200060e565b828001600101855582156200060e579182015b828111156200060e578251825591602001919060010190620005f1565b506200061c92915062000620565b5090565b6200063d91905b808211156200061c576000815560010162000627565b90565b611feb80620006506000396000f3fe608060405234801561001057600080fd5b50600436106101425760003560e01c8063672a11c5116100b857806395d89b411161007c57806395d89b4114610459578063a22cb46514610461578063aeea10bd1461048f578063b88d4fde146104b5578063c87b56dd1461057b578063e985e9c51461059857610142565b8063672a11c51461035a5780636a627842146103625780636c0360eb1461038857806370a08231146103905780637eeb7b2b146103b657610142565b806318160ddd1161010a57806318160ddd1461026e57806323b872dd146102885780632f745c59146102be57806342842e0e146102ea5780634f6ccce7146103205780636352211e1461033d57610142565b806301ffc9a71461014757806306fdde0314610182578063081812fc146101ff578063095ea7b31461023857806312d43a5114610266575b600080fd5b61016e6004803603602081101561015d57600080fd5b50356001600160e01b0319166105c6565b604080519115158252519081900360200190f35b61018a6105e9565b6040805160208082528351818301528351919283929083019185019080838360005b838110156101c45781810151838201526020016101ac565b50505050905090810190601f1680156101f15780820380516001836020036101000a031916815260200191505b509250505060405180910390f35b61021c6004803603602081101561021557600080fd5b5035610680565b604080516001600160a01b039092168252519081900360200190f35b6102646004803603604081101561024e57600080fd5b506001600160a01b0381351690602001356106e2565b005b61021c6107bd565b6102766107cc565b60408051918252519081900360200190f35b6102646004803603606081101561029e57600080fd5b506001600160a01b038135811691602081013590911690604001356107dd565b610276600480360360408110156102d457600080fd5b506001600160a01b038135169060200135610834565b6102646004803603606081101561030057600080fd5b506001600160a01b03813581169160208101359091169060400135610865565b6102766004803603602081101561033657600080fd5b5035610880565b61021c6004803603602081101561035357600080fd5b503561089c565b6102766108ca565b6102646004803603602081101561037857600080fd5b50356001600160a01b031661097d565b61018a610a0d565b610276600480360360208110156103a657600080fd5b50356001600160a01b0316610a6e565b610264600480360360208110156103cc57600080fd5b8101906020810181356401000000008111156103e757600080fd5b8201836020820111156103f957600080fd5b8035906020019184602083028401116401000000008311171561041b57600080fd5b919080806020026020016040519081016040528093929190818152602001838360200280828437600092019190915250929550610ad6945050505050565b61018a610b76565b6102646004803603604081101561047757600080fd5b506001600160a01b0381351690602001351515610bd7565b61016e600480360360208110156104a557600080fd5b50356001600160a01b0316610cdc565b610264600480360360808110156104cb57600080fd5b6001600160a01b0382358116926020810135909116916040820135919081019060808101606082013564010000000081111561050657600080fd5b82018360208201111561051857600080fd5b8035906020019184600183028401116401000000008311171561053a57600080fd5b91908080601f016020809104026020016040519081016040528093929190818152602001838380828437600092019190915250929550610cf1945050505050565b61018a6004803603602081101561059157600080fd5b5035610d4f565b61016e600480360360408110156105ae57600080fd5b506001600160a01b0381358116916020013516610ff6565b6001600160e01b0319811660009081526020819052604090205460ff165b919050565b60068054604080516020601f60026000196101006001881615020190951694909404938401819004810282018101909252828152606093909290918301828280156106755780601f1061064a57610100808354040283529160200191610675565b820191906000526020600020905b81548152906001019060200180831161065857829003601f168201915b505050505090505b90565b600061068b82611024565b6106c65760405162461bcd60e51b815260040180806020018281038252602c815260200180611eb4602c913960400191505060405180910390fd5b506000908152600460205260409020546001600160a01b031690565b60006106ed8261089c565b9050806001600160a01b0316836001600160a01b031614156107405760405162461bcd60e51b8152600401808060200182810382526021815260200180611f646021913960400191505060405180910390fd5b806001600160a01b0316610752611037565b6001600160a01b0316148061077357506107738161076e611037565b610ff6565b6107ae5760405162461bcd60e51b8152600401808060200182810382526038815260200180611e076038913960400191505060405180910390fd5b6107b8838361103b565b505050565b600b546001600160a01b031681565b60006107d860026110a9565b905090565b6107ee6107e8611037565b826110b4565b6108295760405162461bcd60e51b8152600401808060200182810382526031815260200180611f856031913960400191505060405180910390fd5b6107b8838383611158565b6001600160a01b038216600090815260016020526040812061085c908363ffffffff6112b616565b90505b92915050565b6107b883838360405180602001604052806000815250610cf1565b60008061089460028463ffffffff6112c216565b509392505050565b600061085f82604051806060016040528060298152602001611e69602991396002919063ffffffff6112de16565b336000908152600c602052604081205460ff16151560011461091d576040805162461bcd60e51b8152602060048201526007602482015266085b1a5cdd195960ca1b604482015290519081900360640190fd5b610927600a6112f5565b6000610933600a6112fe565b905061093f3382611302565b61096181604051806080016040528060438152602001611d746043913961143c565b336000908152600c60205260409020805460ff19169055905090565b600b546001600160a01b031633146109c5576040805162461bcd60e51b8152602060048083019190915260248201526310b3b7bb60e11b604482015290519081900360640190fd5b6109cf600a6112f5565b60006109db600a6112fe565b90506109e78282611302565b610a0981604051806080016040528060438152602001611d746043913961143c565b5050565b60098054604080516020601f60026000196101006001881615020190951694909404938401819004810282018101909252828152606093909290918301828280156106755780601f1061064a57610100808354040283529160200191610675565b60006001600160a01b038216610ab55760405162461bcd60e51b815260040180806020018281038252602a815260200180611e3f602a913960400191505060405180910390fd5b6001600160a01b038216600090815260016020526040902061085f906110a9565b600b546001600160a01b03163314610b1e576040805162461bcd60e51b8152602060048083019190915260248201526310b3b7bb60e11b604482015290519081900360640190fd5b60005b8151811015610a09576001600c6000848481518110610b3c57fe5b6020908102919091018101516001600160a01b03168252810191909152604001600020805460ff1916911515919091179055600101610b21565b60078054604080516020601f60026000196101006001881615020190951694909404938401819004810282018101909252828152606093909290918301828280156106755780601f1061064a57610100808354040283529160200191610675565b610bdf611037565b6001600160a01b0316826001600160a01b03161415610c45576040805162461bcd60e51b815260206004820152601960248201527f4552433732313a20617070726f766520746f2063616c6c657200000000000000604482015290519081900360640190fd5b8060056000610c52611037565b6001600160a01b03908116825260208083019390935260409182016000908120918716808252919093529120805460ff191692151592909217909155610c96611037565b60408051841515815290516001600160a01b0392909216917f17307eab39ab6107e8899845ad3d59bd9653f200f220920489ca2b5937696c319181900360200190a35050565b600c6020526000908152604090205460ff1681565b610d02610cfc611037565b836110b4565b610d3d5760405162461bcd60e51b8152600401808060200182810382526031815260200180611f856031913960400191505060405180910390fd5b610d498484848461149f565b50505050565b6060610d5a82611024565b610d955760405162461bcd60e51b815260040180806020018281038252602f815260200180611f35602f913960400191505060405180910390fd5b60008281526008602090815260409182902080548351601f6002600019610100600186161502019093169290920491820184900484028101840190945280845260609392830182828015610e2a5780601f10610dff57610100808354040283529160200191610e2a565b820191906000526020600020905b815481529060010190602001808311610e0d57829003601f168201915b505060095493945050505060026000196101006001841615020190911604610e535790506105e4565b805115610f24576009816040516020018083805460018160011615610100020316600290048015610ebb5780601f10610e99576101008083540402835291820191610ebb565b820191906000526020600020905b815481529060010190602001808311610ea7575b5050825160208401908083835b60208310610ee75780518252601f199092019160209182019101610ec8565b6001836020036101000a038019825116818451168082178552505050505050905001925050506040516020818303038152906040529150506105e4565b6009610f2f846114f1565b6040516020018083805460018160011615610100020316600290048015610f8d5780601f10610f6b576101008083540402835291820191610f8d565b820191906000526020600020905b815481529060010190602001808311610f79575b5050825160208401908083835b60208310610fb95780518252601f199092019160209182019101610f9a565b6001836020036101000a03801982511681845116808217855250505050505090500192505050604051602081830303815290604052915050919050565b6001600160a01b03918216600090815260056020908152604080832093909416825291909152205460ff1690565b600061085f60028363ffffffff6115b516565b3390565b600081815260046020526040902080546001600160a01b0319166001600160a01b03841690811790915581906110708261089c565b6001600160a01b03167f8c5be1e5ebec7d5bd14f71427d1e84f3dd0314c0f7b2291e5b200ac8c7c3b92560405160405180910390a45050565b600061085f826112fe565b60006110bf82611024565b6110fa5760405162461bcd60e51b815260040180806020018281038252602c815260200180611ddb602c913960400191505060405180910390fd5b60006111058361089c565b9050806001600160a01b0316846001600160a01b031614806111405750836001600160a01b031661113584610680565b6001600160a01b0316145b8061115057506111508185610ff6565b949350505050565b826001600160a01b031661116b8261089c565b6001600160a01b0316146111b05760405162461bcd60e51b8152600401808060200182810382526029815260200180611f0c6029913960400191505060405180910390fd5b6001600160a01b0382166111f55760405162461bcd60e51b8152600401808060200182810382526024815260200180611db76024913960400191505060405180910390fd5b6112008383836107b8565b61120b60008261103b565b6001600160a01b0383166000908152600160205260409020611233908263ffffffff6115c116565b506001600160a01b038216600090815260016020526040902061125c908263ffffffff6115cd16565b5061126f6002828463ffffffff6115d916565b5080826001600160a01b0316846001600160a01b03167fddf252ad1be2c89b69c2b068fc378daa952ba7f163c4a11628f55a4df523b3ef60405160405180910390a4505050565b600061085c83836115ef565b60008080806112d18686611653565b9097909650945050505050565b60006112eb8484846116ce565b90505b9392505050565b80546001019055565b5490565b6001600160a01b03821661135d576040805162461bcd60e51b815260206004820181905260248201527f4552433732313a206d696e7420746f20746865207a65726f2061646472657373604482015290519081900360640190fd5b61136681611024565b156113b8576040805162461bcd60e51b815260206004820152601c60248201527f4552433732313a20746f6b656e20616c7265616479206d696e74656400000000604482015290519081900360640190fd5b6113c4600083836107b8565b6001600160a01b03821660009081526001602052604090206113ec908263ffffffff6115cd16565b506113ff6002828463ffffffff6115d916565b5060405181906001600160a01b038416906000907fddf252ad1be2c89b69c2b068fc378daa952ba7f163c4a11628f55a4df523b3ef908290a45050565b61144582611024565b6114805760405162461bcd60e51b815260040180806020018281038252602c815260200180611ee0602c913960400191505060405180910390fd5b600082815260086020908152604090912082516107b892840190611c87565b6114aa848484611158565b6114b684848484611798565b610d495760405162461bcd60e51b8152600401808060200182810382526032815260200180611d426032913960400191505060405180910390fd5b60608161151657506040805180820190915260018152600360fc1b60208201526105e4565b8160005b811561152e57600101600a8204915061151a565b6060816040519080825280601f01601f19166020018201604052801561155b576020820181803883390190505b50859350905060001982015b83156115ac57600a840660300160f81b8282806001900393508151811061158a57fe5b60200101906001600160f81b031916908160001a905350600a84049350611567565b50949350505050565b600061085c8383611918565b600061085c8383611930565b600061085c83836119f6565b60006112eb84846001600160a01b038516611a40565b815460009082106116315760405162461bcd60e51b8152600401808060200182810382526022815260200180611d206022913960400191505060405180910390fd5b82600001828154811061164057fe5b9060005260206000200154905092915050565b8154600090819083106116975760405162461bcd60e51b8152600401808060200182810382526022815260200180611e926022913960400191505060405180910390fd5b60008460000184815481106116a857fe5b906000526020600020906002020190508060000154816001015492509250509250929050565b600082815260018401602052604081205482816117695760405162461bcd60e51b81526004018080602001828103825283818151815260200191508051906020019080838360005b8381101561172e578181015183820152602001611716565b50505050905090810190601f16801561175b5780820380516001836020036101000a031916815260200191505b509250505060405180910390fd5b5084600001600182038154811061177c57fe5b9060005260206000209060020201600101549150509392505050565b60006117ac846001600160a01b0316611ad7565b6117b857506001611150565b60606118de630a85bd0160e11b6117cd611037565b88878760405160240180856001600160a01b03166001600160a01b03168152602001846001600160a01b03166001600160a01b0316815260200183815260200180602001828103825283818151815260200191508051906020019080838360005b8381101561184657818101518382015260200161182e565b50505050905090810190601f1680156118735780820380516001836020036101000a031916815260200191505b5095505050505050604051602081830303815290604052906001600160e01b0319166020820180516001600160e01b038381831617835250505050604051806060016040528060328152602001611d42603291396001600160a01b038816919063ffffffff611b1016565b905060008180602001905160208110156118f757600080fd5b50516001600160e01b031916630a85bd0160e11b1492505050949350505050565b60009081526001919091016020526040902054151590565b600081815260018301602052604081205480156119ec578354600019808301919081019060009087908390811061196357fe5b906000526020600020015490508087600001848154811061198057fe5b6000918252602080832090910192909255828152600189810190925260409020908401905586548790806119b057fe5b6001900381819060005260206000200160009055905586600101600087815260200190815260200160002060009055600194505050505061085f565b600091505061085f565b6000611a028383611918565b611a385750815460018181018455600084815260208082209093018490558454848252828601909352604090209190915561085f565b50600061085f565b600082815260018401602052604081205480611aa55750506040805180820182528381526020808201848152865460018181018955600089815284812095516002909302909501918255915190820155865486845281880190925292909120556112ee565b82856000016001830381548110611ab857fe5b90600052602060002090600202016001018190555060009150506112ee565b6000813f7fc5d2460186f7233c927e7db2dcc703c0e500b653ca82273b7bfad8045d85a470818114801590611150575050151592915050565b60606112eb84846000856060611b2585611ad7565b611b76576040805162461bcd60e51b815260206004820152601d60248201527f416464726573733a2063616c6c20746f206e6f6e2d636f6e7472616374000000604482015290519081900360640190fd5b60006060866001600160a01b031685876040518082805190602001908083835b60208310611bb55780518252601f199092019160209182019101611b96565b6001836020036101000a03801982511681845116808217855250505050505090500191505060006040518083038185875af1925050503d8060008114611c17576040519150601f19603f3d011682016040523d82523d6000602084013e611c1c565b606091505b50915091508115611c305791506111509050565b805115611c405780518082602001fd5b60405162461bcd60e51b815260206004820181815286516024840152865187939192839260440191908501908083836000831561172e578181015183820152602001611716565b828054600181600116156101000203166002900490600052602060002090601f016020900481019282601f10611cc857805160ff1916838001178555611cf5565b82800160010185558215611cf5579182015b82811115611cf5578251825591602001919060010190611cda565b50611d01929150611d05565b5090565b61067d91905b80821115611d015760008155600101611d0b56fe456e756d657261626c655365743a20696e646578206f7574206f6620626f756e64734552433732313a207472616e7366657220746f206e6f6e20455243373231526563656976657220696d706c656d656e74657268747470733a2f2f697066732e696f2f697066732f516d583350473856416b615263674c765639364e437246674751416a745234466262764b6d39683439633679524c4552433732313a207472616e7366657220746f20746865207a65726f20616464726573734552433732313a206f70657261746f7220717565727920666f72206e6f6e6578697374656e7420746f6b656e4552433732313a20617070726f76652063616c6c6572206973206e6f74206f776e6572206e6f7220617070726f76656420666f7220616c6c4552433732313a2062616c616e636520717565727920666f7220746865207a65726f20616464726573734552433732313a206f776e657220717565727920666f72206e6f6e6578697374656e7420746f6b656e456e756d657261626c654d61703a20696e646578206f7574206f6620626f756e64734552433732313a20617070726f76656420717565727920666f72206e6f6e6578697374656e7420746f6b656e4552433732314d657461646174613a2055524920736574206f66206e6f6e6578697374656e7420746f6b656e4552433732313a207472616e73666572206f6620746f6b656e2074686174206973206e6f74206f776e4552433732314d657461646174613a2055524920717565727920666f72206e6f6e6578697374656e7420746f6b656e4552433732313a20617070726f76616c20746f2063757272656e74206f776e65724552433732313a207472616e736665722063616c6c6572206973206e6f74206f776e6572206e6f7220617070726f766564a264697066735822122076b64fca5f740688df524771b8316a8e15adec8d391d35468ab0d0300c2f654a64736f6c6343000602003368747470733a2f2f697066732e696f2f697066732f516d583350473856416b615263674c765639364e437246674751416a745234466262764b6d39683439633679524c4552433732314d657461646174613a2055524920736574206f66206e6f6e6578697374656e7420746f6b656e",
  "linkReferences": {},
  "deployedLinkReferences": {}
}