{
  "_format": "hh-sol-artifact-1",
  "contractName": "ListenerContract",
  "sourceName": "contracts/deprecated/ListenerContract.sol",
  "abi": [
    {
      "anonymous": false,
      "inputs": [
        {
          "indexed": false,
          "internalType": "string",
          "name": "_contractName",
          "type": "string"
        },
        {
          "indexed": false,
          "internalType": "address",
          "name": "_contractAddress",
          "type": "address"
        },
        {
          "indexed": false,
          "internalType": "string",
          "name": "_functionName",
          "type": "string"
        },
        {
          "indexed": false,
          "internalType": "string",
          "name": "appName",
          "type": "string"
        }
      ],
      "name": "DeleteData",
      "type": "event"
    },
    {
      "anonymous": false,
      "inputs": [
        {
          "indexed": false,
          "internalType": "uint8",
          "name": "version",
          "type": "uint8"
        }
      ],
      "name": "Initialized",
      "type": "event"
    },
    {
      "anonymous": false,
      "inputs": [
        {
          "indexed": false,
          "internalType": "string",
          "name": "_contractName",
          "type": "string"
        },
        {
          "indexed": false,
          "internalType": "address",
          "name": "_contractAddress",
          "type": "address"
        },
        {
          "indexed": false,
          "internalType": "string",
          "name": "_functionName",
          "type": "string"
        },
        {
          "indexed": false,
          "internalType": "string",
          "name": "appName",
          "type": "string"
        },
        {
          "indexed": false,
          "internalType": "bytes32",
          "name": "_digest",
          "type": "bytes32"
        },
        {
          "indexed": false,
          "internalType": "uint8",
          "name": "_hashFunction",
          "type": "uint8"
        },
        {
          "indexed": false,
          "internalType": "uint8",
          "name": "_size",
          "type": "uint8"
        },
        {
          "indexed": false,
          "internalType": "uint256[]",
          "name": "_resourceArray",
          "type": "uint256[]"
        }
      ],
      "name": "SetData",
      "type": "event"
    },
    {
      "inputs": [],
      "name": "initialize",
      "outputs": [],
      "stateMutability": "nonpayable",
      "type": "function"
    },
    {
      "inputs": [
        {
          "internalType": "string",
          "name": "_contractName",
          "type": "string"
        },
        {
          "internalType": "address",
          "name": "_contractAddress",
          "type": "address"
        },
        {
          "internalType": "string",
          "name": "_functionName",
          "type": "string"
        },
        {
          "internalType": "string",
          "name": "appName",
          "type": "string"
        }
      ],
      "name": "listen",
      "outputs": [
        {
          "internalType": "bool",
          "name": "",
          "type": "bool"
        }
      ],
      "stateMutability": "nonpayable",
      "type": "function"
    },
    {
      "inputs": [
        {
          "internalType": "string",
          "name": "_contractName",
          "type": "string"
        },
        {
          "internalType": "address",
          "name": "_contractAddress",
          "type": "address"
        },
        {
          "internalType": "string",
          "name": "_functionName",
          "type": "string"
        },
        {
          "internalType": "string",
          "name": "appName",
          "type": "string"
        },
        {
          "internalType": "bytes32",
          "name": "_digest",
          "type": "bytes32"
        },
        {
          "internalType": "uint8",
          "name": "_hashFunction",
          "type": "uint8"
        },
        {
          "internalType": "uint8",
          "name": "_size",
          "type": "uint8"
        },
        {
          "internalType": "uint256[]",
          "name": "_resourceArray",
          "type": "uint256[]"
        }
      ],
      "name": "listen",
      "outputs": [
        {
          "internalType": "bool",
          "name": "",
          "type": "bool"
        }
      ],
      "stateMutability": "nonpayable",
      "type": "function"
    }
  ],
  "bytecode": "0x608060405234801561001057600080fd5b506106c7806100206000396000f3fe608060405234801561001057600080fd5b50600436106100415760003560e01c80636e268c86146100465780638129fc1c1461006d578063f54b6ae514610077575b600080fd5b61005961005436600461033b565b61008a565b604051901515815260200160405180910390f35b6100756100d4565b005b6100596100853660046103d0565b610141565b60007f7098b2c5b49b9a87eb365aa2fef01000f4686c97647b86b0ed63fc6f0e234229858585856040516100c194939291906104ff565b60405180910390a1506001949350505050565b60006100e06001610197565b905080156100f8576000805461ff0019166101001790555b801561013e576000805461ff0019169055604051600181527f7f26b83ff96e1f2b6a682f133852f6798a09c465da95921460cefb38474024989060200160405180910390a15b50565b60007f447d89d4ad71ff869aa12fd0f0c49c82ea4f110572717a449511d55aea5190718989898989898989604051610180989796959493929190610552565b60405180910390a150600198975050505050505050565b60008054610100900460ff16156101e7578160ff1660011480156101ba5750303b155b6101df5760405162461bcd60e51b81526004016101d6906105fc565b60405180910390fd5b506000610221565b60005460ff80841691161061020e5760405162461bcd60e51b81526004016101d6906105fc565b506000805460ff191660ff831617905560015b919050565b80356001600160a01b038116811461022157600080fd5b600082601f83011261024d578081fd5b8135602067ffffffffffffffff8211156102695761026961067b565b80820261027782820161064a565b838152828101908684018388018501891015610291578687fd5b8693505b858410156102b3578035835260019390930192918401918401610295565b50979650505050505050565b600082601f8301126102cf578081fd5b813567ffffffffffffffff8111156102e9576102e961067b565b6102fc601f8201601f191660200161064a565b818152846020838601011115610310578283fd5b816020850160208301379081016020019190915292915050565b803560ff8116811461022157600080fd5b60008060008060808587031215610350578384fd5b843567ffffffffffffffff80821115610367578586fd5b610373888389016102bf565b955061038160208801610226565b94506040870135915080821115610396578384fd5b6103a2888389016102bf565b935060608701359150808211156103b7578283fd5b506103c4878288016102bf565b91505092959194509250565b600080600080600080600080610100898b0312156103ec578384fd5b883567ffffffffffffffff80821115610403578586fd5b61040f8c838d016102bf565b995061041d60208c01610226565b985060408b0135915080821115610432578586fd5b61043e8c838d016102bf565b975060608b0135915080821115610453578586fd5b61045f8c838d016102bf565b965060808b0135955061047460a08c0161032a565b945061048260c08c0161032a565b935060e08b0135915080821115610497578283fd5b506104a48b828c0161023d565b9150509295985092959890939650565b60008151808452815b818110156104d9576020818501810151868301820152016104bd565b818111156104ea5782602083870101525b50601f01601f19169290920160200192915050565b60006080825261051260808301876104b4565b6001600160a01b0386166020840152828103604084015261053381866104b4565b9050828103606084015261054781856104b4565b979650505050505050565b60006101008083526105668184018c6104b4565b9050602060018060a01b038b16818501528382036040850152610589828b6104b4565b9150838203606085015261059d828a6104b4565b6080850189905260ff88811660a0870152871660c086015284810360e08601528551808252828701935090820190845b818110156105e9578451835293830193918301916001016105cd565b50909d9c50505050505050505050505050565b6020808252602e908201527f496e697469616c697a61626c653a20636f6e747261637420697320616c72656160408201526d191e481a5b9a5d1a585b1a5e995960921b606082015260800190565b604051601f8201601f1916810167ffffffffffffffff811182821017156106735761067361067b565b604052919050565b634e487b7160e01b600052604160045260246000fdfea2646970667358221220dad50fef1cc98527548cdbc1013b9257edbd8b9fceb2af09171301a5505b8bfe64736f6c63430008020033",
  "linkReferences": {},
  "deployedLinkReferences": {}
}