{
  "_format": "hh-sol-artifact-1",
  "contractName": "Subscription",
  "sourceName": "contracts/Subscription.sol",
  "abi": [
    {
      "anonymous": false,
      "inputs": [
        {
          "indexed": false,
          "internalType": "uint256",
          "name": "NFTId",
          "type": "uint256"
        },
        {
          "indexed": false,
          "internalType": "uint256",
          "name": "subnetId",
          "type": "uint256"
        },
        {
          "indexed": false,
          "internalType": "string",
          "name": "newServiceProvider",
          "type": "string"
        }
      ],
      "name": "AppliedServiceProviderChange",
      "type": "event"
    },
    {
      "anonymous": false,
      "inputs": [
        {
          "indexed": false,
          "internalType": "uint256",
          "name": "NFTId",
          "type": "uint256"
        },
        {
          "indexed": false,
          "internalType": "uint256",
          "name": "currentSubnetId",
          "type": "uint256"
        },
        {
          "indexed": false,
          "internalType": "uint256",
          "name": "newSubnetId",
          "type": "uint256"
        }
      ],
      "name": "ChangedSubnetSubscription",
      "type": "event"
    },
    {
      "anonymous": false,
      "inputs": [
        {
          "indexed": false,
          "internalType": "uint256",
          "name": "prev_limit",
          "type": "uint256"
        },
        {
          "indexed": false,
          "internalType": "uint256",
          "name": "new_limit",
          "type": "uint256"
        }
      ],
      "name": "Changed_LIMIT_MIN_TIME_FUNDS",
      "type": "event"
    },
    {
      "anonymous": false,
      "inputs": [
        {
          "indexed": false,
          "internalType": "uint256",
          "name": "prev_limit",
          "type": "uint256"
        },
        {
          "indexed": false,
          "internalType": "uint256",
          "name": "new_limit",
          "type": "uint256"
        }
      ],
      "name": "Changed_LIMIT_NFT_SUBNETS",
      "type": "event"
    },
    {
      "anonymous": false,
      "inputs": [
        {
          "indexed": false,
          "internalType": "uint256",
          "name": "prev_limit",
          "type": "uint256"
        },
        {
          "indexed": false,
          "internalType": "uint256",
          "name": "new_limit",
          "type": "uint256"
        }
      ],
      "name": "Changed_REQD_COOLDOWN_S_PROVIDER",
      "type": "event"
    },
    {
      "anonymous": false,
      "inputs": [
        {
          "indexed": false,
          "internalType": "uint256",
          "name": "prev_limit",
          "type": "uint256"
        },
        {
          "indexed": false,
          "internalType": "uint256",
          "name": "new_limit",
          "type": "uint256"
        }
      ],
      "name": "Changed_REQD_NOTICE_TIME_S_PROVIDER",
      "type": "event"
    },
    {
      "anonymous": false,
      "inputs": [
        {
          "indexed": false,
          "internalType": "uint8",
          "name": "version",
          "type": "uint8"
        }
      ],
      "name": "Initialized",
      "type": "event"
    },
    {
      "anonymous": false,
      "inputs": [
        {
          "indexed": false,
          "internalType": "address",
          "name": "account",
          "type": "address"
        }
      ],
      "name": "Paused",
      "type": "event"
    },
    {
      "anonymous": false,
      "inputs": [
        {
          "indexed": false,
          "internalType": "uint256",
          "name": "NFTId",
          "type": "uint256"
        },
        {
          "indexed": false,
          "internalType": "uint256",
          "name": "subnetId",
          "type": "uint256"
        },
        {
          "indexed": false,
          "internalType": "address",
          "name": "refAddress",
          "type": "address"
        }
      ],
      "name": "ReferralAdded",
      "type": "event"
    },
    {
      "anonymous": false,
      "inputs": [
        {
          "indexed": false,
          "internalType": "uint256",
          "name": "NFTId",
          "type": "uint256"
        },
        {
          "indexed": false,
          "internalType": "uint256",
          "name": "subnetId",
          "type": "uint256"
        },
        {
          "indexed": false,
          "internalType": "string",
          "name": "newServiceProvider",
          "type": "string"
        }
      ],
      "name": "RequestedServiceProviderChange",
      "type": "event"
    },
    {
      "anonymous": false,
      "inputs": [
        {
          "indexed": true,
          "internalType": "bytes32",
          "name": "role",
          "type": "bytes32"
        },
        {
          "indexed": true,
          "internalType": "bytes32",
          "name": "previousAdminRole",
          "type": "bytes32"
        },
        {
          "indexed": true,
          "internalType": "bytes32",
          "name": "newAdminRole",
          "type": "bytes32"
        }
      ],
      "name": "RoleAdminChanged",
      "type": "event"
    },
    {
      "anonymous": false,
      "inputs": [
        {
          "indexed": true,
          "internalType": "bytes32",
          "name": "role",
          "type": "bytes32"
        },
        {
          "indexed": true,
          "internalType": "address",
          "name": "account",
          "type": "address"
        },
        {
          "indexed": true,
          "internalType": "address",
          "name": "sender",
          "type": "address"
        }
      ],
      "name": "RoleGranted",
      "type": "event"
    },
    {
      "anonymous": false,
      "inputs": [
        {
          "indexed": true,
          "internalType": "bytes32",
          "name": "role",
          "type": "bytes32"
        },
        {
          "indexed": true,
          "internalType": "address",
          "name": "account",
          "type": "address"
        },
        {
          "indexed": true,
          "internalType": "address",
          "name": "sender",
          "type": "address"
        }
      ],
      "name": "RoleRevoked",
      "type": "event"
    },
    {
      "anonymous": false,
      "inputs": [
        {
          "indexed": false,
          "internalType": "uint256",
          "name": "NFTId",
          "type": "uint256"
        },
        {
          "indexed": false,
          "internalType": "uint256",
          "name": "subnetId",
          "type": "uint256"
        },
        {
          "indexed": false,
          "internalType": "string",
          "name": "serviceProviderAddress",
          "type": "string"
        },
        {
          "indexed": false,
          "internalType": "address",
          "name": "referralAddress",
          "type": "address"
        },
        {
          "indexed": false,
          "internalType": "uint256",
          "name": "licenseFee",
          "type": "uint256"
        },
        {
          "indexed": false,
          "internalType": "uint256[]",
          "name": "computeRequired",
          "type": "uint256[]"
        }
      ],
      "name": "Subscribed",
      "type": "event"
    },
    {
      "anonymous": false,
      "inputs": [
        {
          "indexed": false,
          "internalType": "address",
          "name": "account",
          "type": "address"
        }
      ],
      "name": "Unpaused",
      "type": "event"
    },
    {
      "inputs": [],
      "name": "ApplicationNFT",
      "outputs": [
        {
          "internalType": "contract IERC721",
          "name": "",
          "type": "address"
        }
      ],
      "stateMutability": "view",
      "type": "function"
    },
    {
      "inputs": [],
      "name": "CHANGE_COMPUTE_ROLE",
      "outputs": [
        {
          "internalType": "bytes32",
          "name": "",
          "type": "bytes32"
        }
      ],
      "stateMutability": "view",
      "type": "function"
    },
    {
      "inputs": [],
      "name": "DEFAULT_ADMIN_ROLE",
      "outputs": [
        {
          "internalType": "bytes32",
          "name": "",
          "type": "bytes32"
        }
      ],
      "stateMutability": "view",
      "type": "function"
    },
    {
      "inputs": [],
      "name": "GLOBAL_DAO_ADDRESS",
      "outputs": [
        {
          "internalType": "address",
          "name": "",
          "type": "address"
        }
      ],
      "stateMutability": "view",
      "type": "function"
    },
    {
      "inputs": [],
      "name": "LIMIT_NFT_SUBNETS",
      "outputs": [
        {
          "internalType": "uint256",
          "name": "",
          "type": "uint256"
        }
      ],
      "stateMutability": "view",
      "type": "function"
    },
    {
      "inputs": [],
      "name": "MIN_TIME_FUNDS",
      "outputs": [
        {
          "internalType": "uint256",
          "name": "",
          "type": "uint256"
        }
      ],
      "stateMutability": "view",
      "type": "function"
    },
    {
      "inputs": [],
      "name": "REQD_COOLDOWN_S_PROVIDER",
      "outputs": [
        {
          "internalType": "uint256",
          "name": "",
          "type": "uint256"
        }
      ],
      "stateMutability": "view",
      "type": "function"
    },
    {
      "inputs": [],
      "name": "REQD_NOTICE_TIME_S_PROVIDER",
      "outputs": [
        {
          "internalType": "uint256",
          "name": "",
          "type": "uint256"
        }
      ],
      "stateMutability": "view",
      "type": "function"
    },
    {
      "inputs": [],
      "name": "RegistrationContract",
      "outputs": [
        {
          "internalType": "contract IRegistration",
          "name": "",
          "type": "address"
        }
      ],
      "stateMutability": "view",
      "type": "function"
    },
    {
      "inputs": [],
      "name": "SubscriptionBalance",
      "outputs": [
        {
          "internalType": "contract ISubscriptionBalance",
          "name": "",
          "type": "address"
        }
      ],
      "stateMutability": "view",
      "type": "function"
    },
    {
      "inputs": [],
      "name": "WITHDRAW_CREDITS_ROLE",
      "outputs": [
        {
          "internalType": "bytes32",
          "name": "",
          "type": "bytes32"
        }
      ],
      "stateMutability": "view",
      "type": "function"
    },
    {
      "inputs": [],
      "name": "XCT",
      "outputs": [
        {
          "internalType": "contract IERC20Upgradeable",
          "name": "",
          "type": "address"
        }
      ],
      "stateMutability": "view",
      "type": "function"
    },
    {
      "inputs": [
        {
          "internalType": "uint256",
          "name": "_nftId",
          "type": "uint256"
        },
        {
          "internalType": "uint256",
          "name": "_subnetId",
          "type": "uint256"
        },
        {
          "internalType": "address",
          "name": "_refAddress",
          "type": "address"
        }
      ],
      "name": "addReferralAddress",
      "outputs": [],
      "stateMutability": "nonpayable",
      "type": "function"
    },
    {
      "inputs": [
        {
          "internalType": "uint256",
          "name": "_nftId",
          "type": "uint256"
        },
        {
          "internalType": "uint256",
          "name": "_subnetId",
          "type": "uint256"
        }
      ],
      "name": "applyServiceProviderChange",
      "outputs": [],
      "stateMutability": "nonpayable",
      "type": "function"
    },
    {
      "inputs": [
        {
          "internalType": "uint256",
          "name": "_NFTid",
          "type": "uint256"
        },
        {
          "internalType": "uint256",
          "name": "_subnetId",
          "type": "uint256"
        },
        {
          "internalType": "uint256[]",
          "name": "_computeRequired",
          "type": "uint256[]"
        }
      ],
      "name": "changeComputesOfSubnet",
      "outputs": [],
      "stateMutability": "nonpayable",
      "type": "function"
    },
    {
      "inputs": [
        {
          "internalType": "uint256",
          "name": "_nftId",
          "type": "uint256"
        },
        {
          "internalType": "uint256",
          "name": "_currentSubnetId",
          "type": "uint256"
        },
        {
          "internalType": "uint256",
          "name": "_newSubnetId",
          "type": "uint256"
        }
      ],
      "name": "changeSubnetSubscription",
      "outputs": [],
      "stateMutability": "nonpayable",
      "type": "function"
    },
    {
      "inputs": [
        {
          "internalType": "address",
          "name": "_newGlobalDAO",
          "type": "address"
        }
      ],
      "name": "change__GLOBAL_DAO_ADDRESS",
      "outputs": [],
      "stateMutability": "nonpayable",
      "type": "function"
    },
    {
      "inputs": [
        {
          "internalType": "uint256",
          "name": "_new_LIMIT_NFT_SUBNETS",
          "type": "uint256"
        }
      ],
      "name": "change__LIMIT_NFT_SUBNETS",
      "outputs": [],
      "stateMutability": "nonpayable",
      "type": "function"
    },
    {
      "inputs": [
        {
          "internalType": "uint256",
          "name": "_new_MIN_TIME_FUNDS",
          "type": "uint256"
        }
      ],
      "name": "change__MIN_TIME_FUNDS",
      "outputs": [],
      "stateMutability": "nonpayable",
      "type": "function"
    },
    {
      "inputs": [
        {
          "internalType": "uint256",
          "name": "_REQD_COOLDOWN_S_PROVIDER",
          "type": "uint256"
        }
      ],
      "name": "change__REQD_COOLDOWN_S_PROVIDER",
      "outputs": [],
      "stateMutability": "nonpayable",
      "type": "function"
    },
    {
      "inputs": [
        {
          "internalType": "uint256",
          "name": "_REQD_NOTICE_TIME_S_PROVIDER",
          "type": "uint256"
        }
      ],
      "name": "change__REQD_NOTICE_TIME_S_PROVIDER",
      "outputs": [],
      "stateMutability": "nonpayable",
      "type": "function"
    },
    {
      "inputs": [
        {
          "internalType": "string",
          "name": "_roleName",
          "type": "string"
        }
      ],
      "name": "getBytes32OfRole",
      "outputs": [
        {
          "internalType": "bytes32",
          "name": "",
          "type": "bytes32"
        }
      ],
      "stateMutability": "pure",
      "type": "function"
    },
    {
      "inputs": [
        {
          "internalType": "uint256",
          "name": "NFTid",
          "type": "uint256"
        },
        {
          "internalType": "uint256",
          "name": "subnetId",
          "type": "uint256"
        }
      ],
      "name": "getComputesOfSubnet",
      "outputs": [
        {
          "internalType": "uint256[]",
          "name": "",
          "type": "uint256[]"
        }
      ],
      "stateMutability": "view",
      "type": "function"
    },
    {
      "inputs": [
        {
          "internalType": "uint256",
          "name": "_nftId",
          "type": "uint256"
        },
        {
          "internalType": "uint256",
          "name": "_subnetId",
          "type": "uint256"
        }
      ],
      "name": "getReferralAddress",
      "outputs": [
        {
          "internalType": "address",
          "name": "",
          "type": "address"
        }
      ],
      "stateMutability": "view",
      "type": "function"
    },
    {
      "inputs": [
        {
          "internalType": "bytes32",
          "name": "role",
          "type": "bytes32"
        }
      ],
      "name": "getRoleAdmin",
      "outputs": [
        {
          "internalType": "bytes32",
          "name": "",
          "type": "bytes32"
        }
      ],
      "stateMutability": "view",
      "type": "function"
    },
    {
      "inputs": [
        {
          "internalType": "bytes32",
          "name": "role",
          "type": "bytes32"
        },
        {
          "internalType": "address",
          "name": "account",
          "type": "address"
        }
      ],
      "name": "grantRole",
      "outputs": [],
      "stateMutability": "nonpayable",
      "type": "function"
    },
    {
      "inputs": [
        {
          "internalType": "bytes32",
          "name": "role",
          "type": "bytes32"
        },
        {
          "internalType": "address",
          "name": "account",
          "type": "address"
        }
      ],
      "name": "hasRole",
      "outputs": [
        {
          "internalType": "bool",
          "name": "",
          "type": "bool"
        }
      ],
      "stateMutability": "view",
      "type": "function"
    },
    {
      "inputs": [
        {
          "internalType": "address",
          "name": "_GlobalDAO",
          "type": "address"
        },
        {
          "internalType": "uint256",
          "name": "_LIMIT_NFT_SUBNETS",
          "type": "uint256"
        },
        {
          "internalType": "uint256",
          "name": "_MIN_TIME_FUNDS",
          "type": "uint256"
        },
        {
          "internalType": "contract IRegistration",
          "name": "_RegistrationContract",
          "type": "address"
        },
        {
          "internalType": "contract IERC721",
          "name": "_ApplicationNFT",
          "type": "address"
        },
        {
          "internalType": "contract ISubscriptionBalance",
          "name": "_SubscriptionBalance",
          "type": "address"
        },
        {
          "internalType": "contract IERC20Upgradeable",
          "name": "_XCT",
          "type": "address"
        },
        {
          "internalType": "uint256",
          "name": "_REQD_NOTICE_TIME_S_PROVIDER",
          "type": "uint256"
        },
        {
          "internalType": "uint256",
          "name": "_REQD_COOLDOWN_S_PROVIDER",
          "type": "uint256"
        }
      ],
      "name": "initialize",
      "outputs": [],
      "stateMutability": "nonpayable",
      "type": "function"
    },
    {
      "inputs": [],
      "name": "paused",
      "outputs": [
        {
          "internalType": "bool",
          "name": "",
          "type": "bool"
        }
      ],
      "stateMutability": "view",
      "type": "function"
    },
    {
      "inputs": [
        {
          "internalType": "uint256",
          "name": "_nftId",
          "type": "uint256"
        },
        {
          "internalType": "uint256",
          "name": "_subnetId",
          "type": "uint256"
        }
      ],
      "name": "r_licenseFee",
      "outputs": [
        {
          "internalType": "uint256",
          "name": "",
          "type": "uint256"
        }
      ],
      "stateMutability": "view",
      "type": "function"
    },
    {
      "inputs": [
        {
          "internalType": "bytes32",
          "name": "role",
          "type": "bytes32"
        },
        {
          "internalType": "address",
          "name": "account",
          "type": "address"
        }
      ],
      "name": "renounceRole",
      "outputs": [],
      "stateMutability": "nonpayable",
      "type": "function"
    },
    {
      "inputs": [
        {
          "internalType": "uint256",
          "name": "",
          "type": "uint256"
        },
        {
          "internalType": "uint256",
          "name": "",
          "type": "uint256"
        }
      ],
      "name": "requestPriceChange",
      "outputs": [
        {
          "internalType": "uint256",
          "name": "timestamp",
          "type": "uint256"
        },
        {
          "internalType": "string",
          "name": "serviceProviderAddress",
          "type": "string"
        },
        {
          "internalType": "uint256",
          "name": "lastPriceChange",
          "type": "uint256"
        }
      ],
      "stateMutability": "view",
      "type": "function"
    },
    {
      "inputs": [
        {
          "internalType": "uint256",
          "name": "_nftId",
          "type": "uint256"
        },
        {
          "internalType": "uint256",
          "name": "_subnetId",
          "type": "uint256"
        },
        {
          "internalType": "string",
          "name": "_newServiceProvider",
          "type": "string"
        }
      ],
      "name": "requestServiceProviderChange",
      "outputs": [],
      "stateMutability": "nonpayable",
      "type": "function"
    },
    {
      "inputs": [
        {
          "internalType": "bytes32",
          "name": "role",
          "type": "bytes32"
        },
        {
          "internalType": "address",
          "name": "account",
          "type": "address"
        }
      ],
      "name": "revokeRole",
      "outputs": [],
      "stateMutability": "nonpayable",
      "type": "function"
    },
    {
      "inputs": [
        {
          "internalType": "uint256",
          "name": "_balanceToAdd",
          "type": "uint256"
        },
        {
          "internalType": "uint256[]",
          "name": "subnetId",
          "type": "uint256[]"
        },
        {
          "internalType": "string[]",
          "name": "_serviceProviderAddress",
          "type": "string[]"
        },
        {
          "internalType": "address[]",
          "name": "_referralAddress",
          "type": "address[]"
        },
        {
          "internalType": "uint256[]",
          "name": "_licenseFee",
          "type": "uint256[]"
        },
        {
          "internalType": "uint256[][]",
          "name": "computeRequired",
          "type": "uint256[][]"
        }
      ],
      "name": "subscribeBatchNew",
      "outputs": [
        {
          "internalType": "uint256",
          "name": "NFTid",
          "type": "uint256"
        }
      ],
      "stateMutability": "nonpayable",
      "type": "function"
    },
    {
      "inputs": [
        {
          "internalType": "uint256",
          "name": "_nftId",
          "type": "uint256"
        },
        {
          "internalType": "uint256[]",
          "name": "subnetId",
          "type": "uint256[]"
        },
        {
          "internalType": "string[]",
          "name": "_serviceProviderAddress",
          "type": "string[]"
        },
        {
          "internalType": "address[]",
          "name": "_referralAddress",
          "type": "address[]"
        },
        {
          "internalType": "uint256[]",
          "name": "_licenseFee",
          "type": "uint256[]"
        },
        {
          "internalType": "uint256[][]",
          "name": "computeRequired",
          "type": "uint256[][]"
        }
      ],
      "name": "subscribeBatchToExistingNFT",
      "outputs": [],
      "stateMutability": "nonpayable",
      "type": "function"
    },
    {
      "inputs": [
        {
          "internalType": "uint256",
          "name": "_balanceToAdd",
          "type": "uint256"
        },
        {
          "internalType": "uint256",
          "name": "subnetId",
          "type": "uint256"
        },
        {
          "internalType": "string",
          "name": "_serviceProviderAddress",
          "type": "string"
        },
        {
          "internalType": "address",
          "name": "_referralAddress",
          "type": "address"
        },
        {
          "internalType": "uint256",
          "name": "_licenseFee",
          "type": "uint256"
        },
        {
          "internalType": "uint256[]",
          "name": "_computeRequired",
          "type": "uint256[]"
        }
      ],
      "name": "subscribeNew",
      "outputs": [
        {
          "internalType": "uint256",
          "name": "",
          "type": "uint256"
        }
      ],
      "stateMutability": "nonpayable",
      "type": "function"
    },
    {
      "inputs": [
        {
          "internalType": "uint256",
          "name": "_nftId",
          "type": "uint256"
        },
        {
          "internalType": "uint256",
          "name": "_subnetId",
          "type": "uint256"
        },
        {
          "internalType": "string",
          "name": "_serviceProviderAddress",
          "type": "string"
        },
        {
          "internalType": "address",
          "name": "_referralAddress",
          "type": "address"
        },
        {
          "internalType": "uint256",
          "name": "_licenseFee",
          "type": "uint256"
        },
        {
          "internalType": "uint256[]",
          "name": "_computeRequired",
          "type": "uint256[]"
        }
      ],
      "name": "subscribeToExistingNFT",
      "outputs": [],
      "stateMutability": "nonpayable",
      "type": "function"
    },
    {
      "inputs": [
        {
          "internalType": "bytes4",
          "name": "interfaceId",
          "type": "bytes4"
        }
      ],
      "name": "supportsInterface",
      "outputs": [
        {
          "internalType": "bool",
          "name": "",
          "type": "bool"
        }
      ],
      "stateMutability": "view",
      "type": "function"
    },
    {
      "inputs": [
        {
          "internalType": "uint256",
          "name": "",
          "type": "uint256"
        },
        {
          "internalType": "uint256",
          "name": "",
          "type": "uint256"
        }
      ],
      "name": "userSubscription",
      "outputs": [
        {
          "internalType": "string",
          "name": "serviceProviderAddress",
          "type": "string"
        },
        {
          "internalType": "address",
          "name": "referralAddress",
          "type": "address"
        },
        {
          "internalType": "uint256",
          "name": "r_licenseFee",
          "type": "uint256"
        },
        {
          "internalType": "bool",
          "name": "subscribed",
          "type": "bool"
        }
      ],
      "stateMutability": "view",
      "type": "function"
    }
  ],
  "bytecode": "0x608060405234801561001057600080fd5b5061379d806100206000396000f3fe608060405234801561001057600080fd5b50600436106102485760003560e01c80639bda6a9e1161013b578063d547741f116100b8578063dfe455101161007c578063dfe455101461058b578063ec414976146105a4578063f7a249ab146105b7578063f8f4724f146105ca578063fdffffff146105dd57610248565b8063d547741f14610540578063d5cb22c914610553578063d652d8a01461055c578063d9f640051461056f578063dd8ba3f01461058257610248565b8063b1f107e2116100ff578063b1f107e2146104f5578063b5f608e8146104fe578063b621f5b714610507578063c73f22e61461051a578063cbfafbda1461052d57610248565b80639bda6a9e146104725780639ca8b42614610485578063a217fddf146104ac578063a8440fe2146104b4578063abb4b9cd146104e257610248565b806343915cd0116101c95780637b6f78731161018d5780637b6f7873146103e05780637bf654f21461040257806383f59ac61461041557806391d14854146104285780639704576a1461043b57610248565b806343915cd01461036157806345c37cd4146103745780634bed67ff1461039f5780635c975abb146103b25780637584c82f146103bd57610248565b8063203181c911610210578063203181c9146102e5578063248a9ca3146102f85780632f2ff15d1461031b57806336568abe1461032e578063436254d61461034157610248565b806301ffc9a71461024d57806309cfddb2146102755780630d47e24514610296578063110bb8cd146102a95780631386387a146102be575b600080fd5b61026061025b366004612e6d565b6105f0565b60405190151581526020015b60405180910390f35b610288610283366004612ee8565b610629565b60405190815260200161026c565b6102886102a436600461315a565b6108b1565b6102bc6102b736600461306f565b610bb2565b005b6102887f86c262939a9533c4628ccc11f9decb407b7c04ffc9311f0c60d1f23d7d790db781565b6102bc6102f3366004613090565b610dca565b610288610306366004612e26565b60009081526065602052604090206001015490565b6102bc610329366004612e3e565b610f77565b6102bc61033c366004612e3e565b610fa1565b61035461034f36600461306f565b61101f565b60405161026c9190613353565b6102bc61036f366004612e26565b61108d565b60ca54610387906001600160a01b031681565b6040516001600160a01b03909116815260200161026c565b60cc54610387906001600160a01b031681565b60975460ff16610260565b6103d06103cb36600461306f565b6110da565b60405161026c9493929190613379565b6103f36103ee36600461306f565b6111a4565b60405161026c939291906134c8565b6102bc6104103660046130c8565b61125a565b60cd54610387906001600160a01b031681565b610260610436366004612e3e565b61135a565b61038761044936600461306f565b600091825260ce602090815260408084209284529190529020600101546001600160a01b031690565b6102bc610480366004613116565b611385565b6102887f3accb7525e36f7c8113757659b4e6f25deb99f23daf336bf7c35736aae7bcd9d81565b610288600081565b6102886104c236600461306f565b600091825260ce6020908152604080842092845291905290206002015490565b60c954610387906001600160a01b031681565b61028860d05481565b61028860d25481565b6102bc610515366004612d3d565b6115d6565b6102bc6105283660046131de565b611604565b6102bc61053b366004612e26565b611a1b565b6102bc61054e366004612e3e565b611a68565b61028860cf5481565b6102bc61056a366004612d75565b611a8d565b6102bc61057d366004612e26565b611c57565b61028860d15481565b610288610599366004612e95565b805160209091012090565b6102bc6105b2366004612ee8565b611ca4565b60cb54610387906001600160a01b031681565b6102bc6105d8366004612e26565b611d8f565b6102bc6105eb36600461315a565b611ddc565b60006001600160e01b03198216637965db0b60e01b148061062157506301ffc9a760e01b6001600160e01b03198316145b90505b919050565b6000610701878760008151811061065057634e487b7160e01b600052603260045260246000fd5b60200260200101518760008151811061067957634e487b7160e01b600052603260045260246000fd5b6020026020010151876000815181106106a257634e487b7160e01b600052603260045260246000fd5b6020026020010151876000815181106106cb57634e487b7160e01b600052603260045260246000fd5b6020026020010151876000815181106106f457634e487b7160e01b600052603260045260246000fd5b60200260200101516108b1565b905060015b86518110156107f2576107e08288838151811061073357634e487b7160e01b600052603260045260246000fd5b602002602001015188848151811061075b57634e487b7160e01b600052603260045260246000fd5b602002602001015188858151811061078357634e487b7160e01b600052603260045260246000fd5b60200260200101518886815181106107ab57634e487b7160e01b600052603260045260246000fd5b60200260200101518887815181106107d357634e487b7160e01b600052603260045260246000fd5b6020026020010151611ddc565b806107ea8161370b565b915050610706565b5060d05460cb5460405163536aeb8160e11b81526004810184905289926108819290916001600160a01b039091169063a6d5d702906024015b60206040518083038186803b15801561084357600080fd5b505afa158015610857573d6000803e3d6000fd5b505050506040513d601f19601f8201168201806040525081019061087b9190612ed0565b90612008565b106108a75760405162461bcd60e51b815260040161089e9061342b565b60405180910390fd5b9695505050505050565b60006108bf60975460ff1690565b156108dc5760405162461bcd60e51b815260040161089e906133b3565b600061096f600160ca60009054906101000a90046001600160a01b03166001600160a01b031663561892366040518163ffffffff1660e01b815260040160206040518083038186803b15801561093157600080fd5b505afa158015610945573d6000803e3d6000fd5b505050506040513d601f19601f820116820180604052508101906109699190612ed0565b9061201b565b60ca549091506001600160a01b0316636a627842336040516001600160e01b031960e084901b1681526001600160a01b039091166004820152602401602060405180830381600087803b1580156109c557600080fd5b505af11580156109d9573d6000803e3d6000fd5b505050506040513d601f19601f820116820180604052508101906109fd9190612ed0565b5060cc546001600160a01b03166323b872dd336040516001600160e01b031960e084901b1681526001600160a01b039091166004820152306024820152604481018b9052606401602060405180830381600087803b158015610a5e57600080fd5b505af1158015610a72573d6000803e3d6000fd5b505050506040513d601f19601f82011682018060405250810190610a969190612e0c565b50610aa5818888888888612027565b60cb546001600160a01b03166394f6340c828a8a336040516001600160e01b031960e087901b1681526004810194909452602484019290925260448301526001600160a01b03166064820152608401602060405180830381600087803b158015610b0e57600080fd5b505af1158015610b22573d6000803e3d6000fd5b505050506040513d601f19601f82011682018060405250810190610b469190612e0c565b5060d05460cb5460405163199030c960e11b815260048101849052602481018a90528a92610b8a9290916001600160a01b039091169063332061929060440161082b565b10610ba75760405162461bcd60e51b815260040161089e9061342b565b979650505050505050565b6040805160208082018352600080835285815260d38252838120858252909152829020915190917fc5d2460186f7233c927e7db2dcc703c0e500b653ca82273b7bfad8045d85a47091610c08916001019061326f565b60405180910390201415610c765760405162461bcd60e51b815260206004820152602f60248201527f4e6f207265717565737420666f7220736572766963652070726f76696465722060448201526e18da185b99d948191bdb99481e595d608a1b606482015260840161089e565b60d254600084815260d3602090815260408083208684529091529020544291610c9f919061201b565b10610cec5760405162461bcd60e51b815260206004820152601c60248201527f43616e6e6f74206170706c79206265666f726520636f6f6c646f776e00000000604482015260640161089e565b600083815260d360209081526040808320858452825280832042600282015586845260ce835281842086855290925290912060019091018054610d2e906136d0565b610d39929190612962565b50604080516020808201808452600080845287815260d383528481208782529092529290209051610d7092600190920191906129ed565b50600083815260ce602090815260408083208584529091529081902090517f18ea9894f61e99766c715362e69b478c1e4b6d999d935a1a9e513b5a55e2fd3b91610dbd918691869161356d565b60405180910390a1505050565b600083815260ce602090815260408083208584529091529020600101546001600160a01b031615610e2b5760405162461bcd60e51b815260206004820152600b60248201526a105b1c9958591e481cd95d60aa1b604482015260640161089e565b3360ca546040516331a9108f60e11b8152600481018690526001600160a01b039283169290911690636352211e9060240160206040518083038186803b158015610e7457600080fd5b505afa158015610e88573d6000803e3d6000fd5b505050506040513d601f19601f82011682018060405250810190610eac9190612d59565b6001600160a01b031614610f025760405162461bcd60e51b815260206004820152601e60248201527f53656e646572206e6f7420746865206f776e6572206f66204e46542069640000604482015260640161089e565b600083815260ce6020908152604080832085845282529182902060010180546001600160a01b0319166001600160a01b0385169081179091558251868152918201859052918101919091527f5878ac48f3058583ef4c6d4eb2cc2fdbe3fad465b25bb2216a7d0396e0a88b7590606001610dbd565b600082815260656020526040902060010154610f9281612541565b610f9c838361254e565b505050565b6001600160a01b03811633146110115760405162461bcd60e51b815260206004820152602f60248201527f416363657373436f6e74726f6c3a2063616e206f6e6c792072656e6f756e636560448201526e103937b632b9903337b91039b2b63360891b606482015260840161089e565b61101b82826125d4565b5050565b600082815260ce6020908152604080832084845282529182902060030180548351818402810184019094528084526060939283018282801561108057602002820191906000526020600020905b81548152602001906001019080831161106c575b5050505050905092915050565b600061109881612541565b60d25460408051918252602082018490527fc5e14df5fc337a990601fe0ce9170d1666340710bae7daf71491634ab38a58dc910160405180910390a15060d255565b60ce602090815260009283526040808420909152908252902080548190611100906136d0565b80601f016020809104026020016040519081016040528092919081815260200182805461112c906136d0565b80156111795780601f1061114e57610100808354040283529160200191611179565b820191906000526020600020905b81548152906001019060200180831161115c57829003601f168201915b505050506001830154600284015460049094015492936001600160a01b039091169290915060ff1684565b60d3602090815260009283526040808420909152908252902080546001820180549192916111d1906136d0565b80601f01602080910402602001604051908101604052809291908181526020018280546111fd906136d0565b801561124a5780601f1061121f5761010080835404028352916020019161124a565b820191906000526020600020905b81548152906001019060200180831161122d57829003601f168201915b5050505050908060020154905083565b7f3accb7525e36f7c8113757659b4e6f25deb99f23daf336bf7c35736aae7bcd9d61128481612541565b60975460ff16156112a75760405162461bcd60e51b815260040161089e906133b3565b600084815260ce60209081526040808320868452825290912083516112d492600390920191850190612a61565b5060cb54604051635a73b33b60e11b8152600481018690526001600160a01b039091169063b4e7667690602401602060405180830381600087803b15801561131b57600080fd5b505af115801561132f573d6000803e3d6000fd5b505050506040513d601f19601f820116820180604052508101906113539190612e0c565b5050505050565b60009182526065602090815260408084206001600160a01b0393909316845291905290205460ff1690565b3360ca546040516331a9108f60e11b8152600481018690526001600160a01b039283169290911690636352211e9060240160206040518083038186803b1580156113ce57600080fd5b505afa1580156113e2573d6000803e3d6000fd5b505050506040513d601f19601f820116820180604052508101906114069190612d59565b6001600160a01b0316146114565760405162461bcd60e51b8152602060048201526017602482015276139bdd081d1a19481bdddb995c881bd988139195081a59604a1b604482015260640161089e565b600083815260ce6020908152604080832085845290915290206004015460ff166114d45760405162461bcd60e51b815260206004820152602960248201527f5f7375626e65744964206973206e6f74207375627363726962656420627920756044820152681cd95c89dcc813919560ba1b606482015260840161089e565b60d154600084815260d3602090815260408083208684529091529020600201544291611500919061201b565b106115735760405162461bcd60e51b815260206004820152603860248201527f43616e6e6f742072657175657374206265666f726520524551445f4e4f54494360448201527f455f54494d455f535f50524f5649444552207061737365640000000000000000606482015260840161089e565b600083815260d360209081526040808320858452825290912042815582516115a3926001909201918401906129ed565b507e0858c198563c0aa886be91504eeb8007e0be28541c36be5d1ace93f3eebbfd838383604051610dbd939291906134f1565b60006115e181612541565b5060cd80546001600160a01b0319166001600160a01b0392909216919091179055565b60975460ff16156116275760405162461bcd60e51b815260040161089e906133b3565b60c9546040516373d97f3960e01b8152600481018490526000916001600160a01b0316906373d97f399060240160006040518083038186803b15801561166c57600080fd5b505afa158015611680573d6000803e3d6000fd5b505050506040513d6000823e601f3d908101601f191682016040526116a89190810190612fbc565b505050505093505050508061171c5760405162461bcd60e51b815260206004820152603460248201527f43616e6e6f74206368616e676520737562736372697074696f6e206966207375604482015273189b995d081a5cc81b9bdd0819195b1a5cdd195960621b606482015260840161089e565b3360ca546040516331a9108f60e11b8152600481018790526001600160a01b039283169290911690636352211e9060240160206040518083038186803b15801561176557600080fd5b505afa158015611779573d6000803e3d6000fd5b505050506040513d601f19601f8201168201806040525081019061179d9190612d59565b6001600160a01b0316146117ed5760405162461bcd60e51b8152602060048201526017602482015276139bdd081d1a19481bdddb995c881bd988139195081a59604a1b604482015260640161089e565b600084815260ce6020908152604080832086845290915290206004015460ff1661186c5760405162461bcd60e51b815260206004820152602a60248201527f5f63757272656e745375626e65744964206973206e6f7420737562736372696260448201526932b210313c903ab9b2b960b11b606482015260840161089e565b600084815260ce6020908152604080832085845290915280822060048101805460ff191660011790558583529082209184905281549091906118ad906136d0565b6118b8929190612962565b50600084815260ce602090815260408083208684529091528082206001808201548685529290932092830180546001600160a01b0319166001600160a01b03909316929092179091556002808201549083015560039081018054611920939290920191612a9b565b50600084815260ce60209081526040808320868452909152908190206004908101805460ff1916905560cb549151636d6ecc4d60e11b815290810186905260248101859052604481018490526001600160a01b039091169063dadd989a90606401602060405180830381600087803b15801561199b57600080fd5b505af11580156119af573d6000803e3d6000fd5b505050506040513d601f19601f820116820180604052508101906119d39190612e0c565b5060408051858152602081018590529081018390527f53404332d7fbbd680064ad6f3fa2e5a1c6737c9c3206cf95918a31755c7918b79060600160405180910390a150505050565b6000611a2681612541565b60cf5460408051918252602082018490527f54fe1a6d60ea8cebf2cb1d7889eb5b27dd95abe955e06eed2cae5540a54b4bf2910160405180910390a15060cf55565b600082815260656020526040902060010154611a8381612541565b610f9c83836125d4565b6000611a99600161263b565b90508015611ab1576000805461ff0019166101001790555b611ab96126c0565b611ac16126e9565b611acc60008b61254e565b611af67f3accb7525e36f7c8113757659b4e6f25deb99f23daf336bf7c35736aae7bcd9d8b61254e565b611b207f86c262939a9533c4628ccc11f9decb407b7c04ffc9311f0c60d1f23d7d790db78b61254e565b60cd80546001600160a01b038c81166001600160a01b03199283161790925560cf8b905560d08a905560c980548a841690831617905560ca805489841690831617905560cb8054888416908316811790915560cc805493881693909216831790915560d185905560d284905560405163095ea7b360e01b81526004810191909152600019602482015263095ea7b390604401602060405180830381600087803b158015611bcc57600080fd5b505af1158015611be0573d6000803e3d6000fd5b505050506040513d601f19601f82011682018060405250810190611c049190612e0c565b508015611c4b576000805461ff0019169055604051600181527f7f26b83ff96e1f2b6a682f133852f6798a09c465da95921460cefb38474024989060200160405180910390a15b50505050505050505050565b6000611c6281612541565b60d15460408051918252602082018490527f880c74d681b789e90ecfbf24398fc73843a046f74a0f6ffe22a0fcc0d214a771910160405180910390a15060d155565b60005b8551811015611d8657611d7487878381518110611cd457634e487b7160e01b600052603260045260246000fd5b6020026020010151878481518110611cfc57634e487b7160e01b600052603260045260246000fd5b6020026020010151878581518110611d2457634e487b7160e01b600052603260045260246000fd5b6020026020010151878681518110611d4c57634e487b7160e01b600052603260045260246000fd5b60200260200101518787815181106107d357634e487b7160e01b600052603260045260246000fd5b80611d7e8161370b565b915050611ca7565b50505050505050565b6000611d9a81612541565b60d05460408051918252602082018490527f7c687d0697c66d5104a1421b7d823a0818020aeacac7371785314a404d9a2ee2910160405180910390a15060d055565b60975460ff1615611dff5760405162461bcd60e51b815260040161089e906133b3565b60cb546040516388d6c80560e01b8152600481018890526001600160a01b03909116906388d6c80590602401602060405180830381600087803b158015611e4557600080fd5b505af1158015611e59573d6000803e3d6000fd5b505050506040513d601f19601f82011682018060405250810190611e7d9190612e0c565b5060cb5460405163577b97d960e11b8152600481018890526001600160a01b039091169063aef72fb29060240160206040518083038186803b158015611ec257600080fd5b505afa158015611ed6573d6000803e3d6000fd5b505050506040513d601f19601f82011682018060405250810190611efa9190612e0c565b611f6c5760405162461bcd60e51b815260206004820152603860248201527f42616c616e636520666f72204e4654206964203d20302c20736f2063616e6e6f60448201527f7420737562736372696265206d6f7265207375626e6574730000000000000000606482015260840161089e565b60cb5460405163c6d1900360e01b815260048101889052602481018790526001600160a01b039091169063c6d1900390604401602060405180830381600087803b158015611fb957600080fd5b505af1158015611fcd573d6000803e3d6000fd5b505050506040513d601f19601f82011682018060405250810190611ff19190612e0c565b50612000868686868686612027565b505050505050565b6000612014828461366a565b9392505050565b60006120148284613652565b600086815260ce6020908152604080832088845290915290206004015460ff16156120895760405162461bcd60e51b8152602060048201526012602482015271105b1c9958591e481cdd589cd8dc9a58995960721b604482015260640161089e565b60c95460408051631456ce2b60e31b8152905187926001600160a01b03169163a2b67158916004808301926020929190829003018186803b1580156120cd57600080fd5b505afa1580156120e1573d6000803e3d6000fd5b505050506040513d601f19601f820116820180604052508101906121059190612ed0565b116121685760405162461bcd60e51b815260206004820152602d60248201527f5f7375626e6574496420646f6e6f7420657869737420696e205265676973747260448201526c185d1a5bdb90dbdb9d1c9858dd609a1b606482015260840161089e565b60c9546040516373d97f3960e01b8152600481018790526000916001600160a01b0316906373d97f399060240160006040518083038186803b1580156121ad57600080fd5b505afa1580156121c1573d6000803e3d6000fd5b505050506040513d6000823e601f3d908101601f191682016040526121e99190810190612fbc565b50505050509350505050806122765760405162461bcd60e51b815260206004820152604760248201527f526567697374726174696f6e436f6e74726163743a207375626e65742069732060448201527f64656c697374656420616e642068656e63652063616e6e6f74206265207375626064820152661cd8dc9a58995960ca1b608482015260a40161089e565b60cf5460cb54604051632df2d0b960e21b8152600481018a90526001600160a01b039091169063b7cb42e49060240160206040518083038186803b1580156122bd57600080fd5b505afa1580156122d1573d6000803e3d6000fd5b505050506040513d601f19601f820116820180604052508101906122f59190612ed0565b111561237e5760405162461bcd60e51b815260206004820152604c60248201527f43616e6e6f7420737562736372696265206173206c696d69742065786365656460448201527f7320746f206d6178205375626e657420737562736372697074696f6e20616c6c60648201526b1bddd959081c195c8813919560a21b608482015260a40161089e565b3360ca546040516331a9108f60e11b8152600481018a90526001600160a01b039283169290911690636352211e9060240160206040518083038186803b1580156123c757600080fd5b505afa1580156123db573d6000803e3d6000fd5b505050506040513d601f19601f820116820180604052508101906123ff9190612d59565b6001600160a01b0316146124555760405162461bcd60e51b815260206004820152601e60248201527f53656e646572206e6f7420746865206f776e6572206f66204e46542069640000604482015260640161089e565b600087815260ce602090815260408083208984528252909120865161247c928801906129ed565b50600087815260ce6020908152604080832089845282529091206001810180546001600160a01b0319166001600160a01b0388161790556002810185905583516124ce92600390920191850190612a61565b50600087815260ce6020908152604080832089845290915290819020600401805460ff19166001179055517fd8a8eccd539765905df336ff4c3dea59261278d3c359ccf40f1dddd1fa2a5a829061253090899089908990899089908990613519565b60405180910390a150505050505050565b61254b813361271c565b50565b612558828261135a565b61101b5760008281526065602090815260408083206001600160a01b03851684529091529020805460ff191660011790556125903390565b6001600160a01b0316816001600160a01b0316837f2f8788117e7eff1d82e926ec794901d17c78024a50270940304540a733656f0d60405160405180910390a45050565b6125de828261135a565b1561101b5760008281526065602090815260408083206001600160a01b0385168085529252808320805460ff1916905551339285917ff6391f5c32d9c69d2a47ea670b442974b53935d1edc7fd64eb21e047a839171b9190a45050565b60008054610100900460ff1615612682578160ff16600114801561265e5750303b155b61267a5760405162461bcd60e51b815260040161089e906133dd565b506000610624565b60005460ff8084169116106126a95760405162461bcd60e51b815260040161089e906133dd565b506000805460ff191660ff83161790556001610624565b600054610100900460ff166126e75760405162461bcd60e51b815260040161089e9061347d565b565b600054610100900460ff166127105760405162461bcd60e51b815260040161089e9061347d565b6097805460ff19169055565b612726828261135a565b61101b5761273e816001600160a01b03166014612780565b612749836020612780565b60405160200161275a9291906132de565b60408051601f198184030181529082905262461bcd60e51b825261089e91600401613366565b6060600061278f83600261366a565b61279a906002613652565b67ffffffffffffffff8111156127c057634e487b7160e01b600052604160045260246000fd5b6040519080825280601f01601f1916602001820160405280156127ea576020820181803683370190505b509050600360fc1b8160008151811061281357634e487b7160e01b600052603260045260246000fd5b60200101906001600160f81b031916908160001a905350600f60fb1b8160018151811061285057634e487b7160e01b600052603260045260246000fd5b60200101906001600160f81b031916908160001a905350600061287484600261366a565b61287f906001613652565b90505b6001811115612913576f181899199a1a9b1b9c1cb0b131b232b360811b85600f16601081106128c157634e487b7160e01b600052603260045260246000fd5b1a60f81b8282815181106128e557634e487b7160e01b600052603260045260246000fd5b60200101906001600160f81b031916908160001a90535060049490941c9361290c816136b9565b9050612882565b5083156120145760405162461bcd60e51b815260206004820181905260248201527f537472696e67733a20686578206c656e67746820696e73756666696369656e74604482015260640161089e565b82805461296e906136d0565b90600052602060002090601f01602090048101928261299057600085556129dd565b82601f106129a157805485556129dd565b828001600101855582156129dd57600052602060002091601f016020900482015b828111156129dd5782548255916001019190600101906129c2565b506129e9929150612ada565b5090565b8280546129f9906136d0565b90600052602060002090601f016020900481019282612a1b57600085556129dd565b82601f10612a3457805160ff19168380011785556129dd565b828001600101855582156129dd579182015b828111156129dd578251825591602001919060010190612a46565b8280548282559060005260206000209081019282156129dd57916020028201828111156129dd578251825591602001919060010190612a46565b8280548282559060005260206000209081019282156129dd576000526020600020918201828111156129dd5782548255916001019190600101906129c2565b5b808211156129e95760008155600101612adb565b600082601f830112612aff578081fd5b81356020612b14612b0f8361362e565b6135fd565b8281528181019085830183850287018401881015612b30578586fd5b855b85811015612b57578135612b4581613752565b84529284019290840190600101612b32565b5090979650505050505050565b600082601f830112612b74578081fd5b81356020612b84612b0f8361362e565b82815281810190858301855b85811015612b5757612ba7898684358b0101612c0e565b84529284019290840190600101612b90565b600082601f830112612bc9578081fd5b81356020612bd9612b0f8361362e565b82815281810190858301855b85811015612b5757612bfc898684358b0101612cd2565b84529284019290840190600101612be5565b600082601f830112612c1e578081fd5b81356020612c2e612b0f8361362e565b8281528181019085830183850287018401881015612c4a578586fd5b855b85811015612b5757813584529284019290840190600101612c4c565b600082601f830112612c78578081fd5b81516020612c88612b0f8361362e565b8281528181019085830183850287018401881015612ca4578586fd5b855b85811015612b5757815184529284019290840190600101612ca6565b8051801515811461062457600080fd5b600082601f830112612ce2578081fd5b813567ffffffffffffffff811115612cfc57612cfc61373c565b612d0f601f8201601f19166020016135fd565b818152846020838601011115612d23578283fd5b816020850160208301379081016020019190915292915050565b600060208284031215612d4e578081fd5b813561201481613752565b600060208284031215612d6a578081fd5b815161201481613752565b60008060008060008060008060006101208a8c031215612d93578485fd5b8935612d9e81613752565b985060208a0135975060408a0135965060608a0135612dbc81613752565b955060808a0135612dcc81613752565b945060a08a0135612ddc81613752565b935060c08a0135612dec81613752565b8093505060e08a013591506101008a013590509295985092959850929598565b600060208284031215612e1d578081fd5b61201482612cc2565b600060208284031215612e37578081fd5b5035919050565b60008060408385031215612e50578182fd5b823591506020830135612e6281613752565b809150509250929050565b600060208284031215612e7e578081fd5b81356001600160e01b031981168114612014578182fd5b600060208284031215612ea6578081fd5b813567ffffffffffffffff811115612ebc578182fd5b612ec884828501612cd2565b949350505050565b600060208284031215612ee1578081fd5b5051919050565b60008060008060008060c08789031215612f00578384fd5b86359550602087013567ffffffffffffffff80821115612f1e578586fd5b612f2a8a838b01612c0e565b96506040890135915080821115612f3f578586fd5b612f4b8a838b01612bb9565b95506060890135915080821115612f60578384fd5b612f6c8a838b01612aef565b94506080890135915080821115612f81578384fd5b612f8d8a838b01612c0e565b935060a0890135915080821115612fa2578283fd5b50612faf89828a01612b64565b9150509295509295509295565b60008060008060008060008060006101208a8c031215612fda578283fd5b89519850612fea60208b01612cc2565b975060408a01519650612fff60608b01612cc2565b955060808a015167ffffffffffffffff8082111561301b578485fd5b6130278d838e01612c68565b965060a08c015191508082111561303c578485fd5b506130498c828d01612c68565b94505060c08a0151925060e08a015191506101008a015190509295985092959850929598565b60008060408385031215613081578182fd5b50508035926020909101359150565b6000806000606084860312156130a4578081fd5b833592506020840135915060408401356130bd81613752565b809150509250925092565b6000806000606084860312156130dc578081fd5b8335925060208401359150604084013567ffffffffffffffff811115613100578182fd5b61310c86828701612c0e565b9150509250925092565b60008060006060848603121561312a578081fd5b8335925060208401359150604084013567ffffffffffffffff81111561314e578182fd5b61310c86828701612cd2565b60008060008060008060c08789031215613172578384fd5b8635955060208701359450604087013567ffffffffffffffff80821115613197578586fd5b6131a38a838b01612cd2565b9550606089013591506131b582613752565b9093506080880135925060a088013590808211156131d1578283fd5b50612faf89828a01612c0e565b6000806000606084860312156131f2578081fd5b505081359360208301359350604090920135919050565b6000815180845260208085019450808401835b838110156132385781518752958201959082019060010161321c565b509495945050505050565b6000815180845261325b816020860160208601613689565b601f01601f19169290920160200192915050565b600080835461327d816136d0565b6001828116801561329557600181146132a6576132d2565b60ff198416875282870194506132d2565b8786526020808720875b858110156132c95781548a8201529084019082016132b0565b50505082870194505b50929695505050505050565b60007f416363657373436f6e74726f6c3a206163636f756e742000000000000000000082528351613316816017850160208801613689565b7001034b99036b4b9b9b4b733903937b6329607d1b6017918401918201528351613347816028840160208801613689565b01602801949350505050565b6000602082526120146020830184613209565b6000602082526120146020830184613243565b60006080825261338c6080830187613243565b6001600160a01b039590951660208301525060408101929092521515606090910152919050565b60208082526010908201526f14185d5cd8589b194e881c185d5cd95960821b604082015260600190565b6020808252602e908201527f496e697469616c697a61626c653a20636f6e747261637420697320616c72656160408201526d191e481a5b9a5d1a585b1a5e995960921b606082015260800190565b60208082526032908201527f42616c616e63652061646465642073686f756c6420626520656e6f7567682077604082015271697468204d494e5f54494d455f46554e445360701b606082015260800190565b6020808252602b908201527f496e697469616c697a61626c653a20636f6e7472616374206973206e6f74206960408201526a6e697469616c697a696e6760a81b606082015260800190565b6000848252606060208301526134e16060830185613243565b9050826040830152949350505050565b6000848252836020830152606060408301526135106060830184613243565b95945050505050565b600087825286602083015260c0604083015261353860c0830187613243565b6001600160a01b03861660608401526080830185905282810360a08401526135608185613209565b9998505050505050505050565b6000848252602084818401526060604084015281845461358c816136d0565b80606087015260806001808416600081146135ae57600181146135c2576135ed565b60ff1985168984015260a0890195506135ed565b898852868820885b858110156135e55781548b82018601529083019088016135ca565b8a0184019650505b50939a9950505050505050505050565b604051601f8201601f1916810167ffffffffffffffff811182821017156136265761362661373c565b604052919050565b600067ffffffffffffffff8211156136485761364861373c565b5060209081020190565b6000821982111561366557613665613726565b500190565b600081600019048311821515161561368457613684613726565b500290565b60005b838110156136a457818101518382015260200161368c565b838111156136b3576000848401525b50505050565b6000816136c8576136c8613726565b506000190190565b6002810460018216806136e457607f821691505b6020821081141561370557634e487b7160e01b600052602260045260246000fd5b50919050565b600060001982141561371f5761371f613726565b5060010190565b634e487b7160e01b600052601160045260246000fd5b634e487b7160e01b600052604160045260246000fd5b6001600160a01b038116811461254b57600080fdfea2646970667358221220284f407865154afbbd86e36993a630fbc3af8bef977838ea88df3a109ca16be564736f6c63430008020033",
  "linkReferences": {},
  "deployedLinkReferences": {}
}