{
  "_format": "hh-sol-artifact-1",
  "contractName": "Subscription",
  "sourceName": "contracts/Subscription.sol",
  "abi": [
    {
      "anonymous": false,
      "inputs": [
        {
          "indexed": false,
          "internalType": "uint256",
          "name": "NFTId",
          "type": "uint256"
        },
        {
          "indexed": false,
          "internalType": "uint256",
          "name": "subnetId",
          "type": "uint256"
        },
        {
          "indexed": false,
          "internalType": "string",
          "name": "newServiceProvider",
          "type": "string"
        }
      ],
      "name": "AppliedServiceProviderChange",
      "type": "event"
    },
    {
      "anonymous": false,
      "inputs": [
        {
          "indexed": false,
          "internalType": "uint256",
          "name": "NFTId",
          "type": "uint256"
        },
        {
          "indexed": false,
          "internalType": "uint256",
          "name": "currentSubnetId",
          "type": "uint256"
        },
        {
          "indexed": false,
          "internalType": "uint256",
          "name": "newSubnetId",
          "type": "uint256"
        }
      ],
      "name": "ChangedSubnetSubscription",
      "type": "event"
    },
    {
      "anonymous": false,
      "inputs": [
        {
          "indexed": false,
          "internalType": "uint256",
          "name": "prev_limit",
          "type": "uint256"
        },
        {
          "indexed": false,
          "internalType": "uint256",
          "name": "new_limit",
          "type": "uint256"
        }
      ],
      "name": "Changed_LIMIT_MIN_TIME_FUNDS",
      "type": "event"
    },
    {
      "anonymous": false,
      "inputs": [
        {
          "indexed": false,
          "internalType": "uint256",
          "name": "prev_limit",
          "type": "uint256"
        },
        {
          "indexed": false,
          "internalType": "uint256",
          "name": "new_limit",
          "type": "uint256"
        }
      ],
      "name": "Changed_LIMIT_NFT_SUBNETS",
      "type": "event"
    },
    {
      "anonymous": false,
      "inputs": [
        {
          "indexed": false,
          "internalType": "uint256",
          "name": "prev_limit",
          "type": "uint256"
        },
        {
          "indexed": false,
          "internalType": "uint256",
          "name": "new_limit",
          "type": "uint256"
        }
      ],
      "name": "Changed_REQD_COOLDOWN_S_PROVIDER",
      "type": "event"
    },
    {
      "anonymous": false,
      "inputs": [
        {
          "indexed": false,
          "internalType": "uint256",
          "name": "prev_limit",
          "type": "uint256"
        },
        {
          "indexed": false,
          "internalType": "uint256",
          "name": "new_limit",
          "type": "uint256"
        }
      ],
      "name": "Changed_REQD_NOTICE_TIME_S_PROVIDER",
      "type": "event"
    },
    {
      "anonymous": false,
      "inputs": [
        {
          "indexed": false,
          "internalType": "uint8",
          "name": "version",
          "type": "uint8"
        }
      ],
      "name": "Initialized",
      "type": "event"
    },
    {
      "anonymous": false,
      "inputs": [
        {
          "indexed": false,
          "internalType": "address",
          "name": "account",
          "type": "address"
        }
      ],
      "name": "Paused",
      "type": "event"
    },
    {
      "anonymous": false,
      "inputs": [
        {
          "indexed": false,
          "internalType": "uint256",
          "name": "NFTId",
          "type": "uint256"
        },
        {
          "indexed": false,
          "internalType": "uint256",
          "name": "subnetId",
          "type": "uint256"
        },
        {
          "indexed": false,
          "internalType": "address",
          "name": "refAddress",
          "type": "address"
        }
      ],
      "name": "ReferralAdded",
      "type": "event"
    },
    {
      "anonymous": false,
      "inputs": [
        {
          "indexed": false,
          "internalType": "uint256",
          "name": "NFTId",
          "type": "uint256"
        },
        {
          "indexed": false,
          "internalType": "uint256",
          "name": "subnetId",
          "type": "uint256"
        },
        {
          "indexed": false,
          "internalType": "string",
          "name": "newServiceProvider",
          "type": "string"
        }
      ],
      "name": "RequestedServiceProviderChange",
      "type": "event"
    },
    {
      "anonymous": false,
      "inputs": [
        {
          "indexed": true,
          "internalType": "bytes32",
          "name": "role",
          "type": "bytes32"
        },
        {
          "indexed": true,
          "internalType": "bytes32",
          "name": "previousAdminRole",
          "type": "bytes32"
        },
        {
          "indexed": true,
          "internalType": "bytes32",
          "name": "newAdminRole",
          "type": "bytes32"
        }
      ],
      "name": "RoleAdminChanged",
      "type": "event"
    },
    {
      "anonymous": false,
      "inputs": [
        {
          "indexed": true,
          "internalType": "bytes32",
          "name": "role",
          "type": "bytes32"
        },
        {
          "indexed": true,
          "internalType": "address",
          "name": "account",
          "type": "address"
        },
        {
          "indexed": true,
          "internalType": "address",
          "name": "sender",
          "type": "address"
        }
      ],
      "name": "RoleGranted",
      "type": "event"
    },
    {
      "anonymous": false,
      "inputs": [
        {
          "indexed": true,
          "internalType": "bytes32",
          "name": "role",
          "type": "bytes32"
        },
        {
          "indexed": true,
          "internalType": "address",
          "name": "account",
          "type": "address"
        },
        {
          "indexed": true,
          "internalType": "address",
          "name": "sender",
          "type": "address"
        }
      ],
      "name": "RoleRevoked",
      "type": "event"
    },
    {
      "anonymous": false,
      "inputs": [
        {
          "indexed": false,
          "internalType": "uint256",
          "name": "NFTId",
          "type": "uint256"
        },
        {
          "indexed": false,
          "internalType": "uint256",
          "name": "subnetId",
          "type": "uint256"
        },
        {
          "indexed": false,
          "internalType": "string",
          "name": "serviceProviderAddress",
          "type": "string"
        },
        {
          "indexed": false,
          "internalType": "address",
          "name": "referralAddress",
          "type": "address"
        },
        {
          "indexed": false,
          "internalType": "uint256",
          "name": "licenseFee",
          "type": "uint256"
        },
        {
          "indexed": false,
          "internalType": "uint256[]",
          "name": "computeRequired",
          "type": "uint256[]"
        }
      ],
      "name": "Subscribed",
      "type": "event"
    },
    {
      "anonymous": false,
      "inputs": [
        {
          "indexed": false,
          "internalType": "address",
          "name": "account",
          "type": "address"
        }
      ],
      "name": "Unpaused",
      "type": "event"
    },
    {
      "inputs": [],
      "name": "ApplicationNFT",
      "outputs": [
        {
          "internalType": "contract IERC721",
          "name": "",
          "type": "address"
        }
      ],
      "stateMutability": "view",
      "type": "function"
    },
    {
      "inputs": [],
      "name": "CHANGE_COMPUTE_ROLE",
      "outputs": [
        {
          "internalType": "bytes32",
          "name": "",
          "type": "bytes32"
        }
      ],
      "stateMutability": "view",
      "type": "function"
    },
    {
      "inputs": [],
      "name": "DEFAULT_ADMIN_ROLE",
      "outputs": [
        {
          "internalType": "bytes32",
          "name": "",
          "type": "bytes32"
        }
      ],
      "stateMutability": "view",
      "type": "function"
    },
    {
      "inputs": [],
      "name": "GLOBAL_DAO_ADDRESS",
      "outputs": [
        {
          "internalType": "address",
          "name": "",
          "type": "address"
        }
      ],
      "stateMutability": "view",
      "type": "function"
    },
    {
      "inputs": [],
      "name": "LIMIT_NFT_SUBNETS",
      "outputs": [
        {
          "internalType": "uint256",
          "name": "",
          "type": "uint256"
        }
      ],
      "stateMutability": "view",
      "type": "function"
    },
    {
      "inputs": [],
      "name": "MIN_TIME_FUNDS",
      "outputs": [
        {
          "internalType": "uint256",
          "name": "",
          "type": "uint256"
        }
      ],
      "stateMutability": "view",
      "type": "function"
    },
    {
      "inputs": [],
      "name": "REQD_COOLDOWN_S_PROVIDER",
      "outputs": [
        {
          "internalType": "uint256",
          "name": "",
          "type": "uint256"
        }
      ],
      "stateMutability": "view",
      "type": "function"
    },
    {
      "inputs": [],
      "name": "REQD_NOTICE_TIME_S_PROVIDER",
      "outputs": [
        {
          "internalType": "uint256",
          "name": "",
          "type": "uint256"
        }
      ],
      "stateMutability": "view",
      "type": "function"
    },
    {
      "inputs": [],
      "name": "RegistrationContract",
      "outputs": [
        {
          "internalType": "contract IRegistration",
          "name": "",
          "type": "address"
        }
      ],
      "stateMutability": "view",
      "type": "function"
    },
    {
      "inputs": [],
      "name": "SubscriptionBalance",
      "outputs": [
        {
          "internalType": "contract ISubscriptionBalance",
          "name": "",
          "type": "address"
        }
      ],
      "stateMutability": "view",
      "type": "function"
    },
    {
      "inputs": [],
      "name": "WITHDRAW_CREDITS_ROLE",
      "outputs": [
        {
          "internalType": "bytes32",
          "name": "",
          "type": "bytes32"
        }
      ],
      "stateMutability": "view",
      "type": "function"
    },
    {
      "inputs": [],
      "name": "XCT",
      "outputs": [
        {
          "internalType": "contract IERC20Upgradeable",
          "name": "",
          "type": "address"
        }
      ],
      "stateMutability": "view",
      "type": "function"
    },
    {
      "inputs": [
        {
          "internalType": "uint256",
          "name": "_nftId",
          "type": "uint256"
        },
        {
          "internalType": "uint256",
          "name": "_subnetId",
          "type": "uint256"
        },
        {
          "internalType": "address",
          "name": "_refAddress",
          "type": "address"
        }
      ],
      "name": "addReferralAddress",
      "outputs": [],
      "stateMutability": "nonpayable",
      "type": "function"
    },
    {
      "inputs": [
        {
          "internalType": "uint256",
          "name": "_nftId",
          "type": "uint256"
        },
        {
          "internalType": "uint256",
          "name": "_subnetId",
          "type": "uint256"
        }
      ],
      "name": "applyServiceProviderChange",
      "outputs": [],
      "stateMutability": "nonpayable",
      "type": "function"
    },
    {
      "inputs": [
        {
          "internalType": "uint256",
          "name": "_NFTid",
          "type": "uint256"
        },
        {
          "internalType": "uint256",
          "name": "_subnetId",
          "type": "uint256"
        },
        {
          "internalType": "uint256[]",
          "name": "_computeRequired",
          "type": "uint256[]"
        }
      ],
      "name": "changeComputesOfSubnet",
      "outputs": [],
      "stateMutability": "nonpayable",
      "type": "function"
    },
    {
      "inputs": [
        {
          "internalType": "uint256",
          "name": "_nftId",
          "type": "uint256"
        },
        {
          "internalType": "uint256",
          "name": "_currentSubnetId",
          "type": "uint256"
        },
        {
          "internalType": "uint256",
          "name": "_newSubnetId",
          "type": "uint256"
        }
      ],
      "name": "changeSubnetSubscription",
      "outputs": [],
      "stateMutability": "nonpayable",
      "type": "function"
    },
    {
      "inputs": [
        {
          "internalType": "address",
          "name": "_newGlobalDAO",
          "type": "address"
        }
      ],
      "name": "change__GLOBAL_DAO_ADDRESS",
      "outputs": [],
      "stateMutability": "nonpayable",
      "type": "function"
    },
    {
      "inputs": [
        {
          "internalType": "uint256",
          "name": "_new_LIMIT_NFT_SUBNETS",
          "type": "uint256"
        }
      ],
      "name": "change__LIMIT_NFT_SUBNETS",
      "outputs": [],
      "stateMutability": "nonpayable",
      "type": "function"
    },
    {
      "inputs": [
        {
          "internalType": "uint256",
          "name": "_new_MIN_TIME_FUNDS",
          "type": "uint256"
        }
      ],
      "name": "change__MIN_TIME_FUNDS",
      "outputs": [],
      "stateMutability": "nonpayable",
      "type": "function"
    },
    {
      "inputs": [
        {
          "internalType": "uint256",
          "name": "_REQD_COOLDOWN_S_PROVIDER",
          "type": "uint256"
        }
      ],
      "name": "change__REQD_COOLDOWN_S_PROVIDER",
      "outputs": [],
      "stateMutability": "nonpayable",
      "type": "function"
    },
    {
      "inputs": [
        {
          "internalType": "uint256",
          "name": "_REQD_NOTICE_TIME_S_PROVIDER",
          "type": "uint256"
        }
      ],
      "name": "change__REQD_NOTICE_TIME_S_PROVIDER",
      "outputs": [],
      "stateMutability": "nonpayable",
      "type": "function"
    },
    {
      "inputs": [
        {
          "internalType": "string",
          "name": "_roleName",
          "type": "string"
        }
      ],
      "name": "getBytes32OfRole",
      "outputs": [
        {
          "internalType": "bytes32",
          "name": "",
          "type": "bytes32"
        }
      ],
      "stateMutability": "view",
      "type": "function"
    },
    {
      "inputs": [
        {
          "internalType": "uint256",
          "name": "NFTid",
          "type": "uint256"
        },
        {
          "internalType": "uint256",
          "name": "subnetId",
          "type": "uint256"
        }
      ],
      "name": "getComputesOfSubnet",
      "outputs": [
        {
          "internalType": "uint256[]",
          "name": "",
          "type": "uint256[]"
        }
      ],
      "stateMutability": "view",
      "type": "function"
    },
    {
      "inputs": [
        {
          "internalType": "bytes32",
          "name": "role",
          "type": "bytes32"
        }
      ],
      "name": "getRoleAdmin",
      "outputs": [
        {
          "internalType": "bytes32",
          "name": "",
          "type": "bytes32"
        }
      ],
      "stateMutability": "view",
      "type": "function"
    },
    {
      "inputs": [
        {
          "internalType": "bytes32",
          "name": "role",
          "type": "bytes32"
        },
        {
          "internalType": "address",
          "name": "account",
          "type": "address"
        }
      ],
      "name": "grantRole",
      "outputs": [],
      "stateMutability": "nonpayable",
      "type": "function"
    },
    {
      "inputs": [
        {
          "internalType": "bytes32",
          "name": "role",
          "type": "bytes32"
        },
        {
          "internalType": "address",
          "name": "account",
          "type": "address"
        }
      ],
      "name": "hasRole",
      "outputs": [
        {
          "internalType": "bool",
          "name": "",
          "type": "bool"
        }
      ],
      "stateMutability": "view",
      "type": "function"
    },
    {
      "inputs": [
        {
          "internalType": "address",
          "name": "_GlobalDAO",
          "type": "address"
        },
        {
          "internalType": "uint256",
          "name": "_LIMIT_NFT_SUBNETS",
          "type": "uint256"
        },
        {
          "internalType": "uint256",
          "name": "_MIN_TIME_FUNDS",
          "type": "uint256"
        },
        {
          "internalType": "contract IRegistration",
          "name": "_RegistrationContract",
          "type": "address"
        },
        {
          "internalType": "contract IERC721",
          "name": "_ApplicationNFT",
          "type": "address"
        },
        {
          "internalType": "contract ISubscriptionBalance",
          "name": "_SubscriptionBalance",
          "type": "address"
        },
        {
          "internalType": "contract IERC20Upgradeable",
          "name": "_XCT",
          "type": "address"
        },
        {
          "internalType": "uint256",
          "name": "_REQD_NOTICE_TIME_S_PROVIDER",
          "type": "uint256"
        },
        {
          "internalType": "uint256",
          "name": "_REQD_COOLDOWN_S_PROVIDER",
          "type": "uint256"
        }
      ],
      "name": "initialize",
      "outputs": [],
      "stateMutability": "nonpayable",
      "type": "function"
    },
    {
      "inputs": [],
      "name": "paused",
      "outputs": [
        {
          "internalType": "bool",
          "name": "",
          "type": "bool"
        }
      ],
      "stateMutability": "view",
      "type": "function"
    },
    {
      "inputs": [
        {
          "internalType": "uint256",
          "name": "_nftId",
          "type": "uint256"
        },
        {
          "internalType": "uint256",
          "name": "_subnetId",
          "type": "uint256"
        }
      ],
      "name": "r_licenseFee",
      "outputs": [
        {
          "internalType": "uint256",
          "name": "",
          "type": "uint256"
        }
      ],
      "stateMutability": "view",
      "type": "function"
    },
    {
      "inputs": [
        {
          "internalType": "bytes32",
          "name": "role",
          "type": "bytes32"
        },
        {
          "internalType": "address",
          "name": "account",
          "type": "address"
        }
      ],
      "name": "renounceRole",
      "outputs": [],
      "stateMutability": "nonpayable",
      "type": "function"
    },
    {
      "inputs": [
        {
          "internalType": "uint256",
          "name": "",
          "type": "uint256"
        },
        {
          "internalType": "uint256",
          "name": "",
          "type": "uint256"
        }
      ],
      "name": "requestPriceChange",
      "outputs": [
        {
          "internalType": "uint256",
          "name": "timestamp",
          "type": "uint256"
        },
        {
          "internalType": "string",
          "name": "serviceProviderAddress",
          "type": "string"
        },
        {
          "internalType": "uint256",
          "name": "lastPriceChange",
          "type": "uint256"
        }
      ],
      "stateMutability": "view",
      "type": "function"
    },
    {
      "inputs": [
        {
          "internalType": "uint256",
          "name": "_nftId",
          "type": "uint256"
        },
        {
          "internalType": "uint256",
          "name": "_subnetId",
          "type": "uint256"
        },
        {
          "internalType": "string",
          "name": "_newServiceProvider",
          "type": "string"
        }
      ],
      "name": "requestServiceProviderChange",
      "outputs": [],
      "stateMutability": "nonpayable",
      "type": "function"
    },
    {
      "inputs": [
        {
          "internalType": "bytes32",
          "name": "role",
          "type": "bytes32"
        },
        {
          "internalType": "address",
          "name": "account",
          "type": "address"
        }
      ],
      "name": "revokeRole",
      "outputs": [],
      "stateMutability": "nonpayable",
      "type": "function"
    },
    {
      "inputs": [
        {
          "internalType": "uint256",
          "name": "_balanceToAdd",
          "type": "uint256"
        },
        {
          "internalType": "uint256[]",
          "name": "subnetId",
          "type": "uint256[]"
        },
        {
          "internalType": "string[]",
          "name": "_serviceProviderAddress",
          "type": "string[]"
        },
        {
          "internalType": "address[]",
          "name": "_referralAddress",
          "type": "address[]"
        },
        {
          "internalType": "uint256[]",
          "name": "_licenseFee",
          "type": "uint256[]"
        },
        {
          "internalType": "uint256[][]",
          "name": "computeRequired",
          "type": "uint256[][]"
        }
      ],
      "name": "subscribeBatchNew",
      "outputs": [
        {
          "internalType": "uint256",
          "name": "NFTid",
          "type": "uint256"
        }
      ],
      "stateMutability": "nonpayable",
      "type": "function"
    },
    {
      "inputs": [
        {
          "internalType": "uint256",
          "name": "_nftId",
          "type": "uint256"
        },
        {
          "internalType": "uint256[]",
          "name": "subnetId",
          "type": "uint256[]"
        },
        {
          "internalType": "string[]",
          "name": "_serviceProviderAddress",
          "type": "string[]"
        },
        {
          "internalType": "address[]",
          "name": "_referralAddress",
          "type": "address[]"
        },
        {
          "internalType": "uint256[]",
          "name": "_licenseFee",
          "type": "uint256[]"
        },
        {
          "internalType": "uint256[][]",
          "name": "computeRequired",
          "type": "uint256[][]"
        }
      ],
      "name": "subscribeBatchToExistingNFT",
      "outputs": [],
      "stateMutability": "nonpayable",
      "type": "function"
    },
    {
      "inputs": [
        {
          "internalType": "uint256",
          "name": "_balanceToAdd",
          "type": "uint256"
        },
        {
          "internalType": "uint256",
          "name": "subnetId",
          "type": "uint256"
        },
        {
          "internalType": "string",
          "name": "_serviceProviderAddress",
          "type": "string"
        },
        {
          "internalType": "address",
          "name": "_referralAddress",
          "type": "address"
        },
        {
          "internalType": "uint256",
          "name": "_licenseFee",
          "type": "uint256"
        },
        {
          "internalType": "uint256[]",
          "name": "_computeRequired",
          "type": "uint256[]"
        }
      ],
      "name": "subscribeNew",
      "outputs": [
        {
          "internalType": "uint256",
          "name": "",
          "type": "uint256"
        }
      ],
      "stateMutability": "nonpayable",
      "type": "function"
    },
    {
      "inputs": [
        {
          "internalType": "uint256",
          "name": "_nftId",
          "type": "uint256"
        },
        {
          "internalType": "uint256",
          "name": "_subnetId",
          "type": "uint256"
        },
        {
          "internalType": "string",
          "name": "_serviceProviderAddress",
          "type": "string"
        },
        {
          "internalType": "address",
          "name": "_referralAddress",
          "type": "address"
        },
        {
          "internalType": "uint256",
          "name": "_licenseFee",
          "type": "uint256"
        },
        {
          "internalType": "uint256[]",
          "name": "_computeRequired",
          "type": "uint256[]"
        }
      ],
      "name": "subscribeToExistingNFT",
      "outputs": [],
      "stateMutability": "nonpayable",
      "type": "function"
    },
    {
      "inputs": [
        {
          "internalType": "bytes4",
          "name": "interfaceId",
          "type": "bytes4"
        }
      ],
      "name": "supportsInterface",
      "outputs": [
        {
          "internalType": "bool",
          "name": "",
          "type": "bool"
        }
      ],
      "stateMutability": "view",
      "type": "function"
    },
    {
      "inputs": [
        {
          "internalType": "uint256",
          "name": "",
          "type": "uint256"
        },
        {
          "internalType": "uint256",
          "name": "",
          "type": "uint256"
        }
      ],
      "name": "userSubscription",
      "outputs": [
        {
          "internalType": "string",
          "name": "serviceProviderAddress",
          "type": "string"
        },
        {
          "internalType": "address",
          "name": "referralAddress",
          "type": "address"
        },
        {
          "internalType": "uint256",
          "name": "r_licenseFee",
          "type": "uint256"
        },
        {
          "internalType": "bool",
          "name": "subscribed",
          "type": "bool"
        }
      ],
      "stateMutability": "view",
      "type": "function"
    }
  ],
  "bytecode": "0x608060405234801561001057600080fd5b50613472806100206000396000f3fe608060405234801561001057600080fd5b506004361061023d5760003560e01c80639bda6a9e1161013b578063d547741f116100b8578063dfe455101161007c578063dfe4551014610549578063ec41497614610562578063f7a249ab14610575578063f8f4724f14610588578063fdffffff1461059b5761023d565b8063d547741f146104fe578063d5cb22c914610511578063d652d8a01461051a578063d9f640051461052d578063dd8ba3f0146105405761023d565b8063b1f107e2116100ff578063b1f107e2146104b3578063b5f608e8146104bc578063b621f5b7146104c5578063c73f22e6146104d8578063cbfafbda146104eb5761023d565b80639bda6a9e146104305780639ca8b42614610443578063a217fddf1461046a578063a8440fe214610472578063abb4b9cd146104a05761023d565b8063436254d6116101c95780637584c82f1161018d5780637584c82f146103b25780637b6f7873146103d55780637bf654f2146103f757806383f59ac61461040a57806391d148541461041d5761023d565b8063436254d61461033657806343915cd01461035657806345c37cd4146103695780634bed67ff146103945780635c975abb146103a75761023d565b80631386387a116102105780631386387a146102b3578063203181c9146102da578063248a9ca3146102ed5780632f2ff15d1461031057806336568abe146103235761023d565b806301ffc9a71461024257806309cfddb21461026a5780630d47e2451461028b578063110bb8cd1461029e575b600080fd5b610255610250366004612b4d565b6105ae565b60405190151581526020015b60405180910390f35b61027d610278366004612bc8565b6105e7565b604051908152602001610261565b61027d610299366004612e2f565b61086f565b6102b16102ac366004612d44565b610b70565b005b61027d7f86c262939a9533c4628ccc11f9decb407b7c04ffc9311f0c60d1f23d7d790db781565b6102b16102e8366004612d65565b610d88565b61027d6102fb366004612b06565b60009081526065602052604090206001015490565b6102b161031e366004612b1e565b610f35565b6102b1610331366004612b1e565b610f5f565b610349610344366004612d44565b610fdd565b6040516102619190613028565b6102b1610364366004612b06565b61104b565b60ca5461037c906001600160a01b031681565b6040516001600160a01b039091168152602001610261565b60cc5461037c906001600160a01b031681565b60975460ff16610255565b6103c56103c0366004612d44565b611098565b604051610261949392919061304e565b6103e86103e3366004612d44565b611162565b6040516102619392919061319d565b6102b1610405366004612d9d565b611218565b60cd5461037c906001600160a01b031681565b61025561042b366004612b1e565b611318565b6102b161043e366004612deb565b611343565b61027d7f3accb7525e36f7c8113757659b4e6f25deb99f23daf336bf7c35736aae7bcd9d81565b61027d600081565b61027d610480366004612d44565b600091825260ce6020908152604080842092845291905290206002015490565b60c95461037c906001600160a01b031681565b61027d60d05481565b61027d60d25481565b6102b16104d3366004612a1d565b611594565b6102b16104e6366004612eb3565b6115c2565b6102b16104f9366004612b06565b6119d8565b6102b161050c366004612b1e565b611a25565b61027d60cf5481565b6102b1610528366004612a55565b611a4a565b6102b161053b366004612b06565b611c14565b61027d60d15481565b61027d610557366004612b75565b805160209091012090565b6102b1610570366004612bc8565b611c61565b60cb5461037c906001600160a01b031681565b6102b1610596366004612b06565b611d4c565b6102b16105a9366004612e2f565b611d99565b60006001600160e01b03198216637965db0b60e01b14806105df57506301ffc9a760e01b6001600160e01b03198316145b90505b919050565b60006106bf878760008151811061060e57634e487b7160e01b600052603260045260246000fd5b60200260200101518760008151811061063757634e487b7160e01b600052603260045260246000fd5b60200260200101518760008151811061066057634e487b7160e01b600052603260045260246000fd5b60200260200101518760008151811061068957634e487b7160e01b600052603260045260246000fd5b6020026020010151876000815181106106b257634e487b7160e01b600052603260045260246000fd5b602002602001015161086f565b905060015b86518110156107b05761079e828883815181106106f157634e487b7160e01b600052603260045260246000fd5b602002602001015188848151811061071957634e487b7160e01b600052603260045260246000fd5b602002602001015188858151811061074157634e487b7160e01b600052603260045260246000fd5b602002602001015188868151811061076957634e487b7160e01b600052603260045260246000fd5b602002602001015188878151811061079157634e487b7160e01b600052603260045260246000fd5b6020026020010151611d99565b806107a8816133e0565b9150506106c4565b5060d05460cb5460405163536aeb8160e11b815260048101849052899261083f9290916001600160a01b039091169063a6d5d702906024015b60206040518083038186803b15801561080157600080fd5b505afa158015610815573d6000803e3d6000fd5b505050506040513d601f19601f820116820180604052508101906108399190612bb0565b90611ed7565b106108655760405162461bcd60e51b815260040161085c90613100565b60405180910390fd5b9695505050505050565b600061087d60975460ff1690565b1561089a5760405162461bcd60e51b815260040161085c90613088565b600061092d600160ca60009054906101000a90046001600160a01b03166001600160a01b031663561892366040518163ffffffff1660e01b815260040160206040518083038186803b1580156108ef57600080fd5b505afa158015610903573d6000803e3d6000fd5b505050506040513d601f19601f820116820180604052508101906109279190612bb0565b90611eea565b60ca549091506001600160a01b0316636a627842336040516001600160e01b031960e084901b1681526001600160a01b039091166004820152602401602060405180830381600087803b15801561098357600080fd5b505af1158015610997573d6000803e3d6000fd5b505050506040513d601f19601f820116820180604052508101906109bb9190612bb0565b5060cc546001600160a01b03166323b872dd336040516001600160e01b031960e084901b1681526001600160a01b039091166004820152306024820152604481018b9052606401602060405180830381600087803b158015610a1c57600080fd5b505af1158015610a30573d6000803e3d6000fd5b505050506040513d601f19601f82011682018060405250810190610a549190612aec565b50610a63818888888888611ef6565b60cb546001600160a01b03166394f6340c828a8a336040516001600160e01b031960e087901b1681526004810194909452602484019290925260448301526001600160a01b03166064820152608401602060405180830381600087803b158015610acc57600080fd5b505af1158015610ae0573d6000803e3d6000fd5b505050506040513d601f19601f82011682018060405250810190610b049190612aec565b5060d05460cb5460405163199030c960e11b815260048101849052602481018a90528a92610b489290916001600160a01b03909116906333206192906044016107e9565b10610b655760405162461bcd60e51b815260040161085c90613100565b979650505050505050565b6040805160208082018352600080835285815260d38252838120858252909152829020915190917fc5d2460186f7233c927e7db2dcc703c0e500b653ca82273b7bfad8045d85a47091610bc69160010190612f44565b60405180910390201415610c345760405162461bcd60e51b815260206004820152602f60248201527f4e6f207265717565737420666f7220736572766963652070726f76696465722060448201526e18da185b99d948191bdb99481e595d608a1b606482015260840161085c565b60d254600084815260d3602090815260408083208684529091529020544291610c5d9190611eea565b10610caa5760405162461bcd60e51b815260206004820152601c60248201527f43616e6e6f74206170706c79206265666f726520636f6f6c646f776e00000000604482015260640161085c565b600083815260d360209081526040808320858452825280832042600282015586845260ce835281842086855290925290912060019091018054610cec906133a5565b610cf7929190612642565b50604080516020808201808452600080845287815260d383528481208782529092529290209051610d2e92600190920191906126cd565b50600083815260ce602090815260408083208584529091529081902090517f18ea9894f61e99766c715362e69b478c1e4b6d999d935a1a9e513b5a55e2fd3b91610d7b9186918691613242565b60405180910390a1505050565b600083815260ce602090815260408083208584529091529020600101546001600160a01b031615610de95760405162461bcd60e51b815260206004820152600b60248201526a105b1c9958591e481cd95d60aa1b604482015260640161085c565b3360ca546040516331a9108f60e11b8152600481018690526001600160a01b039283169290911690636352211e9060240160206040518083038186803b158015610e3257600080fd5b505afa158015610e46573d6000803e3d6000fd5b505050506040513d601f19601f82011682018060405250810190610e6a9190612a39565b6001600160a01b031614610ec05760405162461bcd60e51b815260206004820152601e60248201527f53656e646572206e6f7420746865206f776e6572206f66204e46542069640000604482015260640161085c565b600083815260ce6020908152604080832085845282529182902060010180546001600160a01b0319166001600160a01b0385169081179091558251868152918201859052918101919091527f5878ac48f3058583ef4c6d4eb2cc2fdbe3fad465b25bb2216a7d0396e0a88b7590606001610d7b565b600082815260656020526040902060010154610f5081612221565b610f5a838361222e565b505050565b6001600160a01b0381163314610fcf5760405162461bcd60e51b815260206004820152602f60248201527f416363657373436f6e74726f6c3a2063616e206f6e6c792072656e6f756e636560448201526e103937b632b9903337b91039b2b63360891b606482015260840161085c565b610fd982826122b4565b5050565b600082815260ce6020908152604080832084845282529182902060030180548351818402810184019094528084526060939283018282801561103e57602002820191906000526020600020905b81548152602001906001019080831161102a575b5050505050905092915050565b600061105681612221565b60d25460408051918252602082018490527fc5e14df5fc337a990601fe0ce9170d1666340710bae7daf71491634ab38a58dc910160405180910390a15060d255565b60ce6020908152600092835260408084209091529082529020805481906110be906133a5565b80601f01602080910402602001604051908101604052809291908181526020018280546110ea906133a5565b80156111375780601f1061110c57610100808354040283529160200191611137565b820191906000526020600020905b81548152906001019060200180831161111a57829003601f168201915b505050506001830154600284015460049094015492936001600160a01b039091169290915060ff1684565b60d36020908152600092835260408084209091529082529020805460018201805491929161118f906133a5565b80601f01602080910402602001604051908101604052809291908181526020018280546111bb906133a5565b80156112085780601f106111dd57610100808354040283529160200191611208565b820191906000526020600020905b8154815290600101906020018083116111eb57829003601f168201915b5050505050908060020154905083565b7f3accb7525e36f7c8113757659b4e6f25deb99f23daf336bf7c35736aae7bcd9d61124281612221565b60975460ff16156112655760405162461bcd60e51b815260040161085c90613088565b600084815260ce602090815260408083208684528252909120835161129292600390920191850190612741565b5060cb54604051635a73b33b60e11b8152600481018690526001600160a01b039091169063b4e7667690602401602060405180830381600087803b1580156112d957600080fd5b505af11580156112ed573d6000803e3d6000fd5b505050506040513d601f19601f820116820180604052508101906113119190612aec565b5050505050565b60009182526065602090815260408084206001600160a01b0393909316845291905290205460ff1690565b3360ca546040516331a9108f60e11b8152600481018690526001600160a01b039283169290911690636352211e9060240160206040518083038186803b15801561138c57600080fd5b505afa1580156113a0573d6000803e3d6000fd5b505050506040513d601f19601f820116820180604052508101906113c49190612a39565b6001600160a01b0316146114145760405162461bcd60e51b8152602060048201526017602482015276139bdd081d1a19481bdddb995c881bd988139195081a59604a1b604482015260640161085c565b600083815260ce6020908152604080832085845290915290206004015460ff166114925760405162461bcd60e51b815260206004820152602960248201527f5f7375626e65744964206973206e6f74207375627363726962656420627920756044820152681cd95c89dcc813919560ba1b606482015260840161085c565b60d154600084815260d36020908152604080832086845290915290206002015442916114be9190611eea565b106115315760405162461bcd60e51b815260206004820152603860248201527f43616e6e6f742072657175657374206265666f726520524551445f4e4f54494360448201527f455f54494d455f535f50524f5649444552207061737365640000000000000000606482015260840161085c565b600083815260d36020908152604080832085845282529091204281558251611561926001909201918401906126cd565b507e0858c198563c0aa886be91504eeb8007e0be28541c36be5d1ace93f3eebbfd838383604051610d7b939291906131c6565b600061159f81612221565b5060cd80546001600160a01b0319166001600160a01b0392909216919091179055565b60975460ff16156115e55760405162461bcd60e51b815260040161085c90613088565b60c9546040516373d97f3960e01b8152600481018490526000916001600160a01b0316906373d97f399060240160006040518083038186803b15801561162a57600080fd5b505afa15801561163e573d6000803e3d6000fd5b505050506040513d6000823e601f3d908101601f191682016040526116669190810190612c9c565b505050509350505050806116d95760405162461bcd60e51b815260206004820152603460248201527f43616e6e6f74206368616e676520737562736372697074696f6e206966207375604482015273189b995d081a5cc81b9bdd0819195b1a5cdd195960621b606482015260840161085c565b3360ca546040516331a9108f60e11b8152600481018790526001600160a01b039283169290911690636352211e9060240160206040518083038186803b15801561172257600080fd5b505afa158015611736573d6000803e3d6000fd5b505050506040513d601f19601f8201168201806040525081019061175a9190612a39565b6001600160a01b0316146117aa5760405162461bcd60e51b8152602060048201526017602482015276139bdd081d1a19481bdddb995c881bd988139195081a59604a1b604482015260640161085c565b600084815260ce6020908152604080832086845290915290206004015460ff166118295760405162461bcd60e51b815260206004820152602a60248201527f5f63757272656e745375626e65744964206973206e6f7420737562736372696260448201526932b210313c903ab9b2b960b11b606482015260840161085c565b600084815260ce6020908152604080832085845290915280822060048101805460ff1916600117905585835290822091849052815490919061186a906133a5565b611875929190612642565b50600084815260ce602090815260408083208684529091528082206001808201548685529290932092830180546001600160a01b0319166001600160a01b039093169290921790915560028082015490830155600390810180546118dd93929092019161277b565b50600084815260ce60209081526040808320868452909152908190206004908101805460ff1916905560cb549151636d6ecc4d60e11b815290810186905260248101859052604481018490526001600160a01b039091169063dadd989a90606401602060405180830381600087803b15801561195857600080fd5b505af115801561196c573d6000803e3d6000fd5b505050506040513d601f19601f820116820180604052508101906119909190612aec565b5060408051858152602081018590529081018390527f53404332d7fbbd680064ad6f3fa2e5a1c6737c9c3206cf95918a31755c7918b79060600160405180910390a150505050565b60006119e381612221565b60cf5460408051918252602082018490527f54fe1a6d60ea8cebf2cb1d7889eb5b27dd95abe955e06eed2cae5540a54b4bf2910160405180910390a15060cf55565b600082815260656020526040902060010154611a4081612221565b610f5a83836122b4565b6000611a56600161231b565b90508015611a6e576000805461ff0019166101001790555b611a766123a0565b611a7e6123c9565b611a8960008b61222e565b611ab37f3accb7525e36f7c8113757659b4e6f25deb99f23daf336bf7c35736aae7bcd9d8b61222e565b611add7f86c262939a9533c4628ccc11f9decb407b7c04ffc9311f0c60d1f23d7d790db78b61222e565b60cd80546001600160a01b038c81166001600160a01b03199283161790925560cf8b905560d08a905560c980548a841690831617905560ca805489841690831617905560cb8054888416908316811790915560cc805493881693909216831790915560d185905560d284905560405163095ea7b360e01b81526004810191909152600019602482015263095ea7b390604401602060405180830381600087803b158015611b8957600080fd5b505af1158015611b9d573d6000803e3d6000fd5b505050506040513d601f19601f82011682018060405250810190611bc19190612aec565b508015611c08576000805461ff0019169055604051600181527f7f26b83ff96e1f2b6a682f133852f6798a09c465da95921460cefb38474024989060200160405180910390a15b50505050505050505050565b6000611c1f81612221565b60d15460408051918252602082018490527f880c74d681b789e90ecfbf24398fc73843a046f74a0f6ffe22a0fcc0d214a771910160405180910390a15060d155565b60005b8551811015611d4357611d3187878381518110611c9157634e487b7160e01b600052603260045260246000fd5b6020026020010151878481518110611cb957634e487b7160e01b600052603260045260246000fd5b6020026020010151878581518110611ce157634e487b7160e01b600052603260045260246000fd5b6020026020010151878681518110611d0957634e487b7160e01b600052603260045260246000fd5b602002602001015187878151811061079157634e487b7160e01b600052603260045260246000fd5b80611d3b816133e0565b915050611c64565b50505050505050565b6000611d5781612221565b60d05460408051918252602082018490527f7c687d0697c66d5104a1421b7d823a0818020aeacac7371785314a404d9a2ee2910160405180910390a15060d055565b60975460ff1615611dbc5760405162461bcd60e51b815260040161085c90613088565b60cb546040516325f5b8f360e11b8152600481018890526001600160a01b0390911690634beb71e690602401602060405180830381600087803b158015611e0257600080fd5b505af1158015611e16573d6000803e3d6000fd5b505050506040513d601f19601f82011682018060405250810190611e3a9190612aec565b5060cb5460405163c6d1900360e01b815260048101889052602481018790526001600160a01b039091169063c6d1900390604401602060405180830381600087803b158015611e8857600080fd5b505af1158015611e9c573d6000803e3d6000fd5b505050506040513d601f19601f82011682018060405250810190611ec09190612aec565b50611ecf868686868686611ef6565b505050505050565b6000611ee3828461333f565b9392505050565b6000611ee38284613327565b600086815260ce6020908152604080832088845290915290206004015460ff1615611f585760405162461bcd60e51b8152602060048201526012602482015271105b1c9958591e481cdd589cd8dc9a58995960721b604482015260640161085c565b60cf5460cb54604051632df2d0b960e21b8152600481018990526001600160a01b039091169063b7cb42e49060240160206040518083038186803b158015611f9f57600080fd5b505afa158015611fb3573d6000803e3d6000fd5b505050506040513d601f19601f82011682018060405250810190611fd79190612bb0565b1061205f5760405162461bcd60e51b815260206004820152604c60248201527f43616e6e6f7420737562736372696265206173206c696d69742065786365656460448201527f7320746f206d6178205375626e657420737562736372697074696f6e20616c6c60648201526b1bddd959081c195c8813919560a21b608482015260a40161085c565b3360ca546040516331a9108f60e11b8152600481018990526001600160a01b039283169290911690636352211e9060240160206040518083038186803b1580156120a857600080fd5b505afa1580156120bc573d6000803e3d6000fd5b505050506040513d601f19601f820116820180604052508101906120e09190612a39565b6001600160a01b0316146121365760405162461bcd60e51b815260206004820152601e60248201527f53656e646572206e6f7420746865206f776e6572206f66204e46542069640000604482015260640161085c565b600086815260ce602090815260408083208884528252909120855161215d928701906126cd565b50600086815260ce6020908152604080832088845282529091206001810180546001600160a01b0319166001600160a01b0387161790556002810184905582516121af92600390920191840190612741565b50600086815260ce6020908152604080832088845290915290819020600401805460ff19166001179055517fd8a8eccd539765905df336ff4c3dea59261278d3c359ccf40f1dddd1fa2a5a8290612211908890889088908890889088906131ee565b60405180910390a1505050505050565b61222b81336123fc565b50565b6122388282611318565b610fd95760008281526065602090815260408083206001600160a01b03851684529091529020805460ff191660011790556122703390565b6001600160a01b0316816001600160a01b0316837f2f8788117e7eff1d82e926ec794901d17c78024a50270940304540a733656f0d60405160405180910390a45050565b6122be8282611318565b15610fd95760008281526065602090815260408083206001600160a01b0385168085529252808320805460ff1916905551339285917ff6391f5c32d9c69d2a47ea670b442974b53935d1edc7fd64eb21e047a839171b9190a45050565b60008054610100900460ff1615612362578160ff16600114801561233e5750303b155b61235a5760405162461bcd60e51b815260040161085c906130b2565b5060006105e2565b60005460ff8084169116106123895760405162461bcd60e51b815260040161085c906130b2565b506000805460ff191660ff831617905560016105e2565b600054610100900460ff166123c75760405162461bcd60e51b815260040161085c90613152565b565b600054610100900460ff166123f05760405162461bcd60e51b815260040161085c90613152565b6097805460ff19169055565b6124068282611318565b610fd95761241e816001600160a01b03166014612460565b612429836020612460565b60405160200161243a929190612fb3565b60408051601f198184030181529082905262461bcd60e51b825261085c9160040161303b565b6060600061246f83600261333f565b61247a906002613327565b67ffffffffffffffff8111156124a057634e487b7160e01b600052604160045260246000fd5b6040519080825280601f01601f1916602001820160405280156124ca576020820181803683370190505b509050600360fc1b816000815181106124f357634e487b7160e01b600052603260045260246000fd5b60200101906001600160f81b031916908160001a905350600f60fb1b8160018151811061253057634e487b7160e01b600052603260045260246000fd5b60200101906001600160f81b031916908160001a905350600061255484600261333f565b61255f906001613327565b90505b60018111156125f3576f181899199a1a9b1b9c1cb0b131b232b360811b85600f16601081106125a157634e487b7160e01b600052603260045260246000fd5b1a60f81b8282815181106125c557634e487b7160e01b600052603260045260246000fd5b60200101906001600160f81b031916908160001a90535060049490941c936125ec8161338e565b9050612562565b508315611ee35760405162461bcd60e51b815260206004820181905260248201527f537472696e67733a20686578206c656e67746820696e73756666696369656e74604482015260640161085c565b82805461264e906133a5565b90600052602060002090601f01602090048101928261267057600085556126bd565b82601f1061268157805485556126bd565b828001600101855582156126bd57600052602060002091601f016020900482015b828111156126bd5782548255916001019190600101906126a2565b506126c99291506127ba565b5090565b8280546126d9906133a5565b90600052602060002090601f0160209004810192826126fb57600085556126bd565b82601f1061271457805160ff19168380011785556126bd565b828001600101855582156126bd579182015b828111156126bd578251825591602001919060010190612726565b8280548282559060005260206000209081019282156126bd57916020028201828111156126bd578251825591602001919060010190612726565b8280548282559060005260206000209081019282156126bd576000526020600020918201828111156126bd5782548255916001019190600101906126a2565b5b808211156126c957600081556001016127bb565b600082601f8301126127df578081fd5b813560206127f46127ef83613303565b6132d2565b8281528181019085830183850287018401881015612810578586fd5b855b8581101561283757813561282581613427565b84529284019290840190600101612812565b5090979650505050505050565b600082601f830112612854578081fd5b813560206128646127ef83613303565b82815281810190858301855b8581101561283757612887898684358b01016128ee565b84529284019290840190600101612870565b600082601f8301126128a9578081fd5b813560206128b96127ef83613303565b82815281810190858301855b85811015612837576128dc898684358b01016129b2565b845292840192908401906001016128c5565b600082601f8301126128fe578081fd5b8135602061290e6127ef83613303565b828152818101908583018385028701840188101561292a578586fd5b855b858110156128375781358452928401929084019060010161292c565b600082601f830112612958578081fd5b815160206129686127ef83613303565b8281528181019085830183850287018401881015612984578586fd5b855b8581101561283757815184529284019290840190600101612986565b805180151581146105e257600080fd5b600082601f8301126129c2578081fd5b813567ffffffffffffffff8111156129dc576129dc613411565b6129ef601f8201601f19166020016132d2565b818152846020838601011115612a03578283fd5b816020850160208301379081016020019190915292915050565b600060208284031215612a2e578081fd5b8135611ee381613427565b600060208284031215612a4a578081fd5b8151611ee381613427565b60008060008060008060008060006101208a8c031215612a73578485fd5b8935612a7e81613427565b985060208a0135975060408a0135965060608a0135612a9c81613427565b955060808a0135612aac81613427565b945060a08a0135612abc81613427565b935060c08a0135612acc81613427565b8093505060e08a013591506101008a013590509295985092959850929598565b600060208284031215612afd578081fd5b611ee3826129a2565b600060208284031215612b17578081fd5b5035919050565b60008060408385031215612b30578182fd5b823591506020830135612b4281613427565b809150509250929050565b600060208284031215612b5e578081fd5b81356001600160e01b031981168114611ee3578182fd5b600060208284031215612b86578081fd5b813567ffffffffffffffff811115612b9c578182fd5b612ba8848285016129b2565b949350505050565b600060208284031215612bc1578081fd5b5051919050565b60008060008060008060c08789031215612be0578384fd5b86359550602087013567ffffffffffffffff80821115612bfe578586fd5b612c0a8a838b016128ee565b96506040890135915080821115612c1f578586fd5b612c2b8a838b01612899565b95506060890135915080821115612c40578384fd5b612c4c8a838b016127cf565b94506080890135915080821115612c61578384fd5b612c6d8a838b016128ee565b935060a0890135915080821115612c82578283fd5b50612c8f89828a01612844565b9150509295509295509295565b600080600080600080600080610100898b031215612cb8578182fd5b88519750612cc860208a016129a2565b965060408901519550612cdd60608a016129a2565b9450608089015167ffffffffffffffff80821115612cf9578384fd5b612d058c838d01612948565b955060a08b0151915080821115612d1a578384fd5b50612d278b828c01612948565b60c08b015160e0909b0151999c989b509699959894979350505050565b60008060408385031215612d56578182fd5b50508035926020909101359150565b600080600060608486031215612d79578081fd5b83359250602084013591506040840135612d9281613427565b809150509250925092565b600080600060608486031215612db1578081fd5b8335925060208401359150604084013567ffffffffffffffff811115612dd5578182fd5b612de1868287016128ee565b9150509250925092565b600080600060608486031215612dff578081fd5b8335925060208401359150604084013567ffffffffffffffff811115612e23578182fd5b612de1868287016129b2565b60008060008060008060c08789031215612e47578384fd5b8635955060208701359450604087013567ffffffffffffffff80821115612e6c578586fd5b612e788a838b016129b2565b955060608901359150612e8a82613427565b9093506080880135925060a08801359080821115612ea6578283fd5b50612c8f89828a016128ee565b600080600060608486031215612ec7578081fd5b505081359360208301359350604090920135919050565b6000815180845260208085019450808401835b83811015612f0d57815187529582019590820190600101612ef1565b509495945050505050565b60008151808452612f3081602086016020860161335e565b601f01601f19169290920160200192915050565b6000808354612f52816133a5565b60018281168015612f6a5760018114612f7b57612fa7565b60ff19841687528287019450612fa7565b8786526020808720875b85811015612f9e5781548a820152908401908201612f85565b50505082870194505b50929695505050505050565b60007f416363657373436f6e74726f6c3a206163636f756e742000000000000000000082528351612feb81601785016020880161335e565b7001034b99036b4b9b9b4b733903937b6329607d1b601791840191820152835161301c81602884016020880161335e565b01602801949350505050565b600060208252611ee36020830184612ede565b600060208252611ee36020830184612f18565b6000608082526130616080830187612f18565b6001600160a01b039590951660208301525060408101929092521515606090910152919050565b60208082526010908201526f14185d5cd8589b194e881c185d5cd95960821b604082015260600190565b6020808252602e908201527f496e697469616c697a61626c653a20636f6e747261637420697320616c72656160408201526d191e481a5b9a5d1a585b1a5e995960921b606082015260800190565b60208082526032908201527f42616c616e63652061646465642073686f756c6420626520656e6f7567682077604082015271697468204d494e5f54494d455f46554e445360701b606082015260800190565b6020808252602b908201527f496e697469616c697a61626c653a20636f6e7472616374206973206e6f74206960408201526a6e697469616c697a696e6760a81b606082015260800190565b6000848252606060208301526131b66060830185612f18565b9050826040830152949350505050565b6000848252836020830152606060408301526131e56060830184612f18565b95945050505050565b600087825286602083015260c0604083015261320d60c0830187612f18565b6001600160a01b03861660608401526080830185905282810360a08401526132358185612ede565b9998505050505050505050565b60008482526020848184015260606040840152818454613261816133a5565b80606087015260806001808416600081146132835760018114613297576132c2565b60ff1985168984015260a0890195506132c2565b898852868820885b858110156132ba5781548b820186015290830190880161329f565b8a0184019650505b50939a9950505050505050505050565b604051601f8201601f1916810167ffffffffffffffff811182821017156132fb576132fb613411565b604052919050565b600067ffffffffffffffff82111561331d5761331d613411565b5060209081020190565b6000821982111561333a5761333a6133fb565b500190565b6000816000190483118215151615613359576133596133fb565b500290565b60005b83811015613379578181015183820152602001613361565b83811115613388576000848401525b50505050565b60008161339d5761339d6133fb565b506000190190565b6002810460018216806133b957607f821691505b602082108114156133da57634e487b7160e01b600052602260045260246000fd5b50919050565b60006000198214156133f4576133f46133fb565b5060010190565b634e487b7160e01b600052601160045260246000fd5b634e487b7160e01b600052604160045260246000fd5b6001600160a01b038116811461222b57600080fdfea26469706673582212208b92c9defd5f15cd20fda58f5dea1f38774873c786cff7de8d4985f13c05118764736f6c63430008020033",
  "linkReferences": {},
  "deployedLinkReferences": {}
}