{
  "_format": "hh-sol-artifact-1",
  "contractName": "Subscription",
  "sourceName": "contracts/Subscription.sol",
  "abi": [
    {
      "anonymous": false,
      "inputs": [
        {
          "indexed": false,
          "internalType": "uint256",
          "name": "NFTId",
          "type": "uint256"
        },
        {
          "indexed": false,
          "internalType": "uint256",
          "name": "subnetId",
          "type": "uint256"
        },
        {
          "indexed": false,
          "internalType": "string",
          "name": "newServiceProvider",
          "type": "string"
        }
      ],
      "name": "AppliedServiceProviderChange",
      "type": "event"
    },
    {
      "anonymous": false,
      "inputs": [
        {
          "indexed": false,
          "internalType": "uint256",
          "name": "NFTId",
          "type": "uint256"
        },
        {
          "indexed": false,
          "internalType": "uint256",
          "name": "currentSubnetId",
          "type": "uint256"
        },
        {
          "indexed": false,
          "internalType": "uint256",
          "name": "newSubnetId",
          "type": "uint256"
        }
      ],
      "name": "ChangedSubnetSubscription",
      "type": "event"
    },
    {
      "anonymous": false,
      "inputs": [
        {
          "indexed": false,
          "internalType": "uint256",
          "name": "prev_limit",
          "type": "uint256"
        },
        {
          "indexed": false,
          "internalType": "uint256",
          "name": "new_limit",
          "type": "uint256"
        }
      ],
      "name": "Changed_LIMIT_MIN_TIME_FUNDS",
      "type": "event"
    },
    {
      "anonymous": false,
      "inputs": [
        {
          "indexed": false,
          "internalType": "uint256",
          "name": "prev_limit",
          "type": "uint256"
        },
        {
          "indexed": false,
          "internalType": "uint256",
          "name": "new_limit",
          "type": "uint256"
        }
      ],
      "name": "Changed_LIMIT_NFT_SUBNETS",
      "type": "event"
    },
    {
      "anonymous": false,
      "inputs": [
        {
          "indexed": false,
          "internalType": "uint256",
          "name": "prev_limit",
          "type": "uint256"
        },
        {
          "indexed": false,
          "internalType": "uint256",
          "name": "new_limit",
          "type": "uint256"
        }
      ],
      "name": "Changed_REQD_COOLDOWN_S_PROVIDER",
      "type": "event"
    },
    {
      "anonymous": false,
      "inputs": [
        {
          "indexed": false,
          "internalType": "uint256",
          "name": "prev_limit",
          "type": "uint256"
        },
        {
          "indexed": false,
          "internalType": "uint256",
          "name": "new_limit",
          "type": "uint256"
        }
      ],
      "name": "Changed_REQD_NOTICE_TIME_S_PROVIDER",
      "type": "event"
    },
    {
      "anonymous": false,
      "inputs": [
        {
          "indexed": false,
          "internalType": "uint256",
          "name": "NFTid",
          "type": "uint256"
        },
        {
          "indexed": false,
          "internalType": "uint256",
          "name": "subnetId",
          "type": "uint256"
        },
        {
          "indexed": false,
          "internalType": "uint256[]",
          "name": "computeRequired",
          "type": "uint256[]"
        }
      ],
      "name": "Computes_changed",
      "type": "event"
    },
    {
      "anonymous": false,
      "inputs": [
        {
          "indexed": false,
          "internalType": "uint8",
          "name": "version",
          "type": "uint8"
        }
      ],
      "name": "Initialized",
      "type": "event"
    },
    {
      "anonymous": false,
      "inputs": [
        {
          "indexed": false,
          "internalType": "address",
          "name": "account",
          "type": "address"
        }
      ],
      "name": "Paused",
      "type": "event"
    },
    {
      "anonymous": false,
      "inputs": [
        {
          "indexed": false,
          "internalType": "uint256",
          "name": "NFTId",
          "type": "uint256"
        },
        {
          "indexed": false,
          "internalType": "uint256",
          "name": "subnetId",
          "type": "uint256"
        },
        {
          "indexed": false,
          "internalType": "address",
          "name": "refAddress",
          "type": "address"
        }
      ],
      "name": "ReferralAdded",
      "type": "event"
    },
    {
      "anonymous": false,
      "inputs": [
        {
          "indexed": false,
          "internalType": "uint256",
          "name": "NFTId",
          "type": "uint256"
        },
        {
          "indexed": false,
          "internalType": "uint256",
          "name": "subnetId",
          "type": "uint256"
        },
        {
          "indexed": false,
          "internalType": "string",
          "name": "newServiceProvider",
          "type": "string"
        }
      ],
      "name": "RequestedServiceProviderChange",
      "type": "event"
    },
    {
      "anonymous": false,
      "inputs": [
        {
          "indexed": true,
          "internalType": "bytes32",
          "name": "role",
          "type": "bytes32"
        },
        {
          "indexed": true,
          "internalType": "bytes32",
          "name": "previousAdminRole",
          "type": "bytes32"
        },
        {
          "indexed": true,
          "internalType": "bytes32",
          "name": "newAdminRole",
          "type": "bytes32"
        }
      ],
      "name": "RoleAdminChanged",
      "type": "event"
    },
    {
      "anonymous": false,
      "inputs": [
        {
          "indexed": true,
          "internalType": "bytes32",
          "name": "role",
          "type": "bytes32"
        },
        {
          "indexed": true,
          "internalType": "address",
          "name": "account",
          "type": "address"
        },
        {
          "indexed": true,
          "internalType": "address",
          "name": "sender",
          "type": "address"
        }
      ],
      "name": "RoleGranted",
      "type": "event"
    },
    {
      "anonymous": false,
      "inputs": [
        {
          "indexed": true,
          "internalType": "bytes32",
          "name": "role",
          "type": "bytes32"
        },
        {
          "indexed": true,
          "internalType": "address",
          "name": "account",
          "type": "address"
        },
        {
          "indexed": true,
          "internalType": "address",
          "name": "sender",
          "type": "address"
        }
      ],
      "name": "RoleRevoked",
      "type": "event"
    },
    {
      "anonymous": false,
      "inputs": [
        {
          "indexed": false,
          "internalType": "uint256",
          "name": "NFTId",
          "type": "uint256"
        },
        {
          "indexed": false,
          "internalType": "uint256",
          "name": "subnetId",
          "type": "uint256"
        },
        {
          "indexed": false,
          "internalType": "string",
          "name": "serviceProviderAddress",
          "type": "string"
        },
        {
          "indexed": false,
          "internalType": "address",
          "name": "referralAddress",
          "type": "address"
        },
        {
          "indexed": false,
          "internalType": "uint256",
          "name": "licenseFee",
          "type": "uint256"
        },
        {
          "indexed": false,
          "internalType": "uint256[]",
          "name": "computeRequired",
          "type": "uint256[]"
        }
      ],
      "name": "Subscribed",
      "type": "event"
    },
    {
      "anonymous": false,
      "inputs": [
        {
          "indexed": false,
          "internalType": "address",
          "name": "account",
          "type": "address"
        }
      ],
      "name": "Unpaused",
      "type": "event"
    },
    {
      "inputs": [],
      "name": "ApplicationNFT",
      "outputs": [
        {
          "internalType": "contract IERC721",
          "name": "",
          "type": "address"
        }
      ],
      "stateMutability": "view",
      "type": "function"
    },
    {
      "inputs": [],
      "name": "CHANGE_COMPUTE_ROLE",
      "outputs": [
        {
          "internalType": "bytes32",
          "name": "",
          "type": "bytes32"
        }
      ],
      "stateMutability": "view",
      "type": "function"
    },
    {
      "inputs": [],
      "name": "DEFAULT_ADMIN_ROLE",
      "outputs": [
        {
          "internalType": "bytes32",
          "name": "",
          "type": "bytes32"
        }
      ],
      "stateMutability": "view",
      "type": "function"
    },
    {
      "inputs": [],
      "name": "GLOBAL_DAO_ADDRESS",
      "outputs": [
        {
          "internalType": "address",
          "name": "",
          "type": "address"
        }
      ],
      "stateMutability": "view",
      "type": "function"
    },
    {
      "inputs": [],
      "name": "LIMIT_NFT_SUBNETS",
      "outputs": [
        {
          "internalType": "uint256",
          "name": "",
          "type": "uint256"
        }
      ],
      "stateMutability": "view",
      "type": "function"
    },
    {
      "inputs": [],
      "name": "MIN_TIME_FUNDS",
      "outputs": [
        {
          "internalType": "uint256",
          "name": "",
          "type": "uint256"
        }
      ],
      "stateMutability": "view",
      "type": "function"
    },
    {
      "inputs": [],
      "name": "REQD_COOLDOWN_S_PROVIDER",
      "outputs": [
        {
          "internalType": "uint256",
          "name": "",
          "type": "uint256"
        }
      ],
      "stateMutability": "view",
      "type": "function"
    },
    {
      "inputs": [],
      "name": "REQD_NOTICE_TIME_S_PROVIDER",
      "outputs": [
        {
          "internalType": "uint256",
          "name": "",
          "type": "uint256"
        }
      ],
      "stateMutability": "view",
      "type": "function"
    },
    {
      "inputs": [],
      "name": "RegistrationContract",
      "outputs": [
        {
          "internalType": "contract IRegistration",
          "name": "",
          "type": "address"
        }
      ],
      "stateMutability": "view",
      "type": "function"
    },
    {
      "inputs": [],
      "name": "SubscriptionBalance",
      "outputs": [
        {
          "internalType": "contract ISubscriptionBalance",
          "name": "",
          "type": "address"
        }
      ],
      "stateMutability": "view",
      "type": "function"
    },
    {
      "inputs": [],
      "name": "WITHDRAW_CREDITS_ROLE",
      "outputs": [
        {
          "internalType": "bytes32",
          "name": "",
          "type": "bytes32"
        }
      ],
      "stateMutability": "view",
      "type": "function"
    },
    {
      "inputs": [],
      "name": "XCT",
      "outputs": [
        {
          "internalType": "contract IERC20Upgradeable",
          "name": "",
          "type": "address"
        }
      ],
      "stateMutability": "view",
      "type": "function"
    },
    {
      "inputs": [
        {
          "internalType": "uint256",
          "name": "_nftId",
          "type": "uint256"
        },
        {
          "internalType": "uint256",
          "name": "_subnetId",
          "type": "uint256"
        },
        {
          "internalType": "address",
          "name": "_refAddress",
          "type": "address"
        }
      ],
      "name": "addReferralAddress",
      "outputs": [],
      "stateMutability": "nonpayable",
      "type": "function"
    },
    {
      "inputs": [
        {
          "internalType": "uint256",
          "name": "_nftId",
          "type": "uint256"
        },
        {
          "internalType": "uint256",
          "name": "_subnetId",
          "type": "uint256"
        }
      ],
      "name": "applyServiceProviderChange",
      "outputs": [],
      "stateMutability": "nonpayable",
      "type": "function"
    },
    {
      "inputs": [
        {
          "internalType": "uint256",
          "name": "_NFTid",
          "type": "uint256"
        },
        {
          "internalType": "uint256",
          "name": "_subnetId",
          "type": "uint256"
        },
        {
          "internalType": "uint256[]",
          "name": "_computeRequired",
          "type": "uint256[]"
        }
      ],
      "name": "changeComputesOfSubnet",
      "outputs": [],
      "stateMutability": "nonpayable",
      "type": "function"
    },
    {
      "inputs": [
        {
          "internalType": "uint256",
          "name": "_nftId",
          "type": "uint256"
        },
        {
          "internalType": "uint256",
          "name": "_currentSubnetId",
          "type": "uint256"
        },
        {
          "internalType": "uint256",
          "name": "_newSubnetId",
          "type": "uint256"
        }
      ],
      "name": "changeSubnetSubscription",
      "outputs": [],
      "stateMutability": "nonpayable",
      "type": "function"
    },
    {
      "inputs": [
        {
          "internalType": "address",
          "name": "_newGlobalDAO",
          "type": "address"
        }
      ],
      "name": "change__GLOBAL_DAO_ADDRESS",
      "outputs": [],
      "stateMutability": "nonpayable",
      "type": "function"
    },
    {
      "inputs": [
        {
          "internalType": "uint256",
          "name": "_new_LIMIT_NFT_SUBNETS",
          "type": "uint256"
        }
      ],
      "name": "change__LIMIT_NFT_SUBNETS",
      "outputs": [],
      "stateMutability": "nonpayable",
      "type": "function"
    },
    {
      "inputs": [
        {
          "internalType": "uint256",
          "name": "_new_MIN_TIME_FUNDS",
          "type": "uint256"
        }
      ],
      "name": "change__MIN_TIME_FUNDS",
      "outputs": [],
      "stateMutability": "nonpayable",
      "type": "function"
    },
    {
      "inputs": [
        {
          "internalType": "uint256",
          "name": "_REQD_COOLDOWN_S_PROVIDER",
          "type": "uint256"
        }
      ],
      "name": "change__REQD_COOLDOWN_S_PROVIDER",
      "outputs": [],
      "stateMutability": "nonpayable",
      "type": "function"
    },
    {
      "inputs": [
        {
          "internalType": "uint256",
          "name": "_REQD_NOTICE_TIME_S_PROVIDER",
          "type": "uint256"
        }
      ],
      "name": "change__REQD_NOTICE_TIME_S_PROVIDER",
      "outputs": [],
      "stateMutability": "nonpayable",
      "type": "function"
    },
    {
      "inputs": [
        {
          "internalType": "string",
          "name": "_roleName",
          "type": "string"
        }
      ],
      "name": "getBytes32OfRole",
      "outputs": [
        {
          "internalType": "bytes32",
          "name": "",
          "type": "bytes32"
        }
      ],
      "stateMutability": "pure",
      "type": "function"
    },
    {
      "inputs": [
        {
          "internalType": "uint256",
          "name": "NFTid",
          "type": "uint256"
        },
        {
          "internalType": "uint256",
          "name": "subnetId",
          "type": "uint256"
        }
      ],
      "name": "getComputesOfSubnet",
      "outputs": [
        {
          "internalType": "uint256[]",
          "name": "",
          "type": "uint256[]"
        }
      ],
      "stateMutability": "view",
      "type": "function"
    },
    {
      "inputs": [
        {
          "internalType": "uint256",
          "name": "_nftId",
          "type": "uint256"
        },
        {
          "internalType": "uint256",
          "name": "_subnetId",
          "type": "uint256"
        }
      ],
      "name": "getReferralAddress",
      "outputs": [
        {
          "internalType": "address",
          "name": "",
          "type": "address"
        }
      ],
      "stateMutability": "view",
      "type": "function"
    },
    {
      "inputs": [
        {
          "internalType": "bytes32",
          "name": "role",
          "type": "bytes32"
        }
      ],
      "name": "getRoleAdmin",
      "outputs": [
        {
          "internalType": "bytes32",
          "name": "",
          "type": "bytes32"
        }
      ],
      "stateMutability": "view",
      "type": "function"
    },
    {
      "inputs": [
        {
          "internalType": "bytes32",
          "name": "role",
          "type": "bytes32"
        },
        {
          "internalType": "address",
          "name": "account",
          "type": "address"
        }
      ],
      "name": "grantRole",
      "outputs": [],
      "stateMutability": "nonpayable",
      "type": "function"
    },
    {
      "inputs": [
        {
          "internalType": "bytes32",
          "name": "role",
          "type": "bytes32"
        },
        {
          "internalType": "address",
          "name": "account",
          "type": "address"
        }
      ],
      "name": "hasRole",
      "outputs": [
        {
          "internalType": "bool",
          "name": "",
          "type": "bool"
        }
      ],
      "stateMutability": "view",
      "type": "function"
    },
    {
      "inputs": [
        {
          "internalType": "address",
          "name": "_GlobalDAO",
          "type": "address"
        },
        {
          "internalType": "uint256",
          "name": "_LIMIT_NFT_SUBNETS",
          "type": "uint256"
        },
        {
          "internalType": "uint256",
          "name": "_MIN_TIME_FUNDS",
          "type": "uint256"
        },
        {
          "internalType": "contract IRegistration",
          "name": "_RegistrationContract",
          "type": "address"
        },
        {
          "internalType": "contract IERC721",
          "name": "_ApplicationNFT",
          "type": "address"
        },
        {
          "internalType": "contract ISubscriptionBalance",
          "name": "_SubscriptionBalance",
          "type": "address"
        },
        {
          "internalType": "contract IERC20Upgradeable",
          "name": "_XCT",
          "type": "address"
        },
        {
          "internalType": "uint256",
          "name": "_REQD_NOTICE_TIME_S_PROVIDER",
          "type": "uint256"
        },
        {
          "internalType": "uint256",
          "name": "_REQD_COOLDOWN_S_PROVIDER",
          "type": "uint256"
        }
      ],
      "name": "initialize",
      "outputs": [],
      "stateMutability": "nonpayable",
      "type": "function"
    },
    {
      "inputs": [],
      "name": "paused",
      "outputs": [
        {
          "internalType": "bool",
          "name": "",
          "type": "bool"
        }
      ],
      "stateMutability": "view",
      "type": "function"
    },
    {
      "inputs": [
        {
          "internalType": "uint256",
          "name": "_nftId",
          "type": "uint256"
        },
        {
          "internalType": "uint256",
          "name": "_subnetId",
          "type": "uint256"
        }
      ],
      "name": "r_licenseFee",
      "outputs": [
        {
          "internalType": "uint256",
          "name": "",
          "type": "uint256"
        }
      ],
      "stateMutability": "view",
      "type": "function"
    },
    {
      "inputs": [
        {
          "internalType": "bytes32",
          "name": "role",
          "type": "bytes32"
        },
        {
          "internalType": "address",
          "name": "account",
          "type": "address"
        }
      ],
      "name": "renounceRole",
      "outputs": [],
      "stateMutability": "nonpayable",
      "type": "function"
    },
    {
      "inputs": [
        {
          "internalType": "uint256",
          "name": "",
          "type": "uint256"
        },
        {
          "internalType": "uint256",
          "name": "",
          "type": "uint256"
        }
      ],
      "name": "requestPriceChange",
      "outputs": [
        {
          "internalType": "uint256",
          "name": "timestamp",
          "type": "uint256"
        },
        {
          "internalType": "string",
          "name": "serviceProviderAddress",
          "type": "string"
        },
        {
          "internalType": "uint256",
          "name": "lastPriceChange",
          "type": "uint256"
        }
      ],
      "stateMutability": "view",
      "type": "function"
    },
    {
      "inputs": [
        {
          "internalType": "uint256",
          "name": "_nftId",
          "type": "uint256"
        },
        {
          "internalType": "uint256",
          "name": "_subnetId",
          "type": "uint256"
        },
        {
          "internalType": "string",
          "name": "_newServiceProvider",
          "type": "string"
        }
      ],
      "name": "requestServiceProviderChange",
      "outputs": [],
      "stateMutability": "nonpayable",
      "type": "function"
    },
    {
      "inputs": [
        {
          "internalType": "bytes32",
          "name": "role",
          "type": "bytes32"
        },
        {
          "internalType": "address",
          "name": "account",
          "type": "address"
        }
      ],
      "name": "revokeRole",
      "outputs": [],
      "stateMutability": "nonpayable",
      "type": "function"
    },
    {
      "inputs": [
        {
          "internalType": "uint256",
          "name": "_balanceToAdd",
          "type": "uint256"
        },
        {
          "internalType": "uint256[]",
          "name": "subnetId",
          "type": "uint256[]"
        },
        {
          "internalType": "string[]",
          "name": "_serviceProviderAddress",
          "type": "string[]"
        },
        {
          "internalType": "address[]",
          "name": "_referralAddress",
          "type": "address[]"
        },
        {
          "internalType": "uint256[]",
          "name": "_licenseFee",
          "type": "uint256[]"
        },
        {
          "internalType": "uint256[][]",
          "name": "computeRequired",
          "type": "uint256[][]"
        }
      ],
      "name": "subscribeBatchNew",
      "outputs": [
        {
          "internalType": "uint256",
          "name": "NFTid",
          "type": "uint256"
        }
      ],
      "stateMutability": "nonpayable",
      "type": "function"
    },
    {
      "inputs": [
        {
          "internalType": "uint256",
          "name": "_nftId",
          "type": "uint256"
        },
        {
          "internalType": "uint256[]",
          "name": "subnetId",
          "type": "uint256[]"
        },
        {
          "internalType": "string[]",
          "name": "_serviceProviderAddress",
          "type": "string[]"
        },
        {
          "internalType": "address[]",
          "name": "_referralAddress",
          "type": "address[]"
        },
        {
          "internalType": "uint256[]",
          "name": "_licenseFee",
          "type": "uint256[]"
        },
        {
          "internalType": "uint256[][]",
          "name": "computeRequired",
          "type": "uint256[][]"
        }
      ],
      "name": "subscribeBatchToExistingNFT",
      "outputs": [],
      "stateMutability": "nonpayable",
      "type": "function"
    },
    {
      "inputs": [
        {
          "internalType": "uint256",
          "name": "_balanceToAdd",
          "type": "uint256"
        },
        {
          "internalType": "uint256",
          "name": "subnetId",
          "type": "uint256"
        },
        {
          "internalType": "string",
          "name": "_serviceProviderAddress",
          "type": "string"
        },
        {
          "internalType": "address",
          "name": "_referralAddress",
          "type": "address"
        },
        {
          "internalType": "uint256",
          "name": "_licenseFee",
          "type": "uint256"
        },
        {
          "internalType": "uint256[]",
          "name": "_computeRequired",
          "type": "uint256[]"
        }
      ],
      "name": "subscribeNew",
      "outputs": [
        {
          "internalType": "uint256",
          "name": "",
          "type": "uint256"
        }
      ],
      "stateMutability": "nonpayable",
      "type": "function"
    },
    {
      "inputs": [
        {
          "internalType": "uint256",
          "name": "_nftId",
          "type": "uint256"
        },
        {
          "internalType": "uint256",
          "name": "_subnetId",
          "type": "uint256"
        },
        {
          "internalType": "string",
          "name": "_serviceProviderAddress",
          "type": "string"
        },
        {
          "internalType": "address",
          "name": "_referralAddress",
          "type": "address"
        },
        {
          "internalType": "uint256",
          "name": "_licenseFee",
          "type": "uint256"
        },
        {
          "internalType": "uint256[]",
          "name": "_computeRequired",
          "type": "uint256[]"
        }
      ],
      "name": "subscribeToExistingNFT",
      "outputs": [],
      "stateMutability": "nonpayable",
      "type": "function"
    },
    {
      "inputs": [
        {
          "internalType": "bytes4",
          "name": "interfaceId",
          "type": "bytes4"
        }
      ],
      "name": "supportsInterface",
      "outputs": [
        {
          "internalType": "bool",
          "name": "",
          "type": "bool"
        }
      ],
      "stateMutability": "view",
      "type": "function"
    },
    {
      "inputs": [
        {
          "internalType": "uint256",
          "name": "",
          "type": "uint256"
        },
        {
          "internalType": "uint256",
          "name": "",
          "type": "uint256"
        }
      ],
      "name": "userSubscription",
      "outputs": [
        {
          "internalType": "string",
          "name": "serviceProviderAddress",
          "type": "string"
        },
        {
          "internalType": "address",
          "name": "referralAddress",
          "type": "address"
        },
        {
          "internalType": "uint256",
          "name": "r_licenseFee",
          "type": "uint256"
        },
        {
          "internalType": "bool",
          "name": "subscribed",
          "type": "bool"
        }
      ],
      "stateMutability": "view",
      "type": "function"
    }
  ],
  "bytecode": "0x608060405234801561001057600080fd5b506137ee806100206000396000f3fe608060405234801561001057600080fd5b50600436106102485760003560e01c80639bda6a9e1161013b578063d547741f116100b8578063dfe455101161007c578063dfe455101461058b578063ec414976146105a4578063f7a249ab146105b7578063f8f4724f146105ca578063fdffffff146105dd57610248565b8063d547741f14610540578063d5cb22c914610553578063d652d8a01461055c578063d9f640051461056f578063dd8ba3f01461058257610248565b8063b1f107e2116100ff578063b1f107e2146104f5578063b5f608e8146104fe578063b621f5b714610507578063c73f22e61461051a578063cbfafbda1461052d57610248565b80639bda6a9e146104725780639ca8b42614610485578063a217fddf146104ac578063a8440fe2146104b4578063abb4b9cd146104e257610248565b806343915cd0116101c95780637b6f78731161018d5780637b6f7873146103e05780637bf654f21461040257806383f59ac61461041557806391d14854146104285780639704576a1461043b57610248565b806343915cd01461036157806345c37cd4146103745780634bed67ff1461039f5780635c975abb146103b25780637584c82f146103bd57610248565b8063203181c911610210578063203181c9146102e5578063248a9ca3146102f85780632f2ff15d1461031b57806336568abe1461032e578063436254d61461034157610248565b806301ffc9a71461024d57806309cfddb2146102755780630d47e24514610296578063110bb8cd146102a95780631386387a146102be575b600080fd5b61026061025b366004612e9f565b6105f0565b60405190151581526020015b60405180910390f35b610288610283366004612f1a565b610629565b60405190815260200161026c565b6102886102a436600461318c565b6108b1565b6102bc6102b73660046130a1565b610bb2565b005b6102887f86c262939a9533c4628ccc11f9decb407b7c04ffc9311f0c60d1f23d7d790db781565b6102bc6102f33660046130c2565b610dca565b610288610306366004612e58565b60009081526065602052604090206001015490565b6102bc610329366004612e70565b610f77565b6102bc61033c366004612e70565b610fa1565b61035461034f3660046130a1565b61101f565b60405161026c9190613385565b6102bc61036f366004612e58565b61108d565b60ca54610387906001600160a01b031681565b6040516001600160a01b03909116815260200161026c565b60cc54610387906001600160a01b031681565b60975460ff16610260565b6103d06103cb3660046130a1565b6110da565b60405161026c94939291906133ab565b6103f36103ee3660046130a1565b6111a4565b60405161026c939291906134fa565b6102bc6104103660046130fa565b61125a565b60cd54610387906001600160a01b031681565b610260610436366004612e70565b611395565b6103876104493660046130a1565b600091825260ce602090815260408084209284529190529020600101546001600160a01b031690565b6102bc610480366004613148565b6113c0565b6102887f3accb7525e36f7c8113757659b4e6f25deb99f23daf336bf7c35736aae7bcd9d81565b610288600081565b6102886104c23660046130a1565b600091825260ce6020908152604080842092845291905290206002015490565b60c954610387906001600160a01b031681565b61028860d05481565b61028860d25481565b6102bc610515366004612d6f565b611611565b6102bc610528366004613210565b61163f565b6102bc61053b366004612e58565b611a4d565b6102bc61054e366004612e70565b611a9a565b61028860cf5481565b6102bc61056a366004612da7565b611abf565b6102bc61057d366004612e58565b611c89565b61028860d15481565b610288610599366004612ec7565b805160209091012090565b6102bc6105b2366004612f1a565b611cd6565b60cb54610387906001600160a01b031681565b6102bc6105d8366004612e58565b611dc1565b6102bc6105eb36600461318c565b611e0e565b60006001600160e01b03198216637965db0b60e01b148061062157506301ffc9a760e01b6001600160e01b03198316145b90505b919050565b6000610701878760008151811061065057634e487b7160e01b600052603260045260246000fd5b60200260200101518760008151811061067957634e487b7160e01b600052603260045260246000fd5b6020026020010151876000815181106106a257634e487b7160e01b600052603260045260246000fd5b6020026020010151876000815181106106cb57634e487b7160e01b600052603260045260246000fd5b6020026020010151876000815181106106f457634e487b7160e01b600052603260045260246000fd5b60200260200101516108b1565b905060015b86518110156107f2576107e08288838151811061073357634e487b7160e01b600052603260045260246000fd5b602002602001015188848151811061075b57634e487b7160e01b600052603260045260246000fd5b602002602001015188858151811061078357634e487b7160e01b600052603260045260246000fd5b60200260200101518886815181106107ab57634e487b7160e01b600052603260045260246000fd5b60200260200101518887815181106107d357634e487b7160e01b600052603260045260246000fd5b6020026020010151611e0e565b806107ea8161375c565b915050610706565b5060d05460cb5460405163536aeb8160e11b81526004810184905289926108819290916001600160a01b039091169063a6d5d702906024015b60206040518083038186803b15801561084357600080fd5b505afa158015610857573d6000803e3d6000fd5b505050506040513d601f19601f8201168201806040525081019061087b9190612f02565b9061203a565b106108a75760405162461bcd60e51b815260040161089e9061345d565b60405180910390fd5b9695505050505050565b60006108bf60975460ff1690565b156108dc5760405162461bcd60e51b815260040161089e906133e5565b600061096f600160ca60009054906101000a90046001600160a01b03166001600160a01b031663561892366040518163ffffffff1660e01b815260040160206040518083038186803b15801561093157600080fd5b505afa158015610945573d6000803e3d6000fd5b505050506040513d601f19601f820116820180604052508101906109699190612f02565b9061204d565b60ca549091506001600160a01b0316636a627842336040516001600160e01b031960e084901b1681526001600160a01b039091166004820152602401602060405180830381600087803b1580156109c557600080fd5b505af11580156109d9573d6000803e3d6000fd5b505050506040513d601f19601f820116820180604052508101906109fd9190612f02565b5060cc546001600160a01b03166323b872dd336040516001600160e01b031960e084901b1681526001600160a01b039091166004820152306024820152604481018b9052606401602060405180830381600087803b158015610a5e57600080fd5b505af1158015610a72573d6000803e3d6000fd5b505050506040513d601f19601f82011682018060405250810190610a969190612e3e565b50610aa5818888888888612059565b60cb546001600160a01b03166394f6340c828a8a336040516001600160e01b031960e087901b1681526004810194909452602484019290925260448301526001600160a01b03166064820152608401602060405180830381600087803b158015610b0e57600080fd5b505af1158015610b22573d6000803e3d6000fd5b505050506040513d601f19601f82011682018060405250810190610b469190612e3e565b5060d05460cb5460405163199030c960e11b815260048101849052602481018a90528a92610b8a9290916001600160a01b039091169063332061929060440161082b565b10610ba75760405162461bcd60e51b815260040161089e9061345d565b979650505050505050565b6040805160208082018352600080835285815260d38252838120858252909152829020915190917fc5d2460186f7233c927e7db2dcc703c0e500b653ca82273b7bfad8045d85a47091610c0891600101906132a1565b60405180910390201415610c765760405162461bcd60e51b815260206004820152602f60248201527f4e6f207265717565737420666f7220736572766963652070726f76696465722060448201526e18da185b99d948191bdb99481e595d608a1b606482015260840161089e565b60d254600084815260d3602090815260408083208684529091529020544291610c9f919061204d565b10610cec5760405162461bcd60e51b815260206004820152601c60248201527f43616e6e6f74206170706c79206265666f726520636f6f6c646f776e00000000604482015260640161089e565b600083815260d360209081526040808320858452825280832042600282015586845260ce835281842086855290925290912060019091018054610d2e90613721565b610d39929190612994565b50604080516020808201808452600080845287815260d383528481208782529092529290209051610d709260019092019190612a1f565b50600083815260ce602090815260408083208584529091529081902090517f18ea9894f61e99766c715362e69b478c1e4b6d999d935a1a9e513b5a55e2fd3b91610dbd91869186916135be565b60405180910390a1505050565b600083815260ce602090815260408083208584529091529020600101546001600160a01b031615610e2b5760405162461bcd60e51b815260206004820152600b60248201526a105b1c9958591e481cd95d60aa1b604482015260640161089e565b3360ca546040516331a9108f60e11b8152600481018690526001600160a01b039283169290911690636352211e9060240160206040518083038186803b158015610e7457600080fd5b505afa158015610e88573d6000803e3d6000fd5b505050506040513d601f19601f82011682018060405250810190610eac9190612d8b565b6001600160a01b031614610f025760405162461bcd60e51b815260206004820152601e60248201527f53656e646572206e6f7420746865206f776e6572206f66204e46542069640000604482015260640161089e565b600083815260ce6020908152604080832085845282529182902060010180546001600160a01b0319166001600160a01b0385169081179091558251868152918201859052918101919091527f5878ac48f3058583ef4c6d4eb2cc2fdbe3fad465b25bb2216a7d0396e0a88b7590606001610dbd565b600082815260656020526040902060010154610f9281612573565b610f9c8383612580565b505050565b6001600160a01b03811633146110115760405162461bcd60e51b815260206004820152602f60248201527f416363657373436f6e74726f6c3a2063616e206f6e6c792072656e6f756e636560448201526e103937b632b9903337b91039b2b63360891b606482015260840161089e565b61101b8282612606565b5050565b600082815260ce6020908152604080832084845282529182902060030180548351818402810184019094528084526060939283018282801561108057602002820191906000526020600020905b81548152602001906001019080831161106c575b5050505050905092915050565b600061109881612573565b60d25460408051918252602082018490527fc5e14df5fc337a990601fe0ce9170d1666340710bae7daf71491634ab38a58dc910160405180910390a15060d255565b60ce60209081526000928352604080842090915290825290208054819061110090613721565b80601f016020809104026020016040519081016040528092919081815260200182805461112c90613721565b80156111795780601f1061114e57610100808354040283529160200191611179565b820191906000526020600020905b81548152906001019060200180831161115c57829003601f168201915b505050506001830154600284015460049094015492936001600160a01b039091169290915060ff1684565b60d3602090815260009283526040808420909152908252902080546001820180549192916111d190613721565b80601f01602080910402602001604051908101604052809291908181526020018280546111fd90613721565b801561124a5780601f1061121f5761010080835404028352916020019161124a565b820191906000526020600020905b81548152906001019060200180831161122d57829003601f168201915b5050505050908060020154905083565b7f3accb7525e36f7c8113757659b4e6f25deb99f23daf336bf7c35736aae7bcd9d61128481612573565b60975460ff16156112a75760405162461bcd60e51b815260040161089e906133e5565b600084815260ce60209081526040808320868452825290912083516112d492600390920191850190612a93565b5060cb54604051635a73b33b60e11b8152600481018690526001600160a01b039091169063b4e7667690602401602060405180830381600087803b15801561131b57600080fd5b505af115801561132f573d6000803e3d6000fd5b505050506040513d601f19601f820116820180604052508101906113539190612e3e565b507f35691e4ea17a41d9b9c14fabfbac351eabf4a86083b510347f5710ce6ebf06e684848460405161138793929190613523565b60405180910390a150505050565b60009182526065602090815260408084206001600160a01b0393909316845291905290205460ff1690565b3360ca546040516331a9108f60e11b8152600481018690526001600160a01b039283169290911690636352211e9060240160206040518083038186803b15801561140957600080fd5b505afa15801561141d573d6000803e3d6000fd5b505050506040513d601f19601f820116820180604052508101906114419190612d8b565b6001600160a01b0316146114915760405162461bcd60e51b8152602060048201526017602482015276139bdd081d1a19481bdddb995c881bd988139195081a59604a1b604482015260640161089e565b600083815260ce6020908152604080832085845290915290206004015460ff1661150f5760405162461bcd60e51b815260206004820152602960248201527f5f7375626e65744964206973206e6f74207375627363726962656420627920756044820152681cd95c89dcc813919560ba1b606482015260840161089e565b60d154600084815260d360209081526040808320868452909152902060020154429161153b919061204d565b106115ae5760405162461bcd60e51b815260206004820152603860248201527f43616e6e6f742072657175657374206265666f726520524551445f4e4f54494360448201527f455f54494d455f535f50524f5649444552207061737365640000000000000000606482015260840161089e565b600083815260d360209081526040808320858452825290912042815582516115de92600190920191840190612a1f565b507e0858c198563c0aa886be91504eeb8007e0be28541c36be5d1ace93f3eebbfd838383604051610dbd9392919061354b565b600061161c81612573565b5060cd80546001600160a01b0319166001600160a01b0392909216919091179055565b60975460ff16156116625760405162461bcd60e51b815260040161089e906133e5565b60c9546040516373d97f3960e01b8152600481018490526000916001600160a01b0316906373d97f399060240160006040518083038186803b1580156116a757600080fd5b505afa1580156116bb573d6000803e3d6000fd5b505050506040513d6000823e601f3d908101601f191682016040526116e39190810190612fee565b50505050509350505050806117575760405162461bcd60e51b815260206004820152603460248201527f43616e6e6f74206368616e676520737562736372697074696f6e206966207375604482015273189b995d081a5cc81b9bdd0819195b1a5cdd195960621b606482015260840161089e565b3360ca546040516331a9108f60e11b8152600481018790526001600160a01b039283169290911690636352211e9060240160206040518083038186803b1580156117a057600080fd5b505afa1580156117b4573d6000803e3d6000fd5b505050506040513d601f19601f820116820180604052508101906117d89190612d8b565b6001600160a01b0316146118285760405162461bcd60e51b8152602060048201526017602482015276139bdd081d1a19481bdddb995c881bd988139195081a59604a1b604482015260640161089e565b600084815260ce6020908152604080832086845290915290206004015460ff166118a75760405162461bcd60e51b815260206004820152602a60248201527f5f63757272656e745375626e65744964206973206e6f7420737562736372696260448201526932b210313c903ab9b2b960b11b606482015260840161089e565b600084815260ce6020908152604080832085845290915280822060048101805460ff191660011790558583529082209184905281549091906118e890613721565b6118f3929190612994565b50600084815260ce602090815260408083208684529091528082206001808201548685529290932092830180546001600160a01b0319166001600160a01b0390931692909217909155600280820154908301556003908101805461195b939290920191612acd565b50600084815260ce60209081526040808320868452909152908190206004908101805460ff1916905560cb549151636d6ecc4d60e11b815290810186905260248101859052604481018490526001600160a01b039091169063dadd989a90606401602060405180830381600087803b1580156119d657600080fd5b505af11580156119ea573d6000803e3d6000fd5b505050506040513d601f19601f82011682018060405250810190611a0e9190612e3e565b5060408051858152602081018590529081018390527f53404332d7fbbd680064ad6f3fa2e5a1c6737c9c3206cf95918a31755c7918b790606001611387565b6000611a5881612573565b60cf5460408051918252602082018490527f54fe1a6d60ea8cebf2cb1d7889eb5b27dd95abe955e06eed2cae5540a54b4bf2910160405180910390a15060cf55565b600082815260656020526040902060010154611ab581612573565b610f9c8383612606565b6000611acb600161266d565b90508015611ae3576000805461ff0019166101001790555b611aeb6126f2565b611af361271b565b611afe60008b612580565b611b287f3accb7525e36f7c8113757659b4e6f25deb99f23daf336bf7c35736aae7bcd9d8b612580565b611b527f86c262939a9533c4628ccc11f9decb407b7c04ffc9311f0c60d1f23d7d790db78b612580565b60cd80546001600160a01b038c81166001600160a01b03199283161790925560cf8b905560d08a905560c980548a841690831617905560ca805489841690831617905560cb8054888416908316811790915560cc805493881693909216831790915560d185905560d284905560405163095ea7b360e01b81526004810191909152600019602482015263095ea7b390604401602060405180830381600087803b158015611bfe57600080fd5b505af1158015611c12573d6000803e3d6000fd5b505050506040513d601f19601f82011682018060405250810190611c369190612e3e565b508015611c7d576000805461ff0019169055604051600181527f7f26b83ff96e1f2b6a682f133852f6798a09c465da95921460cefb38474024989060200160405180910390a15b50505050505050505050565b6000611c9481612573565b60d15460408051918252602082018490527f880c74d681b789e90ecfbf24398fc73843a046f74a0f6ffe22a0fcc0d214a771910160405180910390a15060d155565b60005b8551811015611db857611da687878381518110611d0657634e487b7160e01b600052603260045260246000fd5b6020026020010151878481518110611d2e57634e487b7160e01b600052603260045260246000fd5b6020026020010151878581518110611d5657634e487b7160e01b600052603260045260246000fd5b6020026020010151878681518110611d7e57634e487b7160e01b600052603260045260246000fd5b60200260200101518787815181106107d357634e487b7160e01b600052603260045260246000fd5b80611db08161375c565b915050611cd9565b50505050505050565b6000611dcc81612573565b60d05460408051918252602082018490527f7c687d0697c66d5104a1421b7d823a0818020aeacac7371785314a404d9a2ee2910160405180910390a15060d055565b60975460ff1615611e315760405162461bcd60e51b815260040161089e906133e5565b60cb546040516388d6c80560e01b8152600481018890526001600160a01b03909116906388d6c80590602401602060405180830381600087803b158015611e7757600080fd5b505af1158015611e8b573d6000803e3d6000fd5b505050506040513d601f19601f82011682018060405250810190611eaf9190612e3e565b5060cb5460405163577b97d960e11b8152600481018890526001600160a01b039091169063aef72fb29060240160206040518083038186803b158015611ef457600080fd5b505afa158015611f08573d6000803e3d6000fd5b505050506040513d601f19601f82011682018060405250810190611f2c9190612e3e565b611f9e5760405162461bcd60e51b815260206004820152603860248201527f42616c616e636520666f72204e4654206964203d20302c20736f2063616e6e6f60448201527f7420737562736372696265206d6f7265207375626e6574730000000000000000606482015260840161089e565b60cb5460405163c6d1900360e01b815260048101889052602481018790526001600160a01b039091169063c6d1900390604401602060405180830381600087803b158015611feb57600080fd5b505af1158015611fff573d6000803e3d6000fd5b505050506040513d601f19601f820116820180604052508101906120239190612e3e565b50612032868686868686612059565b505050505050565b600061204682846136bb565b9392505050565b600061204682846136a3565b600086815260ce6020908152604080832088845290915290206004015460ff16156120bb5760405162461bcd60e51b8152602060048201526012602482015271105b1c9958591e481cdd589cd8dc9a58995960721b604482015260640161089e565b60c95460408051631456ce2b60e31b8152905187926001600160a01b03169163a2b67158916004808301926020929190829003018186803b1580156120ff57600080fd5b505afa158015612113573d6000803e3d6000fd5b505050506040513d601f19601f820116820180604052508101906121379190612f02565b1161219a5760405162461bcd60e51b815260206004820152602d60248201527f5f7375626e6574496420646f6e6f7420657869737420696e205265676973747260448201526c185d1a5bdb90dbdb9d1c9858dd609a1b606482015260840161089e565b60c9546040516373d97f3960e01b8152600481018790526000916001600160a01b0316906373d97f399060240160006040518083038186803b1580156121df57600080fd5b505afa1580156121f3573d6000803e3d6000fd5b505050506040513d6000823e601f3d908101601f1916820160405261221b9190810190612fee565b50505050509350505050806122a85760405162461bcd60e51b815260206004820152604760248201527f526567697374726174696f6e436f6e74726163743a207375626e65742069732060448201527f64656c697374656420616e642068656e63652063616e6e6f74206265207375626064820152661cd8dc9a58995960ca1b608482015260a40161089e565b60cf5460cb54604051632df2d0b960e21b8152600481018a90526001600160a01b039091169063b7cb42e49060240160206040518083038186803b1580156122ef57600080fd5b505afa158015612303573d6000803e3d6000fd5b505050506040513d601f19601f820116820180604052508101906123279190612f02565b11156123b05760405162461bcd60e51b815260206004820152604c60248201527f43616e6e6f7420737562736372696265206173206c696d69742065786365656460448201527f7320746f206d6178205375626e657420737562736372697074696f6e20616c6c60648201526b1bddd959081c195c8813919560a21b608482015260a40161089e565b3360ca546040516331a9108f60e11b8152600481018a90526001600160a01b039283169290911690636352211e9060240160206040518083038186803b1580156123f957600080fd5b505afa15801561240d573d6000803e3d6000fd5b505050506040513d601f19601f820116820180604052508101906124319190612d8b565b6001600160a01b0316146124875760405162461bcd60e51b815260206004820152601e60248201527f53656e646572206e6f7420746865206f776e6572206f66204e46542069640000604482015260640161089e565b600087815260ce60209081526040808320898452825290912086516124ae92880190612a1f565b50600087815260ce6020908152604080832089845282529091206001810180546001600160a01b0319166001600160a01b03881617905560028101859055835161250092600390920191850190612a93565b50600087815260ce6020908152604080832089845290915290819020600401805460ff19166001179055517fd8a8eccd539765905df336ff4c3dea59261278d3c359ccf40f1dddd1fa2a5a82906125629089908990899089908990899061356a565b60405180910390a150505050505050565b61257d813361274e565b50565b61258a8282611395565b61101b5760008281526065602090815260408083206001600160a01b03851684529091529020805460ff191660011790556125c23390565b6001600160a01b0316816001600160a01b0316837f2f8788117e7eff1d82e926ec794901d17c78024a50270940304540a733656f0d60405160405180910390a45050565b6126108282611395565b1561101b5760008281526065602090815260408083206001600160a01b0385168085529252808320805460ff1916905551339285917ff6391f5c32d9c69d2a47ea670b442974b53935d1edc7fd64eb21e047a839171b9190a45050565b60008054610100900460ff16156126b4578160ff1660011480156126905750303b155b6126ac5760405162461bcd60e51b815260040161089e9061340f565b506000610624565b60005460ff8084169116106126db5760405162461bcd60e51b815260040161089e9061340f565b506000805460ff191660ff83161790556001610624565b600054610100900460ff166127195760405162461bcd60e51b815260040161089e906134af565b565b600054610100900460ff166127425760405162461bcd60e51b815260040161089e906134af565b6097805460ff19169055565b6127588282611395565b61101b57612770816001600160a01b031660146127b2565b61277b8360206127b2565b60405160200161278c929190613310565b60408051601f198184030181529082905262461bcd60e51b825261089e91600401613398565b606060006127c18360026136bb565b6127cc9060026136a3565b67ffffffffffffffff8111156127f257634e487b7160e01b600052604160045260246000fd5b6040519080825280601f01601f19166020018201604052801561281c576020820181803683370190505b509050600360fc1b8160008151811061284557634e487b7160e01b600052603260045260246000fd5b60200101906001600160f81b031916908160001a905350600f60fb1b8160018151811061288257634e487b7160e01b600052603260045260246000fd5b60200101906001600160f81b031916908160001a90535060006128a68460026136bb565b6128b19060016136a3565b90505b6001811115612945576f181899199a1a9b1b9c1cb0b131b232b360811b85600f16601081106128f357634e487b7160e01b600052603260045260246000fd5b1a60f81b82828151811061291757634e487b7160e01b600052603260045260246000fd5b60200101906001600160f81b031916908160001a90535060049490941c9361293e8161370a565b90506128b4565b5083156120465760405162461bcd60e51b815260206004820181905260248201527f537472696e67733a20686578206c656e67746820696e73756666696369656e74604482015260640161089e565b8280546129a090613721565b90600052602060002090601f0160209004810192826129c25760008555612a0f565b82601f106129d35780548555612a0f565b82800160010185558215612a0f57600052602060002091601f016020900482015b82811115612a0f5782548255916001019190600101906129f4565b50612a1b929150612b0c565b5090565b828054612a2b90613721565b90600052602060002090601f016020900481019282612a4d5760008555612a0f565b82601f10612a6657805160ff1916838001178555612a0f565b82800160010185558215612a0f579182015b82811115612a0f578251825591602001919060010190612a78565b828054828255906000526020600020908101928215612a0f5791602002820182811115612a0f578251825591602001919060010190612a78565b828054828255906000526020600020908101928215612a0f57600052602060002091820182811115612a0f5782548255916001019190600101906129f4565b5b80821115612a1b5760008155600101612b0d565b600082601f830112612b31578081fd5b81356020612b46612b418361367f565b61364e565b8281528181019085830183850287018401881015612b62578586fd5b855b85811015612b89578135612b77816137a3565b84529284019290840190600101612b64565b5090979650505050505050565b600082601f830112612ba6578081fd5b81356020612bb6612b418361367f565b82815281810190858301855b85811015612b8957612bd9898684358b0101612c40565b84529284019290840190600101612bc2565b600082601f830112612bfb578081fd5b81356020612c0b612b418361367f565b82815281810190858301855b85811015612b8957612c2e898684358b0101612d04565b84529284019290840190600101612c17565b600082601f830112612c50578081fd5b81356020612c60612b418361367f565b8281528181019085830183850287018401881015612c7c578586fd5b855b85811015612b8957813584529284019290840190600101612c7e565b600082601f830112612caa578081fd5b81516020612cba612b418361367f565b8281528181019085830183850287018401881015612cd6578586fd5b855b85811015612b8957815184529284019290840190600101612cd8565b8051801515811461062457600080fd5b600082601f830112612d14578081fd5b813567ffffffffffffffff811115612d2e57612d2e61378d565b612d41601f8201601f191660200161364e565b818152846020838601011115612d55578283fd5b816020850160208301379081016020019190915292915050565b600060208284031215612d80578081fd5b8135612046816137a3565b600060208284031215612d9c578081fd5b8151612046816137a3565b60008060008060008060008060006101208a8c031215612dc5578485fd5b8935612dd0816137a3565b985060208a0135975060408a0135965060608a0135612dee816137a3565b955060808a0135612dfe816137a3565b945060a08a0135612e0e816137a3565b935060c08a0135612e1e816137a3565b8093505060e08a013591506101008a013590509295985092959850929598565b600060208284031215612e4f578081fd5b61204682612cf4565b600060208284031215612e69578081fd5b5035919050565b60008060408385031215612e82578182fd5b823591506020830135612e94816137a3565b809150509250929050565b600060208284031215612eb0578081fd5b81356001600160e01b031981168114612046578182fd5b600060208284031215612ed8578081fd5b813567ffffffffffffffff811115612eee578182fd5b612efa84828501612d04565b949350505050565b600060208284031215612f13578081fd5b5051919050565b60008060008060008060c08789031215612f32578384fd5b86359550602087013567ffffffffffffffff80821115612f50578586fd5b612f5c8a838b01612c40565b96506040890135915080821115612f71578586fd5b612f7d8a838b01612beb565b95506060890135915080821115612f92578384fd5b612f9e8a838b01612b21565b94506080890135915080821115612fb3578384fd5b612fbf8a838b01612c40565b935060a0890135915080821115612fd4578283fd5b50612fe189828a01612b96565b9150509295509295509295565b60008060008060008060008060006101208a8c03121561300c578283fd5b8951985061301c60208b01612cf4565b975060408a0151965061303160608b01612cf4565b955060808a015167ffffffffffffffff8082111561304d578485fd5b6130598d838e01612c9a565b965060a08c015191508082111561306e578485fd5b5061307b8c828d01612c9a565b94505060c08a0151925060e08a015191506101008a015190509295985092959850929598565b600080604083850312156130b3578182fd5b50508035926020909101359150565b6000806000606084860312156130d6578081fd5b833592506020840135915060408401356130ef816137a3565b809150509250925092565b60008060006060848603121561310e578081fd5b8335925060208401359150604084013567ffffffffffffffff811115613132578182fd5b61313e86828701612c40565b9150509250925092565b60008060006060848603121561315c578081fd5b8335925060208401359150604084013567ffffffffffffffff811115613180578182fd5b61313e86828701612d04565b60008060008060008060c087890312156131a4578384fd5b8635955060208701359450604087013567ffffffffffffffff808211156131c9578586fd5b6131d58a838b01612d04565b9550606089013591506131e7826137a3565b9093506080880135925060a08801359080821115613203578283fd5b50612fe189828a01612c40565b600080600060608486031215613224578081fd5b505081359360208301359350604090920135919050565b6000815180845260208085019450808401835b8381101561326a5781518752958201959082019060010161324e565b509495945050505050565b6000815180845261328d8160208601602086016136da565b601f01601f19169290920160200192915050565b60008083546132af81613721565b600182811680156132c757600181146132d857613304565b60ff19841687528287019450613304565b8786526020808720875b858110156132fb5781548a8201529084019082016132e2565b50505082870194505b50929695505050505050565b60007f416363657373436f6e74726f6c3a206163636f756e7420000000000000000000825283516133488160178501602088016136da565b7001034b99036b4b9b9b4b733903937b6329607d1b60179184019182015283516133798160288401602088016136da565b01602801949350505050565b600060208252612046602083018461323b565b6000602082526120466020830184613275565b6000608082526133be6080830187613275565b6001600160a01b039590951660208301525060408101929092521515606090910152919050565b60208082526010908201526f14185d5cd8589b194e881c185d5cd95960821b604082015260600190565b6020808252602e908201527f496e697469616c697a61626c653a20636f6e747261637420697320616c72656160408201526d191e481a5b9a5d1a585b1a5e995960921b606082015260800190565b60208082526032908201527f42616c616e63652061646465642073686f756c6420626520656e6f7567682077604082015271697468204d494e5f54494d455f46554e445360701b606082015260800190565b6020808252602b908201527f496e697469616c697a61626c653a20636f6e7472616374206973206e6f74206960408201526a6e697469616c697a696e6760a81b606082015260800190565b6000848252606060208301526135136060830185613275565b9050826040830152949350505050565b600084825283602083015260606040830152613542606083018461323b565b95945050505050565b6000848252836020830152606060408301526135426060830184613275565b600087825286602083015260c0604083015261358960c0830187613275565b6001600160a01b03861660608401526080830185905282810360a08401526135b1818561323b565b9998505050505050505050565b600084825260208481840152606060408401528184546135dd81613721565b80606087015260806001808416600081146135ff57600181146136135761363e565b60ff1985168984015260a08901955061363e565b898852868820885b858110156136365781548b820186015290830190880161361b565b8a0184019650505b50939a9950505050505050505050565b604051601f8201601f1916810167ffffffffffffffff811182821017156136775761367761378d565b604052919050565b600067ffffffffffffffff8211156136995761369961378d565b5060209081020190565b600082198211156136b6576136b6613777565b500190565b60008160001904831182151516156136d5576136d5613777565b500290565b60005b838110156136f55781810151838201526020016136dd565b83811115613704576000848401525b50505050565b60008161371957613719613777565b506000190190565b60028104600182168061373557607f821691505b6020821081141561375657634e487b7160e01b600052602260045260246000fd5b50919050565b600060001982141561377057613770613777565b5060010190565b634e487b7160e01b600052601160045260246000fd5b634e487b7160e01b600052604160045260246000fd5b6001600160a01b038116811461257d57600080fdfea2646970667358221220304eec9d139d2bc7d1d35d258dc7490a820e1d2541b23fc64a855dbbc3e8d50a64736f6c63430008020033",
  "linkReferences": {},
  "deployedLinkReferences": {}
}