{
  "_format": "hh-sol-artifact-1",
  "contractName": "Subscription",
  "sourceName": "contracts/Subscription.sol",
  "abi": [
    {
      "anonymous": false,
      "inputs": [
        {
          "indexed": false,
          "internalType": "uint256",
          "name": "NFTId",
          "type": "uint256"
        },
        {
          "indexed": false,
          "internalType": "uint256",
          "name": "subnetId",
          "type": "uint256"
        },
        {
          "indexed": false,
          "internalType": "string",
          "name": "newServiceProvider",
          "type": "string"
        }
      ],
      "name": "AppliedServiceProviderChange",
      "type": "event"
    },
    {
      "anonymous": false,
      "inputs": [
        {
          "indexed": false,
          "internalType": "uint256",
          "name": "NFTId",
          "type": "uint256"
        },
        {
          "indexed": false,
          "internalType": "uint256",
          "name": "currentSubnetId",
          "type": "uint256"
        },
        {
          "indexed": false,
          "internalType": "uint256",
          "name": "newSubnetId",
          "type": "uint256"
        }
      ],
      "name": "ChangedSubnetSubscription",
      "type": "event"
    },
    {
      "anonymous": false,
      "inputs": [
        {
          "indexed": false,
          "internalType": "uint256",
          "name": "nftId",
          "type": "uint256"
        },
        {
          "indexed": false,
          "internalType": "uint256",
          "name": "subnetId",
          "type": "uint256"
        },
        {
          "indexed": false,
          "internalType": "bool",
          "name": "allow",
          "type": "bool"
        }
      ],
      "name": "Changed_CHANGE_SUBSCRIPTION",
      "type": "event"
    },
    {
      "anonymous": false,
      "inputs": [
        {
          "indexed": false,
          "internalType": "uint256",
          "name": "prev_limit",
          "type": "uint256"
        },
        {
          "indexed": false,
          "internalType": "uint256",
          "name": "new_limit",
          "type": "uint256"
        }
      ],
      "name": "Changed_LIMIT_MIN_TIME_FUNDS",
      "type": "event"
    },
    {
      "anonymous": false,
      "inputs": [
        {
          "indexed": false,
          "internalType": "uint256",
          "name": "prev_limit",
          "type": "uint256"
        },
        {
          "indexed": false,
          "internalType": "uint256",
          "name": "new_limit",
          "type": "uint256"
        }
      ],
      "name": "Changed_LIMIT_NFT_SUBNETS",
      "type": "event"
    },
    {
      "anonymous": false,
      "inputs": [
        {
          "indexed": false,
          "internalType": "uint256",
          "name": "prev_limit",
          "type": "uint256"
        },
        {
          "indexed": false,
          "internalType": "uint256",
          "name": "new_limit",
          "type": "uint256"
        }
      ],
      "name": "Changed_REQD_COOLDOWN_S_PROVIDER",
      "type": "event"
    },
    {
      "anonymous": false,
      "inputs": [
        {
          "indexed": false,
          "internalType": "uint256",
          "name": "prev_limit",
          "type": "uint256"
        },
        {
          "indexed": false,
          "internalType": "uint256",
          "name": "new_limit",
          "type": "uint256"
        }
      ],
      "name": "Changed_REQD_NOTICE_TIME_S_PROVIDER",
      "type": "event"
    },
    {
      "anonymous": false,
      "inputs": [
        {
          "indexed": false,
          "internalType": "uint256",
          "name": "NFTid",
          "type": "uint256"
        },
        {
          "indexed": false,
          "internalType": "uint256",
          "name": "subnetId",
          "type": "uint256"
        },
        {
          "indexed": false,
          "internalType": "uint256[]",
          "name": "computeRequired",
          "type": "uint256[]"
        }
      ],
      "name": "Computes_changed",
      "type": "event"
    },
    {
      "anonymous": false,
      "inputs": [
        {
          "indexed": false,
          "internalType": "uint8",
          "name": "version",
          "type": "uint8"
        }
      ],
      "name": "Initialized",
      "type": "event"
    },
    {
      "anonymous": false,
      "inputs": [
        {
          "indexed": false,
          "internalType": "address",
          "name": "account",
          "type": "address"
        }
      ],
      "name": "Paused",
      "type": "event"
    },
    {
      "anonymous": false,
      "inputs": [
        {
          "indexed": false,
          "internalType": "uint256",
          "name": "NFTId",
          "type": "uint256"
        },
        {
          "indexed": false,
          "internalType": "uint256",
          "name": "subnetId",
          "type": "uint256"
        },
        {
          "indexed": false,
          "internalType": "address",
          "name": "refAddress",
          "type": "address"
        }
      ],
      "name": "ReferralAdded",
      "type": "event"
    },
    {
      "anonymous": false,
      "inputs": [
        {
          "indexed": false,
          "internalType": "uint256",
          "name": "NFTId",
          "type": "uint256"
        },
        {
          "indexed": false,
          "internalType": "uint256",
          "name": "subnetId",
          "type": "uint256"
        },
        {
          "indexed": false,
          "internalType": "string",
          "name": "newServiceProvider",
          "type": "string"
        }
      ],
      "name": "RequestedServiceProviderChange",
      "type": "event"
    },
    {
      "anonymous": false,
      "inputs": [
        {
          "indexed": true,
          "internalType": "bytes32",
          "name": "role",
          "type": "bytes32"
        },
        {
          "indexed": true,
          "internalType": "bytes32",
          "name": "previousAdminRole",
          "type": "bytes32"
        },
        {
          "indexed": true,
          "internalType": "bytes32",
          "name": "newAdminRole",
          "type": "bytes32"
        }
      ],
      "name": "RoleAdminChanged",
      "type": "event"
    },
    {
      "anonymous": false,
      "inputs": [
        {
          "indexed": true,
          "internalType": "bytes32",
          "name": "role",
          "type": "bytes32"
        },
        {
          "indexed": true,
          "internalType": "address",
          "name": "account",
          "type": "address"
        },
        {
          "indexed": true,
          "internalType": "address",
          "name": "sender",
          "type": "address"
        }
      ],
      "name": "RoleGranted",
      "type": "event"
    },
    {
      "anonymous": false,
      "inputs": [
        {
          "indexed": true,
          "internalType": "bytes32",
          "name": "role",
          "type": "bytes32"
        },
        {
          "indexed": true,
          "internalType": "address",
          "name": "account",
          "type": "address"
        },
        {
          "indexed": true,
          "internalType": "address",
          "name": "sender",
          "type": "address"
        }
      ],
      "name": "RoleRevoked",
      "type": "event"
    },
    {
      "anonymous": false,
      "inputs": [
        {
          "indexed": false,
          "internalType": "uint256",
          "name": "NFTId",
          "type": "uint256"
        },
        {
          "indexed": false,
          "internalType": "uint256",
          "name": "subnetId",
          "type": "uint256"
        },
        {
          "indexed": false,
          "internalType": "string",
          "name": "serviceProviderAddress",
          "type": "string"
        },
        {
          "indexed": false,
          "internalType": "address",
          "name": "referralAddress",
          "type": "address"
        },
        {
          "indexed": false,
          "internalType": "uint256",
          "name": "licenseFee",
          "type": "uint256"
        },
        {
          "indexed": false,
          "internalType": "uint256[]",
          "name": "computeRequired",
          "type": "uint256[]"
        }
      ],
      "name": "Subscribed",
      "type": "event"
    },
    {
      "anonymous": false,
      "inputs": [
        {
          "indexed": false,
          "internalType": "address",
          "name": "account",
          "type": "address"
        }
      ],
      "name": "Unpaused",
      "type": "event"
    },
    {
      "inputs": [],
      "name": "ApplicationNFT",
      "outputs": [
        {
          "internalType": "contract IERC721",
          "name": "",
          "type": "address"
        }
      ],
      "stateMutability": "view",
      "type": "function"
    },
    {
      "inputs": [],
      "name": "CHANGE_COMPUTE_ROLE",
      "outputs": [
        {
          "internalType": "bytes32",
          "name": "",
          "type": "bytes32"
        }
      ],
      "stateMutability": "view",
      "type": "function"
    },
    {
      "inputs": [],
      "name": "CHANGE_SUBSCRIPTION_ROLE",
      "outputs": [
        {
          "internalType": "bytes32",
          "name": "",
          "type": "bytes32"
        }
      ],
      "stateMutability": "view",
      "type": "function"
    },
    {
      "inputs": [],
      "name": "DEFAULT_ADMIN_ROLE",
      "outputs": [
        {
          "internalType": "bytes32",
          "name": "",
          "type": "bytes32"
        }
      ],
      "stateMutability": "view",
      "type": "function"
    },
    {
      "inputs": [],
      "name": "GLOBAL_DAO_ADDRESS",
      "outputs": [
        {
          "internalType": "address",
          "name": "",
          "type": "address"
        }
      ],
      "stateMutability": "view",
      "type": "function"
    },
    {
      "inputs": [],
      "name": "LIMIT_NFT_SUBNETS",
      "outputs": [
        {
          "internalType": "uint256",
          "name": "",
          "type": "uint256"
        }
      ],
      "stateMutability": "view",
      "type": "function"
    },
    {
      "inputs": [],
      "name": "MIN_TIME_FUNDS",
      "outputs": [
        {
          "internalType": "uint256",
          "name": "",
          "type": "uint256"
        }
      ],
      "stateMutability": "view",
      "type": "function"
    },
    {
      "inputs": [],
      "name": "REQD_COOLDOWN_S_PROVIDER",
      "outputs": [
        {
          "internalType": "uint256",
          "name": "",
          "type": "uint256"
        }
      ],
      "stateMutability": "view",
      "type": "function"
    },
    {
      "inputs": [],
      "name": "REQD_NOTICE_TIME_S_PROVIDER",
      "outputs": [
        {
          "internalType": "uint256",
          "name": "",
          "type": "uint256"
        }
      ],
      "stateMutability": "view",
      "type": "function"
    },
    {
      "inputs": [],
      "name": "RegistrationContract",
      "outputs": [
        {
          "internalType": "contract IRegistration",
          "name": "",
          "type": "address"
        }
      ],
      "stateMutability": "view",
      "type": "function"
    },
    {
      "inputs": [],
      "name": "SubscriptionBalance",
      "outputs": [
        {
          "internalType": "contract ISubscriptionBalance",
          "name": "",
          "type": "address"
        }
      ],
      "stateMutability": "view",
      "type": "function"
    },
    {
      "inputs": [],
      "name": "WITHDRAW_CREDITS_ROLE",
      "outputs": [
        {
          "internalType": "bytes32",
          "name": "",
          "type": "bytes32"
        }
      ],
      "stateMutability": "view",
      "type": "function"
    },
    {
      "inputs": [],
      "name": "XCT",
      "outputs": [
        {
          "internalType": "contract IERC20Upgradeable",
          "name": "",
          "type": "address"
        }
      ],
      "stateMutability": "view",
      "type": "function"
    },
    {
      "inputs": [
        {
          "internalType": "uint256",
          "name": "_nftId",
          "type": "uint256"
        },
        {
          "internalType": "uint256",
          "name": "_subnetId",
          "type": "uint256"
        },
        {
          "internalType": "address",
          "name": "_refAddress",
          "type": "address"
        }
      ],
      "name": "addReferralAddress",
      "outputs": [],
      "stateMutability": "nonpayable",
      "type": "function"
    },
    {
      "inputs": [
        {
          "internalType": "uint256",
          "name": "_nftId",
          "type": "uint256"
        },
        {
          "internalType": "uint256",
          "name": "_subnetId",
          "type": "uint256"
        }
      ],
      "name": "applyServiceProviderChange",
      "outputs": [],
      "stateMutability": "nonpayable",
      "type": "function"
    },
    {
      "inputs": [
        {
          "internalType": "uint256",
          "name": "_NFTid",
          "type": "uint256"
        },
        {
          "internalType": "uint256",
          "name": "_subnetId",
          "type": "uint256"
        },
        {
          "internalType": "uint256[]",
          "name": "_computeRequired",
          "type": "uint256[]"
        }
      ],
      "name": "changeComputesOfSubnet",
      "outputs": [],
      "stateMutability": "nonpayable",
      "type": "function"
    },
    {
      "inputs": [
        {
          "internalType": "uint256",
          "name": "_nftId",
          "type": "uint256"
        },
        {
          "internalType": "uint256",
          "name": "_currentSubnetId",
          "type": "uint256"
        },
        {
          "internalType": "uint256",
          "name": "_newSubnetId",
          "type": "uint256"
        }
      ],
      "name": "changeSubnetSubscription",
      "outputs": [],
      "stateMutability": "nonpayable",
      "type": "function"
    },
    {
      "inputs": [
        {
          "internalType": "uint256",
          "name": "_nftId",
          "type": "uint256"
        },
        {
          "internalType": "uint256",
          "name": "_subnetId",
          "type": "uint256"
        },
        {
          "internalType": "bool",
          "name": "allow",
          "type": "bool"
        }
      ],
      "name": "change__CHANGE_SUBSCRIPTION",
      "outputs": [],
      "stateMutability": "nonpayable",
      "type": "function"
    },
    {
      "inputs": [
        {
          "internalType": "address",
          "name": "_newGlobalDAO",
          "type": "address"
        }
      ],
      "name": "change__GLOBAL_DAO_ADDRESS",
      "outputs": [],
      "stateMutability": "nonpayable",
      "type": "function"
    },
    {
      "inputs": [
        {
          "internalType": "uint256",
          "name": "_new_LIMIT_NFT_SUBNETS",
          "type": "uint256"
        }
      ],
      "name": "change__LIMIT_NFT_SUBNETS",
      "outputs": [],
      "stateMutability": "nonpayable",
      "type": "function"
    },
    {
      "inputs": [
        {
          "internalType": "uint256",
          "name": "_new_MIN_TIME_FUNDS",
          "type": "uint256"
        }
      ],
      "name": "change__MIN_TIME_FUNDS",
      "outputs": [],
      "stateMutability": "nonpayable",
      "type": "function"
    },
    {
      "inputs": [
        {
          "internalType": "uint256",
          "name": "_REQD_COOLDOWN_S_PROVIDER",
          "type": "uint256"
        }
      ],
      "name": "change__REQD_COOLDOWN_S_PROVIDER",
      "outputs": [],
      "stateMutability": "nonpayable",
      "type": "function"
    },
    {
      "inputs": [
        {
          "internalType": "uint256",
          "name": "_REQD_NOTICE_TIME_S_PROVIDER",
          "type": "uint256"
        }
      ],
      "name": "change__REQD_NOTICE_TIME_S_PROVIDER",
      "outputs": [],
      "stateMutability": "nonpayable",
      "type": "function"
    },
    {
      "inputs": [
        {
          "internalType": "string",
          "name": "_roleName",
          "type": "string"
        }
      ],
      "name": "getBytes32OfRole",
      "outputs": [
        {
          "internalType": "bytes32",
          "name": "",
          "type": "bytes32"
        }
      ],
      "stateMutability": "pure",
      "type": "function"
    },
    {
      "inputs": [
        {
          "internalType": "uint256",
          "name": "NFTid",
          "type": "uint256"
        },
        {
          "internalType": "uint256",
          "name": "subnetId",
          "type": "uint256"
        }
      ],
      "name": "getComputesOfSubnet",
      "outputs": [
        {
          "internalType": "uint256[]",
          "name": "",
          "type": "uint256[]"
        }
      ],
      "stateMutability": "view",
      "type": "function"
    },
    {
      "inputs": [
        {
          "internalType": "uint256",
          "name": "_nftId",
          "type": "uint256"
        },
        {
          "internalType": "uint256",
          "name": "_subnetId",
          "type": "uint256"
        }
      ],
      "name": "getReferralAddress",
      "outputs": [
        {
          "internalType": "address",
          "name": "",
          "type": "address"
        }
      ],
      "stateMutability": "view",
      "type": "function"
    },
    {
      "inputs": [
        {
          "internalType": "bytes32",
          "name": "role",
          "type": "bytes32"
        }
      ],
      "name": "getRoleAdmin",
      "outputs": [
        {
          "internalType": "bytes32",
          "name": "",
          "type": "bytes32"
        }
      ],
      "stateMutability": "view",
      "type": "function"
    },
    {
      "inputs": [
        {
          "internalType": "bytes32",
          "name": "role",
          "type": "bytes32"
        },
        {
          "internalType": "address",
          "name": "account",
          "type": "address"
        }
      ],
      "name": "grantRole",
      "outputs": [],
      "stateMutability": "nonpayable",
      "type": "function"
    },
    {
      "inputs": [
        {
          "internalType": "bytes32",
          "name": "role",
          "type": "bytes32"
        },
        {
          "internalType": "address",
          "name": "account",
          "type": "address"
        }
      ],
      "name": "hasRole",
      "outputs": [
        {
          "internalType": "bool",
          "name": "",
          "type": "bool"
        }
      ],
      "stateMutability": "view",
      "type": "function"
    },
    {
      "inputs": [
        {
          "internalType": "address",
          "name": "_GlobalDAO",
          "type": "address"
        },
        {
          "internalType": "uint256",
          "name": "_LIMIT_NFT_SUBNETS",
          "type": "uint256"
        },
        {
          "internalType": "uint256",
          "name": "_MIN_TIME_FUNDS",
          "type": "uint256"
        },
        {
          "internalType": "contract IRegistration",
          "name": "_RegistrationContract",
          "type": "address"
        },
        {
          "internalType": "contract IERC721",
          "name": "_ApplicationNFT",
          "type": "address"
        },
        {
          "internalType": "contract ISubscriptionBalance",
          "name": "_SubscriptionBalance",
          "type": "address"
        },
        {
          "internalType": "contract IERC20Upgradeable",
          "name": "_XCT",
          "type": "address"
        },
        {
          "internalType": "uint256",
          "name": "_REQD_NOTICE_TIME_S_PROVIDER",
          "type": "uint256"
        },
        {
          "internalType": "uint256",
          "name": "_REQD_COOLDOWN_S_PROVIDER",
          "type": "uint256"
        }
      ],
      "name": "initialize",
      "outputs": [],
      "stateMutability": "nonpayable",
      "type": "function"
    },
    {
      "inputs": [],
      "name": "paused",
      "outputs": [
        {
          "internalType": "bool",
          "name": "",
          "type": "bool"
        }
      ],
      "stateMutability": "view",
      "type": "function"
    },
    {
      "inputs": [
        {
          "internalType": "uint256",
          "name": "_nftId",
          "type": "uint256"
        },
        {
          "internalType": "uint256",
          "name": "_subnetId",
          "type": "uint256"
        }
      ],
      "name": "r_licenseFee",
      "outputs": [
        {
          "internalType": "uint256",
          "name": "",
          "type": "uint256"
        }
      ],
      "stateMutability": "view",
      "type": "function"
    },
    {
      "inputs": [
        {
          "internalType": "bytes32",
          "name": "role",
          "type": "bytes32"
        },
        {
          "internalType": "address",
          "name": "account",
          "type": "address"
        }
      ],
      "name": "renounceRole",
      "outputs": [],
      "stateMutability": "nonpayable",
      "type": "function"
    },
    {
      "inputs": [
        {
          "internalType": "uint256",
          "name": "",
          "type": "uint256"
        },
        {
          "internalType": "uint256",
          "name": "",
          "type": "uint256"
        }
      ],
      "name": "requestPriceChange",
      "outputs": [
        {
          "internalType": "uint256",
          "name": "timestamp",
          "type": "uint256"
        },
        {
          "internalType": "string",
          "name": "serviceProviderAddress",
          "type": "string"
        },
        {
          "internalType": "uint256",
          "name": "lastPriceChange",
          "type": "uint256"
        }
      ],
      "stateMutability": "view",
      "type": "function"
    },
    {
      "inputs": [
        {
          "internalType": "uint256",
          "name": "_nftId",
          "type": "uint256"
        },
        {
          "internalType": "uint256",
          "name": "_subnetId",
          "type": "uint256"
        },
        {
          "internalType": "string",
          "name": "_newServiceProvider",
          "type": "string"
        }
      ],
      "name": "requestServiceProviderChange",
      "outputs": [],
      "stateMutability": "nonpayable",
      "type": "function"
    },
    {
      "inputs": [
        {
          "internalType": "bytes32",
          "name": "role",
          "type": "bytes32"
        },
        {
          "internalType": "address",
          "name": "account",
          "type": "address"
        }
      ],
      "name": "revokeRole",
      "outputs": [],
      "stateMutability": "nonpayable",
      "type": "function"
    },
    {
      "inputs": [
        {
          "internalType": "uint256",
          "name": "_balanceToAdd",
          "type": "uint256"
        },
        {
          "internalType": "uint256[]",
          "name": "subnetId",
          "type": "uint256[]"
        },
        {
          "internalType": "string[]",
          "name": "_serviceProviderAddress",
          "type": "string[]"
        },
        {
          "internalType": "address[]",
          "name": "_referralAddress",
          "type": "address[]"
        },
        {
          "internalType": "uint256[]",
          "name": "_licenseFee",
          "type": "uint256[]"
        },
        {
          "internalType": "uint256[][]",
          "name": "computeRequired",
          "type": "uint256[][]"
        }
      ],
      "name": "subscribeBatchNew",
      "outputs": [
        {
          "internalType": "uint256",
          "name": "NFTid",
          "type": "uint256"
        }
      ],
      "stateMutability": "nonpayable",
      "type": "function"
    },
    {
      "inputs": [
        {
          "internalType": "uint256",
          "name": "_nftId",
          "type": "uint256"
        },
        {
          "internalType": "uint256[]",
          "name": "subnetId",
          "type": "uint256[]"
        },
        {
          "internalType": "string[]",
          "name": "_serviceProviderAddress",
          "type": "string[]"
        },
        {
          "internalType": "address[]",
          "name": "_referralAddress",
          "type": "address[]"
        },
        {
          "internalType": "uint256[]",
          "name": "_licenseFee",
          "type": "uint256[]"
        },
        {
          "internalType": "uint256[][]",
          "name": "computeRequired",
          "type": "uint256[][]"
        }
      ],
      "name": "subscribeBatchToExistingNFT",
      "outputs": [],
      "stateMutability": "nonpayable",
      "type": "function"
    },
    {
      "inputs": [
        {
          "internalType": "uint256",
          "name": "_balanceToAdd",
          "type": "uint256"
        },
        {
          "internalType": "uint256",
          "name": "subnetId",
          "type": "uint256"
        },
        {
          "internalType": "string",
          "name": "_serviceProviderAddress",
          "type": "string"
        },
        {
          "internalType": "address",
          "name": "_referralAddress",
          "type": "address"
        },
        {
          "internalType": "uint256",
          "name": "_licenseFee",
          "type": "uint256"
        },
        {
          "internalType": "uint256[]",
          "name": "_computeRequired",
          "type": "uint256[]"
        }
      ],
      "name": "subscribeNew",
      "outputs": [
        {
          "internalType": "uint256",
          "name": "",
          "type": "uint256"
        }
      ],
      "stateMutability": "nonpayable",
      "type": "function"
    },
    {
      "inputs": [
        {
          "internalType": "uint256",
          "name": "_nftId",
          "type": "uint256"
        },
        {
          "internalType": "uint256",
          "name": "_subnetId",
          "type": "uint256"
        },
        {
          "internalType": "string",
          "name": "_serviceProviderAddress",
          "type": "string"
        },
        {
          "internalType": "address",
          "name": "_referralAddress",
          "type": "address"
        },
        {
          "internalType": "uint256",
          "name": "_licenseFee",
          "type": "uint256"
        },
        {
          "internalType": "uint256[]",
          "name": "_computeRequired",
          "type": "uint256[]"
        }
      ],
      "name": "subscribeToExistingNFT",
      "outputs": [],
      "stateMutability": "nonpayable",
      "type": "function"
    },
    {
      "inputs": [
        {
          "internalType": "bytes4",
          "name": "interfaceId",
          "type": "bytes4"
        }
      ],
      "name": "supportsInterface",
      "outputs": [
        {
          "internalType": "bool",
          "name": "",
          "type": "bool"
        }
      ],
      "stateMutability": "view",
      "type": "function"
    },
    {
      "inputs": [
        {
          "internalType": "uint256",
          "name": "",
          "type": "uint256"
        },
        {
          "internalType": "uint256",
          "name": "",
          "type": "uint256"
        }
      ],
      "name": "userSubscription",
      "outputs": [
        {
          "internalType": "string",
          "name": "serviceProviderAddress",
          "type": "string"
        },
        {
          "internalType": "address",
          "name": "referralAddress",
          "type": "address"
        },
        {
          "internalType": "uint256",
          "name": "r_licenseFee",
          "type": "uint256"
        },
        {
          "internalType": "bool",
          "name": "subscribed",
          "type": "bool"
        }
      ],
      "stateMutability": "view",
      "type": "function"
    }
  ],
  "bytecode": "0x608060405234801561001057600080fd5b50613929806100206000396000f3fe608060405234801561001057600080fd5b506004361061025e5760003560e01c80639bda6a9e11610146578063cbfafbda116100c3578063dd8ba3f011610087578063dd8ba3f0146105d2578063dfe45510146105db578063ec414976146105f4578063f7a249ab14610607578063f8f4724f1461061a578063fdffffff1461062d5761025e565b8063cbfafbda1461057d578063d547741f14610590578063d5cb22c9146105a3578063d652d8a0146105ac578063d9f64005146105bf5761025e565b8063b1f107e21161010a578063b1f107e21461051e578063b5f608e814610527578063b621f5b714610530578063be78d8b614610543578063c73f22e61461056a5761025e565b80639bda6a9e1461049b5780639ca8b426146104ae578063a217fddf146104d5578063a8440fe2146104dd578063abb4b9cd1461050b5761025e565b8063436254d6116101df5780637584c82f116101a35780637584c82f146103e65780637b6f7873146104095780637bf654f21461042b57806383f59ac61461043e57806391d14854146104515780639704576a146104645761025e565b8063436254d61461036a57806343915cd01461038a57806345c37cd41461039d5780634bed67ff146103c85780635c975abb146103db5761025e565b8063203181c911610226578063203181c9146102fb57806323d7d2861461030e578063248a9ca3146103215780632f2ff15d1461034457806336568abe146103575761025e565b806301ffc9a71461026357806309cfddb21461028b5780630d47e245146102ac578063110bb8cd146102bf5780631386387a146102d4575b600080fd5b610276610271366004612f99565b610640565b60405190151581526020015b60405180910390f35b61029e610299366004613014565b610679565b604051908152602001610282565b61029e6102ba3660046132b9565b610901565b6102d26102cd3660046131a1565b610c02565b005b61029e7f86c262939a9533c4628ccc11f9decb407b7c04ffc9311f0c60d1f23d7d790db781565b6102d26103093660046131c2565b610e1a565b6102d261031c366004613248565b610fc7565b61029e61032f366004612f52565b60009081526065602052604090206001015490565b6102d2610352366004612f6a565b611063565b6102d2610365366004612f6a565b61108d565b61037d6103783660046131a1565b61110b565b60405161028291906134b2565b6102d2610398366004612f52565b611179565b60ca546103b0906001600160a01b031681565b6040516001600160a01b039091168152602001610282565b60cc546103b0906001600160a01b031681565b60975460ff16610276565b6103f96103f43660046131a1565b6111c6565b60405161028294939291906134d8565b61041c6104173660046131a1565b611290565b60405161028293929190613627565b6102d26104393660046131fa565b611346565b60cd546103b0906001600160a01b031681565b61027661045f366004612f6a565b611473565b6103b06104723660046131a1565b600091825260ce602090815260408084209284529190529020600101546001600160a01b031690565b6102d26104a9366004613275565b61149e565b61029e7f3accb7525e36f7c8113757659b4e6f25deb99f23daf336bf7c35736aae7bcd9d81565b61029e600081565b61029e6104eb3660046131a1565b600091825260ce6020908152604080842092845291905290206002015490565b60c9546103b0906001600160a01b031681565b61029e60d05481565b61029e60d25481565b6102d261053e366004612e67565b6116ef565b61029e7fd9613b558e6880459584712b99553db97ae396352f0a26bac1ecdfdff9a4898381565b6102d261057836600461333d565b61171d565b6102d261058b366004612f52565b611b2b565b6102d261059e366004612f6a565b611b78565b61029e60cf5481565b6102d26105ba366004612e9f565b611b9d565b6102d26105cd366004612f52565b611d91565b61029e60d15481565b61029e6105e9366004612fc1565b805160209091012090565b6102d2610602366004613014565b611dde565b60cb546103b0906001600160a01b031681565b6102d2610628366004612f52565b611ec9565b6102d261063b3660046132b9565b611f16565b60006001600160e01b03198216637965db0b60e01b148061067157506301ffc9a760e01b6001600160e01b03198316145b90505b919050565b600061075187876000815181106106a057634e487b7160e01b600052603260045260246000fd5b6020026020010151876000815181106106c957634e487b7160e01b600052603260045260246000fd5b6020026020010151876000815181106106f257634e487b7160e01b600052603260045260246000fd5b60200260200101518760008151811061071b57634e487b7160e01b600052603260045260246000fd5b60200260200101518760008151811061074457634e487b7160e01b600052603260045260246000fd5b6020026020010151610901565b905060015b8651811015610842576108308288838151811061078357634e487b7160e01b600052603260045260246000fd5b60200260200101518884815181106107ab57634e487b7160e01b600052603260045260246000fd5b60200260200101518885815181106107d357634e487b7160e01b600052603260045260246000fd5b60200260200101518886815181106107fb57634e487b7160e01b600052603260045260246000fd5b602002602001015188878151811061082357634e487b7160e01b600052603260045260246000fd5b6020026020010151611f16565b8061083a81613889565b915050610756565b5060d05460cb5460405163536aeb8160e11b81526004810184905289926108d19290916001600160a01b039091169063a6d5d702906024015b60206040518083038186803b15801561089357600080fd5b505afa1580156108a7573d6000803e3d6000fd5b505050506040513d601f19601f820116820180604052508101906108cb9190612ffc565b90612142565b106108f75760405162461bcd60e51b81526004016108ee9061358a565b60405180910390fd5b9695505050505050565b600061090f60975460ff1690565b1561092c5760405162461bcd60e51b81526004016108ee90613512565b60006109bf600160ca60009054906101000a90046001600160a01b03166001600160a01b031663561892366040518163ffffffff1660e01b815260040160206040518083038186803b15801561098157600080fd5b505afa158015610995573d6000803e3d6000fd5b505050506040513d601f19601f820116820180604052508101906109b99190612ffc565b90612155565b60ca549091506001600160a01b0316636a627842336040516001600160e01b031960e084901b1681526001600160a01b039091166004820152602401602060405180830381600087803b158015610a1557600080fd5b505af1158015610a29573d6000803e3d6000fd5b505050506040513d601f19601f82011682018060405250810190610a4d9190612ffc565b5060cc546001600160a01b03166323b872dd336040516001600160e01b031960e084901b1681526001600160a01b039091166004820152306024820152604481018b9052606401602060405180830381600087803b158015610aae57600080fd5b505af1158015610ac2573d6000803e3d6000fd5b505050506040513d601f19601f82011682018060405250810190610ae69190612f36565b50610af5818888888888612161565b60cb546001600160a01b03166394f6340c828a8a336040516001600160e01b031960e087901b1681526004810194909452602484019290925260448301526001600160a01b03166064820152608401602060405180830381600087803b158015610b5e57600080fd5b505af1158015610b72573d6000803e3d6000fd5b505050506040513d601f19601f82011682018060405250810190610b969190612f36565b5060d05460cb5460405163199030c960e11b815260048101849052602481018a90528a92610bda9290916001600160a01b039091169063332061929060440161087b565b10610bf75760405162461bcd60e51b81526004016108ee9061358a565b979650505050505050565b6040805160208082018352600080835285815260d38252838120858252909152829020915190917fc5d2460186f7233c927e7db2dcc703c0e500b653ca82273b7bfad8045d85a47091610c5891600101906133ce565b60405180910390201415610cc65760405162461bcd60e51b815260206004820152602f60248201527f4e6f207265717565737420666f7220736572766963652070726f76696465722060448201526e18da185b99d948191bdb99481e595d608a1b60648201526084016108ee565b60d254600084815260d3602090815260408083208684529091529020544291610cef9190612155565b10610d3c5760405162461bcd60e51b815260206004820152601c60248201527f43616e6e6f74206170706c79206265666f726520636f6f6c646f776e0000000060448201526064016108ee565b600083815260d360209081526040808320858452825280832042600282015586845260ce835281842086855290925290912060019091018054610d7e9061384e565b610d89929190612a9c565b50604080516020808201808452600080845287815260d383528481208782529092529290209051610dc09260019092019190612b27565b50600083815260ce602090815260408083208584529091529081902090517f18ea9894f61e99766c715362e69b478c1e4b6d999d935a1a9e513b5a55e2fd3b91610e0d91869186916136eb565b60405180910390a1505050565b600083815260ce602090815260408083208584529091529020600101546001600160a01b031615610e7b5760405162461bcd60e51b815260206004820152600b60248201526a105b1c9958591e481cd95d60aa1b60448201526064016108ee565b3360ca546040516331a9108f60e11b8152600481018690526001600160a01b039283169290911690636352211e9060240160206040518083038186803b158015610ec457600080fd5b505afa158015610ed8573d6000803e3d6000fd5b505050506040513d601f19601f82011682018060405250810190610efc9190612e83565b6001600160a01b031614610f525760405162461bcd60e51b815260206004820152601e60248201527f53656e646572206e6f7420746865206f776e6572206f66204e4654206964000060448201526064016108ee565b600083815260ce6020908152604080832085845282529182902060010180546001600160a01b0319166001600160a01b0385169081179091558251868152918201859052918101919091527f5878ac48f3058583ef4c6d4eb2cc2fdbe3fad465b25bb2216a7d0396e0a88b7590606001610e0d565b7fd9613b558e6880459584712b99553db97ae396352f0a26bac1ecdfdff9a48983610ff18161267b565b600084815260ce60209081526040808320868452825291829020600401805460ff19168515159081179091558251878152918201869052918101919091527ffd4b8cdb9614e2ca61f7c1e9963f9b7c7ca87ef19d849c143799f98f0fcb6770906060015b60405180910390a150505050565b60008281526065602052604090206001015461107e8161267b565b6110888383612688565b505050565b6001600160a01b03811633146110fd5760405162461bcd60e51b815260206004820152602f60248201527f416363657373436f6e74726f6c3a2063616e206f6e6c792072656e6f756e636560448201526e103937b632b9903337b91039b2b63360891b60648201526084016108ee565b611107828261270e565b5050565b600082815260ce6020908152604080832084845282529182902060030180548351818402810184019094528084526060939283018282801561116c57602002820191906000526020600020905b815481526020019060010190808311611158575b5050505050905092915050565b60006111848161267b565b60d25460408051918252602082018490527fc5e14df5fc337a990601fe0ce9170d1666340710bae7daf71491634ab38a58dc910160405180910390a15060d255565b60ce6020908152600092835260408084209091529082529020805481906111ec9061384e565b80601f01602080910402602001604051908101604052809291908181526020018280546112189061384e565b80156112655780601f1061123a57610100808354040283529160200191611265565b820191906000526020600020905b81548152906001019060200180831161124857829003601f168201915b505050506001830154600284015460049094015492936001600160a01b039091169290915060ff1684565b60d3602090815260009283526040808420909152908252902080546001820180549192916112bd9061384e565b80601f01602080910402602001604051908101604052809291908181526020018280546112e99061384e565b80156113365780601f1061130b57610100808354040283529160200191611336565b820191906000526020600020905b81548152906001019060200180831161131957829003601f168201915b5050505050908060020154905083565b7f3accb7525e36f7c8113757659b4e6f25deb99f23daf336bf7c35736aae7bcd9d6113708161267b565b60975460ff16156113935760405162461bcd60e51b81526004016108ee90613512565b600084815260ce60209081526040808320868452825290912083516113c092600390920191850190612b9b565b5060cb54604051635a73b33b60e11b8152600481018690526001600160a01b039091169063b4e7667690602401602060405180830381600087803b15801561140757600080fd5b505af115801561141b573d6000803e3d6000fd5b505050506040513d601f19601f8201168201806040525081019061143f9190612f36565b507f35691e4ea17a41d9b9c14fabfbac351eabf4a86083b510347f5710ce6ebf06e684848460405161105593929190613650565b60009182526065602090815260408084206001600160a01b0393909316845291905290205460ff1690565b3360ca546040516331a9108f60e11b8152600481018690526001600160a01b039283169290911690636352211e9060240160206040518083038186803b1580156114e757600080fd5b505afa1580156114fb573d6000803e3d6000fd5b505050506040513d601f19601f8201168201806040525081019061151f9190612e83565b6001600160a01b03161461156f5760405162461bcd60e51b8152602060048201526017602482015276139bdd081d1a19481bdddb995c881bd988139195081a59604a1b60448201526064016108ee565b600083815260ce6020908152604080832085845290915290206004015460ff166115ed5760405162461bcd60e51b815260206004820152602960248201527f5f7375626e65744964206973206e6f74207375627363726962656420627920756044820152681cd95c89dcc813919560ba1b60648201526084016108ee565b60d154600084815260d36020908152604080832086845290915290206002015442916116199190612155565b1061168c5760405162461bcd60e51b815260206004820152603860248201527f43616e6e6f742072657175657374206265666f726520524551445f4e4f54494360448201527f455f54494d455f535f50524f564944455220706173736564000000000000000060648201526084016108ee565b600083815260d360209081526040808320858452825290912042815582516116bc92600190920191840190612b27565b507e0858c198563c0aa886be91504eeb8007e0be28541c36be5d1ace93f3eebbfd838383604051610e0d93929190613678565b60006116fa8161267b565b5060cd80546001600160a01b0319166001600160a01b0392909216919091179055565b60975460ff16156117405760405162461bcd60e51b81526004016108ee90613512565b60c9546040516373d97f3960e01b8152600481018490526000916001600160a01b0316906373d97f399060240160006040518083038186803b15801561178557600080fd5b505afa158015611799573d6000803e3d6000fd5b505050506040513d6000823e601f3d908101601f191682016040526117c191908101906130e8565b50505050509350505050806118355760405162461bcd60e51b815260206004820152603460248201527f43616e6e6f74206368616e676520737562736372697074696f6e206966207375604482015273189b995d081a5cc81b9bdd0819195b1a5cdd195960621b60648201526084016108ee565b3360ca546040516331a9108f60e11b8152600481018790526001600160a01b039283169290911690636352211e9060240160206040518083038186803b15801561187e57600080fd5b505afa158015611892573d6000803e3d6000fd5b505050506040513d601f19601f820116820180604052508101906118b69190612e83565b6001600160a01b0316146119065760405162461bcd60e51b8152602060048201526017602482015276139bdd081d1a19481bdddb995c881bd988139195081a59604a1b60448201526064016108ee565b600084815260ce6020908152604080832086845290915290206004015460ff166119855760405162461bcd60e51b815260206004820152602a60248201527f5f63757272656e745375626e65744964206973206e6f7420737562736372696260448201526932b210313c903ab9b2b960b11b60648201526084016108ee565b600084815260ce6020908152604080832085845290915280822060048101805460ff191660011790558583529082209184905281549091906119c69061384e565b6119d1929190612a9c565b50600084815260ce602090815260408083208684529091528082206001808201548685529290932092830180546001600160a01b0319166001600160a01b03909316929092179091556002808201549083015560039081018054611a39939290920191612bd5565b50600084815260ce60209081526040808320868452909152908190206004908101805460ff1916905560cb549151636d6ecc4d60e11b815290810186905260248101859052604481018490526001600160a01b039091169063dadd989a90606401602060405180830381600087803b158015611ab457600080fd5b505af1158015611ac8573d6000803e3d6000fd5b505050506040513d601f19601f82011682018060405250810190611aec9190612f36565b5060408051858152602081018590529081018390527f53404332d7fbbd680064ad6f3fa2e5a1c6737c9c3206cf95918a31755c7918b790606001611055565b6000611b368161267b565b60cf5460408051918252602082018490527f54fe1a6d60ea8cebf2cb1d7889eb5b27dd95abe955e06eed2cae5540a54b4bf2910160405180910390a15060cf55565b600082815260656020526040902060010154611b938161267b565b611088838361270e565b6000611ba96001612775565b90508015611bc1576000805461ff0019166101001790555b611bc96127fa565b611bd1612823565b611bdc60008b612688565b611c067f3accb7525e36f7c8113757659b4e6f25deb99f23daf336bf7c35736aae7bcd9d8b612688565b611c307f86c262939a9533c4628ccc11f9decb407b7c04ffc9311f0c60d1f23d7d790db78b612688565b611c5a7fd9613b558e6880459584712b99553db97ae396352f0a26bac1ecdfdff9a489838b612688565b60cd80546001600160a01b038c81166001600160a01b03199283161790925560cf8b905560d08a905560c980548a841690831617905560ca805489841690831617905560cb8054888416908316811790915560cc805493881693909216831790915560d185905560d284905560405163095ea7b360e01b81526004810191909152600019602482015263095ea7b390604401602060405180830381600087803b158015611d0657600080fd5b505af1158015611d1a573d6000803e3d6000fd5b505050506040513d601f19601f82011682018060405250810190611d3e9190612f36565b508015611d85576000805461ff0019169055604051600181527f7f26b83ff96e1f2b6a682f133852f6798a09c465da95921460cefb38474024989060200160405180910390a15b50505050505050505050565b6000611d9c8161267b565b60d15460408051918252602082018490527f880c74d681b789e90ecfbf24398fc73843a046f74a0f6ffe22a0fcc0d214a771910160405180910390a15060d155565b60005b8551811015611ec057611eae87878381518110611e0e57634e487b7160e01b600052603260045260246000fd5b6020026020010151878481518110611e3657634e487b7160e01b600052603260045260246000fd5b6020026020010151878581518110611e5e57634e487b7160e01b600052603260045260246000fd5b6020026020010151878681518110611e8657634e487b7160e01b600052603260045260246000fd5b602002602001015187878151811061082357634e487b7160e01b600052603260045260246000fd5b80611eb881613889565b915050611de1565b50505050505050565b6000611ed48161267b565b60d05460408051918252602082018490527f7c687d0697c66d5104a1421b7d823a0818020aeacac7371785314a404d9a2ee2910160405180910390a15060d055565b60975460ff1615611f395760405162461bcd60e51b81526004016108ee90613512565b60cb546040516388d6c80560e01b8152600481018890526001600160a01b03909116906388d6c80590602401602060405180830381600087803b158015611f7f57600080fd5b505af1158015611f93573d6000803e3d6000fd5b505050506040513d601f19601f82011682018060405250810190611fb79190612f36565b5060cb5460405163577b97d960e11b8152600481018890526001600160a01b039091169063aef72fb29060240160206040518083038186803b158015611ffc57600080fd5b505afa158015612010573d6000803e3d6000fd5b505050506040513d601f19601f820116820180604052508101906120349190612f36565b6120a65760405162461bcd60e51b815260206004820152603860248201527f42616c616e636520666f72204e4654206964203d20302c20736f2063616e6e6f60448201527f7420737562736372696265206d6f7265207375626e657473000000000000000060648201526084016108ee565b60cb5460405163c6d1900360e01b815260048101889052602481018790526001600160a01b039091169063c6d1900390604401602060405180830381600087803b1580156120f357600080fd5b505af1158015612107573d6000803e3d6000fd5b505050506040513d601f19601f8201168201806040525081019061212b9190612f36565b5061213a868686868686612161565b505050505050565b600061214e82846137e8565b9392505050565b600061214e82846137d0565b600086815260ce6020908152604080832088845290915290206004015460ff16156121c35760405162461bcd60e51b8152602060048201526012602482015271105b1c9958591e481cdd589cd8dc9a58995960721b60448201526064016108ee565b60c95460408051631456ce2b60e31b8152905187926001600160a01b03169163a2b67158916004808301926020929190829003018186803b15801561220757600080fd5b505afa15801561221b573d6000803e3d6000fd5b505050506040513d601f19601f8201168201806040525081019061223f9190612ffc565b116122a25760405162461bcd60e51b815260206004820152602d60248201527f5f7375626e6574496420646f6e6f7420657869737420696e205265676973747260448201526c185d1a5bdb90dbdb9d1c9858dd609a1b60648201526084016108ee565b60c9546040516373d97f3960e01b8152600481018790526000916001600160a01b0316906373d97f399060240160006040518083038186803b1580156122e757600080fd5b505afa1580156122fb573d6000803e3d6000fd5b505050506040513d6000823e601f3d908101601f1916820160405261232391908101906130e8565b50505050509350505050806123b05760405162461bcd60e51b815260206004820152604760248201527f526567697374726174696f6e436f6e74726163743a207375626e65742069732060448201527f64656c697374656420616e642068656e63652063616e6e6f74206265207375626064820152661cd8dc9a58995960ca1b608482015260a4016108ee565b60cf5460cb54604051632df2d0b960e21b8152600481018a90526001600160a01b039091169063b7cb42e49060240160206040518083038186803b1580156123f757600080fd5b505afa15801561240b573d6000803e3d6000fd5b505050506040513d601f19601f8201168201806040525081019061242f9190612ffc565b11156124b85760405162461bcd60e51b815260206004820152604c60248201527f43616e6e6f7420737562736372696265206173206c696d69742065786365656460448201527f7320746f206d6178205375626e657420737562736372697074696f6e20616c6c60648201526b1bddd959081c195c8813919560a21b608482015260a4016108ee565b3360ca546040516331a9108f60e11b8152600481018a90526001600160a01b039283169290911690636352211e9060240160206040518083038186803b15801561250157600080fd5b505afa158015612515573d6000803e3d6000fd5b505050506040513d601f19601f820116820180604052508101906125399190612e83565b6001600160a01b03161461258f5760405162461bcd60e51b815260206004820152601e60248201527f53656e646572206e6f7420746865206f776e6572206f66204e4654206964000060448201526064016108ee565b600087815260ce60209081526040808320898452825290912086516125b692880190612b27565b50600087815260ce6020908152604080832089845282529091206001810180546001600160a01b0319166001600160a01b03881617905560028101859055835161260892600390920191850190612b9b565b50600087815260ce6020908152604080832089845290915290819020600401805460ff19166001179055517fd8a8eccd539765905df336ff4c3dea59261278d3c359ccf40f1dddd1fa2a5a829061266a90899089908990899089908990613697565b60405180910390a150505050505050565b6126858133612856565b50565b6126928282611473565b6111075760008281526065602090815260408083206001600160a01b03851684529091529020805460ff191660011790556126ca3390565b6001600160a01b0316816001600160a01b0316837f2f8788117e7eff1d82e926ec794901d17c78024a50270940304540a733656f0d60405160405180910390a45050565b6127188282611473565b156111075760008281526065602090815260408083206001600160a01b0385168085529252808320805460ff1916905551339285917ff6391f5c32d9c69d2a47ea670b442974b53935d1edc7fd64eb21e047a839171b9190a45050565b60008054610100900460ff16156127bc578160ff1660011480156127985750303b155b6127b45760405162461bcd60e51b81526004016108ee9061353c565b506000610674565b60005460ff8084169116106127e35760405162461bcd60e51b81526004016108ee9061353c565b506000805460ff191660ff83161790556001610674565b600054610100900460ff166128215760405162461bcd60e51b81526004016108ee906135dc565b565b600054610100900460ff1661284a5760405162461bcd60e51b81526004016108ee906135dc565b6097805460ff19169055565b6128608282611473565b61110757612878816001600160a01b031660146128ba565b6128838360206128ba565b60405160200161289492919061343d565b60408051601f198184030181529082905262461bcd60e51b82526108ee916004016134c5565b606060006128c98360026137e8565b6128d49060026137d0565b67ffffffffffffffff8111156128fa57634e487b7160e01b600052604160045260246000fd5b6040519080825280601f01601f191660200182016040528015612924576020820181803683370190505b509050600360fc1b8160008151811061294d57634e487b7160e01b600052603260045260246000fd5b60200101906001600160f81b031916908160001a905350600f60fb1b8160018151811061298a57634e487b7160e01b600052603260045260246000fd5b60200101906001600160f81b031916908160001a90535060006129ae8460026137e8565b6129b99060016137d0565b90505b6001811115612a4d576f181899199a1a9b1b9c1cb0b131b232b360811b85600f16601081106129fb57634e487b7160e01b600052603260045260246000fd5b1a60f81b828281518110612a1f57634e487b7160e01b600052603260045260246000fd5b60200101906001600160f81b031916908160001a90535060049490941c93612a4681613837565b90506129bc565b50831561214e5760405162461bcd60e51b815260206004820181905260248201527f537472696e67733a20686578206c656e67746820696e73756666696369656e7460448201526064016108ee565b828054612aa89061384e565b90600052602060002090601f016020900481019282612aca5760008555612b17565b82601f10612adb5780548555612b17565b82800160010185558215612b1757600052602060002091601f016020900482015b82811115612b17578254825591600101919060010190612afc565b50612b23929150612c14565b5090565b828054612b339061384e565b90600052602060002090601f016020900481019282612b555760008555612b17565b82601f10612b6e57805160ff1916838001178555612b17565b82800160010185558215612b17579182015b82811115612b17578251825591602001919060010190612b80565b828054828255906000526020600020908101928215612b175791602002820182811115612b17578251825591602001919060010190612b80565b828054828255906000526020600020908101928215612b1757600052602060002091820182811115612b17578254825591600101919060010190612afc565b5b80821115612b235760008155600101612c15565b600082601f830112612c39578081fd5b81356020612c4e612c49836137ac565b61377b565b8281528181019085830183850287018401881015612c6a578586fd5b855b85811015612c91578135612c7f816138d0565b84529284019290840190600101612c6c565b5090979650505050505050565b600082601f830112612cae578081fd5b81356020612cbe612c49836137ac565b82815281810190858301855b85811015612c9157612ce1898684358b0101612d48565b84529284019290840190600101612cca565b600082601f830112612d03578081fd5b81356020612d13612c49836137ac565b82815281810190858301855b85811015612c9157612d36898684358b0101612dfc565b84529284019290840190600101612d1f565b600082601f830112612d58578081fd5b81356020612d68612c49836137ac565b8281528181019085830183850287018401881015612d84578586fd5b855b85811015612c9157813584529284019290840190600101612d86565b600082601f830112612db2578081fd5b81516020612dc2612c49836137ac565b8281528181019085830183850287018401881015612dde578586fd5b855b85811015612c9157815184529284019290840190600101612de0565b600082601f830112612e0c578081fd5b813567ffffffffffffffff811115612e2657612e266138ba565b612e39601f8201601f191660200161377b565b818152846020838601011115612e4d578283fd5b816020850160208301379081016020019190915292915050565b600060208284031215612e78578081fd5b813561214e816138d0565b600060208284031215612e94578081fd5b815161214e816138d0565b60008060008060008060008060006101208a8c031215612ebd578485fd5b8935612ec8816138d0565b985060208a0135975060408a0135965060608a0135612ee6816138d0565b955060808a0135612ef6816138d0565b945060a08a0135612f06816138d0565b935060c08a0135612f16816138d0565b8093505060e08a013591506101008a013590509295985092959850929598565b600060208284031215612f47578081fd5b815161214e816138e5565b600060208284031215612f63578081fd5b5035919050565b60008060408385031215612f7c578182fd5b823591506020830135612f8e816138d0565b809150509250929050565b600060208284031215612faa578081fd5b81356001600160e01b03198116811461214e578182fd5b600060208284031215612fd2578081fd5b813567ffffffffffffffff811115612fe8578182fd5b612ff484828501612dfc565b949350505050565b60006020828403121561300d578081fd5b5051919050565b60008060008060008060c0878903121561302c578384fd5b86359550602087013567ffffffffffffffff8082111561304a578586fd5b6130568a838b01612d48565b9650604089013591508082111561306b578586fd5b6130778a838b01612cf3565b9550606089013591508082111561308c578384fd5b6130988a838b01612c29565b945060808901359150808211156130ad578384fd5b6130b98a838b01612d48565b935060a08901359150808211156130ce578283fd5b506130db89828a01612c9e565b9150509295509295509295565b60008060008060008060008060006101208a8c031215613106578283fd5b8951985060208a0151613118816138e5565b60408b015160608c01519199509750613130816138e5565b60808b015190965067ffffffffffffffff8082111561314d578485fd5b6131598d838e01612da2565b965060a08c015191508082111561316e578485fd5b5061317b8c828d01612da2565b94505060c08a0151925060e08a015191506101008a015190509295985092959850929598565b600080604083850312156131b3578182fd5b50508035926020909101359150565b6000806000606084860312156131d6578081fd5b833592506020840135915060408401356131ef816138d0565b809150509250925092565b60008060006060848603121561320e578081fd5b8335925060208401359150604084013567ffffffffffffffff811115613232578182fd5b61323e86828701612d48565b9150509250925092565b60008060006060848603121561325c578081fd5b833592506020840135915060408401356131ef816138e5565b600080600060608486031215613289578081fd5b8335925060208401359150604084013567ffffffffffffffff8111156132ad578182fd5b61323e86828701612dfc565b60008060008060008060c087890312156132d1578384fd5b8635955060208701359450604087013567ffffffffffffffff808211156132f6578586fd5b6133028a838b01612dfc565b955060608901359150613314826138d0565b9093506080880135925060a08801359080821115613330578283fd5b506130db89828a01612d48565b600080600060608486031215613351578081fd5b505081359360208301359350604090920135919050565b6000815180845260208085019450808401835b838110156133975781518752958201959082019060010161337b565b509495945050505050565b600081518084526133ba816020860160208601613807565b601f01601f19169290920160200192915050565b60008083546133dc8161384e565b600182811680156133f4576001811461340557613431565b60ff19841687528287019450613431565b8786526020808720875b858110156134285781548a82015290840190820161340f565b50505082870194505b50929695505050505050565b60007f416363657373436f6e74726f6c3a206163636f756e742000000000000000000082528351613475816017850160208801613807565b7001034b99036b4b9b9b4b733903937b6329607d1b60179184019182015283516134a6816028840160208801613807565b01602801949350505050565b60006020825261214e6020830184613368565b60006020825261214e60208301846133a2565b6000608082526134eb60808301876133a2565b6001600160a01b039590951660208301525060408101929092521515606090910152919050565b60208082526010908201526f14185d5cd8589b194e881c185d5cd95960821b604082015260600190565b6020808252602e908201527f496e697469616c697a61626c653a20636f6e747261637420697320616c72656160408201526d191e481a5b9a5d1a585b1a5e995960921b606082015260800190565b60208082526032908201527f42616c616e63652061646465642073686f756c6420626520656e6f7567682077604082015271697468204d494e5f54494d455f46554e445360701b606082015260800190565b6020808252602b908201527f496e697469616c697a61626c653a20636f6e7472616374206973206e6f74206960408201526a6e697469616c697a696e6760a81b606082015260800190565b60008482526060602083015261364060608301856133a2565b9050826040830152949350505050565b60008482528360208301526060604083015261366f6060830184613368565b95945050505050565b60008482528360208301526060604083015261366f60608301846133a2565b600087825286602083015260c060408301526136b660c08301876133a2565b6001600160a01b03861660608401526080830185905282810360a08401526136de8185613368565b9998505050505050505050565b6000848252602084818401526060604084015281845461370a8161384e565b806060870152608060018084166000811461372c57600181146137405761376b565b60ff1985168984015260a08901955061376b565b898852868820885b858110156137635781548b8201860152908301908801613748565b8a0184019650505b50939a9950505050505050505050565b604051601f8201601f1916810167ffffffffffffffff811182821017156137a4576137a46138ba565b604052919050565b600067ffffffffffffffff8211156137c6576137c66138ba565b5060209081020190565b600082198211156137e3576137e36138a4565b500190565b6000816000190483118215151615613802576138026138a4565b500290565b60005b8381101561382257818101518382015260200161380a565b83811115613831576000848401525b50505050565b600081613846576138466138a4565b506000190190565b60028104600182168061386257607f821691505b6020821081141561388357634e487b7160e01b600052602260045260246000fd5b50919050565b600060001982141561389d5761389d6138a4565b5060010190565b634e487b7160e01b600052601160045260246000fd5b634e487b7160e01b600052604160045260246000fd5b6001600160a01b038116811461268557600080fd5b801515811461268557600080fdfea2646970667358221220c071b3e5218571bdd12ec1cf0f3b707aaf422174d1067c88f650dcaa057fd5a964736f6c63430008020033",
  "linkReferences": {},
  "deployedLinkReferences": {}
}