{
  "_format": "hh-sol-artifact-1",
  "contractName": "Subscription",
  "sourceName": "contracts/Subscription.sol",
  "abi": [
    {
      "anonymous": false,
      "inputs": [
        {
          "indexed": false,
          "internalType": "uint256",
          "name": "NFTId",
          "type": "uint256"
        },
        {
          "indexed": false,
          "internalType": "uint256",
          "name": "subnetId",
          "type": "uint256"
        },
        {
          "indexed": false,
          "internalType": "string",
          "name": "newServiceProvider",
          "type": "string"
        }
      ],
      "name": "AppliedServiceProviderChange",
      "type": "event"
    },
    {
      "anonymous": false,
      "inputs": [
        {
          "indexed": false,
          "internalType": "uint256",
          "name": "NFTId",
          "type": "uint256"
        },
        {
          "indexed": false,
          "internalType": "uint256",
          "name": "currentSubnetId",
          "type": "uint256"
        },
        {
          "indexed": false,
          "internalType": "uint256",
          "name": "newSubnetId",
          "type": "uint256"
        }
      ],
      "name": "ChangedSubnetSubscription",
      "type": "event"
    },
    {
      "anonymous": false,
      "inputs": [
        {
          "indexed": false,
          "internalType": "uint256",
          "name": "nftId",
          "type": "uint256"
        },
        {
          "indexed": false,
          "internalType": "uint256",
          "name": "subnetId",
          "type": "uint256"
        },
        {
          "indexed": false,
          "internalType": "bool",
          "name": "allow",
          "type": "bool"
        }
      ],
      "name": "Changed_CHANGE_SUBSCRIPTION",
      "type": "event"
    },
    {
      "anonymous": false,
      "inputs": [
        {
          "indexed": false,
          "internalType": "uint256",
          "name": "prev_limit",
          "type": "uint256"
        },
        {
          "indexed": false,
          "internalType": "uint256",
          "name": "new_limit",
          "type": "uint256"
        }
      ],
      "name": "Changed_LIMIT_MIN_TIME_FUNDS",
      "type": "event"
    },
    {
      "anonymous": false,
      "inputs": [
        {
          "indexed": false,
          "internalType": "uint256",
          "name": "prev_limit",
          "type": "uint256"
        },
        {
          "indexed": false,
          "internalType": "uint256",
          "name": "new_limit",
          "type": "uint256"
        }
      ],
      "name": "Changed_LIMIT_NFT_SUBNETS",
      "type": "event"
    },
    {
      "anonymous": false,
      "inputs": [
        {
          "indexed": false,
          "internalType": "uint256",
          "name": "prev_limit",
          "type": "uint256"
        },
        {
          "indexed": false,
          "internalType": "uint256",
          "name": "new_limit",
          "type": "uint256"
        }
      ],
      "name": "Changed_REQD_COOLDOWN_S_PROVIDER",
      "type": "event"
    },
    {
      "anonymous": false,
      "inputs": [
        {
          "indexed": false,
          "internalType": "uint256",
          "name": "prev_limit",
          "type": "uint256"
        },
        {
          "indexed": false,
          "internalType": "uint256",
          "name": "new_limit",
          "type": "uint256"
        }
      ],
      "name": "Changed_REQD_NOTICE_TIME_S_PROVIDER",
      "type": "event"
    },
    {
      "anonymous": false,
      "inputs": [
        {
          "indexed": false,
          "internalType": "uint256",
          "name": "NFTid",
          "type": "uint256"
        },
        {
          "indexed": false,
          "internalType": "uint256",
          "name": "subnetId",
          "type": "uint256"
        },
        {
          "indexed": false,
          "internalType": "uint256[]",
          "name": "computeRequired",
          "type": "uint256[]"
        }
      ],
      "name": "Computes_changed",
      "type": "event"
    },
    {
      "anonymous": false,
      "inputs": [
        {
          "indexed": false,
          "internalType": "uint8",
          "name": "version",
          "type": "uint8"
        }
      ],
      "name": "Initialized",
      "type": "event"
    },
    {
      "anonymous": false,
      "inputs": [
        {
          "indexed": false,
          "internalType": "address",
          "name": "account",
          "type": "address"
        }
      ],
      "name": "Paused",
      "type": "event"
    },
    {
      "anonymous": false,
      "inputs": [
        {
          "indexed": false,
          "internalType": "uint256",
          "name": "NFTId",
          "type": "uint256"
        },
        {
          "indexed": false,
          "internalType": "uint256",
          "name": "subnetId",
          "type": "uint256"
        },
        {
          "indexed": false,
          "internalType": "address",
          "name": "refAddress",
          "type": "address"
        }
      ],
      "name": "ReferralAdded",
      "type": "event"
    },
    {
      "anonymous": false,
      "inputs": [
        {
          "indexed": false,
          "internalType": "uint256",
          "name": "NFTId",
          "type": "uint256"
        },
        {
          "indexed": false,
          "internalType": "uint256",
          "name": "subnetId",
          "type": "uint256"
        },
        {
          "indexed": false,
          "internalType": "string",
          "name": "newServiceProvider",
          "type": "string"
        }
      ],
      "name": "RequestedServiceProviderChange",
      "type": "event"
    },
    {
      "anonymous": false,
      "inputs": [
        {
          "indexed": true,
          "internalType": "bytes32",
          "name": "role",
          "type": "bytes32"
        },
        {
          "indexed": true,
          "internalType": "bytes32",
          "name": "previousAdminRole",
          "type": "bytes32"
        },
        {
          "indexed": true,
          "internalType": "bytes32",
          "name": "newAdminRole",
          "type": "bytes32"
        }
      ],
      "name": "RoleAdminChanged",
      "type": "event"
    },
    {
      "anonymous": false,
      "inputs": [
        {
          "indexed": true,
          "internalType": "bytes32",
          "name": "role",
          "type": "bytes32"
        },
        {
          "indexed": true,
          "internalType": "address",
          "name": "account",
          "type": "address"
        },
        {
          "indexed": true,
          "internalType": "address",
          "name": "sender",
          "type": "address"
        }
      ],
      "name": "RoleGranted",
      "type": "event"
    },
    {
      "anonymous": false,
      "inputs": [
        {
          "indexed": true,
          "internalType": "bytes32",
          "name": "role",
          "type": "bytes32"
        },
        {
          "indexed": true,
          "internalType": "address",
          "name": "account",
          "type": "address"
        },
        {
          "indexed": true,
          "internalType": "address",
          "name": "sender",
          "type": "address"
        }
      ],
      "name": "RoleRevoked",
      "type": "event"
    },
    {
      "anonymous": false,
      "inputs": [
        {
          "indexed": false,
          "internalType": "uint256",
          "name": "NFTId",
          "type": "uint256"
        },
        {
          "indexed": false,
          "internalType": "uint256",
          "name": "subnetId",
          "type": "uint256"
        },
        {
          "indexed": false,
          "internalType": "string",
          "name": "serviceProviderAddress",
          "type": "string"
        },
        {
          "indexed": false,
          "internalType": "address",
          "name": "referralAddress",
          "type": "address"
        },
        {
          "indexed": false,
          "internalType": "uint256",
          "name": "licenseFee",
          "type": "uint256"
        },
        {
          "indexed": false,
          "internalType": "uint256[]",
          "name": "computeRequired",
          "type": "uint256[]"
        }
      ],
      "name": "Subscribed",
      "type": "event"
    },
    {
      "anonymous": false,
      "inputs": [
        {
          "indexed": false,
          "internalType": "address",
          "name": "account",
          "type": "address"
        }
      ],
      "name": "Unpaused",
      "type": "event"
    },
    {
      "inputs": [],
      "name": "ApplicationNFT",
      "outputs": [
        {
          "internalType": "contract IERC721",
          "name": "",
          "type": "address"
        }
      ],
      "stateMutability": "view",
      "type": "function"
    },
    {
      "inputs": [],
      "name": "CHANGE_COMPUTE_ROLE",
      "outputs": [
        {
          "internalType": "bytes32",
          "name": "",
          "type": "bytes32"
        }
      ],
      "stateMutability": "view",
      "type": "function"
    },
    {
      "inputs": [],
      "name": "CHANGE_SUBSCRIPTION_ROLE",
      "outputs": [
        {
          "internalType": "bytes32",
          "name": "",
          "type": "bytes32"
        }
      ],
      "stateMutability": "view",
      "type": "function"
    },
    {
      "inputs": [],
      "name": "DEFAULT_ADMIN_ROLE",
      "outputs": [
        {
          "internalType": "bytes32",
          "name": "",
          "type": "bytes32"
        }
      ],
      "stateMutability": "view",
      "type": "function"
    },
    {
      "inputs": [],
      "name": "GLOBAL_DAO_ADDRESS",
      "outputs": [
        {
          "internalType": "address",
          "name": "",
          "type": "address"
        }
      ],
      "stateMutability": "view",
      "type": "function"
    },
    {
      "inputs": [],
      "name": "LIMIT_NFT_SUBNETS",
      "outputs": [
        {
          "internalType": "uint256",
          "name": "",
          "type": "uint256"
        }
      ],
      "stateMutability": "view",
      "type": "function"
    },
    {
      "inputs": [],
      "name": "MIN_TIME_FUNDS",
      "outputs": [
        {
          "internalType": "uint256",
          "name": "",
          "type": "uint256"
        }
      ],
      "stateMutability": "view",
      "type": "function"
    },
    {
      "inputs": [],
      "name": "REQD_COOLDOWN_S_PROVIDER",
      "outputs": [
        {
          "internalType": "uint256",
          "name": "",
          "type": "uint256"
        }
      ],
      "stateMutability": "view",
      "type": "function"
    },
    {
      "inputs": [],
      "name": "REQD_NOTICE_TIME_S_PROVIDER",
      "outputs": [
        {
          "internalType": "uint256",
          "name": "",
          "type": "uint256"
        }
      ],
      "stateMutability": "view",
      "type": "function"
    },
    {
      "inputs": [],
      "name": "RegistrationContract",
      "outputs": [
        {
          "internalType": "contract IRegistration",
          "name": "",
          "type": "address"
        }
      ],
      "stateMutability": "view",
      "type": "function"
    },
    {
      "inputs": [],
      "name": "SubscriptionBalance",
      "outputs": [
        {
          "internalType": "contract ISubscriptionBalance",
          "name": "",
          "type": "address"
        }
      ],
      "stateMutability": "view",
      "type": "function"
    },
    {
      "inputs": [],
      "name": "WITHDRAW_CREDITS_ROLE",
      "outputs": [
        {
          "internalType": "bytes32",
          "name": "",
          "type": "bytes32"
        }
      ],
      "stateMutability": "view",
      "type": "function"
    },
    {
      "inputs": [],
      "name": "XCT",
      "outputs": [
        {
          "internalType": "contract IERC20Upgradeable",
          "name": "",
          "type": "address"
        }
      ],
      "stateMutability": "view",
      "type": "function"
    },
    {
      "inputs": [
        {
          "internalType": "uint256",
          "name": "_nftId",
          "type": "uint256"
        },
        {
          "internalType": "uint256",
          "name": "_subnetId",
          "type": "uint256"
        },
        {
          "internalType": "address",
          "name": "_refAddress",
          "type": "address"
        }
      ],
      "name": "addReferralAddress",
      "outputs": [],
      "stateMutability": "nonpayable",
      "type": "function"
    },
    {
      "inputs": [
        {
          "internalType": "uint256",
          "name": "_nftId",
          "type": "uint256"
        },
        {
          "internalType": "uint256",
          "name": "_subnetId",
          "type": "uint256"
        }
      ],
      "name": "applyServiceProviderChange",
      "outputs": [],
      "stateMutability": "nonpayable",
      "type": "function"
    },
    {
      "inputs": [
        {
          "internalType": "uint256",
          "name": "_NFTid",
          "type": "uint256"
        },
        {
          "internalType": "uint256",
          "name": "_subnetId",
          "type": "uint256"
        },
        {
          "internalType": "uint256[]",
          "name": "_computeRequired",
          "type": "uint256[]"
        }
      ],
      "name": "changeComputesOfSubnet",
      "outputs": [],
      "stateMutability": "nonpayable",
      "type": "function"
    },
    {
      "inputs": [
        {
          "internalType": "uint256",
          "name": "_nftId",
          "type": "uint256"
        },
        {
          "internalType": "uint256",
          "name": "_currentSubnetId",
          "type": "uint256"
        },
        {
          "internalType": "uint256",
          "name": "_newSubnetId",
          "type": "uint256"
        }
      ],
      "name": "changeSubnetSubscription",
      "outputs": [],
      "stateMutability": "nonpayable",
      "type": "function"
    },
    {
      "inputs": [
        {
          "internalType": "uint256",
          "name": "_nftId",
          "type": "uint256"
        },
        {
          "internalType": "uint256",
          "name": "_subnetId",
          "type": "uint256"
        },
        {
          "internalType": "bool",
          "name": "allow",
          "type": "bool"
        }
      ],
      "name": "change__CHANGE_SUBSCRIPTION",
      "outputs": [],
      "stateMutability": "nonpayable",
      "type": "function"
    },
    {
      "inputs": [
        {
          "internalType": "address",
          "name": "_newGlobalDAO",
          "type": "address"
        }
      ],
      "name": "change__GLOBAL_DAO_ADDRESS",
      "outputs": [],
      "stateMutability": "nonpayable",
      "type": "function"
    },
    {
      "inputs": [
        {
          "internalType": "uint256",
          "name": "_new_LIMIT_NFT_SUBNETS",
          "type": "uint256"
        }
      ],
      "name": "change__LIMIT_NFT_SUBNETS",
      "outputs": [],
      "stateMutability": "nonpayable",
      "type": "function"
    },
    {
      "inputs": [
        {
          "internalType": "uint256",
          "name": "_new_MIN_TIME_FUNDS",
          "type": "uint256"
        }
      ],
      "name": "change__MIN_TIME_FUNDS",
      "outputs": [],
      "stateMutability": "nonpayable",
      "type": "function"
    },
    {
      "inputs": [
        {
          "internalType": "uint256",
          "name": "_REQD_COOLDOWN_S_PROVIDER",
          "type": "uint256"
        }
      ],
      "name": "change__REQD_COOLDOWN_S_PROVIDER",
      "outputs": [],
      "stateMutability": "nonpayable",
      "type": "function"
    },
    {
      "inputs": [
        {
          "internalType": "uint256",
          "name": "_REQD_NOTICE_TIME_S_PROVIDER",
          "type": "uint256"
        }
      ],
      "name": "change__REQD_NOTICE_TIME_S_PROVIDER",
      "outputs": [],
      "stateMutability": "nonpayable",
      "type": "function"
    },
    {
      "inputs": [
        {
          "internalType": "string",
          "name": "_roleName",
          "type": "string"
        }
      ],
      "name": "getBytes32OfRole",
      "outputs": [
        {
          "internalType": "bytes32",
          "name": "",
          "type": "bytes32"
        }
      ],
      "stateMutability": "pure",
      "type": "function"
    },
    {
      "inputs": [
        {
          "internalType": "uint256",
          "name": "NFTid",
          "type": "uint256"
        },
        {
          "internalType": "uint256",
          "name": "subnetId",
          "type": "uint256"
        }
      ],
      "name": "getComputesOfSubnet",
      "outputs": [
        {
          "internalType": "uint256[]",
          "name": "",
          "type": "uint256[]"
        }
      ],
      "stateMutability": "view",
      "type": "function"
    },
    {
      "inputs": [
        {
          "internalType": "uint256",
          "name": "_nftId",
          "type": "uint256"
        },
        {
          "internalType": "uint256",
          "name": "_subnetId",
          "type": "uint256"
        }
      ],
      "name": "getReferralAddress",
      "outputs": [
        {
          "internalType": "address",
          "name": "",
          "type": "address"
        }
      ],
      "stateMutability": "view",
      "type": "function"
    },
    {
      "inputs": [
        {
          "internalType": "bytes32",
          "name": "role",
          "type": "bytes32"
        }
      ],
      "name": "getRoleAdmin",
      "outputs": [
        {
          "internalType": "bytes32",
          "name": "",
          "type": "bytes32"
        }
      ],
      "stateMutability": "view",
      "type": "function"
    },
    {
      "inputs": [
        {
          "internalType": "bytes32",
          "name": "role",
          "type": "bytes32"
        },
        {
          "internalType": "address",
          "name": "account",
          "type": "address"
        }
      ],
      "name": "grantRole",
      "outputs": [],
      "stateMutability": "nonpayable",
      "type": "function"
    },
    {
      "inputs": [
        {
          "internalType": "bytes32",
          "name": "role",
          "type": "bytes32"
        },
        {
          "internalType": "address",
          "name": "account",
          "type": "address"
        }
      ],
      "name": "hasRole",
      "outputs": [
        {
          "internalType": "bool",
          "name": "",
          "type": "bool"
        }
      ],
      "stateMutability": "view",
      "type": "function"
    },
    {
      "inputs": [
        {
          "internalType": "address",
          "name": "_GlobalDAO",
          "type": "address"
        },
        {
          "internalType": "uint256",
          "name": "_LIMIT_NFT_SUBNETS",
          "type": "uint256"
        },
        {
          "internalType": "uint256",
          "name": "_MIN_TIME_FUNDS",
          "type": "uint256"
        },
        {
          "internalType": "contract IRegistration",
          "name": "_RegistrationContract",
          "type": "address"
        },
        {
          "internalType": "contract IERC721",
          "name": "_ApplicationNFT",
          "type": "address"
        },
        {
          "internalType": "contract ISubscriptionBalance",
          "name": "_SubscriptionBalance",
          "type": "address"
        },
        {
          "internalType": "contract IERC20Upgradeable",
          "name": "_XCT",
          "type": "address"
        },
        {
          "internalType": "uint256",
          "name": "_REQD_NOTICE_TIME_S_PROVIDER",
          "type": "uint256"
        },
        {
          "internalType": "uint256",
          "name": "_REQD_COOLDOWN_S_PROVIDER",
          "type": "uint256"
        }
      ],
      "name": "initialize",
      "outputs": [],
      "stateMutability": "nonpayable",
      "type": "function"
    },
    {
      "inputs": [],
      "name": "paused",
      "outputs": [
        {
          "internalType": "bool",
          "name": "",
          "type": "bool"
        }
      ],
      "stateMutability": "view",
      "type": "function"
    },
    {
      "inputs": [
        {
          "internalType": "uint256",
          "name": "_nftId",
          "type": "uint256"
        },
        {
          "internalType": "uint256",
          "name": "_subnetId",
          "type": "uint256"
        }
      ],
      "name": "r_licenseFee",
      "outputs": [
        {
          "internalType": "uint256",
          "name": "",
          "type": "uint256"
        }
      ],
      "stateMutability": "view",
      "type": "function"
    },
    {
      "inputs": [
        {
          "internalType": "bytes32",
          "name": "role",
          "type": "bytes32"
        },
        {
          "internalType": "address",
          "name": "account",
          "type": "address"
        }
      ],
      "name": "renounceRole",
      "outputs": [],
      "stateMutability": "nonpayable",
      "type": "function"
    },
    {
      "inputs": [
        {
          "internalType": "uint256",
          "name": "",
          "type": "uint256"
        },
        {
          "internalType": "uint256",
          "name": "",
          "type": "uint256"
        }
      ],
      "name": "requestPriceChange",
      "outputs": [
        {
          "internalType": "uint256",
          "name": "timestamp",
          "type": "uint256"
        },
        {
          "internalType": "string",
          "name": "serviceProviderAddress",
          "type": "string"
        },
        {
          "internalType": "uint256",
          "name": "lastPriceChange",
          "type": "uint256"
        }
      ],
      "stateMutability": "view",
      "type": "function"
    },
    {
      "inputs": [
        {
          "internalType": "uint256",
          "name": "_nftId",
          "type": "uint256"
        },
        {
          "internalType": "uint256",
          "name": "_subnetId",
          "type": "uint256"
        },
        {
          "internalType": "string",
          "name": "_newServiceProvider",
          "type": "string"
        }
      ],
      "name": "requestServiceProviderChange",
      "outputs": [],
      "stateMutability": "nonpayable",
      "type": "function"
    },
    {
      "inputs": [
        {
          "internalType": "bytes32",
          "name": "role",
          "type": "bytes32"
        },
        {
          "internalType": "address",
          "name": "account",
          "type": "address"
        }
      ],
      "name": "revokeRole",
      "outputs": [],
      "stateMutability": "nonpayable",
      "type": "function"
    },
    {
      "inputs": [
        {
          "internalType": "uint256",
          "name": "_balanceToAdd",
          "type": "uint256"
        },
        {
          "internalType": "uint256[]",
          "name": "subnetId",
          "type": "uint256[]"
        },
        {
          "internalType": "string[]",
          "name": "_serviceProviderAddress",
          "type": "string[]"
        },
        {
          "internalType": "address[]",
          "name": "_referralAddress",
          "type": "address[]"
        },
        {
          "internalType": "uint256[]",
          "name": "_licenseFee",
          "type": "uint256[]"
        },
        {
          "internalType": "uint256[][]",
          "name": "computeRequired",
          "type": "uint256[][]"
        }
      ],
      "name": "subscribeBatchNew",
      "outputs": [
        {
          "internalType": "uint256",
          "name": "NFTid",
          "type": "uint256"
        }
      ],
      "stateMutability": "nonpayable",
      "type": "function"
    },
    {
      "inputs": [
        {
          "internalType": "uint256",
          "name": "_nftId",
          "type": "uint256"
        },
        {
          "internalType": "uint256[]",
          "name": "subnetId",
          "type": "uint256[]"
        },
        {
          "internalType": "string[]",
          "name": "_serviceProviderAddress",
          "type": "string[]"
        },
        {
          "internalType": "address[]",
          "name": "_referralAddress",
          "type": "address[]"
        },
        {
          "internalType": "uint256[]",
          "name": "_licenseFee",
          "type": "uint256[]"
        },
        {
          "internalType": "uint256[][]",
          "name": "computeRequired",
          "type": "uint256[][]"
        }
      ],
      "name": "subscribeBatchToExistingNFT",
      "outputs": [],
      "stateMutability": "nonpayable",
      "type": "function"
    },
    {
      "inputs": [
        {
          "internalType": "uint256",
          "name": "_balanceToAdd",
          "type": "uint256"
        },
        {
          "internalType": "uint256",
          "name": "subnetId",
          "type": "uint256"
        },
        {
          "internalType": "string",
          "name": "_serviceProviderAddress",
          "type": "string"
        },
        {
          "internalType": "address",
          "name": "_referralAddress",
          "type": "address"
        },
        {
          "internalType": "uint256",
          "name": "_licenseFee",
          "type": "uint256"
        },
        {
          "internalType": "uint256[]",
          "name": "_computeRequired",
          "type": "uint256[]"
        }
      ],
      "name": "subscribeNew",
      "outputs": [
        {
          "internalType": "uint256",
          "name": "",
          "type": "uint256"
        }
      ],
      "stateMutability": "nonpayable",
      "type": "function"
    },
    {
      "inputs": [
        {
          "internalType": "uint256",
          "name": "_nftId",
          "type": "uint256"
        },
        {
          "internalType": "uint256",
          "name": "_subnetId",
          "type": "uint256"
        },
        {
          "internalType": "string",
          "name": "_serviceProviderAddress",
          "type": "string"
        },
        {
          "internalType": "address",
          "name": "_referralAddress",
          "type": "address"
        },
        {
          "internalType": "uint256",
          "name": "_licenseFee",
          "type": "uint256"
        },
        {
          "internalType": "uint256[]",
          "name": "_computeRequired",
          "type": "uint256[]"
        }
      ],
      "name": "subscribeToExistingNFT",
      "outputs": [],
      "stateMutability": "nonpayable",
      "type": "function"
    },
    {
      "inputs": [
        {
          "internalType": "uint256",
          "name": "",
          "type": "uint256"
        },
        {
          "internalType": "uint256",
          "name": "",
          "type": "uint256"
        }
      ],
      "name": "subscribedSubnetsOfNFT",
      "outputs": [
        {
          "internalType": "uint256",
          "name": "",
          "type": "uint256"
        }
      ],
      "stateMutability": "view",
      "type": "function"
    },
    {
      "inputs": [
        {
          "internalType": "bytes4",
          "name": "interfaceId",
          "type": "bytes4"
        }
      ],
      "name": "supportsInterface",
      "outputs": [
        {
          "internalType": "bool",
          "name": "",
          "type": "bool"
        }
      ],
      "stateMutability": "view",
      "type": "function"
    },
    {
      "inputs": [
        {
          "internalType": "uint256",
          "name": "",
          "type": "uint256"
        },
        {
          "internalType": "uint256",
          "name": "",
          "type": "uint256"
        }
      ],
      "name": "unsubscribedSubnetsOfNFT",
      "outputs": [
        {
          "internalType": "uint256",
          "name": "",
          "type": "uint256"
        }
      ],
      "stateMutability": "view",
      "type": "function"
    },
    {
      "inputs": [
        {
          "internalType": "uint256",
          "name": "",
          "type": "uint256"
        },
        {
          "internalType": "uint256",
          "name": "",
          "type": "uint256"
        }
      ],
      "name": "userSubscription",
      "outputs": [
        {
          "internalType": "string",
          "name": "serviceProviderAddress",
          "type": "string"
        },
        {
          "internalType": "address",
          "name": "referralAddress",
          "type": "address"
        },
        {
          "internalType": "uint256",
          "name": "r_licenseFee",
          "type": "uint256"
        },
        {
          "internalType": "bool",
          "name": "subscribed",
          "type": "bool"
        }
      ],
      "stateMutability": "view",
      "type": "function"
    }
  ],
  "bytecode": "0x608060405234801561001057600080fd5b50613a04806100206000396000f3fe608060405234801561001057600080fd5b50600436106102745760003560e01c80639bda6a9e11610151578063cbfafbda116100c3578063dd8ba3f011610087578063dd8ba3f01461060e578063dfe4551014610617578063ec41497614610630578063f7a249ab14610643578063f8f4724f14610656578063fdffffff1461066957610274565b8063cbfafbda146105b9578063d547741f146105cc578063d5cb22c9146105df578063d652d8a0146105e8578063d9f64005146105fb57610274565b8063b1f107e211610115578063b1f107e214610547578063b5a7383914610550578063b5f608e814610563578063b621f5b71461056c578063be78d8b61461057f578063c73f22e6146105a657610274565b80639bda6a9e146104c45780639ca8b426146104d7578063a217fddf146104fe578063a8440fe214610506578063abb4b9cd1461053457610274565b806343915cd0116101ea5780637b6f7873116101ae5780637b6f78731461041f5780637bf654f21461044157806383f59ac614610454578063847db51f1461046757806391d148541461047a5780639704576a1461048d57610274565b806343915cd0146103a057806345c37cd4146103b35780634bed67ff146103de5780635c975abb146103f15780637584c82f146103fc57610274565b8063203181c91161023c578063203181c91461031157806323d7d28614610324578063248a9ca3146103375780632f2ff15d1461035a57806336568abe1461036d578063436254d61461038057610274565b806301ffc9a71461027957806309cfddb2146102a15780630d47e245146102c2578063110bb8cd146102d55780631386387a146102ea575b600080fd5b61028c610287366004613074565b61067c565b60405190151581526020015b60405180910390f35b6102b46102af3660046130ef565b6106b5565b604051908152602001610298565b6102b46102d0366004613394565b61093d565b6102e86102e336600461327c565b610c3e565b005b6102b47f86c262939a9533c4628ccc11f9decb407b7c04ffc9311f0c60d1f23d7d790db781565b6102e861031f36600461329d565b610e56565b6102e8610332366004613323565b611003565b6102b461034536600461302d565b60009081526065602052604090206001015490565b6102e8610368366004613045565b61109f565b6102e861037b366004613045565b6110c9565b61039361038e36600461327c565b611147565b604051610298919061358d565b6102e86103ae36600461302d565b6111b5565b60ca546103c6906001600160a01b031681565b6040516001600160a01b039091168152602001610298565b60cc546103c6906001600160a01b031681565b60975460ff1661028c565b61040f61040a36600461327c565b611202565b60405161029894939291906135b3565b61043261042d36600461327c565b6112cc565b60405161029893929190613702565b6102e861044f3660046132d5565b611382565b60cd546103c6906001600160a01b031681565b6102b461047536600461327c565b6114af565b61028c610488366004613045565b6114e0565b6103c661049b36600461327c565b600091825260ce602090815260408084209284529190529020600101546001600160a01b031690565b6102e86104d2366004613350565b61150b565b6102b47f3accb7525e36f7c8113757659b4e6f25deb99f23daf336bf7c35736aae7bcd9d81565b6102b4600081565b6102b461051436600461327c565b600091825260ce6020908152604080842092845291905290206002015490565b60c9546103c6906001600160a01b031681565b6102b460d25481565b6102b461055e36600461327c565b61175c565b6102b460d45481565b6102e861057a366004612f42565b611778565b6102b47fd9613b558e6880459584712b99553db97ae396352f0a26bac1ecdfdff9a4898381565b6102e86105b4366004613418565b6117a6565b6102e86105c736600461302d565b611bea565b6102e86105da366004613045565b611c37565b6102b460d15481565b6102e86105f6366004612f7a565b611c5c565b6102e861060936600461302d565b611e50565b6102b460d35481565b6102b461062536600461309c565b805160209091012090565b6102e861063e3660046130ef565b611e9d565b60cb546103c6906001600160a01b031681565b6102e861066436600461302d565b611f88565b6102e8610677366004613394565b611fd5565b60006001600160e01b03198216637965db0b60e01b14806106ad57506301ffc9a760e01b6001600160e01b03198316145b90505b919050565b600061078d87876000815181106106dc57634e487b7160e01b600052603260045260246000fd5b60200260200101518760008151811061070557634e487b7160e01b600052603260045260246000fd5b60200260200101518760008151811061072e57634e487b7160e01b600052603260045260246000fd5b60200260200101518760008151811061075757634e487b7160e01b600052603260045260246000fd5b60200260200101518760008151811061078057634e487b7160e01b600052603260045260246000fd5b602002602001015161093d565b905060015b865181101561087e5761086c828883815181106107bf57634e487b7160e01b600052603260045260246000fd5b60200260200101518884815181106107e757634e487b7160e01b600052603260045260246000fd5b602002602001015188858151811061080f57634e487b7160e01b600052603260045260246000fd5b602002602001015188868151811061083757634e487b7160e01b600052603260045260246000fd5b602002602001015188878151811061085f57634e487b7160e01b600052603260045260246000fd5b6020026020010151611fd5565b8061087681613964565b915050610792565b5060d25460cb5460405163536aeb8160e11b815260048101849052899261090d9290916001600160a01b039091169063a6d5d702906024015b60206040518083038186803b1580156108cf57600080fd5b505afa1580156108e3573d6000803e3d6000fd5b505050506040513d601f19601f8201168201806040525081019061090791906130d7565b90612201565b106109335760405162461bcd60e51b815260040161092a90613665565b60405180910390fd5b9695505050505050565b600061094b60975460ff1690565b156109685760405162461bcd60e51b815260040161092a906135ed565b60006109fb600160ca60009054906101000a90046001600160a01b03166001600160a01b031663561892366040518163ffffffff1660e01b815260040160206040518083038186803b1580156109bd57600080fd5b505afa1580156109d1573d6000803e3d6000fd5b505050506040513d601f19601f820116820180604052508101906109f591906130d7565b90612214565b60ca549091506001600160a01b0316636a627842336040516001600160e01b031960e084901b1681526001600160a01b039091166004820152602401602060405180830381600087803b158015610a5157600080fd5b505af1158015610a65573d6000803e3d6000fd5b505050506040513d601f19601f82011682018060405250810190610a8991906130d7565b5060cc546001600160a01b03166323b872dd336040516001600160e01b031960e084901b1681526001600160a01b039091166004820152306024820152604481018b9052606401602060405180830381600087803b158015610aea57600080fd5b505af1158015610afe573d6000803e3d6000fd5b505050506040513d601f19601f82011682018060405250810190610b229190613011565b50610b31818888888888612220565b60cb546001600160a01b03166394f6340c828a8a336040516001600160e01b031960e087901b1681526004810194909452602484019290925260448301526001600160a01b03166064820152608401602060405180830381600087803b158015610b9a57600080fd5b505af1158015610bae573d6000803e3d6000fd5b505050506040513d601f19601f82011682018060405250810190610bd29190613011565b5060d25460cb5460405163199030c960e11b815260048101849052602481018a90528a92610c169290916001600160a01b03909116906333206192906044016108b7565b10610c335760405162461bcd60e51b815260040161092a90613665565b979650505050505050565b6040805160208082018352600080835285815260d58252838120858252909152829020915190917fc5d2460186f7233c927e7db2dcc703c0e500b653ca82273b7bfad8045d85a47091610c9491600101906134a9565b60405180910390201415610d025760405162461bcd60e51b815260206004820152602f60248201527f4e6f207265717565737420666f7220736572766963652070726f76696465722060448201526e18da185b99d948191bdb99481e595d608a1b606482015260840161092a565b60d454600084815260d5602090815260408083208684529091529020544291610d2b9190612214565b10610d785760405162461bcd60e51b815260206004820152601c60248201527f43616e6e6f74206170706c79206265666f726520636f6f6c646f776e00000000604482015260640161092a565b600083815260d560209081526040808320858452825280832042600282015586845260ce835281842086855290925290912060019091018054610dba90613929565b610dc5929190612b77565b50604080516020808201808452600080845287815260d583528481208782529092529290209051610dfc9260019092019190612c02565b50600083815260ce602090815260408083208584529091529081902090517f18ea9894f61e99766c715362e69b478c1e4b6d999d935a1a9e513b5a55e2fd3b91610e4991869186916137c6565b60405180910390a1505050565b600083815260ce602090815260408083208584529091529020600101546001600160a01b031615610eb75760405162461bcd60e51b815260206004820152600b60248201526a105b1c9958591e481cd95d60aa1b604482015260640161092a565b3360ca546040516331a9108f60e11b8152600481018690526001600160a01b039283169290911690636352211e9060240160206040518083038186803b158015610f0057600080fd5b505afa158015610f14573d6000803e3d6000fd5b505050506040513d601f19601f82011682018060405250810190610f389190612f5e565b6001600160a01b031614610f8e5760405162461bcd60e51b815260206004820152601e60248201527f53656e646572206e6f7420746865206f776e6572206f66204e46542069640000604482015260640161092a565b600083815260ce6020908152604080832085845282529182902060010180546001600160a01b0319166001600160a01b0385169081179091558251868152918201859052918101919091527f5878ac48f3058583ef4c6d4eb2cc2fdbe3fad465b25bb2216a7d0396e0a88b7590606001610e49565b7fd9613b558e6880459584712b99553db97ae396352f0a26bac1ecdfdff9a4898361102d81612756565b600084815260ce60209081526040808320868452825291829020600401805460ff19168515159081179091558251878152918201869052918101919091527ffd4b8cdb9614e2ca61f7c1e9963f9b7c7ca87ef19d849c143799f98f0fcb6770906060015b60405180910390a150505050565b6000828152606560205260409020600101546110ba81612756565b6110c48383612763565b505050565b6001600160a01b03811633146111395760405162461bcd60e51b815260206004820152602f60248201527f416363657373436f6e74726f6c3a2063616e206f6e6c792072656e6f756e636560448201526e103937b632b9903337b91039b2b63360891b606482015260840161092a565b61114382826127e9565b5050565b600082815260ce602090815260408083208484528252918290206003018054835181840281018401909452808452606093928301828280156111a857602002820191906000526020600020905b815481526020019060010190808311611194575b5050505050905092915050565b60006111c081612756565b60d45460408051918252602082018490527fc5e14df5fc337a990601fe0ce9170d1666340710bae7daf71491634ab38a58dc910160405180910390a15060d455565b60ce60209081526000928352604080842090915290825290208054819061122890613929565b80601f016020809104026020016040519081016040528092919081815260200182805461125490613929565b80156112a15780601f10611276576101008083540402835291602001916112a1565b820191906000526020600020905b81548152906001019060200180831161128457829003601f168201915b505050506001830154600284015460049094015492936001600160a01b039091169290915060ff1684565b60d5602090815260009283526040808420909152908252902080546001820180549192916112f990613929565b80601f016020809104026020016040519081016040528092919081815260200182805461132590613929565b80156113725780601f1061134757610100808354040283529160200191611372565b820191906000526020600020905b81548152906001019060200180831161135557829003601f168201915b5050505050908060020154905083565b7f3accb7525e36f7c8113757659b4e6f25deb99f23daf336bf7c35736aae7bcd9d6113ac81612756565b60975460ff16156113cf5760405162461bcd60e51b815260040161092a906135ed565b600084815260ce60209081526040808320868452825290912083516113fc92600390920191850190612c76565b5060cb54604051635a73b33b60e11b8152600481018690526001600160a01b039091169063b4e7667690602401602060405180830381600087803b15801561144357600080fd5b505af1158015611457573d6000803e3d6000fd5b505050506040513d601f19601f8201168201806040525081019061147b9190613011565b507f35691e4ea17a41d9b9c14fabfbac351eabf4a86083b510347f5710ce6ebf06e68484846040516110919392919061372b565b60cf60205281600052604060002081815481106114cb57600080fd5b90600052602060002001600091509150505481565b60009182526065602090815260408084206001600160a01b0393909316845291905290205460ff1690565b3360ca546040516331a9108f60e11b8152600481018690526001600160a01b039283169290911690636352211e9060240160206040518083038186803b15801561155457600080fd5b505afa158015611568573d6000803e3d6000fd5b505050506040513d601f19601f8201168201806040525081019061158c9190612f5e565b6001600160a01b0316146115dc5760405162461bcd60e51b8152602060048201526017602482015276139bdd081d1a19481bdddb995c881bd988139195081a59604a1b604482015260640161092a565b600083815260ce6020908152604080832085845290915290206004015460ff1661165a5760405162461bcd60e51b815260206004820152602960248201527f5f7375626e65744964206973206e6f74207375627363726962656420627920756044820152681cd95c89dcc813919560ba1b606482015260840161092a565b60d354600084815260d56020908152604080832086845290915290206002015442916116869190612214565b106116f95760405162461bcd60e51b815260206004820152603860248201527f43616e6e6f742072657175657374206265666f726520524551445f4e4f54494360448201527f455f54494d455f535f50524f5649444552207061737365640000000000000000606482015260840161092a565b600083815260d5602090815260408083208584528252909120428155825161172992600190920191840190612c02565b507e0858c198563c0aa886be91504eeb8007e0be28541c36be5d1ace93f3eebbfd838383604051610e4993929190613753565b60d060205281600052604060002081815481106114cb57600080fd5b600061178381612756565b5060cd80546001600160a01b0319166001600160a01b0392909216919091179055565b60975460ff16156117c95760405162461bcd60e51b815260040161092a906135ed565b60c9546040516373d97f3960e01b8152600481018490526000916001600160a01b0316906373d97f399060240160006040518083038186803b15801561180e57600080fd5b505afa158015611822573d6000803e3d6000fd5b505050506040513d6000823e601f3d908101601f1916820160405261184a91908101906131c3565b50505050509350505050806118be5760405162461bcd60e51b815260206004820152603460248201527f43616e6e6f74206368616e676520737562736372697074696f6e206966207375604482015273189b995d081a5cc81b9bdd0819195b1a5cdd195960621b606482015260840161092a565b3360ca546040516331a9108f60e11b8152600481018790526001600160a01b039283169290911690636352211e9060240160206040518083038186803b15801561190757600080fd5b505afa15801561191b573d6000803e3d6000fd5b505050506040513d601f19601f8201168201806040525081019061193f9190612f5e565b6001600160a01b03161461198f5760405162461bcd60e51b8152602060048201526017602482015276139bdd081d1a19481bdddb995c881bd988139195081a59604a1b604482015260640161092a565b600084815260ce6020908152604080832086845290915290206004015460ff16611a0e5760405162461bcd60e51b815260206004820152602a60248201527f5f63757272656e745375626e65744964206973206e6f7420737562736372696260448201526932b210313c903ab9b2b960b11b606482015260840161092a565b600084815260ce6020908152604080832085845290915280822060048101805460ff19166001179055858352908220918490528154909190611a4f90613929565b611a5a929190612b77565b50600084815260ce602090815260408083208684529091528082206001808201548685529290932092830180546001600160a01b0319166001600160a01b03909316929092179091556002808201549083015560039081018054611ac2939290920191612cb0565b50600084815260ce6020908152604080832086845282528083206004908101805460ff1916905587845260d083528184208054600181810183559186528486200188905588855260cf84528285208054918201815585529290932090910184905560cb549051636d6ecc4d60e11b815291820186905260248201859052604482018490526001600160a01b03169063dadd989a90606401602060405180830381600087803b158015611b7357600080fd5b505af1158015611b87573d6000803e3d6000fd5b505050506040513d601f19601f82011682018060405250810190611bab9190613011565b5060408051858152602081018590529081018390527f53404332d7fbbd680064ad6f3fa2e5a1c6737c9c3206cf95918a31755c7918b790606001611091565b6000611bf581612756565b60d15460408051918252602082018490527f54fe1a6d60ea8cebf2cb1d7889eb5b27dd95abe955e06eed2cae5540a54b4bf2910160405180910390a15060d155565b600082815260656020526040902060010154611c5281612756565b6110c483836127e9565b6000611c686001612850565b90508015611c80576000805461ff0019166101001790555b611c886128d5565b611c906128fe565b611c9b60008b612763565b611cc57f3accb7525e36f7c8113757659b4e6f25deb99f23daf336bf7c35736aae7bcd9d8b612763565b611cef7f86c262939a9533c4628ccc11f9decb407b7c04ffc9311f0c60d1f23d7d790db78b612763565b611d197fd9613b558e6880459584712b99553db97ae396352f0a26bac1ecdfdff9a489838b612763565b60cd80546001600160a01b038c81166001600160a01b03199283161790925560d18b905560d28a905560c980548a841690831617905560ca805489841690831617905560cb8054888416908316811790915560cc805493881693909216831790915560d385905560d484905560405163095ea7b360e01b81526004810191909152600019602482015263095ea7b390604401602060405180830381600087803b158015611dc557600080fd5b505af1158015611dd9573d6000803e3d6000fd5b505050506040513d601f19601f82011682018060405250810190611dfd9190613011565b508015611e44576000805461ff0019169055604051600181527f7f26b83ff96e1f2b6a682f133852f6798a09c465da95921460cefb38474024989060200160405180910390a15b50505050505050505050565b6000611e5b81612756565b60d35460408051918252602082018490527f880c74d681b789e90ecfbf24398fc73843a046f74a0f6ffe22a0fcc0d214a771910160405180910390a15060d355565b60005b8551811015611f7f57611f6d87878381518110611ecd57634e487b7160e01b600052603260045260246000fd5b6020026020010151878481518110611ef557634e487b7160e01b600052603260045260246000fd5b6020026020010151878581518110611f1d57634e487b7160e01b600052603260045260246000fd5b6020026020010151878681518110611f4557634e487b7160e01b600052603260045260246000fd5b602002602001015187878151811061085f57634e487b7160e01b600052603260045260246000fd5b80611f7781613964565b915050611ea0565b50505050505050565b6000611f9381612756565b60d25460408051918252602082018490527f7c687d0697c66d5104a1421b7d823a0818020aeacac7371785314a404d9a2ee2910160405180910390a15060d255565b60975460ff1615611ff85760405162461bcd60e51b815260040161092a906135ed565b60cb546040516388d6c80560e01b8152600481018890526001600160a01b03909116906388d6c80590602401602060405180830381600087803b15801561203e57600080fd5b505af1158015612052573d6000803e3d6000fd5b505050506040513d601f19601f820116820180604052508101906120769190613011565b5060cb5460405163577b97d960e11b8152600481018890526001600160a01b039091169063aef72fb29060240160206040518083038186803b1580156120bb57600080fd5b505afa1580156120cf573d6000803e3d6000fd5b505050506040513d601f19601f820116820180604052508101906120f39190613011565b6121655760405162461bcd60e51b815260206004820152603860248201527f42616c616e636520666f72204e4654206964203d20302c20736f2063616e6e6f60448201527f7420737562736372696265206d6f7265207375626e6574730000000000000000606482015260840161092a565b60cb5460405163c6d1900360e01b815260048101889052602481018790526001600160a01b039091169063c6d1900390604401602060405180830381600087803b1580156121b257600080fd5b505af11580156121c6573d6000803e3d6000fd5b505050506040513d601f19601f820116820180604052508101906121ea9190613011565b506121f9868686868686612220565b505050505050565b600061220d82846138c3565b9392505050565b600061220d82846138ab565b600086815260cf6020908152604080832080546001810182559084528284200188905588835260ce825280832088845290915290206004015460ff161561229e5760405162461bcd60e51b8152602060048201526012602482015271105b1c9958591e481cdd589cd8dc9a58995960721b604482015260640161092a565b60c95460408051631456ce2b60e31b8152905187926001600160a01b03169163a2b67158916004808301926020929190829003018186803b1580156122e257600080fd5b505afa1580156122f6573d6000803e3d6000fd5b505050506040513d601f19601f8201168201806040525081019061231a91906130d7565b1161237d5760405162461bcd60e51b815260206004820152602d60248201527f5f7375626e6574496420646f6e6f7420657869737420696e205265676973747260448201526c185d1a5bdb90dbdb9d1c9858dd609a1b606482015260840161092a565b60c9546040516373d97f3960e01b8152600481018790526000916001600160a01b0316906373d97f399060240160006040518083038186803b1580156123c257600080fd5b505afa1580156123d6573d6000803e3d6000fd5b505050506040513d6000823e601f3d908101601f191682016040526123fe91908101906131c3565b505050505093505050508061248b5760405162461bcd60e51b815260206004820152604760248201527f526567697374726174696f6e436f6e74726163743a207375626e65742069732060448201527f64656c697374656420616e642068656e63652063616e6e6f74206265207375626064820152661cd8dc9a58995960ca1b608482015260a40161092a565b60d15460cb54604051632df2d0b960e21b8152600481018a90526001600160a01b039091169063b7cb42e49060240160206040518083038186803b1580156124d257600080fd5b505afa1580156124e6573d6000803e3d6000fd5b505050506040513d601f19601f8201168201806040525081019061250a91906130d7565b11156125935760405162461bcd60e51b815260206004820152604c60248201527f43616e6e6f7420737562736372696265206173206c696d69742065786365656460448201527f7320746f206d6178205375626e657420737562736372697074696f6e20616c6c60648201526b1bddd959081c195c8813919560a21b608482015260a40161092a565b3360ca546040516331a9108f60e11b8152600481018a90526001600160a01b039283169290911690636352211e9060240160206040518083038186803b1580156125dc57600080fd5b505afa1580156125f0573d6000803e3d6000fd5b505050506040513d601f19601f820116820180604052508101906126149190612f5e565b6001600160a01b03161461266a5760405162461bcd60e51b815260206004820152601e60248201527f53656e646572206e6f7420746865206f776e6572206f66204e46542069640000604482015260640161092a565b600087815260ce602090815260408083208984528252909120865161269192880190612c02565b50600087815260ce6020908152604080832089845282529091206001810180546001600160a01b0319166001600160a01b0388161790556002810185905583516126e392600390920191850190612c76565b50600087815260ce6020908152604080832089845290915290819020600401805460ff19166001179055517fd8a8eccd539765905df336ff4c3dea59261278d3c359ccf40f1dddd1fa2a5a829061274590899089908990899089908990613772565b60405180910390a150505050505050565b6127608133612931565b50565b61276d82826114e0565b6111435760008281526065602090815260408083206001600160a01b03851684529091529020805460ff191660011790556127a53390565b6001600160a01b0316816001600160a01b0316837f2f8788117e7eff1d82e926ec794901d17c78024a50270940304540a733656f0d60405160405180910390a45050565b6127f382826114e0565b156111435760008281526065602090815260408083206001600160a01b0385168085529252808320805460ff1916905551339285917ff6391f5c32d9c69d2a47ea670b442974b53935d1edc7fd64eb21e047a839171b9190a45050565b60008054610100900460ff1615612897578160ff1660011480156128735750303b155b61288f5760405162461bcd60e51b815260040161092a90613617565b5060006106b0565b60005460ff8084169116106128be5760405162461bcd60e51b815260040161092a90613617565b506000805460ff191660ff831617905560016106b0565b600054610100900460ff166128fc5760405162461bcd60e51b815260040161092a906136b7565b565b600054610100900460ff166129255760405162461bcd60e51b815260040161092a906136b7565b6097805460ff19169055565b61293b82826114e0565b61114357612953816001600160a01b03166014612995565b61295e836020612995565b60405160200161296f929190613518565b60408051601f198184030181529082905262461bcd60e51b825261092a916004016135a0565b606060006129a48360026138c3565b6129af9060026138ab565b67ffffffffffffffff8111156129d557634e487b7160e01b600052604160045260246000fd5b6040519080825280601f01601f1916602001820160405280156129ff576020820181803683370190505b509050600360fc1b81600081518110612a2857634e487b7160e01b600052603260045260246000fd5b60200101906001600160f81b031916908160001a905350600f60fb1b81600181518110612a6557634e487b7160e01b600052603260045260246000fd5b60200101906001600160f81b031916908160001a9053506000612a898460026138c3565b612a949060016138ab565b90505b6001811115612b28576f181899199a1a9b1b9c1cb0b131b232b360811b85600f1660108110612ad657634e487b7160e01b600052603260045260246000fd5b1a60f81b828281518110612afa57634e487b7160e01b600052603260045260246000fd5b60200101906001600160f81b031916908160001a90535060049490941c93612b2181613912565b9050612a97565b50831561220d5760405162461bcd60e51b815260206004820181905260248201527f537472696e67733a20686578206c656e67746820696e73756666696369656e74604482015260640161092a565b828054612b8390613929565b90600052602060002090601f016020900481019282612ba55760008555612bf2565b82601f10612bb65780548555612bf2565b82800160010185558215612bf257600052602060002091601f016020900482015b82811115612bf2578254825591600101919060010190612bd7565b50612bfe929150612cef565b5090565b828054612c0e90613929565b90600052602060002090601f016020900481019282612c305760008555612bf2565b82601f10612c4957805160ff1916838001178555612bf2565b82800160010185558215612bf2579182015b82811115612bf2578251825591602001919060010190612c5b565b828054828255906000526020600020908101928215612bf25791602002820182811115612bf2578251825591602001919060010190612c5b565b828054828255906000526020600020908101928215612bf257600052602060002091820182811115612bf2578254825591600101919060010190612bd7565b5b80821115612bfe5760008155600101612cf0565b600082601f830112612d14578081fd5b81356020612d29612d2483613887565b613856565b8281528181019085830183850287018401881015612d45578586fd5b855b85811015612d6c578135612d5a816139ab565b84529284019290840190600101612d47565b5090979650505050505050565b600082601f830112612d89578081fd5b81356020612d99612d2483613887565b82815281810190858301855b85811015612d6c57612dbc898684358b0101612e23565b84529284019290840190600101612da5565b600082601f830112612dde578081fd5b81356020612dee612d2483613887565b82815281810190858301855b85811015612d6c57612e11898684358b0101612ed7565b84529284019290840190600101612dfa565b600082601f830112612e33578081fd5b81356020612e43612d2483613887565b8281528181019085830183850287018401881015612e5f578586fd5b855b85811015612d6c57813584529284019290840190600101612e61565b600082601f830112612e8d578081fd5b81516020612e9d612d2483613887565b8281528181019085830183850287018401881015612eb9578586fd5b855b85811015612d6c57815184529284019290840190600101612ebb565b600082601f830112612ee7578081fd5b813567ffffffffffffffff811115612f0157612f01613995565b612f14601f8201601f1916602001613856565b818152846020838601011115612f28578283fd5b816020850160208301379081016020019190915292915050565b600060208284031215612f53578081fd5b813561220d816139ab565b600060208284031215612f6f578081fd5b815161220d816139ab565b60008060008060008060008060006101208a8c031215612f98578485fd5b8935612fa3816139ab565b985060208a0135975060408a0135965060608a0135612fc1816139ab565b955060808a0135612fd1816139ab565b945060a08a0135612fe1816139ab565b935060c08a0135612ff1816139ab565b8093505060e08a013591506101008a013590509295985092959850929598565b600060208284031215613022578081fd5b815161220d816139c0565b60006020828403121561303e578081fd5b5035919050565b60008060408385031215613057578182fd5b823591506020830135613069816139ab565b809150509250929050565b600060208284031215613085578081fd5b81356001600160e01b03198116811461220d578182fd5b6000602082840312156130ad578081fd5b813567ffffffffffffffff8111156130c3578182fd5b6130cf84828501612ed7565b949350505050565b6000602082840312156130e8578081fd5b5051919050565b60008060008060008060c08789031215613107578384fd5b86359550602087013567ffffffffffffffff80821115613125578586fd5b6131318a838b01612e23565b96506040890135915080821115613146578586fd5b6131528a838b01612dce565b95506060890135915080821115613167578384fd5b6131738a838b01612d04565b94506080890135915080821115613188578384fd5b6131948a838b01612e23565b935060a08901359150808211156131a9578283fd5b506131b689828a01612d79565b9150509295509295509295565b60008060008060008060008060006101208a8c0312156131e1578283fd5b8951985060208a01516131f3816139c0565b60408b015160608c0151919950975061320b816139c0565b60808b015190965067ffffffffffffffff80821115613228578485fd5b6132348d838e01612e7d565b965060a08c0151915080821115613249578485fd5b506132568c828d01612e7d565b94505060c08a0151925060e08a015191506101008a015190509295985092959850929598565b6000806040838503121561328e578182fd5b50508035926020909101359150565b6000806000606084860312156132b1578081fd5b833592506020840135915060408401356132ca816139ab565b809150509250925092565b6000806000606084860312156132e9578081fd5b8335925060208401359150604084013567ffffffffffffffff81111561330d578182fd5b61331986828701612e23565b9150509250925092565b600080600060608486031215613337578081fd5b833592506020840135915060408401356132ca816139c0565b600080600060608486031215613364578081fd5b8335925060208401359150604084013567ffffffffffffffff811115613388578182fd5b61331986828701612ed7565b60008060008060008060c087890312156133ac578384fd5b8635955060208701359450604087013567ffffffffffffffff808211156133d1578586fd5b6133dd8a838b01612ed7565b9550606089013591506133ef826139ab565b9093506080880135925060a0880135908082111561340b578283fd5b506131b689828a01612e23565b60008060006060848603121561342c578081fd5b505081359360208301359350604090920135919050565b6000815180845260208085019450808401835b8381101561347257815187529582019590820190600101613456565b509495945050505050565b600081518084526134958160208601602086016138e2565b601f01601f19169290920160200192915050565b60008083546134b781613929565b600182811680156134cf57600181146134e05761350c565b60ff1984168752828701945061350c565b8786526020808720875b858110156135035781548a8201529084019082016134ea565b50505082870194505b50929695505050505050565b60007f416363657373436f6e74726f6c3a206163636f756e7420000000000000000000825283516135508160178501602088016138e2565b7001034b99036b4b9b9b4b733903937b6329607d1b60179184019182015283516135818160288401602088016138e2565b01602801949350505050565b60006020825261220d6020830184613443565b60006020825261220d602083018461347d565b6000608082526135c6608083018761347d565b6001600160a01b039590951660208301525060408101929092521515606090910152919050565b60208082526010908201526f14185d5cd8589b194e881c185d5cd95960821b604082015260600190565b6020808252602e908201527f496e697469616c697a61626c653a20636f6e747261637420697320616c72656160408201526d191e481a5b9a5d1a585b1a5e995960921b606082015260800190565b60208082526032908201527f42616c616e63652061646465642073686f756c6420626520656e6f7567682077604082015271697468204d494e5f54494d455f46554e445360701b606082015260800190565b6020808252602b908201527f496e697469616c697a61626c653a20636f6e7472616374206973206e6f74206960408201526a6e697469616c697a696e6760a81b606082015260800190565b60008482526060602083015261371b606083018561347d565b9050826040830152949350505050565b60008482528360208301526060604083015261374a6060830184613443565b95945050505050565b60008482528360208301526060604083015261374a606083018461347d565b600087825286602083015260c0604083015261379160c083018761347d565b6001600160a01b03861660608401526080830185905282810360a08401526137b98185613443565b9998505050505050505050565b600084825260208481840152606060408401528184546137e581613929565b8060608701526080600180841660008114613807576001811461381b57613846565b60ff1985168984015260a089019550613846565b898852868820885b8581101561383e5781548b8201860152908301908801613823565b8a0184019650505b50939a9950505050505050505050565b604051601f8201601f1916810167ffffffffffffffff8111828210171561387f5761387f613995565b604052919050565b600067ffffffffffffffff8211156138a1576138a1613995565b5060209081020190565b600082198211156138be576138be61397f565b500190565b60008160001904831182151516156138dd576138dd61397f565b500290565b60005b838110156138fd5781810151838201526020016138e5565b8381111561390c576000848401525b50505050565b6000816139215761392161397f565b506000190190565b60028104600182168061393d57607f821691505b6020821081141561395e57634e487b7160e01b600052602260045260246000fd5b50919050565b60006000198214156139785761397861397f565b5060010190565b634e487b7160e01b600052601160045260246000fd5b634e487b7160e01b600052604160045260246000fd5b6001600160a01b038116811461276057600080fd5b801515811461276057600080fdfea26469706673582212204aee227e31f4640ad1ee36803ab854cabb2a8ede4b620804df29122d2fe9e05064736f6c63430008020033",
  "linkReferences": {},
  "deployedLinkReferences": {}
}