{
  "_format": "hh-sol-artifact-1",
  "contractName": "Subscription",
  "sourceName": "contracts/Subscription.sol",
  "abi": [
    {
      "anonymous": false,
      "inputs": [
        {
          "indexed": false,
          "internalType": "uint256",
          "name": "NFTId",
          "type": "uint256"
        },
        {
          "indexed": false,
          "internalType": "uint256",
          "name": "subnetId",
          "type": "uint256"
        },
        {
          "indexed": false,
          "internalType": "string",
          "name": "newServiceProvider",
          "type": "string"
        }
      ],
      "name": "AppliedServiceProviderChange",
      "type": "event"
    },
    {
      "anonymous": false,
      "inputs": [
        {
          "indexed": false,
          "internalType": "uint256",
          "name": "NFTId",
          "type": "uint256"
        },
        {
          "indexed": false,
          "internalType": "uint256",
          "name": "bal",
          "type": "uint256"
        }
      ],
      "name": "BalanceAdded",
      "type": "event"
    },
    {
      "anonymous": false,
      "inputs": [
        {
          "indexed": false,
          "internalType": "uint256",
          "name": "NFTId",
          "type": "uint256"
        },
        {
          "indexed": false,
          "internalType": "uint256",
          "name": "currentSubnetId",
          "type": "uint256"
        },
        {
          "indexed": false,
          "internalType": "uint256",
          "name": "newSubnetId",
          "type": "uint256"
        }
      ],
      "name": "ChangedSubnetSubscription",
      "type": "event"
    },
    {
      "anonymous": false,
      "inputs": [
        {
          "indexed": false,
          "internalType": "uint256",
          "name": "prev_limit",
          "type": "uint256"
        },
        {
          "indexed": false,
          "internalType": "uint256",
          "name": "new_limit",
          "type": "uint256"
        }
      ],
      "name": "Changed_LIMIT_MIN_TIME_FUNDS",
      "type": "event"
    },
    {
      "anonymous": false,
      "inputs": [
        {
          "indexed": false,
          "internalType": "uint256",
          "name": "prev_limit",
          "type": "uint256"
        },
        {
          "indexed": false,
          "internalType": "uint256",
          "name": "new_limit",
          "type": "uint256"
        }
      ],
      "name": "Changed_LIMIT_NFT_SUBNETS",
      "type": "event"
    },
    {
      "anonymous": false,
      "inputs": [
        {
          "indexed": false,
          "internalType": "uint256",
          "name": "prev_limit",
          "type": "uint256"
        },
        {
          "indexed": false,
          "internalType": "uint256",
          "name": "new_limit",
          "type": "uint256"
        }
      ],
      "name": "Changed_REQD_COOLDOWN_S_PROVIDER",
      "type": "event"
    },
    {
      "anonymous": false,
      "inputs": [
        {
          "indexed": false,
          "internalType": "uint256",
          "name": "prev_limit",
          "type": "uint256"
        },
        {
          "indexed": false,
          "internalType": "uint256",
          "name": "new_limit",
          "type": "uint256"
        }
      ],
      "name": "Changed_REQD_NOTICE_TIME_S_PROVIDER",
      "type": "event"
    },
    {
      "anonymous": false,
      "inputs": [
        {
          "indexed": false,
          "internalType": "uint8",
          "name": "version",
          "type": "uint8"
        }
      ],
      "name": "Initialized",
      "type": "event"
    },
    {
      "anonymous": false,
      "inputs": [
        {
          "indexed": true,
          "internalType": "address",
          "name": "previousOwner",
          "type": "address"
        },
        {
          "indexed": true,
          "internalType": "address",
          "name": "newOwner",
          "type": "address"
        }
      ],
      "name": "OwnershipTransferred",
      "type": "event"
    },
    {
      "anonymous": false,
      "inputs": [
        {
          "indexed": false,
          "internalType": "address",
          "name": "account",
          "type": "address"
        }
      ],
      "name": "Paused",
      "type": "event"
    },
    {
      "anonymous": false,
      "inputs": [
        {
          "indexed": false,
          "internalType": "address",
          "name": "benficiary",
          "type": "address"
        },
        {
          "indexed": false,
          "internalType": "uint256",
          "name": "bal",
          "type": "uint256"
        }
      ],
      "name": "ReceivedRevenue",
      "type": "event"
    },
    {
      "anonymous": false,
      "inputs": [
        {
          "indexed": false,
          "internalType": "uint256",
          "name": "NFTId",
          "type": "uint256"
        },
        {
          "indexed": false,
          "internalType": "uint256",
          "name": "subnetId",
          "type": "uint256"
        },
        {
          "indexed": false,
          "internalType": "address",
          "name": "refAddress",
          "type": "address"
        }
      ],
      "name": "ReferralAdded",
      "type": "event"
    },
    {
      "anonymous": false,
      "inputs": [
        {
          "indexed": false,
          "internalType": "uint256",
          "name": "NFTId",
          "type": "uint256"
        }
      ],
      "name": "RefreshedBalance",
      "type": "event"
    },
    {
      "anonymous": false,
      "inputs": [
        {
          "indexed": false,
          "internalType": "uint256",
          "name": "NFTId",
          "type": "uint256"
        },
        {
          "indexed": false,
          "internalType": "uint256",
          "name": "subnetId",
          "type": "uint256"
        },
        {
          "indexed": false,
          "internalType": "string",
          "name": "newServiceProvider",
          "type": "string"
        }
      ],
      "name": "RequestedServiceProviderChange",
      "type": "event"
    },
    {
      "anonymous": false,
      "inputs": [
        {
          "indexed": false,
          "internalType": "uint256",
          "name": "NFTId",
          "type": "uint256"
        },
        {
          "indexed": false,
          "internalType": "uint256",
          "name": "subnetId",
          "type": "uint256"
        },
        {
          "indexed": false,
          "internalType": "string",
          "name": "serviceProviderAddress",
          "type": "string"
        },
        {
          "indexed": false,
          "internalType": "address",
          "name": "referralAddress",
          "type": "address"
        },
        {
          "indexed": false,
          "internalType": "uint256",
          "name": "licenseFee",
          "type": "uint256"
        },
        {
          "indexed": false,
          "internalType": "uint256[]",
          "name": "computeRequired",
          "type": "uint256[]"
        }
      ],
      "name": "Subscribed",
      "type": "event"
    },
    {
      "anonymous": false,
      "inputs": [
        {
          "indexed": false,
          "internalType": "address",
          "name": "account",
          "type": "address"
        }
      ],
      "name": "Unpaused",
      "type": "event"
    },
    {
      "inputs": [],
      "name": "ApplicationNFT",
      "outputs": [
        {
          "internalType": "contract IERC721",
          "name": "",
          "type": "address"
        }
      ],
      "stateMutability": "view",
      "type": "function"
    },
    {
      "inputs": [],
      "name": "LIMIT_NFT_SUBNETS",
      "outputs": [
        {
          "internalType": "uint256",
          "name": "",
          "type": "uint256"
        }
      ],
      "stateMutability": "view",
      "type": "function"
    },
    {
      "inputs": [],
      "name": "MIN_TIME_FUNDS",
      "outputs": [
        {
          "internalType": "uint256",
          "name": "",
          "type": "uint256"
        }
      ],
      "stateMutability": "view",
      "type": "function"
    },
    {
      "inputs": [],
      "name": "REQD_COOLDOWN_S_PROVIDER",
      "outputs": [
        {
          "internalType": "uint256",
          "name": "",
          "type": "uint256"
        }
      ],
      "stateMutability": "view",
      "type": "function"
    },
    {
      "inputs": [],
      "name": "REQD_NOTICE_TIME_S_PROVIDER",
      "outputs": [
        {
          "internalType": "uint256",
          "name": "",
          "type": "uint256"
        }
      ],
      "stateMutability": "view",
      "type": "function"
    },
    {
      "inputs": [],
      "name": "RegistrationContract",
      "outputs": [
        {
          "internalType": "contract IRegistration",
          "name": "",
          "type": "address"
        }
      ],
      "stateMutability": "view",
      "type": "function"
    },
    {
      "inputs": [],
      "name": "XCTToken",
      "outputs": [
        {
          "internalType": "contract IERC20Upgradeable",
          "name": "",
          "type": "address"
        }
      ],
      "stateMutability": "view",
      "type": "function"
    },
    {
      "inputs": [
        {
          "internalType": "uint256",
          "name": "_nftId",
          "type": "uint256"
        },
        {
          "internalType": "uint256",
          "name": "_balanceToAdd",
          "type": "uint256"
        }
      ],
      "name": "addBalance",
      "outputs": [
        {
          "internalType": "bool",
          "name": "",
          "type": "bool"
        }
      ],
      "stateMutability": "nonpayable",
      "type": "function"
    },
    {
      "inputs": [
        {
          "internalType": "uint256",
          "name": "_nftId",
          "type": "uint256"
        },
        {
          "internalType": "uint256",
          "name": "_subnetId",
          "type": "uint256"
        },
        {
          "internalType": "address",
          "name": "_refAddress",
          "type": "address"
        }
      ],
      "name": "addReferralAddress",
      "outputs": [],
      "stateMutability": "nonpayable",
      "type": "function"
    },
    {
      "inputs": [
        {
          "internalType": "uint256",
          "name": "_nftId",
          "type": "uint256"
        },
        {
          "internalType": "uint256",
          "name": "_subnetId",
          "type": "uint256"
        }
      ],
      "name": "applyServiceProviderChange",
      "outputs": [],
      "stateMutability": "nonpayable",
      "type": "function"
    },
    {
      "inputs": [
        {
          "internalType": "uint256",
          "name": "NFTid",
          "type": "uint256"
        }
      ],
      "name": "balanceLeft",
      "outputs": [
        {
          "internalType": "uint256",
          "name": "",
          "type": "uint256"
        }
      ],
      "stateMutability": "view",
      "type": "function"
    },
    {
      "inputs": [
        {
          "internalType": "address",
          "name": "",
          "type": "address"
        }
      ],
      "name": "balanceOfRev",
      "outputs": [
        {
          "internalType": "uint256",
          "name": "",
          "type": "uint256"
        }
      ],
      "stateMutability": "view",
      "type": "function"
    },
    {
      "inputs": [
        {
          "internalType": "uint256",
          "name": "_nftId",
          "type": "uint256"
        },
        {
          "internalType": "uint256",
          "name": "_currentSubnetId",
          "type": "uint256"
        },
        {
          "internalType": "uint256",
          "name": "_newSubnetId",
          "type": "uint256"
        }
      ],
      "name": "changeSubnetSubscription",
      "outputs": [],
      "stateMutability": "nonpayable",
      "type": "function"
    },
    {
      "inputs": [
        {
          "internalType": "uint256",
          "name": "_new_LIMIT_NFT_SUBNETS",
          "type": "uint256"
        }
      ],
      "name": "change__LIMIT_NFT_SUBNETS",
      "outputs": [],
      "stateMutability": "nonpayable",
      "type": "function"
    },
    {
      "inputs": [
        {
          "internalType": "uint256",
          "name": "_new_MIN_TIME_FUNDS",
          "type": "uint256"
        }
      ],
      "name": "change__MIN_TIME_FUNDS",
      "outputs": [],
      "stateMutability": "nonpayable",
      "type": "function"
    },
    {
      "inputs": [
        {
          "internalType": "uint256",
          "name": "_REQD_COOLDOWN_S_PROVIDER",
          "type": "uint256"
        }
      ],
      "name": "change__REQD_COOLDOWN_S_PROVIDER",
      "outputs": [],
      "stateMutability": "nonpayable",
      "type": "function"
    },
    {
      "inputs": [
        {
          "internalType": "uint256",
          "name": "_REQD_NOTICE_TIME_S_PROVIDER",
          "type": "uint256"
        }
      ],
      "name": "change__REQD_NOTICE_TIME_S_PROVIDER",
      "outputs": [],
      "stateMutability": "nonpayable",
      "type": "function"
    },
    {
      "inputs": [
        {
          "internalType": "uint256",
          "name": "NFTid",
          "type": "uint256"
        }
      ],
      "name": "dripRatePerSec",
      "outputs": [
        {
          "internalType": "uint256",
          "name": "totalDripRate",
          "type": "uint256"
        }
      ],
      "stateMutability": "view",
      "type": "function"
    },
    {
      "inputs": [
        {
          "internalType": "uint256",
          "name": "NFTid",
          "type": "uint256"
        },
        {
          "internalType": "uint256",
          "name": "subnetId",
          "type": "uint256"
        }
      ],
      "name": "dripRatePerSecOfSubnet",
      "outputs": [
        {
          "internalType": "uint256",
          "name": "",
          "type": "uint256"
        }
      ],
      "stateMutability": "view",
      "type": "function"
    },
    {
      "inputs": [
        {
          "internalType": "uint256",
          "name": "_LIMIT_NFT_SUBNETS",
          "type": "uint256"
        },
        {
          "internalType": "uint256",
          "name": "_MIN_TIME_FUNDS",
          "type": "uint256"
        },
        {
          "internalType": "contract IRegistration",
          "name": "_RegistrationContract",
          "type": "address"
        },
        {
          "internalType": "contract IERC721",
          "name": "_ApplicationNFT",
          "type": "address"
        },
        {
          "internalType": "contract IERC20Upgradeable",
          "name": "_XCTToken",
          "type": "address"
        },
        {
          "internalType": "uint256",
          "name": "_REQD_NOTICE_TIME_S_PROVIDER",
          "type": "uint256"
        },
        {
          "internalType": "uint256",
          "name": "_REQD_COOLDOWN_S_PROVIDER",
          "type": "uint256"
        }
      ],
      "name": "initialize",
      "outputs": [],
      "stateMutability": "nonpayable",
      "type": "function"
    },
    {
      "inputs": [
        {
          "internalType": "uint256",
          "name": "_nftId",
          "type": "uint256"
        }
      ],
      "name": "isBalancePresent",
      "outputs": [
        {
          "internalType": "bool",
          "name": "",
          "type": "bool"
        }
      ],
      "stateMutability": "view",
      "type": "function"
    },
    {
      "inputs": [
        {
          "internalType": "uint256",
          "name": "",
          "type": "uint256"
        }
      ],
      "name": "nftAttributes",
      "outputs": [
        {
          "internalType": "uint256",
          "name": "lastBalanceUpdateTime",
          "type": "uint256"
        },
        {
          "internalType": "uint256",
          "name": "prevBalance",
          "type": "uint256"
        },
        {
          "internalType": "address",
          "name": "NFTMinter",
          "type": "address"
        },
        {
          "internalType": "uint256",
          "name": "expiry",
          "type": "uint256"
        }
      ],
      "stateMutability": "view",
      "type": "function"
    },
    {
      "inputs": [
        {
          "internalType": "address",
          "name": "_operator",
          "type": "address"
        },
        {
          "internalType": "address",
          "name": "_from",
          "type": "address"
        },
        {
          "internalType": "uint256",
          "name": "_id",
          "type": "uint256"
        },
        {
          "internalType": "bytes",
          "name": "_data",
          "type": "bytes"
        }
      ],
      "name": "onERC721Received",
      "outputs": [
        {
          "internalType": "bytes4",
          "name": "",
          "type": "bytes4"
        }
      ],
      "stateMutability": "nonpayable",
      "type": "function"
    },
    {
      "inputs": [],
      "name": "owner",
      "outputs": [
        {
          "internalType": "address",
          "name": "",
          "type": "address"
        }
      ],
      "stateMutability": "view",
      "type": "function"
    },
    {
      "inputs": [],
      "name": "paused",
      "outputs": [
        {
          "internalType": "bool",
          "name": "",
          "type": "bool"
        }
      ],
      "stateMutability": "view",
      "type": "function"
    },
    {
      "inputs": [
        {
          "internalType": "uint256",
          "name": "_nftId",
          "type": "uint256"
        },
        {
          "internalType": "uint256",
          "name": "_subnetId",
          "type": "uint256"
        }
      ],
      "name": "r_licenseFee",
      "outputs": [
        {
          "internalType": "uint256",
          "name": "",
          "type": "uint256"
        }
      ],
      "stateMutability": "view",
      "type": "function"
    },
    {
      "inputs": [],
      "name": "receiveRevenue",
      "outputs": [],
      "stateMutability": "nonpayable",
      "type": "function"
    },
    {
      "inputs": [
        {
          "internalType": "address",
          "name": "_userAddress",
          "type": "address"
        }
      ],
      "name": "receiveRevenueForAddress",
      "outputs": [],
      "stateMutability": "nonpayable",
      "type": "function"
    },
    {
      "inputs": [
        {
          "internalType": "address[]",
          "name": "_userAddresses",
          "type": "address[]"
        }
      ],
      "name": "receiveRevenueForAddressBulk",
      "outputs": [],
      "stateMutability": "nonpayable",
      "type": "function"
    },
    {
      "inputs": [
        {
          "internalType": "contract IERC1155Upgradeable",
          "name": "token",
          "type": "address"
        },
        {
          "internalType": "uint256",
          "name": "tokenId",
          "type": "uint256"
        },
        {
          "internalType": "uint256",
          "name": "amount",
          "type": "uint256"
        }
      ],
      "name": "recoverERC1155",
      "outputs": [],
      "stateMutability": "nonpayable",
      "type": "function"
    },
    {
      "inputs": [
        {
          "internalType": "contract IERC721Upgradeable",
          "name": "token",
          "type": "address"
        },
        {
          "internalType": "uint256",
          "name": "tokenId",
          "type": "uint256"
        }
      ],
      "name": "recoverERC721",
      "outputs": [],
      "stateMutability": "nonpayable",
      "type": "function"
    },
    {
      "inputs": [
        {
          "internalType": "uint256",
          "name": "amount",
          "type": "uint256"
        }
      ],
      "name": "recoverETH",
      "outputs": [],
      "stateMutability": "nonpayable",
      "type": "function"
    },
    {
      "inputs": [
        {
          "internalType": "contract IERC20Upgradeable",
          "name": "token",
          "type": "address"
        }
      ],
      "name": "recoverTokens",
      "outputs": [],
      "stateMutability": "nonpayable",
      "type": "function"
    },
    {
      "inputs": [
        {
          "internalType": "uint256",
          "name": "_nftId",
          "type": "uint256"
        }
      ],
      "name": "refreshBalance",
      "outputs": [],
      "stateMutability": "nonpayable",
      "type": "function"
    },
    {
      "inputs": [],
      "name": "renounceOwnership",
      "outputs": [],
      "stateMutability": "nonpayable",
      "type": "function"
    },
    {
      "inputs": [
        {
          "internalType": "uint256",
          "name": "_nftId",
          "type": "uint256"
        },
        {
          "internalType": "uint256",
          "name": "_subnetId",
          "type": "uint256"
        },
        {
          "internalType": "string",
          "name": "_newServiceProvider",
          "type": "string"
        }
      ],
      "name": "requestServiceProviderChange",
      "outputs": [],
      "stateMutability": "nonpayable",
      "type": "function"
    },
    {
      "inputs": [],
      "name": "s_GlobalDAOAddress",
      "outputs": [
        {
          "internalType": "address",
          "name": "",
          "type": "address"
        }
      ],
      "stateMutability": "view",
      "type": "function"
    },
    {
      "inputs": [],
      "name": "s_GlobalDAORate",
      "outputs": [
        {
          "internalType": "uint256",
          "name": "",
          "type": "uint256"
        }
      ],
      "stateMutability": "view",
      "type": "function"
    },
    {
      "inputs": [
        {
          "internalType": "uint256",
          "name": "_subnetId",
          "type": "uint256"
        }
      ],
      "name": "subnetDAOWalletFor1",
      "outputs": [
        {
          "internalType": "address",
          "name": "",
          "type": "address"
        }
      ],
      "stateMutability": "view",
      "type": "function"
    },
    {
      "inputs": [
        {
          "internalType": "uint256",
          "name": "_balanceToAdd",
          "type": "uint256"
        },
        {
          "internalType": "uint256[]",
          "name": "subnetId",
          "type": "uint256[]"
        },
        {
          "internalType": "string[]",
          "name": "_serviceProviderAddress",
          "type": "string[]"
        },
        {
          "internalType": "address[]",
          "name": "_referralAddress",
          "type": "address[]"
        },
        {
          "internalType": "uint256[]",
          "name": "_licenseFee",
          "type": "uint256[]"
        },
        {
          "internalType": "uint256[][]",
          "name": "computeRequired",
          "type": "uint256[][]"
        }
      ],
      "name": "subscribeBatchNew",
      "outputs": [
        {
          "internalType": "uint256",
          "name": "NFTid",
          "type": "uint256"
        }
      ],
      "stateMutability": "nonpayable",
      "type": "function"
    },
    {
      "inputs": [
        {
          "internalType": "uint256",
          "name": "_nftId",
          "type": "uint256"
        },
        {
          "internalType": "uint256[]",
          "name": "subnetId",
          "type": "uint256[]"
        },
        {
          "internalType": "string[]",
          "name": "_serviceProviderAddress",
          "type": "string[]"
        },
        {
          "internalType": "address[]",
          "name": "_referralAddress",
          "type": "address[]"
        },
        {
          "internalType": "uint256[]",
          "name": "_licenseFee",
          "type": "uint256[]"
        },
        {
          "internalType": "uint256[][]",
          "name": "computeRequired",
          "type": "uint256[][]"
        }
      ],
      "name": "subscribeBatchToExistingNFT",
      "outputs": [],
      "stateMutability": "nonpayable",
      "type": "function"
    },
    {
      "inputs": [
        {
          "internalType": "uint256",
          "name": "_balanceToAdd",
          "type": "uint256"
        },
        {
          "internalType": "uint256",
          "name": "subnetId",
          "type": "uint256"
        },
        {
          "internalType": "string",
          "name": "_serviceProviderAddress",
          "type": "string"
        },
        {
          "internalType": "address",
          "name": "_referralAddress",
          "type": "address"
        },
        {
          "internalType": "uint256",
          "name": "_licenseFee",
          "type": "uint256"
        },
        {
          "internalType": "uint256[]",
          "name": "_computeRequired",
          "type": "uint256[]"
        }
      ],
      "name": "subscribeNew",
      "outputs": [
        {
          "internalType": "uint256",
          "name": "",
          "type": "uint256"
        }
      ],
      "stateMutability": "nonpayable",
      "type": "function"
    },
    {
      "inputs": [
        {
          "internalType": "uint256",
          "name": "_nftId",
          "type": "uint256"
        },
        {
          "internalType": "uint256",
          "name": "_subnetId",
          "type": "uint256"
        },
        {
          "internalType": "string",
          "name": "_serviceProviderAddress",
          "type": "string"
        },
        {
          "internalType": "address",
          "name": "_referralAddress",
          "type": "address"
        },
        {
          "internalType": "uint256",
          "name": "_licenseFee",
          "type": "uint256"
        },
        {
          "internalType": "uint256[]",
          "name": "_computeRequired",
          "type": "uint256[]"
        }
      ],
      "name": "subscribeToExistingNFT",
      "outputs": [],
      "stateMutability": "nonpayable",
      "type": "function"
    },
    {
      "inputs": [
        {
          "internalType": "uint256",
          "name": "_subnetId",
          "type": "uint256"
        }
      ],
      "name": "t_SupportFeeRate",
      "outputs": [
        {
          "internalType": "uint256",
          "name": "fee",
          "type": "uint256"
        }
      ],
      "stateMutability": "view",
      "type": "function"
    },
    {
      "inputs": [
        {
          "internalType": "uint256",
          "name": "_tokenId",
          "type": "uint256"
        }
      ],
      "name": "t_supportFeeAddress",
      "outputs": [
        {
          "internalType": "address",
          "name": "",
          "type": "address"
        }
      ],
      "stateMutability": "view",
      "type": "function"
    },
    {
      "inputs": [
        {
          "internalType": "address",
          "name": "newOwner",
          "type": "address"
        }
      ],
      "name": "transferOwnership",
      "outputs": [],
      "stateMutability": "nonpayable",
      "type": "function"
    },
    {
      "inputs": [
        {
          "internalType": "uint256",
          "name": "",
          "type": "uint256"
        },
        {
          "internalType": "uint256",
          "name": "",
          "type": "uint256"
        }
      ],
      "name": "userSubscription",
      "outputs": [
        {
          "internalType": "string",
          "name": "serviceProviderAddress",
          "type": "string"
        },
        {
          "internalType": "address",
          "name": "referralAddress",
          "type": "address"
        },
        {
          "internalType": "uint256",
          "name": "r_licenseFee",
          "type": "uint256"
        },
        {
          "internalType": "bool",
          "name": "subscribed",
          "type": "bool"
        }
      ],
      "stateMutability": "view",
      "type": "function"
    }
  ],
  "bytecode": "0x608060405234801561001057600080fd5b506146c9806100206000396000f3fe608060405234801561001057600080fd5b50600436106102955760003560e01c806396bbda3e11610167578063cbfafbda116100ce578063df44b17011610087578063df44b1701461062d578063ec4149761461064d578063f2fde38b14610660578063f73ecb3014610673578063f8f4724f14610686578063fdffffff1461069957610295565b8063cbfafbda14610572578063d333555314610585578063d4b5d60314610598578063d5cb22c914610608578063d9f6400514610611578063dd8ba3f01461062457610295565b8063aef72fb211610120578063aef72fb214610514578063b1f107e214610527578063b5d8e98614610530578063b5f608e814610543578063c73f22e61461054c578063cbaa1d9b1461055f57610295565b806396bbda3e146104925780639bda6a9e1461049a578063a40398a6146104ad578063a6d5d702146104c0578063a8440fe2146104d3578063abb4b9cd1461050157610295565b80632fc84de81161020b5780635c975abb116101c45780635c975abb14610419578063715018a6146104305780637584c82f146104385780637bf9f8c61461045b578063819d4cc61461046e5780638da5cb5b1461048157610295565b80632fc84de8146103b257806333206192146103c557806343915cd0146103d857806344e82250146103eb57806345c37cd4146103f35780634beb71e61461040657610295565b806316114acd1161025d57806316114acd14610333578063192cd212146103465780631bef5ddf146103715780631d2e022314610384578063203181c91461038c578063215c5cb01461039f57610295565b806306e29ed91461029a57806309cfddb2146102af5780630d47e245146102d5578063110bb8cd146102e8578063150b7a02146102fb575b600080fd5b6102ad6102a8366004613db4565b6106ac565b005b6102c26102bd366004613e90565b6106fe565b6040519081526020015b60405180910390f35b6102c26102e3366004614123565b61090e565b6102ad6102f636600461400c565b610c46565b61031a610309366004613d1a565b630a85bd0160e11b95945050505050565b6040516001600160e01b031990911681526020016102cc565b6102ad610341366004613ce2565b610d99565b610359610354366004613e60565b610e54565b6040516001600160a01b0390911681526020016102cc565b61035961037f366004613e60565b610eda565b610359610f0c565b6102ad61039a36600461402d565b610f8e565b6102ad6103ad366004613ce2565b611144565b609954610359906001600160a01b031681565b6102c26103d336600461400c565b61122e565b6102ad6103e6366004613e60565b6113c1565b6102ad61142c565b609854610359906001600160a01b031681565b6102ad610414366004613e60565b611437565b60655460ff165b60405190151581526020016102cc565b6102ad611962565b61044b61044636600461400c565b611996565b6040516102cc949392919061422d565b6102ad610469366004614065565b611a60565b6102ad61047c366004613e35565b611b35565b6033546001600160a01b0316610359565b6102c2611bc9565b6102ad6104a83660046140d5565b611c46565b6104206104bb36600461400c565b611e97565b6102c26104ce366004613e60565b6123f9565b6102c26104e136600461400c565b6000918252609b6020908152604080842092845291905290206002015490565b609754610359906001600160a01b031681565b610420610522366004613e60565b6124b5565b6102c2609e5481565b6102c261053e366004613e60565b6124de565b6102c260a05481565b6102ad61055a3660046141a7565b612550565b6102ad61056d366004613e01565b6129cd565b6102ad610580366004613e60565b612a82565b6102ad610593366004613e60565b612aed565b6105d96105a6366004613e60565b609a602052600090815260409020805460018201546003830154600490930154919290916001600160a01b039091169084565b6040516102cc949392919093845260208401929092526001600160a01b03166040830152606082015260800190565b6102c2609d5481565b6102ad61061f366004613e60565b612b44565b6102c2609f5481565b6102c261063b366004613ce2565b609c6020526000908152604090205481565b6102ad61065b366004613e90565b612baf565b6102ad61066e366004613ce2565b612c91565b6102c2610681366004613e60565b612d29565b6102ad610694366004613e60565b612db7565b6102ad6106a7366004614123565b612e22565b60005b81518110156106fa576106e88282815181106106db57634e487b7160e01b600052603260045260246000fd5b6020026020010151611144565b806106f281614637565b9150506106af565b5050565b60006107d6878760008151811061072557634e487b7160e01b600052603260045260246000fd5b60200260200101518760008151811061074e57634e487b7160e01b600052603260045260246000fd5b60200260200101518760008151811061077757634e487b7160e01b600052603260045260246000fd5b6020026020010151876000815181106107a057634e487b7160e01b600052603260045260246000fd5b6020026020010151876000815181106107c957634e487b7160e01b600052603260045260246000fd5b602002602001015161090e565b905060015b86518110156108c7576108b58288838151811061080857634e487b7160e01b600052603260045260246000fd5b602002602001015188848151811061083057634e487b7160e01b600052603260045260246000fd5b602002602001015188858151811061085857634e487b7160e01b600052603260045260246000fd5b602002602001015188868151811061088057634e487b7160e01b600052603260045260246000fd5b60200260200101518887815181106108a857634e487b7160e01b600052603260045260246000fd5b6020026020010151612e22565b806108bf81614637565b9150506107db565b50866108de609e546108d8846123f9565b90613275565b106109045760405162461bcd60e51b81526004016108fb90614314565b60405180910390fd5b9695505050505050565b600061091c60655460ff1690565b156109395760405162461bcd60e51b81526004016108fb90614267565b60006109cc6001609860009054906101000a90046001600160a01b03166001600160a01b031663561892366040518163ffffffff1660e01b815260040160206040518083038186803b15801561098e57600080fd5b505afa1580156109a2573d6000803e3d6000fd5b505050506040513d601f19601f820116820180604052508101906109c69190613e78565b90613281565b6098549091506001600160a01b0316636a627842336040516001600160e01b031960e084901b1681526001600160a01b039091166004820152602401602060405180830381600087803b158015610a2257600080fd5b505af1158015610a36573d6000803e3d6000fd5b505050506040513d601f19601f82011682018060405250810190610a5a9190613e78565b5060606040518060a001604052804281526020018a8152602001828152602001610a813390565b6001600160a01b0316815260006020918201819052848152609a8252604090819020835181558383015160018201559083015180519192610aca92600285019290910190613907565b5060608201516003820180546001600160a01b0319166001600160a01b03909216919091179055608090910151600490910155610b0b82898989898961328d565b88610b1c609e546108d8858c61122e565b10610b395760405162461bcd60e51b81526004016108fb90614314565b6099546001600160a01b03166323b872dd336040516001600160e01b031960e084901b1681526001600160a01b039091166004820152306024820152604481018c9052606401602060405180830381600087803b158015610b9957600080fd5b505af1158015610bad573d6000803e3d6000fd5b505050506040513d601f19601f82011682018060405250810190610bd19190613de7565b5060408051838152602081018b90527f2f59d1a3b7b985da630a67df5848afd649a7ac56a4f65c399458a7b1219d2556910160405180910390a1610c28610c21610c1a846123f9565b8b9061350b565b4290613281565b6000838152609a602052604090206004015550979650505050505050565b60a054600083815260a1602090815260408083208584529091529020544291610c6f9190613281565b10610cbc5760405162461bcd60e51b815260206004820152601c60248201527f43616e6e6f74206170706c79206265666f726520636f6f6c646f776e0000000060448201526064016108fb565b600082815260a1602090815260408083208484528252808320426002820155858452609b835281842085855290925290912060019091018054610cfe906145fc565b610d09929190613952565b50604080516020808201808452600080845286815260a183528481208682529092529290209051610d4092600190920191906139cd565b506000828152609b602090815260408083208484529091529081902090517f18ea9894f61e99766c715362e69b478c1e4b6d999d935a1a9e513b5a55e2fd3b91610d8d9185918591614452565b60405180910390a15050565b6033546001600160a01b03163314610dc35760405162461bcd60e51b81526004016108fb906142df565b6040516370a0823160e01b8152306004820152610e519033906001600160a01b038416906370a082319060240160206040518083038186803b158015610e0857600080fd5b505afa158015610e1c573d6000803e3d6000fd5b505050506040513d601f19601f82011682018060405250810190610e409190613e78565b6001600160a01b0384169190613517565b50565b6097546040516379fed2eb60e01b8152600481018390526000916001600160a01b0316906379fed2eb906024015b60206040518083038186803b158015610e9a57600080fd5b505afa158015610eae573d6000803e3d6000fd5b505050506040513d601f19601f82011682018060405250810190610ed29190613cfe565b90505b919050565b6098546040516331a9108f60e11b8152600481018390526000916001600160a01b031690636352211e90602401610e82565b609754604080516341facd6360e11b815290516000926001600160a01b0316916383f59ac6916004808301926020929190829003018186803b158015610f5157600080fd5b505afa158015610f65573d6000803e3d6000fd5b505050506040513d601f19601f82011682018060405250810190610f899190613cfe565b905090565b6000838152609b602090815260408083208584529091529020600101546001600160a01b031615610fef5760405162461bcd60e51b815260206004820152600b60248201526a105b1c9958591e481cd95d60aa1b60448201526064016108fb565b336098546040516331a9108f60e11b8152600481018690526001600160a01b039283169290911690636352211e9060240160206040518083038186803b15801561103857600080fd5b505afa15801561104c573d6000803e3d6000fd5b505050506040513d601f19601f820116820180604052508101906110709190613cfe565b6001600160a01b0316146110c65760405162461bcd60e51b815260206004820152601e60248201527f53656e646572206e6f7420746865206f776e6572206f66204e4654206964000060448201526064016108fb565b6000838152609b6020908152604080832085845282529182902060010180546001600160a01b0319166001600160a01b0385169081179091558251868152918201859052918101919091527f5878ac48f3058583ef4c6d4eb2cc2fdbe3fad465b25bb2216a7d0396e0a88b75906060015b60405180910390a1505050565b6001600160a01b038181166000818152609c60205260409081902054609954915163a9059cbb60e01b815260048101939093526024830181905292169063a9059cbb90604401602060405180830381600087803b1580156111a457600080fd5b505af11580156111b8573d6000803e3d6000fd5b505050506040513d601f19601f820116820180604052508101906111dc9190613de7565b506001600160a01b0382166000818152609c6020908152604080832092909255815192835282018390527ff8df0bb865f83f0bfa58caa2a1ec0cccc495ea623170108323baecc06cd6537a9101610d8d565b60008061126d620186a06109c661124486612d29565b6000888152609b602090815260408083208a84529091529020600201546109c6906109c6611bc9565b6097546040516373d97f3960e01b8152600481018690529192506000916001600160a01b03909116906373d97f399060240160006040518083038186803b1580156112b757600080fd5b505afa1580156112cb573d6000803e3d6000fd5b505050506040513d6000823e601f3d908101601f191682016040526112f39190810190613f64565b5050509450505050506000805b82518110156113a9576000878152609b60209081526040808320898452909152902060030180546113959161138e918490811061134d57634e487b7160e01b600052603260045260246000fd5b906000526020600020015485848151811061137857634e487b7160e01b600052603260045260246000fd5b602002602001015161327590919063ffffffff16565b8390613281565b9150806113a181614637565b915050611300565b50610904620186a06113bb8584613275565b9061350b565b6033546001600160a01b031633146113eb5760405162461bcd60e51b81526004016108fb906142df565b60a05460408051918252602082018390527fc5e14df5fc337a990601fe0ce9170d1666340710bae7daf71491634ab38a58dc910160405180910390a160a055565b611435336103ad565b565b6000818152609a602090815260408083206002018054825181850281018501909352808352859493849392919083018282801561149357602002820191906000526020600020905b81548152602001906001019080831161147f575b5050505050905060005b815181101561163b5760975482516000916001600160a01b0316906373d97f39908590859081106114de57634e487b7160e01b600052603260045260246000fd5b60200260200101516040518263ffffffff1660e01b815260040161150491815260200190565b60006040518083038186803b15801561151c57600080fd5b505afa158015611530573d6000803e3d6000fd5b505050506040513d6000823e601f3d908101601f191682016040526115589190810190613f64565b50505094505050505060005b81518110156116265761161261160b609b600089815260200190815260200160002060008787815181106115a857634e487b7160e01b600052603260045260246000fd5b6020026020010151815260200190815260200160002060030183815481106115e057634e487b7160e01b600052603260045260246000fd5b906000526020600020015484848151811061137857634e487b7160e01b600052603260045260246000fd5b8690613281565b94508061161e81614637565b915050611564565b5050808061163390614637565b91505061149d565b506000838152609a60205260408120546116619061165a90429061356e565b8490613275565b9050620186a0811115611927576000808083611686620186a06113bb836108d8611bc9565b92506116b883609c6000611698610f0c565b6001600160a01b0316815260208101919091526040016000205490613281565b609c60006116c4610f0c565b6001600160a01b03166001600160a01b031681526020019081526020016000208190555060005b86518110156118225761174e61160b620186a06113bb896108d88e8d888151811061172657634e487b7160e01b600052603260045260246000fd5b60200260200101516000918252609b6020908152604080842092845291905290206002015490565b945061179561178e620186a06113bb896108d88c878151811061178157634e487b7160e01b600052603260045260246000fd5b6020026020010151612d29565b8490613281565b92506117cf82609c60006116988b86815181106117c257634e487b7160e01b600052603260045260246000fd5b6020026020010151610e54565b609c60006117f68a85815181106117c257634e487b7160e01b600052603260045260246000fd5b6001600160a01b031681526020810191909152604001600020558061181a81614637565b9150506116eb565b506000888152609a60209081526040808320600301546001600160a01b03168352609c9091529020546118559085613281565b6000898152609a60209081526040808320600301546001600160a01b03168352609c918290528220929092556118909184916116988c610eda565b609c600061189d8b610eda565b6001600160a01b0316815260208101919091526040016000908120919091556118cc826109c685818989613281565b60008a8152609a6020526040812060010154919250908210156119085760008a8152609a6020526040902060010154611905908361356e565b90505b60008a8152609a60205260409020600181019190915542905550505050505b6040518581527f106128e5bc2fab46dc6facdb884bcdb95b9005c33eff74a8009b90a3944c1009906020015b60405180910390a15050505050565b6033546001600160a01b0316331461198c5760405162461bcd60e51b81526004016108fb906142df565b611435600061357a565b609b6020908152600092835260408084209091529082529020805481906119bc906145fc565b80601f01602080910402602001604051908101604052809291908181526020018280546119e8906145fc565b8015611a355780601f10611a0a57610100808354040283529160200191611a35565b820191906000526020600020905b815481529060010190602001808311611a1857829003601f168201915b505050506001830154600284015460049094015492936001600160a01b039091169290915060ff1684565b6000611a6c60016135cc565b90508015611a84576000805461ff0019166101001790555b611a8c613651565b611a94613681565b609d889055609e879055609780546001600160a01b038089166001600160a01b031992831617909255609880548884169083161790556099805492871692909116919091179055609f83905560a08290558015611b2b576000805461ff0019169055604051600181527f7f26b83ff96e1f2b6a682f133852f6798a09c465da95921460cefb38474024989060200160405180910390a15b5050505050505050565b6033546001600160a01b03163314611b5f5760405162461bcd60e51b81526004016108fb906142df565b604051632142170760e11b8152306004820152336024820152604481018290526001600160a01b038316906342842e0e90606401600060405180830381600087803b158015611bad57600080fd5b505af1158015611bc1573d6000803e3d6000fd5b505050505050565b609754604080516319ec727760e31b815290516000926001600160a01b03169163cf6393b8916004808301926020929190829003018186803b158015611c0e57600080fd5b505afa158015611c22573d6000803e3d6000fd5b505050506040513d601f19601f82011682018060405250810190610f899190613e78565b336098546040516331a9108f60e11b8152600481018690526001600160a01b039283169290911690636352211e9060240160206040518083038186803b158015611c8f57600080fd5b505afa158015611ca3573d6000803e3d6000fd5b505050506040513d601f19601f82011682018060405250810190611cc79190613cfe565b6001600160a01b031614611d175760405162461bcd60e51b8152602060048201526017602482015276139bdd081d1a19481bdddb995c881bd988139195081a59604a1b60448201526064016108fb565b6000838152609b6020908152604080832085845290915290206004015460ff16611d955760405162461bcd60e51b815260206004820152602960248201527f5f7375626e65744964206973206e6f74207375627363726962656420627920756044820152681cd95c89dcc813919560ba1b60648201526084016108fb565b609f54600084815260a1602090815260408083208684529091529020600201544291611dc19190613281565b10611e345760405162461bcd60e51b815260206004820152603860248201527f43616e6e6f742072657175657374206265666f726520524551445f4e4f54494360448201527f455f54494d455f535f50524f564944455220706173736564000000000000000060648201526084016108fb565b600083815260a16020908152604080832085845282529091204281558251611e64926001909201918401906139cd565b507e0858c198563c0aa886be91504eeb8007e0be28541c36be5d1ace93f3eebbfd838383604051611137939291906143b1565b600082600080609a6000848152602001908152602001600020600201805480602002602001604051908101604052809291908181526020018280548015611efd57602002820191906000526020600020905b815481526020019060010190808311611ee9575b5050505050905060005b815181101561203b5760975482516000916001600160a01b0316906373d97f3990859085908110611f4857634e487b7160e01b600052603260045260246000fd5b60200260200101516040518263ffffffff1660e01b8152600401611f6e91815260200190565b60006040518083038186803b158015611f8657600080fd5b505afa158015611f9a573d6000803e3d6000fd5b505050506040513d6000823e601f3d908101601f19168201604052611fc29190810190613f64565b50505094505050505060005b81518110156120265761201261160b609b600089815260200190815260200160002060008787815181106115a857634e487b7160e01b600052603260045260246000fd5b94508061201e81614637565b915050611fce565b5050808061203390614637565b915050611f07565b506000838152609a602052604081205461205a9061165a90429061356e565b9050620186a08111156122b757600080808361207f620186a06113bb836108d8611bc9565b925061209183609c6000611698610f0c565b609c600061209d610f0c565b6001600160a01b03166001600160a01b031681526020019081526020016000208190555060005b86518110156121b2576120ff61160b620186a06113bb896108d88e8d888151811061172657634e487b7160e01b600052603260045260246000fd5b945061213261178e620186a06113bb896108d88c878151811061178157634e487b7160e01b600052603260045260246000fd5b925061215f82609c60006116988b86815181106117c257634e487b7160e01b600052603260045260246000fd5b609c60006121868a85815181106117c257634e487b7160e01b600052603260045260246000fd5b6001600160a01b03168152602081019190915260400160002055806121aa81614637565b9150506120c4565b506000888152609a60209081526040808320600301546001600160a01b03168352609c9091529020546121e59085613281565b6000898152609a60209081526040808320600301546001600160a01b03168352609c918290528220929092556122209184916116988c610eda565b609c600061222d8b610eda565b6001600160a01b03168152602081019190915260400160009081209190915561225c826109c685818989613281565b60008a8152609a6020526040812060010154919250908210156122985760008a8152609a6020526040902060010154612295908361356e565b90505b60008a8152609a60205260409020600181019190915542905550505050505b60995487906001600160a01b03166323b872dd336040516001600160e01b031960e084901b1681526001600160a01b039091166004820152306024820152604481018a9052606401602060405180830381600087803b15801561231957600080fd5b505af115801561232d573d6000803e3d6000fd5b505050506040513d601f19601f820116820180604052508101906123519190613de7565b506000818152609a602052604081206001015461236e9089613281565b6000838152609a6020526040902060018101829055429055905061239e610c21612397846123f9565b839061350b565b6000838152609a60209081526040918290206004019290925580518b81529182018a90527f2f59d1a3b7b985da630a67df5848afd649a7ac56a4f65c399458a7b1219d2556910160405180910390a150505050505092915050565b6000818152609a602090815260408083206002018054825181850281018501909352808352849383018282801561244f57602002820191906000526020600020905b81548152602001906001019080831161243b575b505050505090506000915060005b81518110156124ae5761249a61178e8584848151811061248d57634e487b7160e01b600052603260045260246000fd5b602002602001015161122e565b9250806124a681614637565b91505061245d565b5050919050565b6000818152609a60205260408120600401544210156124d657506001610ed5565b506000919050565b6000806125076124ed846123f9565b6000858152609a60205260409020546108d890429061356e565b6000848152609a602052604090206001015490915081111561252d576000915050610ed5565b6000838152609a6020526040902060010154612549908261356e565b9392505050565b60655460ff16156125735760405162461bcd60e51b81526004016108fb90614267565b6097546040516373d97f3960e01b8152600481018490526000916001600160a01b0316906373d97f399060240160006040518083038186803b1580156125b857600080fd5b505afa1580156125cc573d6000803e3d6000fd5b505050506040513d6000823e601f3d908101601f191682016040526125f49190810190613f64565b505050509350505050806126675760405162461bcd60e51b815260206004820152603460248201527f43616e6e6f74206368616e676520737562736372697074696f6e206966207375604482015273189b995d081a5cc81b9bdd0819195b1a5cdd195960621b60648201526084016108fb565b336098546040516331a9108f60e11b8152600481018790526001600160a01b039283169290911690636352211e9060240160206040518083038186803b1580156126b057600080fd5b505afa1580156126c4573d6000803e3d6000fd5b505050506040513d601f19601f820116820180604052508101906126e89190613cfe565b6001600160a01b0316146127385760405162461bcd60e51b8152602060048201526017602482015276139bdd081d1a19481bdddb995c881bd988139195081a59604a1b60448201526064016108fb565b6000848152609b6020908152604080832086845290915290206004015460ff166127b75760405162461bcd60e51b815260206004820152602a60248201527f5f63757272656e745375626e65744964206973206e6f7420737562736372696260448201526932b210313c903ab9b2b960b11b60648201526084016108fb565b6000848152609b6020908152604080832085845290915280822060048101805460ff191660011790558583529082209184905281549091906127f8906145fc565b612803929190613952565b506000848152609b602090815260408083208684529091528082206001808201548685529290932092830180546001600160a01b0319166001600160a01b0390931692909217909155600280820154908301556003908101805461286b939290920191613a40565b506000848152609b602090815260408083208684528252808320600401805460ff19169055868352609a8252808320600201805482518185028101850190935280835291929091908301828280156128e257602002820191906000526020600020905b8154815260200190600101908083116128ce575b5050505050905060005b8151811015612968578482828151811061291657634e487b7160e01b600052603260045260246000fd5b60200260200101511415612956578382828151811061294557634e487b7160e01b600052603260045260246000fd5b602002602001018181525050612968565b8061296081614637565b9150506128ec565b506000858152609a60209081526040909120825161298e92600290920191840190613907565b5060408051868152602081018690529081018490527f53404332d7fbbd680064ad6f3fa2e5a1c6737c9c3206cf95918a31755c7918b790606001611953565b6033546001600160a01b031633146129f75760405162461bcd60e51b81526004016108fb906142df565b604051637921219560e11b8152306004820152336024820152604481018390526064810182905260a06084820152600260a482015261060f60f31b60c48201526001600160a01b0384169063f242432a9060e401600060405180830381600087803b158015612a6557600080fd5b505af1158015612a79573d6000803e3d6000fd5b50505050505050565b6033546001600160a01b03163314612aac5760405162461bcd60e51b81526004016108fb906142df565b609d5460408051918252602082018390527f54fe1a6d60ea8cebf2cb1d7889eb5b27dd95abe955e06eed2cae5540a54b4bf2910160405180910390a1609d55565b6033546001600160a01b03163314612b175760405162461bcd60e51b81526004016108fb906142df565b604051339082156108fc029083906000818181858888f193505050501580156106fa573d6000803e3d6000fd5b6033546001600160a01b03163314612b6e5760405162461bcd60e51b81526004016108fb906142df565b609f5460408051918252602082018390527f880c74d681b789e90ecfbf24398fc73843a046f74a0f6ffe22a0fcc0d214a771910160405180910390a1609f55565b60005b8551811015612a7957612c7f87878381518110612bdf57634e487b7160e01b600052603260045260246000fd5b6020026020010151878481518110612c0757634e487b7160e01b600052603260045260246000fd5b6020026020010151878581518110612c2f57634e487b7160e01b600052603260045260246000fd5b6020026020010151878681518110612c5757634e487b7160e01b600052603260045260246000fd5b60200260200101518787815181106108a857634e487b7160e01b600052603260045260246000fd5b80612c8981614637565b915050612bb2565b6033546001600160a01b03163314612cbb5760405162461bcd60e51b81526004016108fb906142df565b6001600160a01b038116612d205760405162461bcd60e51b815260206004820152602660248201527f4f776e61626c653a206e6577206f776e657220697320746865207a65726f206160448201526564647265737360d01b60648201526084016108fb565b610e518161357a565b6097546040516373d97f3960e01b8152600481018390526000916001600160a01b0316906373d97f399060240160006040518083038186803b158015612d6e57600080fd5b505afa158015612d82573d6000803e3d6000fd5b505050506040513d6000823e601f3d908101601f19168201604052612daa9190810190613f64565b9998505050505050505050565b6033546001600160a01b03163314612de15760405162461bcd60e51b81526004016108fb906142df565b609e5460408051918252602082018390527f7c687d0697c66d5104a1421b7d823a0818020aeacac7371785314a404d9a2ee2910160405180910390a1609e55565b60655460ff1615612e455760405162461bcd60e51b81526004016108fb90614267565b6000868152609a6020908152604080832060020180548251818502810185019093528083528a94938493929190830182828015612ea157602002820191906000526020600020905b815481526020019060010190808311612e8d575b5050505050905060005b8151811015612fdf5760975482516000916001600160a01b0316906373d97f3990859085908110612eec57634e487b7160e01b600052603260045260246000fd5b60200260200101516040518263ffffffff1660e01b8152600401612f1291815260200190565b60006040518083038186803b158015612f2a57600080fd5b505afa158015612f3e573d6000803e3d6000fd5b505050506040513d6000823e601f3d908101601f19168201604052612f669190810190613f64565b50505094505050505060005b8151811015612fca57612fb661160b609b600089815260200190815260200160002060008787815181106115a857634e487b7160e01b600052603260045260246000fd5b945080612fc281614637565b915050612f72565b50508080612fd790614637565b915050612eab565b506000838152609a6020526040812054612ffe9061165a90429061356e565b9050620186a081111561325b576000808083613023620186a06113bb836108d8611bc9565b925061303583609c6000611698610f0c565b609c6000613041610f0c565b6001600160a01b03166001600160a01b031681526020019081526020016000208190555060005b8651811015613156576130a361160b620186a06113bb896108d88e8d888151811061172657634e487b7160e01b600052603260045260246000fd5b94506130d661178e620186a06113bb896108d88c878151811061178157634e487b7160e01b600052603260045260246000fd5b925061310382609c60006116988b86815181106117c257634e487b7160e01b600052603260045260246000fd5b609c600061312a8a85815181106117c257634e487b7160e01b600052603260045260246000fd5b6001600160a01b031681526020810191909152604001600020558061314e81614637565b915050613068565b506000888152609a60209081526040808320600301546001600160a01b03168352609c9091529020546131899085613281565b6000898152609a60209081526040808320600301546001600160a01b03168352609c918290528220929092556131c49184916116988c610eda565b609c60006131d18b610eda565b6001600160a01b031681526020810191909152604001600090812091909155613200826109c685818989613281565b60008a8152609a60205260408120600101549192509082101561323c5760008a8152609a6020526040902060010154613239908361356e565b90505b60008a8152609a60205260409020600181019190915542905550505050505b6132698a8a8a8a8a8a61328d565b50505050505050505050565b60006125498284614596565b6000612549828461455e565b609d546000878152609a60205260409020600201541061332a5760405162461bcd60e51b815260206004820152604c60248201527f43616e6e6f7420737562736372696265206173206c696d69742065786365656460448201527f7320746f206d6178205375626e657420737562736372697074696f6e20616c6c60648201526b1bddd959081c195c8813919560a21b608482015260a4016108fb565b336098546040516331a9108f60e11b8152600481018990526001600160a01b039283169290911690636352211e9060240160206040518083038186803b15801561337357600080fd5b505afa158015613387573d6000803e3d6000fd5b505050506040513d601f19601f820116820180604052508101906133ab9190613cfe565b6001600160a01b0316146134015760405162461bcd60e51b815260206004820152601e60248201527f53656e646572206e6f7420746865206f776e6572206f66204e4654206964000060448201526064016108fb565b6000868152609a60209081526040808320600201805460018101825590845282842001889055888352609b825280832088845282529091208551613447928701906139cd565b506000868152609b6020908152604080832088845282529091206001810180546001600160a01b0319166001600160a01b03871617905560028101849055825161349992600390920191840190613907565b506000868152609b6020908152604080832088845290915290819020600401805460ff19166001179055517fd8a8eccd539765905df336ff4c3dea59261278d3c359ccf40f1dddd1fa2a5a82906134fb908890889088908890889088906143d9565b60405180910390a1505050505050565b60006125498284614576565b604080516001600160a01b038416602482015260448082018490528251808303909101815260649091019091526020810180516001600160e01b031663a9059cbb60e01b1790526135699084906136b4565b505050565b600061254982846145b5565b603380546001600160a01b038381166001600160a01b0319831681179093556040519116919082907f8be0079c531659141344cd1fd0a4f28419497f9722a3daafe3b4186f6b6457e090600090a35050565b60008054610100900460ff1615613613578160ff1660011480156135ef5750303b155b61360b5760405162461bcd60e51b81526004016108fb90614291565b506000610ed5565b60005460ff80841691161061363a5760405162461bcd60e51b81526004016108fb90614291565b506000805460ff191660ff83161790556001610ed5565b600054610100900460ff166136785760405162461bcd60e51b81526004016108fb90614366565b6114353361357a565b600054610100900460ff166136a85760405162461bcd60e51b81526004016108fb90614366565b6065805460ff19169055565b6000613709826040518060400160405280602081526020017f5361666545524332303a206c6f772d6c6576656c2063616c6c206661696c6564815250856001600160a01b03166137869092919063ffffffff16565b80519091501561356957808060200190518101906137279190613de7565b6135695760405162461bcd60e51b815260206004820152602a60248201527f5361666545524332303a204552433230206f7065726174696f6e20646964206e6044820152691bdd081cdd58d8d9595960b21b60648201526084016108fb565b6060613795848460008561379d565b949350505050565b6060824710156137fe5760405162461bcd60e51b815260206004820152602660248201527f416464726573733a20696e73756666696369656e742062616c616e636520666f6044820152651c8818d85b1b60d21b60648201526084016108fb565b6001600160a01b0385163b6138555760405162461bcd60e51b815260206004820152601d60248201527f416464726573733a2063616c6c20746f206e6f6e2d636f6e747261637400000060448201526064016108fb565b600080866001600160a01b0316858760405161387191906141fe565b60006040518083038185875af1925050503d80600081146138ae576040519150601f19603f3d011682016040523d82523d6000602084013e6138b3565b606091505b50915091506138c38282866138ce565b979650505050505050565b606083156138dd575081612549565b8251156138ed5782518084602001fd5b8160405162461bcd60e51b81526004016108fb919061421a565b828054828255906000526020600020908101928215613942579160200282015b82811115613942578251825591602001919060010190613927565b5061394e929150613a7f565b5090565b82805461395e906145fc565b90600052602060002090601f0160209004810192826139805760008555613942565b82601f106139915780548555613942565b8280016001018555821561394257600052602060002091601f016020900482015b828111156139425782548255916001019190600101906139b2565b8280546139d9906145fc565b90600052602060002090601f0160209004810192826139fb5760008555613942565b82601f10613a1457805160ff1916838001178555613942565b828001600101855582156139425791820182811115613942578251825591602001919060010190613927565b828054828255906000526020600020908101928215613942576000526020600020918201828111156139425782548255916001019190600101906139b2565b5b8082111561394e5760008155600101613a80565b600082601f830112613aa4578081fd5b81356020613ab9613ab48361453a565b614509565b8281528181019085830183850287018401881015613ad5578586fd5b855b85811015613afc578135613aea8161467e565b84529284019290840190600101613ad7565b5090979650505050505050565b600082601f830112613b19578081fd5b81356020613b29613ab48361453a565b82815281810190858301855b85811015613afc57613b4c898684358b0101613bb3565b84529284019290840190600101613b35565b600082601f830112613b6e578081fd5b81356020613b7e613ab48361453a565b82815281810190858301855b85811015613afc57613ba1898684358b0101613c77565b84529284019290840190600101613b8a565b600082601f830112613bc3578081fd5b81356020613bd3613ab48361453a565b8281528181019085830183850287018401881015613bef578586fd5b855b85811015613afc57813584529284019290840190600101613bf1565b600082601f830112613c1d578081fd5b81516020613c2d613ab48361453a565b8281528181019085830183850287018401881015613c49578586fd5b855b85811015613afc57815184529284019290840190600101613c4b565b80518015158114610ed557600080fd5b600082601f830112613c87578081fd5b813567ffffffffffffffff811115613ca157613ca1614668565b613cb4601f8201601f1916602001614509565b818152846020838601011115613cc8578283fd5b816020850160208301379081016020019190915292915050565b600060208284031215613cf3578081fd5b81356125498161467e565b600060208284031215613d0f578081fd5b81516125498161467e565b600080600080600060808688031215613d31578081fd5b8535613d3c8161467e565b94506020860135613d4c8161467e565b935060408601359250606086013567ffffffffffffffff80821115613d6f578283fd5b818801915088601f830112613d82578283fd5b813581811115613d90578384fd5b896020828501011115613da1578384fd5b9699959850939650602001949392505050565b600060208284031215613dc5578081fd5b813567ffffffffffffffff811115613ddb578182fd5b61379584828501613a94565b600060208284031215613df8578081fd5b61254982613c67565b600080600060608486031215613e15578081fd5b8335613e208161467e565b95602085013595506040909401359392505050565b60008060408385031215613e47578182fd5b8235613e528161467e565b946020939093013593505050565b600060208284031215613e71578081fd5b5035919050565b600060208284031215613e89578081fd5b5051919050565b60008060008060008060c08789031215613ea8578384fd5b86359550602087013567ffffffffffffffff80821115613ec6578586fd5b613ed28a838b01613bb3565b96506040890135915080821115613ee7578586fd5b613ef38a838b01613b5e565b95506060890135915080821115613f08578283fd5b613f148a838b01613a94565b94506080890135915080821115613f29578283fd5b613f358a838b01613bb3565b935060a0890135915080821115613f4a578283fd5b50613f5789828a01613b09565b9150509295509295509295565b600080600080600080600080610100898b031215613f80578586fd5b88519750613f9060208a01613c67565b965060408901519550613fa560608a01613c67565b9450608089015167ffffffffffffffff80821115613fc1578384fd5b613fcd8c838d01613c0d565b955060a08b0151915080821115613fe2578384fd5b50613fef8b828c01613c0d565b60c08b015160e0909b0151999c989b509699959894979350505050565b6000806040838503121561401e578182fd5b50508035926020909101359150565b600080600060608486031215614041578081fd5b8335925060208401359150604084013561405a8161467e565b809150509250925092565b600080600080600080600060e0888a03121561407f578081fd5b873596506020880135955060408801356140988161467e565b945060608801356140a88161467e565b935060808801356140b88161467e565b9699959850939692959460a0840135945060c09093013592915050565b6000806000606084860312156140e9578081fd5b8335925060208401359150604084013567ffffffffffffffff81111561410d578182fd5b61411986828701613c77565b9150509250925092565b60008060008060008060c0878903121561413b578384fd5b8635955060208701359450604087013567ffffffffffffffff80821115614160578586fd5b61416c8a838b01613c77565b95506060890135915061417e8261467e565b9093506080880135925060a0880135908082111561419a578283fd5b50613f5789828a01613bb3565b6000806000606084860312156141bb578081fd5b505081359360208301359350604090920135919050565b600081518084526141ea8160208601602086016145cc565b601f01601f19169290920160200192915050565b600082516142108184602087016145cc565b9190910192915050565b60006020825261254960208301846141d2565b60006080825261424060808301876141d2565b6001600160a01b039590951660208301525060408101929092521515606090910152919050565b60208082526010908201526f14185d5cd8589b194e881c185d5cd95960821b604082015260600190565b6020808252602e908201527f496e697469616c697a61626c653a20636f6e747261637420697320616c72656160408201526d191e481a5b9a5d1a585b1a5e995960921b606082015260800190565b6020808252818101527f4f776e61626c653a2063616c6c6572206973206e6f7420746865206f776e6572604082015260600190565b60208082526032908201527f42616c616e63652061646465642073686f756c6420626520656e6f7567682077604082015271697468204d494e5f54494d455f46554e445360701b606082015260800190565b6020808252602b908201527f496e697469616c697a61626c653a20636f6e7472616374206973206e6f74206960408201526a6e697469616c697a696e6760a81b606082015260800190565b6000848252836020830152606060408301526143d060608301846141d2565b95945050505050565b60008782526020878184015260c060408401526143f960c08401886141d2565b6001600160a01b03871660608501526080840186905283810360a0850152845180825282860191830190845b8181101561444157835183529284019291840191600101614425565b50909b9a5050505050505050505050565b600084825260208481840152606060408401528184548360028204905060018083168061448057607f831692505b85831081141561449e57634e487b7160e01b87526022600452602487fd5b60608801839052608088018180156144bd57600181146144ce576144f8565b60ff198616825287820196506144f8565b60008b815260209020895b868110156144f2578154848201529085019089016144d9565b83019750505b50949b9a5050505050505050505050565b604051601f8201601f1916810167ffffffffffffffff8111828210171561453257614532614668565b604052919050565b600067ffffffffffffffff82111561455457614554614668565b5060209081020190565b6000821982111561457157614571614652565b500190565b60008261459157634e487b7160e01b81526012600452602481fd5b500490565b60008160001904831182151516156145b0576145b0614652565b500290565b6000828210156145c7576145c7614652565b500390565b60005b838110156145e75781810151838201526020016145cf565b838111156145f6576000848401525b50505050565b60028104600182168061461057607f821691505b6020821081141561463157634e487b7160e01b600052602260045260246000fd5b50919050565b600060001982141561464b5761464b614652565b5060010190565b634e487b7160e01b600052601160045260246000fd5b634e487b7160e01b600052604160045260246000fd5b6001600160a01b0381168114610e5157600080fdfea2646970667358221220716ce739581567b9b9d1945ef045360d4cb1e439fcd1a2f6639b542f60c55bcf64736f6c63430008020033",
  "linkReferences": {},
  "deployedLinkReferences": {}
}