{
  "_format": "hh-sol-artifact-1",
  "contractName": "XCTMinter",
  "sourceName": "contracts/XCTMinter.sol",
  "abi": [
    {
      "anonymous": false,
      "inputs": [
        {
          "indexed": false,
          "internalType": "uint8",
          "name": "version",
          "type": "uint8"
        }
      ],
      "name": "Initialized",
      "type": "event"
    },
    {
      "anonymous": false,
      "inputs": [
        {
          "indexed": false,
          "internalType": "address",
          "name": "account",
          "type": "address"
        }
      ],
      "name": "Paused",
      "type": "event"
    },
    {
      "anonymous": false,
      "inputs": [
        {
          "indexed": false,
          "internalType": "uint256",
          "name": "percentStackConversion",
          "type": "uint256"
        },
        {
          "indexed": false,
          "internalType": "uint256",
          "name": "percentStackAdvantage",
          "type": "uint256"
        }
      ],
      "name": "PercentStackSet",
      "type": "event"
    },
    {
      "anonymous": false,
      "inputs": [
        {
          "indexed": true,
          "internalType": "bytes32",
          "name": "role",
          "type": "bytes32"
        },
        {
          "indexed": true,
          "internalType": "bytes32",
          "name": "previousAdminRole",
          "type": "bytes32"
        },
        {
          "indexed": true,
          "internalType": "bytes32",
          "name": "newAdminRole",
          "type": "bytes32"
        }
      ],
      "name": "RoleAdminChanged",
      "type": "event"
    },
    {
      "anonymous": false,
      "inputs": [
        {
          "indexed": true,
          "internalType": "bytes32",
          "name": "role",
          "type": "bytes32"
        },
        {
          "indexed": true,
          "internalType": "address",
          "name": "account",
          "type": "address"
        },
        {
          "indexed": true,
          "internalType": "address",
          "name": "sender",
          "type": "address"
        }
      ],
      "name": "RoleGranted",
      "type": "event"
    },
    {
      "anonymous": false,
      "inputs": [
        {
          "indexed": true,
          "internalType": "bytes32",
          "name": "role",
          "type": "bytes32"
        },
        {
          "indexed": true,
          "internalType": "address",
          "name": "account",
          "type": "address"
        },
        {
          "indexed": true,
          "internalType": "address",
          "name": "sender",
          "type": "address"
        }
      ],
      "name": "RoleRevoked",
      "type": "event"
    },
    {
      "anonymous": false,
      "inputs": [
        {
          "indexed": false,
          "internalType": "uint256",
          "name": "slippage",
          "type": "uint256"
        }
      ],
      "name": "SlippageSet",
      "type": "event"
    },
    {
      "anonymous": false,
      "inputs": [
        {
          "indexed": false,
          "internalType": "address",
          "name": "treasury_address",
          "type": "address"
        }
      ],
      "name": "TreasuryAddressChanged",
      "type": "event"
    },
    {
      "anonymous": false,
      "inputs": [
        {
          "indexed": false,
          "internalType": "address",
          "name": "account",
          "type": "address"
        }
      ],
      "name": "Unpaused",
      "type": "event"
    },
    {
      "anonymous": false,
      "inputs": [
        {
          "indexed": false,
          "internalType": "address",
          "name": "TokenAddress",
          "type": "address"
        },
        {
          "indexed": false,
          "internalType": "uint256",
          "name": "tokenAmount",
          "type": "uint256"
        },
        {
          "indexed": false,
          "internalType": "uint256",
          "name": "XCTAmount",
          "type": "uint256"
        }
      ],
      "name": "XCTBought",
      "type": "event"
    },
    {
      "anonymous": false,
      "inputs": [
        {
          "indexed": false,
          "internalType": "address",
          "name": "account",
          "type": "address"
        },
        {
          "indexed": false,
          "internalType": "uint256",
          "name": "tokens",
          "type": "uint256"
        }
      ],
      "name": "XCTSold",
      "type": "event"
    },
    {
      "inputs": [],
      "name": "DEFAULT_ADMIN_ROLE",
      "outputs": [
        {
          "internalType": "bytes32",
          "name": "",
          "type": "bytes32"
        }
      ],
      "stateMutability": "view",
      "type": "function"
    },
    {
      "inputs": [],
      "name": "TREASURY_ADDRESS",
      "outputs": [
        {
          "internalType": "address",
          "name": "",
          "type": "address"
        }
      ],
      "stateMutability": "view",
      "type": "function"
    },
    {
      "inputs": [],
      "name": "WETH",
      "outputs": [
        {
          "internalType": "address",
          "name": "",
          "type": "address"
        }
      ],
      "stateMutability": "view",
      "type": "function"
    },
    {
      "inputs": [
        {
          "internalType": "address",
          "name": "_token",
          "type": "address"
        },
        {
          "internalType": "uint256",
          "name": "_tokenAmount",
          "type": "uint256"
        }
      ],
      "name": "buyXCT",
      "outputs": [
        {
          "internalType": "uint256",
          "name": "XCTamount",
          "type": "uint256"
        }
      ],
      "stateMutability": "nonpayable",
      "type": "function"
    },
    {
      "inputs": [],
      "name": "easyBuyXCT",
      "outputs": [
        {
          "internalType": "uint256",
          "name": "XCTamount",
          "type": "uint256"
        }
      ],
      "stateMutability": "payable",
      "type": "function"
    },
    {
      "inputs": [
        {
          "internalType": "uint256",
          "name": "_amount",
          "type": "uint256"
        }
      ],
      "name": "estimateBuy",
      "outputs": [
        {
          "internalType": "uint256",
          "name": "XCTamount",
          "type": "uint256"
        }
      ],
      "stateMutability": "view",
      "type": "function"
    },
    {
      "inputs": [
        {
          "internalType": "address",
          "name": "_token",
          "type": "address"
        },
        {
          "internalType": "uint256",
          "name": "_tokensAmount",
          "type": "uint256"
        }
      ],
      "name": "estimateBuyFromAnyToken",
      "outputs": [
        {
          "internalType": "uint256",
          "name": "XCTamount",
          "type": "uint256"
        }
      ],
      "stateMutability": "view",
      "type": "function"
    },
    {
      "inputs": [
        {
          "internalType": "uint256",
          "name": "_stackTokensAmount",
          "type": "uint256"
        }
      ],
      "name": "estimateBuyFromStack",
      "outputs": [
        {
          "internalType": "uint256",
          "name": "XCTamount",
          "type": "uint256"
        }
      ],
      "stateMutability": "view",
      "type": "function"
    },
    {
      "inputs": [
        {
          "internalType": "bytes32",
          "name": "role",
          "type": "bytes32"
        }
      ],
      "name": "getRoleAdmin",
      "outputs": [
        {
          "internalType": "bytes32",
          "name": "",
          "type": "bytes32"
        }
      ],
      "stateMutability": "view",
      "type": "function"
    },
    {
      "inputs": [
        {
          "internalType": "bytes32",
          "name": "role",
          "type": "bytes32"
        },
        {
          "internalType": "address",
          "name": "account",
          "type": "address"
        }
      ],
      "name": "grantRole",
      "outputs": [],
      "stateMutability": "nonpayable",
      "type": "function"
    },
    {
      "inputs": [
        {
          "internalType": "bytes32",
          "name": "role",
          "type": "bytes32"
        },
        {
          "internalType": "address",
          "name": "account",
          "type": "address"
        }
      ],
      "name": "hasRole",
      "outputs": [
        {
          "internalType": "bool",
          "name": "",
          "type": "bool"
        }
      ],
      "stateMutability": "view",
      "type": "function"
    },
    {
      "inputs": [
        {
          "internalType": "contract IERC20Upgradeable",
          "name": "_StackToken",
          "type": "address"
        },
        {
          "internalType": "contract IERC20Mintable",
          "name": "_XCTToken",
          "type": "address"
        },
        {
          "internalType": "contract IERC20Upgradeable",
          "name": "_USDCToken",
          "type": "address"
        },
        {
          "internalType": "address",
          "name": "_admin",
          "type": "address"
        },
        {
          "internalType": "address",
          "name": "_WETH",
          "type": "address"
        },
        {
          "internalType": "address",
          "name": "_TREASURY_ADDRESS",
          "type": "address"
        },
        {
          "internalType": "uint256",
          "name": "_slippage",
          "type": "uint256"
        },
        {
          "internalType": "uint256",
          "name": "_percentStackConversion",
          "type": "uint256"
        },
        {
          "internalType": "uint256",
          "name": "_percentStackAdvantage",
          "type": "uint256"
        }
      ],
      "name": "initialize",
      "outputs": [],
      "stateMutability": "nonpayable",
      "type": "function"
    },
    {
      "inputs": [],
      "name": "paused",
      "outputs": [
        {
          "internalType": "bool",
          "name": "",
          "type": "bool"
        }
      ],
      "stateMutability": "view",
      "type": "function"
    },
    {
      "inputs": [],
      "name": "percentStackAdvantage",
      "outputs": [
        {
          "internalType": "uint256",
          "name": "",
          "type": "uint256"
        }
      ],
      "stateMutability": "view",
      "type": "function"
    },
    {
      "inputs": [],
      "name": "percentStackConversion",
      "outputs": [
        {
          "internalType": "uint256",
          "name": "",
          "type": "uint256"
        }
      ],
      "stateMutability": "view",
      "type": "function"
    },
    {
      "inputs": [
        {
          "internalType": "contract IERC1155Upgradeable",
          "name": "token",
          "type": "address"
        },
        {
          "internalType": "uint256",
          "name": "tokenId",
          "type": "uint256"
        },
        {
          "internalType": "uint256",
          "name": "amount",
          "type": "uint256"
        }
      ],
      "name": "recoverERC1155",
      "outputs": [],
      "stateMutability": "nonpayable",
      "type": "function"
    },
    {
      "inputs": [
        {
          "internalType": "contract IERC721Upgradeable",
          "name": "token",
          "type": "address"
        },
        {
          "internalType": "uint256",
          "name": "tokenId",
          "type": "uint256"
        }
      ],
      "name": "recoverERC721",
      "outputs": [],
      "stateMutability": "nonpayable",
      "type": "function"
    },
    {
      "inputs": [
        {
          "internalType": "uint256",
          "name": "amount",
          "type": "uint256"
        }
      ],
      "name": "recoverETH",
      "outputs": [],
      "stateMutability": "nonpayable",
      "type": "function"
    },
    {
      "inputs": [
        {
          "internalType": "contract IERC20Upgradeable",
          "name": "token",
          "type": "address"
        }
      ],
      "name": "recoverTokens",
      "outputs": [],
      "stateMutability": "nonpayable",
      "type": "function"
    },
    {
      "inputs": [
        {
          "internalType": "bytes32",
          "name": "role",
          "type": "bytes32"
        },
        {
          "internalType": "address",
          "name": "account",
          "type": "address"
        }
      ],
      "name": "renounceRole",
      "outputs": [],
      "stateMutability": "nonpayable",
      "type": "function"
    },
    {
      "inputs": [
        {
          "internalType": "bytes32",
          "name": "role",
          "type": "bytes32"
        },
        {
          "internalType": "address",
          "name": "account",
          "type": "address"
        }
      ],
      "name": "revokeRole",
      "outputs": [],
      "stateMutability": "nonpayable",
      "type": "function"
    },
    {
      "inputs": [
        {
          "internalType": "uint256",
          "name": "_amountXCT",
          "type": "uint256"
        }
      ],
      "name": "sellXCT",
      "outputs": [
        {
          "internalType": "uint256",
          "name": "",
          "type": "uint256"
        }
      ],
      "stateMutability": "nonpayable",
      "type": "function"
    },
    {
      "inputs": [
        {
          "internalType": "uint256",
          "name": "_percentStackConversion",
          "type": "uint256"
        },
        {
          "internalType": "uint256",
          "name": "_percentStackAdvantage",
          "type": "uint256"
        }
      ],
      "name": "setPercentStack",
      "outputs": [],
      "stateMutability": "nonpayable",
      "type": "function"
    },
    {
      "inputs": [
        {
          "internalType": "uint256",
          "name": "_slippage",
          "type": "uint256"
        }
      ],
      "name": "setSlippage",
      "outputs": [],
      "stateMutability": "nonpayable",
      "type": "function"
    },
    {
      "inputs": [
        {
          "internalType": "address",
          "name": "_new_treasury_address",
          "type": "address"
        }
      ],
      "name": "setTreasuryAddress",
      "outputs": [],
      "stateMutability": "nonpayable",
      "type": "function"
    },
    {
      "inputs": [],
      "name": "slippage",
      "outputs": [
        {
          "internalType": "uint256",
          "name": "",
          "type": "uint256"
        }
      ],
      "stateMutability": "view",
      "type": "function"
    },
    {
      "inputs": [
        {
          "internalType": "bytes4",
          "name": "interfaceId",
          "type": "bytes4"
        }
      ],
      "name": "supportsInterface",
      "outputs": [
        {
          "internalType": "bool",
          "name": "",
          "type": "bool"
        }
      ],
      "stateMutability": "view",
      "type": "function"
    },
    {
      "inputs": [],
      "name": "totalXCTMints",
      "outputs": [
        {
          "internalType": "uint256",
          "name": "",
          "type": "uint256"
        }
      ],
      "stateMutability": "view",
      "type": "function"
    }
  ],
  "bytecode": "0x608060405234801561001057600080fd5b50612b56806100206000396000f3fe6080604052600436106101b75760003560e01c80636605bfda116100ec578063ce85df171161008a578063db53983411610064578063db539834146104c3578063df5377fe146104e3578063f0fa55a914610503578063fee854e414610523576101b7565b8063ce85df171461046c578063d333555314610483578063d547741f146104a3576101b7565b806391d14854116100c657806391d14854146103f7578063a217fddf14610417578063ad5c46481461042c578063cbaa1d9b1461044c576101b7565b80636605bfda14610397578063819d4cc6146103b75780638de99ead146103d7576101b7565b8063297bdfc8116101595780633e032a3b116101335780633e032a3b1461034057806345a269f3146103575780634cf9f779146103775780635c975abb1461037f576101b7565b8063297bdfc8146102e05780632f2ff15d1461030057806336568abe14610320576101b7565b806316114acd1161019557806316114acd1461025757806318ab51d91461027957806318d685f614610290578063248a9ca3146102b0576101b7565b806301ffc9a7146101bc578063068c081e146101f157806307604b1a1461021f575b600080fd5b3480156101c857600080fd5b506101dc6101d7366004612628565b61053a565b60405190151581526020015b60405180910390f35b3480156101fd57600080fd5b5061021161020c3660046124d7565b610573565b6040519081526020016101e8565b34801561022b57600080fd5b5060ff5461023f906001600160a01b031681565b6040516001600160a01b0390911681526020016101e8565b34801561026357600080fd5b506102776102723660046124bb565b610704565b005b34801561028557600080fd5b506102116101035481565b34801561029c57600080fd5b506102116102ab3660046125e1565b6107a1565b3480156102bc57600080fd5b506102116102cb3660046125e1565b60009081526065602052604090206001015490565b3480156102ec57600080fd5b506102116102fb3660046124d7565b610937565b34801561030c57600080fd5b5061027761031b3660046125f9565b610fd8565b34801561032c57600080fd5b5061027761033b3660046125f9565b611002565b34801561034c57600080fd5b506102116101025481565b34801561036357600080fd5b506102116103723660046125e1565b61107c565b610211611207565b34801561038b57600080fd5b5060975460ff166101dc565b3480156103a357600080fd5b506102776103b23660046124bb565b61183a565b3480156103c357600080fd5b506102776103d2366004612724565b6118e8565b3480156103e357600080fd5b506102776103f236600461274e565b61195e565b34801561040357600080fd5b506101dc6104123660046125f9565b6119f7565b34801561042357600080fd5b50610211600081565b34801561043857600080fd5b5060fe5461023f906001600160a01b031681565b34801561045857600080fd5b50610277610467366004612650565b611a22565b34801561047857600080fd5b506102116101055481565b34801561048f57600080fd5b5061027761049e3660046125e1565b611ab9565b3480156104af57600080fd5b506102776104be3660046125f9565b611af1565b3480156104cf57600080fd5b506102116104de3660046125e1565b611b16565b3480156104ef57600080fd5b506102776104fe366004612684565b611bdc565b34801561050f57600080fd5b5061027761051e3660046125e1565b611d2d565b34801561052f57600080fd5b506102116101045481565b60006001600160e01b03198216637965db0b60e01b148061056b57506301ffc9a760e01b6001600160e01b03198316145b90505b919050565b6040805160028082526060820183526000928392919060208301908036833701905050905083816000815181106105ba57634e487b7160e01b600052603260045260246000fd5b6001600160a01b03928316602091820292909201015260fd548251911690829060019081106105f957634e487b7160e01b600052603260045260246000fd5b60200260200101906001600160a01b031690816001600160a01b031681525050600061010354620186a061062d9190612a81565b610100549091506000906001600160a01b031663d06ca61f61065c620186a06106568987611d90565b90611da3565b856040518363ffffffff1660e01b815260040161067a9291906129a0565b60006040518083038186803b15801561069257600080fd5b505afa1580156106a6573d6000803e3d6000fd5b505050506040513d6000823e601f3d908101601f191682016040526106ce9190810190612502565b9050806001815181106106f157634e487b7160e01b600052603260045260246000fd5b6020026020010151935050505092915050565b600061070f81611daf565b6040516370a0823160e01b815230600482015261079d9033906001600160a01b038516906370a082319060240160206040518083038186803b15801561075457600080fd5b505afa158015610768573d6000803e3d6000fd5b505050506040513d601f19601f8201168201806040525081019061078c9190612736565b6001600160a01b0385169190611dbc565b5050565b60408051600280825260608201835260009283929190602083019080368337505060fe5482519293506001600160a01b0316918391506000906107f457634e487b7160e01b600052603260045260246000fd5b6001600160a01b03928316602091820292909201015260fd5482519116908290600190811061083357634e487b7160e01b600052603260045260246000fd5b60200260200101906001600160a01b031690816001600160a01b031681525050600061010354620186a06108679190612a81565b610100549091506000906001600160a01b031663d06ca61f610890620186a06106568987611d90565b856040518363ffffffff1660e01b81526004016108ae9291906129a0565b60006040518083038186803b1580156108c657600080fd5b505afa1580156108da573d6000803e3d6000fd5b505050506040513d6000823e601f3d908101601f191682016040526109029190810190612502565b90508060018151811061092557634e487b7160e01b600052603260045260246000fd5b60200260200101519350505050919050565b6000600260c95414156109655760405162461bcd60e51b815260040161095c90612969565b60405180910390fd5b600260c95560975460ff161561098d5760405162461bcd60e51b815260040161095c906128a6565b60405163a9059cbb60e01b8152306004820152602481018390526001600160a01b0384169063a9059cbb90604401602060405180830381600087803b1580156109d557600080fd5b505af11580156109e9573d6000803e3d6000fd5b505050506040513d601f19601f82011682018060405250810190610a0d91906125c1565b506101005460405163095ea7b360e01b81526001600160a01b039182166004820152602481018490529084169063095ea7b390604401602060405180830381600087803b158015610a5d57600080fd5b505af1158015610a71573d6000803e3d6000fd5b505050506040513d601f19601f82011682018060405250810190610a9591906125c1565b506101035460fb546001600160a01b0385811691161415610ab65750610104545b6000610ace6103e8610656620186a061010254611e0e565b60408051600280825260608201835292935060009290916020830190803683370190505090508581600081518110610b1657634e487b7160e01b600052603260045260246000fd5b6001600160a01b03928316602091820292909201015260fb54825191169082906001908110610b5557634e487b7160e01b600052603260045260246000fd5b6001600160a01b03909216602092830291909101909101526000610b80620186a06106568887611d90565b610100549091506000906001600160a01b031663d06ca61f610ba9620186a0610656868a611d90565b856040518363ffffffff1660e01b8152600401610bc79291906129a0565b60006040518083038186803b158015610bdf57600080fd5b505afa158015610bf3573d6000803e3d6000fd5b505050506040513d6000823e601f3d908101601f19168201604052610c1b9190810190612502565b905061010060009054906101000a90046001600160a01b03166001600160a01b0316635c11d79583610c8360646106568987600181518110610c6d57634e487b7160e01b600052603260045260246000fd5b6020026020010151611d9090919063ffffffff16565b60ff546040516001600160e01b031960e086901b168152610cb893929189916001600160a01b039091169042906004016129ee565b600060405180830381600087803b158015610cd257600080fd5b505af1158015610ce6573d6000803e3d6000fd5b506000925060029150610cf69050565b604051908082528060200260200182016040528015610d1f578160200160208202803683370190505b5090508881600081518110610d4457634e487b7160e01b600052603260045260246000fd5b6001600160a01b03928316602091820292909201015260fd54825191169082906001908110610d8357634e487b7160e01b600052603260045260246000fd5b6001600160a01b03909216602092830291909101909101526000610db8620186a0610656610db18a83612a81565b8c90611d90565b610100549091506000906001600160a01b031663d06ca61f610deb620186a0610656610de48d83612a81565b8790611d90565b856040518363ffffffff1660e01b8152600401610e099291906129a0565b60006040518083038186803b158015610e2157600080fd5b505afa158015610e35573d6000803e3d6000fd5b505050506040513d6000823e601f3d908101601f19168201604052610e5d9190810190612502565b905061010060009054906101000a90046001600160a01b03166001600160a01b0316635c11d79583610eaf60646106568c87600181518110610c6d57634e487b7160e01b600052603260045260246000fd5b8630426040518663ffffffff1660e01b8152600401610ed29594939291906129ee565b600060405180830381600087803b158015610eec57600080fd5b505af1158015610f00573d6000803e3d6000fd5b505060fc546040516340c10f1960e01b8152336004820152602481018690526001600160a01b0390911692506340c10f199150604401600060405180830381600087803b158015610f5057600080fd5b505af1158015610f64573d6000803e3d6000fd5b505061010554610f779250905083611e1a565b61010555604080516001600160a01b038d168152602081018c90529081018390527f05b4560402420bd8983c57afad300174b00fa77c937eb6198910a65c4a8db6449060600160405180910390a150600160c9559998505050505050505050565b600082815260656020526040902060010154610ff381611daf565b610ffd8383611e26565b505050565b6001600160a01b03811633146110725760405162461bcd60e51b815260206004820152602f60248201527f416363657373436f6e74726f6c3a2063616e206f6e6c792072656e6f756e636560448201526e103937b632b9903337b91039b2b63360891b606482015260840161095c565b61079d8282611eac565b6000600260c95414156110a15760405162461bcd60e51b815260040161095c90612969565b600260c95560975460ff16156110c95760405162461bcd60e51b815260040161095c906128a6565b60fc54604051632770a7eb60e21b8152336004820152602481018490526001600160a01b0390911690639dc29fac90604401600060405180830381600087803b15801561111557600080fd5b505af1158015611129573d6000803e3d6000fd5b50506101055461113c9250905083611e0e565b6101055560fd5460405163a9059cbb60e01b8152336004820152602481018490526001600160a01b039091169063a9059cbb90604401602060405180830381600087803b15801561118c57600080fd5b505af11580156111a0573d6000803e3d6000fd5b505050506040513d601f19601f820116820180604052508101906111c491906125c1565b5060408051338152602081018490527fa611e76fdd534cbb8994ccdb04fbaffc3a629c8e75dc92ecd3882889087ac9de910160405180910390a150600160c95590565b6000600260c954141561122c5760405162461bcd60e51b815260040161095c90612969565b600260c95560975460ff16156112545760405162461bcd60e51b815260040161095c906128a6565b60fe546101005460405163095ea7b360e01b81526001600160a01b03918216600482015234602482015291169063095ea7b390604401602060405180830381600087803b1580156112a457600080fd5b505af11580156112b8573d6000803e3d6000fd5b505050506040513d601f19601f820116820180604052508101906112dc91906125c1565b5060006112f56103e8610656620186a061010254611e0e565b6040805160028082526060820183529293506000929091602083019080368337505060fe5482519293506001600160a01b03169183915060009061134957634e487b7160e01b600052603260045260246000fd5b6001600160a01b03928316602091820292909201015260fb5482519116908290600190811061138857634e487b7160e01b600052603260045260246000fd5b60200260200101906001600160a01b031690816001600160a01b03168152505060006113c7620186a06106566101035434611d9090919063ffffffff16565b61010054610103549192506000916001600160a01b039091169063d06ca61f906113fb90620186a090610656908790611d90565b856040518363ffffffff1660e01b81526004016114199291906129a0565b60006040518083038186803b15801561143157600080fd5b505afa158015611445573d6000803e3d6000fd5b505050506040513d6000823e601f3d908101601f1916820160405261146d9190810190612502565b905061010060009054906101000a90046001600160a01b03166001600160a01b031663b6f9de95836114bf60646106568987600181518110610c6d57634e487b7160e01b600052603260045260246000fd5b60ff546040516001600160e01b031960e086901b1681526114f3929189916001600160a01b039091169042906004016129b9565b6000604051808303818588803b15801561150c57600080fd5b505af1158015611520573d6000803e3d6000fd5b506000935060029250611531915050565b60405190808252806020026020018201604052801561155a578160200160208202803683370190505b5060fe5481519192506001600160a01b031690829060009061158c57634e487b7160e01b600052603260045260246000fd5b6001600160a01b03928316602091820292909201015260fd548251911690829060019081106115cb57634e487b7160e01b600052603260045260246000fd5b60200260200101906001600160a01b031690816001600160a01b0316815250506000611610620186a061065661010354620186a06116099190612a81565b3490611d90565b61010054610103549192506000916001600160a01b039091169063d06ca61f9061164e90620186a090610656906116479083612a81565b8a90611d90565b856040518363ffffffff1660e01b815260040161166c9291906129a0565b60006040518083038186803b15801561168457600080fd5b505afa158015611698573d6000803e3d6000fd5b505050506040513d6000823e601f3d908101601f191682016040526116c09190810190612502565b905061010060009054906101000a90046001600160a01b03166001600160a01b031663b6f9de958361171260646106568c87600181518110610c6d57634e487b7160e01b600052603260045260246000fd5b8630426040518663ffffffff1660e01b815260040161173494939291906129b9565b6000604051808303818588803b15801561174d57600080fd5b505af1158015611761573d6000803e3d6000fd5b505060fc546040516340c10f1960e01b8152336004820152602481018790526001600160a01b0390911693506340c10f1992506044019050600060405180830381600087803b1580156117b357600080fd5b505af11580156117c7573d6000803e3d6000fd5b5050610105546117da9250905083611e1a565b6101055560fe54604080516001600160a01b03909216825234602083015281018390527f05b4560402420bd8983c57afad300174b00fa77c937eb6198910a65c4a8db6449060600160405180910390a15095505050505050600160c95590565b600061184581611daf565b6001600160a01b0382166118925760405162461bcd60e51b815260206004820152601460248201527343616e74206265207a65726f206164647265737360601b604482015260640161095c565b60ff80546001600160a01b0319166001600160a01b0384169081179091556040519081527f9073dfac663173e64aa95665faedae52e2246f9bcdd3890fbfaf6733b46bba13906020015b60405180910390a15050565b60006118f381611daf565b604051632142170760e11b8152306004820152336024820152604481018390526001600160a01b038416906342842e0e90606401600060405180830381600087803b15801561194157600080fd5b505af1158015611955573d6000803e3d6000fd5b50505050505050565b600061196981611daf565b620186a0831061198b5760405162461bcd60e51b815260040161095c90612876565b620186a082106119ad5760405162461bcd60e51b815260040161095c90612876565b61010383905561010482905560408051848152602081018490527f171d770c0ea5b3f386263a281ac79f8d22595c8d574541864ef20c9a0eab1fd9910160405180910390a1505050565b60009182526065602090815260408084206001600160a01b0393909316845291905290205460ff1690565b6000611a2d81611daf565b604051637921219560e11b8152306004820152336024820152604481018490526064810183905260a06084820152600260a482015261060f60f31b60c48201526001600160a01b0385169063f242432a9060e401600060405180830381600087803b158015611a9b57600080fd5b505af1158015611aaf573d6000803e3d6000fd5b5050505050505050565b6000611ac481611daf565b604051339083156108fc029084906000818181858888f19350505050158015610ffd573d6000803e3d6000fd5b600082815260656020526040902060010154611b0c81611daf565b610ffd8383611eac565b60408051600280825260608201835260009283929190602083019080368337505060fb5482519293506001600160a01b031691839150600090611b6957634e487b7160e01b600052603260045260246000fd5b6001600160a01b03928316602091820292909201015260fd54825191169082906001908110611ba857634e487b7160e01b600052603260045260246000fd5b60200260200101906001600160a01b031690816001600160a01b031681525050600061010454620186a06108679190612a81565b6000611be86001611f13565b90508015611c00576000805461ff0019166101001790555b611c08611f98565b611c10611fc1565b611c18611ff4565b61010080546001600160a01b0319908116737a250d5630b4cf539739df2c5dacb4c659f2488d179091556101018054909116735c69bee701ef814a2b6a3edd4b1652cb9cc5aa6f179055611c6d600088611e26565b60fb80546001600160a01b03199081166001600160a01b038d81169190911790925560fc805482168c841617905560fd805482168b841617905560fe8054821689841617905560ff80549091169187169190911790556000610105556101028490556101038390556101048290558015611d21576000805461ff0019169055604051600181527f7f26b83ff96e1f2b6a682f133852f6798a09c465da95921460cefb38474024989060200160405180910390a15b50505050505050505050565b6000611d3881611daf565b620186a08210611d5a5760405162461bcd60e51b815260040161095c90612876565b6101028290556040518281527f1a89170b7100a37f2e1a8bca9d866cd3f6d666800bfb0fa8dd82f0b2193c926f906020016118dc565b6000611d9c8284612a62565b9392505050565b6000611d9c8284612a42565b611db98133612022565b50565b604080516001600160a01b038416602482015260448082018490528251808303909101815260649091019091526020810180516001600160e01b031663a9059cbb60e01b179052610ffd908490612086565b6000611d9c8284612a81565b6000611d9c8284612a2a565b611e3082826119f7565b61079d5760008281526065602090815260408083206001600160a01b03851684529091529020805460ff19166001179055611e683390565b6001600160a01b0316816001600160a01b0316837f2f8788117e7eff1d82e926ec794901d17c78024a50270940304540a733656f0d60405160405180910390a45050565b611eb682826119f7565b1561079d5760008281526065602090815260408083206001600160a01b0385168085529252808320805460ff1916905551339285917ff6391f5c32d9c69d2a47ea670b442974b53935d1edc7fd64eb21e047a839171b9190a45050565b60008054610100900460ff1615611f5a578160ff166001148015611f365750303b155b611f525760405162461bcd60e51b815260040161095c906128d0565b50600061056e565b60005460ff808416911610611f815760405162461bcd60e51b815260040161095c906128d0565b506000805460ff191660ff8316179055600161056e565b600054610100900460ff16611fbf5760405162461bcd60e51b815260040161095c9061291e565b565b600054610100900460ff16611fe85760405162461bcd60e51b815260040161095c9061291e565b6097805460ff19169055565b600054610100900460ff1661201b5760405162461bcd60e51b815260040161095c9061291e565b600160c955565b61202c82826119f7565b61079d57612044816001600160a01b03166014612158565b61204f836020612158565b6040516020016120609291906127ce565b60408051601f198184030181529082905262461bcd60e51b825261095c91600401612843565b60006120db826040518060400160405280602081526020017f5361666545524332303a206c6f772d6c6576656c2063616c6c206661696c6564815250856001600160a01b031661233a9092919063ffffffff16565b805190915015610ffd57808060200190518101906120f991906125c1565b610ffd5760405162461bcd60e51b815260206004820152602a60248201527f5361666545524332303a204552433230206f7065726174696f6e20646964206e6044820152691bdd081cdd58d8d9595960b21b606482015260840161095c565b60606000612167836002612a62565b612172906002612a2a565b67ffffffffffffffff81111561219857634e487b7160e01b600052604160045260246000fd5b6040519080825280601f01601f1916602001820160405280156121c2576020820181803683370190505b509050600360fc1b816000815181106121eb57634e487b7160e01b600052603260045260246000fd5b60200101906001600160f81b031916908160001a905350600f60fb1b8160018151811061222857634e487b7160e01b600052603260045260246000fd5b60200101906001600160f81b031916908160001a905350600061224c846002612a62565b612257906001612a2a565b90505b60018111156122eb576f181899199a1a9b1b9c1cb0b131b232b360811b85600f166010811061229957634e487b7160e01b600052603260045260246000fd5b1a60f81b8282815181106122bd57634e487b7160e01b600052603260045260246000fd5b60200101906001600160f81b031916908160001a90535060049490941c936122e481612ac8565b905061225a565b508315611d9c5760405162461bcd60e51b815260206004820181905260248201527f537472696e67733a20686578206c656e67746820696e73756666696369656e74604482015260640161095c565b60606123498484600085612351565b949350505050565b6060824710156123b25760405162461bcd60e51b815260206004820152602660248201527f416464726573733a20696e73756666696369656e742062616c616e636520666f6044820152651c8818d85b1b60d21b606482015260840161095c565b6001600160a01b0385163b6124095760405162461bcd60e51b815260206004820152601d60248201527f416464726573733a2063616c6c20746f206e6f6e2d636f6e7472616374000000604482015260640161095c565b600080866001600160a01b0316858760405161242591906127b2565b60006040518083038185875af1925050503d8060008114612462576040519150601f19603f3d011682016040523d82523d6000602084013e612467565b606091505b5091509150612477828286612482565b979650505050505050565b60608315612491575081611d9c565b8251156124a15782518084602001fd5b8160405162461bcd60e51b815260040161095c9190612843565b6000602082840312156124cc578081fd5b8135611d9c81612b0b565b600080604083850312156124e9578081fd5b82356124f481612b0b565b946020939093013593505050565b60006020808385031215612514578182fd5b825167ffffffffffffffff8082111561252b578384fd5b818501915085601f83011261253e578384fd5b81518181111561255057612550612af5565b838102604051601f19603f8301168101818110858211171561257457612574612af5565b604052828152858101935084860182860187018a1015612592578788fd5b8795505b838610156125b4578051855260019590950194938601938601612596565b5098975050505050505050565b6000602082840312156125d2578081fd5b81518015158114611d9c578182fd5b6000602082840312156125f2578081fd5b5035919050565b6000806040838503121561260b578182fd5b82359150602083013561261d81612b0b565b809150509250929050565b600060208284031215612639578081fd5b81356001600160e01b031981168114611d9c578182fd5b600080600060608486031215612664578081fd5b833561266f81612b0b565b95602085013595506040909401359392505050565b60008060008060008060008060006101208a8c0312156126a2578485fd5b89356126ad81612b0b565b985060208a01356126bd81612b0b565b975060408a01356126cd81612b0b565b965060608a01356126dd81612b0b565b955060808a01356126ed81612b0b565b945060a08a01356126fd81612b0b565b8094505060c08a0135925060e08a013591506101008a013590509295985092959850929598565b600080604083850312156124e9578182fd5b600060208284031215612747578081fd5b5051919050565b60008060408385031215612760578182fd5b50508035926020909101359150565b6000815180845260208085019450808401835b838110156127a75781516001600160a01b031687529582019590820190600101612782565b509495945050505050565b600082516127c4818460208701612a98565b9190910192915050565b60007f416363657373436f6e74726f6c3a206163636f756e742000000000000000000082528351612806816017850160208801612a98565b7001034b99036b4b9b9b4b733903937b6329607d1b6017918401918201528351612837816028840160208801612a98565b01602801949350505050565b6000602082528251806020840152612862816040850160208701612a98565b601f01601f19169190910160400192915050565b60208082526016908201527543616e74206265206d6f7265207468616e203130302560501b604082015260600190565b60208082526010908201526f14185d5cd8589b194e881c185d5cd95960821b604082015260600190565b6020808252602e908201527f496e697469616c697a61626c653a20636f6e747261637420697320616c72656160408201526d191e481a5b9a5d1a585b1a5e995960921b606082015260800190565b6020808252602b908201527f496e697469616c697a61626c653a20636f6e7472616374206973206e6f74206960408201526a6e697469616c697a696e6760a81b606082015260800190565b6020808252601f908201527f5265656e7472616e637947756172643a207265656e7472616e742063616c6c00604082015260600190565b600083825260406020830152612349604083018461276f565b6000858252608060208301526129d2608083018661276f565b6001600160a01b03949094166040830152506060015292915050565b600086825285602083015260a06040830152612a0d60a083018661276f565b6001600160a01b0394909416606083015250608001529392505050565b60008219821115612a3d57612a3d612adf565b500190565b600082612a5d57634e487b7160e01b81526012600452602481fd5b500490565b6000816000190483118215151615612a7c57612a7c612adf565b500290565b600082821015612a9357612a93612adf565b500390565b60005b83811015612ab3578181015183820152602001612a9b565b83811115612ac2576000848401525b50505050565b600081612ad757612ad7612adf565b506000190190565b634e487b7160e01b600052601160045260246000fd5b634e487b7160e01b600052604160045260246000fd5b6001600160a01b0381168114611db957600080fdfea2646970667358221220fce3172a5bc944af2218020f7b6d49e29d715ea3f7e65cc66143bd4d9805c71264736f6c63430008020033",
  "linkReferences": {},
  "deployedLinkReferences": {}
}