{
  "_format": "hh-sol-artifact-1",
  "contractName": "XCTMinter",
  "sourceName": "contracts/XCTMinter.sol",
  "abi": [
    {
      "anonymous": false,
      "inputs": [
        {
          "indexed": false,
          "internalType": "contract IERC20Upgradeable",
          "name": "oldStackAddress",
          "type": "address"
        },
        {
          "indexed": false,
          "internalType": "contract IERC20Upgradeable",
          "name": "newStackAddress",
          "type": "address"
        }
      ],
      "name": "ChangedStackTokenAddress",
      "type": "event"
    },
    {
      "anonymous": false,
      "inputs": [
        {
          "indexed": false,
          "internalType": "uint8",
          "name": "version",
          "type": "uint8"
        }
      ],
      "name": "Initialized",
      "type": "event"
    },
    {
      "anonymous": false,
      "inputs": [
        {
          "indexed": false,
          "internalType": "address",
          "name": "account",
          "type": "address"
        }
      ],
      "name": "Paused",
      "type": "event"
    },
    {
      "anonymous": false,
      "inputs": [
        {
          "indexed": false,
          "internalType": "uint256",
          "name": "percentStackConversion",
          "type": "uint256"
        },
        {
          "indexed": false,
          "internalType": "uint256",
          "name": "percentStackAdvantage",
          "type": "uint256"
        }
      ],
      "name": "PercentStackSet",
      "type": "event"
    },
    {
      "anonymous": false,
      "inputs": [
        {
          "indexed": true,
          "internalType": "bytes32",
          "name": "role",
          "type": "bytes32"
        },
        {
          "indexed": true,
          "internalType": "bytes32",
          "name": "previousAdminRole",
          "type": "bytes32"
        },
        {
          "indexed": true,
          "internalType": "bytes32",
          "name": "newAdminRole",
          "type": "bytes32"
        }
      ],
      "name": "RoleAdminChanged",
      "type": "event"
    },
    {
      "anonymous": false,
      "inputs": [
        {
          "indexed": true,
          "internalType": "bytes32",
          "name": "role",
          "type": "bytes32"
        },
        {
          "indexed": true,
          "internalType": "address",
          "name": "account",
          "type": "address"
        },
        {
          "indexed": true,
          "internalType": "address",
          "name": "sender",
          "type": "address"
        }
      ],
      "name": "RoleGranted",
      "type": "event"
    },
    {
      "anonymous": false,
      "inputs": [
        {
          "indexed": true,
          "internalType": "bytes32",
          "name": "role",
          "type": "bytes32"
        },
        {
          "indexed": true,
          "internalType": "address",
          "name": "account",
          "type": "address"
        },
        {
          "indexed": true,
          "internalType": "address",
          "name": "sender",
          "type": "address"
        }
      ],
      "name": "RoleRevoked",
      "type": "event"
    },
    {
      "anonymous": false,
      "inputs": [
        {
          "indexed": false,
          "internalType": "uint256",
          "name": "slippage",
          "type": "uint256"
        }
      ],
      "name": "SlippageSet",
      "type": "event"
    },
    {
      "anonymous": false,
      "inputs": [
        {
          "indexed": false,
          "internalType": "address",
          "name": "treasury_address",
          "type": "address"
        }
      ],
      "name": "TreasuryAddressChanged",
      "type": "event"
    },
    {
      "anonymous": false,
      "inputs": [
        {
          "indexed": false,
          "internalType": "address",
          "name": "account",
          "type": "address"
        }
      ],
      "name": "Unpaused",
      "type": "event"
    },
    {
      "anonymous": false,
      "inputs": [
        {
          "indexed": false,
          "internalType": "address",
          "name": "TokenAddress",
          "type": "address"
        },
        {
          "indexed": false,
          "internalType": "uint256",
          "name": "tokenAmount",
          "type": "uint256"
        },
        {
          "indexed": false,
          "internalType": "uint256",
          "name": "XCTAmount",
          "type": "uint256"
        }
      ],
      "name": "XCTBought",
      "type": "event"
    },
    {
      "anonymous": false,
      "inputs": [
        {
          "indexed": false,
          "internalType": "address",
          "name": "account",
          "type": "address"
        },
        {
          "indexed": false,
          "internalType": "uint256",
          "name": "tokens",
          "type": "uint256"
        }
      ],
      "name": "XCTSold",
      "type": "event"
    },
    {
      "inputs": [],
      "name": "DEFAULT_ADMIN_ROLE",
      "outputs": [
        {
          "internalType": "bytes32",
          "name": "",
          "type": "bytes32"
        }
      ],
      "stateMutability": "view",
      "type": "function"
    },
    {
      "inputs": [],
      "name": "TREASURY_ADDRESS",
      "outputs": [
        {
          "internalType": "address",
          "name": "",
          "type": "address"
        }
      ],
      "stateMutability": "view",
      "type": "function"
    },
    {
      "inputs": [],
      "name": "WETH",
      "outputs": [
        {
          "internalType": "address",
          "name": "",
          "type": "address"
        }
      ],
      "stateMutability": "view",
      "type": "function"
    },
    {
      "inputs": [
        {
          "internalType": "address",
          "name": "_token",
          "type": "address"
        },
        {
          "internalType": "uint256",
          "name": "_tokenAmount",
          "type": "uint256"
        }
      ],
      "name": "buyXCT",
      "outputs": [
        {
          "internalType": "uint256",
          "name": "XCTamount",
          "type": "uint256"
        }
      ],
      "stateMutability": "nonpayable",
      "type": "function"
    },
    {
      "inputs": [
        {
          "internalType": "contract IERC20Upgradeable",
          "name": "_newStackToken",
          "type": "address"
        }
      ],
      "name": "changeStackTokenAddress",
      "outputs": [],
      "stateMutability": "nonpayable",
      "type": "function"
    },
    {
      "inputs": [],
      "name": "easyBuyXCT",
      "outputs": [
        {
          "internalType": "uint256",
          "name": "XCTamount",
          "type": "uint256"
        }
      ],
      "stateMutability": "payable",
      "type": "function"
    },
    {
      "inputs": [
        {
          "internalType": "uint256",
          "name": "_amount",
          "type": "uint256"
        }
      ],
      "name": "estimateBuy",
      "outputs": [
        {
          "internalType": "uint256",
          "name": "",
          "type": "uint256"
        }
      ],
      "stateMutability": "view",
      "type": "function"
    },
    {
      "inputs": [
        {
          "internalType": "address",
          "name": "_token",
          "type": "address"
        },
        {
          "internalType": "uint256",
          "name": "_tokensAmount",
          "type": "uint256"
        }
      ],
      "name": "estimateBuyFromAnyToken",
      "outputs": [
        {
          "internalType": "uint256",
          "name": "",
          "type": "uint256"
        }
      ],
      "stateMutability": "view",
      "type": "function"
    },
    {
      "inputs": [
        {
          "internalType": "uint256",
          "name": "_stackTokensAmount",
          "type": "uint256"
        }
      ],
      "name": "estimateBuyFromStack",
      "outputs": [
        {
          "internalType": "uint256",
          "name": "",
          "type": "uint256"
        }
      ],
      "stateMutability": "view",
      "type": "function"
    },
    {
      "inputs": [
        {
          "internalType": "bytes32",
          "name": "role",
          "type": "bytes32"
        }
      ],
      "name": "getRoleAdmin",
      "outputs": [
        {
          "internalType": "bytes32",
          "name": "",
          "type": "bytes32"
        }
      ],
      "stateMutability": "view",
      "type": "function"
    },
    {
      "inputs": [
        {
          "internalType": "bytes32",
          "name": "role",
          "type": "bytes32"
        },
        {
          "internalType": "address",
          "name": "account",
          "type": "address"
        }
      ],
      "name": "grantRole",
      "outputs": [],
      "stateMutability": "nonpayable",
      "type": "function"
    },
    {
      "inputs": [
        {
          "internalType": "bytes32",
          "name": "role",
          "type": "bytes32"
        },
        {
          "internalType": "address",
          "name": "account",
          "type": "address"
        }
      ],
      "name": "hasRole",
      "outputs": [
        {
          "internalType": "bool",
          "name": "",
          "type": "bool"
        }
      ],
      "stateMutability": "view",
      "type": "function"
    },
    {
      "inputs": [
        {
          "internalType": "contract IERC20Upgradeable",
          "name": "_StackToken",
          "type": "address"
        },
        {
          "internalType": "contract IERC20Mintable",
          "name": "_XCTToken",
          "type": "address"
        },
        {
          "internalType": "contract IERC20Upgradeable",
          "name": "_USDCToken",
          "type": "address"
        },
        {
          "internalType": "address",
          "name": "_admin",
          "type": "address"
        },
        {
          "internalType": "address",
          "name": "_WETH",
          "type": "address"
        },
        {
          "internalType": "address",
          "name": "_TREASURY_ADDRESS",
          "type": "address"
        },
        {
          "internalType": "uint256",
          "name": "_slippage",
          "type": "uint256"
        },
        {
          "internalType": "uint256",
          "name": "_percentStackConversion",
          "type": "uint256"
        },
        {
          "internalType": "uint256",
          "name": "_percentStackAdvantage",
          "type": "uint256"
        }
      ],
      "name": "initialize",
      "outputs": [],
      "stateMutability": "nonpayable",
      "type": "function"
    },
    {
      "inputs": [],
      "name": "paused",
      "outputs": [
        {
          "internalType": "bool",
          "name": "",
          "type": "bool"
        }
      ],
      "stateMutability": "view",
      "type": "function"
    },
    {
      "inputs": [],
      "name": "percentStackAdvantage",
      "outputs": [
        {
          "internalType": "uint256",
          "name": "",
          "type": "uint256"
        }
      ],
      "stateMutability": "view",
      "type": "function"
    },
    {
      "inputs": [],
      "name": "percentStackConversion",
      "outputs": [
        {
          "internalType": "uint256",
          "name": "",
          "type": "uint256"
        }
      ],
      "stateMutability": "view",
      "type": "function"
    },
    {
      "inputs": [
        {
          "internalType": "contract IERC1155Upgradeable",
          "name": "token",
          "type": "address"
        },
        {
          "internalType": "uint256",
          "name": "tokenId",
          "type": "uint256"
        },
        {
          "internalType": "uint256",
          "name": "amount",
          "type": "uint256"
        }
      ],
      "name": "recoverERC1155",
      "outputs": [],
      "stateMutability": "nonpayable",
      "type": "function"
    },
    {
      "inputs": [
        {
          "internalType": "contract IERC721Upgradeable",
          "name": "token",
          "type": "address"
        },
        {
          "internalType": "uint256",
          "name": "tokenId",
          "type": "uint256"
        }
      ],
      "name": "recoverERC721",
      "outputs": [],
      "stateMutability": "nonpayable",
      "type": "function"
    },
    {
      "inputs": [
        {
          "internalType": "uint256",
          "name": "amount",
          "type": "uint256"
        }
      ],
      "name": "recoverETH",
      "outputs": [],
      "stateMutability": "nonpayable",
      "type": "function"
    },
    {
      "inputs": [
        {
          "internalType": "contract IERC20Upgradeable",
          "name": "token",
          "type": "address"
        }
      ],
      "name": "recoverTokens",
      "outputs": [],
      "stateMutability": "nonpayable",
      "type": "function"
    },
    {
      "inputs": [
        {
          "internalType": "bytes32",
          "name": "role",
          "type": "bytes32"
        },
        {
          "internalType": "address",
          "name": "account",
          "type": "address"
        }
      ],
      "name": "renounceRole",
      "outputs": [],
      "stateMutability": "nonpayable",
      "type": "function"
    },
    {
      "inputs": [
        {
          "internalType": "bytes32",
          "name": "role",
          "type": "bytes32"
        },
        {
          "internalType": "address",
          "name": "account",
          "type": "address"
        }
      ],
      "name": "revokeRole",
      "outputs": [],
      "stateMutability": "nonpayable",
      "type": "function"
    },
    {
      "inputs": [
        {
          "internalType": "uint256",
          "name": "_amountXCT",
          "type": "uint256"
        }
      ],
      "name": "sellXCT",
      "outputs": [
        {
          "internalType": "uint256",
          "name": "",
          "type": "uint256"
        }
      ],
      "stateMutability": "nonpayable",
      "type": "function"
    },
    {
      "inputs": [
        {
          "internalType": "uint256",
          "name": "_percentStackConversion",
          "type": "uint256"
        },
        {
          "internalType": "uint256",
          "name": "_percentStackAdvantage",
          "type": "uint256"
        }
      ],
      "name": "setPercentStack",
      "outputs": [],
      "stateMutability": "nonpayable",
      "type": "function"
    },
    {
      "inputs": [
        {
          "internalType": "uint256",
          "name": "_slippage",
          "type": "uint256"
        }
      ],
      "name": "setSlippage",
      "outputs": [],
      "stateMutability": "nonpayable",
      "type": "function"
    },
    {
      "inputs": [
        {
          "internalType": "address",
          "name": "_new_treasury_address",
          "type": "address"
        }
      ],
      "name": "setTreasuryAddress",
      "outputs": [],
      "stateMutability": "nonpayable",
      "type": "function"
    },
    {
      "inputs": [],
      "name": "slippage",
      "outputs": [
        {
          "internalType": "uint256",
          "name": "",
          "type": "uint256"
        }
      ],
      "stateMutability": "view",
      "type": "function"
    },
    {
      "inputs": [
        {
          "internalType": "bytes4",
          "name": "interfaceId",
          "type": "bytes4"
        }
      ],
      "name": "supportsInterface",
      "outputs": [
        {
          "internalType": "bool",
          "name": "",
          "type": "bool"
        }
      ],
      "stateMutability": "view",
      "type": "function"
    },
    {
      "inputs": [],
      "name": "totalXCTMintedByContract",
      "outputs": [
        {
          "internalType": "uint256",
          "name": "",
          "type": "uint256"
        }
      ],
      "stateMutability": "view",
      "type": "function"
    }
  ],
  "bytecode": "0x608060405234801561001057600080fd5b50613028806100206000396000f3fe6080604052600436106101c25760003560e01c80636605bfda116100f7578063d333555311610095578063e07335a211610064578063e07335a2146104f7578063eafab1d714610517578063f0fa55a91461052e578063fee854e41461054e576101c2565b8063d333555314610477578063d547741f14610497578063db539834146104b7578063df5377fe146104d7576101c2565b806391d14854116100d157806391d1485414610402578063a217fddf14610422578063ad5c464814610437578063cbaa1d9b14610457576101c2565b80636605bfda146103a2578063819d4cc6146103c25780638de99ead146103e2576101c2565b8063297bdfc8116101645780633e032a3b1161013e5780633e032a3b1461034b57806345a269f3146103625780634cf9f779146103825780635c975abb1461038a576101c2565b8063297bdfc8146102eb5780632f2ff15d1461030b57806336568abe1461032b576101c2565b806316114acd116101a057806316114acd1461026257806318ab51d91461028457806318d685f61461029b578063248a9ca3146102bb576101c2565b806301ffc9a7146101c7578063068c081e146101fc57806307604b1a1461022a575b600080fd5b3480156101d357600080fd5b506101e76101e2366004612afa565b610565565b60405190151581526020015b60405180910390f35b34801561020857600080fd5b5061021c6102173660046129a9565b61059e565b6040519081526020016101f3565b34801561023657600080fd5b5060ff5461024a906001600160a01b031681565b6040516001600160a01b0390911681526020016101f3565b34801561026e57600080fd5b5061028261027d36600461298d565b61076f565b005b34801561029057600080fd5b5061021c6101035481565b3480156102a757600080fd5b5061021c6102b6366004612ab3565b61080c565b3480156102c757600080fd5b5061021c6102d6366004612ab3565b60009081526065602052604090206001015490565b3480156102f757600080fd5b5061021c6103063660046129a9565b6109e1565b34801561031757600080fd5b50610282610326366004612acb565b6112c4565b34801561033757600080fd5b50610282610346366004612acb565b6112ee565b34801561035757600080fd5b5061021c6101025481565b34801561036e57600080fd5b5061021c61037d366004612ab3565b611368565b61021c6114f3565b34801561039657600080fd5b5060975460ff166101e7565b3480156103ae57600080fd5b506102826103bd36600461298d565b611b59565b3480156103ce57600080fd5b506102826103dd366004612bf6565b611c07565b3480156103ee57600080fd5b506102826103fd366004612c20565b611c7d565b34801561040e57600080fd5b506101e761041d366004612acb565b611d16565b34801561042e57600080fd5b5061021c600081565b34801561044357600080fd5b5060fe5461024a906001600160a01b031681565b34801561046357600080fd5b50610282610472366004612b22565b611d41565b34801561048357600080fd5b50610282610492366004612ab3565b611dd8565b3480156104a357600080fd5b506102826104b2366004612acb565b611e10565b3480156104c357600080fd5b5061021c6104d2366004612ab3565b611e35565b3480156104e357600080fd5b506102826104f2366004612b56565b611fb9565b34801561050357600080fd5b5061028261051236600461298d565b61218a565b34801561052357600080fd5b5061021c6101055481565b34801561053a57600080fd5b50610282610549366004612ab3565b6121ff565b34801561055a57600080fd5b5061021c6101045481565b60006001600160e01b03198216637965db0b60e01b148061059657506301ffc9a760e01b6001600160e01b03198316145b90505b919050565b604080516003808252608082019092526000918291906020820160608036833701905050905083816000815181106105e657634e487b7160e01b600052603260045260246000fd5b6001600160a01b03928316602091820292909201015260fe5482519116908290600190811061062557634e487b7160e01b600052603260045260246000fd5b6001600160a01b03928316602091820292909201015260fd5482519116908290600290811061066457634e487b7160e01b600052603260045260246000fd5b60200260200101906001600160a01b031690816001600160a01b031681525050600061010354620186a06106989190612f53565b610100549091506000906001600160a01b031663d06ca61f6106c7620186a06106c18987612262565b90612275565b856040518363ffffffff1660e01b81526004016106e5929190612e72565b60006040518083038186803b1580156106fd57600080fd5b505afa158015610711573d6000803e3d6000fd5b505050506040513d6000823e601f3d908101601f1916820160405261073991908101906129d4565b90508060028151811061075c57634e487b7160e01b600052603260045260246000fd5b6020026020010151935050505092915050565b600061077a81612281565b6040516370a0823160e01b81523060048201526108089033906001600160a01b038516906370a082319060240160206040518083038186803b1580156107bf57600080fd5b505afa1580156107d3573d6000803e3d6000fd5b505050506040513d601f19601f820116820180604052508101906107f79190612c08565b6001600160a01b038516919061228e565b5050565b60408051600280825260608201835260009283929190602083019080368337505060fe5482519293506001600160a01b03169183915060009061085f57634e487b7160e01b600052603260045260246000fd5b6001600160a01b03928316602091820292909201015260fe5482519116908290600190811061089e57634e487b7160e01b600052603260045260246000fd5b6001600160a01b03928316602091820292909201015260fd548251911690829060029081106108dd57634e487b7160e01b600052603260045260246000fd5b60200260200101906001600160a01b031690816001600160a01b031681525050600061010354620186a06109119190612f53565b610100549091506000906001600160a01b031663d06ca61f61093a620186a06106c18987612262565b856040518363ffffffff1660e01b8152600401610958929190612e72565b60006040518083038186803b15801561097057600080fd5b505afa158015610984573d6000803e3d6000fd5b505050506040513d6000823e601f3d908101601f191682016040526109ac91908101906129d4565b9050806002815181106109cf57634e487b7160e01b600052603260045260246000fd5b60200260200101519350505050919050565b6000600260c9541415610a0f5760405162461bcd60e51b8152600401610a0690612e3b565b60405180910390fd5b600260c95560975460ff1615610a375760405162461bcd60e51b8152600401610a0690612d78565b6040516323b872dd60e01b8152336004820152306024820152604481018390526001600160a01b038416906323b872dd90606401602060405180830381600087803b158015610a8557600080fd5b505af1158015610a99573d6000803e3d6000fd5b505050506040513d601f19601f82011682018060405250810190610abd9190612a93565b506101005460405163095ea7b360e01b81526001600160a01b039182166004820152602481018490529084169063095ea7b390604401602060405180830381600087803b158015610b0d57600080fd5b505af1158015610b21573d6000803e3d6000fd5b505050506040513d601f19601f82011682018060405250810190610b459190612a93565b506000610b5e6103e86106c1620186a0610102546122e0565b6101035460fb54919250906001600160a01b0386811691161415610c2f57506101045460fb5460ff546001600160a01b039182169163a9059cbb9116610bab620186a06106c18987612262565b6040516001600160e01b031960e085901b1681526001600160a01b0390921660048301526024820152604401602060405180830381600087803b158015610bf157600080fd5b505af1158015610c05573d6000803e3d6000fd5b505050506040513d601f19601f82011682018060405250810190610c299190612a93565b50610e8b565b60408051600380825260808201909252600091602082016060803683370190505090508581600081518110610c7457634e487b7160e01b600052603260045260246000fd5b6001600160a01b03928316602091820292909201015260fe54825191169082906001908110610cb357634e487b7160e01b600052603260045260246000fd5b6001600160a01b03928316602091820292909201015260fb54825191169082906002908110610cf257634e487b7160e01b600052603260045260246000fd5b6001600160a01b03909216602092830291909101909101526000610d1d620186a06106c18886612262565b610100549091506000906001600160a01b031663d06ca61f610d46620186a06106c18689612262565b856040518363ffffffff1660e01b8152600401610d64929190612e72565b60006040518083038186803b158015610d7c57600080fd5b505afa158015610d90573d6000803e3d6000fd5b505050506040513d6000823e601f3d908101601f19168201604052610db891908101906129d4565b905061010060009054906101000a90046001600160a01b03166001600160a01b0316635c11d79583610e2060646106c18a87600281518110610e0a57634e487b7160e01b600052603260045260246000fd5b602002602001015161226290919063ffffffff16565b60ff546040516001600160e01b031960e086901b168152610e5593929189916001600160a01b03909116904290600401612ec0565b600060405180830381600087803b158015610e6f57600080fd5b505af1158015610e83573d6000803e3d6000fd5b505050505050505b6000610ea8620186a06106c1610ea18583612f53565b8890612262565b60fd549091506000906001600160a01b0388811691161415610ecb5750806111f4565b60408051600380825260808201909252600091602082016060803683370190505090508781600081518110610f1057634e487b7160e01b600052603260045260246000fd5b6001600160a01b03928316602091820292909201015260fe54825191169082906001908110610f4f57634e487b7160e01b600052603260045260246000fd5b6001600160a01b03928316602091820292909201015260fd54825191169082906002908110610f8e57634e487b7160e01b600052603260045260246000fd5b6001600160a01b039283166020918202929092010152610100546000911663d06ca61f610fcc620186a06106c1610fc58a83612f53565b8990612262565b846040518363ffffffff1660e01b8152600401610fea929190612e72565b60006040518083038186803b15801561100257600080fd5b505afa158015611016573d6000803e3d6000fd5b505050506040513d6000823e601f3d908101601f1916820160405261103e91908101906129d4565b60fd546040516370a0823160e01b81523060048201529192506000916001600160a01b03909116906370a082319060240160206040518083038186803b15801561108757600080fd5b505afa15801561109b573d6000803e3d6000fd5b505050506040513d601f19601f820116820180604052508101906110bf9190612c08565b905061010060009054906101000a90046001600160a01b03166001600160a01b0316635c11d7958661111160646106c18c88600281518110610e0a57634e487b7160e01b600052603260045260246000fd5b8630426040518663ffffffff1660e01b8152600401611134959493929190612ec0565b600060405180830381600087803b15801561114e57600080fd5b505af1158015611162573d6000803e3d6000fd5b505060fd546040516370a0823160e01b81523060048201526111ee93508492506001600160a01b03909116906370a08231906024015b60206040518083038186803b1580156111b057600080fd5b505afa1580156111c4573d6000803e3d6000fd5b505050506040513d601f19601f820116820180604052508101906111e89190612c08565b906122e0565b93505050505b60fc546040516340c10f1960e01b8152336004820152602481018390526001600160a01b03909116906340c10f1990604401600060405180830381600087803b15801561124057600080fd5b505af1158015611254573d6000803e3d6000fd5b50506101055461126792509050826122ec565b61010555604080516001600160a01b0389168152602081018890529081018290527f05b4560402420bd8983c57afad300174b00fa77c937eb6198910a65c4a8db6449060600160405180910390a1600160c9559695505050505050565b6000828152606560205260409020600101546112df81612281565b6112e983836122f8565b505050565b6001600160a01b038116331461135e5760405162461bcd60e51b815260206004820152602f60248201527f416363657373436f6e74726f6c3a2063616e206f6e6c792072656e6f756e636560448201526e103937b632b9903337b91039b2b63360891b6064820152608401610a06565b610808828261237e565b6000600260c954141561138d5760405162461bcd60e51b8152600401610a0690612e3b565b600260c95560975460ff16156113b55760405162461bcd60e51b8152600401610a0690612d78565b60fc5460405163079cc67960e41b8152336004820152602481018490526001600160a01b03909116906379cc679090604401600060405180830381600087803b15801561140157600080fd5b505af1158015611415573d6000803e3d6000fd5b50506101055461142892509050836122e0565b6101055560fd5460405163a9059cbb60e01b8152336004820152602481018490526001600160a01b039091169063a9059cbb90604401602060405180830381600087803b15801561147857600080fd5b505af115801561148c573d6000803e3d6000fd5b505050506040513d601f19601f820116820180604052508101906114b09190612a93565b5060408051338152602081018490527fa611e76fdd534cbb8994ccdb04fbaffc3a629c8e75dc92ecd3882889087ac9de910160405180910390a150600160c95590565b6000600260c95414156115185760405162461bcd60e51b8152600401610a0690612e3b565b600260c95560975460ff16156115405760405162461bcd60e51b8152600401610a0690612d78565b60006115586103e86106c1620186a0610102546122e0565b6040805160028082526060820183529293506000929091602083019080368337505060fe5482519293506001600160a01b0316918391506000906115ac57634e487b7160e01b600052603260045260246000fd5b6001600160a01b03928316602091820292909201015260fb548251911690829060019081106115eb57634e487b7160e01b600052603260045260246000fd5b60200260200101906001600160a01b031690816001600160a01b031681525050600061162a620186a06106c1610103543461226290919063ffffffff16565b61010054610103549192506000916001600160a01b039091169063d06ca61f9061165e90620186a0906106c1908790612262565b856040518363ffffffff1660e01b815260040161167c929190612e72565b60006040518083038186803b15801561169457600080fd5b505afa1580156116a8573d6000803e3d6000fd5b505050506040513d6000823e601f3d908101601f191682016040526116d091908101906129d4565b905061010060009054906101000a90046001600160a01b03166001600160a01b031663b6f9de958361172260646106c18987600181518110610e0a57634e487b7160e01b600052603260045260246000fd5b60ff546040516001600160e01b031960e086901b168152611756929189916001600160a01b03909116904290600401612e8b565b6000604051808303818588803b15801561176f57600080fd5b505af1158015611783573d6000803e3d6000fd5b506000935060029250611794915050565b6040519080825280602002602001820160405280156117bd578160200160208202803683370190505b5060fe5481519192506001600160a01b03169082906000906117ef57634e487b7160e01b600052603260045260246000fd5b6001600160a01b03928316602091820292909201015260fd5482519116908290600190811061182e57634e487b7160e01b600052603260045260246000fd5b60200260200101906001600160a01b031690816001600160a01b0316815250506000611873620186a06106c161010354620186a061186c9190612f53565b3490612262565b61010054610103549192506000916001600160a01b039091169063d06ca61f906118b190620186a0906106c1906118aa9083612f53565b8a90612262565b856040518363ffffffff1660e01b81526004016118cf929190612e72565b60006040518083038186803b1580156118e757600080fd5b505afa1580156118fb573d6000803e3d6000fd5b505050506040513d6000823e601f3d908101601f1916820160405261192391908101906129d4565b60fd546040516370a0823160e01b81523060048201529192506000916001600160a01b03909116906370a082319060240160206040518083038186803b15801561196c57600080fd5b505afa158015611980573d6000803e3d6000fd5b505050506040513d601f19601f820116820180604052508101906119a49190612c08565b905061010060009054906101000a90046001600160a01b03166001600160a01b031663b6f9de95846119f660646106c18d88600181518110610e0a57634e487b7160e01b600052603260045260246000fd5b8730426040518663ffffffff1660e01b8152600401611a189493929190612e8b565b6000604051808303818588803b158015611a3157600080fd5b505af1158015611a45573d6000803e3d6000fd5b505060fd546040516370a0823160e01b815230600482015260009450611a8393508592506001600160a01b03909116906370a0823190602401611198565b60fc546040516340c10f1960e01b8152336004820152602481018390529192506001600160a01b0316906340c10f1990604401600060405180830381600087803b158015611ad057600080fd5b505af1158015611ae4573d6000803e3d6000fd5b505061010554611af792509050826122ec565b6101055560fe54604080516001600160a01b03909216825234602083015281018290527f05b4560402420bd8983c57afad300174b00fa77c937eb6198910a65c4a8db6449060600160405180910390a198505050505050505050600160c95590565b6000611b6481612281565b6001600160a01b038216611bb15760405162461bcd60e51b815260206004820152601460248201527343616e74206265207a65726f206164647265737360601b6044820152606401610a06565b60ff80546001600160a01b0319166001600160a01b0384169081179091556040519081527f9073dfac663173e64aa95665faedae52e2246f9bcdd3890fbfaf6733b46bba13906020015b60405180910390a15050565b6000611c1281612281565b604051632142170760e11b8152306004820152336024820152604481018390526001600160a01b038416906342842e0e90606401600060405180830381600087803b158015611c6057600080fd5b505af1158015611c74573d6000803e3d6000fd5b50505050505050565b6000611c8881612281565b620186a08310611caa5760405162461bcd60e51b8152600401610a0690612d48565b620186a08210611ccc5760405162461bcd60e51b8152600401610a0690612d48565b61010383905561010482905560408051848152602081018490527f171d770c0ea5b3f386263a281ac79f8d22595c8d574541864ef20c9a0eab1fd9910160405180910390a1505050565b60009182526065602090815260408084206001600160a01b0393909316845291905290205460ff1690565b6000611d4c81612281565b604051637921219560e11b8152306004820152336024820152604481018490526064810183905260a06084820152600260a482015261060f60f31b60c48201526001600160a01b0385169063f242432a9060e401600060405180830381600087803b158015611dba57600080fd5b505af1158015611dce573d6000803e3d6000fd5b5050505050505050565b6000611de381612281565b604051339083156108fc029084906000818181858888f193505050501580156112e9573d6000803e3d6000fd5b600082815260656020526040902060010154611e2b81612281565b6112e9838361237e565b60408051600280825260608201835260009283929190602083019080368337505060fb5482519293506001600160a01b031691839150600090611e8857634e487b7160e01b600052603260045260246000fd5b6001600160a01b03928316602091820292909201015260fd54825191169082906001908110611ec757634e487b7160e01b600052603260045260246000fd5b60200260200101906001600160a01b031690816001600160a01b031681525050600061010454620186a0611efb9190612f53565b610100549091506000906001600160a01b031663d06ca61f611f24620186a06106c18987612262565b856040518363ffffffff1660e01b8152600401611f42929190612e72565b60006040518083038186803b158015611f5a57600080fd5b505afa158015611f6e573d6000803e3d6000fd5b505050506040513d6000823e601f3d908101601f19168201604052611f9691908101906129d4565b9050806001815181106109cf57634e487b7160e01b600052603260045260246000fd5b6000611fc560016123e5565b90508015611fdd576000805461ff0019166101001790555b611fe561246a565b611fed612493565b611ff56124c6565b61010080546001600160a01b031990811673a5e0829caced8ffdd4de3c43696c57f7d7a678ff179091556101018054909116735757371414417b8c6caad45baef941abc7d3ab3217905561204a6000886122f8565b60fb80546001600160a01b03199081166001600160a01b038d81169190911790925560fc805482168c841617905560fd805482168b841617905560fe80548216898416179081905560ff8054909216888416179091556000610105556101028690556101038590556101048490556101005460405163095ea7b360e01b81529083166004820152600019602482015291169063095ea7b390604401602060405180830381600087803b1580156120ff57600080fd5b505af1158015612113573d6000803e3d6000fd5b505050506040513d601f19601f820116820180604052508101906121379190612a93565b50801561217e576000805461ff0019169055604051600181527f7f26b83ff96e1f2b6a682f133852f6798a09c465da95921460cefb38474024989060200160405180910390a15b50505050505050505050565b600061219581612281565b60fb54604080516001600160a01b03928316815291841660208301527f468caa55ac138c334f3d921426e9eb0c847cf1f0e89bcf1db7d4920df978b923910160405180910390a15060fb80546001600160a01b0319166001600160a01b0392909216919091179055565b600061220a81612281565b620186a0821061222c5760405162461bcd60e51b8152600401610a0690612d48565b6101028290556040518281527f1a89170b7100a37f2e1a8bca9d866cd3f6d666800bfb0fa8dd82f0b2193c926f90602001611bfb565b600061226e8284612f34565b9392505050565b600061226e8284612f14565b61228b81336124f4565b50565b604080516001600160a01b038416602482015260448082018490528251808303909101815260649091019091526020810180516001600160e01b031663a9059cbb60e01b1790526112e9908490612558565b600061226e8284612f53565b600061226e8284612efc565b6123028282611d16565b6108085760008281526065602090815260408083206001600160a01b03851684529091529020805460ff1916600117905561233a3390565b6001600160a01b0316816001600160a01b0316837f2f8788117e7eff1d82e926ec794901d17c78024a50270940304540a733656f0d60405160405180910390a45050565b6123888282611d16565b156108085760008281526065602090815260408083206001600160a01b0385168085529252808320805460ff1916905551339285917ff6391f5c32d9c69d2a47ea670b442974b53935d1edc7fd64eb21e047a839171b9190a45050565b60008054610100900460ff161561242c578160ff1660011480156124085750303b155b6124245760405162461bcd60e51b8152600401610a0690612da2565b506000610599565b60005460ff8084169116106124535760405162461bcd60e51b8152600401610a0690612da2565b506000805460ff191660ff83161790556001610599565b600054610100900460ff166124915760405162461bcd60e51b8152600401610a0690612df0565b565b600054610100900460ff166124ba5760405162461bcd60e51b8152600401610a0690612df0565b6097805460ff19169055565b600054610100900460ff166124ed5760405162461bcd60e51b8152600401610a0690612df0565b600160c955565b6124fe8282611d16565b61080857612516816001600160a01b0316601461262a565b61252183602061262a565b604051602001612532929190612ca0565b60408051601f198184030181529082905262461bcd60e51b8252610a0691600401612d15565b60006125ad826040518060400160405280602081526020017f5361666545524332303a206c6f772d6c6576656c2063616c6c206661696c6564815250856001600160a01b031661280c9092919063ffffffff16565b8051909150156112e957808060200190518101906125cb9190612a93565b6112e95760405162461bcd60e51b815260206004820152602a60248201527f5361666545524332303a204552433230206f7065726174696f6e20646964206e6044820152691bdd081cdd58d8d9595960b21b6064820152608401610a06565b60606000612639836002612f34565b612644906002612efc565b67ffffffffffffffff81111561266a57634e487b7160e01b600052604160045260246000fd5b6040519080825280601f01601f191660200182016040528015612694576020820181803683370190505b509050600360fc1b816000815181106126bd57634e487b7160e01b600052603260045260246000fd5b60200101906001600160f81b031916908160001a905350600f60fb1b816001815181106126fa57634e487b7160e01b600052603260045260246000fd5b60200101906001600160f81b031916908160001a905350600061271e846002612f34565b612729906001612efc565b90505b60018111156127bd576f181899199a1a9b1b9c1cb0b131b232b360811b85600f166010811061276b57634e487b7160e01b600052603260045260246000fd5b1a60f81b82828151811061278f57634e487b7160e01b600052603260045260246000fd5b60200101906001600160f81b031916908160001a90535060049490941c936127b681612f9a565b905061272c565b50831561226e5760405162461bcd60e51b815260206004820181905260248201527f537472696e67733a20686578206c656e67746820696e73756666696369656e746044820152606401610a06565b606061281b8484600085612823565b949350505050565b6060824710156128845760405162461bcd60e51b815260206004820152602660248201527f416464726573733a20696e73756666696369656e742062616c616e636520666f6044820152651c8818d85b1b60d21b6064820152608401610a06565b6001600160a01b0385163b6128db5760405162461bcd60e51b815260206004820152601d60248201527f416464726573733a2063616c6c20746f206e6f6e2d636f6e74726163740000006044820152606401610a06565b600080866001600160a01b031685876040516128f79190612c84565b60006040518083038185875af1925050503d8060008114612934576040519150601f19603f3d011682016040523d82523d6000602084013e612939565b606091505b5091509150612949828286612954565b979650505050505050565b6060831561296357508161226e565b8251156129735782518084602001fd5b8160405162461bcd60e51b8152600401610a069190612d15565b60006020828403121561299e578081fd5b813561226e81612fdd565b600080604083850312156129bb578081fd5b82356129c681612fdd565b946020939093013593505050565b600060208083850312156129e6578182fd5b825167ffffffffffffffff808211156129fd578384fd5b818501915085601f830112612a10578384fd5b815181811115612a2257612a22612fc7565b838102604051601f19603f83011681018181108582111715612a4657612a46612fc7565b604052828152858101935084860182860187018a1015612a64578788fd5b8795505b83861015612a86578051855260019590950194938601938601612a68565b5098975050505050505050565b600060208284031215612aa4578081fd5b8151801515811461226e578182fd5b600060208284031215612ac4578081fd5b5035919050565b60008060408385031215612add578182fd5b823591506020830135612aef81612fdd565b809150509250929050565b600060208284031215612b0b578081fd5b81356001600160e01b03198116811461226e578182fd5b600080600060608486031215612b36578081fd5b8335612b4181612fdd565b95602085013595506040909401359392505050565b60008060008060008060008060006101208a8c031215612b74578485fd5b8935612b7f81612fdd565b985060208a0135612b8f81612fdd565b975060408a0135612b9f81612fdd565b965060608a0135612baf81612fdd565b955060808a0135612bbf81612fdd565b945060a08a0135612bcf81612fdd565b8094505060c08a0135925060e08a013591506101008a013590509295985092959850929598565b600080604083850312156129bb578182fd5b600060208284031215612c19578081fd5b5051919050565b60008060408385031215612c32578182fd5b50508035926020909101359150565b6000815180845260208085019450808401835b83811015612c795781516001600160a01b031687529582019590820190600101612c54565b509495945050505050565b60008251612c96818460208701612f6a565b9190910192915050565b60007f416363657373436f6e74726f6c3a206163636f756e742000000000000000000082528351612cd8816017850160208801612f6a565b7001034b99036b4b9b9b4b733903937b6329607d1b6017918401918201528351612d09816028840160208801612f6a565b01602801949350505050565b6000602082528251806020840152612d34816040850160208701612f6a565b601f01601f19169190910160400192915050565b60208082526016908201527543616e74206265206d6f7265207468616e203130302560501b604082015260600190565b60208082526010908201526f14185d5cd8589b194e881c185d5cd95960821b604082015260600190565b6020808252602e908201527f496e697469616c697a61626c653a20636f6e747261637420697320616c72656160408201526d191e481a5b9a5d1a585b1a5e995960921b606082015260800190565b6020808252602b908201527f496e697469616c697a61626c653a20636f6e7472616374206973206e6f74206960408201526a6e697469616c697a696e6760a81b606082015260800190565b6020808252601f908201527f5265656e7472616e637947756172643a207265656e7472616e742063616c6c00604082015260600190565b60008382526040602083015261281b6040830184612c41565b600085825260806020830152612ea46080830186612c41565b6001600160a01b03949094166040830152506060015292915050565b600086825285602083015260a06040830152612edf60a0830186612c41565b6001600160a01b0394909416606083015250608001529392505050565b60008219821115612f0f57612f0f612fb1565b500190565b600082612f2f57634e487b7160e01b81526012600452602481fd5b500490565b6000816000190483118215151615612f4e57612f4e612fb1565b500290565b600082821015612f6557612f65612fb1565b500390565b60005b83811015612f85578181015183820152602001612f6d565b83811115612f94576000848401525b50505050565b600081612fa957612fa9612fb1565b506000190190565b634e487b7160e01b600052601160045260246000fd5b634e487b7160e01b600052604160045260246000fd5b6001600160a01b038116811461228b57600080fdfea2646970667358221220d7fff9261ed2baf7798f2efa17f3cf62bb687c18dcec854f0022a5ae7ca3917764736f6c63430008020033",
  "linkReferences": {},
  "deployedLinkReferences": {}
}