{
  "_format": "hh-sol-artifact-1",
  "contractName": "XCTMinter",
  "sourceName": "contracts/XCTMinter.sol",
  "abi": [
    {
      "anonymous": false,
      "inputs": [
        {
          "indexed": false,
          "internalType": "uint8",
          "name": "version",
          "type": "uint8"
        }
      ],
      "name": "Initialized",
      "type": "event"
    },
    {
      "anonymous": false,
      "inputs": [
        {
          "indexed": false,
          "internalType": "address",
          "name": "account",
          "type": "address"
        }
      ],
      "name": "Paused",
      "type": "event"
    },
    {
      "anonymous": false,
      "inputs": [
        {
          "indexed": false,
          "internalType": "uint256",
          "name": "percentStackConversion",
          "type": "uint256"
        },
        {
          "indexed": false,
          "internalType": "uint256",
          "name": "percentStackAdvantage",
          "type": "uint256"
        }
      ],
      "name": "PercentStackSet",
      "type": "event"
    },
    {
      "anonymous": false,
      "inputs": [
        {
          "indexed": true,
          "internalType": "bytes32",
          "name": "role",
          "type": "bytes32"
        },
        {
          "indexed": true,
          "internalType": "bytes32",
          "name": "previousAdminRole",
          "type": "bytes32"
        },
        {
          "indexed": true,
          "internalType": "bytes32",
          "name": "newAdminRole",
          "type": "bytes32"
        }
      ],
      "name": "RoleAdminChanged",
      "type": "event"
    },
    {
      "anonymous": false,
      "inputs": [
        {
          "indexed": true,
          "internalType": "bytes32",
          "name": "role",
          "type": "bytes32"
        },
        {
          "indexed": true,
          "internalType": "address",
          "name": "account",
          "type": "address"
        },
        {
          "indexed": true,
          "internalType": "address",
          "name": "sender",
          "type": "address"
        }
      ],
      "name": "RoleGranted",
      "type": "event"
    },
    {
      "anonymous": false,
      "inputs": [
        {
          "indexed": true,
          "internalType": "bytes32",
          "name": "role",
          "type": "bytes32"
        },
        {
          "indexed": true,
          "internalType": "address",
          "name": "account",
          "type": "address"
        },
        {
          "indexed": true,
          "internalType": "address",
          "name": "sender",
          "type": "address"
        }
      ],
      "name": "RoleRevoked",
      "type": "event"
    },
    {
      "anonymous": false,
      "inputs": [
        {
          "indexed": false,
          "internalType": "uint256",
          "name": "slippage",
          "type": "uint256"
        }
      ],
      "name": "SlippageSet",
      "type": "event"
    },
    {
      "anonymous": false,
      "inputs": [
        {
          "indexed": false,
          "internalType": "address",
          "name": "treasury_address",
          "type": "address"
        }
      ],
      "name": "TreasuryAddressChanged",
      "type": "event"
    },
    {
      "anonymous": false,
      "inputs": [
        {
          "indexed": false,
          "internalType": "address",
          "name": "account",
          "type": "address"
        }
      ],
      "name": "Unpaused",
      "type": "event"
    },
    {
      "anonymous": false,
      "inputs": [
        {
          "indexed": false,
          "internalType": "address",
          "name": "TokenAddress",
          "type": "address"
        },
        {
          "indexed": false,
          "internalType": "uint256",
          "name": "tokenAmount",
          "type": "uint256"
        },
        {
          "indexed": false,
          "internalType": "uint256",
          "name": "XCTAmount",
          "type": "uint256"
        }
      ],
      "name": "XCTBought",
      "type": "event"
    },
    {
      "anonymous": false,
      "inputs": [
        {
          "indexed": false,
          "internalType": "address",
          "name": "account",
          "type": "address"
        },
        {
          "indexed": false,
          "internalType": "uint256",
          "name": "tokens",
          "type": "uint256"
        }
      ],
      "name": "XCTSold",
      "type": "event"
    },
    {
      "inputs": [],
      "name": "DEFAULT_ADMIN_ROLE",
      "outputs": [
        {
          "internalType": "bytes32",
          "name": "",
          "type": "bytes32"
        }
      ],
      "stateMutability": "view",
      "type": "function"
    },
    {
      "inputs": [],
      "name": "TREASURY_ADDRESS",
      "outputs": [
        {
          "internalType": "address",
          "name": "",
          "type": "address"
        }
      ],
      "stateMutability": "view",
      "type": "function"
    },
    {
      "inputs": [],
      "name": "WETH",
      "outputs": [
        {
          "internalType": "address",
          "name": "",
          "type": "address"
        }
      ],
      "stateMutability": "view",
      "type": "function"
    },
    {
      "inputs": [
        {
          "internalType": "address",
          "name": "_token",
          "type": "address"
        },
        {
          "internalType": "uint256",
          "name": "_tokenAmount",
          "type": "uint256"
        }
      ],
      "name": "buyXCT",
      "outputs": [
        {
          "internalType": "uint256",
          "name": "XCTamount",
          "type": "uint256"
        }
      ],
      "stateMutability": "nonpayable",
      "type": "function"
    },
    {
      "inputs": [],
      "name": "easyBuyXCT",
      "outputs": [
        {
          "internalType": "uint256",
          "name": "XCTamount",
          "type": "uint256"
        }
      ],
      "stateMutability": "payable",
      "type": "function"
    },
    {
      "inputs": [
        {
          "internalType": "uint256",
          "name": "_amount",
          "type": "uint256"
        }
      ],
      "name": "estimateBuy",
      "outputs": [
        {
          "internalType": "uint256",
          "name": "",
          "type": "uint256"
        }
      ],
      "stateMutability": "view",
      "type": "function"
    },
    {
      "inputs": [
        {
          "internalType": "address",
          "name": "_token",
          "type": "address"
        },
        {
          "internalType": "uint256",
          "name": "_tokensAmount",
          "type": "uint256"
        }
      ],
      "name": "estimateBuyFromAnyToken",
      "outputs": [
        {
          "internalType": "uint256",
          "name": "",
          "type": "uint256"
        }
      ],
      "stateMutability": "view",
      "type": "function"
    },
    {
      "inputs": [
        {
          "internalType": "uint256",
          "name": "_stackTokensAmount",
          "type": "uint256"
        }
      ],
      "name": "estimateBuyFromStack",
      "outputs": [
        {
          "internalType": "uint256",
          "name": "",
          "type": "uint256"
        }
      ],
      "stateMutability": "view",
      "type": "function"
    },
    {
      "inputs": [
        {
          "internalType": "bytes32",
          "name": "role",
          "type": "bytes32"
        }
      ],
      "name": "getRoleAdmin",
      "outputs": [
        {
          "internalType": "bytes32",
          "name": "",
          "type": "bytes32"
        }
      ],
      "stateMutability": "view",
      "type": "function"
    },
    {
      "inputs": [
        {
          "internalType": "bytes32",
          "name": "role",
          "type": "bytes32"
        },
        {
          "internalType": "address",
          "name": "account",
          "type": "address"
        }
      ],
      "name": "grantRole",
      "outputs": [],
      "stateMutability": "nonpayable",
      "type": "function"
    },
    {
      "inputs": [
        {
          "internalType": "bytes32",
          "name": "role",
          "type": "bytes32"
        },
        {
          "internalType": "address",
          "name": "account",
          "type": "address"
        }
      ],
      "name": "hasRole",
      "outputs": [
        {
          "internalType": "bool",
          "name": "",
          "type": "bool"
        }
      ],
      "stateMutability": "view",
      "type": "function"
    },
    {
      "inputs": [
        {
          "internalType": "contract IERC20Upgradeable",
          "name": "_StackToken",
          "type": "address"
        },
        {
          "internalType": "contract IERC20Mintable",
          "name": "_XCTToken",
          "type": "address"
        },
        {
          "internalType": "contract IERC20Upgradeable",
          "name": "_USDCToken",
          "type": "address"
        },
        {
          "internalType": "address",
          "name": "_admin",
          "type": "address"
        },
        {
          "internalType": "address",
          "name": "_WETH",
          "type": "address"
        },
        {
          "internalType": "address",
          "name": "_TREASURY_ADDRESS",
          "type": "address"
        },
        {
          "internalType": "uint256",
          "name": "_slippage",
          "type": "uint256"
        },
        {
          "internalType": "uint256",
          "name": "_percentStackConversion",
          "type": "uint256"
        },
        {
          "internalType": "uint256",
          "name": "_percentStackAdvantage",
          "type": "uint256"
        }
      ],
      "name": "initialize",
      "outputs": [],
      "stateMutability": "nonpayable",
      "type": "function"
    },
    {
      "inputs": [],
      "name": "paused",
      "outputs": [
        {
          "internalType": "bool",
          "name": "",
          "type": "bool"
        }
      ],
      "stateMutability": "view",
      "type": "function"
    },
    {
      "inputs": [],
      "name": "percentStackAdvantage",
      "outputs": [
        {
          "internalType": "uint256",
          "name": "",
          "type": "uint256"
        }
      ],
      "stateMutability": "view",
      "type": "function"
    },
    {
      "inputs": [],
      "name": "percentStackConversion",
      "outputs": [
        {
          "internalType": "uint256",
          "name": "",
          "type": "uint256"
        }
      ],
      "stateMutability": "view",
      "type": "function"
    },
    {
      "inputs": [
        {
          "internalType": "contract IERC1155Upgradeable",
          "name": "token",
          "type": "address"
        },
        {
          "internalType": "uint256",
          "name": "tokenId",
          "type": "uint256"
        },
        {
          "internalType": "uint256",
          "name": "amount",
          "type": "uint256"
        }
      ],
      "name": "recoverERC1155",
      "outputs": [],
      "stateMutability": "nonpayable",
      "type": "function"
    },
    {
      "inputs": [
        {
          "internalType": "contract IERC721Upgradeable",
          "name": "token",
          "type": "address"
        },
        {
          "internalType": "uint256",
          "name": "tokenId",
          "type": "uint256"
        }
      ],
      "name": "recoverERC721",
      "outputs": [],
      "stateMutability": "nonpayable",
      "type": "function"
    },
    {
      "inputs": [
        {
          "internalType": "uint256",
          "name": "amount",
          "type": "uint256"
        }
      ],
      "name": "recoverETH",
      "outputs": [],
      "stateMutability": "nonpayable",
      "type": "function"
    },
    {
      "inputs": [
        {
          "internalType": "contract IERC20Upgradeable",
          "name": "token",
          "type": "address"
        }
      ],
      "name": "recoverTokens",
      "outputs": [],
      "stateMutability": "nonpayable",
      "type": "function"
    },
    {
      "inputs": [
        {
          "internalType": "bytes32",
          "name": "role",
          "type": "bytes32"
        },
        {
          "internalType": "address",
          "name": "account",
          "type": "address"
        }
      ],
      "name": "renounceRole",
      "outputs": [],
      "stateMutability": "nonpayable",
      "type": "function"
    },
    {
      "inputs": [
        {
          "internalType": "bytes32",
          "name": "role",
          "type": "bytes32"
        },
        {
          "internalType": "address",
          "name": "account",
          "type": "address"
        }
      ],
      "name": "revokeRole",
      "outputs": [],
      "stateMutability": "nonpayable",
      "type": "function"
    },
    {
      "inputs": [
        {
          "internalType": "uint256",
          "name": "_amountXCT",
          "type": "uint256"
        }
      ],
      "name": "sellXCT",
      "outputs": [
        {
          "internalType": "uint256",
          "name": "",
          "type": "uint256"
        }
      ],
      "stateMutability": "nonpayable",
      "type": "function"
    },
    {
      "inputs": [
        {
          "internalType": "uint256",
          "name": "_percentStackConversion",
          "type": "uint256"
        },
        {
          "internalType": "uint256",
          "name": "_percentStackAdvantage",
          "type": "uint256"
        }
      ],
      "name": "setPercentStack",
      "outputs": [],
      "stateMutability": "nonpayable",
      "type": "function"
    },
    {
      "inputs": [
        {
          "internalType": "uint256",
          "name": "_slippage",
          "type": "uint256"
        }
      ],
      "name": "setSlippage",
      "outputs": [],
      "stateMutability": "nonpayable",
      "type": "function"
    },
    {
      "inputs": [
        {
          "internalType": "address",
          "name": "_new_treasury_address",
          "type": "address"
        }
      ],
      "name": "setTreasuryAddress",
      "outputs": [],
      "stateMutability": "nonpayable",
      "type": "function"
    },
    {
      "inputs": [],
      "name": "slippage",
      "outputs": [
        {
          "internalType": "uint256",
          "name": "",
          "type": "uint256"
        }
      ],
      "stateMutability": "view",
      "type": "function"
    },
    {
      "inputs": [
        {
          "internalType": "bytes4",
          "name": "interfaceId",
          "type": "bytes4"
        }
      ],
      "name": "supportsInterface",
      "outputs": [
        {
          "internalType": "bool",
          "name": "",
          "type": "bool"
        }
      ],
      "stateMutability": "view",
      "type": "function"
    },
    {
      "inputs": [],
      "name": "totalXCTMintedByContract",
      "outputs": [
        {
          "internalType": "uint256",
          "name": "",
          "type": "uint256"
        }
      ],
      "stateMutability": "view",
      "type": "function"
    }
  ],
  "bytecode": "0x608060405234801561001057600080fd5b50612f88806100206000396000f3fe6080604052600436106101b75760003560e01c80636605bfda116100ec578063d33355531161008a578063df5377fe11610064578063df5377fe146104cc578063eafab1d7146104ec578063f0fa55a914610503578063fee854e414610523576101b7565b8063d33355531461046c578063d547741f1461048c578063db539834146104ac576101b7565b806391d14854116100c657806391d14854146103f7578063a217fddf14610417578063ad5c46481461042c578063cbaa1d9b1461044c576101b7565b80636605bfda14610397578063819d4cc6146103b75780638de99ead146103d7576101b7565b8063297bdfc8116101595780633e032a3b116101335780633e032a3b1461034057806345a269f3146103575780634cf9f779146103775780635c975abb1461037f576101b7565b8063297bdfc8146102e05780632f2ff15d1461030057806336568abe14610320576101b7565b806316114acd1161019557806316114acd1461025757806318ab51d91461027957806318d685f614610290578063248a9ca3146102b0576101b7565b806301ffc9a7146101bc578063068c081e146101f157806307604b1a1461021f575b600080fd5b3480156101c857600080fd5b506101dc6101d7366004612a5a565b61053a565b60405190151581526020015b60405180910390f35b3480156101fd57600080fd5b5061021161020c366004612909565b610573565b6040519081526020016101e8565b34801561022b57600080fd5b5060ff5461023f906001600160a01b031681565b6040516001600160a01b0390911681526020016101e8565b34801561026357600080fd5b506102776102723660046128ed565b610744565b005b34801561028557600080fd5b506102116101035481565b34801561029c57600080fd5b506102116102ab366004612a13565b6107e1565b3480156102bc57600080fd5b506102116102cb366004612a13565b60009081526065602052604090206001015490565b3480156102ec57600080fd5b506102116102fb366004612909565b6109b6565b34801561030c57600080fd5b5061027761031b366004612a2b565b611299565b34801561032c57600080fd5b5061027761033b366004612a2b565b6112c3565b34801561034c57600080fd5b506102116101025481565b34801561036357600080fd5b50610211610372366004612a13565b61133d565b6102116114c8565b34801561038b57600080fd5b5060975460ff166101dc565b3480156103a357600080fd5b506102776103b23660046128ed565b611b2e565b3480156103c357600080fd5b506102776103d2366004612b56565b611bdc565b3480156103e357600080fd5b506102776103f2366004612b80565b611c52565b34801561040357600080fd5b506101dc610412366004612a2b565b611ceb565b34801561042357600080fd5b50610211600081565b34801561043857600080fd5b5060fe5461023f906001600160a01b031681565b34801561045857600080fd5b50610277610467366004612a82565b611d16565b34801561047857600080fd5b50610277610487366004612a13565b611dad565b34801561049857600080fd5b506102776104a7366004612a2b565b611de5565b3480156104b857600080fd5b506102116104c7366004612a13565b611e0a565b3480156104d857600080fd5b506102776104e7366004612ab6565b611f8e565b3480156104f857600080fd5b506102116101055481565b34801561050f57600080fd5b5061027761051e366004612a13565b61215f565b34801561052f57600080fd5b506102116101045481565b60006001600160e01b03198216637965db0b60e01b148061056b57506301ffc9a760e01b6001600160e01b03198316145b90505b919050565b604080516003808252608082019092526000918291906020820160608036833701905050905083816000815181106105bb57634e487b7160e01b600052603260045260246000fd5b6001600160a01b03928316602091820292909201015260fe548251911690829060019081106105fa57634e487b7160e01b600052603260045260246000fd5b6001600160a01b03928316602091820292909201015260fd5482519116908290600290811061063957634e487b7160e01b600052603260045260246000fd5b60200260200101906001600160a01b031690816001600160a01b031681525050600061010354620186a061066d9190612eb3565b610100549091506000906001600160a01b031663d06ca61f61069c620186a061069689876121c2565b906121d5565b856040518363ffffffff1660e01b81526004016106ba929190612dd2565b60006040518083038186803b1580156106d257600080fd5b505afa1580156106e6573d6000803e3d6000fd5b505050506040513d6000823e601f3d908101601f1916820160405261070e9190810190612934565b90508060028151811061073157634e487b7160e01b600052603260045260246000fd5b6020026020010151935050505092915050565b600061074f816121e1565b6040516370a0823160e01b81523060048201526107dd9033906001600160a01b038516906370a082319060240160206040518083038186803b15801561079457600080fd5b505afa1580156107a8573d6000803e3d6000fd5b505050506040513d601f19601f820116820180604052508101906107cc9190612b68565b6001600160a01b03851691906121ee565b5050565b60408051600280825260608201835260009283929190602083019080368337505060fe5482519293506001600160a01b03169183915060009061083457634e487b7160e01b600052603260045260246000fd5b6001600160a01b03928316602091820292909201015260fe5482519116908290600190811061087357634e487b7160e01b600052603260045260246000fd5b6001600160a01b03928316602091820292909201015260fd548251911690829060029081106108b257634e487b7160e01b600052603260045260246000fd5b60200260200101906001600160a01b031690816001600160a01b031681525050600061010354620186a06108e69190612eb3565b610100549091506000906001600160a01b031663d06ca61f61090f620186a061069689876121c2565b856040518363ffffffff1660e01b815260040161092d929190612dd2565b60006040518083038186803b15801561094557600080fd5b505afa158015610959573d6000803e3d6000fd5b505050506040513d6000823e601f3d908101601f191682016040526109819190810190612934565b9050806002815181106109a457634e487b7160e01b600052603260045260246000fd5b60200260200101519350505050919050565b6000600260c95414156109e45760405162461bcd60e51b81526004016109db90612d9b565b60405180910390fd5b600260c95560975460ff1615610a0c5760405162461bcd60e51b81526004016109db90612cd8565b6040516323b872dd60e01b8152336004820152306024820152604481018390526001600160a01b038416906323b872dd90606401602060405180830381600087803b158015610a5a57600080fd5b505af1158015610a6e573d6000803e3d6000fd5b505050506040513d601f19601f82011682018060405250810190610a9291906129f3565b506101005460405163095ea7b360e01b81526001600160a01b039182166004820152602481018490529084169063095ea7b390604401602060405180830381600087803b158015610ae257600080fd5b505af1158015610af6573d6000803e3d6000fd5b505050506040513d601f19601f82011682018060405250810190610b1a91906129f3565b506000610b336103e8610696620186a061010254612240565b6101035460fb54919250906001600160a01b0386811691161415610c0457506101045460fb5460ff546001600160a01b039182169163a9059cbb9116610b80620186a061069689876121c2565b6040516001600160e01b031960e085901b1681526001600160a01b0390921660048301526024820152604401602060405180830381600087803b158015610bc657600080fd5b505af1158015610bda573d6000803e3d6000fd5b505050506040513d601f19601f82011682018060405250810190610bfe91906129f3565b50610e60565b60408051600380825260808201909252600091602082016060803683370190505090508581600081518110610c4957634e487b7160e01b600052603260045260246000fd5b6001600160a01b03928316602091820292909201015260fe54825191169082906001908110610c8857634e487b7160e01b600052603260045260246000fd5b6001600160a01b03928316602091820292909201015260fb54825191169082906002908110610cc757634e487b7160e01b600052603260045260246000fd5b6001600160a01b03909216602092830291909101909101526000610cf2620186a061069688866121c2565b610100549091506000906001600160a01b031663d06ca61f610d1b620186a061069686896121c2565b856040518363ffffffff1660e01b8152600401610d39929190612dd2565b60006040518083038186803b158015610d5157600080fd5b505afa158015610d65573d6000803e3d6000fd5b505050506040513d6000823e601f3d908101601f19168201604052610d8d9190810190612934565b905061010060009054906101000a90046001600160a01b03166001600160a01b0316635c11d79583610df560646106968a87600281518110610ddf57634e487b7160e01b600052603260045260246000fd5b60200260200101516121c290919063ffffffff16565b60ff546040516001600160e01b031960e086901b168152610e2a93929189916001600160a01b03909116904290600401612e20565b600060405180830381600087803b158015610e4457600080fd5b505af1158015610e58573d6000803e3d6000fd5b505050505050505b6000610e7d620186a0610696610e768583612eb3565b88906121c2565b60fd549091506000906001600160a01b0388811691161415610ea05750806111c9565b60408051600380825260808201909252600091602082016060803683370190505090508781600081518110610ee557634e487b7160e01b600052603260045260246000fd5b6001600160a01b03928316602091820292909201015260fe54825191169082906001908110610f2457634e487b7160e01b600052603260045260246000fd5b6001600160a01b03928316602091820292909201015260fd54825191169082906002908110610f6357634e487b7160e01b600052603260045260246000fd5b6001600160a01b039283166020918202929092010152610100546000911663d06ca61f610fa1620186a0610696610f9a8a83612eb3565b89906121c2565b846040518363ffffffff1660e01b8152600401610fbf929190612dd2565b60006040518083038186803b158015610fd757600080fd5b505afa158015610feb573d6000803e3d6000fd5b505050506040513d6000823e601f3d908101601f191682016040526110139190810190612934565b60fd546040516370a0823160e01b81523060048201529192506000916001600160a01b03909116906370a082319060240160206040518083038186803b15801561105c57600080fd5b505afa158015611070573d6000803e3d6000fd5b505050506040513d601f19601f820116820180604052508101906110949190612b68565b905061010060009054906101000a90046001600160a01b03166001600160a01b0316635c11d795866110e660646106968c88600281518110610ddf57634e487b7160e01b600052603260045260246000fd5b8630426040518663ffffffff1660e01b8152600401611109959493929190612e20565b600060405180830381600087803b15801561112357600080fd5b505af1158015611137573d6000803e3d6000fd5b505060fd546040516370a0823160e01b81523060048201526111c393508492506001600160a01b03909116906370a08231906024015b60206040518083038186803b15801561118557600080fd5b505afa158015611199573d6000803e3d6000fd5b505050506040513d601f19601f820116820180604052508101906111bd9190612b68565b90612240565b93505050505b60fc546040516340c10f1960e01b8152336004820152602481018390526001600160a01b03909116906340c10f1990604401600060405180830381600087803b15801561121557600080fd5b505af1158015611229573d6000803e3d6000fd5b50506101055461123c925090508261224c565b61010555604080516001600160a01b0389168152602081018890529081018290527f05b4560402420bd8983c57afad300174b00fa77c937eb6198910a65c4a8db6449060600160405180910390a1600160c9559695505050505050565b6000828152606560205260409020600101546112b4816121e1565b6112be8383612258565b505050565b6001600160a01b03811633146113335760405162461bcd60e51b815260206004820152602f60248201527f416363657373436f6e74726f6c3a2063616e206f6e6c792072656e6f756e636560448201526e103937b632b9903337b91039b2b63360891b60648201526084016109db565b6107dd82826122de565b6000600260c95414156113625760405162461bcd60e51b81526004016109db90612d9b565b600260c95560975460ff161561138a5760405162461bcd60e51b81526004016109db90612cd8565b60fc5460405163079cc67960e41b8152336004820152602481018490526001600160a01b03909116906379cc679090604401600060405180830381600087803b1580156113d657600080fd5b505af11580156113ea573d6000803e3d6000fd5b5050610105546113fd9250905083612240565b6101055560fd5460405163a9059cbb60e01b8152336004820152602481018490526001600160a01b039091169063a9059cbb90604401602060405180830381600087803b15801561144d57600080fd5b505af1158015611461573d6000803e3d6000fd5b505050506040513d601f19601f8201168201806040525081019061148591906129f3565b5060408051338152602081018490527fa611e76fdd534cbb8994ccdb04fbaffc3a629c8e75dc92ecd3882889087ac9de910160405180910390a150600160c95590565b6000600260c95414156114ed5760405162461bcd60e51b81526004016109db90612d9b565b600260c95560975460ff16156115155760405162461bcd60e51b81526004016109db90612cd8565b600061152d6103e8610696620186a061010254612240565b6040805160028082526060820183529293506000929091602083019080368337505060fe5482519293506001600160a01b03169183915060009061158157634e487b7160e01b600052603260045260246000fd5b6001600160a01b03928316602091820292909201015260fb548251911690829060019081106115c057634e487b7160e01b600052603260045260246000fd5b60200260200101906001600160a01b031690816001600160a01b03168152505060006115ff620186a061069661010354346121c290919063ffffffff16565b61010054610103549192506000916001600160a01b039091169063d06ca61f9061163390620186a0906106969087906121c2565b856040518363ffffffff1660e01b8152600401611651929190612dd2565b60006040518083038186803b15801561166957600080fd5b505afa15801561167d573d6000803e3d6000fd5b505050506040513d6000823e601f3d908101601f191682016040526116a59190810190612934565b905061010060009054906101000a90046001600160a01b03166001600160a01b031663b6f9de95836116f760646106968987600181518110610ddf57634e487b7160e01b600052603260045260246000fd5b60ff546040516001600160e01b031960e086901b16815261172b929189916001600160a01b03909116904290600401612deb565b6000604051808303818588803b15801561174457600080fd5b505af1158015611758573d6000803e3d6000fd5b506000935060029250611769915050565b604051908082528060200260200182016040528015611792578160200160208202803683370190505b5060fe5481519192506001600160a01b03169082906000906117c457634e487b7160e01b600052603260045260246000fd5b6001600160a01b03928316602091820292909201015260fd5482519116908290600190811061180357634e487b7160e01b600052603260045260246000fd5b60200260200101906001600160a01b031690816001600160a01b0316815250506000611848620186a061069661010354620186a06118419190612eb3565b34906121c2565b61010054610103549192506000916001600160a01b039091169063d06ca61f9061188690620186a0906106969061187f9083612eb3565b8a906121c2565b856040518363ffffffff1660e01b81526004016118a4929190612dd2565b60006040518083038186803b1580156118bc57600080fd5b505afa1580156118d0573d6000803e3d6000fd5b505050506040513d6000823e601f3d908101601f191682016040526118f89190810190612934565b60fd546040516370a0823160e01b81523060048201529192506000916001600160a01b03909116906370a082319060240160206040518083038186803b15801561194157600080fd5b505afa158015611955573d6000803e3d6000fd5b505050506040513d601f19601f820116820180604052508101906119799190612b68565b905061010060009054906101000a90046001600160a01b03166001600160a01b031663b6f9de95846119cb60646106968d88600181518110610ddf57634e487b7160e01b600052603260045260246000fd5b8730426040518663ffffffff1660e01b81526004016119ed9493929190612deb565b6000604051808303818588803b158015611a0657600080fd5b505af1158015611a1a573d6000803e3d6000fd5b505060fd546040516370a0823160e01b815230600482015260009450611a5893508592506001600160a01b03909116906370a082319060240161116d565b60fc546040516340c10f1960e01b8152336004820152602481018390529192506001600160a01b0316906340c10f1990604401600060405180830381600087803b158015611aa557600080fd5b505af1158015611ab9573d6000803e3d6000fd5b505061010554611acc925090508261224c565b6101055560fe54604080516001600160a01b03909216825234602083015281018290527f05b4560402420bd8983c57afad300174b00fa77c937eb6198910a65c4a8db6449060600160405180910390a198505050505050505050600160c95590565b6000611b39816121e1565b6001600160a01b038216611b865760405162461bcd60e51b815260206004820152601460248201527343616e74206265207a65726f206164647265737360601b60448201526064016109db565b60ff80546001600160a01b0319166001600160a01b0384169081179091556040519081527f9073dfac663173e64aa95665faedae52e2246f9bcdd3890fbfaf6733b46bba13906020015b60405180910390a15050565b6000611be7816121e1565b604051632142170760e11b8152306004820152336024820152604481018390526001600160a01b038416906342842e0e90606401600060405180830381600087803b158015611c3557600080fd5b505af1158015611c49573d6000803e3d6000fd5b50505050505050565b6000611c5d816121e1565b620186a08310611c7f5760405162461bcd60e51b81526004016109db90612ca8565b620186a08210611ca15760405162461bcd60e51b81526004016109db90612ca8565b61010383905561010482905560408051848152602081018490527f171d770c0ea5b3f386263a281ac79f8d22595c8d574541864ef20c9a0eab1fd9910160405180910390a1505050565b60009182526065602090815260408084206001600160a01b0393909316845291905290205460ff1690565b6000611d21816121e1565b604051637921219560e11b8152306004820152336024820152604481018490526064810183905260a06084820152600260a482015261060f60f31b60c48201526001600160a01b0385169063f242432a9060e401600060405180830381600087803b158015611d8f57600080fd5b505af1158015611da3573d6000803e3d6000fd5b5050505050505050565b6000611db8816121e1565b604051339083156108fc029084906000818181858888f193505050501580156112be573d6000803e3d6000fd5b600082815260656020526040902060010154611e00816121e1565b6112be83836122de565b60408051600280825260608201835260009283929190602083019080368337505060fb5482519293506001600160a01b031691839150600090611e5d57634e487b7160e01b600052603260045260246000fd5b6001600160a01b03928316602091820292909201015260fd54825191169082906001908110611e9c57634e487b7160e01b600052603260045260246000fd5b60200260200101906001600160a01b031690816001600160a01b031681525050600061010454620186a0611ed09190612eb3565b610100549091506000906001600160a01b031663d06ca61f611ef9620186a061069689876121c2565b856040518363ffffffff1660e01b8152600401611f17929190612dd2565b60006040518083038186803b158015611f2f57600080fd5b505afa158015611f43573d6000803e3d6000fd5b505050506040513d6000823e601f3d908101601f19168201604052611f6b9190810190612934565b9050806001815181106109a457634e487b7160e01b600052603260045260246000fd5b6000611f9a6001612345565b90508015611fb2576000805461ff0019166101001790555b611fba6123ca565b611fc26123f3565b611fca612426565b61010080546001600160a01b031990811673a5e0829caced8ffdd4de3c43696c57f7d7a678ff179091556101018054909116735757371414417b8c6caad45baef941abc7d3ab3217905561201f600088612258565b60fb80546001600160a01b03199081166001600160a01b038d81169190911790925560fc805482168c841617905560fd805482168b841617905560fe80548216898416179081905560ff8054909216888416179091556000610105556101028690556101038590556101048490556101005460405163095ea7b360e01b81529083166004820152600019602482015291169063095ea7b390604401602060405180830381600087803b1580156120d457600080fd5b505af11580156120e8573d6000803e3d6000fd5b505050506040513d601f19601f8201168201806040525081019061210c91906129f3565b508015612153576000805461ff0019169055604051600181527f7f26b83ff96e1f2b6a682f133852f6798a09c465da95921460cefb38474024989060200160405180910390a15b50505050505050505050565b600061216a816121e1565b620186a0821061218c5760405162461bcd60e51b81526004016109db90612ca8565b6101028290556040518281527f1a89170b7100a37f2e1a8bca9d866cd3f6d666800bfb0fa8dd82f0b2193c926f90602001611bd0565b60006121ce8284612e94565b9392505050565b60006121ce8284612e74565b6121eb8133612454565b50565b604080516001600160a01b038416602482015260448082018490528251808303909101815260649091019091526020810180516001600160e01b031663a9059cbb60e01b1790526112be9084906124b8565b60006121ce8284612eb3565b60006121ce8284612e5c565b6122628282611ceb565b6107dd5760008281526065602090815260408083206001600160a01b03851684529091529020805460ff1916600117905561229a3390565b6001600160a01b0316816001600160a01b0316837f2f8788117e7eff1d82e926ec794901d17c78024a50270940304540a733656f0d60405160405180910390a45050565b6122e88282611ceb565b156107dd5760008281526065602090815260408083206001600160a01b0385168085529252808320805460ff1916905551339285917ff6391f5c32d9c69d2a47ea670b442974b53935d1edc7fd64eb21e047a839171b9190a45050565b60008054610100900460ff161561238c578160ff1660011480156123685750303b155b6123845760405162461bcd60e51b81526004016109db90612d02565b50600061056e565b60005460ff8084169116106123b35760405162461bcd60e51b81526004016109db90612d02565b506000805460ff191660ff8316179055600161056e565b600054610100900460ff166123f15760405162461bcd60e51b81526004016109db90612d50565b565b600054610100900460ff1661241a5760405162461bcd60e51b81526004016109db90612d50565b6097805460ff19169055565b600054610100900460ff1661244d5760405162461bcd60e51b81526004016109db90612d50565b600160c955565b61245e8282611ceb565b6107dd57612476816001600160a01b0316601461258a565b61248183602061258a565b604051602001612492929190612c00565b60408051601f198184030181529082905262461bcd60e51b82526109db91600401612c75565b600061250d826040518060400160405280602081526020017f5361666545524332303a206c6f772d6c6576656c2063616c6c206661696c6564815250856001600160a01b031661276c9092919063ffffffff16565b8051909150156112be578080602001905181019061252b91906129f3565b6112be5760405162461bcd60e51b815260206004820152602a60248201527f5361666545524332303a204552433230206f7065726174696f6e20646964206e6044820152691bdd081cdd58d8d9595960b21b60648201526084016109db565b60606000612599836002612e94565b6125a4906002612e5c565b67ffffffffffffffff8111156125ca57634e487b7160e01b600052604160045260246000fd5b6040519080825280601f01601f1916602001820160405280156125f4576020820181803683370190505b509050600360fc1b8160008151811061261d57634e487b7160e01b600052603260045260246000fd5b60200101906001600160f81b031916908160001a905350600f60fb1b8160018151811061265a57634e487b7160e01b600052603260045260246000fd5b60200101906001600160f81b031916908160001a905350600061267e846002612e94565b612689906001612e5c565b90505b600181111561271d576f181899199a1a9b1b9c1cb0b131b232b360811b85600f16601081106126cb57634e487b7160e01b600052603260045260246000fd5b1a60f81b8282815181106126ef57634e487b7160e01b600052603260045260246000fd5b60200101906001600160f81b031916908160001a90535060049490941c9361271681612efa565b905061268c565b5083156121ce5760405162461bcd60e51b815260206004820181905260248201527f537472696e67733a20686578206c656e67746820696e73756666696369656e7460448201526064016109db565b606061277b8484600085612783565b949350505050565b6060824710156127e45760405162461bcd60e51b815260206004820152602660248201527f416464726573733a20696e73756666696369656e742062616c616e636520666f6044820152651c8818d85b1b60d21b60648201526084016109db565b6001600160a01b0385163b61283b5760405162461bcd60e51b815260206004820152601d60248201527f416464726573733a2063616c6c20746f206e6f6e2d636f6e747261637400000060448201526064016109db565b600080866001600160a01b031685876040516128579190612be4565b60006040518083038185875af1925050503d8060008114612894576040519150601f19603f3d011682016040523d82523d6000602084013e612899565b606091505b50915091506128a98282866128b4565b979650505050505050565b606083156128c35750816121ce565b8251156128d35782518084602001fd5b8160405162461bcd60e51b81526004016109db9190612c75565b6000602082840312156128fe578081fd5b81356121ce81612f3d565b6000806040838503121561291b578081fd5b823561292681612f3d565b946020939093013593505050565b60006020808385031215612946578182fd5b825167ffffffffffffffff8082111561295d578384fd5b818501915085601f830112612970578384fd5b81518181111561298257612982612f27565b838102604051601f19603f830116810181811085821117156129a6576129a6612f27565b604052828152858101935084860182860187018a10156129c4578788fd5b8795505b838610156129e65780518552600195909501949386019386016129c8565b5098975050505050505050565b600060208284031215612a04578081fd5b815180151581146121ce578182fd5b600060208284031215612a24578081fd5b5035919050565b60008060408385031215612a3d578182fd5b823591506020830135612a4f81612f3d565b809150509250929050565b600060208284031215612a6b578081fd5b81356001600160e01b0319811681146121ce578182fd5b600080600060608486031215612a96578081fd5b8335612aa181612f3d565b95602085013595506040909401359392505050565b60008060008060008060008060006101208a8c031215612ad4578485fd5b8935612adf81612f3d565b985060208a0135612aef81612f3d565b975060408a0135612aff81612f3d565b965060608a0135612b0f81612f3d565b955060808a0135612b1f81612f3d565b945060a08a0135612b2f81612f3d565b8094505060c08a0135925060e08a013591506101008a013590509295985092959850929598565b6000806040838503121561291b578182fd5b600060208284031215612b79578081fd5b5051919050565b60008060408385031215612b92578182fd5b50508035926020909101359150565b6000815180845260208085019450808401835b83811015612bd95781516001600160a01b031687529582019590820190600101612bb4565b509495945050505050565b60008251612bf6818460208701612eca565b9190910192915050565b60007f416363657373436f6e74726f6c3a206163636f756e742000000000000000000082528351612c38816017850160208801612eca565b7001034b99036b4b9b9b4b733903937b6329607d1b6017918401918201528351612c69816028840160208801612eca565b01602801949350505050565b6000602082528251806020840152612c94816040850160208701612eca565b601f01601f19169190910160400192915050565b60208082526016908201527543616e74206265206d6f7265207468616e203130302560501b604082015260600190565b60208082526010908201526f14185d5cd8589b194e881c185d5cd95960821b604082015260600190565b6020808252602e908201527f496e697469616c697a61626c653a20636f6e747261637420697320616c72656160408201526d191e481a5b9a5d1a585b1a5e995960921b606082015260800190565b6020808252602b908201527f496e697469616c697a61626c653a20636f6e7472616374206973206e6f74206960408201526a6e697469616c697a696e6760a81b606082015260800190565b6020808252601f908201527f5265656e7472616e637947756172643a207265656e7472616e742063616c6c00604082015260600190565b60008382526040602083015261277b6040830184612ba1565b600085825260806020830152612e046080830186612ba1565b6001600160a01b03949094166040830152506060015292915050565b600086825285602083015260a06040830152612e3f60a0830186612ba1565b6001600160a01b0394909416606083015250608001529392505050565b60008219821115612e6f57612e6f612f11565b500190565b600082612e8f57634e487b7160e01b81526012600452602481fd5b500490565b6000816000190483118215151615612eae57612eae612f11565b500290565b600082821015612ec557612ec5612f11565b500390565b60005b83811015612ee5578181015183820152602001612ecd565b83811115612ef4576000848401525b50505050565b600081612f0957612f09612f11565b506000190190565b634e487b7160e01b600052601160045260246000fd5b634e487b7160e01b600052604160045260246000fd5b6001600160a01b03811681146121eb57600080fdfea2646970667358221220b27bcf47fe4dcef8ae76ee7567fc16daa98f1db1f687e0b9cb226833248a24cd64736f6c63430008020033",
  "linkReferences": {},
  "deployedLinkReferences": {}
}