{
  "_format": "hh-sol-artifact-1",
  "contractName": "SubscriptionBalance",
  "sourceName": "contracts/SubscriptionBalance.sol",
  "abi": [
    {
      "anonymous": false,
      "inputs": [
        {
          "indexed": false,
          "internalType": "uint256",
          "name": "NFTId",
          "type": "uint256"
        },
        {
          "indexed": false,
          "internalType": "uint256",
          "name": "balanceType",
          "type": "uint256"
        },
        {
          "indexed": false,
          "internalType": "uint256",
          "name": "bal",
          "type": "uint256"
        }
      ],
      "name": "BalanceAdded",
      "type": "event"
    },
    {
      "anonymous": false,
      "inputs": [
        {
          "indexed": false,
          "internalType": "uint256",
          "name": "NFTId",
          "type": "uint256"
        },
        {
          "indexed": false,
          "internalType": "uint256",
          "name": "balanceType",
          "type": "uint256"
        },
        {
          "indexed": false,
          "internalType": "uint256",
          "name": "bal",
          "type": "uint256"
        }
      ],
      "name": "BalanceWithdrawn",
      "type": "event"
    },
    {
      "anonymous": false,
      "inputs": [
        {
          "indexed": false,
          "internalType": "uint256",
          "name": "ReferralPercent",
          "type": "uint256"
        },
        {
          "indexed": false,
          "internalType": "uint256",
          "name": "ReferralRevExpirySecs",
          "type": "uint256"
        }
      ],
      "name": "ChangedReferralAttributes",
      "type": "event"
    },
    {
      "anonymous": false,
      "inputs": [
        {
          "indexed": false,
          "internalType": "uint8",
          "name": "version",
          "type": "uint8"
        }
      ],
      "name": "Initialized",
      "type": "event"
    },
    {
      "anonymous": false,
      "inputs": [
        {
          "indexed": true,
          "internalType": "address",
          "name": "previousOwner",
          "type": "address"
        },
        {
          "indexed": true,
          "internalType": "address",
          "name": "newOwner",
          "type": "address"
        }
      ],
      "name": "OwnershipTransferred",
      "type": "event"
    },
    {
      "anonymous": false,
      "inputs": [
        {
          "indexed": false,
          "internalType": "address",
          "name": "account",
          "type": "address"
        }
      ],
      "name": "Paused",
      "type": "event"
    },
    {
      "anonymous": false,
      "inputs": [
        {
          "indexed": false,
          "internalType": "uint256",
          "name": "NFTId",
          "type": "uint256"
        }
      ],
      "name": "SettledBalanceFor",
      "type": "event"
    },
    {
      "anonymous": false,
      "inputs": [
        {
          "indexed": false,
          "internalType": "address",
          "name": "account",
          "type": "address"
        }
      ],
      "name": "Unpaused",
      "type": "event"
    },
    {
      "inputs": [],
      "name": "ApplicationNFT",
      "outputs": [
        {
          "internalType": "contract IERC721",
          "name": "",
          "type": "address"
        }
      ],
      "stateMutability": "view",
      "type": "function"
    },
    {
      "inputs": [],
      "name": "BalanceCalculator",
      "outputs": [
        {
          "internalType": "contract IBalanceCalculator",
          "name": "",
          "type": "address"
        }
      ],
      "stateMutability": "view",
      "type": "function"
    },
    {
      "inputs": [],
      "name": "LinkContract",
      "outputs": [
        {
          "internalType": "contract ILinkContract",
          "name": "",
          "type": "address"
        }
      ],
      "stateMutability": "view",
      "type": "function"
    },
    {
      "inputs": [],
      "name": "ReferralPercent",
      "outputs": [
        {
          "internalType": "uint256",
          "name": "",
          "type": "uint256"
        }
      ],
      "stateMutability": "view",
      "type": "function"
    },
    {
      "inputs": [],
      "name": "ReferralRevExpirySecs",
      "outputs": [
        {
          "internalType": "uint256",
          "name": "",
          "type": "uint256"
        }
      ],
      "stateMutability": "view",
      "type": "function"
    },
    {
      "inputs": [],
      "name": "RegistrationContract",
      "outputs": [
        {
          "internalType": "contract IRegistration",
          "name": "",
          "type": "address"
        }
      ],
      "stateMutability": "view",
      "type": "function"
    },
    {
      "inputs": [],
      "name": "SubscriptionContract",
      "outputs": [
        {
          "internalType": "contract ISubscription",
          "name": "",
          "type": "address"
        }
      ],
      "stateMutability": "view",
      "type": "function"
    },
    {
      "inputs": [],
      "name": "XCTToken",
      "outputs": [
        {
          "internalType": "contract IERC20Upgradeable",
          "name": "",
          "type": "address"
        }
      ],
      "stateMutability": "view",
      "type": "function"
    },
    {
      "inputs": [
        {
          "internalType": "uint256",
          "name": "_nftId",
          "type": "uint256"
        },
        {
          "internalType": "uint256",
          "name": "_balanceToAdd",
          "type": "uint256"
        }
      ],
      "name": "addBalance",
      "outputs": [
        {
          "internalType": "bool",
          "name": "",
          "type": "bool"
        }
      ],
      "stateMutability": "nonpayable",
      "type": "function"
    },
    {
      "inputs": [
        {
          "internalType": "uint256",
          "name": "_toNFTid",
          "type": "uint256"
        },
        {
          "internalType": "uint256",
          "name": "_balanceToAdd",
          "type": "uint256"
        },
        {
          "internalType": "uint256",
          "name": "_expiryUnixTimestamp",
          "type": "uint256"
        }
      ],
      "name": "addBalanceAsCredit",
      "outputs": [],
      "stateMutability": "nonpayable",
      "type": "function"
    },
    {
      "inputs": [
        {
          "internalType": "uint256",
          "name": "_NFTid",
          "type": "uint256"
        },
        {
          "internalType": "uint256",
          "name": "_balanceToAdd",
          "type": "uint256"
        }
      ],
      "name": "addBalanceAsExternalDeposit",
      "outputs": [],
      "stateMutability": "nonpayable",
      "type": "function"
    },
    {
      "inputs": [
        {
          "internalType": "uint256",
          "name": "_nftId",
          "type": "uint256"
        },
        {
          "internalType": "uint256",
          "name": "_subnetId",
          "type": "uint256"
        }
      ],
      "name": "addSubnetToNFT",
      "outputs": [
        {
          "internalType": "bool",
          "name": "",
          "type": "bool"
        }
      ],
      "stateMutability": "nonpayable",
      "type": "function"
    },
    {
      "inputs": [
        {
          "internalType": "uint256",
          "name": "NFTid",
          "type": "uint256"
        }
      ],
      "name": "balanceLeft",
      "outputs": [
        {
          "internalType": "uint256",
          "name": "",
          "type": "uint256"
        }
      ],
      "stateMutability": "view",
      "type": "function"
    },
    {
      "inputs": [
        {
          "internalType": "uint256",
          "name": "_nftId",
          "type": "uint256"
        },
        {
          "internalType": "uint256",
          "name": "_currentSubnetId",
          "type": "uint256"
        },
        {
          "internalType": "uint256",
          "name": "_newSubnetId",
          "type": "uint256"
        }
      ],
      "name": "changeSubnet",
      "outputs": [
        {
          "internalType": "bool",
          "name": "",
          "type": "bool"
        }
      ],
      "stateMutability": "nonpayable",
      "type": "function"
    },
    {
      "inputs": [
        {
          "internalType": "uint256",
          "name": "_ReferralPercent",
          "type": "uint256"
        },
        {
          "internalType": "uint256",
          "name": "_ReferralRevExpirySecs",
          "type": "uint256"
        }
      ],
      "name": "change__ReferralAttributes",
      "outputs": [],
      "stateMutability": "nonpayable",
      "type": "function"
    },
    {
      "inputs": [
        {
          "internalType": "address",
          "name": "",
          "type": "address"
        },
        {
          "internalType": "uint256",
          "name": "",
          "type": "uint256"
        }
      ],
      "name": "creditsExpiry",
      "outputs": [
        {
          "internalType": "uint256",
          "name": "",
          "type": "uint256"
        }
      ],
      "stateMutability": "view",
      "type": "function"
    },
    {
      "inputs": [
        {
          "internalType": "uint256",
          "name": "NFTid",
          "type": "uint256"
        }
      ],
      "name": "dripRatePerSec",
      "outputs": [
        {
          "internalType": "uint256",
          "name": "totalDripRate",
          "type": "uint256"
        }
      ],
      "stateMutability": "view",
      "type": "function"
    },
    {
      "inputs": [
        {
          "internalType": "uint256",
          "name": "NFTid",
          "type": "uint256"
        },
        {
          "internalType": "uint256",
          "name": "subnetId",
          "type": "uint256"
        }
      ],
      "name": "dripRatePerSecOfSubnet",
      "outputs": [
        {
          "internalType": "uint256",
          "name": "",
          "type": "uint256"
        }
      ],
      "stateMutability": "view",
      "type": "function"
    },
    {
      "inputs": [
        {
          "internalType": "uint256",
          "name": "NFTid",
          "type": "uint256"
        }
      ],
      "name": "getRealtimeBalances",
      "outputs": [
        {
          "internalType": "uint256[3]",
          "name": "",
          "type": "uint256[3]"
        }
      ],
      "stateMutability": "view",
      "type": "function"
    },
    {
      "inputs": [
        {
          "internalType": "uint256",
          "name": "NFTid",
          "type": "uint256"
        }
      ],
      "name": "getRealtimeCostIncurredUnsettled",
      "outputs": [
        {
          "internalType": "uint256",
          "name": "",
          "type": "uint256"
        }
      ],
      "stateMutability": "view",
      "type": "function"
    },
    {
      "inputs": [
        {
          "internalType": "contract IRegistration",
          "name": "_RegistrationContract",
          "type": "address"
        },
        {
          "internalType": "contract IERC721",
          "name": "_ApplicationNFT",
          "type": "address"
        },
        {
          "internalType": "contract IERC20Upgradeable",
          "name": "_XCTToken",
          "type": "address"
        },
        {
          "internalType": "contract IBalanceCalculator",
          "name": "_BalanceCalculator",
          "type": "address"
        },
        {
          "internalType": "uint256",
          "name": "_ReferralPercent",
          "type": "uint256"
        },
        {
          "internalType": "uint256",
          "name": "_ReferralRevExpirySecs",
          "type": "uint256"
        }
      ],
      "name": "initialize",
      "outputs": [],
      "stateMutability": "nonpayable",
      "type": "function"
    },
    {
      "inputs": [
        {
          "internalType": "uint256",
          "name": "_nftId",
          "type": "uint256"
        }
      ],
      "name": "isBalancePresent",
      "outputs": [
        {
          "internalType": "bool",
          "name": "",
          "type": "bool"
        }
      ],
      "stateMutability": "view",
      "type": "function"
    },
    {
      "inputs": [
        {
          "internalType": "uint256",
          "name": "",
          "type": "uint256"
        }
      ],
      "name": "nftBalances",
      "outputs": [
        {
          "internalType": "uint256",
          "name": "lastBalanceUpdateTime",
          "type": "uint256"
        },
        {
          "internalType": "address",
          "name": "NFTMinter",
          "type": "address"
        },
        {
          "internalType": "uint256",
          "name": "mintTime",
          "type": "uint256"
        },
        {
          "internalType": "uint256",
          "name": "endOfXCTBalance",
          "type": "uint256"
        }
      ],
      "stateMutability": "view",
      "type": "function"
    },
    {
      "inputs": [],
      "name": "owner",
      "outputs": [
        {
          "internalType": "address",
          "name": "",
          "type": "address"
        }
      ],
      "stateMutability": "view",
      "type": "function"
    },
    {
      "inputs": [],
      "name": "paused",
      "outputs": [
        {
          "internalType": "bool",
          "name": "",
          "type": "bool"
        }
      ],
      "stateMutability": "view",
      "type": "function"
    },
    {
      "inputs": [
        {
          "internalType": "uint256",
          "name": "NFTid",
          "type": "uint256"
        }
      ],
      "name": "prevBalances",
      "outputs": [
        {
          "internalType": "uint256[3]",
          "name": "",
          "type": "uint256[3]"
        }
      ],
      "stateMutability": "view",
      "type": "function"
    },
    {
      "inputs": [
        {
          "internalType": "uint256",
          "name": "_nftId",
          "type": "uint256"
        },
        {
          "internalType": "uint256",
          "name": "_subnetId",
          "type": "uint256"
        }
      ],
      "name": "r_licenseFee",
      "outputs": [
        {
          "internalType": "uint256",
          "name": "",
          "type": "uint256"
        }
      ],
      "stateMutability": "view",
      "type": "function"
    },
    {
      "inputs": [
        {
          "internalType": "uint256",
          "name": "_nftId",
          "type": "uint256"
        }
      ],
      "name": "refreshEndOfBalance",
      "outputs": [
        {
          "internalType": "bool",
          "name": "",
          "type": "bool"
        }
      ],
      "stateMutability": "nonpayable",
      "type": "function"
    },
    {
      "inputs": [],
      "name": "renounceOwnership",
      "outputs": [],
      "stateMutability": "nonpayable",
      "type": "function"
    },
    {
      "inputs": [],
      "name": "s_GlobalDAOAddress",
      "outputs": [
        {
          "internalType": "address",
          "name": "",
          "type": "address"
        }
      ],
      "stateMutability": "view",
      "type": "function"
    },
    {
      "inputs": [],
      "name": "s_GlobalDAORate",
      "outputs": [
        {
          "internalType": "uint256",
          "name": "",
          "type": "uint256"
        }
      ],
      "stateMutability": "view",
      "type": "function"
    },
    {
      "inputs": [
        {
          "internalType": "contract ILinkContract",
          "name": "_newLinkContract",
          "type": "address"
        }
      ],
      "name": "setLinkContract",
      "outputs": [],
      "stateMutability": "nonpayable",
      "type": "function"
    },
    {
      "inputs": [
        {
          "internalType": "address",
          "name": "_Subscription",
          "type": "address"
        }
      ],
      "name": "setSubscriptionContract",
      "outputs": [],
      "stateMutability": "nonpayable",
      "type": "function"
    },
    {
      "inputs": [
        {
          "internalType": "uint256",
          "name": "_nftId",
          "type": "uint256"
        }
      ],
      "name": "settleAccountBalance",
      "outputs": [
        {
          "internalType": "bool",
          "name": "",
          "type": "bool"
        }
      ],
      "stateMutability": "nonpayable",
      "type": "function"
    },
    {
      "inputs": [
        {
          "internalType": "uint256",
          "name": "_subnetId",
          "type": "uint256"
        }
      ],
      "name": "subnetDAOWalletFor1",
      "outputs": [
        {
          "internalType": "address",
          "name": "",
          "type": "address"
        }
      ],
      "stateMutability": "view",
      "type": "function"
    },
    {
      "inputs": [
        {
          "internalType": "uint256",
          "name": "_nftId",
          "type": "uint256"
        },
        {
          "internalType": "uint256",
          "name": "_balanceToAdd",
          "type": "uint256"
        },
        {
          "internalType": "uint256",
          "name": "_subnetId",
          "type": "uint256"
        },
        {
          "internalType": "address",
          "name": "_minter",
          "type": "address"
        }
      ],
      "name": "subscribeNew",
      "outputs": [
        {
          "internalType": "bool",
          "name": "",
          "type": "bool"
        }
      ],
      "stateMutability": "nonpayable",
      "type": "function"
    },
    {
      "inputs": [
        {
          "internalType": "uint256",
          "name": "_subnetId",
          "type": "uint256"
        }
      ],
      "name": "t_SupportFeeRate",
      "outputs": [
        {
          "internalType": "uint256",
          "name": "fee",
          "type": "uint256"
        }
      ],
      "stateMutability": "view",
      "type": "function"
    },
    {
      "inputs": [
        {
          "internalType": "uint256",
          "name": "_tokenId",
          "type": "uint256"
        }
      ],
      "name": "t_supportFeeAddress",
      "outputs": [
        {
          "internalType": "address",
          "name": "",
          "type": "address"
        }
      ],
      "stateMutability": "view",
      "type": "function"
    },
    {
      "inputs": [
        {
          "internalType": "uint256",
          "name": "NFTid",
          "type": "uint256"
        }
      ],
      "name": "totalPrevBalance",
      "outputs": [
        {
          "internalType": "uint256",
          "name": "",
          "type": "uint256"
        }
      ],
      "stateMutability": "view",
      "type": "function"
    },
    {
      "inputs": [
        {
          "internalType": "uint256",
          "name": "nftId",
          "type": "uint256"
        }
      ],
      "name": "totalSubnets",
      "outputs": [
        {
          "internalType": "uint256",
          "name": "",
          "type": "uint256"
        }
      ],
      "stateMutability": "view",
      "type": "function"
    },
    {
      "inputs": [
        {
          "internalType": "address",
          "name": "newOwner",
          "type": "address"
        }
      ],
      "name": "transferOwnership",
      "outputs": [],
      "stateMutability": "nonpayable",
      "type": "function"
    },
    {
      "inputs": [
        {
          "internalType": "uint256",
          "name": "_NFTid",
          "type": "uint256"
        }
      ],
      "name": "withdrawAllOwnerBalance",
      "outputs": [],
      "stateMutability": "nonpayable",
      "type": "function"
    },
    {
      "inputs": [
        {
          "internalType": "uint256",
          "name": "_NFTid",
          "type": "uint256"
        },
        {
          "internalType": "uint256",
          "name": "_bal",
          "type": "uint256"
        }
      ],
      "name": "withdrawBalance",
      "outputs": [],
      "stateMutability": "nonpayable",
      "type": "function"
    },
    {
      "inputs": [
        {
          "internalType": "uint256",
          "name": "_NFTid",
          "type": "uint256"
        },
        {
          "internalType": "uint256",
          "name": "_bal",
          "type": "uint256"
        },
        {
          "internalType": "address",
          "name": "customNFTcontract",
          "type": "address"
        },
        {
          "internalType": "uint256",
          "name": "customNFTid",
          "type": "uint256"
        }
      ],
      "name": "withdrawBalanceLinked",
      "outputs": [],
      "stateMutability": "nonpayable",
      "type": "function"
    },
    {
      "inputs": [
        {
          "internalType": "uint256",
          "name": "_NFTid",
          "type": "uint256"
        },
        {
          "internalType": "address",
          "name": "_to",
          "type": "address"
        }
      ],
      "name": "withdrawCreditsForNFT",
      "outputs": [],
      "stateMutability": "nonpayable",
      "type": "function"
    }
  ],
  "bytecode": "0x608060405234801561001057600080fd5b5061366a806100206000396000f3fe608060405234801561001057600080fd5b506004361061027e5760003560e01c806395d6f9761161015c578063b4e76676116100ce578063d480dc1411610087578063d480dc14146105eb578063d77370c9146105fe578063d7c41c7914610611578063dadd989a14610624578063f2fde38b14610637578063f73ecb301461064a5761027e565b8063b4e7667614610569578063b5d8e9861461057c578063b7cb42e41461058f578063c49f0fca146105b2578063c6d19003146105c5578063c9d14c55146105d85761027e565b8063a6d5d70211610120578063a6d5d70214610501578063a8440fe214610514578063abb4b9cd14610527578063aef72fb21461053a578063b0d47ef51461054d578063b4b33ecd146105565761027e565b806395d6f976146104ad57806396bbda3e146104c057806399655519146104c85780639c5a6dea146104db578063a40398a6146104ee5761027e565b80635c975abb116101f5578063715018a6116101b9578063715018a61461044557806385f834a81461044d57806388d6c8051461046d5780638d8440b3146104805780638da5cb5b1461048957806394f6340c1461049a5761027e565b80635c975abb146103765780635f7bc5101461038d578063620f8c7d146103b8578063632bd76a1461041f5780636f594033146104325761027e565b80632ee2ec90116102475780632ee2ec90146102f65780632fc84de814610309578063332061921461031c57806341910dc11461033d57806345c37cd414610350578063545204fe146103635761027e565b8062c274c4146102835780631505a4d414610298578063192cd212146102ab5780631bef5ddf146102db5780631d2e0223146102ee575b600080fd5b610296610291366004613205565b61065d565b005b6102966102a6366004613243565b6109de565b6102be6102b93660046130d2565b610c4d565b6040516001600160a01b0390911681526020015b60405180910390f35b6102be6102e93660046130d2565b610cd3565b6102be610d05565b610296610304366004613102565b610d87565b6099546102be906001600160a01b031681565b61032f61032a3660046131e4565b611238565b6040519081526020016102d2565b609a546102be906001600160a01b031681565b6098546102be906001600160a01b031681565b610296610371366004612f4f565b61143c565b60655460ff165b60405190151581526020016102d2565b61032f61039b366004612f87565b60a060209081526000928352604080842090915290825290205481565b6103f76103c63660046130d2565b609f60205260009081526040902080546005820154600683015460079093015491926001600160a01b039091169184565b604080519485526001600160a01b0390931660208501529183015260608201526080016102d2565b61029661042d3660046131e4565b6114cf565b609b546102be906001600160a01b031681565b61029661174b565b61046061045b3660046130d2565b611781565b6040516102d2919061330e565b61037d61047b3660046130d2565b611825565b61032f609c5481565b6033546001600160a01b03166102be565b61037d6104a836600461326e565b6119de565b6102966104bb3660046131e4565b611b14565b61032f611b85565b6102966104d63660046131e4565b611c02565b6104606104e93660046130d2565b611db9565b61037d6104fc3660046131e4565b611e08565b61032f61050f3660046130d2565b611e1e565b61032f6105223660046131e4565b611ed3565b6097546102be906001600160a01b031681565b61037d6105483660046130d2565b611f5e565b61032f609d5481565b61032f6105643660046130d2565b611f87565b61037d6105773660046130d2565b611fed565b61032f61058a3660046130d2565b612195565b61032f61059d3660046130d2565b6000908152609f602052604090206004015490565b61032f6105c03660046130d2565b6121f8565b61037d6105d33660046131e4565b61228d565b609e546102be906001600160a01b031681565b6102966105f93660046130d2565b6122e3565b61029661060c366004612f4f565b61248c565b61029661061f366004613065565b6124d8565b61037d610632366004613243565b6125af565b610296610645366004612f4f565b6126ed565b61032f6106583660046130d2565b612788565b60655460ff16156106895760405162461bcd60e51b81526004016106809061338f565b60405180910390fd5b609b546000858152609f6020526040808220600581015460068201548254935163180de30360e21b81528a966001600160a01b03908116956360378c0c956106e7958a95600480840196959092169490936001909301929101613487565b606060405180830381600087803b15801561070157600080fd5b505af1158015610715573d6000803e3d6000fd5b505050506040513d601f19601f820116820180604052508101906107399190612fb2565b905060405180606001604052808260006003811061076757634e487b7160e01b600052603260045260246000fd5b602002015181526020018260016003811061079257634e487b7160e01b600052603260045260246000fd5b60200201518152602001826002600381106107bd57634e487b7160e01b600052603260045260246000fd5b6020020151815250609f60008481526020019081526020016000206001019060036107e9929190612e12565b506000828152609f602052604090819020429055609e549051633cbf381360e01b81526001600160a01b038681166004830152602482018690526044820189905290911690633cbf38139060640160206040518083038186803b15801561084f57600080fd5b505afa158015610863573d6000803e3d6000fd5b505050506040513d601f19601f82011682018060405250810190610887919061304b565b6108eb5760405162461bcd60e51b815260206004820152602f60248201527f4e6f74206c696e6b656420637573746f6d204e465420696e204c696e6b4e465460448201526e081cdb585c9d0818dbdb9d1c9858dd608a1b6064820152608401610680565b336040516331a9108f60e11b8152600481018590526001600160a01b0391821691861690636352211e9060240160206040518083038186803b15801561093057600080fd5b505afa158015610944573d6000803e3d6000fd5b505050506040513d601f19601f820116820180604052508101906109689190612f6b565b6001600160a01b0316146109cc5760405162461bcd60e51b815260206004820152602560248201527f53656e646572206e6f7420746865206f776e6572206f6620437573746f6d204e6044820152641195081a5960da1b6064820152608401610680565b6109d68686612817565b505050505050565b60655460ff1615610a015760405162461bcd60e51b81526004016106809061338f565b33600090815260a06020908152604080832086845290915290205483908211610a925760405162461bcd60e51b815260206004820152603860248201527f43726564697473206578706972792063616e6e6f7420626520736574206c657360448201527f736572207468616e2070726576696f75732065787069727900000000000000006064820152608401610680565b6099546001600160a01b03166323b872dd33609b5460405160e084901b6001600160e01b03191681526001600160a01b0392831660048201529116602482015260448101869052606401602060405180830381600087803b158015610af657600080fd5b505af1158015610b0a573d6000803e3d6000fd5b505050506040513d601f19601f82011682018060405250810190610b2e919061304b565b50604080516060810182526000838152609f60205291822090918291610b5d918791600101905b015490612b1d565b81526000838152609f6020818152604080842060028101548387015260038082015492909601919091529286905252610b9b92600190910191612e12565b50610ba581611825565b506000818152609f60205260409020429055610bdc610bd5610bc683611e1e565b610bcf84611f87565b90612b29565b4290612b1d565b6000828152609f602090815260408083206007019390935533825260a08152828220848352815282822085905582518481529081019190915280820185905290517fc3cb85e2217091051779d8f75f52cc9874723c3b9fad06042a5fa2df88df96429181900360600190a150505050565b6097546040516379fed2eb60e01b8152600481018390526000916001600160a01b0316906379fed2eb906024015b60206040518083038186803b158015610c9357600080fd5b505afa158015610ca7573d6000803e3d6000fd5b505050506040513d601f19601f82011682018060405250810190610ccb9190612f6b565b90505b919050565b6098546040516331a9108f60e11b8152600481018390526000916001600160a01b031690636352211e90602401610c7b565b609754604080516341facd6360e11b815290516000926001600160a01b0316916383f59ac6916004808301926020929190829003018186803b158015610d4a57600080fd5b505afa158015610d5e573d6000803e3d6000fd5b505050506040513d601f19601f82011682018060405250810190610d829190612f6b565b905090565b609a546001600160a01b03166391d148547f86c262939a9533c4628ccc11f9decb407b7c04ffc9311f0c60d1f23d7d790db7336040516001600160e01b031960e085901b16815260048101929092526001600160a01b0316602482015260440160206040518083038186803b158015610dff57600080fd5b505afa158015610e13573d6000803e3d6000fd5b505050506040513d601f19601f82011682018060405250810190610e37919061304b565b610e9b5760405162461bcd60e51b815260206004820152602f60248201527f53656e646572206973206e6f742061737369676e656420746f2057495448445260448201526e41575f435245444954535f524f4c4560881b6064820152608401610680565b60655460ff1615610ebe5760405162461bcd60e51b81526004016106809061338f565b609b546000838152609f6020526040808220600581015460068201548254935163180de30360e21b815288966001600160a01b03908116956360378c0c95610f1c958a95600480840196959092169490936001909301929101613487565b606060405180830381600087803b158015610f3657600080fd5b505af1158015610f4a573d6000803e3d6000fd5b505050506040513d601f19601f82011682018060405250810190610f6e9190612fb2565b9050604051806060016040528082600060038110610f9c57634e487b7160e01b600052603260045260246000fd5b6020020151815260200182600160038110610fc757634e487b7160e01b600052603260045260246000fd5b6020020151815260200182600260038110610ff257634e487b7160e01b600052603260045260246000fd5b6020020151815250609f600084815260200190815260200160002060010190600361101e929190612e12565b506000828152609f6020908152604080832042908190558784528184206001015433855260a084528285208986529093529220548692116110a15760405162461bcd60e51b815260206004820152601760248201527f43726564697473206e6f742065787069726564207965740000000000000000006044820152606401610680565b604051806060016040528060008152602001609f60008581526020019081526020016000206001016001600381106110e957634e487b7160e01b600052603260045260246000fd5b015481526000848152609f60208181526040832060038082015495830195909552928790525261111e92600190910191612e12565b506000828152609f60205260409020429055611148610bd561113f84611e1e565b610bcf85611f87565b6000838152609f60205260409081902060070191909155609954905163a9059cbb60e01b81526001600160a01b038781166004830152602482018490529091169063a9059cbb90604401602060405180830381600087803b1580156111ac57600080fd5b505af11580156111c0573d6000803e3d6000fd5b505050506040513d601f19601f820116820180604052508101906111e4919061304b565b506111ee82611825565b5060408051878152600060208201529081018290527f9fc5fbd32dfd68871ac42806891adcad25750bfe126df566b5077854f5f630919060600160405180910390a1505050505050565b60008061126f620186a0611269609c5461126961125488612788565b6112696112618b8b611ed3565b611269611b85565b90612b1d565b6097546040516373d97f3960e01b8152600481018690529192506000916001600160a01b03909116906373d97f399060240160006040518083038186803b1580156112b957600080fd5b505afa1580156112cd573d6000803e3d6000fd5b505050506040513d6000823e601f3d908101601f191682016040526112f59190810190613131565b5050609a546040516321b12a6b60e11b8152939850600097508796506001600160a01b0316945063436254d6935061133e928c92508b9150600401918252602082015260400190565b60006040518083038186803b15801561135657600080fd5b505afa15801561136a573d6000803e3d6000fd5b505050506040513d6000823e601f3d908101601f191682016040526113929190810190613018565b905060005b835181101561141f5761140b6114048383815181106113c657634e487b7160e01b600052603260045260246000fd5b60200260200101518684815181106113ee57634e487b7160e01b600052603260045260246000fd5b6020026020010151612b3590919063ffffffff16565b8490612b1d565b925080611417816135d8565b915050611397565b50611431620186a0610bcf8685612b35565b979650505050505050565b6033546001600160a01b031633146114665760405162461bcd60e51b815260040161068090613407565b609a546001600160a01b0316156114ad5760405162461bcd60e51b815260206004820152600b60248201526a105b1c9958591e481cd95d60aa1b6044820152606401610680565b609a80546001600160a01b0319166001600160a01b0392909216919091179055565b60655460ff16156114f25760405162461bcd60e51b81526004016106809061338f565b609b546000838152609f6020526040808220600581015460068201548254935163180de30360e21b815288966001600160a01b03908116956360378c0c95611550958a95600480840196959092169490936001909301929101613487565b606060405180830381600087803b15801561156a57600080fd5b505af115801561157e573d6000803e3d6000fd5b505050506040513d601f19601f820116820180604052508101906115a29190612fb2565b90506040518060600160405280826000600381106115d057634e487b7160e01b600052603260045260246000fd5b60200201518152602001826001600381106115fb57634e487b7160e01b600052603260045260246000fd5b602002015181526020018260026003811061162657634e487b7160e01b600052603260045260246000fd5b6020020151815250609f6000848152602001908152602001600020600101906003611652929190612e12565b506000828152609f60205260409020429055336098546040516331a9108f60e11b8152600481018790526001600160a01b039283169290911690636352211e9060240160206040518083038186803b1580156116ad57600080fd5b505afa1580156116c1573d6000803e3d6000fd5b505050506040513d601f19601f820116820180604052508101906116e59190612f6b565b6001600160a01b03161461173b5760405162461bcd60e51b815260206004820152601e60248201527f53656e646572206e6f7420746865206f776e6572206f66204e465420696400006044820152606401610680565b6117458484612817565b50505050565b6033546001600160a01b031633146117755760405162461bcd60e51b815260040161068090613407565b61177f6000612b41565b565b611789612e50565b609b546000838152609f60205260409081902080549151631fcec4ef60e21b81526001600160a01b0390931692637f3b13bc926117d592879260048083019360019093019291016134d9565b60606040518083038186803b1580156117ed57600080fd5b505afa158015611801573d6000803e3d6000fd5b505050506040513d601f19601f82011682018060405250810190610ccb9190612fb2565b609b546000828152609f6020526040808220600581015460068201548254935163180de30360e21b81529495879587956001600160a01b03928316956360378c0c95611884958a95600480850196939091169491936001019201613487565b606060405180830381600087803b15801561189e57600080fd5b505af11580156118b2573d6000803e3d6000fd5b505050506040513d601f19601f820116820180604052508101906118d69190612fb2565b905060405180606001604052808260006003811061190457634e487b7160e01b600052603260045260246000fd5b602002015181526020018260016003811061192f57634e487b7160e01b600052603260045260246000fd5b602002015181526020018260026003811061195a57634e487b7160e01b600052603260045260246000fd5b6020020151815250609f6000848152602001908152602001600020600101906003611986929190612e12565b506000828152609f602052604090819020429055517f3bda1b4694d992fb54cc978eeb244d68fdc43b35bd6ab79072a3cd06caf4379d906119ca9086815260200190565b60405180910390a1600192505b5050919050565b609a546000906001600160a01b03163314611a0b5760405162461bcd60e51b81526004016106809061333f565b6040805160c08101825242808252825160608181018552600080835260208381018290528387018290528086019384528587018390526001600160a01b03891686840152608086019490945260a085018190528a8152609f90935293909120825181559051611a809060018301906003612e12565b5060408201518051611a9c916004840191602090910190612e6e565b5060608201516005820180546001600160a01b0319166001600160a01b039092169190911790556080820151600682015560a0909101516007909101556000868152609f6020908152604082206004018054600181018255908352912001849055611b078686612b93565b5060019695505050505050565b6033546001600160a01b03163314611b3e5760405162461bcd60e51b815260040161068090613407565b609c829055609d81905560408051838152602081018390527f9060cd8adabd78a7c227c233ac5e2c8eccad79cc1567d501d043485484625164910160405180910390a15050565b609754604080516319ec727760e31b815290516000926001600160a01b03169163cf6393b8916004808301926020929190829003018186803b158015611bca57600080fd5b505afa158015611bde573d6000803e3d6000fd5b505050506040513d601f19601f82011682018060405250810190610d8291906130ea565b60655460ff1615611c255760405162461bcd60e51b81526004016106809061338f565b60995482906001600160a01b03166323b872dd33609b5460405160e084901b6001600160e01b03191681526001600160a01b0392831660048201529116602482015260448101859052606401602060405180830381600087803b158015611c8b57600080fd5b505af1158015611c9f573d6000803e3d6000fd5b505050506040513d601f19601f82011682018060405250810190611cc3919061304b565b50604080516060810182526000838152609f6020818152938220600190810180548552928690529084529192830191611cfd918691610b55565b81526000838152609f602081815260408320600380820154958301959095529286905252611d3092600190910191612e12565b50611d3a81611825565b506000818152609f60205260409020429055611d5b610bd5610bc683611e1e565b6000828152609f602090815260409182902060070192909255805183815260019281019290925281018390527fc3cb85e2217091051779d8f75f52cc9874723c3b9fad06042a5fa2df88df96429060600160405180910390a1505050565b611dc1612e50565b6000828152609f60205260409081902081516060810190925260010160038282826020028201915b815481526020019060010190808311611de95750505050509050919050565b6000611e148383612b93565b5060019392505050565b6000818152609f6020908152604080832060040180548251818502810185019093528083528493830182828015611e7457602002820191906000526020600020905b815481526020019060010190808311611e60575b505050505090506000915060005b81518110156119d757611ebf61140485848481518110611eb257634e487b7160e01b600052603260045260246000fd5b6020026020010151611238565b925080611ecb816135d8565b915050611e82565b609a5460405163542207f160e11b815260048101849052602481018390526000916001600160a01b03169063a8440fe29060440160206040518083038186803b158015611f1f57600080fd5b505afa158015611f33573d6000803e3d6000fd5b505050506040513d601f19601f82011682018060405250810190611f5791906130ea565b9392505050565b6000818152609f6020526040812060070154421015611f7f57506001610cce565b506000919050565b600080805b6003811015611fe6576000848152609f60205260409020611fd2906001018260038110611fc957634e487b7160e01b600052603260045260246000fd5b01548390612b1d565b915080611fde816135d8565b915050611f8c565b5092915050565b609b546000828152609f6020526040808220600581015460068201548254935163180de30360e21b81529495879587956001600160a01b03928316956360378c0c9561204c958a95600480850196939091169491936001019201613487565b606060405180830381600087803b15801561206657600080fd5b505af115801561207a573d6000803e3d6000fd5b505050506040513d601f19601f8201168201806040525081019061209e9190612fb2565b90506040518060600160405280826000600381106120cc57634e487b7160e01b600052603260045260246000fd5b60200201518152602001826001600381106120f757634e487b7160e01b600052603260045260246000fd5b602002015181526020018260026003811061212257634e487b7160e01b600052603260045260246000fd5b6020020151815250609f600084815260200190815260200160002060010190600361214e929190612e12565b506000828152609f60205260409020429055612178610bd561216f86611e1e565b610bcf87611f87565b6000858152609f6020526040902060070155600192505050919050565b6000806121c46121a484611e1e565b6000858152609f60205260409020546121be904290612d1e565b90612b35565b905060006121d184611f87565b9050818110156121e657600092505050610cce565b6121f08183612d1e565b949350505050565b609b546000828152609f60205260408082208054915163193a6ea960e31b815292936001600160a01b03169263c9d375489261223d9287926004918201929101613510565b60206040518083038186803b15801561225557600080fd5b505afa158015612269573d6000803e3d6000fd5b505050506040513d601f19601f82011682018060405250810190610ccb91906130ea565b609a546000906001600160a01b031633146122ba5760405162461bcd60e51b81526004016106809061333f565b506000918252609f60209081526040832060040180546001808201835591855291909320015590565b60655460ff16156123065760405162461bcd60e51b81526004016106809061338f565b609b546000828152609f6020526040808220600581015460068201548254935163180de30360e21b815287966001600160a01b03908116956360378c0c95612364958a95600480840196959092169490936001909301929101613487565b606060405180830381600087803b15801561237e57600080fd5b505af1158015612392573d6000803e3d6000fd5b505050506040513d601f19601f820116820180604052508101906123b69190612fb2565b90506040518060600160405280826000600381106123e457634e487b7160e01b600052603260045260246000fd5b602002015181526020018260016003811061240f57634e487b7160e01b600052603260045260246000fd5b602002015181526020018260026003811061243a57634e487b7160e01b600052603260045260246000fd5b6020020151815250609f6000848152602001908152602001600020600101906003612466929190612e12565b506000828152609f60205260408082204290558482529020600301546117458482612817565b6033546001600160a01b031633146124b65760405162461bcd60e51b815260040161068090613407565b609e80546001600160a01b0319166001600160a01b0392909216919091179055565b60006124e46001612d2a565b905080156124fc576000805461ff0019166101001790555b612504612daf565b61250c612ddf565b609780546001600160a01b03808a166001600160a01b0319928316179092556098805489841690831617905560998054888416908316179055609b805492871692909116919091179055609c839055609d82905580156125a6576000805461ff0019169055604051600181527f7f26b83ff96e1f2b6a682f133852f6798a09c465da95921460cefb38474024989060200160405180910390a15b50505050505050565b609a546000906001600160a01b031633146125dc5760405162461bcd60e51b81526004016106809061333f565b6000848152609f602090815260408083206004018054825181850281018501909352808352919290919083018282801561263557602002820191906000526020600020905b815481526020019060010190808311612621575b5050505050905060005b81518110156126bb578482828151811061266957634e487b7160e01b600052603260045260246000fd5b602002602001015114156126a9578382828151811061269857634e487b7160e01b600052603260045260246000fd5b6020026020010181815250506126bb565b806126b3816135d8565b91505061263f565b506000858152609f6020908152604090912082516126e192600490920191840190612e6e565b50600195945050505050565b6033546001600160a01b031633146127175760405162461bcd60e51b815260040161068090613407565b6001600160a01b03811661277c5760405162461bcd60e51b815260206004820152602660248201527f4f776e61626c653a206e6577206f776e657220697320746865207a65726f206160448201526564647265737360d01b6064820152608401610680565b61278581612b41565b50565b6097546040516373d97f3960e01b8152600481018390526000916001600160a01b0316906373d97f399060240160006040518083038186803b1580156127cd57600080fd5b505afa1580156127e1573d6000803e3d6000fd5b505050506040513d6000823e601f3d908101601f191682016040526128099190810190613131565b509998505050505050505050565b60655460ff161561283a5760405162461bcd60e51b81526004016106809061338f565b609b546000838152609f6020526040808220600581015460068201548254935163180de30360e21b815288966001600160a01b03908116956360378c0c95612898958a95600480840196959092169490936001909301929101613487565b606060405180830381600087803b1580156128b257600080fd5b505af11580156128c6573d6000803e3d6000fd5b505050506040513d601f19601f820116820180604052508101906128ea9190612fb2565b905060405180606001604052808260006003811061291857634e487b7160e01b600052603260045260246000fd5b602002015181526020018260016003811061294357634e487b7160e01b600052603260045260246000fd5b602002015181526020018260026003811061296e57634e487b7160e01b600052603260045260246000fd5b6020020151815250609f600084815260200190815260200160002060010190600361299a929190612e12565b506000828152609f6020526040902042905560995484906001600160a01b031663a9059cbb336040516001600160e01b031960e084901b1681526001600160a01b03909116600482015260248101879052604401602060405180830381600087803b158015612a0857600080fd5b505af1158015612a1c573d6000803e3d6000fd5b505050506040513d601f19601f82011682018060405250810190612a40919061304b565b50604080516060810182526000838152609f6020818152848320600181015485526002810154828601529286905252600301549091820190612a829087612d1e565b90526000828152609f60205260409020612aa3916001909101906003612e12565b50612aad81611825565b50612abd610bd5610bc683611e1e565b6000828152609f602090815260409182902060070192909255805183815260029281019290925281018590527f9fc5fbd32dfd68871ac42806891adcad25750bfe126df566b5077854f5f630919060600160405180910390a15050505050565b6000611f57828461356a565b6000611f578284613582565b6000611f5782846135a2565b603380546001600160a01b038381166001600160a01b0319831681179093556040519116919082907f8be0079c531659141344cd1fd0a4f28419497f9722a3daafe3b4186f6b6457e090600090a35050565b60995460009083906001600160a01b03166323b872dd33609b5460405160e084901b6001600160e01b03191681526001600160a01b0392831660048201529116602482015260448101869052606401602060405180830381600087803b158015612bfc57600080fd5b505af1158015612c10573d6000803e3d6000fd5b505050506040513d601f19601f82011682018060405250810190612c34919061304b565b50612c3e81611f87565b612c54576000818152609f602052604090204290555b604080516060810182526000838152609f6020818152848320600181018054865260029182015483870152938790529190529192830191612c96918791610b55565b90526000828152609f60205260409020612cb7916001909101906003612e12565b506000818152609f60205260409020429055612cd284611fed565b5060408051858152600260208201529081018490527fc3cb85e2217091051779d8f75f52cc9874723c3b9fad06042a5fa2df88df96429060600160405180910390a15060019392505050565b6000611f5782846135c1565b60008054610100900460ff1615612d71578160ff166001148015612d4d5750303b155b612d695760405162461bcd60e51b8152600401610680906133b9565b506000610cce565b60005460ff808416911610612d985760405162461bcd60e51b8152600401610680906133b9565b506000805460ff191660ff83161790556001610cce565b600054610100900460ff16612dd65760405162461bcd60e51b81526004016106809061343c565b61177f33612b41565b600054610100900460ff16612e065760405162461bcd60e51b81526004016106809061343c565b6065805460ff19169055565b8260038101928215612e40579160200282015b82811115612e40578251825591602001919060010190612e25565b50612e4c929150612ea8565b5090565b60405180606001604052806003906020820280368337509192915050565b828054828255906000526020600020908101928215612e405791602002820182811115612e40578251825591602001919060010190612e25565b5b80821115612e4c5760008155600101612ea9565b600082601f830112612ecd578081fd5b8151602067ffffffffffffffff821115612ee957612ee9613609565b808202612ef7828201613539565b838152828101908684018388018501891015612f11578687fd5b8693505b85841015612f33578051835260019390930192918401918401612f15565b50979650505050505050565b80518015158114610cce57600080fd5b600060208284031215612f60578081fd5b8135611f578161361f565b600060208284031215612f7c578081fd5b8151611f578161361f565b60008060408385031215612f99578081fd5b8235612fa48161361f565b946020939093013593505050565b600060608284031215612fc3578081fd5b82601f830112612fd1578081fd5b612fdb6060613539565b808385606086011115612fec578384fd5b835b600381101561300d578151845260209384019390910190600101612fee565b509095945050505050565b600060208284031215613029578081fd5b815167ffffffffffffffff81111561303f578182fd5b6121f084828501612ebd565b60006020828403121561305c578081fd5b611f5782612f3f565b60008060008060008060c0878903121561307d578182fd5b86356130888161361f565b955060208701356130988161361f565b945060408701356130a88161361f565b935060608701356130b88161361f565b9598949750929560808101359460a0909101359350915050565b6000602082840312156130e3578081fd5b5035919050565b6000602082840312156130fb578081fd5b5051919050565b60008060408385031215613114578182fd5b8235915060208301356131268161361f565b809150509250929050565b60008060008060008060008060006101208a8c03121561314f578687fd5b8951985061315f60208b01612f3f565b975060408a0151965061317460608b01612f3f565b955060808a015167ffffffffffffffff80821115613190578485fd5b61319c8d838e01612ebd565b965060a08c01519150808211156131b1578485fd5b506131be8c828d01612ebd565b94505060c08a0151925060e08a015191506101008a015190509295985092959850929598565b600080604083850312156131f6578182fd5b50508035926020909101359150565b6000806000806080858703121561321a578182fd5b843593506020850135925060408501356132338161361f565b9396929550929360600135925050565b600080600060608486031215613257578081fd5b505081359360208301359350604090920135919050565b60008060008060808587031215613283578182fd5b84359350602085013592506040850135915060608501356132a38161361f565b939692955090935050565b8060005b60038110156117455781548452602090930192600191820191016132b2565b6000815480845260208085019450838352808320835b83811015613303578154875295820195600191820191016132e7565b509495945050505050565b60608101818360005b6003811015613336578151835260209283019290910190600101613317565b50505092915050565b60208082526030908201527f537562736372697074696f6e436f6e74726163742063616e206f6e6c7920636160408201526f3636103a3434b990333ab731ba34b7b760811b606082015260800190565b60208082526010908201526f14185d5cd8589b194e881c185d5cd95960821b604082015260600190565b6020808252602e908201527f496e697469616c697a61626c653a20636f6e747261637420697320616c72656160408201526d191e481a5b9a5d1a585b1a5e995960921b606082015260800190565b6020808252818101527f4f776e61626c653a2063616c6c6572206973206e6f7420746865206f776e6572604082015260600190565b6020808252602b908201527f496e697469616c697a61626c653a20636f6e7472616374206973206e6f74206960408201526a6e697469616c697a696e6760a81b606082015260800190565b60006101008883528060208401526134a1818401896132d1565b6001600160a01b03881660408501526060840187905291506134c8905060808301856132ae565b8260e0830152979650505050505050565b600085825260c060208301526134f260c08301866132d1565b905061350160408301856132ae565b8260a083015295945050505050565b60008482526060602083015261352960608301856132d1565b9050826040830152949350505050565b604051601f8201601f1916810167ffffffffffffffff8111828210171561356257613562613609565b604052919050565b6000821982111561357d5761357d6135f3565b500190565b60008261359d57634e487b7160e01b81526012600452602481fd5b500490565b60008160001904831182151516156135bc576135bc6135f3565b500290565b6000828210156135d3576135d36135f3565b500390565b60006000198214156135ec576135ec6135f3565b5060010190565b634e487b7160e01b600052601160045260246000fd5b634e487b7160e01b600052604160045260246000fd5b6001600160a01b038116811461278557600080fdfea2646970667358221220a932c3456f94690acb2feda74f07158e7fe694f50cd5a9e3cb3dea955ce823fb64736f6c63430008020033",
  "linkReferences": {},
  "deployedLinkReferences": {}
}