{
  "_format": "hh-sol-artifact-1",
  "contractName": "SubscriptionBalance",
  "sourceName": "contracts/SubscriptionBalance.sol",
  "abi": [
    {
      "anonymous": false,
      "inputs": [
        {
          "indexed": false,
          "internalType": "uint256",
          "name": "NFTId",
          "type": "uint256"
        },
        {
          "indexed": false,
          "internalType": "uint256",
          "name": "balanceType",
          "type": "uint256"
        },
        {
          "indexed": false,
          "internalType": "uint256",
          "name": "bal",
          "type": "uint256"
        }
      ],
      "name": "BalanceAdded",
      "type": "event"
    },
    {
      "anonymous": false,
      "inputs": [
        {
          "indexed": false,
          "internalType": "uint256",
          "name": "NFTId",
          "type": "uint256"
        },
        {
          "indexed": false,
          "internalType": "uint256",
          "name": "balanceType",
          "type": "uint256"
        },
        {
          "indexed": false,
          "internalType": "uint256",
          "name": "bal",
          "type": "uint256"
        }
      ],
      "name": "BalanceWithdrawn",
      "type": "event"
    },
    {
      "anonymous": false,
      "inputs": [
        {
          "indexed": false,
          "internalType": "uint256",
          "name": "ReferralPercent",
          "type": "uint256"
        },
        {
          "indexed": false,
          "internalType": "uint256",
          "name": "ReferralRevExpirySecs",
          "type": "uint256"
        }
      ],
      "name": "ChangedReferralAttributes",
      "type": "event"
    },
    {
      "anonymous": false,
      "inputs": [
        {
          "indexed": false,
          "internalType": "uint8",
          "name": "version",
          "type": "uint8"
        }
      ],
      "name": "Initialized",
      "type": "event"
    },
    {
      "anonymous": false,
      "inputs": [
        {
          "indexed": true,
          "internalType": "address",
          "name": "previousOwner",
          "type": "address"
        },
        {
          "indexed": true,
          "internalType": "address",
          "name": "newOwner",
          "type": "address"
        }
      ],
      "name": "OwnershipTransferred",
      "type": "event"
    },
    {
      "anonymous": false,
      "inputs": [
        {
          "indexed": false,
          "internalType": "address",
          "name": "account",
          "type": "address"
        }
      ],
      "name": "Paused",
      "type": "event"
    },
    {
      "anonymous": false,
      "inputs": [
        {
          "indexed": false,
          "internalType": "uint256",
          "name": "NFTId",
          "type": "uint256"
        }
      ],
      "name": "RefreshedBalance",
      "type": "event"
    },
    {
      "anonymous": false,
      "inputs": [
        {
          "indexed": false,
          "internalType": "address",
          "name": "account",
          "type": "address"
        }
      ],
      "name": "Unpaused",
      "type": "event"
    },
    {
      "inputs": [],
      "name": "ApplicationNFT",
      "outputs": [
        {
          "internalType": "contract IERC721",
          "name": "",
          "type": "address"
        }
      ],
      "stateMutability": "view",
      "type": "function"
    },
    {
      "inputs": [],
      "name": "BalanceCalculator",
      "outputs": [
        {
          "internalType": "contract IBalanceCalculator",
          "name": "",
          "type": "address"
        }
      ],
      "stateMutability": "view",
      "type": "function"
    },
    {
      "inputs": [],
      "name": "ReferralPercent",
      "outputs": [
        {
          "internalType": "uint256",
          "name": "",
          "type": "uint256"
        }
      ],
      "stateMutability": "view",
      "type": "function"
    },
    {
      "inputs": [],
      "name": "ReferralRevExpirySecs",
      "outputs": [
        {
          "internalType": "uint256",
          "name": "",
          "type": "uint256"
        }
      ],
      "stateMutability": "view",
      "type": "function"
    },
    {
      "inputs": [],
      "name": "RegistrationContract",
      "outputs": [
        {
          "internalType": "contract IRegistration",
          "name": "",
          "type": "address"
        }
      ],
      "stateMutability": "view",
      "type": "function"
    },
    {
      "inputs": [],
      "name": "SubscriptionContract",
      "outputs": [
        {
          "internalType": "contract ISubscription",
          "name": "",
          "type": "address"
        }
      ],
      "stateMutability": "view",
      "type": "function"
    },
    {
      "inputs": [],
      "name": "XCTToken",
      "outputs": [
        {
          "internalType": "contract IERC20Upgradeable",
          "name": "",
          "type": "address"
        }
      ],
      "stateMutability": "view",
      "type": "function"
    },
    {
      "inputs": [
        {
          "internalType": "uint256",
          "name": "_nftId",
          "type": "uint256"
        },
        {
          "internalType": "uint256",
          "name": "_balanceToAdd",
          "type": "uint256"
        }
      ],
      "name": "addBalance",
      "outputs": [
        {
          "internalType": "bool",
          "name": "",
          "type": "bool"
        }
      ],
      "stateMutability": "nonpayable",
      "type": "function"
    },
    {
      "inputs": [
        {
          "internalType": "uint256",
          "name": "_toNFTid",
          "type": "uint256"
        },
        {
          "internalType": "uint256",
          "name": "_balanceToAdd",
          "type": "uint256"
        },
        {
          "internalType": "uint256",
          "name": "_expiryUnixTimestamp",
          "type": "uint256"
        }
      ],
      "name": "addBalanceAsCredit",
      "outputs": [],
      "stateMutability": "nonpayable",
      "type": "function"
    },
    {
      "inputs": [
        {
          "internalType": "uint256",
          "name": "_NFTid",
          "type": "uint256"
        },
        {
          "internalType": "uint256",
          "name": "_balanceToAdd",
          "type": "uint256"
        }
      ],
      "name": "addBalanceAsExternalDeposit",
      "outputs": [],
      "stateMutability": "nonpayable",
      "type": "function"
    },
    {
      "inputs": [
        {
          "internalType": "uint256",
          "name": "_nftId",
          "type": "uint256"
        },
        {
          "internalType": "uint256",
          "name": "_subnetId",
          "type": "uint256"
        }
      ],
      "name": "addSubnetToNFT",
      "outputs": [
        {
          "internalType": "bool",
          "name": "",
          "type": "bool"
        }
      ],
      "stateMutability": "nonpayable",
      "type": "function"
    },
    {
      "inputs": [
        {
          "internalType": "uint256",
          "name": "NFTid",
          "type": "uint256"
        }
      ],
      "name": "balanceLeft",
      "outputs": [
        {
          "internalType": "uint256",
          "name": "",
          "type": "uint256"
        }
      ],
      "stateMutability": "view",
      "type": "function"
    },
    {
      "inputs": [
        {
          "internalType": "uint256",
          "name": "_nftId",
          "type": "uint256"
        },
        {
          "internalType": "uint256",
          "name": "_currentSubnetId",
          "type": "uint256"
        },
        {
          "internalType": "uint256",
          "name": "_newSubnetId",
          "type": "uint256"
        }
      ],
      "name": "changeSubnet",
      "outputs": [
        {
          "internalType": "bool",
          "name": "",
          "type": "bool"
        }
      ],
      "stateMutability": "nonpayable",
      "type": "function"
    },
    {
      "inputs": [
        {
          "internalType": "uint256",
          "name": "_ReferralPercent",
          "type": "uint256"
        },
        {
          "internalType": "uint256",
          "name": "_ReferralRevExpirySecs",
          "type": "uint256"
        }
      ],
      "name": "change__ReferralAttributes",
      "outputs": [],
      "stateMutability": "nonpayable",
      "type": "function"
    },
    {
      "inputs": [
        {
          "internalType": "address",
          "name": "",
          "type": "address"
        },
        {
          "internalType": "uint256",
          "name": "",
          "type": "uint256"
        }
      ],
      "name": "creditsExpiry",
      "outputs": [
        {
          "internalType": "uint256",
          "name": "",
          "type": "uint256"
        }
      ],
      "stateMutability": "view",
      "type": "function"
    },
    {
      "inputs": [
        {
          "internalType": "uint256",
          "name": "NFTid",
          "type": "uint256"
        }
      ],
      "name": "dripRatePerSec",
      "outputs": [
        {
          "internalType": "uint256",
          "name": "totalDripRate",
          "type": "uint256"
        }
      ],
      "stateMutability": "view",
      "type": "function"
    },
    {
      "inputs": [
        {
          "internalType": "uint256",
          "name": "NFTid",
          "type": "uint256"
        },
        {
          "internalType": "uint256",
          "name": "subnetId",
          "type": "uint256"
        }
      ],
      "name": "dripRatePerSecOfSubnet",
      "outputs": [
        {
          "internalType": "uint256",
          "name": "",
          "type": "uint256"
        }
      ],
      "stateMutability": "view",
      "type": "function"
    },
    {
      "inputs": [
        {
          "internalType": "contract IRegistration",
          "name": "_RegistrationContract",
          "type": "address"
        },
        {
          "internalType": "contract IERC721",
          "name": "_ApplicationNFT",
          "type": "address"
        },
        {
          "internalType": "contract IERC20Upgradeable",
          "name": "_XCTToken",
          "type": "address"
        },
        {
          "internalType": "contract IBalanceCalculator",
          "name": "_BalanceCalculator",
          "type": "address"
        },
        {
          "internalType": "uint256",
          "name": "_ReferralPercent",
          "type": "uint256"
        },
        {
          "internalType": "uint256",
          "name": "_ReferralRevExpirySecs",
          "type": "uint256"
        }
      ],
      "name": "initialize",
      "outputs": [],
      "stateMutability": "nonpayable",
      "type": "function"
    },
    {
      "inputs": [
        {
          "internalType": "uint256",
          "name": "_nftId",
          "type": "uint256"
        }
      ],
      "name": "isBalancePresent",
      "outputs": [
        {
          "internalType": "bool",
          "name": "",
          "type": "bool"
        }
      ],
      "stateMutability": "view",
      "type": "function"
    },
    {
      "inputs": [
        {
          "internalType": "uint256",
          "name": "",
          "type": "uint256"
        }
      ],
      "name": "nftBalances",
      "outputs": [
        {
          "internalType": "uint256",
          "name": "lastBalanceUpdateTime",
          "type": "uint256"
        },
        {
          "internalType": "address",
          "name": "NFTMinter",
          "type": "address"
        },
        {
          "internalType": "uint256",
          "name": "mintTime",
          "type": "uint256"
        },
        {
          "internalType": "uint256",
          "name": "endOfXCTBalance",
          "type": "uint256"
        }
      ],
      "stateMutability": "view",
      "type": "function"
    },
    {
      "inputs": [],
      "name": "owner",
      "outputs": [
        {
          "internalType": "address",
          "name": "",
          "type": "address"
        }
      ],
      "stateMutability": "view",
      "type": "function"
    },
    {
      "inputs": [],
      "name": "paused",
      "outputs": [
        {
          "internalType": "bool",
          "name": "",
          "type": "bool"
        }
      ],
      "stateMutability": "view",
      "type": "function"
    },
    {
      "inputs": [
        {
          "internalType": "uint256",
          "name": "NFTid",
          "type": "uint256"
        }
      ],
      "name": "prevBalances",
      "outputs": [
        {
          "internalType": "uint256[3]",
          "name": "",
          "type": "uint256[3]"
        }
      ],
      "stateMutability": "view",
      "type": "function"
    },
    {
      "inputs": [
        {
          "internalType": "uint256",
          "name": "_nftId",
          "type": "uint256"
        },
        {
          "internalType": "uint256",
          "name": "_subnetId",
          "type": "uint256"
        }
      ],
      "name": "r_licenseFee",
      "outputs": [
        {
          "internalType": "uint256",
          "name": "",
          "type": "uint256"
        }
      ],
      "stateMutability": "view",
      "type": "function"
    },
    {
      "inputs": [
        {
          "internalType": "uint256",
          "name": "_nftId",
          "type": "uint256"
        }
      ],
      "name": "refreshBalance",
      "outputs": [
        {
          "internalType": "bool",
          "name": "",
          "type": "bool"
        }
      ],
      "stateMutability": "nonpayable",
      "type": "function"
    },
    {
      "inputs": [
        {
          "internalType": "uint256",
          "name": "_nftId",
          "type": "uint256"
        }
      ],
      "name": "refreshEndOfBalance",
      "outputs": [
        {
          "internalType": "bool",
          "name": "",
          "type": "bool"
        }
      ],
      "stateMutability": "nonpayable",
      "type": "function"
    },
    {
      "inputs": [],
      "name": "renounceOwnership",
      "outputs": [],
      "stateMutability": "nonpayable",
      "type": "function"
    },
    {
      "inputs": [],
      "name": "s_GlobalDAOAddress",
      "outputs": [
        {
          "internalType": "address",
          "name": "",
          "type": "address"
        }
      ],
      "stateMutability": "view",
      "type": "function"
    },
    {
      "inputs": [],
      "name": "s_GlobalDAORate",
      "outputs": [
        {
          "internalType": "uint256",
          "name": "",
          "type": "uint256"
        }
      ],
      "stateMutability": "view",
      "type": "function"
    },
    {
      "inputs": [
        {
          "internalType": "address",
          "name": "_Subscription",
          "type": "address"
        }
      ],
      "name": "setSubscriptionContract",
      "outputs": [],
      "stateMutability": "nonpayable",
      "type": "function"
    },
    {
      "inputs": [
        {
          "internalType": "uint256",
          "name": "_subnetId",
          "type": "uint256"
        }
      ],
      "name": "subnetDAOWalletFor1",
      "outputs": [
        {
          "internalType": "address",
          "name": "",
          "type": "address"
        }
      ],
      "stateMutability": "view",
      "type": "function"
    },
    {
      "inputs": [
        {
          "internalType": "uint256",
          "name": "_nftId",
          "type": "uint256"
        },
        {
          "internalType": "uint256",
          "name": "_balanceToAdd",
          "type": "uint256"
        },
        {
          "internalType": "uint256",
          "name": "_subnetId",
          "type": "uint256"
        },
        {
          "internalType": "address",
          "name": "_minter",
          "type": "address"
        }
      ],
      "name": "subscribeNew",
      "outputs": [
        {
          "internalType": "bool",
          "name": "",
          "type": "bool"
        }
      ],
      "stateMutability": "nonpayable",
      "type": "function"
    },
    {
      "inputs": [
        {
          "internalType": "uint256",
          "name": "_subnetId",
          "type": "uint256"
        }
      ],
      "name": "t_SupportFeeRate",
      "outputs": [
        {
          "internalType": "uint256",
          "name": "fee",
          "type": "uint256"
        }
      ],
      "stateMutability": "view",
      "type": "function"
    },
    {
      "inputs": [
        {
          "internalType": "uint256",
          "name": "_tokenId",
          "type": "uint256"
        }
      ],
      "name": "t_supportFeeAddress",
      "outputs": [
        {
          "internalType": "address",
          "name": "",
          "type": "address"
        }
      ],
      "stateMutability": "view",
      "type": "function"
    },
    {
      "inputs": [
        {
          "internalType": "uint256",
          "name": "NFTid",
          "type": "uint256"
        }
      ],
      "name": "totalPrevBalance",
      "outputs": [
        {
          "internalType": "uint256",
          "name": "",
          "type": "uint256"
        }
      ],
      "stateMutability": "view",
      "type": "function"
    },
    {
      "inputs": [
        {
          "internalType": "uint256",
          "name": "nftId",
          "type": "uint256"
        }
      ],
      "name": "totalSubnets",
      "outputs": [
        {
          "internalType": "uint256",
          "name": "",
          "type": "uint256"
        }
      ],
      "stateMutability": "view",
      "type": "function"
    },
    {
      "inputs": [
        {
          "internalType": "address",
          "name": "newOwner",
          "type": "address"
        }
      ],
      "name": "transferOwnership",
      "outputs": [],
      "stateMutability": "nonpayable",
      "type": "function"
    },
    {
      "inputs": [
        {
          "internalType": "uint256",
          "name": "_NFTid",
          "type": "uint256"
        }
      ],
      "name": "withdrawAllOwnerBalance",
      "outputs": [],
      "stateMutability": "nonpayable",
      "type": "function"
    },
    {
      "inputs": [
        {
          "internalType": "uint256",
          "name": "_NFTid",
          "type": "uint256"
        },
        {
          "internalType": "uint256",
          "name": "_bal",
          "type": "uint256"
        }
      ],
      "name": "withdrawBalance",
      "outputs": [],
      "stateMutability": "nonpayable",
      "type": "function"
    },
    {
      "inputs": [
        {
          "internalType": "uint256",
          "name": "_NFTid",
          "type": "uint256"
        },
        {
          "internalType": "address",
          "name": "_to",
          "type": "address"
        }
      ],
      "name": "withdrawCreditsForNFT",
      "outputs": [],
      "stateMutability": "nonpayable",
      "type": "function"
    }
  ],
  "bytecode": "0x608060405234801561001057600080fd5b50612e03806100206000396000f3fe608060405234801561001057600080fd5b50600436106102485760003560e01c806395d6f9761161013b578063b4b33ecd116100b8578063d480dc141161007c578063d480dc141461056d578063d7c41c7914610580578063dadd989a14610593578063f2fde38b146105a6578063f73ecb30146105b957610248565b8063b4b33ecd146104fe578063b4e7667614610511578063b5d8e98614610524578063b7cb42e414610537578063c6d190031461055a57610248565b8063a6d5d702116100ff578063a6d5d702146104a9578063a8440fe2146104bc578063abb4b9cd146104cf578063aef72fb2146104e2578063b0d47ef5146104f557610248565b806395d6f9761461044857806396bbda3e1461045b57806399655519146104635780639c5a6dea14610476578063a40398a61461049657610248565b8063545204fe116101c95780636f5940331161018d5780636f59403314610400578063715018a6146104135780638d8440b31461041b5780638da5cb5b1461042457806394f6340c1461043557610248565b8063545204fe1461033d5780635c975abb146103505780635f7bc5101461035b578063620f8c7d14610386578063632bd76a146103ed57610248565b80632fc84de8116102105780632fc84de8146102c057806333206192146102d357806341910dc1146102f457806345c37cd4146103075780634beb71e61461031a57610248565b80631505a4d41461024d578063192cd212146102625780631bef5ddf146102925780631d2e0223146102a55780632ee2ec90146102ad575b600080fd5b61026061025b366004612a51565b6105cc565b005b61027561027036600461291e565b610917565b6040516001600160a01b0390911681526020015b60405180910390f35b6102756102a036600461291e565b61099d565b6102756109cf565b6102606102bb36600461294e565b610a51565b609954610275906001600160a01b031681565b6102e66102e1366004612a30565b610e67565b604051908152602001610289565b609a54610275906001600160a01b031681565b609854610275906001600160a01b031681565b61032d61032836600461291e565b61106b565b6040519015158152602001610289565b61026061034b36600461279b565b611194565b60655460ff1661032d565b6102e66103693660046127d3565b609f60209081526000928352604080842090915290825290205481565b6103c561039436600461291e565b609e60205260009081526040902080546005820154600683015460079093015491926001600160a01b039091169184565b604080519485526001600160a01b039093166020850152918301526060820152608001610289565b6102606103fb366004612a30565b611227565b609b54610275906001600160a01b031681565b610260611575565b6102e6609c5481565b6033546001600160a01b0316610275565b61032d610443366004612a7c565b6115ab565b610260610456366004612a30565b6116e1565b6102e6611752565b610260610471366004612a30565b6117cf565b61048961048436600461291e565b611a52565b6040516102899190612abc565b61032d6104a4366004612a30565b611aa1565b6102e66104b736600461291e565b611b9a565b6102e66104ca366004612a30565b611c4f565b609754610275906001600160a01b031681565b61032d6104f036600461291e565b611cda565b6102e6609d5481565b6102e661050c36600461291e565b611d03565b61032d61051f36600461291e565b611d69565b6102e661053236600461291e565b611e81565b6102e661054536600461291e565b6000908152609e602052604090206004015490565b61032d610568366004612a30565b611ee4565b61026061057b36600461291e565b611f3a565b61026061058e3660046128b1565b612059565b61032d6105a1366004612a51565b612130565b6102606105b436600461279b565b612262565b6102e66105c736600461291e565b6122fd565b60655460ff16156105f85760405162461bcd60e51b81526004016105ef90612b3d565b60405180910390fd5b609b546000848152609e6020526040808220600581015460068201548254935163180de30360e21b815289966001600160a01b03908116956360378c0c95610656958a95600480840196959092169490936001909301929101612c35565b606060405180830381600087803b15801561067057600080fd5b505af1158015610684573d6000803e3d6000fd5b505050506040513d601f19601f820116820180604052508101906106a891906127fe565b6000838152609e602052604090209091506106c89060010182600361265e565b506000828152609e60209081526040808320429055338352609f8252808320888452909152902054859084116107665760405162461bcd60e51b815260206004820152603860248201527f43726564697473206578706972792063616e6e6f7420626520736574206c657360448201527f736572207468616e2070726576696f757320657870697279000000000000000060648201526084016105ef565b6099546001600160a01b03166323b872dd336040516001600160e01b031960e084901b1681526001600160a01b03909116600482015230602482015260448101889052606401602060405180830381600087803b1580156107c657600080fd5b505af11580156107da573d6000803e3d6000fd5b505050506040513d601f19601f820116820180604052508101906107fe9190612897565b50604080516060810182526000838152609e6020529182209091829161082d918991600101905b01549061238c565b81526000838152609e602081815260408084206002810154838701526003808201549290960191909152928690525261086b9260019091019161265e565b506000818152609e602052604090204290556108a261089b61088c83611b9a565b61089584611d03565b90612398565b429061238c565b6000828152609e6020908152604080832060070193909355338252609f815282822084835281528282208790558251848152908101919091529081018690527fc3cb85e2217091051779d8f75f52cc9874723c3b9fad06042a5fa2df88df9642906060015b60405180910390a1505050505050565b6097546040516379fed2eb60e01b8152600481018390526000916001600160a01b0316906379fed2eb906024015b60206040518083038186803b15801561095d57600080fd5b505afa158015610971573d6000803e3d6000fd5b505050506040513d601f19601f8201168201806040525081019061099591906127b7565b90505b919050565b6098546040516331a9108f60e11b8152600481018390526000916001600160a01b031690636352211e90602401610945565b609754604080516341facd6360e11b815290516000926001600160a01b0316916383f59ac6916004808301926020929190829003018186803b158015610a1457600080fd5b505afa158015610a28573d6000803e3d6000fd5b505050506040513d601f19601f82011682018060405250810190610a4c91906127b7565b905090565b609a546001600160a01b03166391d148547f86c262939a9533c4628ccc11f9decb407b7c04ffc9311f0c60d1f23d7d790db7336040516001600160e01b031960e085901b16815260048101929092526001600160a01b0316602482015260440160206040518083038186803b158015610ac957600080fd5b505afa158015610add573d6000803e3d6000fd5b505050506040513d601f19601f82011682018060405250810190610b019190612897565b610b655760405162461bcd60e51b815260206004820152602f60248201527f53656e646572206973206e6f742061737369676e656420746f2057495448445260448201526e41575f435245444954535f524f4c4560881b60648201526084016105ef565b60655460ff1615610b885760405162461bcd60e51b81526004016105ef90612b3d565b609b546000838152609e6020526040808220600581015460068201548254935163180de30360e21b815288966001600160a01b03908116956360378c0c95610be6958a95600480840196959092169490936001909301929101612c35565b606060405180830381600087803b158015610c0057600080fd5b505af1158015610c14573d6000803e3d6000fd5b505050506040513d601f19601f82011682018060405250810190610c3891906127fe565b6000838152609e60205260409020909150610c589060010182600361265e565b506000828152609e60209081526040808320429081905587845281842060010154338552609f8452828520898652909352922054869211610cdb5760405162461bcd60e51b815260206004820152601760248201527f43726564697473206e6f7420657870697265642079657400000000000000000060448201526064016105ef565b604051806060016040528060008152602001609e6000858152602001908152602001600020600101600160038110610d2357634e487b7160e01b600052603260045260246000fd5b015481526000848152609e602081815260408320600380820154958301959095529287905252610d589260019091019161265e565b506000828152609e60205260409020429055610d8261089b610d7984611b9a565b61089585611d03565b6000838152609e60205260409081902060070191909155609954905163a9059cbb60e01b81526001600160a01b038781166004830152602482018490529091169063a9059cbb90604401602060405180830381600087803b158015610de657600080fd5b505af1158015610dfa573d6000803e3d6000fd5b505050506040513d601f19601f82011682018060405250810190610e1e9190612897565b50610e288261106b565b5060408051878152600060208201529081018290527f9fc5fbd32dfd68871ac42806891adcad25750bfe126df566b5077854f5f6309190606001610907565b600080610e9e620186a0610e98609c54610e98610e83886122fd565b610e98610e908b8b611c4f565b610e98611752565b9061238c565b6097546040516373d97f3960e01b8152600481018690529192506000916001600160a01b03909116906373d97f399060240160006040518083038186803b158015610ee857600080fd5b505afa158015610efc573d6000803e3d6000fd5b505050506040513d6000823e601f3d908101601f19168201604052610f24919081019061297d565b5050609a546040516321b12a6b60e11b8152939850600097508796506001600160a01b0316945063436254d69350610f6d928c92508b9150600401918252602082015260400190565b60006040518083038186803b158015610f8557600080fd5b505afa158015610f99573d6000803e3d6000fd5b505050506040513d6000823e601f3d908101601f19168201604052610fc19190810190612864565b905060005b835181101561104e5761103a611033838381518110610ff557634e487b7160e01b600052603260045260246000fd5b602002602001015186848151811061101d57634e487b7160e01b600052603260045260246000fd5b60200260200101516123a490919063ffffffff16565b849061238c565b92508061104681612d71565b915050610fc6565b50611060620186a061089586856123a4565b979650505050505050565b609b546000828152609e6020526040808220600581015460068201548254935163180de30360e21b81529495879587956001600160a01b03928316956360378c0c956110ca958a95600480850196939091169491936001019201612c35565b606060405180830381600087803b1580156110e457600080fd5b505af11580156110f8573d6000803e3d6000fd5b505050506040513d601f19601f8201168201806040525081019061111c91906127fe565b6000838152609e6020526040902090915061113c9060010182600361265e565b506000828152609e602052604090819020429055517f106128e5bc2fab46dc6facdb884bcdb95b9005c33eff74a8009b90a3944c1009906111809086815260200190565b60405180910390a1600192505b5050919050565b6033546001600160a01b031633146111be5760405162461bcd60e51b81526004016105ef90612bb5565b609a546001600160a01b0316156112055760405162461bcd60e51b815260206004820152600b60248201526a105b1c9958591e481cd95d60aa1b60448201526064016105ef565b609a80546001600160a01b0319166001600160a01b0392909216919091179055565b60655460ff161561124a5760405162461bcd60e51b81526004016105ef90612b3d565b609b546000838152609e6020526040808220600581015460068201548254935163180de30360e21b815288966001600160a01b03908116956360378c0c956112a8958a95600480840196959092169490936001909301929101612c35565b606060405180830381600087803b1580156112c257600080fd5b505af11580156112d6573d6000803e3d6000fd5b505050506040513d601f19601f820116820180604052508101906112fa91906127fe565b6000838152609e6020526040902090915061131a9060010182600361265e565b506000828152609e60205260409020429055336098546040516331a9108f60e11b8152600481018790526001600160a01b039283169290911690636352211e9060240160206040518083038186803b15801561137557600080fd5b505afa158015611389573d6000803e3d6000fd5b505050506040513d601f19601f820116820180604052508101906113ad91906127b7565b6001600160a01b0316146114035760405162461bcd60e51b815260206004820152601e60248201527f53656e646572206e6f7420746865206f776e6572206f66204e4654206964000060448201526064016105ef565b60995484906001600160a01b031663a9059cbb336040516001600160e01b031960e084901b1681526001600160a01b03909116600482015260248101879052604401602060405180830381600087803b15801561145f57600080fd5b505af1158015611473573d6000803e3d6000fd5b505050506040513d601f19601f820116820180604052508101906114979190612897565b50604080516060810182526000838152609e60208181528483206001810154855260028101548286015292869052526003015490918201906114d990876123b0565b90526000828152609e602052604090206114fa91600190910190600361265e565b506115048161106b565b5061151461089b61088c83611b9a565b6000828152609e602090815260409182902060070192909255805183815260029281019290925281018590527f9fc5fbd32dfd68871ac42806891adcad25750bfe126df566b5077854f5f63091906060015b60405180910390a15050505050565b6033546001600160a01b0316331461159f5760405162461bcd60e51b81526004016105ef90612bb5565b6115a960006123bc565b565b609a546000906001600160a01b031633146115d85760405162461bcd60e51b81526004016105ef90612aed565b6040805160c08101825242808252825160608181018552600080835260208381018290528387018290528086019384528587018390526001600160a01b03891686840152608086019490945260a085018190528a8152609e9093529390912082518155905161164d906001830190600361265e565b506040820151805161166991600484019160209091019061269c565b5060608201516005820180546001600160a01b0319166001600160a01b039092169190911790556080820151600682015560a0909101516007909101556000868152609e60209081526040822060040180546001810182559083529120018490556116d4868661240e565b5060019695505050505050565b6033546001600160a01b0316331461170b5760405162461bcd60e51b81526004016105ef90612bb5565b609c829055609d81905560408051838152602081018390527f9060cd8adabd78a7c227c233ac5e2c8eccad79cc1567d501d043485484625164910160405180910390a15050565b609754604080516319ec727760e31b815290516000926001600160a01b03169163cf6393b8916004808301926020929190829003018186803b15801561179757600080fd5b505afa1580156117ab573d6000803e3d6000fd5b505050506040513d601f19601f82011682018060405250810190610a4c9190612936565b60655460ff16156117f25760405162461bcd60e51b81526004016105ef90612b3d565b609b546000838152609e6020526040808220600581015460068201548254935163180de30360e21b815288966001600160a01b03908116956360378c0c95611850958a95600480840196959092169490936001909301929101612c35565b606060405180830381600087803b15801561186a57600080fd5b505af115801561187e573d6000803e3d6000fd5b505050506040513d601f19601f820116820180604052508101906118a291906127fe565b6000838152609e602052604090209091506118c29060010182600361265e565b506000828152609e6020526040902042905560995484906001600160a01b03166323b872dd336040516001600160e01b031960e084901b1681526001600160a01b03909116600482015230602482015260448101879052606401602060405180830381600087803b15801561193657600080fd5b505af115801561194a573d6000803e3d6000fd5b505050506040513d601f19601f8201168201806040525081019061196e9190612897565b50604080516060810182526000838152609e60208181529382206001908101805485529286905290845291928301916119a8918891610825565b81526000838152609e6020818152604083206003808201549583019590955292869052526119db9260019091019161265e565b506000818152609e602052604090204290556119fc61089b61088c83611b9a565b6000828152609e602090815260409182902060070192909255805183815260019281019290925281018590527fc3cb85e2217091051779d8f75f52cc9874723c3b9fad06042a5fa2df88df964290606001611566565b611a5a6126d6565b6000828152609e60205260409081902081516060810190925260010160038282826020028201915b815481526020019060010190808311611a825750505050509050919050565b609b546000838152609e6020526040808220600581015460068201548254935163180de30360e21b81529495889587956001600160a01b03928316956360378c0c95611b00958a95600480850196939091169491936001019201612c35565b606060405180830381600087803b158015611b1a57600080fd5b505af1158015611b2e573d6000803e3d6000fd5b505050506040513d601f19601f82011682018060405250810190611b5291906127fe565b6000838152609e60205260409020909150611b729060010182600361265e565b506000828152609e60205260409020429055611b8e858561240e565b50600195945050505050565b6000818152609e6020908152604080832060040180548251818502810185019093528083528493830182828015611bf057602002820191906000526020600020905b815481526020019060010190808311611bdc575b505050505090506000915060005b815181101561118d57611c3b61103385848481518110611c2e57634e487b7160e01b600052603260045260246000fd5b6020026020010151610e67565b925080611c4781612d71565b915050611bfe565b609a5460405163542207f160e11b815260048101849052602481018390526000916001600160a01b03169063a8440fe29060440160206040518083038186803b158015611c9b57600080fd5b505afa158015611caf573d6000803e3d6000fd5b505050506040513d601f19601f82011682018060405250810190611cd39190612936565b9392505050565b6000818152609e6020526040812060070154421015611cfb57506001610998565b506000919050565b600080805b6003811015611d62576000848152609e60205260409020611d4e906001018260038110611d4557634e487b7160e01b600052603260045260246000fd5b0154839061238c565b915080611d5a81612d71565b915050611d08565b5092915050565b609b546000828152609e6020526040808220600581015460068201548254935163180de30360e21b81529495879587956001600160a01b03928316956360378c0c95611dc8958a95600480850196939091169491936001019201612c35565b606060405180830381600087803b158015611de257600080fd5b505af1158015611df6573d6000803e3d6000fd5b505050506040513d601f19601f82011682018060405250810190611e1a91906127fe565b6000838152609e60205260409020909150611e3a9060010182600361265e565b506000828152609e60205260409020429055611e6461089b611e5b86611b9a565b61089587611d03565b6000858152609e6020526040902060070155600192505050919050565b600080611eb0611e9084611b9a565b6000858152609e6020526040902054611eaa9042906123b0565b906123a4565b90506000611ebd84611d03565b905081811015611ed257600092505050610998565b611edc81836123b0565b949350505050565b609a546000906001600160a01b03163314611f115760405162461bcd60e51b81526004016105ef90612aed565b506000918252609e60209081526040832060040180546001808201835591855291909320015590565b60655460ff1615611f5d5760405162461bcd60e51b81526004016105ef90612b3d565b609b546000828152609e6020526040808220600581015460068201548254935163180de30360e21b815287966001600160a01b03908116956360378c0c95611fbb958a95600480840196959092169490936001909301929101612c35565b606060405180830381600087803b158015611fd557600080fd5b505af1158015611fe9573d6000803e3d6000fd5b505050506040513d601f19601f8201168201806040525081019061200d91906127fe565b6000838152609e6020526040902090915061202d9060010182600361265e565b506000828152609e60205260408082204290558482529020600301546120538482611227565b50505050565b60006120656001612576565b9050801561207d576000805461ff0019166101001790555b6120856125fb565b61208d61262b565b609780546001600160a01b03808a166001600160a01b0319928316179092556098805489841690831617905560998054888416908316179055609b805492871692909116919091179055609c839055609d8290558015612127576000805461ff0019169055604051600181527f7f26b83ff96e1f2b6a682f133852f6798a09c465da95921460cefb38474024989060200160405180910390a15b50505050505050565b609a546000906001600160a01b0316331461215d5760405162461bcd60e51b81526004016105ef90612aed565b6000848152609e60209081526040808320600401805482518185028101850190935280835291929091908301828280156121b657602002820191906000526020600020905b8154815260200190600101908083116121a2575b5050505050905060005b815181101561223c57848282815181106121ea57634e487b7160e01b600052603260045260246000fd5b6020026020010151141561222a578382828151811061221957634e487b7160e01b600052603260045260246000fd5b60200260200101818152505061223c565b8061223481612d71565b9150506121c0565b506000858152609e602090815260409091208251611b8e9260049092019184019061269c565b6033546001600160a01b0316331461228c5760405162461bcd60e51b81526004016105ef90612bb5565b6001600160a01b0381166122f15760405162461bcd60e51b815260206004820152602660248201527f4f776e61626c653a206e6577206f776e657220697320746865207a65726f206160448201526564647265737360d01b60648201526084016105ef565b6122fa816123bc565b50565b6097546040516373d97f3960e01b8152600481018390526000916001600160a01b0316906373d97f399060240160006040518083038186803b15801561234257600080fd5b505afa158015612356573d6000803e3d6000fd5b505050506040513d6000823e601f3d908101601f1916820160405261237e919081019061297d565b509998505050505050505050565b6000611cd38284612d03565b6000611cd38284612d1b565b6000611cd38284612d3b565b6000611cd38284612d5a565b603380546001600160a01b038381166001600160a01b0319831681179093556040519116919082907f8be0079c531659141344cd1fd0a4f28419497f9722a3daafe3b4186f6b6457e090600090a35050565b60995460009083906001600160a01b03166323b872dd336040516001600160e01b031960e084901b1681526001600160a01b03909116600482015230602482015260448101869052606401602060405180830381600087803b15801561247357600080fd5b505af1158015612487573d6000803e3d6000fd5b505050506040513d601f19601f820116820180604052508101906124ab9190612897565b50604080516060810182526000838152609e60208181528483206001810180548652600291820154838701529387905291905291928301916124ee918791610825565b90526000828152609e6020526040902061250f91600190910190600361265e565b506000818152609e6020526040902042905561252a84611d69565b5060408051858152600260208201529081018490527fc3cb85e2217091051779d8f75f52cc9874723c3b9fad06042a5fa2df88df96429060600160405180910390a15060019392505050565b60008054610100900460ff16156125bd578160ff1660011480156125995750303b155b6125b55760405162461bcd60e51b81526004016105ef90612b67565b506000610998565b60005460ff8084169116106125e45760405162461bcd60e51b81526004016105ef90612b67565b506000805460ff191660ff83161790556001610998565b600054610100900460ff166126225760405162461bcd60e51b81526004016105ef90612bea565b6115a9336123bc565b600054610100900460ff166126525760405162461bcd60e51b81526004016105ef90612bea565b6065805460ff19169055565b826003810192821561268c579160200282015b8281111561268c578251825591602001919060010190612671565b506126989291506126f4565b5090565b82805482825590600052602060002090810192821561268c579160200282018281111561268c578251825591602001919060010190612671565b60405180606001604052806003906020820280368337509192915050565b5b8082111561269857600081556001016126f5565b600082601f830112612719578081fd5b8151602067ffffffffffffffff82111561273557612735612da2565b808202612743828201612cd2565b83815282810190868401838801850189101561275d578687fd5b8693505b8584101561277f578051835260019390930192918401918401612761565b50979650505050505050565b8051801515811461099857600080fd5b6000602082840312156127ac578081fd5b8135611cd381612db8565b6000602082840312156127c8578081fd5b8151611cd381612db8565b600080604083850312156127e5578081fd5b82356127f081612db8565b946020939093013593505050565b60006060828403121561280f578081fd5b82601f83011261281d578081fd5b6128276060612cd2565b808385606086011115612838578384fd5b835b600381101561285957815184526020938401939091019060010161283a565b509095945050505050565b600060208284031215612875578081fd5b815167ffffffffffffffff81111561288b578182fd5b611edc84828501612709565b6000602082840312156128a8578081fd5b611cd38261278b565b60008060008060008060c087890312156128c9578182fd5b86356128d481612db8565b955060208701356128e481612db8565b945060408701356128f481612db8565b9350606087013561290481612db8565b9598949750929560808101359460a0909101359350915050565b60006020828403121561292f578081fd5b5035919050565b600060208284031215612947578081fd5b5051919050565b60008060408385031215612960578182fd5b82359150602083013561297281612db8565b809150509250929050565b60008060008060008060008060006101208a8c03121561299b578283fd5b895198506129ab60208b0161278b565b975060408a015196506129c060608b0161278b565b955060808a015167ffffffffffffffff808211156129dc578485fd5b6129e88d838e01612709565b965060a08c01519150808211156129fd578485fd5b50612a0a8c828d01612709565b94505060c08a0151925060e08a015191506101008a015190509295985092959850929598565b60008060408385031215612a42578182fd5b50508035926020909101359150565b600080600060608486031215612a65578081fd5b505081359360208301359350604090920135919050565b60008060008060808587031215612a91578182fd5b8435935060208501359250604085013591506060850135612ab181612db8565b939692955090935050565b60608101818360005b6003811015612ae4578151835260209283019290910190600101612ac5565b50505092915050565b60208082526030908201527f537562736372697074696f6e436f6e74726163742063616e206f6e6c7920636160408201526f3636103a3434b990333ab731ba34b7b760811b606082015260800190565b60208082526010908201526f14185d5cd8589b194e881c185d5cd95960821b604082015260600190565b6020808252602e908201527f496e697469616c697a61626c653a20636f6e747261637420697320616c72656160408201526d191e481a5b9a5d1a585b1a5e995960921b606082015260800190565b6020808252818101527f4f776e61626c653a2063616c6c6572206973206e6f7420746865206f776e6572604082015260600190565b6020808252602b908201527f496e697469616c697a61626c653a20636f6e7472616374206973206e6f74206960408201526a6e697469616c697a696e6760a81b606082015260800190565b868152610100602080830182905287549183018290526000888152818120909261012085019290845b81811015612c7a57835485529382019360019384019301612c5e565b50506001600160a01b038916604086015260608501889052919250506080830190859060005b6003811015612cbd57825484529281019260019283019201612ca0565b505050508260e0830152979650505050505050565b604051601f8201601f1916810167ffffffffffffffff81118282101715612cfb57612cfb612da2565b604052919050565b60008219821115612d1657612d16612d8c565b500190565b600082612d3657634e487b7160e01b81526012600452602481fd5b500490565b6000816000190483118215151615612d5557612d55612d8c565b500290565b600082821015612d6c57612d6c612d8c565b500390565b6000600019821415612d8557612d85612d8c565b5060010190565b634e487b7160e01b600052601160045260246000fd5b634e487b7160e01b600052604160045260246000fd5b6001600160a01b03811681146122fa57600080fdfea26469706673582212204784695deef88ecc717a2555af74662d14b5c859d90831085db8a1196d53e3a064736f6c63430008020033",
  "linkReferences": {},
  "deployedLinkReferences": {}
}