{
  "_format": "hh-sol-artifact-1",
  "contractName": "SubscriptionBalance",
  "sourceName": "contracts/SubscriptionBalance.sol",
  "abi": [
    {
      "anonymous": false,
      "inputs": [
        {
          "indexed": false,
          "internalType": "uint256",
          "name": "NFTId",
          "type": "uint256"
        },
        {
          "indexed": false,
          "internalType": "uint256",
          "name": "balanceType",
          "type": "uint256"
        },
        {
          "indexed": false,
          "internalType": "uint256",
          "name": "bal",
          "type": "uint256"
        }
      ],
      "name": "BalanceAdded",
      "type": "event"
    },
    {
      "anonymous": false,
      "inputs": [
        {
          "indexed": false,
          "internalType": "uint256",
          "name": "NFTId",
          "type": "uint256"
        },
        {
          "indexed": false,
          "internalType": "uint256",
          "name": "balanceType",
          "type": "uint256"
        },
        {
          "indexed": false,
          "internalType": "uint256",
          "name": "bal",
          "type": "uint256"
        }
      ],
      "name": "BalanceWithdrawn",
      "type": "event"
    },
    {
      "anonymous": false,
      "inputs": [
        {
          "indexed": false,
          "internalType": "uint8",
          "name": "version",
          "type": "uint8"
        }
      ],
      "name": "Initialized",
      "type": "event"
    },
    {
      "anonymous": false,
      "inputs": [
        {
          "indexed": true,
          "internalType": "address",
          "name": "previousOwner",
          "type": "address"
        },
        {
          "indexed": true,
          "internalType": "address",
          "name": "newOwner",
          "type": "address"
        }
      ],
      "name": "OwnershipTransferred",
      "type": "event"
    },
    {
      "anonymous": false,
      "inputs": [
        {
          "indexed": false,
          "internalType": "address",
          "name": "account",
          "type": "address"
        }
      ],
      "name": "Paused",
      "type": "event"
    },
    {
      "anonymous": false,
      "inputs": [
        {
          "indexed": false,
          "internalType": "address",
          "name": "benficiary",
          "type": "address"
        },
        {
          "indexed": false,
          "internalType": "uint256",
          "name": "bal",
          "type": "uint256"
        }
      ],
      "name": "ReceivedRevenue",
      "type": "event"
    },
    {
      "anonymous": false,
      "inputs": [
        {
          "indexed": false,
          "internalType": "uint256",
          "name": "NFTId",
          "type": "uint256"
        }
      ],
      "name": "RefreshedBalance",
      "type": "event"
    },
    {
      "anonymous": false,
      "inputs": [
        {
          "indexed": false,
          "internalType": "address",
          "name": "account",
          "type": "address"
        }
      ],
      "name": "Unpaused",
      "type": "event"
    },
    {
      "inputs": [],
      "name": "ApplicationNFT",
      "outputs": [
        {
          "internalType": "contract IERC721",
          "name": "",
          "type": "address"
        }
      ],
      "stateMutability": "view",
      "type": "function"
    },
    {
      "inputs": [],
      "name": "RegistrationContract",
      "outputs": [
        {
          "internalType": "contract IRegistration",
          "name": "",
          "type": "address"
        }
      ],
      "stateMutability": "view",
      "type": "function"
    },
    {
      "inputs": [],
      "name": "SubscriptionContract",
      "outputs": [
        {
          "internalType": "contract ISubscription",
          "name": "",
          "type": "address"
        }
      ],
      "stateMutability": "view",
      "type": "function"
    },
    {
      "inputs": [],
      "name": "XCTToken",
      "outputs": [
        {
          "internalType": "contract IERC20Upgradeable",
          "name": "",
          "type": "address"
        }
      ],
      "stateMutability": "view",
      "type": "function"
    },
    {
      "inputs": [
        {
          "internalType": "uint256",
          "name": "_nftId",
          "type": "uint256"
        },
        {
          "internalType": "uint256",
          "name": "_balanceToAdd",
          "type": "uint256"
        }
      ],
      "name": "addBalance",
      "outputs": [
        {
          "internalType": "bool",
          "name": "",
          "type": "bool"
        }
      ],
      "stateMutability": "nonpayable",
      "type": "function"
    },
    {
      "inputs": [
        {
          "internalType": "uint256",
          "name": "_toNFTid",
          "type": "uint256"
        },
        {
          "internalType": "uint256",
          "name": "_balanceToAdd",
          "type": "uint256"
        },
        {
          "internalType": "uint256",
          "name": "_expiryUnixTimestamp",
          "type": "uint256"
        }
      ],
      "name": "addBalanceAsCredit",
      "outputs": [],
      "stateMutability": "nonpayable",
      "type": "function"
    },
    {
      "inputs": [
        {
          "internalType": "uint256",
          "name": "_NFTid",
          "type": "uint256"
        },
        {
          "internalType": "uint256",
          "name": "_balanceToAdd",
          "type": "uint256"
        }
      ],
      "name": "addBalanceAsExternalDeposit",
      "outputs": [],
      "stateMutability": "nonpayable",
      "type": "function"
    },
    {
      "inputs": [
        {
          "internalType": "uint256",
          "name": "_nftId",
          "type": "uint256"
        },
        {
          "internalType": "uint256",
          "name": "_subnetId",
          "type": "uint256"
        }
      ],
      "name": "addSubnetToNFT",
      "outputs": [
        {
          "internalType": "bool",
          "name": "",
          "type": "bool"
        }
      ],
      "stateMutability": "nonpayable",
      "type": "function"
    },
    {
      "inputs": [
        {
          "internalType": "uint256",
          "name": "NFTid",
          "type": "uint256"
        }
      ],
      "name": "balanceLeft",
      "outputs": [
        {
          "internalType": "uint256",
          "name": "",
          "type": "uint256"
        }
      ],
      "stateMutability": "view",
      "type": "function"
    },
    {
      "inputs": [
        {
          "internalType": "address",
          "name": "",
          "type": "address"
        }
      ],
      "name": "balanceOfRev",
      "outputs": [
        {
          "internalType": "uint256",
          "name": "",
          "type": "uint256"
        }
      ],
      "stateMutability": "view",
      "type": "function"
    },
    {
      "inputs": [
        {
          "internalType": "uint256",
          "name": "_nftId",
          "type": "uint256"
        },
        {
          "internalType": "uint256",
          "name": "_currentSubnetId",
          "type": "uint256"
        },
        {
          "internalType": "uint256",
          "name": "_newSubnetId",
          "type": "uint256"
        }
      ],
      "name": "changeSubnet",
      "outputs": [
        {
          "internalType": "bool",
          "name": "",
          "type": "bool"
        }
      ],
      "stateMutability": "nonpayable",
      "type": "function"
    },
    {
      "inputs": [
        {
          "internalType": "address",
          "name": "",
          "type": "address"
        },
        {
          "internalType": "uint256",
          "name": "",
          "type": "uint256"
        }
      ],
      "name": "creditsExpiry",
      "outputs": [
        {
          "internalType": "uint256",
          "name": "",
          "type": "uint256"
        }
      ],
      "stateMutability": "view",
      "type": "function"
    },
    {
      "inputs": [
        {
          "internalType": "uint256",
          "name": "NFTid",
          "type": "uint256"
        }
      ],
      "name": "dripRatePerSec",
      "outputs": [
        {
          "internalType": "uint256",
          "name": "totalDripRate",
          "type": "uint256"
        }
      ],
      "stateMutability": "view",
      "type": "function"
    },
    {
      "inputs": [
        {
          "internalType": "uint256",
          "name": "NFTid",
          "type": "uint256"
        },
        {
          "internalType": "uint256",
          "name": "subnetId",
          "type": "uint256"
        }
      ],
      "name": "dripRatePerSecOfSubnet",
      "outputs": [
        {
          "internalType": "uint256",
          "name": "",
          "type": "uint256"
        }
      ],
      "stateMutability": "view",
      "type": "function"
    },
    {
      "inputs": [
        {
          "internalType": "contract IRegistration",
          "name": "_RegistrationContract",
          "type": "address"
        },
        {
          "internalType": "contract IERC721",
          "name": "_ApplicationNFT",
          "type": "address"
        },
        {
          "internalType": "contract IERC20Upgradeable",
          "name": "_XCTToken",
          "type": "address"
        }
      ],
      "name": "initialize",
      "outputs": [],
      "stateMutability": "nonpayable",
      "type": "function"
    },
    {
      "inputs": [
        {
          "internalType": "uint256",
          "name": "_nftId",
          "type": "uint256"
        }
      ],
      "name": "isBalancePresent",
      "outputs": [
        {
          "internalType": "bool",
          "name": "",
          "type": "bool"
        }
      ],
      "stateMutability": "view",
      "type": "function"
    },
    {
      "inputs": [
        {
          "internalType": "uint256",
          "name": "",
          "type": "uint256"
        }
      ],
      "name": "nftBalances",
      "outputs": [
        {
          "internalType": "uint256",
          "name": "lastBalanceUpdateTime",
          "type": "uint256"
        },
        {
          "internalType": "address",
          "name": "NFTMinter",
          "type": "address"
        },
        {
          "internalType": "uint256",
          "name": "endOfXCTBalance",
          "type": "uint256"
        }
      ],
      "stateMutability": "view",
      "type": "function"
    },
    {
      "inputs": [],
      "name": "owner",
      "outputs": [
        {
          "internalType": "address",
          "name": "",
          "type": "address"
        }
      ],
      "stateMutability": "view",
      "type": "function"
    },
    {
      "inputs": [],
      "name": "paused",
      "outputs": [
        {
          "internalType": "bool",
          "name": "",
          "type": "bool"
        }
      ],
      "stateMutability": "view",
      "type": "function"
    },
    {
      "inputs": [
        {
          "internalType": "uint256",
          "name": "NFTid",
          "type": "uint256"
        }
      ],
      "name": "prevBalances",
      "outputs": [
        {
          "internalType": "uint256[3]",
          "name": "",
          "type": "uint256[3]"
        }
      ],
      "stateMutability": "view",
      "type": "function"
    },
    {
      "inputs": [
        {
          "internalType": "uint256",
          "name": "_nftId",
          "type": "uint256"
        },
        {
          "internalType": "uint256",
          "name": "_subnetId",
          "type": "uint256"
        }
      ],
      "name": "r_licenseFee",
      "outputs": [
        {
          "internalType": "uint256",
          "name": "",
          "type": "uint256"
        }
      ],
      "stateMutability": "view",
      "type": "function"
    },
    {
      "inputs": [],
      "name": "receiveRevenue",
      "outputs": [],
      "stateMutability": "nonpayable",
      "type": "function"
    },
    {
      "inputs": [
        {
          "internalType": "address",
          "name": "_userAddress",
          "type": "address"
        }
      ],
      "name": "receiveRevenueForAddress",
      "outputs": [],
      "stateMutability": "nonpayable",
      "type": "function"
    },
    {
      "inputs": [
        {
          "internalType": "address[]",
          "name": "_userAddresses",
          "type": "address[]"
        }
      ],
      "name": "receiveRevenueForAddressBulk",
      "outputs": [],
      "stateMutability": "nonpayable",
      "type": "function"
    },
    {
      "inputs": [
        {
          "internalType": "uint256",
          "name": "_nftId",
          "type": "uint256"
        }
      ],
      "name": "refreshBalance",
      "outputs": [
        {
          "internalType": "bool",
          "name": "",
          "type": "bool"
        }
      ],
      "stateMutability": "nonpayable",
      "type": "function"
    },
    {
      "inputs": [
        {
          "internalType": "uint256",
          "name": "_nftId",
          "type": "uint256"
        }
      ],
      "name": "refreshEndOfBalance",
      "outputs": [
        {
          "internalType": "bool",
          "name": "",
          "type": "bool"
        }
      ],
      "stateMutability": "nonpayable",
      "type": "function"
    },
    {
      "inputs": [],
      "name": "renounceOwnership",
      "outputs": [],
      "stateMutability": "nonpayable",
      "type": "function"
    },
    {
      "inputs": [],
      "name": "s_GlobalDAOAddress",
      "outputs": [
        {
          "internalType": "address",
          "name": "",
          "type": "address"
        }
      ],
      "stateMutability": "view",
      "type": "function"
    },
    {
      "inputs": [],
      "name": "s_GlobalDAORate",
      "outputs": [
        {
          "internalType": "uint256",
          "name": "",
          "type": "uint256"
        }
      ],
      "stateMutability": "view",
      "type": "function"
    },
    {
      "inputs": [
        {
          "internalType": "address",
          "name": "_Subscription",
          "type": "address"
        }
      ],
      "name": "setSubscriptionContract",
      "outputs": [],
      "stateMutability": "nonpayable",
      "type": "function"
    },
    {
      "inputs": [
        {
          "internalType": "uint256",
          "name": "_subnetId",
          "type": "uint256"
        }
      ],
      "name": "subnetDAOWalletFor1",
      "outputs": [
        {
          "internalType": "address",
          "name": "",
          "type": "address"
        }
      ],
      "stateMutability": "view",
      "type": "function"
    },
    {
      "inputs": [
        {
          "internalType": "uint256",
          "name": "_nftId",
          "type": "uint256"
        },
        {
          "internalType": "uint256",
          "name": "_balanceToAdd",
          "type": "uint256"
        },
        {
          "internalType": "uint256",
          "name": "_subnetId",
          "type": "uint256"
        },
        {
          "internalType": "address",
          "name": "_minter",
          "type": "address"
        }
      ],
      "name": "subscribeNew",
      "outputs": [
        {
          "internalType": "bool",
          "name": "",
          "type": "bool"
        }
      ],
      "stateMutability": "nonpayable",
      "type": "function"
    },
    {
      "inputs": [
        {
          "internalType": "uint256",
          "name": "_subnetId",
          "type": "uint256"
        }
      ],
      "name": "t_SupportFeeRate",
      "outputs": [
        {
          "internalType": "uint256",
          "name": "fee",
          "type": "uint256"
        }
      ],
      "stateMutability": "view",
      "type": "function"
    },
    {
      "inputs": [
        {
          "internalType": "uint256",
          "name": "_tokenId",
          "type": "uint256"
        }
      ],
      "name": "t_supportFeeAddress",
      "outputs": [
        {
          "internalType": "address",
          "name": "",
          "type": "address"
        }
      ],
      "stateMutability": "view",
      "type": "function"
    },
    {
      "inputs": [
        {
          "internalType": "uint256",
          "name": "NFTid",
          "type": "uint256"
        }
      ],
      "name": "totalPrevBalance",
      "outputs": [
        {
          "internalType": "uint256",
          "name": "",
          "type": "uint256"
        }
      ],
      "stateMutability": "view",
      "type": "function"
    },
    {
      "inputs": [
        {
          "internalType": "uint256",
          "name": "nftId",
          "type": "uint256"
        }
      ],
      "name": "totalSubnets",
      "outputs": [
        {
          "internalType": "uint256",
          "name": "",
          "type": "uint256"
        }
      ],
      "stateMutability": "view",
      "type": "function"
    },
    {
      "inputs": [
        {
          "internalType": "address",
          "name": "newOwner",
          "type": "address"
        }
      ],
      "name": "transferOwnership",
      "outputs": [],
      "stateMutability": "nonpayable",
      "type": "function"
    },
    {
      "inputs": [
        {
          "internalType": "uint256",
          "name": "_NFTid",
          "type": "uint256"
        }
      ],
      "name": "withdrawAllOwnerBalance",
      "outputs": [],
      "stateMutability": "nonpayable",
      "type": "function"
    },
    {
      "inputs": [
        {
          "internalType": "uint256",
          "name": "_NFTid",
          "type": "uint256"
        },
        {
          "internalType": "uint256",
          "name": "_bal",
          "type": "uint256"
        }
      ],
      "name": "withdrawBalance",
      "outputs": [],
      "stateMutability": "nonpayable",
      "type": "function"
    },
    {
      "inputs": [
        {
          "internalType": "uint256",
          "name": "_NFTid",
          "type": "uint256"
        },
        {
          "internalType": "address",
          "name": "_to",
          "type": "address"
        }
      ],
      "name": "withdrawCreditsForNFT",
      "outputs": [],
      "stateMutability": "nonpayable",
      "type": "function"
    }
  ],
  "bytecode": "0x608060405234801561001057600080fd5b506156c280620000216000396000f3fe608060405234801561001057600080fd5b50600436106102485760003560e01c806394f6340c1161013b578063b4e76676116100b8578063d480dc141161007c578063d480dc141461056a578063dadd989a1461057d578063df44b17014610590578063f2fde38b146105b0578063f73ecb30146105c357610248565b8063b4e76676146104fb578063b5d8e9861461050e578063b7cb42e414610521578063c0c53b8b14610544578063c6d190031461055757610248565b8063a6d5d702116100ff578063a6d5d7021461049c578063a8440fe2146104af578063abb4b9cd146104c2578063aef72fb2146104d5578063b4b33ecd146104e857610248565b806394f6340c1461043b57806396bbda3e1461044e57806399655519146104565780639c5a6dea14610469578063a40398a61461048957610248565b806344e82250116101c95780635f7bc5101161018d5780635f7bc51014610389578063620f8c7d146103b4578063632bd76a1461040f578063715018a6146104225780638da5cb5b1461042a57610248565b806344e822501461032d57806345c37cd4146103355780634beb71e614610348578063545204fe1461036b5780635c975abb1461037e57610248565b8063215c5cb011610210578063215c5cb0146102c05780632ee2ec90146102d35780632fc84de8146102e657806333206192146102f957806341910dc11461031a57610248565b806306e29ed91461024d5780631505a4d414610262578063192cd212146102755780631bef5ddf146102a55780631d2e0223146102b8575b600080fd5b61026061025b366004615131565b6105d6565b005b610260610270366004615389565b610628565b610288610283366004615261565b610f2e565b6040516001600160a01b0390911681526020015b60405180910390f35b6102886102b3366004615261565b610fb4565b610288610fe6565b6102606102ce3660046150ce565b611068565b6102606102e1366004615291565b611159565b609954610288906001600160a01b031681565b61030c610307366004615368565b611a71565b60405190815260200161029c565b609a54610288906001600160a01b031681565b610260611c43565b609854610288906001600160a01b031681565b61035b610356366004615261565b611c4e565b604051901515815260200161029c565b6102606103793660046150ce565b612272565b60655460ff1661035b565b61030c610397366004615106565b609d60209081526000928352604080842090915290825290205481565b6103ec6103c2366004615261565b609b6020526000908152604090208054600582015460069092015490916001600160a01b03169083565b604080519384526001600160a01b0390921660208401529082015260600161029c565b61026061041d366004615368565b612305565b610260612b4f565b6033546001600160a01b0316610288565b61035b6104493660046153b4565b612b83565b61030c612ca5565b610260610464366004615368565b612d22565b61047c610477366004615261565b61349e565b60405161029c91906153f4565b61035b610497366004615368565b6134ed565b61030c6104aa366004615261565b613aea565b61030c6104bd366004615368565b613ba6565b609754610288906001600160a01b031681565b61035b6104e3366004615261565b613c31565b61030c6104f6366004615261565b613c5a565b61035b610509366004615261565b613cc0565b61030c61051c366004615261565b6142dc565b61030c61052f366004615261565b6000908152609b602052604090206004015490565b610260610552366004615217565b614339565b61035b610565366004615368565b6143f6565b610260610578366004615261565b61444c565b61035b61058b366004615389565b614a6e565b61030c61059e3660046150ce565b609c6020526000908152604090205481565b6102606105be3660046150ce565b614bac565b61030c6105d1366004615261565b614c47565b60005b81518110156106245761061282828151811061060557634e487b7160e01b600052603260045260246000fd5b6020026020010151611068565b8061061c81615630565b9150506105d9565b5050565b60655460ff16156106545760405162461bcd60e51b815260040161064b90615475565b60405180910390fd5b6000838152609b60209081526040808320600401805482518185028101850190935280835287949384939291908301828280156106b057602002820191906000526020600020905b81548152602001906001019080831161069c575b5050505050905060005b81518110156108de5760975482516000916001600160a01b0316906373d97f39908590859081106106fb57634e487b7160e01b600052603260045260246000fd5b60200260200101516040518263ffffffff1660e01b815260040161072191815260200190565b60006040518083038186803b15801561073957600080fd5b505afa15801561074d573d6000803e3d6000fd5b505050506040513d6000823e601f3d908101601f1916820160405261077591908101906152c0565b5050609a548951929750600096506001600160a01b0316945063436254d693508a9250889188915081106107b957634e487b7160e01b600052603260045260246000fd5b60200260200101516040518363ffffffff1660e01b81526004016107e7929190918252602082015260400190565b60006040518083038186803b1580156107ff57600080fd5b505afa158015610813573d6000803e3d6000fd5b505050506040513d6000823e601f3d908101601f1916820160405261083b91908101906151ca565b905060005b82518110156108c8576108b46108ad83838151811061086f57634e487b7160e01b600052603260045260246000fd5b602002602001015185848151811061089757634e487b7160e01b600052603260045260246000fd5b6020026020010151614cd590919063ffffffff16565b8790614ce1565b9550806108c081615630565b915050610840565b50505080806108d690615630565b9150506106ba565b506000838152609b6020526040812054610904906108fd904290614ced565b8490614cd5565b9050620186a0811115610cf0576000808083610935620186a061092f83610929612ca5565b90614cd5565b90614cf9565b925061096783609c6000610947610fe6565b6001600160a01b0316815260208101919091526040016000205490614ce1565b609c6000610973610fe6565b6001600160a01b03166001600160a01b031681526020019081526020016000208190555060005b8651811015610abd576109e96109e2620186a061092f896109298e8d88815181106109d557634e487b7160e01b600052603260045260246000fd5b6020026020010151613ba6565b8690614ce1565b9450610a30610a29620186a061092f896109298c8781518110610a1c57634e487b7160e01b600052603260045260246000fd5b6020026020010151614c47565b8490614ce1565b9250610a6a82609c60006109478b8681518110610a5d57634e487b7160e01b600052603260045260246000fd5b6020026020010151610f2e565b609c6000610a918a8581518110610a5d57634e487b7160e01b600052603260045260246000fd5b6001600160a01b0316815260208101919091526040016000205580610ab581615630565b91505061099a565b506000888152609b60209081526040808320600501546001600160a01b03168352609c909152902054610af09085614ce1565b6000898152609b60209081526040808320600501546001600160a01b03168352609c91829052822092909255610b2b9184916109478c610fb4565b609c6000610b388b610fb4565b6001600160a01b031681526020810191909152604001600090812091909155610b6d82610b6785818989614ce1565b90614ce1565b60008a8152609b602052604081206001015491925090821015610bc25760008a8152609b60205260408120610bab918491600101905b015490614ced565b60008b8152609b6020526040902060010155610cd8565b60008a8152609b60205260408120610be4916001909101905b01548390614ced565b60008b8152609b60205260408120600181019190915560020154909150811015610c465760008a8152609b60205260409020610c27908290600190810190610ba3565b60008b8152609b602052604090206001908101905b0155506000610cd8565b60008a8152609b60205260409020610c68906001908101905b01548290614ced565b60008b8152609b60205260408120600281019190915560030154909150811015610cc25760008a8152609b60205260409020610caa9082906001016002610ba3565b60008b8152609b602052604090206001016002610c3c565b506000898152609b602052604081206003018190555b5050506000878152609b602052604090204290555050505b336000908152609d602090815260408083208a845290915290205487908611610d815760405162461bcd60e51b815260206004820152603860248201527f43726564697473206578706972792063616e6e6f7420626520736574206c657360448201527f736572207468616e2070726576696f7573206578706972790000000000000000606482015260840161064b565b6099546001600160a01b03166323b872dd336040516001600160e01b031960e084901b1681526001600160a01b039091166004820152306024820152604481018a9052606401602060405180830381600087803b158015610de157600080fd5b505af1158015610df5573d6000803e3d6000fd5b505050506040513d601f19601f82011682018060405250810190610e1991906151fd565b50604080516060810182526000838152609b60205291822090918291610e48918b91600101905b015490614ce1565b81526000838152609b6020818152604080842060028101548387015260038082015492909601919091529286905252610e8692600190910191614fa7565b506000818152609b60205260409020429055610eb7610eb0610ea783613aea565b61092f84613c5a565b4290614ce1565b6000828152609b6020908152604080832060060193909355338252609d815282822084835281528282208990558251848152908101919091529081018890527fc3cb85e2217091051779d8f75f52cc9874723c3b9fad06042a5fa2df88df9642906060015b60405180910390a15050505050505050565b6097546040516379fed2eb60e01b8152600481018390526000916001600160a01b0316906379fed2eb906024015b60206040518083038186803b158015610f7457600080fd5b505afa158015610f88573d6000803e3d6000fd5b505050506040513d601f19601f82011682018060405250810190610fac91906150ea565b90505b919050565b6098546040516331a9108f60e11b8152600481018390526000916001600160a01b031690636352211e90602401610f5c565b609754604080516341facd6360e11b815290516000926001600160a01b0316916383f59ac6916004808301926020929190829003018186803b15801561102b57600080fd5b505afa15801561103f573d6000803e3d6000fd5b505050506040513d601f19601f8201168201806040525081019061106391906150ea565b905090565b6001600160a01b038181166000818152609c60205260409081902054609954915163a9059cbb60e01b815260048101939093526024830181905292169063a9059cbb90604401602060405180830381600087803b1580156110c857600080fd5b505af11580156110dc573d6000803e3d6000fd5b505050506040513d601f19601f8201168201806040525081019061110091906151fd565b506001600160a01b0382166000818152609c6020908152604080832092909255815192835282018390527ff8df0bb865f83f0bfa58caa2a1ec0cccc495ea623170108323baecc06cd6537a910160405180910390a15050565b609a546001600160a01b03166391d148547f86c262939a9533c4628ccc11f9decb407b7c04ffc9311f0c60d1f23d7d790db7336040516001600160e01b031960e085901b16815260048101929092526001600160a01b0316602482015260440160206040518083038186803b1580156111d157600080fd5b505afa1580156111e5573d6000803e3d6000fd5b505050506040513d601f19601f8201168201806040525081019061120991906151fd565b61126d5760405162461bcd60e51b815260206004820152602f60248201527f53656e646572206973206e6f742061737369676e656420746f2057495448445260448201526e41575f435245444954535f524f4c4560881b606482015260840161064b565b60655460ff16156112905760405162461bcd60e51b815260040161064b90615475565b6000828152609b60209081526040808320600401805482518185028101850190935280835286949384939291908301828280156112ec57602002820191906000526020600020905b8154815260200190600101908083116112d8575b5050505050905060005b81518110156114d55760975482516000916001600160a01b0316906373d97f399085908590811061133757634e487b7160e01b600052603260045260246000fd5b60200260200101516040518263ffffffff1660e01b815260040161135d91815260200190565b60006040518083038186803b15801561137557600080fd5b505afa158015611389573d6000803e3d6000fd5b505050506040513d6000823e601f3d908101601f191682016040526113b191908101906152c0565b5050609a548951929750600096506001600160a01b0316945063436254d693508a9250889188915081106113f557634e487b7160e01b600052603260045260246000fd5b60200260200101516040518363ffffffff1660e01b8152600401611423929190918252602082015260400190565b60006040518083038186803b15801561143b57600080fd5b505afa15801561144f573d6000803e3d6000fd5b505050506040513d6000823e601f3d908101601f1916820160405261147791908101906151ca565b905060005b82518110156114bf576114ab6108ad83838151811061086f57634e487b7160e01b600052603260045260246000fd5b9550806114b781615630565b91505061147c565b50505080806114cd90615630565b9150506112f6565b506000838152609b60205260408120546114f4906108fd904290614ced565b9050620186a081111561186b576000808083611519620186a061092f83610929612ca5565b925061152b83609c6000610947610fe6565b609c6000611537610fe6565b6001600160a01b03166001600160a01b031681526020019081526020016000208190555060005b865181101561164c576115996109e2620186a061092f896109298e8d88815181106109d557634e487b7160e01b600052603260045260246000fd5b94506115cc610a29620186a061092f896109298c8781518110610a1c57634e487b7160e01b600052603260045260246000fd5b92506115f982609c60006109478b8681518110610a5d57634e487b7160e01b600052603260045260246000fd5b609c60006116208a8581518110610a5d57634e487b7160e01b600052603260045260246000fd5b6001600160a01b031681526020810191909152604001600020558061164481615630565b91505061155e565b506000888152609b60209081526040808320600501546001600160a01b03168352609c90915290205461167f9085614ce1565b6000898152609b60209081526040808320600501546001600160a01b03168352609c918290528220929092556116ba9184916109478c610fb4565b609c60006116c78b610fb4565b6001600160a01b0316815260208101919091526040016000908120919091556116f682610b6785818989614ce1565b60008a8152609b6020526040812060010154919250908210156117475760008a8152609b6020526040812061173091849160010190610ba3565b60008b8152609b6020526040902060010155611853565b60008a8152609b6020526040812061176491600190910190610bdb565b60008b8152609b602052604081206001810191909155600201549091508110156117c65760008a8152609b602052604090206117a7908290600190810190610ba3565b60008b8152609b602052604090206001908101905b0155506000611853565b60008a8152609b602052604090206117e390600190810190610c5f565b60008b8152609b6020526040812060028101919091556003015490915081101561183d5760008a8152609b602052604090206118259082906001016002610ba3565b60008b8152609b6020526040902060010160026117bc565b506000898152609b602052604081206003018190555b5050506000878152609b602052604090204290555050505b6000868152609b6020908152604080832060010154338452609d83528184208a85529092529091205487919042116118e55760405162461bcd60e51b815260206004820152601760248201527f43726564697473206e6f74206578706972656420796574000000000000000000604482015260640161064b565b604051806060016040528060008152602001609b600085815260200190815260200160002060010160016003811061192d57634e487b7160e01b600052603260045260246000fd5b015481526000848152609b60208181526040832060038082015495830195909552928790525261196292600190910191614fa7565b506000828152609b6020526040902042905561198c610eb061198384613aea565b61092f85613c5a565b6000838152609b60205260409081902060060191909155609954905163a9059cbb60e01b81526001600160a01b038981166004830152602482018490529091169063a9059cbb90604401602060405180830381600087803b1580156119f057600080fd5b505af1158015611a04573d6000803e3d6000fd5b505050506040513d601f19601f82011682018060405250810190611a2891906151fd565b50611a3282611c4e565b5060408051898152600060208201529081018290527f9fc5fbd32dfd68871ac42806891adcad25750bfe126df566b5077854f5f6309190606001610f1c565b600080611a9c620186a0610b67611a8786614c47565b610b67611a948989613ba6565b610b67612ca5565b6097546040516373d97f3960e01b8152600481018690529192506000916001600160a01b03909116906373d97f399060240160006040518083038186803b158015611ae657600080fd5b505afa158015611afa573d6000803e3d6000fd5b505050506040513d6000823e601f3d908101601f19168201604052611b2291908101906152c0565b5050609a546040516321b12a6b60e11b8152600481018d9052602481018c9052929750600096508695506001600160a01b0316935063436254d692505060440160006040518083038186803b158015611b7a57600080fd5b505afa158015611b8e573d6000803e3d6000fd5b505050506040513d6000823e601f3d908101601f19168201604052611bb691908101906151ca565b905060005b8351811015611c2657611c12610a29838381518110611bea57634e487b7160e01b600052603260045260246000fd5b602002602001015186848151811061089757634e487b7160e01b600052603260045260246000fd5b925080611c1e81615630565b915050611bbb565b50611c38620186a061092f8685614cd5565b979650505050505050565b611c4c336102ce565b565b600081600080609b6000848152602001908152602001600020600401805480602002602001604051908101604052809291908181526020018280548015611cb457602002820191906000526020600020905b815481526020019060010190808311611ca0575b5050505050905060005b8151811015611e9d5760975482516000916001600160a01b0316906373d97f3990859085908110611cff57634e487b7160e01b600052603260045260246000fd5b60200260200101516040518263ffffffff1660e01b8152600401611d2591815260200190565b60006040518083038186803b158015611d3d57600080fd5b505afa158015611d51573d6000803e3d6000fd5b505050506040513d6000823e601f3d908101601f19168201604052611d7991908101906152c0565b5050609a548951929750600096506001600160a01b0316945063436254d693508a925088918891508110611dbd57634e487b7160e01b600052603260045260246000fd5b60200260200101516040518363ffffffff1660e01b8152600401611deb929190918252602082015260400190565b60006040518083038186803b158015611e0357600080fd5b505afa158015611e17573d6000803e3d6000fd5b505050506040513d6000823e601f3d908101601f19168201604052611e3f91908101906151ca565b905060005b8251811015611e8757611e736108ad83838151811061086f57634e487b7160e01b600052603260045260246000fd5b955080611e7f81615630565b915050611e44565b5050508080611e9590615630565b915050611cbe565b506000838152609b6020526040812054611ebc906108fd904290614ced565b9050620186a0811115612233576000808083611ee1620186a061092f83610929612ca5565b9250611ef383609c6000610947610fe6565b609c6000611eff610fe6565b6001600160a01b03166001600160a01b031681526020019081526020016000208190555060005b865181101561201457611f616109e2620186a061092f896109298e8d88815181106109d557634e487b7160e01b600052603260045260246000fd5b9450611f94610a29620186a061092f896109298c8781518110610a1c57634e487b7160e01b600052603260045260246000fd5b9250611fc182609c60006109478b8681518110610a5d57634e487b7160e01b600052603260045260246000fd5b609c6000611fe88a8581518110610a5d57634e487b7160e01b600052603260045260246000fd5b6001600160a01b031681526020810191909152604001600020558061200c81615630565b915050611f26565b506000888152609b60209081526040808320600501546001600160a01b03168352609c9091529020546120479085614ce1565b6000898152609b60209081526040808320600501546001600160a01b03168352609c918290528220929092556120829184916109478c610fb4565b609c600061208f8b610fb4565b6001600160a01b0316815260208101919091526040016000908120919091556120be82610b6785818989614ce1565b60008a8152609b60205260408120600101549192509082101561210f5760008a8152609b602052604081206120f891849160010190610ba3565b60008b8152609b602052604090206001015561221b565b60008a8152609b6020526040812061212c91600190910190610bdb565b60008b8152609b6020526040812060018101919091556002015490915081101561218e5760008a8152609b6020526040902061216f908290600190810190610ba3565b60008b8152609b602052604090206001908101905b015550600061221b565b60008a8152609b602052604090206121ab90600190810190610c5f565b60008b8152609b602052604081206002810191909155600301549091508110156122055760008a8152609b602052604090206121ed9082906001016002610ba3565b60008b8152609b602052604090206001016002612184565b506000898152609b602052604081206003018190555b5050506000878152609b602052604090204290555050505b6040518681527f106128e5bc2fab46dc6facdb884bcdb95b9005c33eff74a8009b90a3944c10099060200160405180910390a150600195945050505050565b6033546001600160a01b0316331461229c5760405162461bcd60e51b815260040161064b906154ed565b609a546001600160a01b0316156122e35760405162461bcd60e51b815260206004820152600b60248201526a105b1c9958591e481cd95d60aa1b604482015260640161064b565b609a80546001600160a01b0319166001600160a01b0392909216919091179055565b60655460ff16156123285760405162461bcd60e51b815260040161064b90615475565b6000828152609b602090815260408083206004018054825181850281018501909352808352869493849392919083018282801561238457602002820191906000526020600020905b815481526020019060010190808311612370575b5050505050905060005b815181101561256d5760975482516000916001600160a01b0316906373d97f39908590859081106123cf57634e487b7160e01b600052603260045260246000fd5b60200260200101516040518263ffffffff1660e01b81526004016123f591815260200190565b60006040518083038186803b15801561240d57600080fd5b505afa158015612421573d6000803e3d6000fd5b505050506040513d6000823e601f3d908101601f1916820160405261244991908101906152c0565b5050609a548951929750600096506001600160a01b0316945063436254d693508a92508891889150811061248d57634e487b7160e01b600052603260045260246000fd5b60200260200101516040518363ffffffff1660e01b81526004016124bb929190918252602082015260400190565b60006040518083038186803b1580156124d357600080fd5b505afa1580156124e7573d6000803e3d6000fd5b505050506040513d6000823e601f3d908101601f1916820160405261250f91908101906151ca565b905060005b8251811015612557576125436108ad83838151811061086f57634e487b7160e01b600052603260045260246000fd5b95508061254f81615630565b915050612514565b505050808061256590615630565b91505061238e565b506000838152609b602052604081205461258c906108fd904290614ced565b9050620186a08111156129035760008080836125b1620186a061092f83610929612ca5565b92506125c383609c6000610947610fe6565b609c60006125cf610fe6565b6001600160a01b03166001600160a01b031681526020019081526020016000208190555060005b86518110156126e4576126316109e2620186a061092f896109298e8d88815181106109d557634e487b7160e01b600052603260045260246000fd5b9450612664610a29620186a061092f896109298c8781518110610a1c57634e487b7160e01b600052603260045260246000fd5b925061269182609c60006109478b8681518110610a5d57634e487b7160e01b600052603260045260246000fd5b609c60006126b88a8581518110610a5d57634e487b7160e01b600052603260045260246000fd5b6001600160a01b03168152602081019190915260400160002055806126dc81615630565b9150506125f6565b506000888152609b60209081526040808320600501546001600160a01b03168352609c9091529020546127179085614ce1565b6000898152609b60209081526040808320600501546001600160a01b03168352609c918290528220929092556127529184916109478c610fb4565b609c600061275f8b610fb4565b6001600160a01b03168152602081019190915260400160009081209190915561278e82610b6785818989614ce1565b60008a8152609b6020526040812060010154919250908210156127df5760008a8152609b602052604081206127c891849160010190610ba3565b60008b8152609b60205260409020600101556128eb565b60008a8152609b602052604081206127fc91600190910190610bdb565b60008b8152609b6020526040812060018101919091556002015490915081101561285e5760008a8152609b6020526040902061283f908290600190810190610ba3565b60008b8152609b602052604090206001908101905b01555060006128eb565b60008a8152609b6020526040902061287b90600190810190610c5f565b60008b8152609b602052604081206002810191909155600301549091508110156128d55760008a8152609b602052604090206128bd9082906001016002610ba3565b60008b8152609b602052604090206001016002612854565b506000898152609b602052604081206003018190555b5050506000878152609b602052604090204290555050505b336098546040516331a9108f60e11b8152600481018990526001600160a01b039283169290911690636352211e9060240160206040518083038186803b15801561294c57600080fd5b505afa158015612960573d6000803e3d6000fd5b505050506040513d601f19601f8201168201806040525081019061298491906150ea565b6001600160a01b0316146129da5760405162461bcd60e51b815260206004820152601e60248201527f53656e646572206e6f7420746865206f776e6572206f66204e46542069640000604482015260640161064b565b60995486906001600160a01b031663a9059cbb336040516001600160e01b031960e084901b1681526001600160a01b03909116600482015260248101899052604401602060405180830381600087803b158015612a3657600080fd5b505af1158015612a4a573d6000803e3d6000fd5b505050506040513d601f19601f82011682018060405250810190612a6e91906151fd565b50604080516060810182526000838152609b6020818152848320600181018054865260029182015483870152938790529190529192830191612ab1918a91610ba3565b90526000828152609b60205260409020612ad2916001909101906003614fa7565b50612adc81611c4e565b50612aec610eb0610ea783613aea565b6000828152609b602090815260409182902060060192909255805183815260029281019290925281018790527f9fc5fbd32dfd68871ac42806891adcad25750bfe126df566b5077854f5f63091906060015b60405180910390a150505050505050565b6033546001600160a01b03163314612b795760405162461bcd60e51b815260040161064b906154ed565b611c4c6000614d05565b609a546000906001600160a01b03163314612bb05760405162461bcd60e51b815260040161064b90615425565b6040805160a081018252428152815160608181018452600080835260208381018290528386018290528085019384528486018390526001600160a01b03881685840152608085018290528a8252609b905293909320825181559051612c1b9060018301906003614fa7565b5060408201518051612c37916004840191602090910190614fe5565b5060608201516005820180546001600160a01b0319166001600160a01b039092169190911790556080909101516006909101556000868152609b6020908152604082206004018054600181018255908352912001849055612c988686614d57565b5060019695505050505050565b609754604080516319ec727760e31b815290516000926001600160a01b03169163cf6393b8916004808301926020929190829003018186803b158015612cea57600080fd5b505afa158015612cfe573d6000803e3d6000fd5b505050506040513d601f19601f820116820180604052508101906110639190615279565b60655460ff1615612d455760405162461bcd60e51b815260040161064b90615475565b6000828152609b6020908152604080832060040180548251818502810185019093528083528694938493929190830182828015612da157602002820191906000526020600020905b815481526020019060010190808311612d8d575b5050505050905060005b8151811015612f8a5760975482516000916001600160a01b0316906373d97f3990859085908110612dec57634e487b7160e01b600052603260045260246000fd5b60200260200101516040518263ffffffff1660e01b8152600401612e1291815260200190565b60006040518083038186803b158015612e2a57600080fd5b505afa158015612e3e573d6000803e3d6000fd5b505050506040513d6000823e601f3d908101601f19168201604052612e6691908101906152c0565b5050609a548951929750600096506001600160a01b0316945063436254d693508a925088918891508110612eaa57634e487b7160e01b600052603260045260246000fd5b60200260200101516040518363ffffffff1660e01b8152600401612ed8929190918252602082015260400190565b60006040518083038186803b158015612ef057600080fd5b505afa158015612f04573d6000803e3d6000fd5b505050506040513d6000823e601f3d908101601f19168201604052612f2c91908101906151ca565b905060005b8251811015612f7457612f606108ad83838151811061086f57634e487b7160e01b600052603260045260246000fd5b955080612f6c81615630565b915050612f31565b5050508080612f8290615630565b915050612dab565b506000838152609b6020526040812054612fa9906108fd904290614ced565b9050620186a0811115613320576000808083612fce620186a061092f83610929612ca5565b9250612fe083609c6000610947610fe6565b609c6000612fec610fe6565b6001600160a01b03166001600160a01b031681526020019081526020016000208190555060005b86518110156131015761304e6109e2620186a061092f896109298e8d88815181106109d557634e487b7160e01b600052603260045260246000fd5b9450613081610a29620186a061092f896109298c8781518110610a1c57634e487b7160e01b600052603260045260246000fd5b92506130ae82609c60006109478b8681518110610a5d57634e487b7160e01b600052603260045260246000fd5b609c60006130d58a8581518110610a5d57634e487b7160e01b600052603260045260246000fd5b6001600160a01b03168152602081019190915260400160002055806130f981615630565b915050613013565b506000888152609b60209081526040808320600501546001600160a01b03168352609c9091529020546131349085614ce1565b6000898152609b60209081526040808320600501546001600160a01b03168352609c9182905282209290925561316f9184916109478c610fb4565b609c600061317c8b610fb4565b6001600160a01b0316815260208101919091526040016000908120919091556131ab82610b6785818989614ce1565b60008a8152609b6020526040812060010154919250908210156131fc5760008a8152609b602052604081206131e591849160010190610ba3565b60008b8152609b6020526040902060010155613308565b60008a8152609b6020526040812061321991600190910190610bdb565b60008b8152609b6020526040812060018101919091556002015490915081101561327b5760008a8152609b6020526040902061325c908290600190810190610ba3565b60008b8152609b602052604090206001908101905b0155506000613308565b60008a8152609b6020526040902061329890600190810190610c5f565b60008b8152609b602052604081206002810191909155600301549091508110156132f25760008a8152609b602052604090206132da9082906001016002610ba3565b60008b8152609b602052604090206001016002613271565b506000898152609b602052604081206003018190555b5050506000878152609b602052604090204290555050505b60995486906001600160a01b03166323b872dd336040516001600160e01b031960e084901b1681526001600160a01b03909116600482015230602482015260448101899052606401602060405180830381600087803b15801561338257600080fd5b505af1158015613396573d6000803e3d6000fd5b505050506040513d601f19601f820116820180604052508101906133ba91906151fd565b50604080516060810182526000838152609b60208181529382206001908101805485529286905290845291928301916133f4918a91610e40565b81526000838152609b60208181526040832060038082015495830195909552928690525261342792600190910191614fa7565b506000818152609b60205260409020429055613448610eb0610ea783613aea565b6000828152609b602090815260409182902060060192909255805183815260019281019290925281018790527fc3cb85e2217091051779d8f75f52cc9874723c3b9fad06042a5fa2df88df964290606001612b3e565b6134a661501f565b6000828152609b60205260409081902081516060810190925260010160038282826020028201915b8154815260200190600101908083116134ce5750505050509050919050565b600082600080609b600084815260200190815260200160002060040180548060200260200160405190810160405280929190818152602001828054801561355357602002820191906000526020600020905b81548152602001906001019080831161353f575b5050505050905060005b815181101561373c5760975482516000916001600160a01b0316906373d97f399085908590811061359e57634e487b7160e01b600052603260045260246000fd5b60200260200101516040518263ffffffff1660e01b81526004016135c491815260200190565b60006040518083038186803b1580156135dc57600080fd5b505afa1580156135f0573d6000803e3d6000fd5b505050506040513d6000823e601f3d908101601f1916820160405261361891908101906152c0565b5050609a548951929750600096506001600160a01b0316945063436254d693508a92508891889150811061365c57634e487b7160e01b600052603260045260246000fd5b60200260200101516040518363ffffffff1660e01b815260040161368a929190918252602082015260400190565b60006040518083038186803b1580156136a257600080fd5b505afa1580156136b6573d6000803e3d6000fd5b505050506040513d6000823e601f3d908101601f191682016040526136de91908101906151ca565b905060005b8251811015613726576137126108ad83838151811061086f57634e487b7160e01b600052603260045260246000fd5b95508061371e81615630565b9150506136e3565b505050808061373490615630565b91505061355d565b506000838152609b602052604081205461375b906108fd904290614ced565b9050620186a0811115613ad2576000808083613780620186a061092f83610929612ca5565b925061379283609c6000610947610fe6565b609c600061379e610fe6565b6001600160a01b03166001600160a01b031681526020019081526020016000208190555060005b86518110156138b3576138006109e2620186a061092f896109298e8d88815181106109d557634e487b7160e01b600052603260045260246000fd5b9450613833610a29620186a061092f896109298c8781518110610a1c57634e487b7160e01b600052603260045260246000fd5b925061386082609c60006109478b8681518110610a5d57634e487b7160e01b600052603260045260246000fd5b609c60006138878a8581518110610a5d57634e487b7160e01b600052603260045260246000fd5b6001600160a01b03168152602081019190915260400160002055806138ab81615630565b9150506137c5565b506000888152609b60209081526040808320600501546001600160a01b03168352609c9091529020546138e69085614ce1565b6000898152609b60209081526040808320600501546001600160a01b03168352609c918290528220929092556139219184916109478c610fb4565b609c600061392e8b610fb4565b6001600160a01b03168152602081019190915260400160009081209190915561395d82610b6785818989614ce1565b60008a8152609b6020526040812060010154919250908210156139ae5760008a8152609b6020526040812061399791849160010190610ba3565b60008b8152609b6020526040902060010155613aba565b60008a8152609b602052604081206139cb91600190910190610bdb565b60008b8152609b60205260408120600181019190915560020154909150811015613a2d5760008a8152609b60205260409020613a0e908290600190810190610ba3565b60008b8152609b602052604090206001908101905b0155506000613aba565b60008a8152609b60205260409020613a4a90600190810190610c5f565b60008b8152609b60205260408120600281019190915560030154909150811015613aa45760008a8152609b60205260409020613a8c9082906001016002610ba3565b60008b8152609b602052604090206001016002613a23565b506000898152609b602052604081206003018190555b5050506000878152609b602052604090204290555050505b613adc8787614d57565b506001979650505050505050565b6000818152609b6020908152604080832060040180548251818502810185019093528083528493830182828015613b4057602002820191906000526020600020905b815481526020019060010190808311613b2c575b505050505090506000915060005b8151811015613b9f57613b8b610a2985848481518110613b7e57634e487b7160e01b600052603260045260246000fd5b6020026020010151611a71565b925080613b9781615630565b915050613b4e565b5050919050565b609a5460405163542207f160e11b815260048101849052602481018390526000916001600160a01b03169063a8440fe29060440160206040518083038186803b158015613bf257600080fd5b505afa158015613c06573d6000803e3d6000fd5b505050506040513d601f19601f82011682018060405250810190613c2a9190615279565b9392505050565b6000818152609b6020526040812060060154421015613c5257506001610faf565b506000919050565b600080805b6003811015613cb9576000848152609b60205260409020613ca5906001018260038110613c9c57634e487b7160e01b600052603260045260246000fd5b01548390614ce1565b915080613cb181615630565b915050613c5f565b5092915050565b600081600080609b6000848152602001908152602001600020600401805480602002602001604051908101604052809291908181526020018280548015613d2657602002820191906000526020600020905b815481526020019060010190808311613d12575b5050505050905060005b8151811015613f0f5760975482516000916001600160a01b0316906373d97f3990859085908110613d7157634e487b7160e01b600052603260045260246000fd5b60200260200101516040518263ffffffff1660e01b8152600401613d9791815260200190565b60006040518083038186803b158015613daf57600080fd5b505afa158015613dc3573d6000803e3d6000fd5b505050506040513d6000823e601f3d908101601f19168201604052613deb91908101906152c0565b5050609a548951929750600096506001600160a01b0316945063436254d693508a925088918891508110613e2f57634e487b7160e01b600052603260045260246000fd5b60200260200101516040518363ffffffff1660e01b8152600401613e5d929190918252602082015260400190565b60006040518083038186803b158015613e7557600080fd5b505afa158015613e89573d6000803e3d6000fd5b505050506040513d6000823e601f3d908101601f19168201604052613eb191908101906151ca565b905060005b8251811015613ef957613ee56108ad83838151811061086f57634e487b7160e01b600052603260045260246000fd5b955080613ef181615630565b915050613eb6565b5050508080613f0790615630565b915050613d30565b506000838152609b6020526040812054613f2e906108fd904290614ced565b9050620186a08111156142a5576000808083613f53620186a061092f83610929612ca5565b9250613f6583609c6000610947610fe6565b609c6000613f71610fe6565b6001600160a01b03166001600160a01b031681526020019081526020016000208190555060005b865181101561408657613fd36109e2620186a061092f896109298e8d88815181106109d557634e487b7160e01b600052603260045260246000fd5b9450614006610a29620186a061092f896109298c8781518110610a1c57634e487b7160e01b600052603260045260246000fd5b925061403382609c60006109478b8681518110610a5d57634e487b7160e01b600052603260045260246000fd5b609c600061405a8a8581518110610a5d57634e487b7160e01b600052603260045260246000fd5b6001600160a01b031681526020810191909152604001600020558061407e81615630565b915050613f98565b506000888152609b60209081526040808320600501546001600160a01b03168352609c9091529020546140b99085614ce1565b6000898152609b60209081526040808320600501546001600160a01b03168352609c918290528220929092556140f49184916109478c610fb4565b609c60006141018b610fb4565b6001600160a01b03168152602081019190915260400160009081209190915561413082610b6785818989614ce1565b60008a8152609b6020526040812060010154919250908210156141815760008a8152609b6020526040812061416a91849160010190610ba3565b60008b8152609b602052604090206001015561428d565b60008a8152609b6020526040812061419e91600190910190610bdb565b60008b8152609b602052604081206001810191909155600201549091508110156142005760008a8152609b602052604090206141e1908290600190810190610ba3565b60008b8152609b602052604090206001908101905b015550600061428d565b60008a8152609b6020526040902061421d90600190810190610c5f565b60008b8152609b602052604081206002810191909155600301549091508110156142775760008a8152609b6020526040902061425f9082906001016002610ba3565b60008b8152609b6020526040902060010160026141f6565b506000898152609b602052604081206003018190555b5050506000878152609b602052604090204290555050505b6142bd610eb06142b488613aea565b61092f89613c5a565b6000878152609b60205260409020600601556001945050505050919050565b6000806143056142eb84613aea565b6000858152609b6020526040902054610929904290614ced565b9050600061431284613c5a565b90508181101561432757600092505050610faf565b6143318183614ced565b949350505050565b60006143456001614ebf565b9050801561435d576000805461ff0019166101001790555b614365614f44565b61436d614f74565b609780546001600160a01b038087166001600160a01b03199283161790925560988054868416908316179055609980549285169290911691909117905580156143f0576000805461ff0019169055604051600181527f7f26b83ff96e1f2b6a682f133852f6798a09c465da95921460cefb38474024989060200160405180910390a15b50505050565b609a546000906001600160a01b031633146144235760405162461bcd60e51b815260040161064b90615425565b506000918252609b60209081526040832060040180546001808201835591855291909320015590565b60655460ff161561446f5760405162461bcd60e51b815260040161064b90615475565b6000818152609b60209081526040808320600401805482518185028101850190935280835285949384939291908301828280156144cb57602002820191906000526020600020905b8154815260200190600101908083116144b7575b5050505050905060005b81518110156146b45760975482516000916001600160a01b0316906373d97f399085908590811061451657634e487b7160e01b600052603260045260246000fd5b60200260200101516040518263ffffffff1660e01b815260040161453c91815260200190565b60006040518083038186803b15801561455457600080fd5b505afa158015614568573d6000803e3d6000fd5b505050506040513d6000823e601f3d908101601f1916820160405261459091908101906152c0565b5050609a548951929750600096506001600160a01b0316945063436254d693508a9250889188915081106145d457634e487b7160e01b600052603260045260246000fd5b60200260200101516040518363ffffffff1660e01b8152600401614602929190918252602082015260400190565b60006040518083038186803b15801561461a57600080fd5b505afa15801561462e573d6000803e3d6000fd5b505050506040513d6000823e601f3d908101601f1916820160405261465691908101906151ca565b905060005b825181101561469e5761468a6108ad83838151811061086f57634e487b7160e01b600052603260045260246000fd5b95508061469681615630565b91505061465b565b50505080806146ac90615630565b9150506144d5565b506000838152609b60205260408120546146d3906108fd904290614ced565b9050620186a0811115614a4a5760008080836146f8620186a061092f83610929612ca5565b925061470a83609c6000610947610fe6565b609c6000614716610fe6565b6001600160a01b03166001600160a01b031681526020019081526020016000208190555060005b865181101561482b576147786109e2620186a061092f896109298e8d88815181106109d557634e487b7160e01b600052603260045260246000fd5b94506147ab610a29620186a061092f896109298c8781518110610a1c57634e487b7160e01b600052603260045260246000fd5b92506147d882609c60006109478b8681518110610a5d57634e487b7160e01b600052603260045260246000fd5b609c60006147ff8a8581518110610a5d57634e487b7160e01b600052603260045260246000fd5b6001600160a01b031681526020810191909152604001600020558061482381615630565b91505061473d565b506000888152609b60209081526040808320600501546001600160a01b03168352609c90915290205461485e9085614ce1565b6000898152609b60209081526040808320600501546001600160a01b03168352609c918290528220929092556148999184916109478c610fb4565b609c60006148a68b610fb4565b6001600160a01b0316815260208101919091526040016000908120919091556148d582610b6785818989614ce1565b60008a8152609b6020526040812060010154919250908210156149265760008a8152609b6020526040812061490f91849160010190610ba3565b60008b8152609b6020526040902060010155614a32565b60008a8152609b6020526040812061494391600190910190610bdb565b60008b8152609b602052604081206001810191909155600201549091508110156149a55760008a8152609b60205260409020614986908290600190810190610ba3565b60008b8152609b602052604090206001908101905b0155506000614a32565b60008a8152609b602052604090206149c290600190810190610c5f565b60008b8152609b60205260408120600281019190915560030154909150811015614a1c5760008a8152609b60205260409020614a049082906001016002610ba3565b60008b8152609b60205260409020600101600261499b565b506000898152609b602052604081206003018190555b5050506000878152609b602052604090204290555050505b6000858152609b6020526040902060030154614a668682612305565b505050505050565b609a546000906001600160a01b03163314614a9b5760405162461bcd60e51b815260040161064b90615425565b6000848152609b6020908152604080832060040180548251818502810185019093528083529192909190830182828015614af457602002820191906000526020600020905b815481526020019060010190808311614ae0575b5050505050905060005b8151811015614b7a5784828281518110614b2857634e487b7160e01b600052603260045260246000fd5b60200260200101511415614b685783828281518110614b5757634e487b7160e01b600052603260045260246000fd5b602002602001018181525050614b7a565b80614b7281615630565b915050614afe565b506000858152609b602090815260409091208251614ba092600490920191840190614fe5565b50600195945050505050565b6033546001600160a01b03163314614bd65760405162461bcd60e51b815260040161064b906154ed565b6001600160a01b038116614c3b5760405162461bcd60e51b815260206004820152602660248201527f4f776e61626c653a206e6577206f776e657220697320746865207a65726f206160448201526564647265737360d01b606482015260840161064b565b614c4481614d05565b50565b6097546040516373d97f3960e01b8152600481018390526000916001600160a01b0316906373d97f399060240160006040518083038186803b158015614c8c57600080fd5b505afa158015614ca0573d6000803e3d6000fd5b505050506040513d6000823e601f3d908101601f19168201604052614cc891908101906152c0565b9998505050505050505050565b6000613c2a82846155fa565b6000613c2a82846155c2565b6000613c2a8284615619565b6000613c2a82846155da565b603380546001600160a01b038381166001600160a01b0319831681179093556040519116919082907f8be0079c531659141344cd1fd0a4f28419497f9722a3daafe3b4186f6b6457e090600090a35050565b60995460009083906001600160a01b03166323b872dd336040516001600160e01b031960e084901b1681526001600160a01b03909116600482015230602482015260448101869052606401602060405180830381600087803b158015614dbc57600080fd5b505af1158015614dd0573d6000803e3d6000fd5b505050506040513d601f19601f82011682018060405250810190614df491906151fd565b50604080516060810182526000838152609b6020818152848320600181018054865260029182015483870152938790529190529192830191614e37918791610e40565b90526000828152609b60205260409020614e58916001909101906003614fa7565b506000818152609b60205260409020429055614e7384613cc0565b5060408051858152600260208201529081018490527fc3cb85e2217091051779d8f75f52cc9874723c3b9fad06042a5fa2df88df96429060600160405180910390a15060019392505050565b60008054610100900460ff1615614f06578160ff166001148015614ee25750303b155b614efe5760405162461bcd60e51b815260040161064b9061549f565b506000610faf565b60005460ff808416911610614f2d5760405162461bcd60e51b815260040161064b9061549f565b506000805460ff191660ff83161790556001610faf565b600054610100900460ff16614f6b5760405162461bcd60e51b815260040161064b90615522565b611c4c33614d05565b600054610100900460ff16614f9b5760405162461bcd60e51b815260040161064b90615522565b6065805460ff19169055565b8260038101928215614fd5579160200282015b82811115614fd5578251825591602001919060010190614fba565b50614fe192915061503d565b5090565b828054828255906000526020600020908101928215614fd55791602002820182811115614fd5578251825591602001919060010190614fba565b60405180606001604052806003906020820280368337509192915050565b5b80821115614fe1576000815560010161503e565b600082601f830112615062578081fd5b815160206150776150728361559e565b61556d565b8281528181019085830183850287018401881015615093578586fd5b855b858110156150b157815184529284019290840190600101615095565b5090979650505050505050565b80518015158114610faf57600080fd5b6000602082840312156150df578081fd5b8135613c2a81615677565b6000602082840312156150fb578081fd5b8151613c2a81615677565b60008060408385031215615118578081fd5b823561512381615677565b946020939093013593505050565b60006020808385031215615143578182fd5b823567ffffffffffffffff811115615159578283fd5b8301601f81018513615169578283fd5b80356151776150728261559e565b8181528381019083850185840285018601891015615193578687fd5b8694505b838510156151be5780356151aa81615677565b835260019490940193918501918501615197565b50979650505050505050565b6000602082840312156151db578081fd5b815167ffffffffffffffff8111156151f1578182fd5b61433184828501615052565b60006020828403121561520e578081fd5b613c2a826150be565b60008060006060848603121561522b578081fd5b833561523681615677565b9250602084013561524681615677565b9150604084013561525681615677565b809150509250925092565b600060208284031215615272578081fd5b5035919050565b60006020828403121561528a578081fd5b5051919050565b600080604083850312156152a3578182fd5b8235915060208301356152b581615677565b809150509250929050565b600080600080600080600080610100898b0312156152dc578384fd5b885197506152ec60208a016150be565b96506040890151955061530160608a016150be565b9450608089015167ffffffffffffffff8082111561531d578586fd5b6153298c838d01615052565b955060a08b015191508082111561533e578485fd5b5061534b8b828c01615052565b60c08b015160e0909b0151999c989b509699959894979350505050565b6000806040838503121561537a578182fd5b50508035926020909101359150565b60008060006060848603121561539d578081fd5b505081359360208301359350604090920135919050565b600080600080608085870312156153c9578182fd5b84359350602085013592506040850135915060608501356153e981615677565b939692955090935050565b60608101818360005b600381101561541c5781518352602092830192909101906001016153fd565b50505092915050565b60208082526030908201527f537562736372697074696f6e436f6e74726163742063616e206f6e6c7920636160408201526f3636103a3434b990333ab731ba34b7b760811b606082015260800190565b60208082526010908201526f14185d5cd8589b194e881c185d5cd95960821b604082015260600190565b6020808252602e908201527f496e697469616c697a61626c653a20636f6e747261637420697320616c72656160408201526d191e481a5b9a5d1a585b1a5e995960921b606082015260800190565b6020808252818101527f4f776e61626c653a2063616c6c6572206973206e6f7420746865206f776e6572604082015260600190565b6020808252602b908201527f496e697469616c697a61626c653a20636f6e7472616374206973206e6f74206960408201526a6e697469616c697a696e6760a81b606082015260800190565b604051601f8201601f1916810167ffffffffffffffff8111828210171561559657615596615661565b604052919050565b600067ffffffffffffffff8211156155b8576155b8615661565b5060209081020190565b600082198211156155d5576155d561564b565b500190565b6000826155f557634e487b7160e01b81526012600452602481fd5b500490565b60008160001904831182151516156156145761561461564b565b500290565b60008282101561562b5761562b61564b565b500390565b60006000198214156156445761564461564b565b5060010190565b634e487b7160e01b600052601160045260246000fd5b634e487b7160e01b600052604160045260246000fd5b6001600160a01b0381168114614c4457600080fdfea2646970667358221220a846595ce0ea06cf0895d7f8ae08d84e3be21fbfe987395f5fdb160af705945064736f6c63430008020033",
  "linkReferences": {},
  "deployedLinkReferences": {}
}