{
  "_format": "hh-sol-artifact-1",
  "contractName": "SubscriptionBalance",
  "sourceName": "contracts/SubscriptionBalance.sol",
  "abi": [
    {
      "anonymous": false,
      "inputs": [
        {
          "indexed": false,
          "internalType": "uint256",
          "name": "NFTId",
          "type": "uint256"
        },
        {
          "indexed": false,
          "internalType": "uint256",
          "name": "balanceType",
          "type": "uint256"
        },
        {
          "indexed": false,
          "internalType": "uint256",
          "name": "bal",
          "type": "uint256"
        }
      ],
      "name": "BalanceAdded",
      "type": "event"
    },
    {
      "anonymous": false,
      "inputs": [
        {
          "indexed": false,
          "internalType": "uint256",
          "name": "NFTId",
          "type": "uint256"
        },
        {
          "indexed": false,
          "internalType": "uint256",
          "name": "balanceType",
          "type": "uint256"
        },
        {
          "indexed": false,
          "internalType": "uint256",
          "name": "bal",
          "type": "uint256"
        }
      ],
      "name": "BalanceWithdrawn",
      "type": "event"
    },
    {
      "anonymous": false,
      "inputs": [
        {
          "indexed": false,
          "internalType": "uint256",
          "name": "ReferralPercent",
          "type": "uint256"
        },
        {
          "indexed": false,
          "internalType": "uint256",
          "name": "ReferralRevExpirySecs",
          "type": "uint256"
        }
      ],
      "name": "ChangedReferralAttributes",
      "type": "event"
    },
    {
      "anonymous": false,
      "inputs": [
        {
          "indexed": false,
          "internalType": "uint8",
          "name": "version",
          "type": "uint8"
        }
      ],
      "name": "Initialized",
      "type": "event"
    },
    {
      "anonymous": false,
      "inputs": [
        {
          "indexed": true,
          "internalType": "address",
          "name": "previousOwner",
          "type": "address"
        },
        {
          "indexed": true,
          "internalType": "address",
          "name": "newOwner",
          "type": "address"
        }
      ],
      "name": "OwnershipTransferred",
      "type": "event"
    },
    {
      "anonymous": false,
      "inputs": [
        {
          "indexed": false,
          "internalType": "address",
          "name": "account",
          "type": "address"
        }
      ],
      "name": "Paused",
      "type": "event"
    },
    {
      "anonymous": false,
      "inputs": [
        {
          "indexed": false,
          "internalType": "uint256",
          "name": "NFTId",
          "type": "uint256"
        }
      ],
      "name": "SettledBalanceFor",
      "type": "event"
    },
    {
      "anonymous": false,
      "inputs": [
        {
          "indexed": false,
          "internalType": "address",
          "name": "account",
          "type": "address"
        }
      ],
      "name": "Unpaused",
      "type": "event"
    },
    {
      "inputs": [],
      "name": "ApplicationNFT",
      "outputs": [
        {
          "internalType": "contract IERC721",
          "name": "",
          "type": "address"
        }
      ],
      "stateMutability": "view",
      "type": "function"
    },
    {
      "inputs": [],
      "name": "BalanceCalculator",
      "outputs": [
        {
          "internalType": "contract IBalanceCalculator",
          "name": "",
          "type": "address"
        }
      ],
      "stateMutability": "view",
      "type": "function"
    },
    {
      "inputs": [],
      "name": "ReferralPercent",
      "outputs": [
        {
          "internalType": "uint256",
          "name": "",
          "type": "uint256"
        }
      ],
      "stateMutability": "view",
      "type": "function"
    },
    {
      "inputs": [],
      "name": "ReferralRevExpirySecs",
      "outputs": [
        {
          "internalType": "uint256",
          "name": "",
          "type": "uint256"
        }
      ],
      "stateMutability": "view",
      "type": "function"
    },
    {
      "inputs": [],
      "name": "RegistrationContract",
      "outputs": [
        {
          "internalType": "contract IRegistration",
          "name": "",
          "type": "address"
        }
      ],
      "stateMutability": "view",
      "type": "function"
    },
    {
      "inputs": [],
      "name": "SubscriptionContract",
      "outputs": [
        {
          "internalType": "contract ISubscription",
          "name": "",
          "type": "address"
        }
      ],
      "stateMutability": "view",
      "type": "function"
    },
    {
      "inputs": [],
      "name": "XCTToken",
      "outputs": [
        {
          "internalType": "contract IERC20Upgradeable",
          "name": "",
          "type": "address"
        }
      ],
      "stateMutability": "view",
      "type": "function"
    },
    {
      "inputs": [
        {
          "internalType": "uint256",
          "name": "_nftId",
          "type": "uint256"
        },
        {
          "internalType": "uint256",
          "name": "_balanceToAdd",
          "type": "uint256"
        }
      ],
      "name": "addBalance",
      "outputs": [
        {
          "internalType": "bool",
          "name": "",
          "type": "bool"
        }
      ],
      "stateMutability": "nonpayable",
      "type": "function"
    },
    {
      "inputs": [
        {
          "internalType": "uint256",
          "name": "_toNFTid",
          "type": "uint256"
        },
        {
          "internalType": "uint256",
          "name": "_balanceToAdd",
          "type": "uint256"
        },
        {
          "internalType": "uint256",
          "name": "_expiryUnixTimestamp",
          "type": "uint256"
        }
      ],
      "name": "addBalanceAsCredit",
      "outputs": [],
      "stateMutability": "nonpayable",
      "type": "function"
    },
    {
      "inputs": [
        {
          "internalType": "uint256",
          "name": "_NFTid",
          "type": "uint256"
        },
        {
          "internalType": "uint256",
          "name": "_balanceToAdd",
          "type": "uint256"
        }
      ],
      "name": "addBalanceAsExternalDeposit",
      "outputs": [],
      "stateMutability": "nonpayable",
      "type": "function"
    },
    {
      "inputs": [
        {
          "internalType": "uint256",
          "name": "_nftId",
          "type": "uint256"
        },
        {
          "internalType": "uint256",
          "name": "_subnetId",
          "type": "uint256"
        }
      ],
      "name": "addSubnetToNFT",
      "outputs": [
        {
          "internalType": "bool",
          "name": "",
          "type": "bool"
        }
      ],
      "stateMutability": "nonpayable",
      "type": "function"
    },
    {
      "inputs": [
        {
          "internalType": "uint256",
          "name": "NFTid",
          "type": "uint256"
        }
      ],
      "name": "balanceLeft",
      "outputs": [
        {
          "internalType": "uint256",
          "name": "",
          "type": "uint256"
        }
      ],
      "stateMutability": "view",
      "type": "function"
    },
    {
      "inputs": [
        {
          "internalType": "uint256",
          "name": "_nftId",
          "type": "uint256"
        },
        {
          "internalType": "uint256",
          "name": "_currentSubnetId",
          "type": "uint256"
        },
        {
          "internalType": "uint256",
          "name": "_newSubnetId",
          "type": "uint256"
        }
      ],
      "name": "changeSubnet",
      "outputs": [
        {
          "internalType": "bool",
          "name": "",
          "type": "bool"
        }
      ],
      "stateMutability": "nonpayable",
      "type": "function"
    },
    {
      "inputs": [
        {
          "internalType": "uint256",
          "name": "_ReferralPercent",
          "type": "uint256"
        },
        {
          "internalType": "uint256",
          "name": "_ReferralRevExpirySecs",
          "type": "uint256"
        }
      ],
      "name": "change__ReferralAttributes",
      "outputs": [],
      "stateMutability": "nonpayable",
      "type": "function"
    },
    {
      "inputs": [
        {
          "internalType": "address",
          "name": "",
          "type": "address"
        },
        {
          "internalType": "uint256",
          "name": "",
          "type": "uint256"
        }
      ],
      "name": "creditsExpiry",
      "outputs": [
        {
          "internalType": "uint256",
          "name": "",
          "type": "uint256"
        }
      ],
      "stateMutability": "view",
      "type": "function"
    },
    {
      "inputs": [
        {
          "internalType": "uint256",
          "name": "NFTid",
          "type": "uint256"
        }
      ],
      "name": "dripRatePerSec",
      "outputs": [
        {
          "internalType": "uint256",
          "name": "totalDripRate",
          "type": "uint256"
        }
      ],
      "stateMutability": "view",
      "type": "function"
    },
    {
      "inputs": [
        {
          "internalType": "uint256",
          "name": "NFTid",
          "type": "uint256"
        },
        {
          "internalType": "uint256",
          "name": "subnetId",
          "type": "uint256"
        }
      ],
      "name": "dripRatePerSecOfSubnet",
      "outputs": [
        {
          "internalType": "uint256",
          "name": "",
          "type": "uint256"
        }
      ],
      "stateMutability": "view",
      "type": "function"
    },
    {
      "inputs": [
        {
          "internalType": "uint256",
          "name": "NFTid",
          "type": "uint256"
        }
      ],
      "name": "getRealtimeBalances",
      "outputs": [
        {
          "internalType": "uint256[3]",
          "name": "",
          "type": "uint256[3]"
        }
      ],
      "stateMutability": "view",
      "type": "function"
    },
    {
      "inputs": [
        {
          "internalType": "uint256",
          "name": "NFTid",
          "type": "uint256"
        }
      ],
      "name": "getRealtimeCostIncurredUnsettled",
      "outputs": [
        {
          "internalType": "uint256",
          "name": "",
          "type": "uint256"
        }
      ],
      "stateMutability": "view",
      "type": "function"
    },
    {
      "inputs": [
        {
          "internalType": "contract IRegistration",
          "name": "_RegistrationContract",
          "type": "address"
        },
        {
          "internalType": "contract IERC721",
          "name": "_ApplicationNFT",
          "type": "address"
        },
        {
          "internalType": "contract IERC20Upgradeable",
          "name": "_XCTToken",
          "type": "address"
        },
        {
          "internalType": "contract IBalanceCalculator",
          "name": "_BalanceCalculator",
          "type": "address"
        },
        {
          "internalType": "uint256",
          "name": "_ReferralPercent",
          "type": "uint256"
        },
        {
          "internalType": "uint256",
          "name": "_ReferralRevExpirySecs",
          "type": "uint256"
        }
      ],
      "name": "initialize",
      "outputs": [],
      "stateMutability": "nonpayable",
      "type": "function"
    },
    {
      "inputs": [
        {
          "internalType": "uint256",
          "name": "_nftId",
          "type": "uint256"
        }
      ],
      "name": "isBalancePresent",
      "outputs": [
        {
          "internalType": "bool",
          "name": "",
          "type": "bool"
        }
      ],
      "stateMutability": "view",
      "type": "function"
    },
    {
      "inputs": [
        {
          "internalType": "uint256",
          "name": "",
          "type": "uint256"
        }
      ],
      "name": "nftBalances",
      "outputs": [
        {
          "internalType": "uint256",
          "name": "lastBalanceUpdateTime",
          "type": "uint256"
        },
        {
          "internalType": "address",
          "name": "NFTMinter",
          "type": "address"
        },
        {
          "internalType": "uint256",
          "name": "mintTime",
          "type": "uint256"
        },
        {
          "internalType": "uint256",
          "name": "endOfXCTBalance",
          "type": "uint256"
        }
      ],
      "stateMutability": "view",
      "type": "function"
    },
    {
      "inputs": [],
      "name": "owner",
      "outputs": [
        {
          "internalType": "address",
          "name": "",
          "type": "address"
        }
      ],
      "stateMutability": "view",
      "type": "function"
    },
    {
      "inputs": [],
      "name": "paused",
      "outputs": [
        {
          "internalType": "bool",
          "name": "",
          "type": "bool"
        }
      ],
      "stateMutability": "view",
      "type": "function"
    },
    {
      "inputs": [
        {
          "internalType": "uint256",
          "name": "NFTid",
          "type": "uint256"
        }
      ],
      "name": "prevBalances",
      "outputs": [
        {
          "internalType": "uint256[3]",
          "name": "",
          "type": "uint256[3]"
        }
      ],
      "stateMutability": "view",
      "type": "function"
    },
    {
      "inputs": [
        {
          "internalType": "uint256",
          "name": "_nftId",
          "type": "uint256"
        },
        {
          "internalType": "uint256",
          "name": "_subnetId",
          "type": "uint256"
        }
      ],
      "name": "r_licenseFee",
      "outputs": [
        {
          "internalType": "uint256",
          "name": "",
          "type": "uint256"
        }
      ],
      "stateMutability": "view",
      "type": "function"
    },
    {
      "inputs": [
        {
          "internalType": "uint256",
          "name": "_nftId",
          "type": "uint256"
        }
      ],
      "name": "refreshEndOfBalance",
      "outputs": [
        {
          "internalType": "bool",
          "name": "",
          "type": "bool"
        }
      ],
      "stateMutability": "nonpayable",
      "type": "function"
    },
    {
      "inputs": [],
      "name": "renounceOwnership",
      "outputs": [],
      "stateMutability": "nonpayable",
      "type": "function"
    },
    {
      "inputs": [],
      "name": "s_GlobalDAOAddress",
      "outputs": [
        {
          "internalType": "address",
          "name": "",
          "type": "address"
        }
      ],
      "stateMutability": "view",
      "type": "function"
    },
    {
      "inputs": [],
      "name": "s_GlobalDAORate",
      "outputs": [
        {
          "internalType": "uint256",
          "name": "",
          "type": "uint256"
        }
      ],
      "stateMutability": "view",
      "type": "function"
    },
    {
      "inputs": [
        {
          "internalType": "address",
          "name": "_Subscription",
          "type": "address"
        }
      ],
      "name": "setSubscriptionContract",
      "outputs": [],
      "stateMutability": "nonpayable",
      "type": "function"
    },
    {
      "inputs": [
        {
          "internalType": "uint256",
          "name": "_nftId",
          "type": "uint256"
        }
      ],
      "name": "settleAccountBalance",
      "outputs": [
        {
          "internalType": "bool",
          "name": "",
          "type": "bool"
        }
      ],
      "stateMutability": "nonpayable",
      "type": "function"
    },
    {
      "inputs": [
        {
          "internalType": "uint256",
          "name": "_subnetId",
          "type": "uint256"
        }
      ],
      "name": "subnetDAOWalletFor1",
      "outputs": [
        {
          "internalType": "address",
          "name": "",
          "type": "address"
        }
      ],
      "stateMutability": "view",
      "type": "function"
    },
    {
      "inputs": [
        {
          "internalType": "uint256",
          "name": "_nftId",
          "type": "uint256"
        },
        {
          "internalType": "uint256",
          "name": "_balanceToAdd",
          "type": "uint256"
        },
        {
          "internalType": "uint256",
          "name": "_subnetId",
          "type": "uint256"
        },
        {
          "internalType": "address",
          "name": "_minter",
          "type": "address"
        }
      ],
      "name": "subscribeNew",
      "outputs": [
        {
          "internalType": "bool",
          "name": "",
          "type": "bool"
        }
      ],
      "stateMutability": "nonpayable",
      "type": "function"
    },
    {
      "inputs": [
        {
          "internalType": "uint256",
          "name": "_subnetId",
          "type": "uint256"
        }
      ],
      "name": "t_SupportFeeRate",
      "outputs": [
        {
          "internalType": "uint256",
          "name": "fee",
          "type": "uint256"
        }
      ],
      "stateMutability": "view",
      "type": "function"
    },
    {
      "inputs": [
        {
          "internalType": "uint256",
          "name": "_tokenId",
          "type": "uint256"
        }
      ],
      "name": "t_supportFeeAddress",
      "outputs": [
        {
          "internalType": "address",
          "name": "",
          "type": "address"
        }
      ],
      "stateMutability": "view",
      "type": "function"
    },
    {
      "inputs": [
        {
          "internalType": "uint256",
          "name": "NFTid",
          "type": "uint256"
        }
      ],
      "name": "totalPrevBalance",
      "outputs": [
        {
          "internalType": "uint256",
          "name": "",
          "type": "uint256"
        }
      ],
      "stateMutability": "view",
      "type": "function"
    },
    {
      "inputs": [
        {
          "internalType": "uint256",
          "name": "nftId",
          "type": "uint256"
        }
      ],
      "name": "totalSubnets",
      "outputs": [
        {
          "internalType": "uint256",
          "name": "",
          "type": "uint256"
        }
      ],
      "stateMutability": "view",
      "type": "function"
    },
    {
      "inputs": [
        {
          "internalType": "address",
          "name": "newOwner",
          "type": "address"
        }
      ],
      "name": "transferOwnership",
      "outputs": [],
      "stateMutability": "nonpayable",
      "type": "function"
    },
    {
      "inputs": [
        {
          "internalType": "uint256",
          "name": "_NFTid",
          "type": "uint256"
        }
      ],
      "name": "withdrawAllOwnerBalance",
      "outputs": [],
      "stateMutability": "nonpayable",
      "type": "function"
    },
    {
      "inputs": [
        {
          "internalType": "uint256",
          "name": "_NFTid",
          "type": "uint256"
        },
        {
          "internalType": "uint256",
          "name": "_bal",
          "type": "uint256"
        }
      ],
      "name": "withdrawBalance",
      "outputs": [],
      "stateMutability": "nonpayable",
      "type": "function"
    },
    {
      "inputs": [
        {
          "internalType": "uint256",
          "name": "_NFTid",
          "type": "uint256"
        },
        {
          "internalType": "address",
          "name": "_to",
          "type": "address"
        }
      ],
      "name": "withdrawCreditsForNFT",
      "outputs": [],
      "stateMutability": "nonpayable",
      "type": "function"
    }
  ],
  "bytecode": "0x608060405234801561001057600080fd5b50613070806100206000396000f3fe608060405234801561001057600080fd5b506004361061025e5760003560e01c806395d6f97611610146578063b4b33ecd116100c3578063c6d1900311610087578063c6d1900314610592578063d480dc14146105a5578063d7c41c79146105b8578063dadd989a146105cb578063f2fde38b146105de578063f73ecb30146105f15761025e565b8063b4b33ecd14610523578063b4e7667614610536578063b5d8e98614610549578063b7cb42e41461055c578063c49f0fca1461057f5761025e565b8063a6d5d7021161010a578063a6d5d702146104ce578063a8440fe2146104e1578063abb4b9cd146104f4578063aef72fb214610507578063b0d47ef51461051a5761025e565b806395d6f9761461047a57806396bbda3e1461048d57806399655519146104955780639c5a6dea146104a8578063a40398a6146104bb5761025e565b80635c975abb116101df578063715018a6116101a3578063715018a61461041257806385f834a81461041a57806388d6c8051461043a5780638d8440b31461044d5780638da5cb5b1461045657806394f6340c146104675761025e565b80635c975abb146103435780635f7bc5101461035a578063620f8c7d14610385578063632bd76a146103ec5780636f594033146103ff5761025e565b80632fc84de8116102265780632fc84de8146102d657806333206192146102e957806341910dc11461030a57806345c37cd41461031d578063545204fe146103305761025e565b80631505a4d414610263578063192cd212146102785780631bef5ddf146102a85780631d2e0223146102bb5780632ee2ec90146102c3575b600080fd5b610276610271366004612c49565b610604565b005b61028b610286366004612b16565b61087c565b6040516001600160a01b0390911681526020015b60405180910390f35b61028b6102b6366004612b16565b610902565b61028b610934565b6102766102d1366004612b46565b6109b6565b60995461028b906001600160a01b031681565b6102fc6102f7366004612c28565b610e67565b60405190815260200161029f565b609a5461028b906001600160a01b031681565b60985461028b906001600160a01b031681565b61027661033e366004612993565b61106b565b60655460ff165b604051901515815260200161029f565b6102fc6103683660046129cb565b609f60209081526000928352604080842090915290825290205481565b6103c4610393366004612b16565b609e60205260009081526040902080546005820154600683015460079093015491926001600160a01b039091169184565b604080519485526001600160a01b03909316602085015291830152606082015260800161029f565b6102766103fa366004612c28565b6110fe565b609b5461028b906001600160a01b031681565b6102766114db565b61042d610428366004612b16565b611511565b60405161029f9190612d14565b61034a610448366004612b16565b6115b5565b6102fc609c5481565b6033546001600160a01b031661028b565b61034a610475366004612c74565b61176e565b610276610488366004612c28565b6118a4565b6102fc611915565b6102766104a3366004612c28565b611992565b61042d6104b6366004612b16565b611b49565b61034a6104c9366004612c28565b611b98565b6102fc6104dc366004612b16565b611bae565b6102fc6104ef366004612c28565b611c63565b60975461028b906001600160a01b031681565b61034a610515366004612b16565b611cee565b6102fc609d5481565b6102fc610531366004612b16565b611d17565b61034a610544366004612b16565b611d7d565b6102fc610557366004612b16565b611f25565b6102fc61056a366004612b16565b6000908152609e602052604090206004015490565b6102fc61058d366004612b16565b611f88565b61034a6105a0366004612c28565b61201d565b6102766105b3366004612b16565b612073565b6102766105c6366004612aa9565b612222565b61034a6105d9366004612c49565b6122f9565b6102766105ec366004612993565b612437565b6102fc6105ff366004612b16565b6124d2565b60655460ff16156106305760405162461bcd60e51b815260040161062790612d95565b60405180910390fd5b336000908152609f60209081526040808320868452909152902054839082116106c15760405162461bcd60e51b815260206004820152603860248201527f43726564697473206578706972792063616e6e6f7420626520736574206c657360448201527f736572207468616e2070726576696f75732065787069727900000000000000006064820152608401610627565b6099546001600160a01b03166323b872dd33609b5460405160e084901b6001600160e01b03191681526001600160a01b0392831660048201529116602482015260448101869052606401602060405180830381600087803b15801561072557600080fd5b505af1158015610739573d6000803e3d6000fd5b505050506040513d601f19601f8201168201806040525081019061075d9190612a8f565b50604080516060810182526000838152609e6020529182209091829161078c918791600101905b015490612561565b81526000838152609e60208181526040808420600281015483870152600380820154929096019190915292869052526107ca92600190910191612856565b506107d4816115b5565b506000818152609e6020526040902042905561080b6108046107f583611bae565b6107fe84611d17565b9061256d565b4290612561565b6000828152609e6020908152604080832060070193909355338252609f8152828220848352815282822085905582518481529081019190915280820185905290517fc3cb85e2217091051779d8f75f52cc9874723c3b9fad06042a5fa2df88df96429181900360600190a150505050565b6097546040516379fed2eb60e01b8152600481018390526000916001600160a01b0316906379fed2eb906024015b60206040518083038186803b1580156108c257600080fd5b505afa1580156108d6573d6000803e3d6000fd5b505050506040513d601f19601f820116820180604052508101906108fa91906129af565b90505b919050565b6098546040516331a9108f60e11b8152600481018390526000916001600160a01b031690636352211e906024016108aa565b609754604080516341facd6360e11b815290516000926001600160a01b0316916383f59ac6916004808301926020929190829003018186803b15801561097957600080fd5b505afa15801561098d573d6000803e3d6000fd5b505050506040513d601f19601f820116820180604052508101906109b191906129af565b905090565b609a546001600160a01b03166391d148547f86c262939a9533c4628ccc11f9decb407b7c04ffc9311f0c60d1f23d7d790db7336040516001600160e01b031960e085901b16815260048101929092526001600160a01b0316602482015260440160206040518083038186803b158015610a2e57600080fd5b505afa158015610a42573d6000803e3d6000fd5b505050506040513d601f19601f82011682018060405250810190610a669190612a8f565b610aca5760405162461bcd60e51b815260206004820152602f60248201527f53656e646572206973206e6f742061737369676e656420746f2057495448445260448201526e41575f435245444954535f524f4c4560881b6064820152608401610627565b60655460ff1615610aed5760405162461bcd60e51b815260040161062790612d95565b609b546000838152609e6020526040808220600581015460068201548254935163180de30360e21b815288966001600160a01b03908116956360378c0c95610b4b958a95600480840196959092169490936001909301929101612e8d565b606060405180830381600087803b158015610b6557600080fd5b505af1158015610b79573d6000803e3d6000fd5b505050506040513d601f19601f82011682018060405250810190610b9d91906129f6565b9050604051806060016040528082600060038110610bcb57634e487b7160e01b600052603260045260246000fd5b6020020151815260200182600160038110610bf657634e487b7160e01b600052603260045260246000fd5b6020020151815260200182600260038110610c2157634e487b7160e01b600052603260045260246000fd5b6020020151815250609e6000848152602001908152602001600020600101906003610c4d929190612856565b506000828152609e60209081526040808320429081905587845281842060010154338552609f8452828520898652909352922054869211610cd05760405162461bcd60e51b815260206004820152601760248201527f43726564697473206e6f742065787069726564207965740000000000000000006044820152606401610627565b604051806060016040528060008152602001609e6000858152602001908152602001600020600101600160038110610d1857634e487b7160e01b600052603260045260246000fd5b015481526000848152609e602081815260408320600380820154958301959095529287905252610d4d92600190910191612856565b506000828152609e60205260409020429055610d77610804610d6e84611bae565b6107fe85611d17565b6000838152609e60205260409081902060070191909155609954905163a9059cbb60e01b81526001600160a01b038781166004830152602482018490529091169063a9059cbb90604401602060405180830381600087803b158015610ddb57600080fd5b505af1158015610def573d6000803e3d6000fd5b505050506040513d601f19601f82011682018060405250810190610e139190612a8f565b50610e1d826115b5565b5060408051878152600060208201529081018290527f9fc5fbd32dfd68871ac42806891adcad25750bfe126df566b5077854f5f630919060600160405180910390a1505050505050565b600080610e9e620186a0610e98609c54610e98610e83886124d2565b610e98610e908b8b611c63565b610e98611915565b90612561565b6097546040516373d97f3960e01b8152600481018690529192506000916001600160a01b03909116906373d97f399060240160006040518083038186803b158015610ee857600080fd5b505afa158015610efc573d6000803e3d6000fd5b505050506040513d6000823e601f3d908101601f19168201604052610f249190810190612b75565b5050609a546040516321b12a6b60e11b8152939850600097508796506001600160a01b0316945063436254d69350610f6d928c92508b9150600401918252602082015260400190565b60006040518083038186803b158015610f8557600080fd5b505afa158015610f99573d6000803e3d6000fd5b505050506040513d6000823e601f3d908101601f19168201604052610fc19190810190612a5c565b905060005b835181101561104e5761103a611033838381518110610ff557634e487b7160e01b600052603260045260246000fd5b602002602001015186848151811061101d57634e487b7160e01b600052603260045260246000fd5b602002602001015161257990919063ffffffff16565b8490612561565b92508061104681612fde565b915050610fc6565b50611060620186a06107fe8685612579565b979650505050505050565b6033546001600160a01b031633146110955760405162461bcd60e51b815260040161062790612e0d565b609a546001600160a01b0316156110dc5760405162461bcd60e51b815260206004820152600b60248201526a105b1c9958591e481cd95d60aa1b6044820152606401610627565b609a80546001600160a01b0319166001600160a01b0392909216919091179055565b60655460ff16156111215760405162461bcd60e51b815260040161062790612d95565b609b546000838152609e6020526040808220600581015460068201548254935163180de30360e21b815288966001600160a01b03908116956360378c0c9561117f958a95600480840196959092169490936001909301929101612e8d565b606060405180830381600087803b15801561119957600080fd5b505af11580156111ad573d6000803e3d6000fd5b505050506040513d601f19601f820116820180604052508101906111d191906129f6565b90506040518060600160405280826000600381106111ff57634e487b7160e01b600052603260045260246000fd5b602002015181526020018260016003811061122a57634e487b7160e01b600052603260045260246000fd5b602002015181526020018260026003811061125557634e487b7160e01b600052603260045260246000fd5b6020020151815250609e6000848152602001908152602001600020600101906003611281929190612856565b506000828152609e60205260409020429055336098546040516331a9108f60e11b8152600481018790526001600160a01b039283169290911690636352211e9060240160206040518083038186803b1580156112dc57600080fd5b505afa1580156112f0573d6000803e3d6000fd5b505050506040513d601f19601f8201168201806040525081019061131491906129af565b6001600160a01b03161461136a5760405162461bcd60e51b815260206004820152601e60248201527f53656e646572206e6f7420746865206f776e6572206f66204e465420696400006044820152606401610627565b60995484906001600160a01b031663a9059cbb336040516001600160e01b031960e084901b1681526001600160a01b03909116600482015260248101879052604401602060405180830381600087803b1580156113c657600080fd5b505af11580156113da573d6000803e3d6000fd5b505050506040513d601f19601f820116820180604052508101906113fe9190612a8f565b50604080516060810182526000838152609e60208181528483206001810154855260028101548286015292869052526003015490918201906114409087612585565b90526000828152609e60205260409020611461916001909101906003612856565b5061146b816115b5565b5061147b6108046107f583611bae565b6000828152609e602090815260409182902060070192909255805183815260029281019290925281018590527f9fc5fbd32dfd68871ac42806891adcad25750bfe126df566b5077854f5f630919060600160405180910390a15050505050565b6033546001600160a01b031633146115055760405162461bcd60e51b815260040161062790612e0d565b61150f6000612591565b565b611519612894565b609b546000838152609e60205260409081902080549151631fcec4ef60e21b81526001600160a01b0390931692637f3b13bc926115659287926004808301936001909301929101612edf565b60606040518083038186803b15801561157d57600080fd5b505afa158015611591573d6000803e3d6000fd5b505050506040513d601f19601f820116820180604052508101906108fa91906129f6565b609b546000828152609e6020526040808220600581015460068201548254935163180de30360e21b81529495879587956001600160a01b03928316956360378c0c95611614958a95600480850196939091169491936001019201612e8d565b606060405180830381600087803b15801561162e57600080fd5b505af1158015611642573d6000803e3d6000fd5b505050506040513d601f19601f8201168201806040525081019061166691906129f6565b905060405180606001604052808260006003811061169457634e487b7160e01b600052603260045260246000fd5b60200201518152602001826001600381106116bf57634e487b7160e01b600052603260045260246000fd5b60200201518152602001826002600381106116ea57634e487b7160e01b600052603260045260246000fd5b6020020151815250609e6000848152602001908152602001600020600101906003611716929190612856565b506000828152609e602052604090819020429055517f3bda1b4694d992fb54cc978eeb244d68fdc43b35bd6ab79072a3cd06caf4379d9061175a9086815260200190565b60405180910390a1600192505b5050919050565b609a546000906001600160a01b0316331461179b5760405162461bcd60e51b815260040161062790612d45565b6040805160c08101825242808252825160608181018552600080835260208381018290528387018290528086019384528587018390526001600160a01b03891686840152608086019490945260a085018190528a8152609e909352939091208251815590516118109060018301906003612856565b506040820151805161182c9160048401916020909101906128b2565b5060608201516005820180546001600160a01b0319166001600160a01b039092169190911790556080820151600682015560a0909101516007909101556000868152609e602090815260408220600401805460018101825590835291200184905561189786866125e3565b5060019695505050505050565b6033546001600160a01b031633146118ce5760405162461bcd60e51b815260040161062790612e0d565b609c829055609d81905560408051838152602081018390527f9060cd8adabd78a7c227c233ac5e2c8eccad79cc1567d501d043485484625164910160405180910390a15050565b609754604080516319ec727760e31b815290516000926001600160a01b03169163cf6393b8916004808301926020929190829003018186803b15801561195a57600080fd5b505afa15801561196e573d6000803e3d6000fd5b505050506040513d601f19601f820116820180604052508101906109b19190612b2e565b60655460ff16156119b55760405162461bcd60e51b815260040161062790612d95565b60995482906001600160a01b03166323b872dd33609b5460405160e084901b6001600160e01b03191681526001600160a01b0392831660048201529116602482015260448101859052606401602060405180830381600087803b158015611a1b57600080fd5b505af1158015611a2f573d6000803e3d6000fd5b505050506040513d601f19601f82011682018060405250810190611a539190612a8f565b50604080516060810182526000838152609e6020818152938220600190810180548552928690529084529192830191611a8d918691610784565b81526000838152609e602081815260408320600380820154958301959095529286905252611ac092600190910191612856565b50611aca816115b5565b506000818152609e60205260409020429055611aeb6108046107f583611bae565b6000828152609e602090815260409182902060070192909255805183815260019281019290925281018390527fc3cb85e2217091051779d8f75f52cc9874723c3b9fad06042a5fa2df88df96429060600160405180910390a1505050565b611b51612894565b6000828152609e60205260409081902081516060810190925260010160038282826020028201915b815481526020019060010190808311611b795750505050509050919050565b6000611ba483836125e3565b5060019392505050565b6000818152609e6020908152604080832060040180548251818502810185019093528083528493830182828015611c0457602002820191906000526020600020905b815481526020019060010190808311611bf0575b505050505090506000915060005b815181101561176757611c4f61103385848481518110611c4257634e487b7160e01b600052603260045260246000fd5b6020026020010151610e67565b925080611c5b81612fde565b915050611c12565b609a5460405163542207f160e11b815260048101849052602481018390526000916001600160a01b03169063a8440fe29060440160206040518083038186803b158015611caf57600080fd5b505afa158015611cc3573d6000803e3d6000fd5b505050506040513d601f19601f82011682018060405250810190611ce79190612b2e565b9392505050565b6000818152609e6020526040812060070154421015611d0f575060016108fd565b506000919050565b600080805b6003811015611d76576000848152609e60205260409020611d62906001018260038110611d5957634e487b7160e01b600052603260045260246000fd5b01548390612561565b915080611d6e81612fde565b915050611d1c565b5092915050565b609b546000828152609e6020526040808220600581015460068201548254935163180de30360e21b81529495879587956001600160a01b03928316956360378c0c95611ddc958a95600480850196939091169491936001019201612e8d565b606060405180830381600087803b158015611df657600080fd5b505af1158015611e0a573d6000803e3d6000fd5b505050506040513d601f19601f82011682018060405250810190611e2e91906129f6565b9050604051806060016040528082600060038110611e5c57634e487b7160e01b600052603260045260246000fd5b6020020151815260200182600160038110611e8757634e487b7160e01b600052603260045260246000fd5b6020020151815260200182600260038110611eb257634e487b7160e01b600052603260045260246000fd5b6020020151815250609e6000848152602001908152602001600020600101906003611ede929190612856565b506000828152609e60205260409020429055611f08610804611eff86611bae565b6107fe87611d17565b6000858152609e6020526040902060070155600192505050919050565b600080611f54611f3484611bae565b6000858152609e6020526040902054611f4e904290612585565b90612579565b90506000611f6184611d17565b905081811015611f76576000925050506108fd565b611f808183612585565b949350505050565b609b546000828152609e60205260408082208054915163193a6ea960e31b815292936001600160a01b03169263c9d3754892611fcd9287926004918201929101612f16565b60206040518083038186803b158015611fe557600080fd5b505afa158015611ff9573d6000803e3d6000fd5b505050506040513d601f19601f820116820180604052508101906108fa9190612b2e565b609a546000906001600160a01b0316331461204a5760405162461bcd60e51b815260040161062790612d45565b506000918252609e60209081526040832060040180546001808201835591855291909320015590565b60655460ff16156120965760405162461bcd60e51b815260040161062790612d95565b609b546000828152609e6020526040808220600581015460068201548254935163180de30360e21b815287966001600160a01b03908116956360378c0c956120f4958a95600480840196959092169490936001909301929101612e8d565b606060405180830381600087803b15801561210e57600080fd5b505af1158015612122573d6000803e3d6000fd5b505050506040513d601f19601f8201168201806040525081019061214691906129f6565b905060405180606001604052808260006003811061217457634e487b7160e01b600052603260045260246000fd5b602002015181526020018260016003811061219f57634e487b7160e01b600052603260045260246000fd5b60200201518152602001826002600381106121ca57634e487b7160e01b600052603260045260246000fd5b6020020151815250609e60008481526020019081526020016000206001019060036121f6929190612856565b506000828152609e602052604080822042905584825290206003015461221c84826110fe565b50505050565b600061222e600161276e565b90508015612246576000805461ff0019166101001790555b61224e6127f3565b612256612823565b609780546001600160a01b03808a166001600160a01b0319928316179092556098805489841690831617905560998054888416908316179055609b805492871692909116919091179055609c839055609d82905580156122f0576000805461ff0019169055604051600181527f7f26b83ff96e1f2b6a682f133852f6798a09c465da95921460cefb38474024989060200160405180910390a15b50505050505050565b609a546000906001600160a01b031633146123265760405162461bcd60e51b815260040161062790612d45565b6000848152609e602090815260408083206004018054825181850281018501909352808352919290919083018282801561237f57602002820191906000526020600020905b81548152602001906001019080831161236b575b5050505050905060005b815181101561240557848282815181106123b357634e487b7160e01b600052603260045260246000fd5b602002602001015114156123f357838282815181106123e257634e487b7160e01b600052603260045260246000fd5b602002602001018181525050612405565b806123fd81612fde565b915050612389565b506000858152609e60209081526040909120825161242b926004909201918401906128b2565b50600195945050505050565b6033546001600160a01b031633146124615760405162461bcd60e51b815260040161062790612e0d565b6001600160a01b0381166124c65760405162461bcd60e51b815260206004820152602660248201527f4f776e61626c653a206e6577206f776e657220697320746865207a65726f206160448201526564647265737360d01b6064820152608401610627565b6124cf81612591565b50565b6097546040516373d97f3960e01b8152600481018390526000916001600160a01b0316906373d97f399060240160006040518083038186803b15801561251757600080fd5b505afa15801561252b573d6000803e3d6000fd5b505050506040513d6000823e601f3d908101601f191682016040526125539190810190612b75565b509998505050505050505050565b6000611ce78284612f70565b6000611ce78284612f88565b6000611ce78284612fa8565b6000611ce78284612fc7565b603380546001600160a01b038381166001600160a01b0319831681179093556040519116919082907f8be0079c531659141344cd1fd0a4f28419497f9722a3daafe3b4186f6b6457e090600090a35050565b60995460009083906001600160a01b03166323b872dd33609b5460405160e084901b6001600160e01b03191681526001600160a01b0392831660048201529116602482015260448101869052606401602060405180830381600087803b15801561264c57600080fd5b505af1158015612660573d6000803e3d6000fd5b505050506040513d601f19601f820116820180604052508101906126849190612a8f565b5061268e81611d17565b6126a4576000818152609e602052604090204290555b604080516060810182526000838152609e60208181528483206001810180548652600291820154838701529387905291905291928301916126e6918791610784565b90526000828152609e60205260409020612707916001909101906003612856565b506000818152609e6020526040902042905561272284611d7d565b5060408051858152600260208201529081018490527fc3cb85e2217091051779d8f75f52cc9874723c3b9fad06042a5fa2df88df96429060600160405180910390a15060019392505050565b60008054610100900460ff16156127b5578160ff1660011480156127915750303b155b6127ad5760405162461bcd60e51b815260040161062790612dbf565b5060006108fd565b60005460ff8084169116106127dc5760405162461bcd60e51b815260040161062790612dbf565b506000805460ff191660ff831617905560016108fd565b600054610100900460ff1661281a5760405162461bcd60e51b815260040161062790612e42565b61150f33612591565b600054610100900460ff1661284a5760405162461bcd60e51b815260040161062790612e42565b6065805460ff19169055565b8260038101928215612884579160200282015b82811115612884578251825591602001919060010190612869565b506128909291506128ec565b5090565b60405180606001604052806003906020820280368337509192915050565b8280548282559060005260206000209081019282156128845791602002820182811115612884578251825591602001919060010190612869565b5b8082111561289057600081556001016128ed565b600082601f830112612911578081fd5b8151602067ffffffffffffffff82111561292d5761292d61300f565b80820261293b828201612f3f565b838152828101908684018388018501891015612955578687fd5b8693505b85841015612977578051835260019390930192918401918401612959565b50979650505050505050565b805180151581146108fd57600080fd5b6000602082840312156129a4578081fd5b8135611ce781613025565b6000602082840312156129c0578081fd5b8151611ce781613025565b600080604083850312156129dd578081fd5b82356129e881613025565b946020939093013593505050565b600060608284031215612a07578081fd5b82601f830112612a15578081fd5b612a1f6060612f3f565b808385606086011115612a30578384fd5b835b6003811015612a51578151845260209384019390910190600101612a32565b509095945050505050565b600060208284031215612a6d578081fd5b815167ffffffffffffffff811115612a83578182fd5b611f8084828501612901565b600060208284031215612aa0578081fd5b611ce782612983565b60008060008060008060c08789031215612ac1578182fd5b8635612acc81613025565b95506020870135612adc81613025565b94506040870135612aec81613025565b93506060870135612afc81613025565b9598949750929560808101359460a0909101359350915050565b600060208284031215612b27578081fd5b5035919050565b600060208284031215612b3f578081fd5b5051919050565b60008060408385031215612b58578182fd5b823591506020830135612b6a81613025565b809150509250929050565b60008060008060008060008060006101208a8c031215612b93578283fd5b89519850612ba360208b01612983565b975060408a01519650612bb860608b01612983565b955060808a015167ffffffffffffffff80821115612bd4578485fd5b612be08d838e01612901565b965060a08c0151915080821115612bf5578485fd5b50612c028c828d01612901565b94505060c08a0151925060e08a015191506101008a015190509295985092959850929598565b60008060408385031215612c3a578182fd5b50508035926020909101359150565b600080600060608486031215612c5d578081fd5b505081359360208301359350604090920135919050565b60008060008060808587031215612c89578182fd5b8435935060208501359250604085013591506060850135612ca981613025565b939692955090935050565b8060005b600381101561221c578154845260209093019260019182019101612cb8565b6000815480845260208085019450838352808320835b83811015612d0957815487529582019560019182019101612ced565b509495945050505050565b60608101818360005b6003811015612d3c578151835260209283019290910190600101612d1d565b50505092915050565b60208082526030908201527f537562736372697074696f6e436f6e74726163742063616e206f6e6c7920636160408201526f3636103a3434b990333ab731ba34b7b760811b606082015260800190565b60208082526010908201526f14185d5cd8589b194e881c185d5cd95960821b604082015260600190565b6020808252602e908201527f496e697469616c697a61626c653a20636f6e747261637420697320616c72656160408201526d191e481a5b9a5d1a585b1a5e995960921b606082015260800190565b6020808252818101527f4f776e61626c653a2063616c6c6572206973206e6f7420746865206f776e6572604082015260600190565b6020808252602b908201527f496e697469616c697a61626c653a20636f6e7472616374206973206e6f74206960408201526a6e697469616c697a696e6760a81b606082015260800190565b6000610100888352806020840152612ea781840189612cd7565b6001600160a01b0388166040850152606084018790529150612ece90506080830185612cb4565b8260e0830152979650505050505050565b600085825260c06020830152612ef860c0830186612cd7565b9050612f076040830185612cb4565b8260a083015295945050505050565b600084825260606020830152612f2f6060830185612cd7565b9050826040830152949350505050565b604051601f8201601f1916810167ffffffffffffffff81118282101715612f6857612f6861300f565b604052919050565b60008219821115612f8357612f83612ff9565b500190565b600082612fa357634e487b7160e01b81526012600452602481fd5b500490565b6000816000190483118215151615612fc257612fc2612ff9565b500290565b600082821015612fd957612fd9612ff9565b500390565b6000600019821415612ff257612ff2612ff9565b5060010190565b634e487b7160e01b600052601160045260246000fd5b634e487b7160e01b600052604160045260246000fd5b6001600160a01b03811681146124cf57600080fdfea26469706673582212206a255d6ca1b6e14e7debd8f4bce722760080b1e31d638a8e5ea161299da4489064736f6c63430008020033",
  "linkReferences": {},
  "deployedLinkReferences": {}
}