{
  "_format": "hh-sol-artifact-1",
  "contractName": "RoleControl",
  "sourceName": "contracts/deprecated/RoleControl.sol",
  "abi": [
    {
      "anonymous": false,
      "inputs": [
        {
          "indexed": false,
          "internalType": "uint8",
          "name": "version",
          "type": "uint8"
        }
      ],
      "name": "Initialized",
      "type": "event"
    },
    {
      "anonymous": false,
      "inputs": [
        {
          "indexed": true,
          "internalType": "bytes32",
          "name": "role",
          "type": "bytes32"
        },
        {
          "indexed": true,
          "internalType": "bytes32",
          "name": "previousAdminRole",
          "type": "bytes32"
        },
        {
          "indexed": true,
          "internalType": "bytes32",
          "name": "newAdminRole",
          "type": "bytes32"
        }
      ],
      "name": "RoleAdminChanged",
      "type": "event"
    },
    {
      "anonymous": false,
      "inputs": [
        {
          "indexed": true,
          "internalType": "bytes32",
          "name": "role",
          "type": "bytes32"
        },
        {
          "indexed": true,
          "internalType": "address",
          "name": "account",
          "type": "address"
        },
        {
          "indexed": true,
          "internalType": "address",
          "name": "sender",
          "type": "address"
        }
      ],
      "name": "RoleGranted",
      "type": "event"
    },
    {
      "anonymous": false,
      "inputs": [
        {
          "indexed": true,
          "internalType": "bytes32",
          "name": "role",
          "type": "bytes32"
        },
        {
          "indexed": true,
          "internalType": "address",
          "name": "account",
          "type": "address"
        },
        {
          "indexed": true,
          "internalType": "address",
          "name": "sender",
          "type": "address"
        }
      ],
      "name": "RoleRevoked",
      "type": "event"
    },
    {
      "inputs": [],
      "name": "ACCESS_MANAGER",
      "outputs": [
        {
          "internalType": "bytes32",
          "name": "",
          "type": "bytes32"
        }
      ],
      "stateMutability": "view",
      "type": "function"
    },
    {
      "inputs": [],
      "name": "BILLING_MANAGER",
      "outputs": [
        {
          "internalType": "bytes32",
          "name": "",
          "type": "bytes32"
        }
      ],
      "stateMutability": "view",
      "type": "function"
    },
    {
      "inputs": [],
      "name": "CONTRACT_BASED_DEPLOYER",
      "outputs": [
        {
          "internalType": "bytes32",
          "name": "",
          "type": "bytes32"
        }
      ],
      "stateMutability": "view",
      "type": "function"
    },
    {
      "inputs": [],
      "name": "DEFAULT_ADMIN_ROLE",
      "outputs": [
        {
          "internalType": "bytes32",
          "name": "",
          "type": "bytes32"
        }
      ],
      "stateMutability": "view",
      "type": "function"
    },
    {
      "inputs": [],
      "name": "DEPLOYER",
      "outputs": [
        {
          "internalType": "bytes32",
          "name": "",
          "type": "bytes32"
        }
      ],
      "stateMutability": "view",
      "type": "function"
    },
    {
      "inputs": [],
      "name": "NFTOwner",
      "outputs": [
        {
          "internalType": "address",
          "name": "",
          "type": "address"
        }
      ],
      "stateMutability": "view",
      "type": "function"
    },
    {
      "inputs": [],
      "name": "NFT_Address",
      "outputs": [
        {
          "internalType": "contract IERC721",
          "name": "",
          "type": "address"
        }
      ],
      "stateMutability": "view",
      "type": "function"
    },
    {
      "inputs": [],
      "name": "NFTid",
      "outputs": [
        {
          "internalType": "uint256",
          "name": "",
          "type": "uint256"
        }
      ],
      "stateMutability": "view",
      "type": "function"
    },
    {
      "inputs": [],
      "name": "READ",
      "outputs": [
        {
          "internalType": "bytes32",
          "name": "",
          "type": "bytes32"
        }
      ],
      "stateMutability": "view",
      "type": "function"
    },
    {
      "inputs": [
        {
          "internalType": "string",
          "name": "_roleName",
          "type": "string"
        }
      ],
      "name": "getBytes32OfRole",
      "outputs": [
        {
          "internalType": "bytes32",
          "name": "",
          "type": "bytes32"
        }
      ],
      "stateMutability": "pure",
      "type": "function"
    },
    {
      "inputs": [
        {
          "internalType": "bytes32",
          "name": "role",
          "type": "bytes32"
        }
      ],
      "name": "getRoleAdmin",
      "outputs": [
        {
          "internalType": "bytes32",
          "name": "",
          "type": "bytes32"
        }
      ],
      "stateMutability": "view",
      "type": "function"
    },
    {
      "inputs": [
        {
          "internalType": "bytes32",
          "name": "role",
          "type": "bytes32"
        },
        {
          "internalType": "address",
          "name": "account",
          "type": "address"
        }
      ],
      "name": "grantRole",
      "outputs": [],
      "stateMutability": "nonpayable",
      "type": "function"
    },
    {
      "inputs": [
        {
          "internalType": "bytes32",
          "name": "role",
          "type": "bytes32"
        },
        {
          "internalType": "address",
          "name": "account",
          "type": "address"
        }
      ],
      "name": "hasRole",
      "outputs": [
        {
          "internalType": "bool",
          "name": "",
          "type": "bool"
        }
      ],
      "stateMutability": "view",
      "type": "function"
    },
    {
      "inputs": [
        {
          "internalType": "string",
          "name": "_roleName",
          "type": "string"
        },
        {
          "internalType": "address",
          "name": "_account",
          "type": "address"
        }
      ],
      "name": "hasRoleOf",
      "outputs": [
        {
          "internalType": "bool",
          "name": "",
          "type": "bool"
        }
      ],
      "stateMutability": "view",
      "type": "function"
    },
    {
      "inputs": [
        {
          "internalType": "contract IERC721",
          "name": "_NFT_Address",
          "type": "address"
        },
        {
          "internalType": "uint256",
          "name": "_NFTid",
          "type": "uint256"
        },
        {
          "internalType": "address",
          "name": "_AdminAddress",
          "type": "address"
        }
      ],
      "name": "initialize",
      "outputs": [],
      "stateMutability": "nonpayable",
      "type": "function"
    },
    {
      "inputs": [
        {
          "internalType": "bytes32",
          "name": "role",
          "type": "bytes32"
        },
        {
          "internalType": "address",
          "name": "account",
          "type": "address"
        }
      ],
      "name": "renounceRole",
      "outputs": [],
      "stateMutability": "nonpayable",
      "type": "function"
    },
    {
      "inputs": [
        {
          "internalType": "bytes32",
          "name": "role",
          "type": "bytes32"
        },
        {
          "internalType": "address",
          "name": "account",
          "type": "address"
        }
      ],
      "name": "revokeRole",
      "outputs": [],
      "stateMutability": "nonpayable",
      "type": "function"
    },
    {
      "inputs": [
        {
          "internalType": "bytes4",
          "name": "interfaceId",
          "type": "bytes4"
        }
      ],
      "name": "supportsInterface",
      "outputs": [
        {
          "internalType": "bool",
          "name": "",
          "type": "bool"
        }
      ],
      "stateMutability": "view",
      "type": "function"
    }
  ],
  "bytecode": "0x608060405234801561001057600080fd5b50610c1c806100206000396000f3fe608060405234801561001057600080fd5b50600436106101165760003560e01c8063bed1dbbe116100a2578063dfe4551011610071578063dfe4551014610299578063e1617b29146102b2578063e381313c146102bb578063ecadb523146102e2578063f66d544b146102f557610116565b8063bed1dbbe1461022c578063c1b8411a1461024c578063c350a1b514610273578063d547741f1461028657610116565b80633a7b7a39116100e95780633a7b7a391461019c57806366599dc3146101c35780638a74ec3a146101ea57806391d1485414610211578063a217fddf1461022457610116565b806301ffc9a71461011b578063248a9ca3146101435780632f2ff15d1461017457806336568abe14610189575b600080fd5b61012e610129366004610a31565b610308565b60405190151581526020015b60405180910390f35b6101666101513660046109ea565b60009081526065602052604090206001015490565b60405190815260200161013a565b610187610182366004610a02565b610341565b005b610187610197366004610a02565b610403565b6101667f73d57861095ed1ff7b0e5c00e25f9fc922cf9164e617149ee7073f371364c95481565b6101667f917ec7ea41e5f357223d15148fe9b320af36ca576055af433ea3445b3922179981565b6101667f623badb9039dbbd5d587be00d11d7c8156609448b61d5432194584599d5524d981565b61012e61021f366004610a02565b61047d565b610166600081565b6102346104a8565b6040516001600160a01b03909116815260200161013a565b6101667f503cf060389b91af8851125bd70ce66d16d12330718b103fc7674ef6d27e70c981565b610187610281366004610a59565b61052e565b610187610294366004610a02565b6106a3565b6101666102a7366004610a9a565b805160209091012090565b61016660985481565b6101667ffc4d5b8dc48f53079d1753f1e53aabb674d1bdef461b3803bef96591e9ef396981565b61012e6102f0366004610ad5565b61074e565b609754610234906001600160a01b031681565b60006001600160e01b03198216637965db0b60e01b148061033957506301ffc9a760e01b6001600160e01b03198316145b90505b919050565b336097546098546040516331a9108f60e11b815260048101919091526001600160a01b039283169290911690636352211e9060240160206040518083038186803b15801561038e57600080fd5b505afa1580156103a2573d6000803e3d6000fd5b505050506040513d601f19601f820116820180604052508101906103c691906109ce565b6001600160a01b0316146103f55760405162461bcd60e51b81526004016103ec90610b68565b60405180910390fd5b6103ff8282610768565b5050565b6001600160a01b03811633146104735760405162461bcd60e51b815260206004820152602f60248201527f416363657373436f6e74726f6c3a2063616e206f6e6c792072656e6f756e636560448201526e103937b632b9903337b91039b2b63360891b60648201526084016103ec565b6103ff82826107ee565b60009182526065602090815260408084206001600160a01b0393909316845291905290205460ff1690565b6097546098546040516331a9108f60e11b815260048101919091526000916001600160a01b031690636352211e9060240160206040518083038186803b1580156104f157600080fd5b505afa158015610505573d6000803e3d6000fd5b505050506040513d601f19601f8201168201806040525081019061052991906109ce565b905090565b600061053a6001610855565b90508015610552576000805461ff0019166101001790555b61055a6108da565b610565600083610768565b61058f7f917ec7ea41e5f357223d15148fe9b320af36ca576055af433ea3445b3922179983610768565b6105b97f503cf060389b91af8851125bd70ce66d16d12330718b103fc7674ef6d27e70c983610768565b6105e37f73d57861095ed1ff7b0e5c00e25f9fc922cf9164e617149ee7073f371364c95483610768565b61060d7ffc4d5b8dc48f53079d1753f1e53aabb674d1bdef461b3803bef96591e9ef396983610768565b6106377f623badb9039dbbd5d587be00d11d7c8156609448b61d5432194584599d5524d983610768565b609780546001600160a01b0319166001600160a01b0386161790556098839055801561069d576000805461ff0019169055604051600181527f7f26b83ff96e1f2b6a682f133852f6798a09c465da95921460cefb38474024989060200160405180910390a15b50505050565b336097546098546040516331a9108f60e11b815260048101919091526001600160a01b039283169290911690636352211e9060240160206040518083038186803b1580156106f057600080fd5b505afa158015610704573d6000803e3d6000fd5b505050506040513d601f19601f8201168201806040525081019061072891906109ce565b6001600160a01b0316146104735760405162461bcd60e51b81526004016103ec90610b68565b600061076183805190602001208361047d565b9392505050565b610772828261047d565b6103ff5760008281526065602090815260408083206001600160a01b03851684529091529020805460ff191660011790556107aa3390565b6001600160a01b0316816001600160a01b0316837f2f8788117e7eff1d82e926ec794901d17c78024a50270940304540a733656f0d60405160405180910390a45050565b6107f8828261047d565b156103ff5760008281526065602090815260408083206001600160a01b0385168085529252808320805460ff1916905551339285917ff6391f5c32d9c69d2a47ea670b442974b53935d1edc7fd64eb21e047a839171b9190a45050565b60008054610100900460ff161561089c578160ff1660011480156108785750303b155b6108945760405162461bcd60e51b81526004016103ec90610b1a565b50600061033c565b60005460ff8084169116106108c35760405162461bcd60e51b81526004016103ec90610b1a565b506000805460ff191660ff8316179055600161033c565b600054610100900460ff166109455760405162461bcd60e51b815260206004820152602b60248201527f496e697469616c697a61626c653a20636f6e7472616374206973206e6f74206960448201526a6e697469616c697a696e6760a81b60648201526084016103ec565b565b600082601f830112610957578081fd5b813567ffffffffffffffff8082111561097257610972610bb8565b604051601f8301601f19908116603f0116810190828211818310171561099a5761099a610bb8565b816040528381528660208588010111156109b2578485fd5b8360208701602083013792830160200193909352509392505050565b6000602082840312156109df578081fd5b815161076181610bce565b6000602082840312156109fb578081fd5b5035919050565b60008060408385031215610a14578081fd5b823591506020830135610a2681610bce565b809150509250929050565b600060208284031215610a42578081fd5b81356001600160e01b031981168114610761578182fd5b600080600060608486031215610a6d578081fd5b8335610a7881610bce565b9250602084013591506040840135610a8f81610bce565b809150509250925092565b600060208284031215610aab578081fd5b813567ffffffffffffffff811115610ac1578182fd5b610acd84828501610947565b949350505050565b60008060408385031215610ae7578182fd5b823567ffffffffffffffff811115610afd578283fd5b610b0985828601610947565b9250506020830135610a2681610bce565b6020808252602e908201527f496e697469616c697a61626c653a20636f6e747261637420697320616c72656160408201526d191e481a5b9a5d1a585b1a5e995960921b606082015260800190565b60208082526030908201527f4772616e7420616e64205265766f6b6520726f6c65206f6e6c7920616c6c6f7760408201526f32b2103337b91027232a1037bbb732b960811b606082015260800190565b634e487b7160e01b600052604160045260246000fd5b6001600160a01b0381168114610be357600080fd5b5056fea2646970667358221220ff361cb1ab57e1d7108c13a2f0ae0cf9577ff97ea05cb0c137a9a9a7bf550b3064736f6c63430008020033",
  "linkReferences": {},
  "deployedLinkReferences": {}
}